{
  "abi": [
    {
      "inputs": [
        {
          "internalType": "contract IBank",
          "name": "_bank",
          "type": "address"
        },
        {
          "internalType": "address",
          "name": "_werc20",
          "type": "address"
        },
        {
          "internalType": "address",
          "name": "_weth",
          "type": "address"
        },
        {
          "internalType": "address",
          "name": "_wgauge",
          "type": "address"
        }
      ],
      "stateMutability": "nonpayable",
      "type": "constructor"
    },
    {
      "anonymous": false,
      "inputs": [
        {
          "indexed": false,
          "internalType": "address",
          "name": "governor",
          "type": "address"
        }
      ],
      "name": "AcceptGovernor",
      "type": "event"
    },
    {
      "anonymous": false,
      "inputs": [
        {
          "indexed": false,
          "internalType": "address",
          "name": "governor",
          "type": "address"
        }
      ],
      "name": "SetGovernor",
      "type": "event"
    },
    {
      "anonymous": false,
      "inputs": [
        {
          "indexed": false,
          "internalType": "address",
          "name": "pendingGovernor",
          "type": "address"
        }
      ],
      "name": "SetPendingGovernor",
      "type": "event"
    },
    {
      "inputs": [],
      "name": "acceptGovernor",
      "outputs": [],
      "stateMutability": "nonpayable",
      "type": "function"
    },
    {
      "inputs": [
        {
          "internalType": "address",
          "name": "lp",
          "type": "address"
        },
        {
          "internalType": "uint256[2]",
          "name": "amtsUser",
          "type": "uint256[2]"
        },
        {
          "internalType": "uint256",
          "name": "amtLPUser",
          "type": "uint256"
        },
        {
          "internalType": "uint256[2]",
          "name": "amtsBorrow",
          "type": "uint256[2]"
        },
        {
          "internalType": "uint256",
          "name": "amtLPBorrow",
          "type": "uint256"
        },
        {
          "internalType": "uint256",
          "name": "minLPMint",
          "type": "uint256"
        },
        {
          "internalType": "uint256",
          "name": "pid",
          "type": "uint256"
        },
        {
          "internalType": "uint256",
          "name": "gid",
          "type": "uint256"
        }
      ],
      "name": "addLiquidity2",
      "outputs": [],
      "stateMutability": "nonpayable",
      "type": "function"
    },
    {
      "inputs": [
        {
          "internalType": "address",
          "name": "lp",
          "type": "address"
        },
        {
          "internalType": "uint256[3]",
          "name": "amtsUser",
          "type": "uint256[3]"
        },
        {
          "internalType": "uint256",
          "name": "amtLPUser",
          "type": "uint256"
        },
        {
          "internalType": "uint256[3]",
          "name": "amtsBorrow",
          "type": "uint256[3]"
        },
        {
          "internalType": "uint256",
          "name": "amtLPBorrow",
          "type": "uint256"
        },
        {
          "internalType": "uint256",
          "name": "minLPMint",
          "type": "uint256"
        },
        {
          "internalType": "uint256",
          "name": "pid",
          "type": "uint256"
        },
        {
          "internalType": "uint256",
          "name": "gid",
          "type": "uint256"
        }
      ],
      "name": "addLiquidity3",
      "outputs": [],
      "stateMutability": "nonpayable",
      "type": "function"
    },
    {
      "inputs": [
        {
          "internalType": "address",
          "name": "lp",
          "type": "address"
        },
        {
          "internalType": "uint256[4]",
          "name": "amtsUser",
          "type": "uint256[4]"
        },
        {
          "internalType": "uint256",
          "name": "amtLPUser",
          "type": "uint256"
        },
        {
          "internalType": "uint256[4]",
          "name": "amtsBorrow",
          "type": "uint256[4]"
        },
        {
          "internalType": "uint256",
          "name": "amtLPBorrow",
          "type": "uint256"
        },
        {
          "internalType": "uint256",
          "name": "minLPMint",
          "type": "uint256"
        },
        {
          "internalType": "uint256",
          "name": "pid",
          "type": "uint256"
        },
        {
          "internalType": "uint256",
          "name": "gid",
          "type": "uint256"
        }
      ],
      "name": "addLiquidity4",
      "outputs": [],
      "stateMutability": "nonpayable",
      "type": "function"
    },
    {
      "inputs": [
        {
          "internalType": "address",
          "name": "",
          "type": "address"
        },
        {
          "internalType": "address",
          "name": "",
          "type": "address"
        }
      ],
      "name": "approved",
      "outputs": [
        {
          "internalType": "bool",
          "name": "",
          "type": "bool"
        }
      ],
      "stateMutability": "view",
      "type": "function"
    },
    {
      "inputs": [],
      "name": "bank",
      "outputs": [
        {
          "internalType": "contract IBank",
          "name": "",
          "type": "address"
        }
      ],
      "stateMutability": "view",
      "type": "function"
    },
    {
      "inputs": [],
      "name": "crv",
      "outputs": [
        {
          "internalType": "address",
          "name": "",
          "type": "address"
        }
      ],
      "stateMutability": "view",
      "type": "function"
    },
    {
      "inputs": [
        {
          "internalType": "address",
          "name": "lp",
          "type": "address"
        },
        {
          "internalType": "uint256",
          "name": "n",
          "type": "uint256"
        }
      ],
      "name": "ensureApproveN",
      "outputs": [],
      "stateMutability": "nonpayable",
      "type": "function"
    },
    {
      "inputs": [
        {
          "internalType": "address",
          "name": "lp",
          "type": "address"
        }
      ],
      "name": "getPool",
      "outputs": [
        {
          "internalType": "address",
          "name": "",
          "type": "address"
        }
      ],
      "stateMutability": "nonpayable",
      "type": "function"
    },
    {
      "inputs": [],
      "name": "governor",
      "outputs": [
        {
          "internalType": "address",
          "name": "",
          "type": "address"
        }
      ],
      "stateMutability": "view",
      "type": "function"
    },
    {
      "inputs": [],
      "name": "harvest",
      "outputs": [],
      "stateMutability": "nonpayable",
      "type": "function"
    },
    {
      "inputs": [
        {
          "internalType": "address",
          "name": "",
          "type": "address"
        },
        {
          "internalType": "address",
          "name": "",
          "type": "address"
        },
        {
          "internalType": "uint256[]",
          "name": "",
          "type": "uint256[]"
        },
        {
          "internalType": "uint256[]",
          "name": "",
          "type": "uint256[]"
        },
        {
          "internalType": "bytes",
          "name": "",
          "type": "bytes"
        }
      ],
      "name": "onERC1155BatchReceived",
      "outputs": [
        {
          "internalType": "bytes4",
          "name": "",
          "type": "bytes4"
        }
      ],
      "stateMutability": "nonpayable",
      "type": "function"
    },
    {
      "inputs": [
        {
          "internalType": "address",
          "name": "",
          "type": "address"
        },
        {
          "internalType": "address",
          "name": "",
          "type": "address"
        },
        {
          "internalType": "uint256",
          "name": "",
          "type": "uint256"
        },
        {
          "internalType": "uint256",
          "name": "",
          "type": "uint256"
        },
        {
          "internalType": "bytes",
          "name": "",
          "type": "bytes"
        }
      ],
      "name": "onERC1155Received",
      "outputs": [
        {
          "internalType": "bytes4",
          "name": "",
          "type": "bytes4"
        }
      ],
      "stateMutability": "nonpayable",
      "type": "function"
    },
    {
      "inputs": [],
      "name": "pendingGovernor",
      "outputs": [
        {
          "internalType": "address",
          "name": "",
          "type": "address"
        }
      ],
      "stateMutability": "view",
      "type": "function"
    },
    {
      "inputs": [
        {
          "internalType": "address",
          "name": "",
          "type": "address"
        }
      ],
      "name": "poolOf",
      "outputs": [
        {
          "internalType": "address",
          "name": "",
          "type": "address"
        }
      ],
      "stateMutability": "view",
      "type": "function"
    },
    {
      "inputs": [],
      "name": "registry",
      "outputs": [
        {
          "internalType": "contract ICurveRegistry",
          "name": "",
          "type": "address"
        }
      ],
      "stateMutability": "view",
      "type": "function"
    },
    {
      "inputs": [
        {
          "internalType": "address",
          "name": "lp",
          "type": "address"
        },
        {
          "internalType": "uint256",
          "name": "amtLPTake",
          "type": "uint256"
        },
        {
          "internalType": "uint256",
          "name": "amtLPWithdraw",
          "type": "uint256"
        },
        {
          "internalType": "uint256[2]",
          "name": "amtsRepay",
          "type": "uint256[2]"
        },
        {
          "internalType": "uint256",
          "name": "amtLPRepay",
          "type": "uint256"
        },
        {
          "internalType": "uint256[2]",
          "name": "amtsMin",
          "type": "uint256[2]"
        }
      ],
      "name": "removeLiquidity2",
      "outputs": [],
      "stateMutability": "nonpayable",
      "type": "function"
    },
    {
      "inputs": [
        {
          "internalType": "address",
          "name": "lp",
          "type": "address"
        },
        {
          "internalType": "uint256",
          "name": "amtLPTake",
          "type": "uint256"
        },
        {
          "internalType": "uint256",
          "name": "amtLPWithdraw",
          "type": "uint256"
        },
        {
          "internalType": "uint256[3]",
          "name": "amtsRepay",
          "type": "uint256[3]"
        },
        {
          "internalType": "uint256",
          "name": "amtLPRepay",
          "type": "uint256"
        },
        {
          "internalType": "uint256[3]",
          "name": "amtsMin",
          "type": "uint256[3]"
        }
      ],
      "name": "removeLiquidity3",
      "outputs": [],
      "stateMutability": "nonpayable",
      "type": "function"
    },
    {
      "inputs": [
        {
          "internalType": "address",
          "name": "lp",
          "type": "address"
        },
        {
          "internalType": "uint256",
          "name": "amtLPTake",
          "type": "uint256"
        },
        {
          "internalType": "uint256",
          "name": "amtLPWithdraw",
          "type": "uint256"
        },
        {
          "internalType": "uint256[4]",
          "name": "amtsRepay",
          "type": "uint256[4]"
        },
        {
          "internalType": "uint256",
          "name": "amtLPRepay",
          "type": "uint256"
        },
        {
          "internalType": "uint256[4]",
          "name": "amtsMin",
          "type": "uint256[4]"
        }
      ],
      "name": "removeLiquidity4",
      "outputs": [],
      "stateMutability": "nonpayable",
      "type": "function"
    },
    {
      "inputs": [
        {
          "internalType": "address",
          "name": "_pendingGovernor",
          "type": "address"
        }
      ],
      "name": "setPendingGovernor",
      "outputs": [],
      "stateMutability": "nonpayable",
      "type": "function"
    },
    {
      "inputs": [
        {
          "internalType": "address[]",
          "name": "lpTokens",
          "type": "address[]"
        },
        {
          "internalType": "bool[]",
          "name": "statuses",
          "type": "bool[]"
        }
      ],
      "name": "setWhitelistLPTokens",
      "outputs": [],
      "stateMutability": "nonpayable",
      "type": "function"
    },
    {
      "inputs": [
        {
          "internalType": "bytes4",
          "name": "interfaceId",
          "type": "bytes4"
        }
      ],
      "name": "supportsInterface",
      "outputs": [
        {
          "internalType": "bool",
          "name": "",
          "type": "bool"
        }
      ],
      "stateMutability": "view",
      "type": "function"
    },
    {
      "inputs": [
        {
          "internalType": "address",
          "name": "",
          "type": "address"
        },
        {
          "internalType": "uint256",
          "name": "",
          "type": "uint256"
        }
      ],
      "name": "ulTokens",
      "outputs": [
        {
          "internalType": "address",
          "name": "",
          "type": "address"
        }
      ],
      "stateMutability": "view",
      "type": "function"
    },
    {
      "inputs": [],
      "name": "werc20",
      "outputs": [
        {
          "internalType": "contract IWERC20",
          "name": "",
          "type": "address"
        }
      ],
      "stateMutability": "view",
      "type": "function"
    },
    {
      "inputs": [],
      "name": "weth",
      "outputs": [
        {
          "internalType": "address",
          "name": "",
          "type": "address"
        }
      ],
      "stateMutability": "view",
      "type": "function"
    },
    {
      "inputs": [],
      "name": "wgauge",
      "outputs": [
        {
          "internalType": "contract IWLiquidityGauge",
          "name": "",
          "type": "address"
        }
      ],
      "stateMutability": "view",
      "type": "function"
    },
    {
      "inputs": [
        {
          "internalType": "address",
          "name": "",
          "type": "address"
        }
      ],
      "name": "whitelistedLpTokens",
      "outputs": [
        {
          "internalType": "bool",
          "name": "",
          "type": "bool"
        }
      ],
      "stateMutability": "view",
      "type": "function"
    },
    {
      "stateMutability": "payable",
      "type": "receive"
    }
  ],
  "bytecode": "6101406040523480156200001257600080fd5b50604051620066c6380380620066c6833981016040819052620000359162000796565b8383838282826200004d6301ffc9a760e01b620002a6565b6200005f630271189760e51b620002a6565b6001600160601b0319606084811b821660805283811b821660a05282901b1660c0526200008d818462000301565b60405163a22cb46560e01b81526001600160a01b0383169063a22cb46590620000be90869060019060040162000881565b600060405180830381600087803b158015620000d957600080fd5b505af1158015620000ee573d6000803e3d6000fd5b50505050505050620001056200038b60201b60201c565b5050506001600160601b0319606082901b166101005260405163a22cb46560e01b81526001600160a01b0382169063a22cb465906200014c90879060019060040162000881565b600060405180830381600087803b1580156200016757600080fd5b505af11580156200017c573d6000803e3d6000fd5b50505050806001600160a01b0316637b1039996040518163ffffffff1660e01b8152600401602060405180830381600087803b158015620001bc57600080fd5b505af1158015620001d1573d6000803e3d6000fd5b505050506040513d601f19601f82011682018060405250810190620001f79190620007fd565b6001600160a01b031660e0816001600160a01b031660601b81525050806001600160a01b0316636a4874a16040518163ffffffff1660e01b8152600401602060405180830381600087803b1580156200024f57600080fd5b505af115801562000264573d6000803e3d6000fd5b505050506040513d601f19601f820116820180604052508101906200028a9190620007fd565b60601b6001600160601b031916610120525062000adc92505050565b6001600160e01b03198082161415620002dc5760405162461bcd60e51b8152600401620002d390620008ea565b60405180910390fd5b6001600160e01b0319166000908152602081905260409020805460ff19166001179055565b6001600160a01b0380831660009081526041602090815260408083209385168352929052205460ff1662000387576200035681600019846001600160a01b03166200047d60201b62004518179092919060201c565b6001600160a01b038083166000908152604160209081526040808320938516835292905220805460ff191660011790555b5050565b604254610100900460ff1680620003a75750620003a76200058b565b80620003b6575060425460ff16155b620003d55760405162461bcd60e51b8152600401620002d39062000967565b604254610100900460ff1615801562000401576042805460ff1961ff0019909116610100171660011790555b6042805462010000600160b01b0319163362010000810291909117909155604380546001600160a01b03191690556040517fbce074c8369e26e70e1ae2f14fc944da352cfe6f52e2de9572f0c9942a24b7fc916200045f9162000853565b60405180910390a180156200047a576042805461ff00191690555b50565b8015806200050c5750604051636eb1769f60e11b81526001600160a01b0384169063dd62ed3e90620004b6903090869060040162000867565b60206040518083038186803b158015620004cf57600080fd5b505afa158015620004e4573d6000803e3d6000fd5b505050506040513d601f19601f820116820180604052508101906200050a91906200081c565b155b6200052b5760405162461bcd60e51b8152600401620002d39062000a36565b620005868363095ea7b360e01b84846040516024016200054d9291906200089c565b60408051808303601f190181529190526020810180516001600160e01b0319939093166001600160e01b0393841617905290620005a916565b505050565b6000620005a3306200064560201b620046171760201c565b15905090565b606062000605826040518060400160405280602081526020017f5361666545524332303a206c6f772d6c6576656c2063616c6c206661696c6564815250856001600160a01b03166200064b60201b6200461d179092919060201c565b80519091501562000586578080602001905181019062000626919062000774565b620005865760405162461bcd60e51b8152600401620002d390620009ec565b3b151590565b60606200065c848460008562000666565b90505b9392505050565b6060824710156200068b5760405162461bcd60e51b8152600401620002d39062000921565b620006968562000645565b620006b55760405162461bcd60e51b8152600401620002d390620009b5565b60006060866001600160a01b03168587604051620006d4919062000835565b60006040518083038185875af1925050503d806000811462000713576040519150601f19603f3d011682016040523d82523d6000602084013e62000718565b606091505b5090925090506200072b82828662000736565b979650505050505050565b60608315620007475750816200065f565b825115620007585782518084602001fd5b8160405162461bcd60e51b8152600401620002d39190620008b5565b60006020828403121562000786578081fd5b815180151581146200065f578182fd5b60008060008060808587031215620007ac578283fd5b8451620007b98162000ac6565b6020860151909450620007cc8162000ac6565b6040860151909350620007df8162000ac6565b6060860151909250620007f28162000ac6565b939692955090935050565b6000602082840312156200080f578081fd5b81516200065f8162000ac6565b6000602082840312156200082e578081fd5b5051919050565b600082516200084981846020870162000a93565b9190910192915050565b6001600160a01b0391909116815260200190565b6001600160a01b0392831681529116602082015260400190565b6001600160a01b039290921682521515602082015260400190565b6001600160a01b03929092168252602082015260400190565b6000602082528251806020840152620008d681604085016020870162000a93565b601f01601f19169190910160400192915050565b6020808252601c908201527f4552433136353a20696e76616c696420696e7465726661636520696400000000604082015260600190565b60208082526026908201527f416464726573733a20696e73756666696369656e742062616c616e636520666f6040820152651c8818d85b1b60d21b606082015260800190565b6020808252602e908201527f496e697469616c697a61626c653a20636f6e747261637420697320616c72656160408201526d191e481a5b9a5d1a585b1a5e995960921b606082015260800190565b6020808252601d908201527f416464726573733a2063616c6c20746f206e6f6e2d636f6e7472616374000000604082015260600190565b6020808252602a908201527f5361666545524332303a204552433230206f7065726174696f6e20646964206e6040820152691bdd081cdd58d8d9595960b21b606082015260800190565b60208082526036908201527f5361666545524332303a20617070726f76652066726f6d206e6f6e2d7a65726f60408201527f20746f206e6f6e2d7a65726f20616c6c6f77616e636500000000000000000000606082015260800190565b60005b8381101562000ab057818101518382015260200162000a96565b8381111562000ac0576000848401525b50505050565b6001600160a01b03811681146200047a57600080fd5b60805160601c60a05160601c60c05160601c60e05160601c6101005160601c6101205160601c615a0862000cbe60003980610b1f5280610bac52806115eb528061331752508061061952806106bc52806107935280610826528061089952806109ac52806109ea5280610abc5280610b885280610dac5280610f88528061105352806110e6528061115952806113c6528061146e52806115555280611a5e5280611c3a5280611d055280611d985280611e0b5280612072528061211a5280612201528061230e52806124ea52806125b5528061264852806126bb528061292f52806129d75280612abe5280612d6e5280612fd352806130465280613607528061386152806138d45280613ff7528061425152806142c4525080610bf452806116b3528061179b52806118415250806101b05280610555525080610b6452508061057e52806107f95280610a8f5280610bd05280610ee652806110b952806115285280611b985280611d6b52806121d45280612448528061261b5280612a915280612b8a5280612c205280612e7e5280612fa4528061342352806134b9528061371752806138325280613bc65280613e135280613ea952806141075280614222528061473a52806147f752806148815280614911528061494c5250615a086000f3fe6080604052600436106101a05760003560e01c8063a4052dec116100ec578063e58bb6391161008a578063f235757f11610064578063f235757f1461049f578063f23a6e61146104bf578063f4b16045146104df578063f9c61fb7146104ff576101f8565b8063e58bb6391461044a578063e81667ea1461045f578063ee42c6f41461047f576101f8565b8063be0ca465116100c6578063be0ca465146103d5578063c3d34ea1146103f5578063ce26f24214610415578063e3056a3414610435576101f8565b8063a4052dec14610368578063bbe4f6db14610388578063bc197c81146103a8576101f8565b806368526a78116101595780637b103999116101335780637b103999146102f357806380852cb114610308578063988b1fa7146103285780639a32347014610348576101f8565b806368526a78146102b45780636a4874a1146102c957806376cdb03b146102de576101f8565b806301ffc9a7146101fd5780630c340a24146102335780633fc8cef3146102555780634641257d1461026a5780634bab09f61461027f5780635741229c1461029f576101f8565b366101f857336001600160a01b037f000000000000000000000000000000000000000000000000000000000000000016146101f65760405162461bcd60e51b81526004016101ed90615753565b60405180910390fd5b005b600080fd5b34801561020957600080fd5b5061021d6102183660046152a8565b61051f565b60405161022a919061547c565b60405180910390f35b34801561023f57600080fd5b5061024861053e565b60405161022a91906153c3565b34801561026157600080fd5b50610248610553565b34801561027657600080fd5b506101f6610577565b34801561028b57600080fd5b5061021d61029a366004614cef565b610b4d565b3480156102ab57600080fd5b50610248610b62565b3480156102c057600080fd5b50610248610b86565b3480156102d557600080fd5b50610248610baa565b3480156102ea57600080fd5b50610248610bce565b3480156102ff57600080fd5b50610248610bf2565b34801561031457600080fd5b506101f6610323366004615041565b610c16565b34801561033457600080fd5b50610248610343366004614cef565b610d07565b34801561035457600080fd5b506101f6610363366004614edb565b610d22565b34801561037457600080fd5b50610248610383366004615041565b61161f565b34801561039457600080fd5b506102486103a3366004614cef565b611654565b3480156103b457600080fd5b506103c86103c3366004614d5f565b6119c0565b60405161022a9190615487565b3480156103e157600080fd5b506101f66103f0366004614f51565b6119d4565b34801561040157600080fd5b506101f6610410366004614fc9565b612284565b34801561042157600080fd5b506101f66104303660046150cf565b612b41565b34801561044157600080fd5b5061024861333b565b34801561045657600080fd5b506101f661334a565b34801561046b57600080fd5b506101f661047a366004615126565b6133da565b34801561048b57600080fd5b506101f661049a366004615207565b613b44565b3480156104ab57600080fd5b506101f66104ba366004614cef565b613d12565b3480156104cb57600080fd5b506103c86104da366004614e61565b613d98565b3480156104eb57600080fd5b5061021d6104fa366004614d27565b613daa565b34801561050b57600080fd5b506101f661051a36600461506c565b613dca565b6001600160e01b03191660009081526020819052604090205460ff1690565b6042546201000090046001600160a01b031681565b7f000000000000000000000000000000000000000000000000000000000000000081565b60008060007f00000000000000000000000000000000000000000000000000000000000000006001600160a01b031663f70aedd96040518163ffffffff1660e01b815260040160806040518083038186803b1580156105d557600080fd5b505afa1580156105e9573d6000803e3d6000fd5b505050506040513d601f19601f8201168201806040525081019061060d9190614e1a565b935093509350506000807f00000000000000000000000000000000000000000000000000000000000000006001600160a01b031663dc20c6fa856040518263ffffffff1660e01b81526004016106639190615900565b60606040518083038186803b15801561067b57600080fd5b505afa15801561068f573d6000803e3d6000fd5b505050506040513d601f19601f820116820180604052508101906106b3919061530b565b509150915060007f00000000000000000000000000000000000000000000000000000000000000006001600160a01b031663a4775772866040518263ffffffff1660e01b81526004016107069190615900565b60206040518083038186803b15801561071e57600080fd5b505afa158015610732573d6000803e3d6000fd5b505050506040513d601f19601f820116820180604052508101906107569190614d0b565b6001600160a01b03811660009081526084602052604090205490915060ff166107915760405162461bcd60e51b81526004016101ed906156f4565b7f00000000000000000000000000000000000000000000000000000000000000006001600160a01b0316866001600160a01b0316146107e25760405162461bcd60e51b81526004016101ed9061559f565b604051630d1d697560e31b81526001600160a01b037f000000000000000000000000000000000000000000000000000000000000000016906368eb4ba890610852907f0000000000000000000000000000000000000000000000000000000000000000908990899060040161540a565b600060405180830381600087803b15801561086c57600080fd5b505af1158015610880573d6000803e3d6000fd5b505060405163b390c0ab60e01b81526001600160a01b037f000000000000000000000000000000000000000000000000000000000000000016925063b390c0ab91506108d2908890889060040161595c565b602060405180830381600087803b1580156108ec57600080fd5b505af1158015610900573d6000803e3d6000fd5b505050506040513d601f19601f8201168201806040525081019061092491906152d0565b506040516370a0823160e01b81526000906001600160a01b038316906370a08231906109549030906004016153c3565b60206040518083038186803b15801561096c57600080fd5b505afa158015610980573d6000803e3d6000fd5b505050506040513d601f19601f820116820180604052508101906109a491906152d0565b90506109d0827f0000000000000000000000000000000000000000000000000000000000000000614636565b6040516302acc94b60e01b81526000906001600160a01b037f000000000000000000000000000000000000000000000000000000000000000016906302acc94b90610a239088908890879060040161596a565b602060405180830381600087803b158015610a3d57600080fd5b505af1158015610a51573d6000803e3d6000fd5b505050506040513d601f19601f82011682018060405250810190610a7591906152d0565b60405163314568d960e01b81529091506001600160a01b037f0000000000000000000000000000000000000000000000000000000000000000169063314568d990610ae8907f0000000000000000000000000000000000000000000000000000000000000000908590879060040161540a565b600060405180830381600087803b158015610b0257600080fd5b505af1158015610b16573d6000803e3d6000fd5b50505050610b437f00000000000000000000000000000000000000000000000000000000000000006146ae565b5050505050505050565b60846020526000908152604090205460ff1681565b7f000000000000000000000000000000000000000000000000000000000000000081565b7f000000000000000000000000000000000000000000000000000000000000000081565b7f000000000000000000000000000000000000000000000000000000000000000081565b7f000000000000000000000000000000000000000000000000000000000000000081565b7f000000000000000000000000000000000000000000000000000000000000000081565b6001600160a01b0382166000908152608560205260409020548114610c4d5760405162461bcd60e51b81526004016101ed906158d1565b6001600160a01b038083166000908152608660209081526040808320546085835292819020805482518185028101850190935280835293909416936060939192909190830182828015610cc957602002820191906000526020600020905b81546001600160a01b03168152600190910190602001808311610cab575b5050505050905060005b83811015610d0057610cf8828281518110610cea57fe5b602002602001015184614636565b600101610cd3565b5050505050565b6086602052600090815260409020546001600160a01b031681565b6001600160a01b03881660009081526084602052604090205460ff16610d5a5760405162461bcd60e51b81526004016101ed906156f4565b6000610d6589611654565b6001600160a01b038a16600090815260856020526040902054909150600214610da05760405162461bcd60e51b81526004016101ed906158d1565b886001600160a01b03167f00000000000000000000000000000000000000000000000000000000000000006001600160a01b031663a9b4e6fe85856040518363ffffffff1660e01b8152600401610df892919061595c565b60206040518083038186803b158015610e1057600080fd5b505afa158015610e24573d6000803e3d6000fd5b505050506040513d601f19601f82011682018060405250810190610e489190614d0b565b6001600160a01b031614610e6e5760405162461bcd60e51b81526004016101ed90615803565b6001600160a01b038916600090815260856020908152604091829020805483518184028101840190945280845260609392830182828015610ed857602002820191906000526020600020905b81546001600160a01b03168152600190910190602001808311610eba575b5050505050905060008060007f00000000000000000000000000000000000000000000000000000000000000006001600160a01b031663f70aedd96040518163ffffffff1660e01b815260040160806040518083038186803b158015610f3d57600080fd5b505afa158015610f51573d6000803e3d6000fd5b505050506040513d601f19601f82011682018060405250810190610f759190614e1a565b919550935091505080156111e8576000807f00000000000000000000000000000000000000000000000000000000000000006001600160a01b031663dc20c6fa856040518263ffffffff1660e01b8152600401610fd29190615900565b60606040518083038186803b158015610fea57600080fd5b505afa158015610ffe573d6000803e3d6000fd5b505050506040513d601f19601f82011682018060405250810190611022919061530b565b5091509150888214801561103557508781145b6110515760405162461bcd60e51b81526004016101ed9061572b565b7f00000000000000000000000000000000000000000000000000000000000000006001600160a01b0316856001600160a01b0316146110a25760405162461bcd60e51b81526004016101ed9061559f565b604051630d1d697560e31b81526001600160a01b037f000000000000000000000000000000000000000000000000000000000000000016906368eb4ba890611112907f0000000000000000000000000000000000000000000000000000000000000000908890889060040161540a565b600060405180830381600087803b15801561112c57600080fd5b505af1158015611140573d6000803e3d6000fd5b505060405163b390c0ab60e01b81526001600160a01b037f000000000000000000000000000000000000000000000000000000000000000016925063b390c0ab9150611192908790879060040161595c565b602060405180830381600087803b1580156111ac57600080fd5b505af11580156111c0573d6000803e3d6000fd5b505050506040513d601f19601f820116820180604052508101906111e491906152d0565b5050505b6111f38d6002610c16565b60005b60028110156112345761122c85828151811061120e57fe5b60200260200101518e836002811061122257fe5b60200201356147da565b6001016111f6565b5061123f8d8c6147da565b60005b60028110156112805761127885828151811061125a57fe5b60200260200101518c836002811061126e57fe5b6020020135614864565b600101611242565b5061128b8d8a614864565b611293614b2b565b60005b6002811015611347578581815181106112ab57fe5b60200260200101516001600160a01b03166370a08231306040518263ffffffff1660e01b81526004016112de91906153c3565b60206040518083038186803b1580156112f657600080fd5b505afa15801561130a573d6000803e3d6000fd5b505050506040513d601f19601f8201168201806040525081019061132e91906152d0565b82826002811061133a57fe5b6020020152600101611296565b50805115158061135a5750602081015115155b156113c057604051630b4c7e4d60e01b81526001600160a01b03871690630b4c7e4d9061138d9084908d9060040161542b565b600060405180830381600087803b1580156113a757600080fd5b505af11580156113bb573d6000803e3d6000fd5b505050505b6113ea8e7f0000000000000000000000000000000000000000000000000000000000000000614636565b60008e6001600160a01b03166370a08231306040518263ffffffff1660e01b815260040161141891906153c3565b60206040518083038186803b15801561143057600080fd5b505afa158015611444573d6000803e3d6000fd5b505050506040513d601f19601f8201168201806040525081019061146891906152d0565b905060007f00000000000000000000000000000000000000000000000000000000000000006001600160a01b03166302acc94b8b8b856040518463ffffffff1660e01b81526004016114bc9392919061596a565b602060405180830381600087803b1580156114d657600080fd5b505af11580156114ea573d6000803e3d6000fd5b505050506040513d601f19601f8201168201806040525081019061150e91906152d0565b60405163314568d960e01b81529091506001600160a01b037f0000000000000000000000000000000000000000000000000000000000000000169063314568d990611581907f0000000000000000000000000000000000000000000000000000000000000000908590879060040161540a565b600060405180830381600087803b15801561159b57600080fd5b505af11580156115af573d6000803e3d6000fd5b50505050505060005b60028110156115e5576115dd8682815181106115d057fe5b60200260200101516146ae565b6001016115b8565b5061160f7f00000000000000000000000000000000000000000000000000000000000000006146ae565b5050505050505050505050505050565b6085602052816000526040600020818154811061163857fe5b6000918252602090912001546001600160a01b03169150829050565b6001600160a01b03808216600090815260866020526040812054909116806119ba576001600160a01b03831661169c5760405162461bcd60e51b81526004016101ed906156cf565b60405163bdf475c360e01b81526001600160a01b037f0000000000000000000000000000000000000000000000000000000000000000169063bdf475c3906116e89086906004016153c3565b60206040518083038186803b15801561170057600080fd5b505afa158015611714573d6000803e3d6000fd5b505050506040513d601f19601f820116820180604052508101906117389190614d0b565b90506001600160a01b0381166117605760405162461bcd60e51b81526004016101ed9061578a565b6001600160a01b0383811660009081526086602052604080822080546001600160a01b0319168585161790555163940494f160e01b815290917f0000000000000000000000000000000000000000000000000000000000000000169063940494f1906117d09085906004016153c3565b604080518083038186803b1580156117e757600080fd5b505afa1580156117fb573d6000803e3d6000fd5b505050506040513d601f19601f8201168201806040525081019061181f91906152e8565b50905061182a614b49565b604051639ac90d3d60e01b81526001600160a01b037f00000000000000000000000000000000000000000000000000000000000000001690639ac90d3d906118769086906004016153c3565b6101006040518083038186803b15801561188f57600080fd5b505afa1580156118a3573d6000803e3d6000fd5b505050506040513d601f19601f820116820180604052508101906118c7919061517e565b90508167ffffffffffffffff811180156118e057600080fd5b5060405190808252806020026020018201604052801561190a578160200160208202803683370190505b506001600160a01b038616600090815260856020908152604090912082516119389391929190910190614b68565b5060005b828110156119b65781816008811061195057fe5b602002015160856000886001600160a01b03166001600160a01b03168152602001908152602001600020828154811061198557fe5b600091825260209091200180546001600160a01b0319166001600160a01b039290921691909117905560010161193c565b5050505b92915050565b63bc197c8160e01b98975050505050505050565b6001600160a01b03881660009081526084602052604090205460ff16611a0c5760405162461bcd60e51b81526004016101ed906156f4565b6000611a1789611654565b6001600160a01b038a16600090815260856020526040902054909150600314611a525760405162461bcd60e51b81526004016101ed906158d1565b886001600160a01b03167f00000000000000000000000000000000000000000000000000000000000000006001600160a01b031663a9b4e6fe85856040518363ffffffff1660e01b8152600401611aaa92919061595c565b60206040518083038186803b158015611ac257600080fd5b505afa158015611ad6573d6000803e3d6000fd5b505050506040513d601f19601f82011682018060405250810190611afa9190614d0b565b6001600160a01b031614611b205760405162461bcd60e51b81526004016101ed90615803565b6001600160a01b038916600090815260856020908152604091829020805483518184028101840190945280845260609392830182828015611b8a57602002820191906000526020600020905b81546001600160a01b03168152600190910190602001808311611b6c575b5050505050905060008060007f00000000000000000000000000000000000000000000000000000000000000006001600160a01b031663f70aedd96040518163ffffffff1660e01b815260040160806040518083038186803b158015611bef57600080fd5b505afa158015611c03573d6000803e3d6000fd5b505050506040513d601f19601f82011682018060405250810190611c279190614e1a565b91955093509150508015611e9a576000807f00000000000000000000000000000000000000000000000000000000000000006001600160a01b031663dc20c6fa856040518263ffffffff1660e01b8152600401611c849190615900565b60606040518083038186803b158015611c9c57600080fd5b505afa158015611cb0573d6000803e3d6000fd5b505050506040513d601f19601f82011682018060405250810190611cd4919061530b565b50915091508882148015611ce757508781145b611d035760405162461bcd60e51b81526004016101ed906154cf565b7f00000000000000000000000000000000000000000000000000000000000000006001600160a01b0316856001600160a01b031614611d545760405162461bcd60e51b81526004016101ed9061559f565b604051630d1d697560e31b81526001600160a01b037f000000000000000000000000000000000000000000000000000000000000000016906368eb4ba890611dc4907f0000000000000000000000000000000000000000000000000000000000000000908890889060040161540a565b600060405180830381600087803b158015611dde57600080fd5b505af1158015611df2573d6000803e3d6000fd5b505060405163b390c0ab60e01b81526001600160a01b037f000000000000000000000000000000000000000000000000000000000000000016925063b390c0ab9150611e44908790879060040161595c565b602060405180830381600087803b158015611e5e57600080fd5b505af1158015611e72573d6000803e3d6000fd5b505050506040513d601f19601f82011682018060405250810190611e9691906152d0565b5050505b611ea58d6003610c16565b60005b6003811015611edc57611ed4858281518110611ec057fe5b60200260200101518e836003811061122257fe5b600101611ea8565b50611ee78d8c6147da565b60005b6003811015611f1e57611f16858281518110611f0257fe5b60200260200101518c836003811061126e57fe5b600101611eea565b50611f298d8a614864565b611f31614bcd565b60005b6003811015611fe557858181518110611f4957fe5b60200260200101516001600160a01b03166370a08231306040518263ffffffff1660e01b8152600401611f7c91906153c3565b60206040518083038186803b158015611f9457600080fd5b505afa158015611fa8573d6000803e3d6000fd5b505050506040513d601f19601f82011682018060405250810190611fcc91906152d0565b828260038110611fd857fe5b6020020152600101611f34565b508051151580611ff85750602081015115155b806120065750604081015115155b1561206c57604051634515cef360e01b81526001600160a01b03871690634515cef3906120399084908d90600401615446565b600060405180830381600087803b15801561205357600080fd5b505af1158015612067573d6000803e3d6000fd5b505050505b6120968e7f0000000000000000000000000000000000000000000000000000000000000000614636565b60008e6001600160a01b03166370a08231306040518263ffffffff1660e01b81526004016120c491906153c3565b60206040518083038186803b1580156120dc57600080fd5b505afa1580156120f0573d6000803e3d6000fd5b505050506040513d601f19601f8201168201806040525081019061211491906152d0565b905060007f00000000000000000000000000000000000000000000000000000000000000006001600160a01b03166302acc94b8b8b856040518463ffffffff1660e01b81526004016121689392919061596a565b602060405180830381600087803b15801561218257600080fd5b505af1158015612196573d6000803e3d6000fd5b505050506040513d601f19601f820116820180604052508101906121ba91906152d0565b60405163314568d960e01b81529091506001600160a01b037f0000000000000000000000000000000000000000000000000000000000000000169063314568d99061222d907f0000000000000000000000000000000000000000000000000000000000000000908590879060040161540a565b600060405180830381600087803b15801561224757600080fd5b505af115801561225b573d6000803e3d6000fd5b50505050505060005b60038110156115e55761227c8682815181106115d057fe5b600101612264565b6001600160a01b03881660009081526084602052604090205460ff166122bc5760405162461bcd60e51b81526004016101ed906156f4565b60006122c789611654565b6001600160a01b038a166000908152608560205260409020549091506004146123025760405162461bcd60e51b81526004016101ed906158d1565b886001600160a01b03167f00000000000000000000000000000000000000000000000000000000000000006001600160a01b031663a9b4e6fe85856040518363ffffffff1660e01b815260040161235a92919061595c565b60206040518083038186803b15801561237257600080fd5b505afa158015612386573d6000803e3d6000fd5b505050506040513d601f19601f820116820180604052508101906123aa9190614d0b565b6001600160a01b0316146123d05760405162461bcd60e51b81526004016101ed90615803565b6001600160a01b03891660009081526085602090815260409182902080548351818402810184019094528084526060939283018282801561243a57602002820191906000526020600020905b81546001600160a01b0316815260019091019060200180831161241c575b5050505050905060008060007f00000000000000000000000000000000000000000000000000000000000000006001600160a01b031663f70aedd96040518163ffffffff1660e01b815260040160806040518083038186803b15801561249f57600080fd5b505afa1580156124b3573d6000803e3d6000fd5b505050506040513d601f19601f820116820180604052508101906124d79190614e1a565b9195509350915050801561274a576000807f00000000000000000000000000000000000000000000000000000000000000006001600160a01b031663dc20c6fa856040518263ffffffff1660e01b81526004016125349190615900565b60606040518083038186803b15801561254c57600080fd5b505afa158015612560573d6000803e3d6000fd5b505050506040513d601f19601f82011682018060405250810190612584919061530b565b5091509150888214801561259757508781145b6125b35760405162461bcd60e51b81526004016101ed906154cf565b7f00000000000000000000000000000000000000000000000000000000000000006001600160a01b0316856001600160a01b0316146126045760405162461bcd60e51b81526004016101ed9061559f565b604051630d1d697560e31b81526001600160a01b037f000000000000000000000000000000000000000000000000000000000000000016906368eb4ba890612674907f0000000000000000000000000000000000000000000000000000000000000000908890889060040161540a565b600060405180830381600087803b15801561268e57600080fd5b505af11580156126a2573d6000803e3d6000fd5b505060405163b390c0ab60e01b81526001600160a01b037f000000000000000000000000000000000000000000000000000000000000000016925063b390c0ab91506126f4908790879060040161595c565b602060405180830381600087803b15801561270e57600080fd5b505af1158015612722573d6000803e3d6000fd5b505050506040513d601f19601f8201168201806040525081019061274691906152d0565b5050505b6127558d6004610c16565b60005b600481101561278c5761278485828151811061277057fe5b60200260200101518e836004811061122257fe5b600101612758565b506127978d8c6147da565b60005b60048110156127ce576127c68582815181106127b257fe5b60200260200101518c836004811061126e57fe5b60010161279a565b506127d98d8a614864565b6127e1614beb565b60005b6004811015612895578581815181106127f957fe5b60200260200101516001600160a01b03166370a08231306040518263ffffffff1660e01b815260040161282c91906153c3565b60206040518083038186803b15801561284457600080fd5b505afa158015612858573d6000803e3d6000fd5b505050506040513d601f19601f8201168201806040525081019061287c91906152d0565b82826004811061288857fe5b60200201526001016127e4565b5080511515806128a85750602081015115155b806128b65750604081015115155b806128c45750606081015115155b156129295760405162a6cbcd60e21b81526001600160a01b0387169063029b2f34906128f69084908d90600401615461565b600060405180830381600087803b15801561291057600080fd5b505af1158015612924573d6000803e3d6000fd5b505050505b6129538e7f0000000000000000000000000000000000000000000000000000000000000000614636565b60008e6001600160a01b03166370a08231306040518263ffffffff1660e01b815260040161298191906153c3565b60206040518083038186803b15801561299957600080fd5b505afa1580156129ad573d6000803e3d6000fd5b505050506040513d601f19601f820116820180604052508101906129d191906152d0565b905060007f00000000000000000000000000000000000000000000000000000000000000006001600160a01b03166302acc94b8b8b856040518463ffffffff1660e01b8152600401612a259392919061596a565b602060405180830381600087803b158015612a3f57600080fd5b505af1158015612a53573d6000803e3d6000fd5b505050506040513d601f19601f82011682018060405250810190612a7791906152d0565b60405163314568d960e01b81529091506001600160a01b037f0000000000000000000000000000000000000000000000000000000000000000169063314568d990612aea907f0000000000000000000000000000000000000000000000000000000000000000908590879060040161540a565b600060405180830381600087803b158015612b0457600080fd5b505af1158015612b18573d6000803e3d6000fd5b50505050505060005b60048110156115e557612b398682815181106115d057fe5b600101612b21565b6001600160a01b03861660009081526084602052604090205460ff16612b795760405162461bcd60e51b81526004016101ed906156f4565b6000612b8487611654565b905060007f00000000000000000000000000000000000000000000000000000000000000006001600160a01b031663d7ac71ff6040518163ffffffff1660e01b815260040160206040518083038186803b158015612be157600080fd5b505afa158015612bf5573d6000803e3d6000fd5b505050506040513d601f19601f82011682018060405250810190612c1991906152d0565b90506000807f00000000000000000000000000000000000000000000000000000000000000006001600160a01b031663519f5099846040518263ffffffff1660e01b8152600401612c6a9190615900565b60806040518083038186803b158015612c8257600080fd5b505afa158015612c96573d6000803e3d6000fd5b505050506040513d601f19601f82011682018060405250810190612cba9190614e1a565b509250925050896001600160a01b0316826001600160a01b031663a4775772836040518263ffffffff1660e01b8152600401612cf69190615900565b60206040518083038186803b158015612d0e57600080fd5b505afa158015612d22573d6000803e3d6000fd5b505050506040513d601f19601f82011682018060405250810190612d469190614d0b565b6001600160a01b031614612d6c5760405162461bcd60e51b81526004016101ed90615803565b7f00000000000000000000000000000000000000000000000000000000000000006001600160a01b0316826001600160a01b031614612dbd5760405162461bcd60e51b81526004016101ed9061559f565b6001600160a01b038a16600090815260856020908152604091829020805483518184028101840190945280845260609392830182828015612e2757602002820191906000526020600020905b81546001600160a01b03168152600190910190602001808311612e09575b50505050509050612e398b6003610c16565b612e41614bcd565b60005b6003811015612f48576000198a8260038110612e5c57fe5b602002013514612e7c57898160038110612e7257fe5b6020020135612f2f565b7f00000000000000000000000000000000000000000000000000000000000000006001600160a01b03166382a2fb9c87858481518110612eb857fe5b60200260200101516040518363ffffffff1660e01b8152600401612edd929190615909565b602060405180830381600087803b158015612ef757600080fd5b505af1158015612f0b573d6000803e3d6000fd5b505050506040513d601f19601f82011682018060405250810190612f2f91906152d0565b828260038110612f3b57fe5b6020020152600101612e44565b50612f51614bcd565b60005b6003811015612fa157612f88898260038110612f6c57fe5b6020020135848360038110612f7d57fe5b6020020151906148b8565b828260038110612f9457fe5b6020020152600101612f54565b507f00000000000000000000000000000000000000000000000000000000000000006001600160a01b03166368eb4ba87f0000000000000000000000000000000000000000000000000000000000000000868f6040518463ffffffff1660e01b81526004016130129392919061540a565b600060405180830381600087803b15801561302c57600080fd5b505af1158015613040573d6000803e3d6000fd5b505050507f00000000000000000000000000000000000000000000000000000000000000006001600160a01b031663b390c0ab858e6040518363ffffffff1660e01b815260040161309292919061595c565b602060405180830381600087803b1580156130ac57600080fd5b505af11580156130c0573d6000803e3d6000fd5b505050506040513d601f19601f820116820180604052508101906130e491906152d0565b5080516000901515806130fa5750602082015115155b806131085750604082015115155b156131f7576131938c8f6001600160a01b03166370a08231306040518263ffffffff1660e01b815260040161313d91906153c3565b60206040518083038186803b15801561315557600080fd5b505afa158015613169573d6000803e3d6000fd5b505050506040513d601f19601f8201168201806040525081019061318d91906152d0565b906148dd565b6040516327f6ba8360e21b81529091506001600160a01b03891690639fdaea0c906131c49085908590600401615446565b600060405180830381600087803b1580156131de57600080fd5b505af11580156131f2573d6000803e3d6000fd5b505050505b6132278c8f6001600160a01b03166370a08231306040518263ffffffff1660e01b815260040161313d91906153c3565b9050801561329957613237614bcd565b60405163ecb586a560e01b81526001600160a01b038a169063ecb586a5906132659085908590600401615934565b600060405180830381600087803b15801561327f57600080fd5b505af1158015613293573d6000803e3d6000fd5b50505050505b60005b60038110156132da576132d28582815181106132b457fe5b60200260200101518583600381106132c857fe5b6020020151614905565b60010161329c565b506132e58e8b614905565b60005b6003811015613308576133008582815181106115d057fe5b6001016132e8565b506133128e6146ae565b61160f7f00000000000000000000000000000000000000000000000000000000000000006146ae565b6043546001600160a01b031681565b6043546001600160a01b031633146133745760405162461bcd60e51b81526004016101ed906154fa565b604380546001600160a01b03191690556042805462010000600160b01b03191633620100008102919091179091556040517fd345d81ce68c70b119a17eee79dc1421700bd9cb21ca148a62dc90983964e82f916133d0916153c3565b60405180910390a1565b6001600160a01b03861660009081526084602052604090205460ff166134125760405162461bcd60e51b81526004016101ed906156f4565b600061341d87611654565b905060007f00000000000000000000000000000000000000000000000000000000000000006001600160a01b031663d7ac71ff6040518163ffffffff1660e01b815260040160206040518083038186803b15801561347a57600080fd5b505afa15801561348e573d6000803e3d6000fd5b505050506040513d601f19601f820116820180604052508101906134b291906152d0565b90506000807f00000000000000000000000000000000000000000000000000000000000000006001600160a01b031663519f5099846040518263ffffffff1660e01b81526004016135039190615900565b60806040518083038186803b15801561351b57600080fd5b505afa15801561352f573d6000803e3d6000fd5b505050506040513d601f19601f820116820180604052508101906135539190614e1a565b509250925050896001600160a01b0316826001600160a01b031663a4775772836040518263ffffffff1660e01b815260040161358f9190615900565b60206040518083038186803b1580156135a757600080fd5b505afa1580156135bb573d6000803e3d6000fd5b505050506040513d601f19601f820116820180604052508101906135df9190614d0b565b6001600160a01b0316146136055760405162461bcd60e51b81526004016101ed90615803565b7f00000000000000000000000000000000000000000000000000000000000000006001600160a01b0316826001600160a01b0316146136565760405162461bcd60e51b81526004016101ed9061559f565b6001600160a01b038a166000908152608560209081526040918290208054835181840281018401909452808452606093928301828280156136c057602002820191906000526020600020905b81546001600160a01b031681526001909101906020018083116136a2575b505050505090506136d28b6004610c16565b6136da614beb565b60005b60048110156137e1576000198a82600481106136f557fe5b6020020135146137155789816004811061370b57fe5b60200201356137c8565b7f00000000000000000000000000000000000000000000000000000000000000006001600160a01b03166382a2fb9c8785848151811061375157fe5b60200260200101516040518363ffffffff1660e01b8152600401613776929190615909565b602060405180830381600087803b15801561379057600080fd5b505af11580156137a4573d6000803e3d6000fd5b505050506040513d601f19601f820116820180604052508101906137c891906152d0565b8282600481106137d457fe5b60200201526001016136dd565b506137ea614beb565b60005b600481101561382f5761381689826004811061380557fe5b6020020135848360048110612f7d57fe5b82826004811061382257fe5b60200201526001016137ed565b507f00000000000000000000000000000000000000000000000000000000000000006001600160a01b03166368eb4ba87f0000000000000000000000000000000000000000000000000000000000000000868f6040518463ffffffff1660e01b81526004016138a09392919061540a565b600060405180830381600087803b1580156138ba57600080fd5b505af11580156138ce573d6000803e3d6000fd5b505050507f00000000000000000000000000000000000000000000000000000000000000006001600160a01b031663b390c0ab858e6040518363ffffffff1660e01b815260040161392092919061595c565b602060405180830381600087803b15801561393a57600080fd5b505af115801561394e573d6000803e3d6000fd5b505050506040513d601f19601f8201168201806040525081019061397291906152d0565b5080516000901515806139885750602082015115155b806139965750604082015115155b806139a45750606082015115155b15613a3d576139d98c8f6001600160a01b03166370a08231306040518263ffffffff1660e01b815260040161313d91906153c3565b604051630c53debb60e11b81529091506001600160a01b038916906318a7bd7690613a0a9085908590600401615461565b600060405180830381600087803b158015613a2457600080fd5b505af1158015613a38573d6000803e3d6000fd5b505050505b613a6d8c8f6001600160a01b03166370a08231306040518263ffffffff1660e01b815260040161313d91906153c3565b90508015613adf57613a7d614beb565b604051637d49d87560e01b81526001600160a01b038a1690637d49d87590613aab9085908590600401615948565b600060405180830381600087803b158015613ac557600080fd5b505af1158015613ad9573d6000803e3d6000fd5b50505050505b60005b6004811015613b1657613b0e858281518110613afa57fe5b60200260200101518583600481106132c857fe5b600101613ae2565b50613b218e8b614905565b60005b600481101561330857613b3c8582815181106115d057fe5b600101613b24565b6042546201000090046001600160a01b03163314613b745760405162461bcd60e51b81526004016101ed90615660565b828114613b935760405162461bcd60e51b81526004016101ed9061568a565b60005b83811015610d0057828282818110613baa57fe5b9050602002016020810190613bbf9190615270565b15613c9c577f00000000000000000000000000000000000000000000000000000000000000006001600160a01b031663e660cc08868684818110613bff57fe5b9050602002016020810190613c149190614cef565b6040518263ffffffff1660e01b8152600401613c3091906153c3565b60206040518083038186803b158015613c4857600080fd5b505afa158015613c5c573d6000803e3d6000fd5b505050506040513d601f19601f82011682018060405250810190613c80919061528c565b613c9c5760405162461bcd60e51b81526004016101ed90615568565b828282818110613ca857fe5b9050602002016020810190613cbd9190615270565b60846000878785818110613ccd57fe5b9050602002016020810190613ce29190614cef565b6001600160a01b031681526020810191909152604001600020805460ff1916911515919091179055600101613b96565b6042546201000090046001600160a01b03163314613d425760405162461bcd60e51b81526004016101ed90615660565b604380546001600160a01b0319166001600160a01b0383161790556040517f964dea888b00b2ab53f13dfe7ca334b46e99338c222ae232d98547a1da019f6090613d8d9083906153c3565b60405180910390a150565b63f23a6e6160e01b9695505050505050565b604160209081526000928352604080842090915290825290205460ff1681565b6001600160a01b03861660009081526084602052604090205460ff16613e025760405162461bcd60e51b81526004016101ed906156f4565b6000613e0d87611654565b905060007f00000000000000000000000000000000000000000000000000000000000000006001600160a01b031663d7ac71ff6040518163ffffffff1660e01b815260040160206040518083038186803b158015613e6a57600080fd5b505afa158015613e7e573d6000803e3d6000fd5b505050506040513d601f19601f82011682018060405250810190613ea291906152d0565b90506000807f00000000000000000000000000000000000000000000000000000000000000006001600160a01b031663519f5099846040518263ffffffff1660e01b8152600401613ef39190615900565b60806040518083038186803b158015613f0b57600080fd5b505afa158015613f1f573d6000803e3d6000fd5b505050506040513d601f19601f82011682018060405250810190613f439190614e1a565b509250925050896001600160a01b0316826001600160a01b031663a4775772836040518263ffffffff1660e01b8152600401613f7f9190615900565b60206040518083038186803b158015613f9757600080fd5b505afa158015613fab573d6000803e3d6000fd5b505050506040513d601f19601f82011682018060405250810190613fcf9190614d0b565b6001600160a01b031614613ff55760405162461bcd60e51b81526004016101ed90615803565b7f00000000000000000000000000000000000000000000000000000000000000006001600160a01b0316826001600160a01b0316146140465760405162461bcd60e51b81526004016101ed9061559f565b6001600160a01b038a166000908152608560209081526040918290208054835181840281018401909452808452606093928301828280156140b057602002820191906000526020600020905b81546001600160a01b03168152600190910190602001808311614092575b505050505090506140c28b6002610c16565b6140ca614b2b565b60005b60028110156141d1576000198a82600281106140e557fe5b602002013514614105578981600281106140fb57fe5b60200201356141b8565b7f00000000000000000000000000000000000000000000000000000000000000006001600160a01b03166382a2fb9c8785848151811061414157fe5b60200260200101516040518363ffffffff1660e01b8152600401614166929190615909565b602060405180830381600087803b15801561418057600080fd5b505af1158015614194573d6000803e3d6000fd5b505050506040513d601f19601f820116820180604052508101906141b891906152d0565b8282600281106141c457fe5b60200201526001016140cd565b506141da614b2b565b60005b600281101561421f576142068982600281106141f557fe5b6020020135848360028110612f7d57fe5b82826002811061421257fe5b60200201526001016141dd565b507f00000000000000000000000000000000000000000000000000000000000000006001600160a01b03166368eb4ba87f0000000000000000000000000000000000000000000000000000000000000000868f6040518463ffffffff1660e01b81526004016142909392919061540a565b600060405180830381600087803b1580156142aa57600080fd5b505af11580156142be573d6000803e3d6000fd5b505050507f00000000000000000000000000000000000000000000000000000000000000006001600160a01b031663b390c0ab858e6040518363ffffffff1660e01b815260040161431092919061595c565b602060405180830381600087803b15801561432a57600080fd5b505af115801561433e573d6000803e3d6000fd5b505050506040513d601f19601f8201168201806040525081019061436291906152d0565b5080516000901515806143785750602082015115155b15614411576143ad8c8f6001600160a01b03166370a08231306040518263ffffffff1660e01b815260040161313d91906153c3565b60405163e310327360e01b81529091506001600160a01b0389169063e3103273906143de908590859060040161542b565b600060405180830381600087803b1580156143f857600080fd5b505af115801561440c573d6000803e3d6000fd5b505050505b6144418c8f6001600160a01b03166370a08231306040518263ffffffff1660e01b815260040161313d91906153c3565b905080156144b357614451614b2b565b6040516316cd8e2760e21b81526001600160a01b038a1690635b36389c9061447f9085908590600401615920565b600060405180830381600087803b15801561449957600080fd5b505af11580156144ad573d6000803e3d6000fd5b50505050505b60005b60028110156144ea576144e28582815181106144ce57fe5b60200260200101518583600281106132c857fe5b6001016144b6565b506144f58e8b614905565b60005b6002811015613308576145108582815181106115d057fe5b6001016144f8565b8015806145a05750604051636eb1769f60e11b81526001600160a01b0384169063dd62ed3e9061454e90309086906004016153d7565b60206040518083038186803b15801561456657600080fd5b505afa15801561457a573d6000803e3d6000fd5b505050506040513d601f19601f8201168201806040525081019061459e91906152d0565b155b6145bc5760405162461bcd60e51b81526004016101ed9061587b565b6146128363095ea7b360e01b84846040516024016145db9291906153f1565b60408051601f198184030181529190526020810180516001600160e01b03166001600160e01b031990931692909217909152614983565b505050565b3b151590565b606061462c8484600085614a12565b90505b9392505050565b6001600160a01b0380831660009081526041602090815260408083209385168352929052205460ff166146aa576146796001600160a01b03831682600019614518565b6001600160a01b038083166000908152604160209081526040808320938516835292905220805460ff191660011790555b5050565b6040516370a0823160e01b81526000906001600160a01b038316906370a08231906146dd9030906004016153c3565b60206040518083038186803b1580156146f557600080fd5b505afa158015614709573d6000803e3d6000fd5b505050506040513d601f19601f8201168201806040525081019061472d91906152d0565b905080156146aa576146aa7f00000000000000000000000000000000000000000000000000000000000000006001600160a01b031663630dc7cb6040518163ffffffff1660e01b815260040160206040518083038186803b15801561479157600080fd5b505afa1580156147a5573d6000803e3d6000fd5b505050506040513d601f19601f820116820180604052508101906147c99190614d0b565b6001600160a01b0384169083614ad3565b80156146aa5760405163246b5de160e11b81526001600160a01b037f000000000000000000000000000000000000000000000000000000000000000016906348d6bbc29061482e90859085906004016153f1565b600060405180830381600087803b15801561484857600080fd5b505af115801561485c573d6000803e3d6000fd5b505050505050565b80156146aa57604051634b8a352960e01b81526001600160a01b037f00000000000000000000000000000000000000000000000000000000000000001690634b8a35299061482e90859085906004016153f1565b60008282018381101561462f5760405162461bcd60e51b81526004016101ed90615531565b6000828211156148ff5760405162461bcd60e51b81526004016101ed906155e3565b50900390565b80156146aa57614935827f0000000000000000000000000000000000000000000000000000000000000000614636565b604051630450cfaf60e31b81526001600160a01b037f000000000000000000000000000000000000000000000000000000000000000016906322867d789061482e90859085906004016153f1565b60606149d8826040518060400160405280602081526020017f5361666545524332303a206c6f772d6c6576656c2063616c6c206661696c6564815250856001600160a01b031661461d9092919063ffffffff16565b80519091501561461257808060200190518101906149f6919061528c565b6146125760405162461bcd60e51b81526004016101ed90615831565b606082471015614a345760405162461bcd60e51b81526004016101ed9061561a565b614a3d85614617565b614a595760405162461bcd60e51b81526004016101ed906157cc565b60006060866001600160a01b03168587604051614a7691906153a7565b60006040518083038185875af1925050503d8060008114614ab3576040519150601f19603f3d011682016040523d82523d6000602084013e614ab8565b606091505b5091509150614ac8828286614af2565b979650505050505050565b6146128363a9059cbb60e01b84846040516024016145db9291906153f1565b60608315614b0157508161462f565b825115614b115782518084602001fd5b8160405162461bcd60e51b81526004016101ed919061549c565b60405180604001604052806002906020820280368337509192915050565b6040518061010001604052806008906020820280368337509192915050565b828054828255906000526020600020908101928215614bbd579160200282015b82811115614bbd57825182546001600160a01b0319166001600160a01b03909116178255602090920191600190910190614b88565b50614bc9929150614c09565b5090565b60405180606001604052806003906020820280368337509192915050565b60405180608001604052806004906020820280368337509192915050565b5b80821115614bc95780546001600160a01b0319168155600101614c0a565b80516119ba816159ac565b60008083601f840112614c44578081fd5b50813567ffffffffffffffff811115614c5b578182fd5b6020830191508360208083028501011115614c7557600080fd5b9250929050565b80604081018310156119ba57600080fd5b80606081018310156119ba57600080fd5b80608081018310156119ba57600080fd5b60008083601f840112614cc0578182fd5b50813567ffffffffffffffff811115614cd7578182fd5b602083019150836020828501011115614c7557600080fd5b600060208284031215614d00578081fd5b813561462f816159ac565b600060208284031215614d1c578081fd5b815161462f816159ac565b60008060408385031215614d39578081fd5b8235614d44816159ac565b91506020830135614d54816159ac565b809150509250929050565b60008060008060008060008060a0898b031215614d7a578384fd5b8835614d85816159ac565b97506020890135614d95816159ac565b9650604089013567ffffffffffffffff80821115614db1578586fd5b614dbd8c838d01614c33565b909850965060608b0135915080821115614dd5578586fd5b614de18c838d01614c33565b909650945060808b0135915080821115614df9578384fd5b50614e068b828c01614caf565b999c989b5096995094979396929594505050565b60008060008060808587031215614e2f578384fd5b8451614e3a816159ac565b6020860151909450614e4b816159ac565b6040860151606090960151949790965092505050565b60008060008060008060a08789031215614e79578182fd5b8635614e84816159ac565b95506020870135614e94816159ac565b94506040870135935060608701359250608087013567ffffffffffffffff811115614ebd578283fd5b614ec989828a01614caf565b979a9699509497509295939492505050565b600080600080600080600080610140898b031215614ef7578384fd5b8835614f02816159ac565b9750614f118a60208b01614c7c565b965060608901359550614f278a60808b01614c7c565b979a969950949760c08101359660e082013596506101008201359550610120909101359350915050565b600080600080600080600080610180898b031215614f6d578182fd5b8835614f78816159ac565b9750614f878a60208b01614c8d565b965060808901359550614f9d8a60a08b01614c8d565b979a96995094976101008101359661012082013596506101408201359550610160909101359350915050565b6000806000806000806000806101c0898b031215614fe5578182fd5b8835614ff0816159ac565b9750614fff8a60208b01614c9e565b965060a089013595506150158a60c08b01614c9e565b979a969950949761014081013596610160820135965061018082013595506101a0909101359350915050565b60008060408385031215615053578182fd5b823561505e816159ac565b946020939093013593505050565b6000806000806000806101008789031215615085578384fd5b8635615090816159ac565b955060208701359450604087013593506150ad8860608901614c7c565b925060a087013591506150c38860c08901614c7c565b90509295509295509295565b60008060008060008061014087890312156150e8578384fd5b86356150f3816159ac565b955060208701359450604087013593506151108860608901614c8d565b925060c087013591506150c38860e08901614c8d565b600080600080600080610180878903121561513f578384fd5b863561514a816159ac565b955060208701359450604087013593506151678860608901614c9e565b925060e087013591506150c3886101008901614c9e565b6000610100808385031215615191578182fd5b83601f84011261519f578182fd5b60405181810181811067ffffffffffffffff821117156151bd578384fd5b60405280848381018710156151d0578485fd5b8493505b60088410156151fc576151e78782614c28565b825260019390930192602091820191016151d4565b509095945050505050565b6000806000806040858703121561521c578182fd5b843567ffffffffffffffff80821115615233578384fd5b61523f88838901614c33565b90965094506020870135915080821115615257578384fd5b5061526487828801614c33565b95989497509550505050565b600060208284031215615281578081fd5b813561462f816159c4565b60006020828403121561529d578081fd5b815161462f816159c4565b6000602082840312156152b9578081fd5b81356001600160e01b03198116811461462f578182fd5b6000602082840312156152e1578081fd5b5051919050565b600080604083850312156152fa578182fd5b505080516020909101519092909150565b60008060006060848603121561531f578081fd5b8351925060208401519150604084015190509250925092565b8060005b600281101561535b57815184526020938401939091019060010161533c565b50505050565b8060005b600381101561535b578151845260209384019390910190600101615365565b8060005b600481101561535b578151845260209384019390910190600101615388565b600082516153b9818460208701615980565b9190910192915050565b6001600160a01b0391909116815260200190565b6001600160a01b0392831681529116602082015260400190565b6001600160a01b03929092168252602082015260400190565b6001600160a01b039390931683526020830191909152604082015260600190565b606081016154398285615338565b8260408301529392505050565b608081016154548285615361565b8260608301529392505050565b60a0810161546f8285615384565b8260808301529392505050565b901515815260200190565b6001600160e01b031991909116815260200190565b60006020825282518060208401526154bb816040850160208701615980565b601f01601f19169190910160400192915050565b6020808252601190820152701a5b98dbdc9c9958dd0818dbdb1b081a59607a1b604082015260600190565b60208082526018908201527f6e6f74207468652070656e64696e6720676f7665726e6f720000000000000000604082015260600190565b6020808252601b908201527f536166654d6174683a206164646974696f6e206f766572666c6f770000000000604082015260600190565b6020808252601b908201527f6f7261636c65206e6f7420737570706f7274206c7020746f6b656e0000000000604082015260600190565b60208082526024908201527f636f6c6c61746572616c20746f6b656e202620776761756765206d69736d617460408201526318da195960e21b606082015260800190565b6020808252601e908201527f536166654d6174683a207375627472616374696f6e206f766572666c6f770000604082015260600190565b60208082526026908201527f416464726573733a20696e73756666696369656e742062616c616e636520666f6040820152651c8818d85b1b60d21b606082015260800190565b60208082526010908201526f3737ba103a34329033b7bb32b93737b960811b604082015260600190565b60208082526025908201527f6c70546f6b656e732026207374617475736573206c656e677468206d69736d616040820152641d18da195960da1b606082015260800190565b6020808252600b908201526a3737903638103a37b5b2b760a91b604082015260600190565b60208082526018908201527f6c7020746f6b656e206e6f742077686974656c69737465640000000000000000604082015260600190565b6020808252600e908201526d189859081c1a59081bdc8819da5960921b604082015260600190565b60208082526017908201527f455448206d75737420636f6d652066726f6d2057455448000000000000000000604082015260600190565b60208082526022908201527f6e6f20636f72726573706f6e64696e6720706f6f6c20666f72206c7020746f6b60408201526132b760f11b606082015260800190565b6020808252601d908201527f416464726573733a2063616c6c20746f206e6f6e2d636f6e7472616374000000604082015260600190565b602080825260149082015273696e636f727265637420756e6465726c79696e6760601b604082015260600190565b6020808252602a908201527f5361666545524332303a204552433230206f7065726174696f6e20646964206e6040820152691bdd081cdd58d8d9595960b21b606082015260800190565b60208082526036908201527f5361666545524332303a20617070726f76652066726f6d206e6f6e2d7a65726f60408201527520746f206e6f6e2d7a65726f20616c6c6f77616e636560501b606082015260800190565b6020808252601590820152740d2dcc6dee4e4cac6e840e0deded840d8cadccee8d605b1b604082015260600190565b90815260200190565b9182526001600160a01b0316602082015260400190565b8281526060810161462f6020830184615338565b8281526080810161462f6020830184615361565b82815260a0810161462f6020830184615384565b918252602082015260400190565b9283526020830191909152604082015260600190565b60005b8381101561599b578181015183820152602001615983565b8381111561535b5750506000910152565b6001600160a01b03811681146159c157600080fd5b50565b80151581146159c157600080fdfea264697066735822122046e82d9da79a2a0c29b64c3fb19247bf02984a6856aec8296581bd77af009aab64736f6c634300060c0033",
  "bytecodeSha1": "72088b0e5047dc8228fe24f0e1a224966c5302c4",
  "compiler": {
    "evm_version": "istanbul",
    "optimizer": {
      "enabled": true,
      "runs": 200
    },
    "version": "0.6.12+commit.27d51765"
  },
  "contractName": "CurveSpellV1",
  "language": "Solidity",
  "natspec": {
    "kind": "dev",
    "methods": {
      "acceptGovernor()": {
        "details": "Accept to become the new governor. Must be called by the pending governor."
      },
      "addLiquidity2(address,uint256[2],uint256,uint256[2],uint256,uint256,uint256,uint256)": {
        "details": "Add liquidity to Curve pool with 2 underlying tokens, with staking to Curve gauge",
        "params": {
          "amtLPBorrow": "Borrow LP token amount",
          "amtLPUser": "Supplied LP token amount",
          "amtsBorrow": "Borrow underlying token amounts",
          "amtsUser": "Supplied underlying token amounts",
          "gid": "Curve gauge id for the pool",
          "lp": "LP token for the pool",
          "minLPMint": "Desired LP token amount (slippage control)",
          "pid": "Curve pool id for the pool"
        }
      },
      "addLiquidity3(address,uint256[3],uint256,uint256[3],uint256,uint256,uint256,uint256)": {
        "details": "Add liquidity to Curve pool with 3 underlying tokens, with staking to Curve gauge",
        "params": {
          "amtLPBorrow": "Borrow LP token amount",
          "amtLPUser": "Supplied LP token amount",
          "amtsBorrow": "Borrow underlying token amounts",
          "amtsUser": "Supplied underlying token amounts",
          "gid": "Curve gauge id for the pool",
          "lp": "LP token for the pool",
          "minLPMint": "Desired LP token amount (slippage control)",
          "pid": "CUrve pool id for the pool"
        }
      },
      "addLiquidity4(address,uint256[4],uint256,uint256[4],uint256,uint256,uint256,uint256)": {
        "details": "Add liquidity to Curve pool with 4 underlying tokens, with staking to Curve gauge",
        "params": {
          "amtLPBorrow": "Borrow LP token amount",
          "amtLPUser": "Supplied LP token amount",
          "amtsBorrow": "Borrow underlying token amounts",
          "amtsUser": "Supplied underlying token amounts",
          "gid": "Curve gauge id for the pool",
          "lp": "LP token for the pool",
          "minLPMint": "Desired LP token amount (slippage control)",
          "pid": "CUrve pool id for the pool"
        }
      },
      "ensureApproveN(address,uint256)": {
        "details": "Ensure approval of underlying tokens to the corresponding Curve pool",
        "params": {
          "lp": "LP token for the pool",
          "n": "Number of pool's underlying tokens"
        }
      },
      "getPool(address)": {
        "details": "Return pool address given LP token and update pool info if not exist.",
        "params": {
          "lp": "LP token to find the corresponding pool."
        }
      },
      "harvest()": {
        "details": "Harvest CRV reward tokens to in-exec position's owner"
      },
      "removeLiquidity2(address,uint256,uint256,uint256[2],uint256,uint256[2])": {
        "details": "Remove liquidity from Curve pool with 2 underlying tokens",
        "params": {
          "amtLPRepay": "Repay LP token amount",
          "amtLPTake": "Take out LP token amount (from Homora)",
          "amtLPWithdraw": "Withdraw LP token amount (back to caller)",
          "amtsMin": "Desired underlying token amounts (slippage control)",
          "amtsRepay": "Repay underlying token amounts",
          "lp": "LP token for the pool"
        }
      },
      "removeLiquidity3(address,uint256,uint256,uint256[3],uint256,uint256[3])": {
        "details": "Remove liquidity from Curve pool with 3 underlying tokens",
        "params": {
          "amtLPRepay": "Repay LP token amount",
          "amtLPTake": "Take out LP token amount (from Homora)",
          "amtLPWithdraw": "Withdraw LP token amount (back to caller)",
          "amtsMin": "Desired underlying token amounts (slippage control)",
          "amtsRepay": "Repay underlying token amounts",
          "lp": "LP token for the pool"
        }
      },
      "removeLiquidity4(address,uint256,uint256,uint256[4],uint256,uint256[4])": {
        "details": "Remove liquidity from Curve pool with 4 underlying tokens",
        "params": {
          "amtLPRepay": "Repay LP token amount",
          "amtLPTake": "Take out LP token amount (from Homora)",
          "amtLPWithdraw": "Withdraw LP token amount (back to caller)",
          "amtsMin": "Desired underlying token amounts (slippage control)",
          "amtsRepay": "Repay underlying token amounts",
          "lp": "LP token for the pool"
        }
      },
      "setPendingGovernor(address)": {
        "details": "Set the pending governor, which will be the governor once accepted.",
        "params": {
          "_pendingGovernor": "The address to become the pending governor."
        }
      },
      "setWhitelistLPTokens(address[],bool[])": {
        "details": "Set whitelist LP token statuses for spell",
        "params": {
          "lpTokens": "LP tokens to set whitelist statuses",
          "statuses": "Whitelist statuses"
        }
      },
      "supportsInterface(bytes4)": {
        "details": "See {IERC165-supportsInterface}. Time complexity O(1), guaranteed to always use less than 30 000 gas."
      }
    },
    "version": 1
  },
  "opcodes": "PUSH1 0x80 PUSH1 0x40 MSTORE PUSH1 0x4 CALLDATASIZE LT PUSH2 0x1A0 JUMPI PUSH1 0x0 CALLDATALOAD PUSH1 0xE0 SHR DUP1 PUSH4 0xA4052DEC GT PUSH2 0xEC JUMPI DUP1 PUSH4 0xE58BB639 GT PUSH2 0x8A JUMPI DUP1 PUSH4 0xF235757F GT PUSH2 0x64 JUMPI DUP1 PUSH4 0xF235757F EQ PUSH2 0x49F JUMPI DUP1 PUSH4 0xF23A6E61 EQ PUSH2 0x4BF JUMPI DUP1 PUSH4 0xF4B16045 EQ PUSH2 0x4DF JUMPI DUP1 PUSH4 0xF9C61FB7 EQ PUSH2 0x4FF JUMPI PUSH2 0x1F8 JUMP JUMPDEST DUP1 PUSH4 0xE58BB639 EQ PUSH2 0x44A JUMPI DUP1 PUSH4 0xE81667EA EQ PUSH2 0x45F JUMPI DUP1 PUSH4 0xEE42C6F4 EQ PUSH2 0x47F JUMPI PUSH2 0x1F8 JUMP JUMPDEST DUP1 PUSH4 0xBE0CA465 GT PUSH2 0xC6 JUMPI DUP1 PUSH4 0xBE0CA465 EQ PUSH2 0x3D5 JUMPI DUP1 PUSH4 0xC3D34EA1 EQ PUSH2 0x3F5 JUMPI DUP1 PUSH4 0xCE26F242 EQ PUSH2 0x415 JUMPI DUP1 PUSH4 0xE3056A34 EQ PUSH2 0x435 JUMPI PUSH2 0x1F8 JUMP JUMPDEST DUP1 PUSH4 0xA4052DEC EQ PUSH2 0x368 JUMPI DUP1 PUSH4 0xBBE4F6DB EQ PUSH2 0x388 JUMPI DUP1 PUSH4 0xBC197C81 EQ PUSH2 0x3A8 JUMPI PUSH2 0x1F8 JUMP JUMPDEST DUP1 PUSH4 0x68526A78 GT PUSH2 0x159 JUMPI DUP1 PUSH4 0x7B103999 GT PUSH2 0x133 JUMPI DUP1 PUSH4 0x7B103999 EQ PUSH2 0x2F3 JUMPI DUP1 PUSH4 0x80852CB1 EQ PUSH2 0x308 JUMPI DUP1 PUSH4 0x988B1FA7 EQ PUSH2 0x328 JUMPI DUP1 PUSH4 0x9A323470 EQ PUSH2 0x348 JUMPI PUSH2 0x1F8 JUMP JUMPDEST DUP1 PUSH4 0x68526A78 EQ PUSH2 0x2B4 JUMPI DUP1 PUSH4 0x6A4874A1 EQ PUSH2 0x2C9 JUMPI DUP1 PUSH4 0x76CDB03B EQ PUSH2 0x2DE JUMPI PUSH2 0x1F8 JUMP JUMPDEST DUP1 PUSH4 0x1FFC9A7 EQ PUSH2 0x1FD JUMPI DUP1 PUSH4 0xC340A24 EQ PUSH2 0x233 JUMPI DUP1 PUSH4 0x3FC8CEF3 EQ PUSH2 0x255 JUMPI DUP1 PUSH4 0x4641257D EQ PUSH2 0x26A JUMPI DUP1 PUSH4 0x4BAB09F6 EQ PUSH2 0x27F JUMPI DUP1 PUSH4 0x5741229C EQ PUSH2 0x29F JUMPI PUSH2 0x1F8 JUMP JUMPDEST CALLDATASIZE PUSH2 0x1F8 JUMPI CALLER PUSH1 0x1 PUSH1 0x1 PUSH1 0xA0 SHL SUB PUSH32 0x0 AND EQ PUSH2 0x1F6 JUMPI PUSH1 0x40 MLOAD PUSH3 0x461BCD PUSH1 0xE5 SHL DUP2 MSTORE PUSH1 0x4 ADD PUSH2 0x1ED SWAP1 PUSH2 0x5753 JUMP JUMPDEST PUSH1 0x40 MLOAD DUP1 SWAP2 SUB SWAP1 REVERT JUMPDEST STOP JUMPDEST PUSH1 0x0 DUP1 REVERT JUMPDEST CALLVALUE DUP1 ISZERO PUSH2 0x209 JUMPI PUSH1 0x0 DUP1 REVERT JUMPDEST POP PUSH2 0x21D PUSH2 0x218 CALLDATASIZE PUSH1 0x4 PUSH2 0x52A8 JUMP JUMPDEST PUSH2 0x51F JUMP JUMPDEST PUSH1 0x40 MLOAD PUSH2 0x22A SWAP2 SWAP1 PUSH2 0x547C JUMP JUMPDEST PUSH1 0x40 MLOAD DUP1 SWAP2 SUB SWAP1 RETURN JUMPDEST CALLVALUE DUP1 ISZERO PUSH2 0x23F JUMPI PUSH1 0x0 DUP1 REVERT JUMPDEST POP PUSH2 0x248 PUSH2 0x53E JUMP JUMPDEST PUSH1 0x40 MLOAD PUSH2 0x22A SWAP2 SWAP1 PUSH2 0x53C3 JUMP JUMPDEST CALLVALUE DUP1 ISZERO PUSH2 0x261 JUMPI PUSH1 0x0 DUP1 REVERT JUMPDEST POP PUSH2 0x248 PUSH2 0x553 JUMP JUMPDEST CALLVALUE DUP1 ISZERO PUSH2 0x276 JUMPI PUSH1 0x0 DUP1 REVERT JUMPDEST POP PUSH2 0x1F6 PUSH2 0x577 JUMP JUMPDEST CALLVALUE DUP1 ISZERO PUSH2 0x28B JUMPI PUSH1 0x0 DUP1 REVERT JUMPDEST POP PUSH2 0x21D PUSH2 0x29A CALLDATASIZE PUSH1 0x4 PUSH2 0x4CEF JUMP JUMPDEST PUSH2 0xB4D JUMP JUMPDEST CALLVALUE DUP1 ISZERO PUSH2 0x2AB JUMPI PUSH1 0x0 DUP1 REVERT JUMPDEST POP PUSH2 0x248 PUSH2 0xB62 JUMP JUMPDEST CALLVALUE DUP1 ISZERO PUSH2 0x2C0 JUMPI PUSH1 0x0 DUP1 REVERT JUMPDEST POP PUSH2 0x248 PUSH2 0xB86 JUMP JUMPDEST CALLVALUE DUP1 ISZERO PUSH2 0x2D5 JUMPI PUSH1 0x0 DUP1 REVERT JUMPDEST POP PUSH2 0x248 PUSH2 0xBAA JUMP JUMPDEST CALLVALUE DUP1 ISZERO PUSH2 0x2EA JUMPI PUSH1 0x0 DUP1 REVERT JUMPDEST POP PUSH2 0x248 PUSH2 0xBCE JUMP JUMPDEST CALLVALUE DUP1 ISZERO PUSH2 0x2FF JUMPI PUSH1 0x0 DUP1 REVERT JUMPDEST POP PUSH2 0x248 PUSH2 0xBF2 JUMP JUMPDEST CALLVALUE DUP1 ISZERO PUSH2 0x314 JUMPI PUSH1 0x0 DUP1 REVERT JUMPDEST POP PUSH2 0x1F6 PUSH2 0x323 CALLDATASIZE PUSH1 0x4 PUSH2 0x5041 JUMP JUMPDEST PUSH2 0xC16 JUMP JUMPDEST CALLVALUE DUP1 ISZERO PUSH2 0x334 JUMPI PUSH1 0x0 DUP1 REVERT JUMPDEST POP PUSH2 0x248 PUSH2 0x343 CALLDATASIZE PUSH1 0x4 PUSH2 0x4CEF JUMP JUMPDEST PUSH2 0xD07 JUMP JUMPDEST CALLVALUE DUP1 ISZERO PUSH2 0x354 JUMPI PUSH1 0x0 DUP1 REVERT JUMPDEST POP PUSH2 0x1F6 PUSH2 0x363 CALLDATASIZE PUSH1 0x4 PUSH2 0x4EDB JUMP JUMPDEST PUSH2 0xD22 JUMP JUMPDEST CALLVALUE DUP1 ISZERO PUSH2 0x374 JUMPI PUSH1 0x0 DUP1 REVERT JUMPDEST POP PUSH2 0x248 PUSH2 0x383 CALLDATASIZE PUSH1 0x4 PUSH2 0x5041 JUMP JUMPDEST PUSH2 0x161F JUMP JUMPDEST CALLVALUE DUP1 ISZERO PUSH2 0x394 JUMPI PUSH1 0x0 DUP1 REVERT JUMPDEST POP PUSH2 0x248 PUSH2 0x3A3 CALLDATASIZE PUSH1 0x4 PUSH2 0x4CEF JUMP JUMPDEST PUSH2 0x1654 JUMP JUMPDEST CALLVALUE DUP1 ISZERO PUSH2 0x3B4 JUMPI PUSH1 0x0 DUP1 REVERT JUMPDEST POP PUSH2 0x3C8 PUSH2 0x3C3 CALLDATASIZE PUSH1 0x4 PUSH2 0x4D5F JUMP JUMPDEST PUSH2 0x19C0 JUMP JUMPDEST PUSH1 0x40 MLOAD PUSH2 0x22A SWAP2 SWAP1 PUSH2 0x5487 JUMP JUMPDEST CALLVALUE DUP1 ISZERO PUSH2 0x3E1 JUMPI PUSH1 0x0 DUP1 REVERT JUMPDEST POP PUSH2 0x1F6 PUSH2 0x3F0 CALLDATASIZE PUSH1 0x4 PUSH2 0x4F51 JUMP JUMPDEST PUSH2 0x19D4 JUMP JUMPDEST CALLVALUE DUP1 ISZERO PUSH2 0x401 JUMPI PUSH1 0x0 DUP1 REVERT JUMPDEST POP PUSH2 0x1F6 PUSH2 0x410 CALLDATASIZE PUSH1 0x4 PUSH2 0x4FC9 JUMP JUMPDEST PUSH2 0x2284 JUMP JUMPDEST CALLVALUE DUP1 ISZERO PUSH2 0x421 JUMPI PUSH1 0x0 DUP1 REVERT JUMPDEST POP PUSH2 0x1F6 PUSH2 0x430 CALLDATASIZE PUSH1 0x4 PUSH2 0x50CF JUMP JUMPDEST PUSH2 0x2B41 JUMP JUMPDEST CALLVALUE DUP1 ISZERO PUSH2 0x441 JUMPI PUSH1 0x0 DUP1 REVERT JUMPDEST POP PUSH2 0x248 PUSH2 0x333B JUMP JUMPDEST CALLVALUE DUP1 ISZERO PUSH2 0x456 JUMPI PUSH1 0x0 DUP1 REVERT JUMPDEST POP PUSH2 0x1F6 PUSH2 0x334A JUMP JUMPDEST CALLVALUE DUP1 ISZERO PUSH2 0x46B JUMPI PUSH1 0x0 DUP1 REVERT JUMPDEST POP PUSH2 0x1F6 PUSH2 0x47A CALLDATASIZE PUSH1 0x4 PUSH2 0x5126 JUMP JUMPDEST PUSH2 0x33DA JUMP JUMPDEST CALLVALUE DUP1 ISZERO PUSH2 0x48B JUMPI PUSH1 0x0 DUP1 REVERT JUMPDEST POP PUSH2 0x1F6 PUSH2 0x49A CALLDATASIZE PUSH1 0x4 PUSH2 0x5207 JUMP JUMPDEST PUSH2 0x3B44 JUMP JUMPDEST CALLVALUE DUP1 ISZERO PUSH2 0x4AB JUMPI PUSH1 0x0 DUP1 REVERT JUMPDEST POP PUSH2 0x1F6 PUSH2 0x4BA CALLDATASIZE PUSH1 0x4 PUSH2 0x4CEF JUMP JUMPDEST PUSH2 0x3D12 JUMP JUMPDEST CALLVALUE DUP1 ISZERO PUSH2 0x4CB JUMPI PUSH1 0x0 DUP1 REVERT JUMPDEST POP PUSH2 0x3C8 PUSH2 0x4DA CALLDATASIZE PUSH1 0x4 PUSH2 0x4E61 JUMP JUMPDEST PUSH2 0x3D98 JUMP JUMPDEST CALLVALUE DUP1 ISZERO PUSH2 0x4EB JUMPI PUSH1 0x0 DUP1 REVERT JUMPDEST POP PUSH2 0x21D PUSH2 0x4FA CALLDATASIZE PUSH1 0x4 PUSH2 0x4D27 JUMP JUMPDEST PUSH2 0x3DAA JUMP JUMPDEST CALLVALUE DUP1 ISZERO PUSH2 0x50B JUMPI PUSH1 0x0 DUP1 REVERT JUMPDEST POP PUSH2 0x1F6 PUSH2 0x51A CALLDATASIZE PUSH1 0x4 PUSH2 0x506C JUMP JUMPDEST PUSH2 0x3DCA JUMP JUMPDEST PUSH1 0x1 PUSH1 0x1 PUSH1 0xE0 SHL SUB NOT AND PUSH1 0x0 SWAP1 DUP2 MSTORE PUSH1 0x20 DUP2 SWAP1 MSTORE PUSH1 0x40 SWAP1 KECCAK256 SLOAD PUSH1 0xFF AND SWAP1 JUMP JUMPDEST PUSH1 0x42 SLOAD PUSH3 0x10000 SWAP1 DIV PUSH1 0x1 PUSH1 0x1 PUSH1 0xA0 SHL SUB AND DUP2 JUMP JUMPDEST PUSH32 0x0 DUP2 JUMP JUMPDEST PUSH1 0x0 DUP1 PUSH1 0x0 PUSH32 0x0 PUSH1 0x1 PUSH1 0x1 PUSH1 0xA0 SHL SUB AND PUSH4 0xF70AEDD9 PUSH1 0x40 MLOAD DUP2 PUSH4 0xFFFFFFFF AND PUSH1 0xE0 SHL DUP2 MSTORE PUSH1 0x4 ADD PUSH1 0x80 PUSH1 0x40 MLOAD DUP1 DUP4 SUB DUP2 DUP7 DUP1 EXTCODESIZE ISZERO DUP1 ISZERO PUSH2 0x5D5 JUMPI PUSH1 0x0 DUP1 REVERT JUMPDEST POP GAS STATICCALL ISZERO DUP1 ISZERO PUSH2 0x5E9 JUMPI RETURNDATASIZE PUSH1 0x0 DUP1 RETURNDATACOPY RETURNDATASIZE PUSH1 0x0 REVERT JUMPDEST POP POP POP POP PUSH1 0x40 MLOAD RETURNDATASIZE PUSH1 0x1F NOT PUSH1 0x1F DUP3 ADD AND DUP3 ADD DUP1 PUSH1 0x40 MSTORE POP DUP2 ADD SWAP1 PUSH2 0x60D SWAP2 SWAP1 PUSH2 0x4E1A JUMP JUMPDEST SWAP4 POP SWAP4 POP SWAP4 POP POP PUSH1 0x0 DUP1 PUSH32 0x0 PUSH1 0x1 PUSH1 0x1 PUSH1 0xA0 SHL SUB AND PUSH4 0xDC20C6FA DUP6 PUSH1 0x40 MLOAD DUP3 PUSH4 0xFFFFFFFF AND PUSH1 0xE0 SHL DUP2 MSTORE PUSH1 0x4 ADD PUSH2 0x663 SWAP2 SWAP1 PUSH2 0x5900 JUMP JUMPDEST PUSH1 0x60 PUSH1 0x40 MLOAD DUP1 DUP4 SUB DUP2 DUP7 DUP1 EXTCODESIZE ISZERO DUP1 ISZERO PUSH2 0x67B JUMPI PUSH1 0x0 DUP1 REVERT JUMPDEST POP GAS STATICCALL ISZERO DUP1 ISZERO PUSH2 0x68F JUMPI RETURNDATASIZE PUSH1 0x0 DUP1 RETURNDATACOPY RETURNDATASIZE PUSH1 0x0 REVERT JUMPDEST POP POP POP POP PUSH1 0x40 MLOAD RETURNDATASIZE PUSH1 0x1F NOT PUSH1 0x1F DUP3 ADD AND DUP3 ADD DUP1 PUSH1 0x40 MSTORE POP DUP2 ADD SWAP1 PUSH2 0x6B3 SWAP2 SWAP1 PUSH2 0x530B JUMP JUMPDEST POP SWAP2 POP SWAP2 POP PUSH1 0x0 PUSH32 0x0 PUSH1 0x1 PUSH1 0x1 PUSH1 0xA0 SHL SUB AND PUSH4 0xA4775772 DUP7 PUSH1 0x40 MLOAD DUP3 PUSH4 0xFFFFFFFF AND PUSH1 0xE0 SHL DUP2 MSTORE PUSH1 0x4 ADD PUSH2 0x706 SWAP2 SWAP1 PUSH2 0x5900 JUMP JUMPDEST PUSH1 0x20 PUSH1 0x40 MLOAD DUP1 DUP4 SUB DUP2 DUP7 DUP1 EXTCODESIZE ISZERO DUP1 ISZERO PUSH2 0x71E JUMPI PUSH1 0x0 DUP1 REVERT JUMPDEST POP GAS STATICCALL ISZERO DUP1 ISZERO PUSH2 0x732 JUMPI RETURNDATASIZE PUSH1 0x0 DUP1 RETURNDATACOPY RETURNDATASIZE PUSH1 0x0 REVERT JUMPDEST POP POP POP POP PUSH1 0x40 MLOAD RETURNDATASIZE PUSH1 0x1F NOT PUSH1 0x1F DUP3 ADD AND DUP3 ADD DUP1 PUSH1 0x40 MSTORE POP DUP2 ADD SWAP1 PUSH2 0x756 SWAP2 SWAP1 PUSH2 0x4D0B JUMP JUMPDEST PUSH1 0x1 PUSH1 0x1 PUSH1 0xA0 SHL SUB DUP2 AND PUSH1 0x0 SWAP1 DUP2 MSTORE PUSH1 0x84 PUSH1 0x20 MSTORE PUSH1 0x40 SWAP1 KECCAK256 SLOAD SWAP1 SWAP2 POP PUSH1 0xFF AND PUSH2 0x791 JUMPI PUSH1 0x40 MLOAD PUSH3 0x461BCD PUSH1 0xE5 SHL DUP2 MSTORE PUSH1 0x4 ADD PUSH2 0x1ED SWAP1 PUSH2 0x56F4 JUMP JUMPDEST PUSH32 0x0 PUSH1 0x1 PUSH1 0x1 PUSH1 0xA0 SHL SUB AND DUP7 PUSH1 0x1 PUSH1 0x1 PUSH1 0xA0 SHL SUB AND EQ PUSH2 0x7E2 JUMPI PUSH1 0x40 MLOAD PUSH3 0x461BCD PUSH1 0xE5 SHL DUP2 MSTORE PUSH1 0x4 ADD PUSH2 0x1ED SWAP1 PUSH2 0x559F JUMP JUMPDEST PUSH1 0x40 MLOAD PUSH4 0xD1D6975 PUSH1 0xE3 SHL DUP2 MSTORE PUSH1 0x1 PUSH1 0x1 PUSH1 0xA0 SHL SUB PUSH32 0x0 AND SWAP1 PUSH4 0x68EB4BA8 SWAP1 PUSH2 0x852 SWAP1 PUSH32 0x0 SWAP1 DUP10 SWAP1 DUP10 SWAP1 PUSH1 0x4 ADD PUSH2 0x540A JUMP JUMPDEST PUSH1 0x0 PUSH1 0x40 MLOAD DUP1 DUP4 SUB DUP2 PUSH1 0x0 DUP8 DUP1 EXTCODESIZE ISZERO DUP1 ISZERO PUSH2 0x86C JUMPI PUSH1 0x0 DUP1 REVERT JUMPDEST POP GAS CALL ISZERO DUP1 ISZERO PUSH2 0x880 JUMPI RETURNDATASIZE PUSH1 0x0 DUP1 RETURNDATACOPY RETURNDATASIZE PUSH1 0x0 REVERT JUMPDEST POP POP PUSH1 0x40 MLOAD PUSH4 0xB390C0AB PUSH1 0xE0 SHL DUP2 MSTORE PUSH1 0x1 PUSH1 0x1 PUSH1 0xA0 SHL SUB PUSH32 0x0 AND SWAP3 POP PUSH4 0xB390C0AB SWAP2 POP PUSH2 0x8D2 SWAP1 DUP9 SWAP1 DUP9 SWAP1 PUSH1 0x4 ADD PUSH2 0x595C JUMP JUMPDEST PUSH1 0x20 PUSH1 0x40 MLOAD DUP1 DUP4 SUB DUP2 PUSH1 0x0 DUP8 DUP1 EXTCODESIZE ISZERO DUP1 ISZERO PUSH2 0x8EC JUMPI PUSH1 0x0 DUP1 REVERT JUMPDEST POP GAS CALL ISZERO DUP1 ISZERO PUSH2 0x900 JUMPI RETURNDATASIZE PUSH1 0x0 DUP1 RETURNDATACOPY RETURNDATASIZE PUSH1 0x0 REVERT JUMPDEST POP POP POP POP PUSH1 0x40 MLOAD RETURNDATASIZE PUSH1 0x1F NOT PUSH1 0x1F DUP3 ADD AND DUP3 ADD DUP1 PUSH1 0x40 MSTORE POP DUP2 ADD SWAP1 PUSH2 0x924 SWAP2 SWAP1 PUSH2 0x52D0 JUMP JUMPDEST POP PUSH1 0x40 MLOAD PUSH4 0x70A08231 PUSH1 0xE0 SHL DUP2 MSTORE PUSH1 0x0 SWAP1 PUSH1 0x1 PUSH1 0x1 PUSH1 0xA0 SHL SUB DUP4 AND SWAP1 PUSH4 0x70A08231 SWAP1 PUSH2 0x954 SWAP1 ADDRESS SWAP1 PUSH1 0x4 ADD PUSH2 0x53C3 JUMP JUMPDEST PUSH1 0x20 PUSH1 0x40 MLOAD DUP1 DUP4 SUB DUP2 DUP7 DUP1 EXTCODESIZE ISZERO DUP1 ISZERO PUSH2 0x96C JUMPI PUSH1 0x0 DUP1 REVERT JUMPDEST POP GAS STATICCALL ISZERO DUP1 ISZERO PUSH2 0x980 JUMPI RETURNDATASIZE PUSH1 0x0 DUP1 RETURNDATACOPY RETURNDATASIZE PUSH1 0x0 REVERT JUMPDEST POP POP POP POP PUSH1 0x40 MLOAD RETURNDATASIZE PUSH1 0x1F NOT PUSH1 0x1F DUP3 ADD AND DUP3 ADD DUP1 PUSH1 0x40 MSTORE POP DUP2 ADD SWAP1 PUSH2 0x9A4 SWAP2 SWAP1 PUSH2 0x52D0 JUMP JUMPDEST SWAP1 POP PUSH2 0x9D0 DUP3 PUSH32 0x0 PUSH2 0x4636 JUMP JUMPDEST PUSH1 0x40 MLOAD PUSH4 0x2ACC94B PUSH1 0xE0 SHL DUP2 MSTORE PUSH1 0x0 SWAP1 PUSH1 0x1 PUSH1 0x1 PUSH1 0xA0 SHL SUB PUSH32 0x0 AND SWAP1 PUSH4 0x2ACC94B SWAP1 PUSH2 0xA23 SWAP1 DUP9 SWAP1 DUP9 SWAP1 DUP8 SWAP1 PUSH1 0x4 ADD PUSH2 0x596A JUMP JUMPDEST PUSH1 0x20 PUSH1 0x40 MLOAD DUP1 DUP4 SUB DUP2 PUSH1 0x0 DUP8 DUP1 EXTCODESIZE ISZERO DUP1 ISZERO PUSH2 0xA3D JUMPI PUSH1 0x0 DUP1 REVERT JUMPDEST POP GAS CALL ISZERO DUP1 ISZERO PUSH2 0xA51 JUMPI RETURNDATASIZE PUSH1 0x0 DUP1 RETURNDATACOPY RETURNDATASIZE PUSH1 0x0 REVERT JUMPDEST POP POP POP POP PUSH1 0x40 MLOAD RETURNDATASIZE PUSH1 0x1F NOT PUSH1 0x1F DUP3 ADD AND DUP3 ADD DUP1 PUSH1 0x40 MSTORE POP DUP2 ADD SWAP1 PUSH2 0xA75 SWAP2 SWAP1 PUSH2 0x52D0 JUMP JUMPDEST PUSH1 0x40 MLOAD PUSH4 0x314568D9 PUSH1 0xE0 SHL DUP2 MSTORE SWAP1 SWAP2 POP PUSH1 0x1 PUSH1 0x1 PUSH1 0xA0 SHL SUB PUSH32 0x0 AND SWAP1 PUSH4 0x314568D9 SWAP1 PUSH2 0xAE8 SWAP1 PUSH32 0x0 SWAP1 DUP6 SWAP1 DUP8 SWAP1 PUSH1 0x4 ADD PUSH2 0x540A JUMP JUMPDEST PUSH1 0x0 PUSH1 0x40 MLOAD DUP1 DUP4 SUB DUP2 PUSH1 0x0 DUP8 DUP1 EXTCODESIZE ISZERO DUP1 ISZERO PUSH2 0xB02 JUMPI PUSH1 0x0 DUP1 REVERT JUMPDEST POP GAS CALL ISZERO DUP1 ISZERO PUSH2 0xB16 JUMPI RETURNDATASIZE PUSH1 0x0 DUP1 RETURNDATACOPY RETURNDATASIZE PUSH1 0x0 REVERT JUMPDEST POP POP POP POP PUSH2 0xB43 PUSH32 0x0 PUSH2 0x46AE JUMP JUMPDEST POP POP POP POP POP POP POP POP JUMP JUMPDEST PUSH1 0x84 PUSH1 0x20 MSTORE PUSH1 0x0 SWAP1 DUP2 MSTORE PUSH1 0x40 SWAP1 KECCAK256 SLOAD PUSH1 0xFF AND DUP2 JUMP JUMPDEST PUSH32 0x0 DUP2 JUMP JUMPDEST PUSH32 0x0 DUP2 JUMP JUMPDEST PUSH32 0x0 DUP2 JUMP JUMPDEST PUSH32 0x0 DUP2 JUMP JUMPDEST PUSH32 0x0 DUP2 JUMP JUMPDEST PUSH1 0x1 PUSH1 0x1 PUSH1 0xA0 SHL SUB DUP3 AND PUSH1 0x0 SWAP1 DUP2 MSTORE PUSH1 0x85 PUSH1 0x20 MSTORE PUSH1 0x40 SWAP1 KECCAK256 SLOAD DUP2 EQ PUSH2 0xC4D JUMPI PUSH1 0x40 MLOAD PUSH3 0x461BCD PUSH1 0xE5 SHL DUP2 MSTORE PUSH1 0x4 ADD PUSH2 0x1ED SWAP1 PUSH2 0x58D1 JUMP JUMPDEST PUSH1 0x1 PUSH1 0x1 PUSH1 0xA0 SHL SUB DUP1 DUP4 AND PUSH1 0x0 SWAP1 DUP2 MSTORE PUSH1 0x86 PUSH1 0x20 SWAP1 DUP2 MSTORE PUSH1 0x40 DUP1 DUP4 KECCAK256 SLOAD PUSH1 0x85 DUP4 MSTORE SWAP3 DUP2 SWAP1 KECCAK256 DUP1 SLOAD DUP3 MLOAD DUP2 DUP6 MUL DUP2 ADD DUP6 ADD SWAP1 SWAP4 MSTORE DUP1 DUP4 MSTORE SWAP4 SWAP1 SWAP5 AND SWAP4 PUSH1 0x60 SWAP4 SWAP2 SWAP3 SWAP1 SWAP2 SWAP1 DUP4 ADD DUP3 DUP3 DUP1 ISZERO PUSH2 0xCC9 JUMPI PUSH1 0x20 MUL DUP3 ADD SWAP2 SWAP1 PUSH1 0x0 MSTORE PUSH1 0x20 PUSH1 0x0 KECCAK256 SWAP1 JUMPDEST DUP2 SLOAD PUSH1 0x1 PUSH1 0x1 PUSH1 0xA0 SHL SUB AND DUP2 MSTORE PUSH1 0x1 SWAP1 SWAP2 ADD SWAP1 PUSH1 0x20 ADD DUP1 DUP4 GT PUSH2 0xCAB JUMPI JUMPDEST POP POP POP POP POP SWAP1 POP PUSH1 0x0 JUMPDEST DUP4 DUP2 LT ISZERO PUSH2 0xD00 JUMPI PUSH2 0xCF8 DUP3 DUP3 DUP2 MLOAD DUP2 LT PUSH2 0xCEA JUMPI INVALID JUMPDEST PUSH1 0x20 MUL PUSH1 0x20 ADD ADD MLOAD DUP5 PUSH2 0x4636 JUMP JUMPDEST PUSH1 0x1 ADD PUSH2 0xCD3 JUMP JUMPDEST POP POP POP POP POP JUMP JUMPDEST PUSH1 0x86 PUSH1 0x20 MSTORE PUSH1 0x0 SWAP1 DUP2 MSTORE PUSH1 0x40 SWAP1 KECCAK256 SLOAD PUSH1 0x1 PUSH1 0x1 PUSH1 0xA0 SHL SUB AND DUP2 JUMP JUMPDEST PUSH1 0x1 PUSH1 0x1 PUSH1 0xA0 SHL SUB DUP9 AND PUSH1 0x0 SWAP1 DUP2 MSTORE PUSH1 0x84 PUSH1 0x20 MSTORE PUSH1 0x40 SWAP1 KECCAK256 SLOAD PUSH1 0xFF AND PUSH2 0xD5A JUMPI PUSH1 0x40 MLOAD PUSH3 0x461BCD PUSH1 0xE5 SHL DUP2 MSTORE PUSH1 0x4 ADD PUSH2 0x1ED SWAP1 PUSH2 0x56F4 JUMP JUMPDEST PUSH1 0x0 PUSH2 0xD65 DUP10 PUSH2 0x1654 JUMP JUMPDEST PUSH1 0x1 PUSH1 0x1 PUSH1 0xA0 SHL SUB DUP11 AND PUSH1 0x0 SWAP1 DUP2 MSTORE PUSH1 0x85 PUSH1 0x20 MSTORE PUSH1 0x40 SWAP1 KECCAK256 SLOAD SWAP1 SWAP2 POP PUSH1 0x2 EQ PUSH2 0xDA0 JUMPI PUSH1 0x40 MLOAD PUSH3 0x461BCD PUSH1 0xE5 SHL DUP2 MSTORE PUSH1 0x4 ADD PUSH2 0x1ED SWAP1 PUSH2 0x58D1 JUMP JUMPDEST DUP9 PUSH1 0x1 PUSH1 0x1 PUSH1 0xA0 SHL SUB AND PUSH32 0x0 PUSH1 0x1 PUSH1 0x1 PUSH1 0xA0 SHL SUB AND PUSH4 0xA9B4E6FE DUP6 DUP6 PUSH1 0x40 MLOAD DUP4 PUSH4 0xFFFFFFFF AND PUSH1 0xE0 SHL DUP2 MSTORE PUSH1 0x4 ADD PUSH2 0xDF8 SWAP3 SWAP2 SWAP1 PUSH2 0x595C JUMP JUMPDEST PUSH1 0x20 PUSH1 0x40 MLOAD DUP1 DUP4 SUB DUP2 DUP7 DUP1 EXTCODESIZE ISZERO DUP1 ISZERO PUSH2 0xE10 JUMPI PUSH1 0x0 DUP1 REVERT JUMPDEST POP GAS STATICCALL ISZERO DUP1 ISZERO PUSH2 0xE24 JUMPI RETURNDATASIZE PUSH1 0x0 DUP1 RETURNDATACOPY RETURNDATASIZE PUSH1 0x0 REVERT JUMPDEST POP POP POP POP PUSH1 0x40 MLOAD RETURNDATASIZE PUSH1 0x1F NOT PUSH1 0x1F DUP3 ADD AND DUP3 ADD DUP1 PUSH1 0x40 MSTORE POP DUP2 ADD SWAP1 PUSH2 0xE48 SWAP2 SWAP1 PUSH2 0x4D0B JUMP JUMPDEST PUSH1 0x1 PUSH1 0x1 PUSH1 0xA0 SHL SUB AND EQ PUSH2 0xE6E JUMPI PUSH1 0x40 MLOAD PUSH3 0x461BCD PUSH1 0xE5 SHL DUP2 MSTORE PUSH1 0x4 ADD PUSH2 0x1ED SWAP1 PUSH2 0x5803 JUMP JUMPDEST PUSH1 0x1 PUSH1 0x1 PUSH1 0xA0 SHL SUB DUP10 AND PUSH1 0x0 SWAP1 DUP2 MSTORE PUSH1 0x85 PUSH1 0x20 SWAP1 DUP2 MSTORE PUSH1 0x40 SWAP2 DUP3 SWAP1 KECCAK256 DUP1 SLOAD DUP4 MLOAD DUP2 DUP5 MUL DUP2 ADD DUP5 ADD SWAP1 SWAP5 MSTORE DUP1 DUP5 MSTORE PUSH1 0x60 SWAP4 SWAP3 DUP4 ADD DUP3 DUP3 DUP1 ISZERO PUSH2 0xED8 JUMPI PUSH1 0x20 MUL DUP3 ADD SWAP2 SWAP1 PUSH1 0x0 MSTORE PUSH1 0x20 PUSH1 0x0 KECCAK256 SWAP1 JUMPDEST DUP2 SLOAD PUSH1 0x1 PUSH1 0x1 PUSH1 0xA0 SHL SUB AND DUP2 MSTORE PUSH1 0x1 SWAP1 SWAP2 ADD SWAP1 PUSH1 0x20 ADD DUP1 DUP4 GT PUSH2 0xEBA JUMPI JUMPDEST POP POP POP POP POP SWAP1 POP PUSH1 0x0 DUP1 PUSH1 0x0 PUSH32 0x0 PUSH1 0x1 PUSH1 0x1 PUSH1 0xA0 SHL SUB AND PUSH4 0xF70AEDD9 PUSH1 0x40 MLOAD DUP2 PUSH4 0xFFFFFFFF AND PUSH1 0xE0 SHL DUP2 MSTORE PUSH1 0x4 ADD PUSH1 0x80 PUSH1 0x40 MLOAD DUP1 DUP4 SUB DUP2 DUP7 DUP1 EXTCODESIZE ISZERO DUP1 ISZERO PUSH2 0xF3D JUMPI PUSH1 0x0 DUP1 REVERT JUMPDEST POP GAS STATICCALL ISZERO DUP1 ISZERO PUSH2 0xF51 JUMPI RETURNDATASIZE PUSH1 0x0 DUP1 RETURNDATACOPY RETURNDATASIZE PUSH1 0x0 REVERT JUMPDEST POP POP POP POP PUSH1 0x40 MLOAD RETURNDATASIZE PUSH1 0x1F NOT PUSH1 0x1F DUP3 ADD AND DUP3 ADD DUP1 PUSH1 0x40 MSTORE POP DUP2 ADD SWAP1 PUSH2 0xF75 SWAP2 SWAP1 PUSH2 0x4E1A JUMP JUMPDEST SWAP2 SWAP6 POP SWAP4 POP SWAP2 POP POP DUP1 ISZERO PUSH2 0x11E8 JUMPI PUSH1 0x0 DUP1 PUSH32 0x0 PUSH1 0x1 PUSH1 0x1 PUSH1 0xA0 SHL SUB AND PUSH4 0xDC20C6FA DUP6 PUSH1 0x40 MLOAD DUP3 PUSH4 0xFFFFFFFF AND PUSH1 0xE0 SHL DUP2 MSTORE PUSH1 0x4 ADD PUSH2 0xFD2 SWAP2 SWAP1 PUSH2 0x5900 JUMP JUMPDEST PUSH1 0x60 PUSH1 0x40 MLOAD DUP1 DUP4 SUB DUP2 DUP7 DUP1 EXTCODESIZE ISZERO DUP1 ISZERO PUSH2 0xFEA JUMPI PUSH1 0x0 DUP1 REVERT JUMPDEST POP GAS STATICCALL ISZERO DUP1 ISZERO PUSH2 0xFFE JUMPI RETURNDATASIZE PUSH1 0x0 DUP1 RETURNDATACOPY RETURNDATASIZE PUSH1 0x0 REVERT JUMPDEST POP POP POP POP PUSH1 0x40 MLOAD RETURNDATASIZE PUSH1 0x1F NOT PUSH1 0x1F DUP3 ADD AND DUP3 ADD DUP1 PUSH1 0x40 MSTORE POP DUP2 ADD SWAP1 PUSH2 0x1022 SWAP2 SWAP1 PUSH2 0x530B JUMP JUMPDEST POP SWAP2 POP SWAP2 POP DUP9 DUP3 EQ DUP1 ISZERO PUSH2 0x1035 JUMPI POP DUP8 DUP2 EQ JUMPDEST PUSH2 0x1051 JUMPI PUSH1 0x40 MLOAD PUSH3 0x461BCD PUSH1 0xE5 SHL DUP2 MSTORE PUSH1 0x4 ADD PUSH2 0x1ED SWAP1 PUSH2 0x572B JUMP JUMPDEST PUSH32 0x0 PUSH1 0x1 PUSH1 0x1 PUSH1 0xA0 SHL SUB AND DUP6 PUSH1 0x1 PUSH1 0x1 PUSH1 0xA0 SHL SUB AND EQ PUSH2 0x10A2 JUMPI PUSH1 0x40 MLOAD PUSH3 0x461BCD PUSH1 0xE5 SHL DUP2 MSTORE PUSH1 0x4 ADD PUSH2 0x1ED SWAP1 PUSH2 0x559F JUMP JUMPDEST PUSH1 0x40 MLOAD PUSH4 0xD1D6975 PUSH1 0xE3 SHL DUP2 MSTORE PUSH1 0x1 PUSH1 0x1 PUSH1 0xA0 SHL SUB PUSH32 0x0 AND SWAP1 PUSH4 0x68EB4BA8 SWAP1 PUSH2 0x1112 SWAP1 PUSH32 0x0 SWAP1 DUP9 SWAP1 DUP9 SWAP1 PUSH1 0x4 ADD PUSH2 0x540A JUMP JUMPDEST PUSH1 0x0 PUSH1 0x40 MLOAD DUP1 DUP4 SUB DUP2 PUSH1 0x0 DUP8 DUP1 EXTCODESIZE ISZERO DUP1 ISZERO PUSH2 0x112C JUMPI PUSH1 0x0 DUP1 REVERT JUMPDEST POP GAS CALL ISZERO DUP1 ISZERO PUSH2 0x1140 JUMPI RETURNDATASIZE PUSH1 0x0 DUP1 RETURNDATACOPY RETURNDATASIZE PUSH1 0x0 REVERT JUMPDEST POP POP PUSH1 0x40 MLOAD PUSH4 0xB390C0AB PUSH1 0xE0 SHL DUP2 MSTORE PUSH1 0x1 PUSH1 0x1 PUSH1 0xA0 SHL SUB PUSH32 0x0 AND SWAP3 POP PUSH4 0xB390C0AB SWAP2 POP PUSH2 0x1192 SWAP1 DUP8 SWAP1 DUP8 SWAP1 PUSH1 0x4 ADD PUSH2 0x595C JUMP JUMPDEST PUSH1 0x20 PUSH1 0x40 MLOAD DUP1 DUP4 SUB DUP2 PUSH1 0x0 DUP8 DUP1 EXTCODESIZE ISZERO DUP1 ISZERO PUSH2 0x11AC JUMPI PUSH1 0x0 DUP1 REVERT JUMPDEST POP GAS CALL ISZERO DUP1 ISZERO PUSH2 0x11C0 JUMPI RETURNDATASIZE PUSH1 0x0 DUP1 RETURNDATACOPY RETURNDATASIZE PUSH1 0x0 REVERT JUMPDEST POP POP POP POP PUSH1 0x40 MLOAD RETURNDATASIZE PUSH1 0x1F NOT PUSH1 0x1F DUP3 ADD AND DUP3 ADD DUP1 PUSH1 0x40 MSTORE POP DUP2 ADD SWAP1 PUSH2 0x11E4 SWAP2 SWAP1 PUSH2 0x52D0 JUMP JUMPDEST POP POP POP JUMPDEST PUSH2 0x11F3 DUP14 PUSH1 0x2 PUSH2 0xC16 JUMP JUMPDEST PUSH1 0x0 JUMPDEST PUSH1 0x2 DUP2 LT ISZERO PUSH2 0x1234 JUMPI PUSH2 0x122C DUP6 DUP3 DUP2 MLOAD DUP2 LT PUSH2 0x120E JUMPI INVALID JUMPDEST PUSH1 0x20 MUL PUSH1 0x20 ADD ADD MLOAD DUP15 DUP4 PUSH1 0x2 DUP2 LT PUSH2 0x1222 JUMPI INVALID JUMPDEST PUSH1 0x20 MUL ADD CALLDATALOAD PUSH2 0x47DA JUMP JUMPDEST PUSH1 0x1 ADD PUSH2 0x11F6 JUMP JUMPDEST POP PUSH2 0x123F DUP14 DUP13 PUSH2 0x47DA JUMP JUMPDEST PUSH1 0x0 JUMPDEST PUSH1 0x2 DUP2 LT ISZERO PUSH2 0x1280 JUMPI PUSH2 0x1278 DUP6 DUP3 DUP2 MLOAD DUP2 LT PUSH2 0x125A JUMPI INVALID JUMPDEST PUSH1 0x20 MUL PUSH1 0x20 ADD ADD MLOAD DUP13 DUP4 PUSH1 0x2 DUP2 LT PUSH2 0x126E JUMPI INVALID JUMPDEST PUSH1 0x20 MUL ADD CALLDATALOAD PUSH2 0x4864 JUMP JUMPDEST PUSH1 0x1 ADD PUSH2 0x1242 JUMP JUMPDEST POP PUSH2 0x128B DUP14 DUP11 PUSH2 0x4864 JUMP JUMPDEST PUSH2 0x1293 PUSH2 0x4B2B JUMP JUMPDEST PUSH1 0x0 JUMPDEST PUSH1 0x2 DUP2 LT ISZERO PUSH2 0x1347 JUMPI DUP6 DUP2 DUP2 MLOAD DUP2 LT PUSH2 0x12AB JUMPI INVALID JUMPDEST PUSH1 0x20 MUL PUSH1 0x20 ADD ADD MLOAD PUSH1 0x1 PUSH1 0x1 PUSH1 0xA0 SHL SUB AND PUSH4 0x70A08231 ADDRESS PUSH1 0x40 MLOAD DUP3 PUSH4 0xFFFFFFFF AND PUSH1 0xE0 SHL DUP2 MSTORE PUSH1 0x4 ADD PUSH2 0x12DE SWAP2 SWAP1 PUSH2 0x53C3 JUMP JUMPDEST PUSH1 0x20 PUSH1 0x40 MLOAD DUP1 DUP4 SUB DUP2 DUP7 DUP1 EXTCODESIZE ISZERO DUP1 ISZERO PUSH2 0x12F6 JUMPI PUSH1 0x0 DUP1 REVERT JUMPDEST POP GAS STATICCALL ISZERO DUP1 ISZERO PUSH2 0x130A JUMPI RETURNDATASIZE PUSH1 0x0 DUP1 RETURNDATACOPY RETURNDATASIZE PUSH1 0x0 REVERT JUMPDEST POP POP POP POP PUSH1 0x40 MLOAD RETURNDATASIZE PUSH1 0x1F NOT PUSH1 0x1F DUP3 ADD AND DUP3 ADD DUP1 PUSH1 0x40 MSTORE POP DUP2 ADD SWAP1 PUSH2 0x132E SWAP2 SWAP1 PUSH2 0x52D0 JUMP JUMPDEST DUP3 DUP3 PUSH1 0x2 DUP2 LT PUSH2 0x133A JUMPI INVALID JUMPDEST PUSH1 0x20 MUL ADD MSTORE PUSH1 0x1 ADD PUSH2 0x1296 JUMP JUMPDEST POP DUP1 MLOAD ISZERO ISZERO DUP1 PUSH2 0x135A JUMPI POP PUSH1 0x20 DUP2 ADD MLOAD ISZERO ISZERO JUMPDEST ISZERO PUSH2 0x13C0 JUMPI PUSH1 0x40 MLOAD PUSH4 0xB4C7E4D PUSH1 0xE0 SHL DUP2 MSTORE PUSH1 0x1 PUSH1 0x1 PUSH1 0xA0 SHL SUB DUP8 AND SWAP1 PUSH4 0xB4C7E4D SWAP1 PUSH2 0x138D SWAP1 DUP5 SWAP1 DUP14 SWAP1 PUSH1 0x4 ADD PUSH2 0x542B JUMP JUMPDEST PUSH1 0x0 PUSH1 0x40 MLOAD DUP1 DUP4 SUB DUP2 PUSH1 0x0 DUP8 DUP1 EXTCODESIZE ISZERO DUP1 ISZERO PUSH2 0x13A7 JUMPI PUSH1 0x0 DUP1 REVERT JUMPDEST POP GAS CALL ISZERO DUP1 ISZERO PUSH2 0x13BB JUMPI RETURNDATASIZE PUSH1 0x0 DUP1 RETURNDATACOPY RETURNDATASIZE PUSH1 0x0 REVERT JUMPDEST POP POP POP POP JUMPDEST PUSH2 0x13EA DUP15 PUSH32 0x0 PUSH2 0x4636 JUMP JUMPDEST PUSH1 0x0 DUP15 PUSH1 0x1 PUSH1 0x1 PUSH1 0xA0 SHL SUB AND PUSH4 0x70A08231 ADDRESS PUSH1 0x40 MLOAD DUP3 PUSH4 0xFFFFFFFF AND PUSH1 0xE0 SHL DUP2 MSTORE PUSH1 0x4 ADD PUSH2 0x1418 SWAP2 SWAP1 PUSH2 0x53C3 JUMP JUMPDEST PUSH1 0x20 PUSH1 0x40 MLOAD DUP1 DUP4 SUB DUP2 DUP7 DUP1 EXTCODESIZE ISZERO DUP1 ISZERO PUSH2 0x1430 JUMPI PUSH1 0x0 DUP1 REVERT JUMPDEST POP GAS STATICCALL ISZERO DUP1 ISZERO PUSH2 0x1444 JUMPI RETURNDATASIZE PUSH1 0x0 DUP1 RETURNDATACOPY RETURNDATASIZE PUSH1 0x0 REVERT JUMPDEST POP POP POP POP PUSH1 0x40 MLOAD RETURNDATASIZE PUSH1 0x1F NOT PUSH1 0x1F DUP3 ADD AND DUP3 ADD DUP1 PUSH1 0x40 MSTORE POP DUP2 ADD SWAP1 PUSH2 0x1468 SWAP2 SWAP1 PUSH2 0x52D0 JUMP JUMPDEST SWAP1 POP PUSH1 0x0 PUSH32 0x0 PUSH1 0x1 PUSH1 0x1 PUSH1 0xA0 SHL SUB AND PUSH4 0x2ACC94B DUP12 DUP12 DUP6 PUSH1 0x40 MLOAD DUP5 PUSH4 0xFFFFFFFF AND PUSH1 0xE0 SHL DUP2 MSTORE PUSH1 0x4 ADD PUSH2 0x14BC SWAP4 SWAP3 SWAP2 SWAP1 PUSH2 0x596A JUMP JUMPDEST PUSH1 0x20 PUSH1 0x40 MLOAD DUP1 DUP4 SUB DUP2 PUSH1 0x0 DUP8 DUP1 EXTCODESIZE ISZERO DUP1 ISZERO PUSH2 0x14D6 JUMPI PUSH1 0x0 DUP1 REVERT JUMPDEST POP GAS CALL ISZERO DUP1 ISZERO PUSH2 0x14EA JUMPI RETURNDATASIZE PUSH1 0x0 DUP1 RETURNDATACOPY RETURNDATASIZE PUSH1 0x0 REVERT JUMPDEST POP POP POP POP PUSH1 0x40 MLOAD RETURNDATASIZE PUSH1 0x1F NOT PUSH1 0x1F DUP3 ADD AND DUP3 ADD DUP1 PUSH1 0x40 MSTORE POP DUP2 ADD SWAP1 PUSH2 0x150E SWAP2 SWAP1 PUSH2 0x52D0 JUMP JUMPDEST PUSH1 0x40 MLOAD PUSH4 0x314568D9 PUSH1 0xE0 SHL DUP2 MSTORE SWAP1 SWAP2 POP PUSH1 0x1 PUSH1 0x1 PUSH1 0xA0 SHL SUB PUSH32 0x0 AND SWAP1 PUSH4 0x314568D9 SWAP1 PUSH2 0x1581 SWAP1 PUSH32 0x0 SWAP1 DUP6 SWAP1 DUP8 SWAP1 PUSH1 0x4 ADD PUSH2 0x540A JUMP JUMPDEST PUSH1 0x0 PUSH1 0x40 MLOAD DUP1 DUP4 SUB DUP2 PUSH1 0x0 DUP8 DUP1 EXTCODESIZE ISZERO DUP1 ISZERO PUSH2 0x159B JUMPI PUSH1 0x0 DUP1 REVERT JUMPDEST POP GAS CALL ISZERO DUP1 ISZERO PUSH2 0x15AF JUMPI RETURNDATASIZE PUSH1 0x0 DUP1 RETURNDATACOPY RETURNDATASIZE PUSH1 0x0 REVERT JUMPDEST POP POP POP POP POP POP PUSH1 0x0 JUMPDEST PUSH1 0x2 DUP2 LT ISZERO PUSH2 0x15E5 JUMPI PUSH2 0x15DD DUP7 DUP3 DUP2 MLOAD DUP2 LT PUSH2 0x15D0 JUMPI INVALID JUMPDEST PUSH1 0x20 MUL PUSH1 0x20 ADD ADD MLOAD PUSH2 0x46AE JUMP JUMPDEST PUSH1 0x1 ADD PUSH2 0x15B8 JUMP JUMPDEST POP PUSH2 0x160F PUSH32 0x0 PUSH2 0x46AE JUMP JUMPDEST POP POP POP POP POP POP POP POP POP POP POP POP POP POP JUMP JUMPDEST PUSH1 0x85 PUSH1 0x20 MSTORE DUP2 PUSH1 0x0 MSTORE PUSH1 0x40 PUSH1 0x0 KECCAK256 DUP2 DUP2 SLOAD DUP2 LT PUSH2 0x1638 JUMPI INVALID JUMPDEST PUSH1 0x0 SWAP2 DUP3 MSTORE PUSH1 0x20 SWAP1 SWAP2 KECCAK256 ADD SLOAD PUSH1 0x1 PUSH1 0x1 PUSH1 0xA0 SHL SUB AND SWAP2 POP DUP3 SWAP1 POP JUMP JUMPDEST PUSH1 0x1 PUSH1 0x1 PUSH1 0xA0 SHL SUB DUP1 DUP3 AND PUSH1 0x0 SWAP1 DUP2 MSTORE PUSH1 0x86 PUSH1 0x20 MSTORE PUSH1 0x40 DUP2 KECCAK256 SLOAD SWAP1 SWAP2 AND DUP1 PUSH2 0x19BA JUMPI PUSH1 0x1 PUSH1 0x1 PUSH1 0xA0 SHL SUB DUP4 AND PUSH2 0x169C JUMPI PUSH1 0x40 MLOAD PUSH3 0x461BCD PUSH1 0xE5 SHL DUP2 MSTORE PUSH1 0x4 ADD PUSH2 0x1ED SWAP1 PUSH2 0x56CF JUMP JUMPDEST PUSH1 0x40 MLOAD PUSH4 0xBDF475C3 PUSH1 0xE0 SHL DUP2 MSTORE PUSH1 0x1 PUSH1 0x1 PUSH1 0xA0 SHL SUB PUSH32 0x0 AND SWAP1 PUSH4 0xBDF475C3 SWAP1 PUSH2 0x16E8 SWAP1 DUP7 SWAP1 PUSH1 0x4 ADD PUSH2 0x53C3 JUMP JUMPDEST PUSH1 0x20 PUSH1 0x40 MLOAD DUP1 DUP4 SUB DUP2 DUP7 DUP1 EXTCODESIZE ISZERO DUP1 ISZERO PUSH2 0x1700 JUMPI PUSH1 0x0 DUP1 REVERT JUMPDEST POP GAS STATICCALL ISZERO DUP1 ISZERO PUSH2 0x1714 JUMPI RETURNDATASIZE PUSH1 0x0 DUP1 RETURNDATACOPY RETURNDATASIZE PUSH1 0x0 REVERT JUMPDEST POP POP POP POP PUSH1 0x40 MLOAD RETURNDATASIZE PUSH1 0x1F NOT PUSH1 0x1F DUP3 ADD AND DUP3 ADD DUP1 PUSH1 0x40 MSTORE POP DUP2 ADD SWAP1 PUSH2 0x1738 SWAP2 SWAP1 PUSH2 0x4D0B JUMP JUMPDEST SWAP1 POP PUSH1 0x1 PUSH1 0x1 PUSH1 0xA0 SHL SUB DUP2 AND PUSH2 0x1760 JUMPI PUSH1 0x40 MLOAD PUSH3 0x461BCD PUSH1 0xE5 SHL DUP2 MSTORE PUSH1 0x4 ADD PUSH2 0x1ED SWAP1 PUSH2 0x578A JUMP JUMPDEST PUSH1 0x1 PUSH1 0x1 PUSH1 0xA0 SHL SUB DUP4 DUP2 AND PUSH1 0x0 SWAP1 DUP2 MSTORE PUSH1 0x86 PUSH1 0x20 MSTORE PUSH1 0x40 DUP1 DUP3 KECCAK256 DUP1 SLOAD PUSH1 0x1 PUSH1 0x1 PUSH1 0xA0 SHL SUB NOT AND DUP6 DUP6 AND OR SWAP1 SSTORE MLOAD PUSH4 0x940494F1 PUSH1 0xE0 SHL DUP2 MSTORE SWAP1 SWAP2 PUSH32 0x0 AND SWAP1 PUSH4 0x940494F1 SWAP1 PUSH2 0x17D0 SWAP1 DUP6 SWAP1 PUSH1 0x4 ADD PUSH2 0x53C3 JUMP JUMPDEST PUSH1 0x40 DUP1 MLOAD DUP1 DUP4 SUB DUP2 DUP7 DUP1 EXTCODESIZE ISZERO DUP1 ISZERO PUSH2 0x17E7 JUMPI PUSH1 0x0 DUP1 REVERT JUMPDEST POP GAS STATICCALL ISZERO DUP1 ISZERO PUSH2 0x17FB JUMPI RETURNDATASIZE PUSH1 0x0 DUP1 RETURNDATACOPY RETURNDATASIZE PUSH1 0x0 REVERT JUMPDEST POP POP POP POP PUSH1 0x40 MLOAD RETURNDATASIZE PUSH1 0x1F NOT PUSH1 0x1F DUP3 ADD AND DUP3 ADD DUP1 PUSH1 0x40 MSTORE POP DUP2 ADD SWAP1 PUSH2 0x181F SWAP2 SWAP1 PUSH2 0x52E8 JUMP JUMPDEST POP SWAP1 POP PUSH2 0x182A PUSH2 0x4B49 JUMP JUMPDEST PUSH1 0x40 MLOAD PUSH4 0x9AC90D3D PUSH1 0xE0 SHL DUP2 MSTORE PUSH1 0x1 PUSH1 0x1 PUSH1 0xA0 SHL SUB PUSH32 0x0 AND SWAP1 PUSH4 0x9AC90D3D SWAP1 PUSH2 0x1876 SWAP1 DUP7 SWAP1 PUSH1 0x4 ADD PUSH2 0x53C3 JUMP JUMPDEST PUSH2 0x100 PUSH1 0x40 MLOAD DUP1 DUP4 SUB DUP2 DUP7 DUP1 EXTCODESIZE ISZERO DUP1 ISZERO PUSH2 0x188F JUMPI PUSH1 0x0 DUP1 REVERT JUMPDEST POP GAS STATICCALL ISZERO DUP1 ISZERO PUSH2 0x18A3 JUMPI RETURNDATASIZE PUSH1 0x0 DUP1 RETURNDATACOPY RETURNDATASIZE PUSH1 0x0 REVERT JUMPDEST POP POP POP POP PUSH1 0x40 MLOAD RETURNDATASIZE PUSH1 0x1F NOT PUSH1 0x1F DUP3 ADD AND DUP3 ADD DUP1 PUSH1 0x40 MSTORE POP DUP2 ADD SWAP1 PUSH2 0x18C7 SWAP2 SWAP1 PUSH2 0x517E JUMP JUMPDEST SWAP1 POP DUP2 PUSH8 0xFFFFFFFFFFFFFFFF DUP2 GT DUP1 ISZERO PUSH2 0x18E0 JUMPI PUSH1 0x0 DUP1 REVERT JUMPDEST POP PUSH1 0x40 MLOAD SWAP1 DUP1 DUP3 MSTORE DUP1 PUSH1 0x20 MUL PUSH1 0x20 ADD DUP3 ADD PUSH1 0x40 MSTORE DUP1 ISZERO PUSH2 0x190A JUMPI DUP2 PUSH1 0x20 ADD PUSH1 0x20 DUP3 MUL DUP1 CALLDATASIZE DUP4 CALLDATACOPY ADD SWAP1 POP JUMPDEST POP PUSH1 0x1 PUSH1 0x1 PUSH1 0xA0 SHL SUB DUP7 AND PUSH1 0x0 SWAP1 DUP2 MSTORE PUSH1 0x85 PUSH1 0x20 SWAP1 DUP2 MSTORE PUSH1 0x40 SWAP1 SWAP2 KECCAK256 DUP3 MLOAD PUSH2 0x1938 SWAP4 SWAP2 SWAP3 SWAP2 SWAP1 SWAP2 ADD SWAP1 PUSH2 0x4B68 JUMP JUMPDEST POP PUSH1 0x0 JUMPDEST DUP3 DUP2 LT ISZERO PUSH2 0x19B6 JUMPI DUP2 DUP2 PUSH1 0x8 DUP2 LT PUSH2 0x1950 JUMPI INVALID JUMPDEST PUSH1 0x20 MUL ADD MLOAD PUSH1 0x85 PUSH1 0x0 DUP9 PUSH1 0x1 PUSH1 0x1 PUSH1 0xA0 SHL SUB AND PUSH1 0x1 PUSH1 0x1 PUSH1 0xA0 SHL SUB AND DUP2 MSTORE PUSH1 0x20 ADD SWAP1 DUP2 MSTORE PUSH1 0x20 ADD PUSH1 0x0 KECCAK256 DUP3 DUP2 SLOAD DUP2 LT PUSH2 0x1985 JUMPI INVALID JUMPDEST PUSH1 0x0 SWAP2 DUP3 MSTORE PUSH1 0x20 SWAP1 SWAP2 KECCAK256 ADD DUP1 SLOAD PUSH1 0x1 PUSH1 0x1 PUSH1 0xA0 SHL SUB NOT AND PUSH1 0x1 PUSH1 0x1 PUSH1 0xA0 SHL SUB SWAP3 SWAP1 SWAP3 AND SWAP2 SWAP1 SWAP2 OR SWAP1 SSTORE PUSH1 0x1 ADD PUSH2 0x193C JUMP JUMPDEST POP POP POP JUMPDEST SWAP3 SWAP2 POP POP JUMP JUMPDEST PUSH4 0xBC197C81 PUSH1 0xE0 SHL SWAP9 SWAP8 POP POP POP POP POP POP POP POP JUMP JUMPDEST PUSH1 0x1 PUSH1 0x1 PUSH1 0xA0 SHL SUB DUP9 AND PUSH1 0x0 SWAP1 DUP2 MSTORE PUSH1 0x84 PUSH1 0x20 MSTORE PUSH1 0x40 SWAP1 KECCAK256 SLOAD PUSH1 0xFF AND PUSH2 0x1A0C JUMPI PUSH1 0x40 MLOAD PUSH3 0x461BCD PUSH1 0xE5 SHL DUP2 MSTORE PUSH1 0x4 ADD PUSH2 0x1ED SWAP1 PUSH2 0x56F4 JUMP JUMPDEST PUSH1 0x0 PUSH2 0x1A17 DUP10 PUSH2 0x1654 JUMP JUMPDEST PUSH1 0x1 PUSH1 0x1 PUSH1 0xA0 SHL SUB DUP11 AND PUSH1 0x0 SWAP1 DUP2 MSTORE PUSH1 0x85 PUSH1 0x20 MSTORE PUSH1 0x40 SWAP1 KECCAK256 SLOAD SWAP1 SWAP2 POP PUSH1 0x3 EQ PUSH2 0x1A52 JUMPI PUSH1 0x40 MLOAD PUSH3 0x461BCD PUSH1 0xE5 SHL DUP2 MSTORE PUSH1 0x4 ADD PUSH2 0x1ED SWAP1 PUSH2 0x58D1 JUMP JUMPDEST DUP9 PUSH1 0x1 PUSH1 0x1 PUSH1 0xA0 SHL SUB AND PUSH32 0x0 PUSH1 0x1 PUSH1 0x1 PUSH1 0xA0 SHL SUB AND PUSH4 0xA9B4E6FE DUP6 DUP6 PUSH1 0x40 MLOAD DUP4 PUSH4 0xFFFFFFFF AND PUSH1 0xE0 SHL DUP2 MSTORE PUSH1 0x4 ADD PUSH2 0x1AAA SWAP3 SWAP2 SWAP1 PUSH2 0x595C JUMP JUMPDEST PUSH1 0x20 PUSH1 0x40 MLOAD DUP1 DUP4 SUB DUP2 DUP7 DUP1 EXTCODESIZE ISZERO DUP1 ISZERO PUSH2 0x1AC2 JUMPI PUSH1 0x0 DUP1 REVERT JUMPDEST POP GAS STATICCALL ISZERO DUP1 ISZERO PUSH2 0x1AD6 JUMPI RETURNDATASIZE PUSH1 0x0 DUP1 RETURNDATACOPY RETURNDATASIZE PUSH1 0x0 REVERT JUMPDEST POP POP POP POP PUSH1 0x40 MLOAD RETURNDATASIZE PUSH1 0x1F NOT PUSH1 0x1F DUP3 ADD AND DUP3 ADD DUP1 PUSH1 0x40 MSTORE POP DUP2 ADD SWAP1 PUSH2 0x1AFA SWAP2 SWAP1 PUSH2 0x4D0B JUMP JUMPDEST PUSH1 0x1 PUSH1 0x1 PUSH1 0xA0 SHL SUB AND EQ PUSH2 0x1B20 JUMPI PUSH1 0x40 MLOAD PUSH3 0x461BCD PUSH1 0xE5 SHL DUP2 MSTORE PUSH1 0x4 ADD PUSH2 0x1ED SWAP1 PUSH2 0x5803 JUMP JUMPDEST PUSH1 0x1 PUSH1 0x1 PUSH1 0xA0 SHL SUB DUP10 AND PUSH1 0x0 SWAP1 DUP2 MSTORE PUSH1 0x85 PUSH1 0x20 SWAP1 DUP2 MSTORE PUSH1 0x40 SWAP2 DUP3 SWAP1 KECCAK256 DUP1 SLOAD DUP4 MLOAD DUP2 DUP5 MUL DUP2 ADD DUP5 ADD SWAP1 SWAP5 MSTORE DUP1 DUP5 MSTORE PUSH1 0x60 SWAP4 SWAP3 DUP4 ADD DUP3 DUP3 DUP1 ISZERO PUSH2 0x1B8A JUMPI PUSH1 0x20 MUL DUP3 ADD SWAP2 SWAP1 PUSH1 0x0 MSTORE PUSH1 0x20 PUSH1 0x0 KECCAK256 SWAP1 JUMPDEST DUP2 SLOAD PUSH1 0x1 PUSH1 0x1 PUSH1 0xA0 SHL SUB AND DUP2 MSTORE PUSH1 0x1 SWAP1 SWAP2 ADD SWAP1 PUSH1 0x20 ADD DUP1 DUP4 GT PUSH2 0x1B6C JUMPI JUMPDEST POP POP POP POP POP SWAP1 POP PUSH1 0x0 DUP1 PUSH1 0x0 PUSH32 0x0 PUSH1 0x1 PUSH1 0x1 PUSH1 0xA0 SHL SUB AND PUSH4 0xF70AEDD9 PUSH1 0x40 MLOAD DUP2 PUSH4 0xFFFFFFFF AND PUSH1 0xE0 SHL DUP2 MSTORE PUSH1 0x4 ADD PUSH1 0x80 PUSH1 0x40 MLOAD DUP1 DUP4 SUB DUP2 DUP7 DUP1 EXTCODESIZE ISZERO DUP1 ISZERO PUSH2 0x1BEF JUMPI PUSH1 0x0 DUP1 REVERT JUMPDEST POP GAS STATICCALL ISZERO DUP1 ISZERO PUSH2 0x1C03 JUMPI RETURNDATASIZE PUSH1 0x0 DUP1 RETURNDATACOPY RETURNDATASIZE PUSH1 0x0 REVERT JUMPDEST POP POP POP POP PUSH1 0x40 MLOAD RETURNDATASIZE PUSH1 0x1F NOT PUSH1 0x1F DUP3 ADD AND DUP3 ADD DUP1 PUSH1 0x40 MSTORE POP DUP2 ADD SWAP1 PUSH2 0x1C27 SWAP2 SWAP1 PUSH2 0x4E1A JUMP JUMPDEST SWAP2 SWAP6 POP SWAP4 POP SWAP2 POP POP DUP1 ISZERO PUSH2 0x1E9A JUMPI PUSH1 0x0 DUP1 PUSH32 0x0 PUSH1 0x1 PUSH1 0x1 PUSH1 0xA0 SHL SUB AND PUSH4 0xDC20C6FA DUP6 PUSH1 0x40 MLOAD DUP3 PUSH4 0xFFFFFFFF AND PUSH1 0xE0 SHL DUP2 MSTORE PUSH1 0x4 ADD PUSH2 0x1C84 SWAP2 SWAP1 PUSH2 0x5900 JUMP JUMPDEST PUSH1 0x60 PUSH1 0x40 MLOAD DUP1 DUP4 SUB DUP2 DUP7 DUP1 EXTCODESIZE ISZERO DUP1 ISZERO PUSH2 0x1C9C JUMPI PUSH1 0x0 DUP1 REVERT JUMPDEST POP GAS STATICCALL ISZERO DUP1 ISZERO PUSH2 0x1CB0 JUMPI RETURNDATASIZE PUSH1 0x0 DUP1 RETURNDATACOPY RETURNDATASIZE PUSH1 0x0 REVERT JUMPDEST POP POP POP POP PUSH1 0x40 MLOAD RETURNDATASIZE PUSH1 0x1F NOT PUSH1 0x1F DUP3 ADD AND DUP3 ADD DUP1 PUSH1 0x40 MSTORE POP DUP2 ADD SWAP1 PUSH2 0x1CD4 SWAP2 SWAP1 PUSH2 0x530B JUMP JUMPDEST POP SWAP2 POP SWAP2 POP DUP9 DUP3 EQ DUP1 ISZERO PUSH2 0x1CE7 JUMPI POP DUP8 DUP2 EQ JUMPDEST PUSH2 0x1D03 JUMPI PUSH1 0x40 MLOAD PUSH3 0x461BCD PUSH1 0xE5 SHL DUP2 MSTORE PUSH1 0x4 ADD PUSH2 0x1ED SWAP1 PUSH2 0x54CF JUMP JUMPDEST PUSH32 0x0 PUSH1 0x1 PUSH1 0x1 PUSH1 0xA0 SHL SUB AND DUP6 PUSH1 0x1 PUSH1 0x1 PUSH1 0xA0 SHL SUB AND EQ PUSH2 0x1D54 JUMPI PUSH1 0x40 MLOAD PUSH3 0x461BCD PUSH1 0xE5 SHL DUP2 MSTORE PUSH1 0x4 ADD PUSH2 0x1ED SWAP1 PUSH2 0x559F JUMP JUMPDEST PUSH1 0x40 MLOAD PUSH4 0xD1D6975 PUSH1 0xE3 SHL DUP2 MSTORE PUSH1 0x1 PUSH1 0x1 PUSH1 0xA0 SHL SUB PUSH32 0x0 AND SWAP1 PUSH4 0x68EB4BA8 SWAP1 PUSH2 0x1DC4 SWAP1 PUSH32 0x0 SWAP1 DUP9 SWAP1 DUP9 SWAP1 PUSH1 0x4 ADD PUSH2 0x540A JUMP JUMPDEST PUSH1 0x0 PUSH1 0x40 MLOAD DUP1 DUP4 SUB DUP2 PUSH1 0x0 DUP8 DUP1 EXTCODESIZE ISZERO DUP1 ISZERO PUSH2 0x1DDE JUMPI PUSH1 0x0 DUP1 REVERT JUMPDEST POP GAS CALL ISZERO DUP1 ISZERO PUSH2 0x1DF2 JUMPI RETURNDATASIZE PUSH1 0x0 DUP1 RETURNDATACOPY RETURNDATASIZE PUSH1 0x0 REVERT JUMPDEST POP POP PUSH1 0x40 MLOAD PUSH4 0xB390C0AB PUSH1 0xE0 SHL DUP2 MSTORE PUSH1 0x1 PUSH1 0x1 PUSH1 0xA0 SHL SUB PUSH32 0x0 AND SWAP3 POP PUSH4 0xB390C0AB SWAP2 POP PUSH2 0x1E44 SWAP1 DUP8 SWAP1 DUP8 SWAP1 PUSH1 0x4 ADD PUSH2 0x595C JUMP JUMPDEST PUSH1 0x20 PUSH1 0x40 MLOAD DUP1 DUP4 SUB DUP2 PUSH1 0x0 DUP8 DUP1 EXTCODESIZE ISZERO DUP1 ISZERO PUSH2 0x1E5E JUMPI PUSH1 0x0 DUP1 REVERT JUMPDEST POP GAS CALL ISZERO DUP1 ISZERO PUSH2 0x1E72 JUMPI RETURNDATASIZE PUSH1 0x0 DUP1 RETURNDATACOPY RETURNDATASIZE PUSH1 0x0 REVERT JUMPDEST POP POP POP POP PUSH1 0x40 MLOAD RETURNDATASIZE PUSH1 0x1F NOT PUSH1 0x1F DUP3 ADD AND DUP3 ADD DUP1 PUSH1 0x40 MSTORE POP DUP2 ADD SWAP1 PUSH2 0x1E96 SWAP2 SWAP1 PUSH2 0x52D0 JUMP JUMPDEST POP POP POP JUMPDEST PUSH2 0x1EA5 DUP14 PUSH1 0x3 PUSH2 0xC16 JUMP JUMPDEST PUSH1 0x0 JUMPDEST PUSH1 0x3 DUP2 LT ISZERO PUSH2 0x1EDC JUMPI PUSH2 0x1ED4 DUP6 DUP3 DUP2 MLOAD DUP2 LT PUSH2 0x1EC0 JUMPI INVALID JUMPDEST PUSH1 0x20 MUL PUSH1 0x20 ADD ADD MLOAD DUP15 DUP4 PUSH1 0x3 DUP2 LT PUSH2 0x1222 JUMPI INVALID JUMPDEST PUSH1 0x1 ADD PUSH2 0x1EA8 JUMP JUMPDEST POP PUSH2 0x1EE7 DUP14 DUP13 PUSH2 0x47DA JUMP JUMPDEST PUSH1 0x0 JUMPDEST PUSH1 0x3 DUP2 LT ISZERO PUSH2 0x1F1E JUMPI PUSH2 0x1F16 DUP6 DUP3 DUP2 MLOAD DUP2 LT PUSH2 0x1F02 JUMPI INVALID JUMPDEST PUSH1 0x20 MUL PUSH1 0x20 ADD ADD MLOAD DUP13 DUP4 PUSH1 0x3 DUP2 LT PUSH2 0x126E JUMPI INVALID JUMPDEST PUSH1 0x1 ADD PUSH2 0x1EEA JUMP JUMPDEST POP PUSH2 0x1F29 DUP14 DUP11 PUSH2 0x4864 JUMP JUMPDEST PUSH2 0x1F31 PUSH2 0x4BCD JUMP JUMPDEST PUSH1 0x0 JUMPDEST PUSH1 0x3 DUP2 LT ISZERO PUSH2 0x1FE5 JUMPI DUP6 DUP2 DUP2 MLOAD DUP2 LT PUSH2 0x1F49 JUMPI INVALID JUMPDEST PUSH1 0x20 MUL PUSH1 0x20 ADD ADD MLOAD PUSH1 0x1 PUSH1 0x1 PUSH1 0xA0 SHL SUB AND PUSH4 0x70A08231 ADDRESS PUSH1 0x40 MLOAD DUP3 PUSH4 0xFFFFFFFF AND PUSH1 0xE0 SHL DUP2 MSTORE PUSH1 0x4 ADD PUSH2 0x1F7C SWAP2 SWAP1 PUSH2 0x53C3 JUMP JUMPDEST PUSH1 0x20 PUSH1 0x40 MLOAD DUP1 DUP4 SUB DUP2 DUP7 DUP1 EXTCODESIZE ISZERO DUP1 ISZERO PUSH2 0x1F94 JUMPI PUSH1 0x0 DUP1 REVERT JUMPDEST POP GAS STATICCALL ISZERO DUP1 ISZERO PUSH2 0x1FA8 JUMPI RETURNDATASIZE PUSH1 0x0 DUP1 RETURNDATACOPY RETURNDATASIZE PUSH1 0x0 REVERT JUMPDEST POP POP POP POP PUSH1 0x40 MLOAD RETURNDATASIZE PUSH1 0x1F NOT PUSH1 0x1F DUP3 ADD AND DUP3 ADD DUP1 PUSH1 0x40 MSTORE POP DUP2 ADD SWAP1 PUSH2 0x1FCC SWAP2 SWAP1 PUSH2 0x52D0 JUMP JUMPDEST DUP3 DUP3 PUSH1 0x3 DUP2 LT PUSH2 0x1FD8 JUMPI INVALID JUMPDEST PUSH1 0x20 MUL ADD MSTORE PUSH1 0x1 ADD PUSH2 0x1F34 JUMP JUMPDEST POP DUP1 MLOAD ISZERO ISZERO DUP1 PUSH2 0x1FF8 JUMPI POP PUSH1 0x20 DUP2 ADD MLOAD ISZERO ISZERO JUMPDEST DUP1 PUSH2 0x2006 JUMPI POP PUSH1 0x40 DUP2 ADD MLOAD ISZERO ISZERO JUMPDEST ISZERO PUSH2 0x206C JUMPI PUSH1 0x40 MLOAD PUSH4 0x4515CEF3 PUSH1 0xE0 SHL DUP2 MSTORE PUSH1 0x1 PUSH1 0x1 PUSH1 0xA0 SHL SUB DUP8 AND SWAP1 PUSH4 0x4515CEF3 SWAP1 PUSH2 0x2039 SWAP1 DUP5 SWAP1 DUP14 SWAP1 PUSH1 0x4 ADD PUSH2 0x5446 JUMP JUMPDEST PUSH1 0x0 PUSH1 0x40 MLOAD DUP1 DUP4 SUB DUP2 PUSH1 0x0 DUP8 DUP1 EXTCODESIZE ISZERO DUP1 ISZERO PUSH2 0x2053 JUMPI PUSH1 0x0 DUP1 REVERT JUMPDEST POP GAS CALL ISZERO DUP1 ISZERO PUSH2 0x2067 JUMPI RETURNDATASIZE PUSH1 0x0 DUP1 RETURNDATACOPY RETURNDATASIZE PUSH1 0x0 REVERT JUMPDEST POP POP POP POP JUMPDEST PUSH2 0x2096 DUP15 PUSH32 0x0 PUSH2 0x4636 JUMP JUMPDEST PUSH1 0x0 DUP15 PUSH1 0x1 PUSH1 0x1 PUSH1 0xA0 SHL SUB AND PUSH4 0x70A08231 ADDRESS PUSH1 0x40 MLOAD DUP3 PUSH4 0xFFFFFFFF AND PUSH1 0xE0 SHL DUP2 MSTORE PUSH1 0x4 ADD PUSH2 0x20C4 SWAP2 SWAP1 PUSH2 0x53C3 JUMP JUMPDEST PUSH1 0x20 PUSH1 0x40 MLOAD DUP1 DUP4 SUB DUP2 DUP7 DUP1 EXTCODESIZE ISZERO DUP1 ISZERO PUSH2 0x20DC JUMPI PUSH1 0x0 DUP1 REVERT JUMPDEST POP GAS STATICCALL ISZERO DUP1 ISZERO PUSH2 0x20F0 JUMPI RETURNDATASIZE PUSH1 0x0 DUP1 RETURNDATACOPY RETURNDATASIZE PUSH1 0x0 REVERT JUMPDEST POP POP POP POP PUSH1 0x40 MLOAD RETURNDATASIZE PUSH1 0x1F NOT PUSH1 0x1F DUP3 ADD AND DUP3 ADD DUP1 PUSH1 0x40 MSTORE POP DUP2 ADD SWAP1 PUSH2 0x2114 SWAP2 SWAP1 PUSH2 0x52D0 JUMP JUMPDEST SWAP1 POP PUSH1 0x0 PUSH32 0x0 PUSH1 0x1 PUSH1 0x1 PUSH1 0xA0 SHL SUB AND PUSH4 0x2ACC94B DUP12 DUP12 DUP6 PUSH1 0x40 MLOAD DUP5 PUSH4 0xFFFFFFFF AND PUSH1 0xE0 SHL DUP2 MSTORE PUSH1 0x4 ADD PUSH2 0x2168 SWAP4 SWAP3 SWAP2 SWAP1 PUSH2 0x596A JUMP JUMPDEST PUSH1 0x20 PUSH1 0x40 MLOAD DUP1 DUP4 SUB DUP2 PUSH1 0x0 DUP8 DUP1 EXTCODESIZE ISZERO DUP1 ISZERO PUSH2 0x2182 JUMPI PUSH1 0x0 DUP1 REVERT JUMPDEST POP GAS CALL ISZERO DUP1 ISZERO PUSH2 0x2196 JUMPI RETURNDATASIZE PUSH1 0x0 DUP1 RETURNDATACOPY RETURNDATASIZE PUSH1 0x0 REVERT JUMPDEST POP POP POP POP PUSH1 0x40 MLOAD RETURNDATASIZE PUSH1 0x1F NOT PUSH1 0x1F DUP3 ADD AND DUP3 ADD DUP1 PUSH1 0x40 MSTORE POP DUP2 ADD SWAP1 PUSH2 0x21BA SWAP2 SWAP1 PUSH2 0x52D0 JUMP JUMPDEST PUSH1 0x40 MLOAD PUSH4 0x314568D9 PUSH1 0xE0 SHL DUP2 MSTORE SWAP1 SWAP2 POP PUSH1 0x1 PUSH1 0x1 PUSH1 0xA0 SHL SUB PUSH32 0x0 AND SWAP1 PUSH4 0x314568D9 SWAP1 PUSH2 0x222D SWAP1 PUSH32 0x0 SWAP1 DUP6 SWAP1 DUP8 SWAP1 PUSH1 0x4 ADD PUSH2 0x540A JUMP JUMPDEST PUSH1 0x0 PUSH1 0x40 MLOAD DUP1 DUP4 SUB DUP2 PUSH1 0x0 DUP8 DUP1 EXTCODESIZE ISZERO DUP1 ISZERO PUSH2 0x2247 JUMPI PUSH1 0x0 DUP1 REVERT JUMPDEST POP GAS CALL ISZERO DUP1 ISZERO PUSH2 0x225B JUMPI RETURNDATASIZE PUSH1 0x0 DUP1 RETURNDATACOPY RETURNDATASIZE PUSH1 0x0 REVERT JUMPDEST POP POP POP POP POP POP PUSH1 0x0 JUMPDEST PUSH1 0x3 DUP2 LT ISZERO PUSH2 0x15E5 JUMPI PUSH2 0x227C DUP7 DUP3 DUP2 MLOAD DUP2 LT PUSH2 0x15D0 JUMPI INVALID JUMPDEST PUSH1 0x1 ADD PUSH2 0x2264 JUMP JUMPDEST PUSH1 0x1 PUSH1 0x1 PUSH1 0xA0 SHL SUB DUP9 AND PUSH1 0x0 SWAP1 DUP2 MSTORE PUSH1 0x84 PUSH1 0x20 MSTORE PUSH1 0x40 SWAP1 KECCAK256 SLOAD PUSH1 0xFF AND PUSH2 0x22BC JUMPI PUSH1 0x40 MLOAD PUSH3 0x461BCD PUSH1 0xE5 SHL DUP2 MSTORE PUSH1 0x4 ADD PUSH2 0x1ED SWAP1 PUSH2 0x56F4 JUMP JUMPDEST PUSH1 0x0 PUSH2 0x22C7 DUP10 PUSH2 0x1654 JUMP JUMPDEST PUSH1 0x1 PUSH1 0x1 PUSH1 0xA0 SHL SUB DUP11 AND PUSH1 0x0 SWAP1 DUP2 MSTORE PUSH1 0x85 PUSH1 0x20 MSTORE PUSH1 0x40 SWAP1 KECCAK256 SLOAD SWAP1 SWAP2 POP PUSH1 0x4 EQ PUSH2 0x2302 JUMPI PUSH1 0x40 MLOAD PUSH3 0x461BCD PUSH1 0xE5 SHL DUP2 MSTORE PUSH1 0x4 ADD PUSH2 0x1ED SWAP1 PUSH2 0x58D1 JUMP JUMPDEST DUP9 PUSH1 0x1 PUSH1 0x1 PUSH1 0xA0 SHL SUB AND PUSH32 0x0 PUSH1 0x1 PUSH1 0x1 PUSH1 0xA0 SHL SUB AND PUSH4 0xA9B4E6FE DUP6 DUP6 PUSH1 0x40 MLOAD DUP4 PUSH4 0xFFFFFFFF AND PUSH1 0xE0 SHL DUP2 MSTORE PUSH1 0x4 ADD PUSH2 0x235A SWAP3 SWAP2 SWAP1 PUSH2 0x595C JUMP JUMPDEST PUSH1 0x20 PUSH1 0x40 MLOAD DUP1 DUP4 SUB DUP2 DUP7 DUP1 EXTCODESIZE ISZERO DUP1 ISZERO PUSH2 0x2372 JUMPI PUSH1 0x0 DUP1 REVERT JUMPDEST POP GAS STATICCALL ISZERO DUP1 ISZERO PUSH2 0x2386 JUMPI RETURNDATASIZE PUSH1 0x0 DUP1 RETURNDATACOPY RETURNDATASIZE PUSH1 0x0 REVERT JUMPDEST POP POP POP POP PUSH1 0x40 MLOAD RETURNDATASIZE PUSH1 0x1F NOT PUSH1 0x1F DUP3 ADD AND DUP3 ADD DUP1 PUSH1 0x40 MSTORE POP DUP2 ADD SWAP1 PUSH2 0x23AA SWAP2 SWAP1 PUSH2 0x4D0B JUMP JUMPDEST PUSH1 0x1 PUSH1 0x1 PUSH1 0xA0 SHL SUB AND EQ PUSH2 0x23D0 JUMPI PUSH1 0x40 MLOAD PUSH3 0x461BCD PUSH1 0xE5 SHL DUP2 MSTORE PUSH1 0x4 ADD PUSH2 0x1ED SWAP1 PUSH2 0x5803 JUMP JUMPDEST PUSH1 0x1 PUSH1 0x1 PUSH1 0xA0 SHL SUB DUP10 AND PUSH1 0x0 SWAP1 DUP2 MSTORE PUSH1 0x85 PUSH1 0x20 SWAP1 DUP2 MSTORE PUSH1 0x40 SWAP2 DUP3 SWAP1 KECCAK256 DUP1 SLOAD DUP4 MLOAD DUP2 DUP5 MUL DUP2 ADD DUP5 ADD SWAP1 SWAP5 MSTORE DUP1 DUP5 MSTORE PUSH1 0x60 SWAP4 SWAP3 DUP4 ADD DUP3 DUP3 DUP1 ISZERO PUSH2 0x243A JUMPI PUSH1 0x20 MUL DUP3 ADD SWAP2 SWAP1 PUSH1 0x0 MSTORE PUSH1 0x20 PUSH1 0x0 KECCAK256 SWAP1 JUMPDEST DUP2 SLOAD PUSH1 0x1 PUSH1 0x1 PUSH1 0xA0 SHL SUB AND DUP2 MSTORE PUSH1 0x1 SWAP1 SWAP2 ADD SWAP1 PUSH1 0x20 ADD DUP1 DUP4 GT PUSH2 0x241C JUMPI JUMPDEST POP POP POP POP POP SWAP1 POP PUSH1 0x0 DUP1 PUSH1 0x0 PUSH32 0x0 PUSH1 0x1 PUSH1 0x1 PUSH1 0xA0 SHL SUB AND PUSH4 0xF70AEDD9 PUSH1 0x40 MLOAD DUP2 PUSH4 0xFFFFFFFF AND PUSH1 0xE0 SHL DUP2 MSTORE PUSH1 0x4 ADD PUSH1 0x80 PUSH1 0x40 MLOAD DUP1 DUP4 SUB DUP2 DUP7 DUP1 EXTCODESIZE ISZERO DUP1 ISZERO PUSH2 0x249F JUMPI PUSH1 0x0 DUP1 REVERT JUMPDEST POP GAS STATICCALL ISZERO DUP1 ISZERO PUSH2 0x24B3 JUMPI RETURNDATASIZE PUSH1 0x0 DUP1 RETURNDATACOPY RETURNDATASIZE PUSH1 0x0 REVERT JUMPDEST POP POP POP POP PUSH1 0x40 MLOAD RETURNDATASIZE PUSH1 0x1F NOT PUSH1 0x1F DUP3 ADD AND DUP3 ADD DUP1 PUSH1 0x40 MSTORE POP DUP2 ADD SWAP1 PUSH2 0x24D7 SWAP2 SWAP1 PUSH2 0x4E1A JUMP JUMPDEST SWAP2 SWAP6 POP SWAP4 POP SWAP2 POP POP DUP1 ISZERO PUSH2 0x274A JUMPI PUSH1 0x0 DUP1 PUSH32 0x0 PUSH1 0x1 PUSH1 0x1 PUSH1 0xA0 SHL SUB AND PUSH4 0xDC20C6FA DUP6 PUSH1 0x40 MLOAD DUP3 PUSH4 0xFFFFFFFF AND PUSH1 0xE0 SHL DUP2 MSTORE PUSH1 0x4 ADD PUSH2 0x2534 SWAP2 SWAP1 PUSH2 0x5900 JUMP JUMPDEST PUSH1 0x60 PUSH1 0x40 MLOAD DUP1 DUP4 SUB DUP2 DUP7 DUP1 EXTCODESIZE ISZERO DUP1 ISZERO PUSH2 0x254C JUMPI PUSH1 0x0 DUP1 REVERT JUMPDEST POP GAS STATICCALL ISZERO DUP1 ISZERO PUSH2 0x2560 JUMPI RETURNDATASIZE PUSH1 0x0 DUP1 RETURNDATACOPY RETURNDATASIZE PUSH1 0x0 REVERT JUMPDEST POP POP POP POP PUSH1 0x40 MLOAD RETURNDATASIZE PUSH1 0x1F NOT PUSH1 0x1F DUP3 ADD AND DUP3 ADD DUP1 PUSH1 0x40 MSTORE POP DUP2 ADD SWAP1 PUSH2 0x2584 SWAP2 SWAP1 PUSH2 0x530B JUMP JUMPDEST POP SWAP2 POP SWAP2 POP DUP9 DUP3 EQ DUP1 ISZERO PUSH2 0x2597 JUMPI POP DUP8 DUP2 EQ JUMPDEST PUSH2 0x25B3 JUMPI PUSH1 0x40 MLOAD PUSH3 0x461BCD PUSH1 0xE5 SHL DUP2 MSTORE PUSH1 0x4 ADD PUSH2 0x1ED SWAP1 PUSH2 0x54CF JUMP JUMPDEST PUSH32 0x0 PUSH1 0x1 PUSH1 0x1 PUSH1 0xA0 SHL SUB AND DUP6 PUSH1 0x1 PUSH1 0x1 PUSH1 0xA0 SHL SUB AND EQ PUSH2 0x2604 JUMPI PUSH1 0x40 MLOAD PUSH3 0x461BCD PUSH1 0xE5 SHL DUP2 MSTORE PUSH1 0x4 ADD PUSH2 0x1ED SWAP1 PUSH2 0x559F JUMP JUMPDEST PUSH1 0x40 MLOAD PUSH4 0xD1D6975 PUSH1 0xE3 SHL DUP2 MSTORE PUSH1 0x1 PUSH1 0x1 PUSH1 0xA0 SHL SUB PUSH32 0x0 AND SWAP1 PUSH4 0x68EB4BA8 SWAP1 PUSH2 0x2674 SWAP1 PUSH32 0x0 SWAP1 DUP9 SWAP1 DUP9 SWAP1 PUSH1 0x4 ADD PUSH2 0x540A JUMP JUMPDEST PUSH1 0x0 PUSH1 0x40 MLOAD DUP1 DUP4 SUB DUP2 PUSH1 0x0 DUP8 DUP1 EXTCODESIZE ISZERO DUP1 ISZERO PUSH2 0x268E JUMPI PUSH1 0x0 DUP1 REVERT JUMPDEST POP GAS CALL ISZERO DUP1 ISZERO PUSH2 0x26A2 JUMPI RETURNDATASIZE PUSH1 0x0 DUP1 RETURNDATACOPY RETURNDATASIZE PUSH1 0x0 REVERT JUMPDEST POP POP PUSH1 0x40 MLOAD PUSH4 0xB390C0AB PUSH1 0xE0 SHL DUP2 MSTORE PUSH1 0x1 PUSH1 0x1 PUSH1 0xA0 SHL SUB PUSH32 0x0 AND SWAP3 POP PUSH4 0xB390C0AB SWAP2 POP PUSH2 0x26F4 SWAP1 DUP8 SWAP1 DUP8 SWAP1 PUSH1 0x4 ADD PUSH2 0x595C JUMP JUMPDEST PUSH1 0x20 PUSH1 0x40 MLOAD DUP1 DUP4 SUB DUP2 PUSH1 0x0 DUP8 DUP1 EXTCODESIZE ISZERO DUP1 ISZERO PUSH2 0x270E JUMPI PUSH1 0x0 DUP1 REVERT JUMPDEST POP GAS CALL ISZERO DUP1 ISZERO PUSH2 0x2722 JUMPI RETURNDATASIZE PUSH1 0x0 DUP1 RETURNDATACOPY RETURNDATASIZE PUSH1 0x0 REVERT JUMPDEST POP POP POP POP PUSH1 0x40 MLOAD RETURNDATASIZE PUSH1 0x1F NOT PUSH1 0x1F DUP3 ADD AND DUP3 ADD DUP1 PUSH1 0x40 MSTORE POP DUP2 ADD SWAP1 PUSH2 0x2746 SWAP2 SWAP1 PUSH2 0x52D0 JUMP JUMPDEST POP POP POP JUMPDEST PUSH2 0x2755 DUP14 PUSH1 0x4 PUSH2 0xC16 JUMP JUMPDEST PUSH1 0x0 JUMPDEST PUSH1 0x4 DUP2 LT ISZERO PUSH2 0x278C JUMPI PUSH2 0x2784 DUP6 DUP3 DUP2 MLOAD DUP2 LT PUSH2 0x2770 JUMPI INVALID JUMPDEST PUSH1 0x20 MUL PUSH1 0x20 ADD ADD MLOAD DUP15 DUP4 PUSH1 0x4 DUP2 LT PUSH2 0x1222 JUMPI INVALID JUMPDEST PUSH1 0x1 ADD PUSH2 0x2758 JUMP JUMPDEST POP PUSH2 0x2797 DUP14 DUP13 PUSH2 0x47DA JUMP JUMPDEST PUSH1 0x0 JUMPDEST PUSH1 0x4 DUP2 LT ISZERO PUSH2 0x27CE JUMPI PUSH2 0x27C6 DUP6 DUP3 DUP2 MLOAD DUP2 LT PUSH2 0x27B2 JUMPI INVALID JUMPDEST PUSH1 0x20 MUL PUSH1 0x20 ADD ADD MLOAD DUP13 DUP4 PUSH1 0x4 DUP2 LT PUSH2 0x126E JUMPI INVALID JUMPDEST PUSH1 0x1 ADD PUSH2 0x279A JUMP JUMPDEST POP PUSH2 0x27D9 DUP14 DUP11 PUSH2 0x4864 JUMP JUMPDEST PUSH2 0x27E1 PUSH2 0x4BEB JUMP JUMPDEST PUSH1 0x0 JUMPDEST PUSH1 0x4 DUP2 LT ISZERO PUSH2 0x2895 JUMPI DUP6 DUP2 DUP2 MLOAD DUP2 LT PUSH2 0x27F9 JUMPI INVALID JUMPDEST PUSH1 0x20 MUL PUSH1 0x20 ADD ADD MLOAD PUSH1 0x1 PUSH1 0x1 PUSH1 0xA0 SHL SUB AND PUSH4 0x70A08231 ADDRESS PUSH1 0x40 MLOAD DUP3 PUSH4 0xFFFFFFFF AND PUSH1 0xE0 SHL DUP2 MSTORE PUSH1 0x4 ADD PUSH2 0x282C SWAP2 SWAP1 PUSH2 0x53C3 JUMP JUMPDEST PUSH1 0x20 PUSH1 0x40 MLOAD DUP1 DUP4 SUB DUP2 DUP7 DUP1 EXTCODESIZE ISZERO DUP1 ISZERO PUSH2 0x2844 JUMPI PUSH1 0x0 DUP1 REVERT JUMPDEST POP GAS STATICCALL ISZERO DUP1 ISZERO PUSH2 0x2858 JUMPI RETURNDATASIZE PUSH1 0x0 DUP1 RETURNDATACOPY RETURNDATASIZE PUSH1 0x0 REVERT JUMPDEST POP POP POP POP PUSH1 0x40 MLOAD RETURNDATASIZE PUSH1 0x1F NOT PUSH1 0x1F DUP3 ADD AND DUP3 ADD DUP1 PUSH1 0x40 MSTORE POP DUP2 ADD SWAP1 PUSH2 0x287C SWAP2 SWAP1 PUSH2 0x52D0 JUMP JUMPDEST DUP3 DUP3 PUSH1 0x4 DUP2 LT PUSH2 0x2888 JUMPI INVALID JUMPDEST PUSH1 0x20 MUL ADD MSTORE PUSH1 0x1 ADD PUSH2 0x27E4 JUMP JUMPDEST POP DUP1 MLOAD ISZERO ISZERO DUP1 PUSH2 0x28A8 JUMPI POP PUSH1 0x20 DUP2 ADD MLOAD ISZERO ISZERO JUMPDEST DUP1 PUSH2 0x28B6 JUMPI POP PUSH1 0x40 DUP2 ADD MLOAD ISZERO ISZERO JUMPDEST DUP1 PUSH2 0x28C4 JUMPI POP PUSH1 0x60 DUP2 ADD MLOAD ISZERO ISZERO JUMPDEST ISZERO PUSH2 0x2929 JUMPI PUSH1 0x40 MLOAD PUSH3 0xA6CBCD PUSH1 0xE2 SHL DUP2 MSTORE PUSH1 0x1 PUSH1 0x1 PUSH1 0xA0 SHL SUB DUP8 AND SWAP1 PUSH4 0x29B2F34 SWAP1 PUSH2 0x28F6 SWAP1 DUP5 SWAP1 DUP14 SWAP1 PUSH1 0x4 ADD PUSH2 0x5461 JUMP JUMPDEST PUSH1 0x0 PUSH1 0x40 MLOAD DUP1 DUP4 SUB DUP2 PUSH1 0x0 DUP8 DUP1 EXTCODESIZE ISZERO DUP1 ISZERO PUSH2 0x2910 JUMPI PUSH1 0x0 DUP1 REVERT JUMPDEST POP GAS CALL ISZERO DUP1 ISZERO PUSH2 0x2924 JUMPI RETURNDATASIZE PUSH1 0x0 DUP1 RETURNDATACOPY RETURNDATASIZE PUSH1 0x0 REVERT JUMPDEST POP POP POP POP JUMPDEST PUSH2 0x2953 DUP15 PUSH32 0x0 PUSH2 0x4636 JUMP JUMPDEST PUSH1 0x0 DUP15 PUSH1 0x1 PUSH1 0x1 PUSH1 0xA0 SHL SUB AND PUSH4 0x70A08231 ADDRESS PUSH1 0x40 MLOAD DUP3 PUSH4 0xFFFFFFFF AND PUSH1 0xE0 SHL DUP2 MSTORE PUSH1 0x4 ADD PUSH2 0x2981 SWAP2 SWAP1 PUSH2 0x53C3 JUMP JUMPDEST PUSH1 0x20 PUSH1 0x40 MLOAD DUP1 DUP4 SUB DUP2 DUP7 DUP1 EXTCODESIZE ISZERO DUP1 ISZERO PUSH2 0x2999 JUMPI PUSH1 0x0 DUP1 REVERT JUMPDEST POP GAS STATICCALL ISZERO DUP1 ISZERO PUSH2 0x29AD JUMPI RETURNDATASIZE PUSH1 0x0 DUP1 RETURNDATACOPY RETURNDATASIZE PUSH1 0x0 REVERT JUMPDEST POP POP POP POP PUSH1 0x40 MLOAD RETURNDATASIZE PUSH1 0x1F NOT PUSH1 0x1F DUP3 ADD AND DUP3 ADD DUP1 PUSH1 0x40 MSTORE POP DUP2 ADD SWAP1 PUSH2 0x29D1 SWAP2 SWAP1 PUSH2 0x52D0 JUMP JUMPDEST SWAP1 POP PUSH1 0x0 PUSH32 0x0 PUSH1 0x1 PUSH1 0x1 PUSH1 0xA0 SHL SUB AND PUSH4 0x2ACC94B DUP12 DUP12 DUP6 PUSH1 0x40 MLOAD DUP5 PUSH4 0xFFFFFFFF AND PUSH1 0xE0 SHL DUP2 MSTORE PUSH1 0x4 ADD PUSH2 0x2A25 SWAP4 SWAP3 SWAP2 SWAP1 PUSH2 0x596A JUMP JUMPDEST PUSH1 0x20 PUSH1 0x40 MLOAD DUP1 DUP4 SUB DUP2 PUSH1 0x0 DUP8 DUP1 EXTCODESIZE ISZERO DUP1 ISZERO PUSH2 0x2A3F JUMPI PUSH1 0x0 DUP1 REVERT JUMPDEST POP GAS CALL ISZERO DUP1 ISZERO PUSH2 0x2A53 JUMPI RETURNDATASIZE PUSH1 0x0 DUP1 RETURNDATACOPY RETURNDATASIZE PUSH1 0x0 REVERT JUMPDEST POP POP POP POP PUSH1 0x40 MLOAD RETURNDATASIZE PUSH1 0x1F NOT PUSH1 0x1F DUP3 ADD AND DUP3 ADD DUP1 PUSH1 0x40 MSTORE POP DUP2 ADD SWAP1 PUSH2 0x2A77 SWAP2 SWAP1 PUSH2 0x52D0 JUMP JUMPDEST PUSH1 0x40 MLOAD PUSH4 0x314568D9 PUSH1 0xE0 SHL DUP2 MSTORE SWAP1 SWAP2 POP PUSH1 0x1 PUSH1 0x1 PUSH1 0xA0 SHL SUB PUSH32 0x0 AND SWAP1 PUSH4 0x314568D9 SWAP1 PUSH2 0x2AEA SWAP1 PUSH32 0x0 SWAP1 DUP6 SWAP1 DUP8 SWAP1 PUSH1 0x4 ADD PUSH2 0x540A JUMP JUMPDEST PUSH1 0x0 PUSH1 0x40 MLOAD DUP1 DUP4 SUB DUP2 PUSH1 0x0 DUP8 DUP1 EXTCODESIZE ISZERO DUP1 ISZERO PUSH2 0x2B04 JUMPI PUSH1 0x0 DUP1 REVERT JUMPDEST POP GAS CALL ISZERO DUP1 ISZERO PUSH2 0x2B18 JUMPI RETURNDATASIZE PUSH1 0x0 DUP1 RETURNDATACOPY RETURNDATASIZE PUSH1 0x0 REVERT JUMPDEST POP POP POP POP POP POP PUSH1 0x0 JUMPDEST PUSH1 0x4 DUP2 LT ISZERO PUSH2 0x15E5 JUMPI PUSH2 0x2B39 DUP7 DUP3 DUP2 MLOAD DUP2 LT PUSH2 0x15D0 JUMPI INVALID JUMPDEST PUSH1 0x1 ADD PUSH2 0x2B21 JUMP JUMPDEST PUSH1 0x1 PUSH1 0x1 PUSH1 0xA0 SHL SUB DUP7 AND PUSH1 0x0 SWAP1 DUP2 MSTORE PUSH1 0x84 PUSH1 0x20 MSTORE PUSH1 0x40 SWAP1 KECCAK256 SLOAD PUSH1 0xFF AND PUSH2 0x2B79 JUMPI PUSH1 0x40 MLOAD PUSH3 0x461BCD PUSH1 0xE5 SHL DUP2 MSTORE PUSH1 0x4 ADD PUSH2 0x1ED SWAP1 PUSH2 0x56F4 JUMP JUMPDEST PUSH1 0x0 PUSH2 0x2B84 DUP8 PUSH2 0x1654 JUMP JUMPDEST SWAP1 POP PUSH1 0x0 PUSH32 0x0 PUSH1 0x1 PUSH1 0x1 PUSH1 0xA0 SHL SUB AND PUSH4 0xD7AC71FF PUSH1 0x40 MLOAD DUP2 PUSH4 0xFFFFFFFF AND PUSH1 0xE0 SHL DUP2 MSTORE PUSH1 0x4 ADD PUSH1 0x20 PUSH1 0x40 MLOAD DUP1 DUP4 SUB DUP2 DUP7 DUP1 EXTCODESIZE ISZERO DUP1 ISZERO PUSH2 0x2BE1 JUMPI PUSH1 0x0 DUP1 REVERT JUMPDEST POP GAS STATICCALL ISZERO DUP1 ISZERO PUSH2 0x2BF5 JUMPI RETURNDATASIZE PUSH1 0x0 DUP1 RETURNDATACOPY RETURNDATASIZE PUSH1 0x0 REVERT JUMPDEST POP POP POP POP PUSH1 0x40 MLOAD RETURNDATASIZE PUSH1 0x1F NOT PUSH1 0x1F DUP3 ADD AND DUP3 ADD DUP1 PUSH1 0x40 MSTORE POP DUP2 ADD SWAP1 PUSH2 0x2C19 SWAP2 SWAP1 PUSH2 0x52D0 JUMP JUMPDEST SWAP1 POP PUSH1 0x0 DUP1 PUSH32 0x0 PUSH1 0x1 PUSH1 0x1 PUSH1 0xA0 SHL SUB AND PUSH4 0x519F5099 DUP5 PUSH1 0x40 MLOAD DUP3 PUSH4 0xFFFFFFFF AND PUSH1 0xE0 SHL DUP2 MSTORE PUSH1 0x4 ADD PUSH2 0x2C6A SWAP2 SWAP1 PUSH2 0x5900 JUMP JUMPDEST PUSH1 0x80 PUSH1 0x40 MLOAD DUP1 DUP4 SUB DUP2 DUP7 DUP1 EXTCODESIZE ISZERO DUP1 ISZERO PUSH2 0x2C82 JUMPI PUSH1 0x0 DUP1 REVERT JUMPDEST POP GAS STATICCALL ISZERO DUP1 ISZERO PUSH2 0x2C96 JUMPI RETURNDATASIZE PUSH1 0x0 DUP1 RETURNDATACOPY RETURNDATASIZE PUSH1 0x0 REVERT JUMPDEST POP POP POP POP PUSH1 0x40 MLOAD RETURNDATASIZE PUSH1 0x1F NOT PUSH1 0x1F DUP3 ADD AND DUP3 ADD DUP1 PUSH1 0x40 MSTORE POP DUP2 ADD SWAP1 PUSH2 0x2CBA SWAP2 SWAP1 PUSH2 0x4E1A JUMP JUMPDEST POP SWAP3 POP SWAP3 POP POP DUP10 PUSH1 0x1 PUSH1 0x1 PUSH1 0xA0 SHL SUB AND DUP3 PUSH1 0x1 PUSH1 0x1 PUSH1 0xA0 SHL SUB AND PUSH4 0xA4775772 DUP4 PUSH1 0x40 MLOAD DUP3 PUSH4 0xFFFFFFFF AND PUSH1 0xE0 SHL DUP2 MSTORE PUSH1 0x4 ADD PUSH2 0x2CF6 SWAP2 SWAP1 PUSH2 0x5900 JUMP JUMPDEST PUSH1 0x20 PUSH1 0x40 MLOAD DUP1 DUP4 SUB DUP2 DUP7 DUP1 EXTCODESIZE ISZERO DUP1 ISZERO PUSH2 0x2D0E JUMPI PUSH1 0x0 DUP1 REVERT JUMPDEST POP GAS STATICCALL ISZERO DUP1 ISZERO PUSH2 0x2D22 JUMPI RETURNDATASIZE PUSH1 0x0 DUP1 RETURNDATACOPY RETURNDATASIZE PUSH1 0x0 REVERT JUMPDEST POP POP POP POP PUSH1 0x40 MLOAD RETURNDATASIZE PUSH1 0x1F NOT PUSH1 0x1F DUP3 ADD AND DUP3 ADD DUP1 PUSH1 0x40 MSTORE POP DUP2 ADD SWAP1 PUSH2 0x2D46 SWAP2 SWAP1 PUSH2 0x4D0B JUMP JUMPDEST PUSH1 0x1 PUSH1 0x1 PUSH1 0xA0 SHL SUB AND EQ PUSH2 0x2D6C JUMPI PUSH1 0x40 MLOAD PUSH3 0x461BCD PUSH1 0xE5 SHL DUP2 MSTORE PUSH1 0x4 ADD PUSH2 0x1ED SWAP1 PUSH2 0x5803 JUMP JUMPDEST PUSH32 0x0 PUSH1 0x1 PUSH1 0x1 PUSH1 0xA0 SHL SUB AND DUP3 PUSH1 0x1 PUSH1 0x1 PUSH1 0xA0 SHL SUB AND EQ PUSH2 0x2DBD JUMPI PUSH1 0x40 MLOAD PUSH3 0x461BCD PUSH1 0xE5 SHL DUP2 MSTORE PUSH1 0x4 ADD PUSH2 0x1ED SWAP1 PUSH2 0x559F JUMP JUMPDEST PUSH1 0x1 PUSH1 0x1 PUSH1 0xA0 SHL SUB DUP11 AND PUSH1 0x0 SWAP1 DUP2 MSTORE PUSH1 0x85 PUSH1 0x20 SWAP1 DUP2 MSTORE PUSH1 0x40 SWAP2 DUP3 SWAP1 KECCAK256 DUP1 SLOAD DUP4 MLOAD DUP2 DUP5 MUL DUP2 ADD DUP5 ADD SWAP1 SWAP5 MSTORE DUP1 DUP5 MSTORE PUSH1 0x60 SWAP4 SWAP3 DUP4 ADD DUP3 DUP3 DUP1 ISZERO PUSH2 0x2E27 JUMPI PUSH1 0x20 MUL DUP3 ADD SWAP2 SWAP1 PUSH1 0x0 MSTORE PUSH1 0x20 PUSH1 0x0 KECCAK256 SWAP1 JUMPDEST DUP2 SLOAD PUSH1 0x1 PUSH1 0x1 PUSH1 0xA0 SHL SUB AND DUP2 MSTORE PUSH1 0x1 SWAP1 SWAP2 ADD SWAP1 PUSH1 0x20 ADD DUP1 DUP4 GT PUSH2 0x2E09 JUMPI JUMPDEST POP POP POP POP POP SWAP1 POP PUSH2 0x2E39 DUP12 PUSH1 0x3 PUSH2 0xC16 JUMP JUMPDEST PUSH2 0x2E41 PUSH2 0x4BCD JUMP JUMPDEST PUSH1 0x0 JUMPDEST PUSH1 0x3 DUP2 LT ISZERO PUSH2 0x2F48 JUMPI PUSH1 0x0 NOT DUP11 DUP3 PUSH1 0x3 DUP2 LT PUSH2 0x2E5C JUMPI INVALID JUMPDEST PUSH1 0x20 MUL ADD CALLDATALOAD EQ PUSH2 0x2E7C JUMPI DUP10 DUP2 PUSH1 0x3 DUP2 LT PUSH2 0x2E72 JUMPI INVALID JUMPDEST PUSH1 0x20 MUL ADD CALLDATALOAD PUSH2 0x2F2F JUMP JUMPDEST PUSH32 0x0 PUSH1 0x1 PUSH1 0x1 PUSH1 0xA0 SHL SUB AND PUSH4 0x82A2FB9C DUP8 DUP6 DUP5 DUP2 MLOAD DUP2 LT PUSH2 0x2EB8 JUMPI INVALID JUMPDEST PUSH1 0x20 MUL PUSH1 0x20 ADD ADD MLOAD PUSH1 0x40 MLOAD DUP4 PUSH4 0xFFFFFFFF AND PUSH1 0xE0 SHL DUP2 MSTORE PUSH1 0x4 ADD PUSH2 0x2EDD SWAP3 SWAP2 SWAP1 PUSH2 0x5909 JUMP JUMPDEST PUSH1 0x20 PUSH1 0x40 MLOAD DUP1 DUP4 SUB DUP2 PUSH1 0x0 DUP8 DUP1 EXTCODESIZE ISZERO DUP1 ISZERO PUSH2 0x2EF7 JUMPI PUSH1 0x0 DUP1 REVERT JUMPDEST POP GAS CALL ISZERO DUP1 ISZERO PUSH2 0x2F0B JUMPI RETURNDATASIZE PUSH1 0x0 DUP1 RETURNDATACOPY RETURNDATASIZE PUSH1 0x0 REVERT JUMPDEST POP POP POP POP PUSH1 0x40 MLOAD RETURNDATASIZE PUSH1 0x1F NOT PUSH1 0x1F DUP3 ADD AND DUP3 ADD DUP1 PUSH1 0x40 MSTORE POP DUP2 ADD SWAP1 PUSH2 0x2F2F SWAP2 SWAP1 PUSH2 0x52D0 JUMP JUMPDEST DUP3 DUP3 PUSH1 0x3 DUP2 LT PUSH2 0x2F3B JUMPI INVALID JUMPDEST PUSH1 0x20 MUL ADD MSTORE PUSH1 0x1 ADD PUSH2 0x2E44 JUMP JUMPDEST POP PUSH2 0x2F51 PUSH2 0x4BCD JUMP JUMPDEST PUSH1 0x0 JUMPDEST PUSH1 0x3 DUP2 LT ISZERO PUSH2 0x2FA1 JUMPI PUSH2 0x2F88 DUP10 DUP3 PUSH1 0x3 DUP2 LT PUSH2 0x2F6C JUMPI INVALID JUMPDEST PUSH1 0x20 MUL ADD CALLDATALOAD DUP5 DUP4 PUSH1 0x3 DUP2 LT PUSH2 0x2F7D JUMPI INVALID JUMPDEST PUSH1 0x20 MUL ADD MLOAD SWAP1 PUSH2 0x48B8 JUMP JUMPDEST DUP3 DUP3 PUSH1 0x3 DUP2 LT PUSH2 0x2F94 JUMPI INVALID JUMPDEST PUSH1 0x20 MUL ADD MSTORE PUSH1 0x1 ADD PUSH2 0x2F54 JUMP JUMPDEST POP PUSH32 0x0 PUSH1 0x1 PUSH1 0x1 PUSH1 0xA0 SHL SUB AND PUSH4 0x68EB4BA8 PUSH32 0x0 DUP7 DUP16 PUSH1 0x40 MLOAD DUP5 PUSH4 0xFFFFFFFF AND PUSH1 0xE0 SHL DUP2 MSTORE PUSH1 0x4 ADD PUSH2 0x3012 SWAP4 SWAP3 SWAP2 SWAP1 PUSH2 0x540A JUMP JUMPDEST PUSH1 0x0 PUSH1 0x40 MLOAD DUP1 DUP4 SUB DUP2 PUSH1 0x0 DUP8 DUP1 EXTCODESIZE ISZERO DUP1 ISZERO PUSH2 0x302C JUMPI PUSH1 0x0 DUP1 REVERT JUMPDEST POP GAS CALL ISZERO DUP1 ISZERO PUSH2 0x3040 JUMPI RETURNDATASIZE PUSH1 0x0 DUP1 RETURNDATACOPY RETURNDATASIZE PUSH1 0x0 REVERT JUMPDEST POP POP POP POP PUSH32 0x0 PUSH1 0x1 PUSH1 0x1 PUSH1 0xA0 SHL SUB AND PUSH4 0xB390C0AB DUP6 DUP15 PUSH1 0x40 MLOAD DUP4 PUSH4 0xFFFFFFFF AND PUSH1 0xE0 SHL DUP2 MSTORE PUSH1 0x4 ADD PUSH2 0x3092 SWAP3 SWAP2 SWAP1 PUSH2 0x595C JUMP JUMPDEST PUSH1 0x20 PUSH1 0x40 MLOAD DUP1 DUP4 SUB DUP2 PUSH1 0x0 DUP8 DUP1 EXTCODESIZE ISZERO DUP1 ISZERO PUSH2 0x30AC JUMPI PUSH1 0x0 DUP1 REVERT JUMPDEST POP GAS CALL ISZERO DUP1 ISZERO PUSH2 0x30C0 JUMPI RETURNDATASIZE PUSH1 0x0 DUP1 RETURNDATACOPY RETURNDATASIZE PUSH1 0x0 REVERT JUMPDEST POP POP POP POP PUSH1 0x40 MLOAD RETURNDATASIZE PUSH1 0x1F NOT PUSH1 0x1F DUP3 ADD AND DUP3 ADD DUP1 PUSH1 0x40 MSTORE POP DUP2 ADD SWAP1 PUSH2 0x30E4 SWAP2 SWAP1 PUSH2 0x52D0 JUMP JUMPDEST POP DUP1 MLOAD PUSH1 0x0 SWAP1 ISZERO ISZERO DUP1 PUSH2 0x30FA JUMPI POP PUSH1 0x20 DUP3 ADD MLOAD ISZERO ISZERO JUMPDEST DUP1 PUSH2 0x3108 JUMPI POP PUSH1 0x40 DUP3 ADD MLOAD ISZERO ISZERO JUMPDEST ISZERO PUSH2 0x31F7 JUMPI PUSH2 0x3193 DUP13 DUP16 PUSH1 0x1 PUSH1 0x1 PUSH1 0xA0 SHL SUB AND PUSH4 0x70A08231 ADDRESS PUSH1 0x40 MLOAD DUP3 PUSH4 0xFFFFFFFF AND PUSH1 0xE0 SHL DUP2 MSTORE PUSH1 0x4 ADD PUSH2 0x313D SWAP2 SWAP1 PUSH2 0x53C3 JUMP JUMPDEST PUSH1 0x20 PUSH1 0x40 MLOAD DUP1 DUP4 SUB DUP2 DUP7 DUP1 EXTCODESIZE ISZERO DUP1 ISZERO PUSH2 0x3155 JUMPI PUSH1 0x0 DUP1 REVERT JUMPDEST POP GAS STATICCALL ISZERO DUP1 ISZERO PUSH2 0x3169 JUMPI RETURNDATASIZE PUSH1 0x0 DUP1 RETURNDATACOPY RETURNDATASIZE PUSH1 0x0 REVERT JUMPDEST POP POP POP POP PUSH1 0x40 MLOAD RETURNDATASIZE PUSH1 0x1F NOT PUSH1 0x1F DUP3 ADD AND DUP3 ADD DUP1 PUSH1 0x40 MSTORE POP DUP2 ADD SWAP1 PUSH2 0x318D SWAP2 SWAP1 PUSH2 0x52D0 JUMP JUMPDEST SWAP1 PUSH2 0x48DD JUMP JUMPDEST PUSH1 0x40 MLOAD PUSH4 0x27F6BA83 PUSH1 0xE2 SHL DUP2 MSTORE SWAP1 SWAP2 POP PUSH1 0x1 PUSH1 0x1 PUSH1 0xA0 SHL SUB DUP10 AND SWAP1 PUSH4 0x9FDAEA0C SWAP1 PUSH2 0x31C4 SWAP1 DUP6 SWAP1 DUP6 SWAP1 PUSH1 0x4 ADD PUSH2 0x5446 JUMP JUMPDEST PUSH1 0x0 PUSH1 0x40 MLOAD DUP1 DUP4 SUB DUP2 PUSH1 0x0 DUP8 DUP1 EXTCODESIZE ISZERO DUP1 ISZERO PUSH2 0x31DE JUMPI PUSH1 0x0 DUP1 REVERT JUMPDEST POP GAS CALL ISZERO DUP1 ISZERO PUSH2 0x31F2 JUMPI RETURNDATASIZE PUSH1 0x0 DUP1 RETURNDATACOPY RETURNDATASIZE PUSH1 0x0 REVERT JUMPDEST POP POP POP POP JUMPDEST PUSH2 0x3227 DUP13 DUP16 PUSH1 0x1 PUSH1 0x1 PUSH1 0xA0 SHL SUB AND PUSH4 0x70A08231 ADDRESS PUSH1 0x40 MLOAD DUP3 PUSH4 0xFFFFFFFF AND PUSH1 0xE0 SHL DUP2 MSTORE PUSH1 0x4 ADD PUSH2 0x313D SWAP2 SWAP1 PUSH2 0x53C3 JUMP JUMPDEST SWAP1 POP DUP1 ISZERO PUSH2 0x3299 JUMPI PUSH2 0x3237 PUSH2 0x4BCD JUMP JUMPDEST PUSH1 0x40 MLOAD PUSH4 0xECB586A5 PUSH1 0xE0 SHL DUP2 MSTORE PUSH1 0x1 PUSH1 0x1 PUSH1 0xA0 SHL SUB DUP11 AND SWAP1 PUSH4 0xECB586A5 SWAP1 PUSH2 0x3265 SWAP1 DUP6 SWAP1 DUP6 SWAP1 PUSH1 0x4 ADD PUSH2 0x5934 JUMP JUMPDEST PUSH1 0x0 PUSH1 0x40 MLOAD DUP1 DUP4 SUB DUP2 PUSH1 0x0 DUP8 DUP1 EXTCODESIZE ISZERO DUP1 ISZERO PUSH2 0x327F JUMPI PUSH1 0x0 DUP1 REVERT JUMPDEST POP GAS CALL ISZERO DUP1 ISZERO PUSH2 0x3293 JUMPI RETURNDATASIZE PUSH1 0x0 DUP1 RETURNDATACOPY RETURNDATASIZE PUSH1 0x0 REVERT JUMPDEST POP POP POP POP POP JUMPDEST PUSH1 0x0 JUMPDEST PUSH1 0x3 DUP2 LT ISZERO PUSH2 0x32DA JUMPI PUSH2 0x32D2 DUP6 DUP3 DUP2 MLOAD DUP2 LT PUSH2 0x32B4 JUMPI INVALID JUMPDEST PUSH1 0x20 MUL PUSH1 0x20 ADD ADD MLOAD DUP6 DUP4 PUSH1 0x3 DUP2 LT PUSH2 0x32C8 JUMPI INVALID JUMPDEST PUSH1 0x20 MUL ADD MLOAD PUSH2 0x4905 JUMP JUMPDEST PUSH1 0x1 ADD PUSH2 0x329C JUMP JUMPDEST POP PUSH2 0x32E5 DUP15 DUP12 PUSH2 0x4905 JUMP JUMPDEST PUSH1 0x0 JUMPDEST PUSH1 0x3 DUP2 LT ISZERO PUSH2 0x3308 JUMPI PUSH2 0x3300 DUP6 DUP3 DUP2 MLOAD DUP2 LT PUSH2 0x15D0 JUMPI INVALID JUMPDEST PUSH1 0x1 ADD PUSH2 0x32E8 JUMP JUMPDEST POP PUSH2 0x3312 DUP15 PUSH2 0x46AE JUMP JUMPDEST PUSH2 0x160F PUSH32 0x0 PUSH2 0x46AE JUMP JUMPDEST PUSH1 0x43 SLOAD PUSH1 0x1 PUSH1 0x1 PUSH1 0xA0 SHL SUB AND DUP2 JUMP JUMPDEST PUSH1 0x43 SLOAD PUSH1 0x1 PUSH1 0x1 PUSH1 0xA0 SHL SUB AND CALLER EQ PUSH2 0x3374 JUMPI PUSH1 0x40 MLOAD PUSH3 0x461BCD PUSH1 0xE5 SHL DUP2 MSTORE PUSH1 0x4 ADD PUSH2 0x1ED SWAP1 PUSH2 0x54FA JUMP JUMPDEST PUSH1 0x43 DUP1 SLOAD PUSH1 0x1 PUSH1 0x1 PUSH1 0xA0 SHL SUB NOT AND SWAP1 SSTORE PUSH1 0x42 DUP1 SLOAD PUSH3 0x10000 PUSH1 0x1 PUSH1 0xB0 SHL SUB NOT AND CALLER PUSH3 0x10000 DUP2 MUL SWAP2 SWAP1 SWAP2 OR SWAP1 SWAP2 SSTORE PUSH1 0x40 MLOAD PUSH32 0xD345D81CE68C70B119A17EEE79DC1421700BD9CB21CA148A62DC90983964E82F SWAP2 PUSH2 0x33D0 SWAP2 PUSH2 0x53C3 JUMP JUMPDEST PUSH1 0x40 MLOAD DUP1 SWAP2 SUB SWAP1 LOG1 JUMP JUMPDEST PUSH1 0x1 PUSH1 0x1 PUSH1 0xA0 SHL SUB DUP7 AND PUSH1 0x0 SWAP1 DUP2 MSTORE PUSH1 0x84 PUSH1 0x20 MSTORE PUSH1 0x40 SWAP1 KECCAK256 SLOAD PUSH1 0xFF AND PUSH2 0x3412 JUMPI PUSH1 0x40 MLOAD PUSH3 0x461BCD PUSH1 0xE5 SHL DUP2 MSTORE PUSH1 0x4 ADD PUSH2 0x1ED SWAP1 PUSH2 0x56F4 JUMP JUMPDEST PUSH1 0x0 PUSH2 0x341D DUP8 PUSH2 0x1654 JUMP JUMPDEST SWAP1 POP PUSH1 0x0 PUSH32 0x0 PUSH1 0x1 PUSH1 0x1 PUSH1 0xA0 SHL SUB AND PUSH4 0xD7AC71FF PUSH1 0x40 MLOAD DUP2 PUSH4 0xFFFFFFFF AND PUSH1 0xE0 SHL DUP2 MSTORE PUSH1 0x4 ADD PUSH1 0x20 PUSH1 0x40 MLOAD DUP1 DUP4 SUB DUP2 DUP7 DUP1 EXTCODESIZE ISZERO DUP1 ISZERO PUSH2 0x347A JUMPI PUSH1 0x0 DUP1 REVERT JUMPDEST POP GAS STATICCALL ISZERO DUP1 ISZERO PUSH2 0x348E JUMPI RETURNDATASIZE PUSH1 0x0 DUP1 RETURNDATACOPY RETURNDATASIZE PUSH1 0x0 REVERT JUMPDEST POP POP POP POP PUSH1 0x40 MLOAD RETURNDATASIZE PUSH1 0x1F NOT PUSH1 0x1F DUP3 ADD AND DUP3 ADD DUP1 PUSH1 0x40 MSTORE POP DUP2 ADD SWAP1 PUSH2 0x34B2 SWAP2 SWAP1 PUSH2 0x52D0 JUMP JUMPDEST SWAP1 POP PUSH1 0x0 DUP1 PUSH32 0x0 PUSH1 0x1 PUSH1 0x1 PUSH1 0xA0 SHL SUB AND PUSH4 0x519F5099 DUP5 PUSH1 0x40 MLOAD DUP3 PUSH4 0xFFFFFFFF AND PUSH1 0xE0 SHL DUP2 MSTORE PUSH1 0x4 ADD PUSH2 0x3503 SWAP2 SWAP1 PUSH2 0x5900 JUMP JUMPDEST PUSH1 0x80 PUSH1 0x40 MLOAD DUP1 DUP4 SUB DUP2 DUP7 DUP1 EXTCODESIZE ISZERO DUP1 ISZERO PUSH2 0x351B JUMPI PUSH1 0x0 DUP1 REVERT JUMPDEST POP GAS STATICCALL ISZERO DUP1 ISZERO PUSH2 0x352F JUMPI RETURNDATASIZE PUSH1 0x0 DUP1 RETURNDATACOPY RETURNDATASIZE PUSH1 0x0 REVERT JUMPDEST POP POP POP POP PUSH1 0x40 MLOAD RETURNDATASIZE PUSH1 0x1F NOT PUSH1 0x1F DUP3 ADD AND DUP3 ADD DUP1 PUSH1 0x40 MSTORE POP DUP2 ADD SWAP1 PUSH2 0x3553 SWAP2 SWAP1 PUSH2 0x4E1A JUMP JUMPDEST POP SWAP3 POP SWAP3 POP POP DUP10 PUSH1 0x1 PUSH1 0x1 PUSH1 0xA0 SHL SUB AND DUP3 PUSH1 0x1 PUSH1 0x1 PUSH1 0xA0 SHL SUB AND PUSH4 0xA4775772 DUP4 PUSH1 0x40 MLOAD DUP3 PUSH4 0xFFFFFFFF AND PUSH1 0xE0 SHL DUP2 MSTORE PUSH1 0x4 ADD PUSH2 0x358F SWAP2 SWAP1 PUSH2 0x5900 JUMP JUMPDEST PUSH1 0x20 PUSH1 0x40 MLOAD DUP1 DUP4 SUB DUP2 DUP7 DUP1 EXTCODESIZE ISZERO DUP1 ISZERO PUSH2 0x35A7 JUMPI PUSH1 0x0 DUP1 REVERT JUMPDEST POP GAS STATICCALL ISZERO DUP1 ISZERO PUSH2 0x35BB JUMPI RETURNDATASIZE PUSH1 0x0 DUP1 RETURNDATACOPY RETURNDATASIZE PUSH1 0x0 REVERT JUMPDEST POP POP POP POP PUSH1 0x40 MLOAD RETURNDATASIZE PUSH1 0x1F NOT PUSH1 0x1F DUP3 ADD AND DUP3 ADD DUP1 PUSH1 0x40 MSTORE POP DUP2 ADD SWAP1 PUSH2 0x35DF SWAP2 SWAP1 PUSH2 0x4D0B JUMP JUMPDEST PUSH1 0x1 PUSH1 0x1 PUSH1 0xA0 SHL SUB AND EQ PUSH2 0x3605 JUMPI PUSH1 0x40 MLOAD PUSH3 0x461BCD PUSH1 0xE5 SHL DUP2 MSTORE PUSH1 0x4 ADD PUSH2 0x1ED SWAP1 PUSH2 0x5803 JUMP JUMPDEST PUSH32 0x0 PUSH1 0x1 PUSH1 0x1 PUSH1 0xA0 SHL SUB AND DUP3 PUSH1 0x1 PUSH1 0x1 PUSH1 0xA0 SHL SUB AND EQ PUSH2 0x3656 JUMPI PUSH1 0x40 MLOAD PUSH3 0x461BCD PUSH1 0xE5 SHL DUP2 MSTORE PUSH1 0x4 ADD PUSH2 0x1ED SWAP1 PUSH2 0x559F JUMP JUMPDEST PUSH1 0x1 PUSH1 0x1 PUSH1 0xA0 SHL SUB DUP11 AND PUSH1 0x0 SWAP1 DUP2 MSTORE PUSH1 0x85 PUSH1 0x20 SWAP1 DUP2 MSTORE PUSH1 0x40 SWAP2 DUP3 SWAP1 KECCAK256 DUP1 SLOAD DUP4 MLOAD DUP2 DUP5 MUL DUP2 ADD DUP5 ADD SWAP1 SWAP5 MSTORE DUP1 DUP5 MSTORE PUSH1 0x60 SWAP4 SWAP3 DUP4 ADD DUP3 DUP3 DUP1 ISZERO PUSH2 0x36C0 JUMPI PUSH1 0x20 MUL DUP3 ADD SWAP2 SWAP1 PUSH1 0x0 MSTORE PUSH1 0x20 PUSH1 0x0 KECCAK256 SWAP1 JUMPDEST DUP2 SLOAD PUSH1 0x1 PUSH1 0x1 PUSH1 0xA0 SHL SUB AND DUP2 MSTORE PUSH1 0x1 SWAP1 SWAP2 ADD SWAP1 PUSH1 0x20 ADD DUP1 DUP4 GT PUSH2 0x36A2 JUMPI JUMPDEST POP POP POP POP POP SWAP1 POP PUSH2 0x36D2 DUP12 PUSH1 0x4 PUSH2 0xC16 JUMP JUMPDEST PUSH2 0x36DA PUSH2 0x4BEB JUMP JUMPDEST PUSH1 0x0 JUMPDEST PUSH1 0x4 DUP2 LT ISZERO PUSH2 0x37E1 JUMPI PUSH1 0x0 NOT DUP11 DUP3 PUSH1 0x4 DUP2 LT PUSH2 0x36F5 JUMPI INVALID JUMPDEST PUSH1 0x20 MUL ADD CALLDATALOAD EQ PUSH2 0x3715 JUMPI DUP10 DUP2 PUSH1 0x4 DUP2 LT PUSH2 0x370B JUMPI INVALID JUMPDEST PUSH1 0x20 MUL ADD CALLDATALOAD PUSH2 0x37C8 JUMP JUMPDEST PUSH32 0x0 PUSH1 0x1 PUSH1 0x1 PUSH1 0xA0 SHL SUB AND PUSH4 0x82A2FB9C DUP8 DUP6 DUP5 DUP2 MLOAD DUP2 LT PUSH2 0x3751 JUMPI INVALID JUMPDEST PUSH1 0x20 MUL PUSH1 0x20 ADD ADD MLOAD PUSH1 0x40 MLOAD DUP4 PUSH4 0xFFFFFFFF AND PUSH1 0xE0 SHL DUP2 MSTORE PUSH1 0x4 ADD PUSH2 0x3776 SWAP3 SWAP2 SWAP1 PUSH2 0x5909 JUMP JUMPDEST PUSH1 0x20 PUSH1 0x40 MLOAD DUP1 DUP4 SUB DUP2 PUSH1 0x0 DUP8 DUP1 EXTCODESIZE ISZERO DUP1 ISZERO PUSH2 0x3790 JUMPI PUSH1 0x0 DUP1 REVERT JUMPDEST POP GAS CALL ISZERO DUP1 ISZERO PUSH2 0x37A4 JUMPI RETURNDATASIZE PUSH1 0x0 DUP1 RETURNDATACOPY RETURNDATASIZE PUSH1 0x0 REVERT JUMPDEST POP POP POP POP PUSH1 0x40 MLOAD RETURNDATASIZE PUSH1 0x1F NOT PUSH1 0x1F DUP3 ADD AND DUP3 ADD DUP1 PUSH1 0x40 MSTORE POP DUP2 ADD SWAP1 PUSH2 0x37C8 SWAP2 SWAP1 PUSH2 0x52D0 JUMP JUMPDEST DUP3 DUP3 PUSH1 0x4 DUP2 LT PUSH2 0x37D4 JUMPI INVALID JUMPDEST PUSH1 0x20 MUL ADD MSTORE PUSH1 0x1 ADD PUSH2 0x36DD JUMP JUMPDEST POP PUSH2 0x37EA PUSH2 0x4BEB JUMP JUMPDEST PUSH1 0x0 JUMPDEST PUSH1 0x4 DUP2 LT ISZERO PUSH2 0x382F JUMPI PUSH2 0x3816 DUP10 DUP3 PUSH1 0x4 DUP2 LT PUSH2 0x3805 JUMPI INVALID JUMPDEST PUSH1 0x20 MUL ADD CALLDATALOAD DUP5 DUP4 PUSH1 0x4 DUP2 LT PUSH2 0x2F7D JUMPI INVALID JUMPDEST DUP3 DUP3 PUSH1 0x4 DUP2 LT PUSH2 0x3822 JUMPI INVALID JUMPDEST PUSH1 0x20 MUL ADD MSTORE PUSH1 0x1 ADD PUSH2 0x37ED JUMP JUMPDEST POP PUSH32 0x0 PUSH1 0x1 PUSH1 0x1 PUSH1 0xA0 SHL SUB AND PUSH4 0x68EB4BA8 PUSH32 0x0 DUP7 DUP16 PUSH1 0x40 MLOAD DUP5 PUSH4 0xFFFFFFFF AND PUSH1 0xE0 SHL DUP2 MSTORE PUSH1 0x4 ADD PUSH2 0x38A0 SWAP4 SWAP3 SWAP2 SWAP1 PUSH2 0x540A JUMP JUMPDEST PUSH1 0x0 PUSH1 0x40 MLOAD DUP1 DUP4 SUB DUP2 PUSH1 0x0 DUP8 DUP1 EXTCODESIZE ISZERO DUP1 ISZERO PUSH2 0x38BA JUMPI PUSH1 0x0 DUP1 REVERT JUMPDEST POP GAS CALL ISZERO DUP1 ISZERO PUSH2 0x38CE JUMPI RETURNDATASIZE PUSH1 0x0 DUP1 RETURNDATACOPY RETURNDATASIZE PUSH1 0x0 REVERT JUMPDEST POP POP POP POP PUSH32 0x0 PUSH1 0x1 PUSH1 0x1 PUSH1 0xA0 SHL SUB AND PUSH4 0xB390C0AB DUP6 DUP15 PUSH1 0x40 MLOAD DUP4 PUSH4 0xFFFFFFFF AND PUSH1 0xE0 SHL DUP2 MSTORE PUSH1 0x4 ADD PUSH2 0x3920 SWAP3 SWAP2 SWAP1 PUSH2 0x595C JUMP JUMPDEST PUSH1 0x20 PUSH1 0x40 MLOAD DUP1 DUP4 SUB DUP2 PUSH1 0x0 DUP8 DUP1 EXTCODESIZE ISZERO DUP1 ISZERO PUSH2 0x393A JUMPI PUSH1 0x0 DUP1 REVERT JUMPDEST POP GAS CALL ISZERO DUP1 ISZERO PUSH2 0x394E JUMPI RETURNDATASIZE PUSH1 0x0 DUP1 RETURNDATACOPY RETURNDATASIZE PUSH1 0x0 REVERT JUMPDEST POP POP POP POP PUSH1 0x40 MLOAD RETURNDATASIZE PUSH1 0x1F NOT PUSH1 0x1F DUP3 ADD AND DUP3 ADD DUP1 PUSH1 0x40 MSTORE POP DUP2 ADD SWAP1 PUSH2 0x3972 SWAP2 SWAP1 PUSH2 0x52D0 JUMP JUMPDEST POP DUP1 MLOAD PUSH1 0x0 SWAP1 ISZERO ISZERO DUP1 PUSH2 0x3988 JUMPI POP PUSH1 0x20 DUP3 ADD MLOAD ISZERO ISZERO JUMPDEST DUP1 PUSH2 0x3996 JUMPI POP PUSH1 0x40 DUP3 ADD MLOAD ISZERO ISZERO JUMPDEST DUP1 PUSH2 0x39A4 JUMPI POP PUSH1 0x60 DUP3 ADD MLOAD ISZERO ISZERO JUMPDEST ISZERO PUSH2 0x3A3D JUMPI PUSH2 0x39D9 DUP13 DUP16 PUSH1 0x1 PUSH1 0x1 PUSH1 0xA0 SHL SUB AND PUSH4 0x70A08231 ADDRESS PUSH1 0x40 MLOAD DUP3 PUSH4 0xFFFFFFFF AND PUSH1 0xE0 SHL DUP2 MSTORE PUSH1 0x4 ADD PUSH2 0x313D SWAP2 SWAP1 PUSH2 0x53C3 JUMP JUMPDEST PUSH1 0x40 MLOAD PUSH4 0xC53DEBB PUSH1 0xE1 SHL DUP2 MSTORE SWAP1 SWAP2 POP PUSH1 0x1 PUSH1 0x1 PUSH1 0xA0 SHL SUB DUP10 AND SWAP1 PUSH4 0x18A7BD76 SWAP1 PUSH2 0x3A0A SWAP1 DUP6 SWAP1 DUP6 SWAP1 PUSH1 0x4 ADD PUSH2 0x5461 JUMP JUMPDEST PUSH1 0x0 PUSH1 0x40 MLOAD DUP1 DUP4 SUB DUP2 PUSH1 0x0 DUP8 DUP1 EXTCODESIZE ISZERO DUP1 ISZERO PUSH2 0x3A24 JUMPI PUSH1 0x0 DUP1 REVERT JUMPDEST POP GAS CALL ISZERO DUP1 ISZERO PUSH2 0x3A38 JUMPI RETURNDATASIZE PUSH1 0x0 DUP1 RETURNDATACOPY RETURNDATASIZE PUSH1 0x0 REVERT JUMPDEST POP POP POP POP JUMPDEST PUSH2 0x3A6D DUP13 DUP16 PUSH1 0x1 PUSH1 0x1 PUSH1 0xA0 SHL SUB AND PUSH4 0x70A08231 ADDRESS PUSH1 0x40 MLOAD DUP3 PUSH4 0xFFFFFFFF AND PUSH1 0xE0 SHL DUP2 MSTORE PUSH1 0x4 ADD PUSH2 0x313D SWAP2 SWAP1 PUSH2 0x53C3 JUMP JUMPDEST SWAP1 POP DUP1 ISZERO PUSH2 0x3ADF JUMPI PUSH2 0x3A7D PUSH2 0x4BEB JUMP JUMPDEST PUSH1 0x40 MLOAD PUSH4 0x7D49D875 PUSH1 0xE0 SHL DUP2 MSTORE PUSH1 0x1 PUSH1 0x1 PUSH1 0xA0 SHL SUB DUP11 AND SWAP1 PUSH4 0x7D49D875 SWAP1 PUSH2 0x3AAB SWAP1 DUP6 SWAP1 DUP6 SWAP1 PUSH1 0x4 ADD PUSH2 0x5948 JUMP JUMPDEST PUSH1 0x0 PUSH1 0x40 MLOAD DUP1 DUP4 SUB DUP2 PUSH1 0x0 DUP8 DUP1 EXTCODESIZE ISZERO DUP1 ISZERO PUSH2 0x3AC5 JUMPI PUSH1 0x0 DUP1 REVERT JUMPDEST POP GAS CALL ISZERO DUP1 ISZERO PUSH2 0x3AD9 JUMPI RETURNDATASIZE PUSH1 0x0 DUP1 RETURNDATACOPY RETURNDATASIZE PUSH1 0x0 REVERT JUMPDEST POP POP POP POP POP JUMPDEST PUSH1 0x0 JUMPDEST PUSH1 0x4 DUP2 LT ISZERO PUSH2 0x3B16 JUMPI PUSH2 0x3B0E DUP6 DUP3 DUP2 MLOAD DUP2 LT PUSH2 0x3AFA JUMPI INVALID JUMPDEST PUSH1 0x20 MUL PUSH1 0x20 ADD ADD MLOAD DUP6 DUP4 PUSH1 0x4 DUP2 LT PUSH2 0x32C8 JUMPI INVALID JUMPDEST PUSH1 0x1 ADD PUSH2 0x3AE2 JUMP JUMPDEST POP PUSH2 0x3B21 DUP15 DUP12 PUSH2 0x4905 JUMP JUMPDEST PUSH1 0x0 JUMPDEST PUSH1 0x4 DUP2 LT ISZERO PUSH2 0x3308 JUMPI PUSH2 0x3B3C DUP6 DUP3 DUP2 MLOAD DUP2 LT PUSH2 0x15D0 JUMPI INVALID JUMPDEST PUSH1 0x1 ADD PUSH2 0x3B24 JUMP JUMPDEST PUSH1 0x42 SLOAD PUSH3 0x10000 SWAP1 DIV PUSH1 0x1 PUSH1 0x1 PUSH1 0xA0 SHL SUB AND CALLER EQ PUSH2 0x3B74 JUMPI PUSH1 0x40 MLOAD PUSH3 0x461BCD PUSH1 0xE5 SHL DUP2 MSTORE PUSH1 0x4 ADD PUSH2 0x1ED SWAP1 PUSH2 0x5660 JUMP JUMPDEST DUP3 DUP2 EQ PUSH2 0x3B93 JUMPI PUSH1 0x40 MLOAD PUSH3 0x461BCD PUSH1 0xE5 SHL DUP2 MSTORE PUSH1 0x4 ADD PUSH2 0x1ED SWAP1 PUSH2 0x568A JUMP JUMPDEST PUSH1 0x0 JUMPDEST DUP4 DUP2 LT ISZERO PUSH2 0xD00 JUMPI DUP3 DUP3 DUP3 DUP2 DUP2 LT PUSH2 0x3BAA JUMPI INVALID JUMPDEST SWAP1 POP PUSH1 0x20 MUL ADD PUSH1 0x20 DUP2 ADD SWAP1 PUSH2 0x3BBF SWAP2 SWAP1 PUSH2 0x5270 JUMP JUMPDEST ISZERO PUSH2 0x3C9C JUMPI PUSH32 0x0 PUSH1 0x1 PUSH1 0x1 PUSH1 0xA0 SHL SUB AND PUSH4 0xE660CC08 DUP7 DUP7 DUP5 DUP2 DUP2 LT PUSH2 0x3BFF JUMPI INVALID JUMPDEST SWAP1 POP PUSH1 0x20 MUL ADD PUSH1 0x20 DUP2 ADD SWAP1 PUSH2 0x3C14 SWAP2 SWAP1 PUSH2 0x4CEF JUMP JUMPDEST PUSH1 0x40 MLOAD DUP3 PUSH4 0xFFFFFFFF AND PUSH1 0xE0 SHL DUP2 MSTORE PUSH1 0x4 ADD PUSH2 0x3C30 SWAP2 SWAP1 PUSH2 0x53C3 JUMP JUMPDEST PUSH1 0x20 PUSH1 0x40 MLOAD DUP1 DUP4 SUB DUP2 DUP7 DUP1 EXTCODESIZE ISZERO DUP1 ISZERO PUSH2 0x3C48 JUMPI PUSH1 0x0 DUP1 REVERT JUMPDEST POP GAS STATICCALL ISZERO DUP1 ISZERO PUSH2 0x3C5C JUMPI RETURNDATASIZE PUSH1 0x0 DUP1 RETURNDATACOPY RETURNDATASIZE PUSH1 0x0 REVERT JUMPDEST POP POP POP POP PUSH1 0x40 MLOAD RETURNDATASIZE PUSH1 0x1F NOT PUSH1 0x1F DUP3 ADD AND DUP3 ADD DUP1 PUSH1 0x40 MSTORE POP DUP2 ADD SWAP1 PUSH2 0x3C80 SWAP2 SWAP1 PUSH2 0x528C JUMP JUMPDEST PUSH2 0x3C9C JUMPI PUSH1 0x40 MLOAD PUSH3 0x461BCD PUSH1 0xE5 SHL DUP2 MSTORE PUSH1 0x4 ADD PUSH2 0x1ED SWAP1 PUSH2 0x5568 JUMP JUMPDEST DUP3 DUP3 DUP3 DUP2 DUP2 LT PUSH2 0x3CA8 JUMPI INVALID JUMPDEST SWAP1 POP PUSH1 0x20 MUL ADD PUSH1 0x20 DUP2 ADD SWAP1 PUSH2 0x3CBD SWAP2 SWAP1 PUSH2 0x5270 JUMP JUMPDEST PUSH1 0x84 PUSH1 0x0 DUP8 DUP8 DUP6 DUP2 DUP2 LT PUSH2 0x3CCD JUMPI INVALID JUMPDEST SWAP1 POP PUSH1 0x20 MUL ADD PUSH1 0x20 DUP2 ADD SWAP1 PUSH2 0x3CE2 SWAP2 SWAP1 PUSH2 0x4CEF JUMP JUMPDEST PUSH1 0x1 PUSH1 0x1 PUSH1 0xA0 SHL SUB AND DUP2 MSTORE PUSH1 0x20 DUP2 ADD SWAP2 SWAP1 SWAP2 MSTORE PUSH1 0x40 ADD PUSH1 0x0 KECCAK256 DUP1 SLOAD PUSH1 0xFF NOT AND SWAP2 ISZERO ISZERO SWAP2 SWAP1 SWAP2 OR SWAP1 SSTORE PUSH1 0x1 ADD PUSH2 0x3B96 JUMP JUMPDEST PUSH1 0x42 SLOAD PUSH3 0x10000 SWAP1 DIV PUSH1 0x1 PUSH1 0x1 PUSH1 0xA0 SHL SUB AND CALLER EQ PUSH2 0x3D42 JUMPI PUSH1 0x40 MLOAD PUSH3 0x461BCD PUSH1 0xE5 SHL DUP2 MSTORE PUSH1 0x4 ADD PUSH2 0x1ED SWAP1 PUSH2 0x5660 JUMP JUMPDEST PUSH1 0x43 DUP1 SLOAD PUSH1 0x1 PUSH1 0x1 PUSH1 0xA0 SHL SUB NOT AND PUSH1 0x1 PUSH1 0x1 PUSH1 0xA0 SHL SUB DUP4 AND OR SWAP1 SSTORE PUSH1 0x40 MLOAD PUSH32 0x964DEA888B00B2AB53F13DFE7CA334B46E99338C222AE232D98547A1DA019F60 SWAP1 PUSH2 0x3D8D SWAP1 DUP4 SWAP1 PUSH2 0x53C3 JUMP JUMPDEST PUSH1 0x40 MLOAD DUP1 SWAP2 SUB SWAP1 LOG1 POP JUMP JUMPDEST PUSH4 0xF23A6E61 PUSH1 0xE0 SHL SWAP7 SWAP6 POP POP POP POP POP POP JUMP JUMPDEST PUSH1 0x41 PUSH1 0x20 SWAP1 DUP2 MSTORE PUSH1 0x0 SWAP3 DUP4 MSTORE PUSH1 0x40 DUP1 DUP5 KECCAK256 SWAP1 SWAP2 MSTORE SWAP1 DUP3 MSTORE SWAP1 KECCAK256 SLOAD PUSH1 0xFF AND DUP2 JUMP JUMPDEST PUSH1 0x1 PUSH1 0x1 PUSH1 0xA0 SHL SUB DUP7 AND PUSH1 0x0 SWAP1 DUP2 MSTORE PUSH1 0x84 PUSH1 0x20 MSTORE PUSH1 0x40 SWAP1 KECCAK256 SLOAD PUSH1 0xFF AND PUSH2 0x3E02 JUMPI PUSH1 0x40 MLOAD PUSH3 0x461BCD PUSH1 0xE5 SHL DUP2 MSTORE PUSH1 0x4 ADD PUSH2 0x1ED SWAP1 PUSH2 0x56F4 JUMP JUMPDEST PUSH1 0x0 PUSH2 0x3E0D DUP8 PUSH2 0x1654 JUMP JUMPDEST SWAP1 POP PUSH1 0x0 PUSH32 0x0 PUSH1 0x1 PUSH1 0x1 PUSH1 0xA0 SHL SUB AND PUSH4 0xD7AC71FF PUSH1 0x40 MLOAD DUP2 PUSH4 0xFFFFFFFF AND PUSH1 0xE0 SHL DUP2 MSTORE PUSH1 0x4 ADD PUSH1 0x20 PUSH1 0x40 MLOAD DUP1 DUP4 SUB DUP2 DUP7 DUP1 EXTCODESIZE ISZERO DUP1 ISZERO PUSH2 0x3E6A JUMPI PUSH1 0x0 DUP1 REVERT JUMPDEST POP GAS STATICCALL ISZERO DUP1 ISZERO PUSH2 0x3E7E JUMPI RETURNDATASIZE PUSH1 0x0 DUP1 RETURNDATACOPY RETURNDATASIZE PUSH1 0x0 REVERT JUMPDEST POP POP POP POP PUSH1 0x40 MLOAD RETURNDATASIZE PUSH1 0x1F NOT PUSH1 0x1F DUP3 ADD AND DUP3 ADD DUP1 PUSH1 0x40 MSTORE POP DUP2 ADD SWAP1 PUSH2 0x3EA2 SWAP2 SWAP1 PUSH2 0x52D0 JUMP JUMPDEST SWAP1 POP PUSH1 0x0 DUP1 PUSH32 0x0 PUSH1 0x1 PUSH1 0x1 PUSH1 0xA0 SHL SUB AND PUSH4 0x519F5099 DUP5 PUSH1 0x40 MLOAD DUP3 PUSH4 0xFFFFFFFF AND PUSH1 0xE0 SHL DUP2 MSTORE PUSH1 0x4 ADD PUSH2 0x3EF3 SWAP2 SWAP1 PUSH2 0x5900 JUMP JUMPDEST PUSH1 0x80 PUSH1 0x40 MLOAD DUP1 DUP4 SUB DUP2 DUP7 DUP1 EXTCODESIZE ISZERO DUP1 ISZERO PUSH2 0x3F0B JUMPI PUSH1 0x0 DUP1 REVERT JUMPDEST POP GAS STATICCALL ISZERO DUP1 ISZERO PUSH2 0x3F1F JUMPI RETURNDATASIZE PUSH1 0x0 DUP1 RETURNDATACOPY RETURNDATASIZE PUSH1 0x0 REVERT JUMPDEST POP POP POP POP PUSH1 0x40 MLOAD RETURNDATASIZE PUSH1 0x1F NOT PUSH1 0x1F DUP3 ADD AND DUP3 ADD DUP1 PUSH1 0x40 MSTORE POP DUP2 ADD SWAP1 PUSH2 0x3F43 SWAP2 SWAP1 PUSH2 0x4E1A JUMP JUMPDEST POP SWAP3 POP SWAP3 POP POP DUP10 PUSH1 0x1 PUSH1 0x1 PUSH1 0xA0 SHL SUB AND DUP3 PUSH1 0x1 PUSH1 0x1 PUSH1 0xA0 SHL SUB AND PUSH4 0xA4775772 DUP4 PUSH1 0x40 MLOAD DUP3 PUSH4 0xFFFFFFFF AND PUSH1 0xE0 SHL DUP2 MSTORE PUSH1 0x4 ADD PUSH2 0x3F7F SWAP2 SWAP1 PUSH2 0x5900 JUMP JUMPDEST PUSH1 0x20 PUSH1 0x40 MLOAD DUP1 DUP4 SUB DUP2 DUP7 DUP1 EXTCODESIZE ISZERO DUP1 ISZERO PUSH2 0x3F97 JUMPI PUSH1 0x0 DUP1 REVERT JUMPDEST POP GAS STATICCALL ISZERO DUP1 ISZERO PUSH2 0x3FAB JUMPI RETURNDATASIZE PUSH1 0x0 DUP1 RETURNDATACOPY RETURNDATASIZE PUSH1 0x0 REVERT JUMPDEST POP POP POP POP PUSH1 0x40 MLOAD RETURNDATASIZE PUSH1 0x1F NOT PUSH1 0x1F DUP3 ADD AND DUP3 ADD DUP1 PUSH1 0x40 MSTORE POP DUP2 ADD SWAP1 PUSH2 0x3FCF SWAP2 SWAP1 PUSH2 0x4D0B JUMP JUMPDEST PUSH1 0x1 PUSH1 0x1 PUSH1 0xA0 SHL SUB AND EQ PUSH2 0x3FF5 JUMPI PUSH1 0x40 MLOAD PUSH3 0x461BCD PUSH1 0xE5 SHL DUP2 MSTORE PUSH1 0x4 ADD PUSH2 0x1ED SWAP1 PUSH2 0x5803 JUMP JUMPDEST PUSH32 0x0 PUSH1 0x1 PUSH1 0x1 PUSH1 0xA0 SHL SUB AND DUP3 PUSH1 0x1 PUSH1 0x1 PUSH1 0xA0 SHL SUB AND EQ PUSH2 0x4046 JUMPI PUSH1 0x40 MLOAD PUSH3 0x461BCD PUSH1 0xE5 SHL DUP2 MSTORE PUSH1 0x4 ADD PUSH2 0x1ED SWAP1 PUSH2 0x559F JUMP JUMPDEST PUSH1 0x1 PUSH1 0x1 PUSH1 0xA0 SHL SUB DUP11 AND PUSH1 0x0 SWAP1 DUP2 MSTORE PUSH1 0x85 PUSH1 0x20 SWAP1 DUP2 MSTORE PUSH1 0x40 SWAP2 DUP3 SWAP1 KECCAK256 DUP1 SLOAD DUP4 MLOAD DUP2 DUP5 MUL DUP2 ADD DUP5 ADD SWAP1 SWAP5 MSTORE DUP1 DUP5 MSTORE PUSH1 0x60 SWAP4 SWAP3 DUP4 ADD DUP3 DUP3 DUP1 ISZERO PUSH2 0x40B0 JUMPI PUSH1 0x20 MUL DUP3 ADD SWAP2 SWAP1 PUSH1 0x0 MSTORE PUSH1 0x20 PUSH1 0x0 KECCAK256 SWAP1 JUMPDEST DUP2 SLOAD PUSH1 0x1 PUSH1 0x1 PUSH1 0xA0 SHL SUB AND DUP2 MSTORE PUSH1 0x1 SWAP1 SWAP2 ADD SWAP1 PUSH1 0x20 ADD DUP1 DUP4 GT PUSH2 0x4092 JUMPI JUMPDEST POP POP POP POP POP SWAP1 POP PUSH2 0x40C2 DUP12 PUSH1 0x2 PUSH2 0xC16 JUMP JUMPDEST PUSH2 0x40CA PUSH2 0x4B2B JUMP JUMPDEST PUSH1 0x0 JUMPDEST PUSH1 0x2 DUP2 LT ISZERO PUSH2 0x41D1 JUMPI PUSH1 0x0 NOT DUP11 DUP3 PUSH1 0x2 DUP2 LT PUSH2 0x40E5 JUMPI INVALID JUMPDEST PUSH1 0x20 MUL ADD CALLDATALOAD EQ PUSH2 0x4105 JUMPI DUP10 DUP2 PUSH1 0x2 DUP2 LT PUSH2 0x40FB JUMPI INVALID JUMPDEST PUSH1 0x20 MUL ADD CALLDATALOAD PUSH2 0x41B8 JUMP JUMPDEST PUSH32 0x0 PUSH1 0x1 PUSH1 0x1 PUSH1 0xA0 SHL SUB AND PUSH4 0x82A2FB9C DUP8 DUP6 DUP5 DUP2 MLOAD DUP2 LT PUSH2 0x4141 JUMPI INVALID JUMPDEST PUSH1 0x20 MUL PUSH1 0x20 ADD ADD MLOAD PUSH1 0x40 MLOAD DUP4 PUSH4 0xFFFFFFFF AND PUSH1 0xE0 SHL DUP2 MSTORE PUSH1 0x4 ADD PUSH2 0x4166 SWAP3 SWAP2 SWAP1 PUSH2 0x5909 JUMP JUMPDEST PUSH1 0x20 PUSH1 0x40 MLOAD DUP1 DUP4 SUB DUP2 PUSH1 0x0 DUP8 DUP1 EXTCODESIZE ISZERO DUP1 ISZERO PUSH2 0x4180 JUMPI PUSH1 0x0 DUP1 REVERT JUMPDEST POP GAS CALL ISZERO DUP1 ISZERO PUSH2 0x4194 JUMPI RETURNDATASIZE PUSH1 0x0 DUP1 RETURNDATACOPY RETURNDATASIZE PUSH1 0x0 REVERT JUMPDEST POP POP POP POP PUSH1 0x40 MLOAD RETURNDATASIZE PUSH1 0x1F NOT PUSH1 0x1F DUP3 ADD AND DUP3 ADD DUP1 PUSH1 0x40 MSTORE POP DUP2 ADD SWAP1 PUSH2 0x41B8 SWAP2 SWAP1 PUSH2 0x52D0 JUMP JUMPDEST DUP3 DUP3 PUSH1 0x2 DUP2 LT PUSH2 0x41C4 JUMPI INVALID JUMPDEST PUSH1 0x20 MUL ADD MSTORE PUSH1 0x1 ADD PUSH2 0x40CD JUMP JUMPDEST POP PUSH2 0x41DA PUSH2 0x4B2B JUMP JUMPDEST PUSH1 0x0 JUMPDEST PUSH1 0x2 DUP2 LT ISZERO PUSH2 0x421F JUMPI PUSH2 0x4206 DUP10 DUP3 PUSH1 0x2 DUP2 LT PUSH2 0x41F5 JUMPI INVALID JUMPDEST PUSH1 0x20 MUL ADD CALLDATALOAD DUP5 DUP4 PUSH1 0x2 DUP2 LT PUSH2 0x2F7D JUMPI INVALID JUMPDEST DUP3 DUP3 PUSH1 0x2 DUP2 LT PUSH2 0x4212 JUMPI INVALID JUMPDEST PUSH1 0x20 MUL ADD MSTORE PUSH1 0x1 ADD PUSH2 0x41DD JUMP JUMPDEST POP PUSH32 0x0 PUSH1 0x1 PUSH1 0x1 PUSH1 0xA0 SHL SUB AND PUSH4 0x68EB4BA8 PUSH32 0x0 DUP7 DUP16 PUSH1 0x40 MLOAD DUP5 PUSH4 0xFFFFFFFF AND PUSH1 0xE0 SHL DUP2 MSTORE PUSH1 0x4 ADD PUSH2 0x4290 SWAP4 SWAP3 SWAP2 SWAP1 PUSH2 0x540A JUMP JUMPDEST PUSH1 0x0 PUSH1 0x40 MLOAD DUP1 DUP4 SUB DUP2 PUSH1 0x0 DUP8 DUP1 EXTCODESIZE ISZERO DUP1 ISZERO PUSH2 0x42AA JUMPI PUSH1 0x0 DUP1 REVERT JUMPDEST POP GAS CALL ISZERO DUP1 ISZERO PUSH2 0x42BE JUMPI RETURNDATASIZE PUSH1 0x0 DUP1 RETURNDATACOPY RETURNDATASIZE PUSH1 0x0 REVERT JUMPDEST POP POP POP POP PUSH32 0x0 PUSH1 0x1 PUSH1 0x1 PUSH1 0xA0 SHL SUB AND PUSH4 0xB390C0AB DUP6 DUP15 PUSH1 0x40 MLOAD DUP4 PUSH4 0xFFFFFFFF AND PUSH1 0xE0 SHL DUP2 MSTORE PUSH1 0x4 ADD PUSH2 0x4310 SWAP3 SWAP2 SWAP1 PUSH2 0x595C JUMP JUMPDEST PUSH1 0x20 PUSH1 0x40 MLOAD DUP1 DUP4 SUB DUP2 PUSH1 0x0 DUP8 DUP1 EXTCODESIZE ISZERO DUP1 ISZERO PUSH2 0x432A JUMPI PUSH1 0x0 DUP1 REVERT JUMPDEST POP GAS CALL ISZERO DUP1 ISZERO PUSH2 0x433E JUMPI RETURNDATASIZE PUSH1 0x0 DUP1 RETURNDATACOPY RETURNDATASIZE PUSH1 0x0 REVERT JUMPDEST POP POP POP POP PUSH1 0x40 MLOAD RETURNDATASIZE PUSH1 0x1F NOT PUSH1 0x1F DUP3 ADD AND DUP3 ADD DUP1 PUSH1 0x40 MSTORE POP DUP2 ADD SWAP1 PUSH2 0x4362 SWAP2 SWAP1 PUSH2 0x52D0 JUMP JUMPDEST POP DUP1 MLOAD PUSH1 0x0 SWAP1 ISZERO ISZERO DUP1 PUSH2 0x4378 JUMPI POP PUSH1 0x20 DUP3 ADD MLOAD ISZERO ISZERO JUMPDEST ISZERO PUSH2 0x4411 JUMPI PUSH2 0x43AD DUP13 DUP16 PUSH1 0x1 PUSH1 0x1 PUSH1 0xA0 SHL SUB AND PUSH4 0x70A08231 ADDRESS PUSH1 0x40 MLOAD DUP3 PUSH4 0xFFFFFFFF AND PUSH1 0xE0 SHL DUP2 MSTORE PUSH1 0x4 ADD PUSH2 0x313D SWAP2 SWAP1 PUSH2 0x53C3 JUMP JUMPDEST PUSH1 0x40 MLOAD PUSH4 0xE3103273 PUSH1 0xE0 SHL DUP2 MSTORE SWAP1 SWAP2 POP PUSH1 0x1 PUSH1 0x1 PUSH1 0xA0 SHL SUB DUP10 AND SWAP1 PUSH4 0xE3103273 SWAP1 PUSH2 0x43DE SWAP1 DUP6 SWAP1 DUP6 SWAP1 PUSH1 0x4 ADD PUSH2 0x542B JUMP JUMPDEST PUSH1 0x0 PUSH1 0x40 MLOAD DUP1 DUP4 SUB DUP2 PUSH1 0x0 DUP8 DUP1 EXTCODESIZE ISZERO DUP1 ISZERO PUSH2 0x43F8 JUMPI PUSH1 0x0 DUP1 REVERT JUMPDEST POP GAS CALL ISZERO DUP1 ISZERO PUSH2 0x440C JUMPI RETURNDATASIZE PUSH1 0x0 DUP1 RETURNDATACOPY RETURNDATASIZE PUSH1 0x0 REVERT JUMPDEST POP POP POP POP JUMPDEST PUSH2 0x4441 DUP13 DUP16 PUSH1 0x1 PUSH1 0x1 PUSH1 0xA0 SHL SUB AND PUSH4 0x70A08231 ADDRESS PUSH1 0x40 MLOAD DUP3 PUSH4 0xFFFFFFFF AND PUSH1 0xE0 SHL DUP2 MSTORE PUSH1 0x4 ADD PUSH2 0x313D SWAP2 SWAP1 PUSH2 0x53C3 JUMP JUMPDEST SWAP1 POP DUP1 ISZERO PUSH2 0x44B3 JUMPI PUSH2 0x4451 PUSH2 0x4B2B JUMP JUMPDEST PUSH1 0x40 MLOAD PUSH4 0x16CD8E27 PUSH1 0xE2 SHL DUP2 MSTORE PUSH1 0x1 PUSH1 0x1 PUSH1 0xA0 SHL SUB DUP11 AND SWAP1 PUSH4 0x5B36389C SWAP1 PUSH2 0x447F SWAP1 DUP6 SWAP1 DUP6 SWAP1 PUSH1 0x4 ADD PUSH2 0x5920 JUMP JUMPDEST PUSH1 0x0 PUSH1 0x40 MLOAD DUP1 DUP4 SUB DUP2 PUSH1 0x0 DUP8 DUP1 EXTCODESIZE ISZERO DUP1 ISZERO PUSH2 0x4499 JUMPI PUSH1 0x0 DUP1 REVERT JUMPDEST POP GAS CALL ISZERO DUP1 ISZERO PUSH2 0x44AD JUMPI RETURNDATASIZE PUSH1 0x0 DUP1 RETURNDATACOPY RETURNDATASIZE PUSH1 0x0 REVERT JUMPDEST POP POP POP POP POP JUMPDEST PUSH1 0x0 JUMPDEST PUSH1 0x2 DUP2 LT ISZERO PUSH2 0x44EA JUMPI PUSH2 0x44E2 DUP6 DUP3 DUP2 MLOAD DUP2 LT PUSH2 0x44CE JUMPI INVALID JUMPDEST PUSH1 0x20 MUL PUSH1 0x20 ADD ADD MLOAD DUP6 DUP4 PUSH1 0x2 DUP2 LT PUSH2 0x32C8 JUMPI INVALID JUMPDEST PUSH1 0x1 ADD PUSH2 0x44B6 JUMP JUMPDEST POP PUSH2 0x44F5 DUP15 DUP12 PUSH2 0x4905 JUMP JUMPDEST PUSH1 0x0 JUMPDEST PUSH1 0x2 DUP2 LT ISZERO PUSH2 0x3308 JUMPI PUSH2 0x4510 DUP6 DUP3 DUP2 MLOAD DUP2 LT PUSH2 0x15D0 JUMPI INVALID JUMPDEST PUSH1 0x1 ADD PUSH2 0x44F8 JUMP JUMPDEST DUP1 ISZERO DUP1 PUSH2 0x45A0 JUMPI POP PUSH1 0x40 MLOAD PUSH4 0x6EB1769F PUSH1 0xE1 SHL DUP2 MSTORE PUSH1 0x1 PUSH1 0x1 PUSH1 0xA0 SHL SUB DUP5 AND SWAP1 PUSH4 0xDD62ED3E SWAP1 PUSH2 0x454E SWAP1 ADDRESS SWAP1 DUP7 SWAP1 PUSH1 0x4 ADD PUSH2 0x53D7 JUMP JUMPDEST PUSH1 0x20 PUSH1 0x40 MLOAD DUP1 DUP4 SUB DUP2 DUP7 DUP1 EXTCODESIZE ISZERO DUP1 ISZERO PUSH2 0x4566 JUMPI PUSH1 0x0 DUP1 REVERT JUMPDEST POP GAS STATICCALL ISZERO DUP1 ISZERO PUSH2 0x457A JUMPI RETURNDATASIZE PUSH1 0x0 DUP1 RETURNDATACOPY RETURNDATASIZE PUSH1 0x0 REVERT JUMPDEST POP POP POP POP PUSH1 0x40 MLOAD RETURNDATASIZE PUSH1 0x1F NOT PUSH1 0x1F DUP3 ADD AND DUP3 ADD DUP1 PUSH1 0x40 MSTORE POP DUP2 ADD SWAP1 PUSH2 0x459E SWAP2 SWAP1 PUSH2 0x52D0 JUMP JUMPDEST ISZERO JUMPDEST PUSH2 0x45BC JUMPI PUSH1 0x40 MLOAD PUSH3 0x461BCD PUSH1 0xE5 SHL DUP2 MSTORE PUSH1 0x4 ADD PUSH2 0x1ED SWAP1 PUSH2 0x587B JUMP JUMPDEST PUSH2 0x4612 DUP4 PUSH4 0x95EA7B3 PUSH1 0xE0 SHL DUP5 DUP5 PUSH1 0x40 MLOAD PUSH1 0x24 ADD PUSH2 0x45DB SWAP3 SWAP2 SWAP1 PUSH2 0x53F1 JUMP JUMPDEST PUSH1 0x40 DUP1 MLOAD PUSH1 0x1F NOT DUP2 DUP5 SUB ADD DUP2 MSTORE SWAP2 SWAP1 MSTORE PUSH1 0x20 DUP2 ADD DUP1 MLOAD PUSH1 0x1 PUSH1 0x1 PUSH1 0xE0 SHL SUB AND PUSH1 0x1 PUSH1 0x1 PUSH1 0xE0 SHL SUB NOT SWAP1 SWAP4 AND SWAP3 SWAP1 SWAP3 OR SWAP1 SWAP2 MSTORE PUSH2 0x4983 JUMP JUMPDEST POP POP POP JUMP JUMPDEST EXTCODESIZE ISZERO ISZERO SWAP1 JUMP JUMPDEST PUSH1 0x60 PUSH2 0x462C DUP5 DUP5 PUSH1 0x0 DUP6 PUSH2 0x4A12 JUMP JUMPDEST SWAP1 POP JUMPDEST SWAP4 SWAP3 POP POP POP JUMP JUMPDEST PUSH1 0x1 PUSH1 0x1 PUSH1 0xA0 SHL SUB DUP1 DUP4 AND PUSH1 0x0 SWAP1 DUP2 MSTORE PUSH1 0x41 PUSH1 0x20 SWAP1 DUP2 MSTORE PUSH1 0x40 DUP1 DUP4 KECCAK256 SWAP4 DUP6 AND DUP4 MSTORE SWAP3 SWAP1 MSTORE KECCAK256 SLOAD PUSH1 0xFF AND PUSH2 0x46AA JUMPI PUSH2 0x4679 PUSH1 0x1 PUSH1 0x1 PUSH1 0xA0 SHL SUB DUP4 AND DUP3 PUSH1 0x0 NOT PUSH2 0x4518 JUMP JUMPDEST PUSH1 0x1 PUSH1 0x1 PUSH1 0xA0 SHL SUB DUP1 DUP4 AND PUSH1 0x0 SWAP1 DUP2 MSTORE PUSH1 0x41 PUSH1 0x20 SWAP1 DUP2 MSTORE PUSH1 0x40 DUP1 DUP4 KECCAK256 SWAP4 DUP6 AND DUP4 MSTORE SWAP3 SWAP1 MSTORE KECCAK256 DUP1 SLOAD PUSH1 0xFF NOT AND PUSH1 0x1 OR SWAP1 SSTORE JUMPDEST POP POP JUMP JUMPDEST PUSH1 0x40 MLOAD PUSH4 0x70A08231 PUSH1 0xE0 SHL DUP2 MSTORE PUSH1 0x0 SWAP1 PUSH1 0x1 PUSH1 0x1 PUSH1 0xA0 SHL SUB DUP4 AND SWAP1 PUSH4 0x70A08231 SWAP1 PUSH2 0x46DD SWAP1 ADDRESS SWAP1 PUSH1 0x4 ADD PUSH2 0x53C3 JUMP JUMPDEST PUSH1 0x20 PUSH1 0x40 MLOAD DUP1 DUP4 SUB DUP2 DUP7 DUP1 EXTCODESIZE ISZERO DUP1 ISZERO PUSH2 0x46F5 JUMPI PUSH1 0x0 DUP1 REVERT JUMPDEST POP GAS STATICCALL ISZERO DUP1 ISZERO PUSH2 0x4709 JUMPI RETURNDATASIZE PUSH1 0x0 DUP1 RETURNDATACOPY RETURNDATASIZE PUSH1 0x0 REVERT JUMPDEST POP POP POP POP PUSH1 0x40 MLOAD RETURNDATASIZE PUSH1 0x1F NOT PUSH1 0x1F DUP3 ADD AND DUP3 ADD DUP1 PUSH1 0x40 MSTORE POP DUP2 ADD SWAP1 PUSH2 0x472D SWAP2 SWAP1 PUSH2 0x52D0 JUMP JUMPDEST SWAP1 POP DUP1 ISZERO PUSH2 0x46AA JUMPI PUSH2 0x46AA PUSH32 0x0 PUSH1 0x1 PUSH1 0x1 PUSH1 0xA0 SHL SUB AND PUSH4 0x630DC7CB PUSH1 0x40 MLOAD DUP2 PUSH4 0xFFFFFFFF AND PUSH1 0xE0 SHL DUP2 MSTORE PUSH1 0x4 ADD PUSH1 0x20 PUSH1 0x40 MLOAD DUP1 DUP4 SUB DUP2 DUP7 DUP1 EXTCODESIZE ISZERO DUP1 ISZERO PUSH2 0x4791 JUMPI PUSH1 0x0 DUP1 REVERT JUMPDEST POP GAS STATICCALL ISZERO DUP1 ISZERO PUSH2 0x47A5 JUMPI RETURNDATASIZE PUSH1 0x0 DUP1 RETURNDATACOPY RETURNDATASIZE PUSH1 0x0 REVERT JUMPDEST POP POP POP POP PUSH1 0x40 MLOAD RETURNDATASIZE PUSH1 0x1F NOT PUSH1 0x1F DUP3 ADD AND DUP3 ADD DUP1 PUSH1 0x40 MSTORE POP DUP2 ADD SWAP1 PUSH2 0x47C9 SWAP2 SWAP1 PUSH2 0x4D0B JUMP JUMPDEST PUSH1 0x1 PUSH1 0x1 PUSH1 0xA0 SHL SUB DUP5 AND SWAP1 DUP4 PUSH2 0x4AD3 JUMP JUMPDEST DUP1 ISZERO PUSH2 0x46AA JUMPI PUSH1 0x40 MLOAD PUSH4 0x246B5DE1 PUSH1 0xE1 SHL DUP2 MSTORE PUSH1 0x1 PUSH1 0x1 PUSH1 0xA0 SHL SUB PUSH32 0x0 AND SWAP1 PUSH4 0x48D6BBC2 SWAP1 PUSH2 0x482E SWAP1 DUP6 SWAP1 DUP6 SWAP1 PUSH1 0x4 ADD PUSH2 0x53F1 JUMP JUMPDEST PUSH1 0x0 PUSH1 0x40 MLOAD DUP1 DUP4 SUB DUP2 PUSH1 0x0 DUP8 DUP1 EXTCODESIZE ISZERO DUP1 ISZERO PUSH2 0x4848 JUMPI PUSH1 0x0 DUP1 REVERT JUMPDEST POP GAS CALL ISZERO DUP1 ISZERO PUSH2 0x485C JUMPI RETURNDATASIZE PUSH1 0x0 DUP1 RETURNDATACOPY RETURNDATASIZE PUSH1 0x0 REVERT JUMPDEST POP POP POP POP POP POP JUMP JUMPDEST DUP1 ISZERO PUSH2 0x46AA JUMPI PUSH1 0x40 MLOAD PUSH4 0x4B8A3529 PUSH1 0xE0 SHL DUP2 MSTORE PUSH1 0x1 PUSH1 0x1 PUSH1 0xA0 SHL SUB PUSH32 0x0 AND SWAP1 PUSH4 0x4B8A3529 SWAP1 PUSH2 0x482E SWAP1 DUP6 SWAP1 DUP6 SWAP1 PUSH1 0x4 ADD PUSH2 0x53F1 JUMP JUMPDEST PUSH1 0x0 DUP3 DUP3 ADD DUP4 DUP2 LT ISZERO PUSH2 0x462F JUMPI PUSH1 0x40 MLOAD PUSH3 0x461BCD PUSH1 0xE5 SHL DUP2 MSTORE PUSH1 0x4 ADD PUSH2 0x1ED SWAP1 PUSH2 0x5531 JUMP JUMPDEST PUSH1 0x0 DUP3 DUP3 GT ISZERO PUSH2 0x48FF JUMPI PUSH1 0x40 MLOAD PUSH3 0x461BCD PUSH1 0xE5 SHL DUP2 MSTORE PUSH1 0x4 ADD PUSH2 0x1ED SWAP1 PUSH2 0x55E3 JUMP JUMPDEST POP SWAP1 SUB SWAP1 JUMP JUMPDEST DUP1 ISZERO PUSH2 0x46AA JUMPI PUSH2 0x4935 DUP3 PUSH32 0x0 PUSH2 0x4636 JUMP JUMPDEST PUSH1 0x40 MLOAD PUSH4 0x450CFAF PUSH1 0xE3 SHL DUP2 MSTORE PUSH1 0x1 PUSH1 0x1 PUSH1 0xA0 SHL SUB PUSH32 0x0 AND SWAP1 PUSH4 0x22867D78 SWAP1 PUSH2 0x482E SWAP1 DUP6 SWAP1 DUP6 SWAP1 PUSH1 0x4 ADD PUSH2 0x53F1 JUMP JUMPDEST PUSH1 0x60 PUSH2 0x49D8 DUP3 PUSH1 0x40 MLOAD DUP1 PUSH1 0x40 ADD PUSH1 0x40 MSTORE DUP1 PUSH1 0x20 DUP2 MSTORE PUSH1 0x20 ADD PUSH32 0x5361666545524332303A206C6F772D6C6576656C2063616C6C206661696C6564 DUP2 MSTORE POP DUP6 PUSH1 0x1 PUSH1 0x1 PUSH1 0xA0 SHL SUB AND PUSH2 0x461D SWAP1 SWAP3 SWAP2 SWAP1 PUSH4 0xFFFFFFFF AND JUMP JUMPDEST DUP1 MLOAD SWAP1 SWAP2 POP ISZERO PUSH2 0x4612 JUMPI DUP1 DUP1 PUSH1 0x20 ADD SWAP1 MLOAD DUP2 ADD SWAP1 PUSH2 0x49F6 SWAP2 SWAP1 PUSH2 0x528C JUMP JUMPDEST PUSH2 0x4612 JUMPI PUSH1 0x40 MLOAD PUSH3 0x461BCD PUSH1 0xE5 SHL DUP2 MSTORE PUSH1 0x4 ADD PUSH2 0x1ED SWAP1 PUSH2 0x5831 JUMP JUMPDEST PUSH1 0x60 DUP3 SELFBALANCE LT ISZERO PUSH2 0x4A34 JUMPI PUSH1 0x40 MLOAD PUSH3 0x461BCD PUSH1 0xE5 SHL DUP2 MSTORE PUSH1 0x4 ADD PUSH2 0x1ED SWAP1 PUSH2 0x561A JUMP JUMPDEST PUSH2 0x4A3D DUP6 PUSH2 0x4617 JUMP JUMPDEST PUSH2 0x4A59 JUMPI PUSH1 0x40 MLOAD PUSH3 0x461BCD PUSH1 0xE5 SHL DUP2 MSTORE PUSH1 0x4 ADD PUSH2 0x1ED SWAP1 PUSH2 0x57CC JUMP JUMPDEST PUSH1 0x0 PUSH1 0x60 DUP7 PUSH1 0x1 PUSH1 0x1 PUSH1 0xA0 SHL SUB AND DUP6 DUP8 PUSH1 0x40 MLOAD PUSH2 0x4A76 SWAP2 SWAP1 PUSH2 0x53A7 JUMP JUMPDEST PUSH1 0x0 PUSH1 0x40 MLOAD DUP1 DUP4 SUB DUP2 DUP6 DUP8 GAS CALL SWAP3 POP POP POP RETURNDATASIZE DUP1 PUSH1 0x0 DUP2 EQ PUSH2 0x4AB3 JUMPI PUSH1 0x40 MLOAD SWAP2 POP PUSH1 0x1F NOT PUSH1 0x3F RETURNDATASIZE ADD AND DUP3 ADD PUSH1 0x40 MSTORE RETURNDATASIZE DUP3 MSTORE RETURNDATASIZE PUSH1 0x0 PUSH1 0x20 DUP5 ADD RETURNDATACOPY PUSH2 0x4AB8 JUMP JUMPDEST PUSH1 0x60 SWAP2 POP JUMPDEST POP SWAP2 POP SWAP2 POP PUSH2 0x4AC8 DUP3 DUP3 DUP7 PUSH2 0x4AF2 JUMP JUMPDEST SWAP8 SWAP7 POP POP POP POP POP POP POP JUMP JUMPDEST PUSH2 0x4612 DUP4 PUSH4 0xA9059CBB PUSH1 0xE0 SHL DUP5 DUP5 PUSH1 0x40 MLOAD PUSH1 0x24 ADD PUSH2 0x45DB SWAP3 SWAP2 SWAP1 PUSH2 0x53F1 JUMP JUMPDEST PUSH1 0x60 DUP4 ISZERO PUSH2 0x4B01 JUMPI POP DUP2 PUSH2 0x462F JUMP JUMPDEST DUP3 MLOAD ISZERO PUSH2 0x4B11 JUMPI DUP3 MLOAD DUP1 DUP5 PUSH1 0x20 ADD REVERT JUMPDEST DUP2 PUSH1 0x40 MLOAD PUSH3 0x461BCD PUSH1 0xE5 SHL DUP2 MSTORE PUSH1 0x4 ADD PUSH2 0x1ED SWAP2 SWAP1 PUSH2 0x549C JUMP JUMPDEST PUSH1 0x40 MLOAD DUP1 PUSH1 0x40 ADD PUSH1 0x40 MSTORE DUP1 PUSH1 0x2 SWAP1 PUSH1 0x20 DUP3 MUL DUP1 CALLDATASIZE DUP4 CALLDATACOPY POP SWAP2 SWAP3 SWAP2 POP POP JUMP JUMPDEST PUSH1 0x40 MLOAD DUP1 PUSH2 0x100 ADD PUSH1 0x40 MSTORE DUP1 PUSH1 0x8 SWAP1 PUSH1 0x20 DUP3 MUL DUP1 CALLDATASIZE DUP4 CALLDATACOPY POP SWAP2 SWAP3 SWAP2 POP POP JUMP JUMPDEST DUP3 DUP1 SLOAD DUP3 DUP3 SSTORE SWAP1 PUSH1 0x0 MSTORE PUSH1 0x20 PUSH1 0x0 KECCAK256 SWAP1 DUP2 ADD SWAP3 DUP3 ISZERO PUSH2 0x4BBD JUMPI SWAP2 PUSH1 0x20 MUL DUP3 ADD JUMPDEST DUP3 DUP2 GT ISZERO PUSH2 0x4BBD JUMPI DUP3 MLOAD DUP3 SLOAD PUSH1 0x1 PUSH1 0x1 PUSH1 0xA0 SHL SUB NOT AND PUSH1 0x1 PUSH1 0x1 PUSH1 0xA0 SHL SUB SWAP1 SWAP2 AND OR DUP3 SSTORE PUSH1 0x20 SWAP1 SWAP3 ADD SWAP2 PUSH1 0x1 SWAP1 SWAP2 ADD SWAP1 PUSH2 0x4B88 JUMP JUMPDEST POP PUSH2 0x4BC9 SWAP3 SWAP2 POP PUSH2 0x4C09 JUMP JUMPDEST POP SWAP1 JUMP JUMPDEST PUSH1 0x40 MLOAD DUP1 PUSH1 0x60 ADD PUSH1 0x40 MSTORE DUP1 PUSH1 0x3 SWAP1 PUSH1 0x20 DUP3 MUL DUP1 CALLDATASIZE DUP4 CALLDATACOPY POP SWAP2 SWAP3 SWAP2 POP POP JUMP JUMPDEST PUSH1 0x40 MLOAD DUP1 PUSH1 0x80 ADD PUSH1 0x40 MSTORE DUP1 PUSH1 0x4 SWAP1 PUSH1 0x20 DUP3 MUL DUP1 CALLDATASIZE DUP4 CALLDATACOPY POP SWAP2 SWAP3 SWAP2 POP POP JUMP JUMPDEST JUMPDEST DUP1 DUP3 GT ISZERO PUSH2 0x4BC9 JUMPI DUP1 SLOAD PUSH1 0x1 PUSH1 0x1 PUSH1 0xA0 SHL SUB NOT AND DUP2 SSTORE PUSH1 0x1 ADD PUSH2 0x4C0A JUMP JUMPDEST DUP1 MLOAD PUSH2 0x19BA DUP2 PUSH2 0x59AC JUMP JUMPDEST PUSH1 0x0 DUP1 DUP4 PUSH1 0x1F DUP5 ADD SLT PUSH2 0x4C44 JUMPI DUP1 DUP2 REVERT JUMPDEST POP DUP2 CALLDATALOAD PUSH8 0xFFFFFFFFFFFFFFFF DUP2 GT ISZERO PUSH2 0x4C5B JUMPI DUP2 DUP3 REVERT JUMPDEST PUSH1 0x20 DUP4 ADD SWAP2 POP DUP4 PUSH1 0x20 DUP1 DUP4 MUL DUP6 ADD ADD GT ISZERO PUSH2 0x4C75 JUMPI PUSH1 0x0 DUP1 REVERT JUMPDEST SWAP3 POP SWAP3 SWAP1 POP JUMP JUMPDEST DUP1 PUSH1 0x40 DUP2 ADD DUP4 LT ISZERO PUSH2 0x19BA JUMPI PUSH1 0x0 DUP1 REVERT JUMPDEST DUP1 PUSH1 0x60 DUP2 ADD DUP4 LT ISZERO PUSH2 0x19BA JUMPI PUSH1 0x0 DUP1 REVERT JUMPDEST DUP1 PUSH1 0x80 DUP2 ADD DUP4 LT ISZERO PUSH2 0x19BA JUMPI PUSH1 0x0 DUP1 REVERT JUMPDEST PUSH1 0x0 DUP1 DUP4 PUSH1 0x1F DUP5 ADD SLT PUSH2 0x4CC0 JUMPI DUP2 DUP3 REVERT JUMPDEST POP DUP2 CALLDATALOAD PUSH8 0xFFFFFFFFFFFFFFFF DUP2 GT ISZERO PUSH2 0x4CD7 JUMPI DUP2 DUP3 REVERT JUMPDEST PUSH1 0x20 DUP4 ADD SWAP2 POP DUP4 PUSH1 0x20 DUP3 DUP6 ADD ADD GT ISZERO PUSH2 0x4C75 JUMPI PUSH1 0x0 DUP1 REVERT JUMPDEST PUSH1 0x0 PUSH1 0x20 DUP3 DUP5 SUB SLT ISZERO PUSH2 0x4D00 JUMPI DUP1 DUP2 REVERT JUMPDEST DUP2 CALLDATALOAD PUSH2 0x462F DUP2 PUSH2 0x59AC JUMP JUMPDEST PUSH1 0x0 PUSH1 0x20 DUP3 DUP5 SUB SLT ISZERO PUSH2 0x4D1C JUMPI DUP1 DUP2 REVERT JUMPDEST DUP2 MLOAD PUSH2 0x462F DUP2 PUSH2 0x59AC JUMP JUMPDEST PUSH1 0x0 DUP1 PUSH1 0x40 DUP4 DUP6 SUB SLT ISZERO PUSH2 0x4D39 JUMPI DUP1 DUP2 REVERT JUMPDEST DUP3 CALLDATALOAD PUSH2 0x4D44 DUP2 PUSH2 0x59AC JUMP JUMPDEST SWAP2 POP PUSH1 0x20 DUP4 ADD CALLDATALOAD PUSH2 0x4D54 DUP2 PUSH2 0x59AC JUMP JUMPDEST DUP1 SWAP2 POP POP SWAP3 POP SWAP3 SWAP1 POP JUMP JUMPDEST PUSH1 0x0 DUP1 PUSH1 0x0 DUP1 PUSH1 0x0 DUP1 PUSH1 0x0 DUP1 PUSH1 0xA0 DUP10 DUP12 SUB SLT ISZERO PUSH2 0x4D7A JUMPI DUP4 DUP5 REVERT JUMPDEST DUP9 CALLDATALOAD PUSH2 0x4D85 DUP2 PUSH2 0x59AC JUMP JUMPDEST SWAP8 POP PUSH1 0x20 DUP10 ADD CALLDATALOAD PUSH2 0x4D95 DUP2 PUSH2 0x59AC JUMP JUMPDEST SWAP7 POP PUSH1 0x40 DUP10 ADD CALLDATALOAD PUSH8 0xFFFFFFFFFFFFFFFF DUP1 DUP3 GT ISZERO PUSH2 0x4DB1 JUMPI DUP6 DUP7 REVERT JUMPDEST PUSH2 0x4DBD DUP13 DUP4 DUP14 ADD PUSH2 0x4C33 JUMP JUMPDEST SWAP1 SWAP9 POP SWAP7 POP PUSH1 0x60 DUP12 ADD CALLDATALOAD SWAP2 POP DUP1 DUP3 GT ISZERO PUSH2 0x4DD5 JUMPI DUP6 DUP7 REVERT JUMPDEST PUSH2 0x4DE1 DUP13 DUP4 DUP14 ADD PUSH2 0x4C33 JUMP JUMPDEST SWAP1 SWAP7 POP SWAP5 POP PUSH1 0x80 DUP12 ADD CALLDATALOAD SWAP2 POP DUP1 DUP3 GT ISZERO PUSH2 0x4DF9 JUMPI DUP4 DUP5 REVERT JUMPDEST POP PUSH2 0x4E06 DUP12 DUP3 DUP13 ADD PUSH2 0x4CAF JUMP JUMPDEST SWAP10 SWAP13 SWAP9 SWAP12 POP SWAP7 SWAP10 POP SWAP5 SWAP8 SWAP4 SWAP7 SWAP3 SWAP6 SWAP5 POP POP POP JUMP JUMPDEST PUSH1 0x0 DUP1 PUSH1 0x0 DUP1 PUSH1 0x80 DUP6 DUP8 SUB SLT ISZERO PUSH2 0x4E2F JUMPI DUP4 DUP5 REVERT JUMPDEST DUP5 MLOAD PUSH2 0x4E3A DUP2 PUSH2 0x59AC JUMP JUMPDEST PUSH1 0x20 DUP7 ADD MLOAD SWAP1 SWAP5 POP PUSH2 0x4E4B DUP2 PUSH2 0x59AC JUMP JUMPDEST PUSH1 0x40 DUP7 ADD MLOAD PUSH1 0x60 SWAP1 SWAP7 ADD MLOAD SWAP5 SWAP8 SWAP1 SWAP7 POP SWAP3 POP POP POP JUMP JUMPDEST PUSH1 0x0 DUP1 PUSH1 0x0 DUP1 PUSH1 0x0 DUP1 PUSH1 0xA0 DUP8 DUP10 SUB SLT ISZERO PUSH2 0x4E79 JUMPI DUP2 DUP3 REVERT JUMPDEST DUP7 CALLDATALOAD PUSH2 0x4E84 DUP2 PUSH2 0x59AC JUMP JUMPDEST SWAP6 POP PUSH1 0x20 DUP8 ADD CALLDATALOAD PUSH2 0x4E94 DUP2 PUSH2 0x59AC JUMP JUMPDEST SWAP5 POP PUSH1 0x40 DUP8 ADD CALLDATALOAD SWAP4 POP PUSH1 0x60 DUP8 ADD CALLDATALOAD SWAP3 POP PUSH1 0x80 DUP8 ADD CALLDATALOAD PUSH8 0xFFFFFFFFFFFFFFFF DUP2 GT ISZERO PUSH2 0x4EBD JUMPI DUP3 DUP4 REVERT JUMPDEST PUSH2 0x4EC9 DUP10 DUP3 DUP11 ADD PUSH2 0x4CAF JUMP JUMPDEST SWAP8 SWAP11 SWAP7 SWAP10 POP SWAP5 SWAP8 POP SWAP3 SWAP6 SWAP4 SWAP5 SWAP3 POP POP POP JUMP JUMPDEST PUSH1 0x0 DUP1 PUSH1 0x0 DUP1 PUSH1 0x0 DUP1 PUSH1 0x0 DUP1 PUSH2 0x140 DUP10 DUP12 SUB SLT ISZERO PUSH2 0x4EF7 JUMPI DUP4 DUP5 REVERT JUMPDEST DUP9 CALLDATALOAD PUSH2 0x4F02 DUP2 PUSH2 0x59AC JUMP JUMPDEST SWAP8 POP PUSH2 0x4F11 DUP11 PUSH1 0x20 DUP12 ADD PUSH2 0x4C7C JUMP JUMPDEST SWAP7 POP PUSH1 0x60 DUP10 ADD CALLDATALOAD SWAP6 POP PUSH2 0x4F27 DUP11 PUSH1 0x80 DUP12 ADD PUSH2 0x4C7C JUMP JUMPDEST SWAP8 SWAP11 SWAP7 SWAP10 POP SWAP5 SWAP8 PUSH1 0xC0 DUP2 ADD CALLDATALOAD SWAP7 PUSH1 0xE0 DUP3 ADD CALLDATALOAD SWAP7 POP PUSH2 0x100 DUP3 ADD CALLDATALOAD SWAP6 POP PUSH2 0x120 SWAP1 SWAP2 ADD CALLDATALOAD SWAP4 POP SWAP2 POP POP JUMP JUMPDEST PUSH1 0x0 DUP1 PUSH1 0x0 DUP1 PUSH1 0x0 DUP1 PUSH1 0x0 DUP1 PUSH2 0x180 DUP10 DUP12 SUB SLT ISZERO PUSH2 0x4F6D JUMPI DUP2 DUP3 REVERT JUMPDEST DUP9 CALLDATALOAD PUSH2 0x4F78 DUP2 PUSH2 0x59AC JUMP JUMPDEST SWAP8 POP PUSH2 0x4F87 DUP11 PUSH1 0x20 DUP12 ADD PUSH2 0x4C8D JUMP JUMPDEST SWAP7 POP PUSH1 0x80 DUP10 ADD CALLDATALOAD SWAP6 POP PUSH2 0x4F9D DUP11 PUSH1 0xA0 DUP12 ADD PUSH2 0x4C8D JUMP JUMPDEST SWAP8 SWAP11 SWAP7 SWAP10 POP SWAP5 SWAP8 PUSH2 0x100 DUP2 ADD CALLDATALOAD SWAP7 PUSH2 0x120 DUP3 ADD CALLDATALOAD SWAP7 POP PUSH2 0x140 DUP3 ADD CALLDATALOAD SWAP6 POP PUSH2 0x160 SWAP1 SWAP2 ADD CALLDATALOAD SWAP4 POP SWAP2 POP POP JUMP JUMPDEST PUSH1 0x0 DUP1 PUSH1 0x0 DUP1 PUSH1 0x0 DUP1 PUSH1 0x0 DUP1 PUSH2 0x1C0 DUP10 DUP12 SUB SLT ISZERO PUSH2 0x4FE5 JUMPI DUP2 DUP3 REVERT JUMPDEST DUP9 CALLDATALOAD PUSH2 0x4FF0 DUP2 PUSH2 0x59AC JUMP JUMPDEST SWAP8 POP PUSH2 0x4FFF DUP11 PUSH1 0x20 DUP12 ADD PUSH2 0x4C9E JUMP JUMPDEST SWAP7 POP PUSH1 0xA0 DUP10 ADD CALLDATALOAD SWAP6 POP PUSH2 0x5015 DUP11 PUSH1 0xC0 DUP12 ADD PUSH2 0x4C9E JUMP JUMPDEST SWAP8 SWAP11 SWAP7 SWAP10 POP SWAP5 SWAP8 PUSH2 0x140 DUP2 ADD CALLDATALOAD SWAP7 PUSH2 0x160 DUP3 ADD CALLDATALOAD SWAP7 POP PUSH2 0x180 DUP3 ADD CALLDATALOAD SWAP6 POP PUSH2 0x1A0 SWAP1 SWAP2 ADD CALLDATALOAD SWAP4 POP SWAP2 POP POP JUMP JUMPDEST PUSH1 0x0 DUP1 PUSH1 0x40 DUP4 DUP6 SUB SLT ISZERO PUSH2 0x5053 JUMPI DUP2 DUP3 REVERT JUMPDEST DUP3 CALLDATALOAD PUSH2 0x505E DUP2 PUSH2 0x59AC JUMP JUMPDEST SWAP5 PUSH1 0x20 SWAP4 SWAP1 SWAP4 ADD CALLDATALOAD SWAP4 POP POP POP JUMP JUMPDEST PUSH1 0x0 DUP1 PUSH1 0x0 DUP1 PUSH1 0x0 DUP1 PUSH2 0x100 DUP8 DUP10 SUB SLT ISZERO PUSH2 0x5085 JUMPI DUP4 DUP5 REVERT JUMPDEST DUP7 CALLDATALOAD PUSH2 0x5090 DUP2 PUSH2 0x59AC JUMP JUMPDEST SWAP6 POP PUSH1 0x20 DUP8 ADD CALLDATALOAD SWAP5 POP PUSH1 0x40 DUP8 ADD CALLDATALOAD SWAP4 POP PUSH2 0x50AD DUP9 PUSH1 0x60 DUP10 ADD PUSH2 0x4C7C JUMP JUMPDEST SWAP3 POP PUSH1 0xA0 DUP8 ADD CALLDATALOAD SWAP2 POP PUSH2 0x50C3 DUP9 PUSH1 0xC0 DUP10 ADD PUSH2 0x4C7C JUMP JUMPDEST SWAP1 POP SWAP3 SWAP6 POP SWAP3 SWAP6 POP SWAP3 SWAP6 JUMP JUMPDEST PUSH1 0x0 DUP1 PUSH1 0x0 DUP1 PUSH1 0x0 DUP1 PUSH2 0x140 DUP8 DUP10 SUB SLT ISZERO PUSH2 0x50E8 JUMPI DUP4 DUP5 REVERT JUMPDEST DUP7 CALLDATALOAD PUSH2 0x50F3 DUP2 PUSH2 0x59AC JUMP JUMPDEST SWAP6 POP PUSH1 0x20 DUP8 ADD CALLDATALOAD SWAP5 POP PUSH1 0x40 DUP8 ADD CALLDATALOAD SWAP4 POP PUSH2 0x5110 DUP9 PUSH1 0x60 DUP10 ADD PUSH2 0x4C8D JUMP JUMPDEST SWAP3 POP PUSH1 0xC0 DUP8 ADD CALLDATALOAD SWAP2 POP PUSH2 0x50C3 DUP9 PUSH1 0xE0 DUP10 ADD PUSH2 0x4C8D JUMP JUMPDEST PUSH1 0x0 DUP1 PUSH1 0x0 DUP1 PUSH1 0x0 DUP1 PUSH2 0x180 DUP8 DUP10 SUB SLT ISZERO PUSH2 0x513F JUMPI DUP4 DUP5 REVERT JUMPDEST DUP7 CALLDATALOAD PUSH2 0x514A DUP2 PUSH2 0x59AC JUMP JUMPDEST SWAP6 POP PUSH1 0x20 DUP8 ADD CALLDATALOAD SWAP5 POP PUSH1 0x40 DUP8 ADD CALLDATALOAD SWAP4 POP PUSH2 0x5167 DUP9 PUSH1 0x60 DUP10 ADD PUSH2 0x4C9E JUMP JUMPDEST SWAP3 POP PUSH1 0xE0 DUP8 ADD CALLDATALOAD SWAP2 POP PUSH2 0x50C3 DUP9 PUSH2 0x100 DUP10 ADD PUSH2 0x4C9E JUMP JUMPDEST PUSH1 0x0 PUSH2 0x100 DUP1 DUP4 DUP6 SUB SLT ISZERO PUSH2 0x5191 JUMPI DUP2 DUP3 REVERT JUMPDEST DUP4 PUSH1 0x1F DUP5 ADD SLT PUSH2 0x519F JUMPI DUP2 DUP3 REVERT JUMPDEST PUSH1 0x40 MLOAD DUP2 DUP2 ADD DUP2 DUP2 LT PUSH8 0xFFFFFFFFFFFFFFFF DUP3 GT OR ISZERO PUSH2 0x51BD JUMPI DUP4 DUP5 REVERT JUMPDEST PUSH1 0x40 MSTORE DUP1 DUP5 DUP4 DUP2 ADD DUP8 LT ISZERO PUSH2 0x51D0 JUMPI DUP5 DUP6 REVERT JUMPDEST DUP5 SWAP4 POP JUMPDEST PUSH1 0x8 DUP5 LT ISZERO PUSH2 0x51FC JUMPI PUSH2 0x51E7 DUP8 DUP3 PUSH2 0x4C28 JUMP JUMPDEST DUP3 MSTORE PUSH1 0x1 SWAP4 SWAP1 SWAP4 ADD SWAP3 PUSH1 0x20 SWAP2 DUP3 ADD SWAP2 ADD PUSH2 0x51D4 JUMP JUMPDEST POP SWAP1 SWAP6 SWAP5 POP POP POP POP POP JUMP JUMPDEST PUSH1 0x0 DUP1 PUSH1 0x0 DUP1 PUSH1 0x40 DUP6 DUP8 SUB SLT ISZERO PUSH2 0x521C JUMPI DUP2 DUP3 REVERT JUMPDEST DUP5 CALLDATALOAD PUSH8 0xFFFFFFFFFFFFFFFF DUP1 DUP3 GT ISZERO PUSH2 0x5233 JUMPI DUP4 DUP5 REVERT JUMPDEST PUSH2 0x523F DUP9 DUP4 DUP10 ADD PUSH2 0x4C33 JUMP JUMPDEST SWAP1 SWAP7 POP SWAP5 POP PUSH1 0x20 DUP8 ADD CALLDATALOAD SWAP2 POP DUP1 DUP3 GT ISZERO PUSH2 0x5257 JUMPI DUP4 DUP5 REVERT JUMPDEST POP PUSH2 0x5264 DUP8 DUP3 DUP9 ADD PUSH2 0x4C33 JUMP JUMPDEST SWAP6 SWAP9 SWAP5 SWAP8 POP SWAP6 POP POP POP POP JUMP JUMPDEST PUSH1 0x0 PUSH1 0x20 DUP3 DUP5 SUB SLT ISZERO PUSH2 0x5281 JUMPI DUP1 DUP2 REVERT JUMPDEST DUP2 CALLDATALOAD PUSH2 0x462F DUP2 PUSH2 0x59C4 JUMP JUMPDEST PUSH1 0x0 PUSH1 0x20 DUP3 DUP5 SUB SLT ISZERO PUSH2 0x529D JUMPI DUP1 DUP2 REVERT JUMPDEST DUP2 MLOAD PUSH2 0x462F DUP2 PUSH2 0x59C4 JUMP JUMPDEST PUSH1 0x0 PUSH1 0x20 DUP3 DUP5 SUB SLT ISZERO PUSH2 0x52B9 JUMPI DUP1 DUP2 REVERT JUMPDEST DUP2 CALLDATALOAD PUSH1 0x1 PUSH1 0x1 PUSH1 0xE0 SHL SUB NOT DUP2 AND DUP2 EQ PUSH2 0x462F JUMPI DUP2 DUP3 REVERT JUMPDEST PUSH1 0x0 PUSH1 0x20 DUP3 DUP5 SUB SLT ISZERO PUSH2 0x52E1 JUMPI DUP1 DUP2 REVERT JUMPDEST POP MLOAD SWAP2 SWAP1 POP JUMP JUMPDEST PUSH1 0x0 DUP1 PUSH1 0x40 DUP4 DUP6 SUB SLT ISZERO PUSH2 0x52FA JUMPI DUP2 DUP3 REVERT JUMPDEST POP POP DUP1 MLOAD PUSH1 0x20 SWAP1 SWAP2 ADD MLOAD SWAP1 SWAP3 SWAP1 SWAP2 POP JUMP JUMPDEST PUSH1 0x0 DUP1 PUSH1 0x0 PUSH1 0x60 DUP5 DUP7 SUB SLT ISZERO PUSH2 0x531F JUMPI DUP1 DUP2 REVERT JUMPDEST DUP4 MLOAD SWAP3 POP PUSH1 0x20 DUP5 ADD MLOAD SWAP2 POP PUSH1 0x40 DUP5 ADD MLOAD SWAP1 POP SWAP3 POP SWAP3 POP SWAP3 JUMP JUMPDEST DUP1 PUSH1 0x0 JUMPDEST PUSH1 0x2 DUP2 LT ISZERO PUSH2 0x535B JUMPI DUP2 MLOAD DUP5 MSTORE PUSH1 0x20 SWAP4 DUP5 ADD SWAP4 SWAP1 SWAP2 ADD SWAP1 PUSH1 0x1 ADD PUSH2 0x533C JUMP JUMPDEST POP POP POP POP JUMP JUMPDEST DUP1 PUSH1 0x0 JUMPDEST PUSH1 0x3 DUP2 LT ISZERO PUSH2 0x535B JUMPI DUP2 MLOAD DUP5 MSTORE PUSH1 0x20 SWAP4 DUP5 ADD SWAP4 SWAP1 SWAP2 ADD SWAP1 PUSH1 0x1 ADD PUSH2 0x5365 JUMP JUMPDEST DUP1 PUSH1 0x0 JUMPDEST PUSH1 0x4 DUP2 LT ISZERO PUSH2 0x535B JUMPI DUP2 MLOAD DUP5 MSTORE PUSH1 0x20 SWAP4 DUP5 ADD SWAP4 SWAP1 SWAP2 ADD SWAP1 PUSH1 0x1 ADD PUSH2 0x5388 JUMP JUMPDEST PUSH1 0x0 DUP3 MLOAD PUSH2 0x53B9 DUP2 DUP5 PUSH1 0x20 DUP8 ADD PUSH2 0x5980 JUMP JUMPDEST SWAP2 SWAP1 SWAP2 ADD SWAP3 SWAP2 POP POP JUMP JUMPDEST PUSH1 0x1 PUSH1 0x1 PUSH1 0xA0 SHL SUB SWAP2 SWAP1 SWAP2 AND DUP2 MSTORE PUSH1 0x20 ADD SWAP1 JUMP JUMPDEST PUSH1 0x1 PUSH1 0x1 PUSH1 0xA0 SHL SUB SWAP3 DUP4 AND DUP2 MSTORE SWAP2 AND PUSH1 0x20 DUP3 ADD MSTORE PUSH1 0x40 ADD SWAP1 JUMP JUMPDEST PUSH1 0x1 PUSH1 0x1 PUSH1 0xA0 SHL SUB SWAP3 SWAP1 SWAP3 AND DUP3 MSTORE PUSH1 0x20 DUP3 ADD MSTORE PUSH1 0x40 ADD SWAP1 JUMP JUMPDEST PUSH1 0x1 PUSH1 0x1 PUSH1 0xA0 SHL SUB SWAP4 SWAP1 SWAP4 AND DUP4 MSTORE PUSH1 0x20 DUP4 ADD SWAP2 SWAP1 SWAP2 MSTORE PUSH1 0x40 DUP3 ADD MSTORE PUSH1 0x60 ADD SWAP1 JUMP JUMPDEST PUSH1 0x60 DUP2 ADD PUSH2 0x5439 DUP3 DUP6 PUSH2 0x5338 JUMP JUMPDEST DUP3 PUSH1 0x40 DUP4 ADD MSTORE SWAP4 SWAP3 POP POP POP JUMP JUMPDEST PUSH1 0x80 DUP2 ADD PUSH2 0x5454 DUP3 DUP6 PUSH2 0x5361 JUMP JUMPDEST DUP3 PUSH1 0x60 DUP4 ADD MSTORE SWAP4 SWAP3 POP POP POP JUMP JUMPDEST PUSH1 0xA0 DUP2 ADD PUSH2 0x546F DUP3 DUP6 PUSH2 0x5384 JUMP JUMPDEST DUP3 PUSH1 0x80 DUP4 ADD MSTORE SWAP4 SWAP3 POP POP POP JUMP JUMPDEST SWAP1 ISZERO ISZERO DUP2 MSTORE PUSH1 0x20 ADD SWAP1 JUMP JUMPDEST PUSH1 0x1 PUSH1 0x1 PUSH1 0xE0 SHL SUB NOT SWAP2 SWAP1 SWAP2 AND DUP2 MSTORE PUSH1 0x20 ADD SWAP1 JUMP JUMPDEST PUSH1 0x0 PUSH1 0x20 DUP3 MSTORE DUP3 MLOAD DUP1 PUSH1 0x20 DUP5 ADD MSTORE PUSH2 0x54BB DUP2 PUSH1 0x40 DUP6 ADD PUSH1 0x20 DUP8 ADD PUSH2 0x5980 JUMP JUMPDEST PUSH1 0x1F ADD PUSH1 0x1F NOT AND SWAP2 SWAP1 SWAP2 ADD PUSH1 0x40 ADD SWAP3 SWAP2 POP POP JUMP JUMPDEST PUSH1 0x20 DUP1 DUP3 MSTORE PUSH1 0x11 SWAP1 DUP3 ADD MSTORE PUSH17 0x1A5B98DBDC9C9958DD0818DBDB1B081A59 PUSH1 0x7A SHL PUSH1 0x40 DUP3 ADD MSTORE PUSH1 0x60 ADD SWAP1 JUMP JUMPDEST PUSH1 0x20 DUP1 DUP3 MSTORE PUSH1 0x18 SWAP1 DUP3 ADD MSTORE PUSH32 0x6E6F74207468652070656E64696E6720676F7665726E6F720000000000000000 PUSH1 0x40 DUP3 ADD MSTORE PUSH1 0x60 ADD SWAP1 JUMP JUMPDEST PUSH1 0x20 DUP1 DUP3 MSTORE PUSH1 0x1B SWAP1 DUP3 ADD MSTORE PUSH32 0x536166654D6174683A206164646974696F6E206F766572666C6F770000000000 PUSH1 0x40 DUP3 ADD MSTORE PUSH1 0x60 ADD SWAP1 JUMP JUMPDEST PUSH1 0x20 DUP1 DUP3 MSTORE PUSH1 0x1B SWAP1 DUP3 ADD MSTORE PUSH32 0x6F7261636C65206E6F7420737570706F7274206C7020746F6B656E0000000000 PUSH1 0x40 DUP3 ADD MSTORE PUSH1 0x60 ADD SWAP1 JUMP JUMPDEST PUSH1 0x20 DUP1 DUP3 MSTORE PUSH1 0x24 SWAP1 DUP3 ADD MSTORE PUSH32 0x636F6C6C61746572616C20746F6B656E202620776761756765206D69736D6174 PUSH1 0x40 DUP3 ADD MSTORE PUSH4 0x18DA1959 PUSH1 0xE2 SHL PUSH1 0x60 DUP3 ADD MSTORE PUSH1 0x80 ADD SWAP1 JUMP JUMPDEST PUSH1 0x20 DUP1 DUP3 MSTORE PUSH1 0x1E SWAP1 DUP3 ADD MSTORE PUSH32 0x536166654D6174683A207375627472616374696F6E206F766572666C6F770000 PUSH1 0x40 DUP3 ADD MSTORE PUSH1 0x60 ADD SWAP1 JUMP JUMPDEST PUSH1 0x20 DUP1 DUP3 MSTORE PUSH1 0x26 SWAP1 DUP3 ADD MSTORE PUSH32 0x416464726573733A20696E73756666696369656E742062616C616E636520666F PUSH1 0x40 DUP3 ADD MSTORE PUSH6 0x1C8818D85B1B PUSH1 0xD2 SHL PUSH1 0x60 DUP3 ADD MSTORE PUSH1 0x80 ADD SWAP1 JUMP JUMPDEST PUSH1 0x20 DUP1 DUP3 MSTORE PUSH1 0x10 SWAP1 DUP3 ADD MSTORE PUSH16 0x3737BA103A34329033B7BB32B93737B9 PUSH1 0x81 SHL PUSH1 0x40 DUP3 ADD MSTORE PUSH1 0x60 ADD SWAP1 JUMP JUMPDEST PUSH1 0x20 DUP1 DUP3 MSTORE PUSH1 0x25 SWAP1 DUP3 ADD MSTORE PUSH32 0x6C70546F6B656E732026207374617475736573206C656E677468206D69736D61 PUSH1 0x40 DUP3 ADD MSTORE PUSH5 0x1D18DA1959 PUSH1 0xDA SHL PUSH1 0x60 DUP3 ADD MSTORE PUSH1 0x80 ADD SWAP1 JUMP JUMPDEST PUSH1 0x20 DUP1 DUP3 MSTORE PUSH1 0xB SWAP1 DUP3 ADD MSTORE PUSH11 0x3737903638103A37B5B2B7 PUSH1 0xA9 SHL PUSH1 0x40 DUP3 ADD MSTORE PUSH1 0x60 ADD SWAP1 JUMP JUMPDEST PUSH1 0x20 DUP1 DUP3 MSTORE PUSH1 0x18 SWAP1 DUP3 ADD MSTORE PUSH32 0x6C7020746F6B656E206E6F742077686974656C69737465640000000000000000 PUSH1 0x40 DUP3 ADD MSTORE PUSH1 0x60 ADD SWAP1 JUMP JUMPDEST PUSH1 0x20 DUP1 DUP3 MSTORE PUSH1 0xE SWAP1 DUP3 ADD MSTORE PUSH14 0x189859081C1A59081BDC8819DA59 PUSH1 0x92 SHL PUSH1 0x40 DUP3 ADD MSTORE PUSH1 0x60 ADD SWAP1 JUMP JUMPDEST PUSH1 0x20 DUP1 DUP3 MSTORE PUSH1 0x17 SWAP1 DUP3 ADD MSTORE PUSH32 0x455448206D75737420636F6D652066726F6D2057455448000000000000000000 PUSH1 0x40 DUP3 ADD MSTORE PUSH1 0x60 ADD SWAP1 JUMP JUMPDEST PUSH1 0x20 DUP1 DUP3 MSTORE PUSH1 0x22 SWAP1 DUP3 ADD MSTORE PUSH32 0x6E6F20636F72726573706F6E64696E6720706F6F6C20666F72206C7020746F6B PUSH1 0x40 DUP3 ADD MSTORE PUSH2 0x32B7 PUSH1 0xF1 SHL PUSH1 0x60 DUP3 ADD MSTORE PUSH1 0x80 ADD SWAP1 JUMP JUMPDEST PUSH1 0x20 DUP1 DUP3 MSTORE PUSH1 0x1D SWAP1 DUP3 ADD MSTORE PUSH32 0x416464726573733A2063616C6C20746F206E6F6E2D636F6E7472616374000000 PUSH1 0x40 DUP3 ADD MSTORE PUSH1 0x60 ADD SWAP1 JUMP JUMPDEST PUSH1 0x20 DUP1 DUP3 MSTORE PUSH1 0x14 SWAP1 DUP3 ADD MSTORE PUSH20 0x696E636F727265637420756E6465726C79696E67 PUSH1 0x60 SHL PUSH1 0x40 DUP3 ADD MSTORE PUSH1 0x60 ADD SWAP1 JUMP JUMPDEST PUSH1 0x20 DUP1 DUP3 MSTORE PUSH1 0x2A SWAP1 DUP3 ADD MSTORE PUSH32 0x5361666545524332303A204552433230206F7065726174696F6E20646964206E PUSH1 0x40 DUP3 ADD MSTORE PUSH10 0x1BDD081CDD58D8D95959 PUSH1 0xB2 SHL PUSH1 0x60 DUP3 ADD MSTORE PUSH1 0x80 ADD SWAP1 JUMP JUMPDEST PUSH1 0x20 DUP1 DUP3 MSTORE PUSH1 0x36 SWAP1 DUP3 ADD MSTORE PUSH32 0x5361666545524332303A20617070726F76652066726F6D206E6F6E2D7A65726F PUSH1 0x40 DUP3 ADD MSTORE PUSH22 0x20746F206E6F6E2D7A65726F20616C6C6F77616E6365 PUSH1 0x50 SHL PUSH1 0x60 DUP3 ADD MSTORE PUSH1 0x80 ADD SWAP1 JUMP JUMPDEST PUSH1 0x20 DUP1 DUP3 MSTORE PUSH1 0x15 SWAP1 DUP3 ADD MSTORE PUSH21 0xD2DCC6DEE4E4CAC6E840E0DEDED840D8CADCCEE8D PUSH1 0x5B SHL PUSH1 0x40 DUP3 ADD MSTORE PUSH1 0x60 ADD SWAP1 JUMP JUMPDEST SWAP1 DUP2 MSTORE PUSH1 0x20 ADD SWAP1 JUMP JUMPDEST SWAP2 DUP3 MSTORE PUSH1 0x1 PUSH1 0x1 PUSH1 0xA0 SHL SUB AND PUSH1 0x20 DUP3 ADD MSTORE PUSH1 0x40 ADD SWAP1 JUMP JUMPDEST DUP3 DUP2 MSTORE PUSH1 0x60 DUP2 ADD PUSH2 0x462F PUSH1 0x20 DUP4 ADD DUP5 PUSH2 0x5338 JUMP JUMPDEST DUP3 DUP2 MSTORE PUSH1 0x80 DUP2 ADD PUSH2 0x462F PUSH1 0x20 DUP4 ADD DUP5 PUSH2 0x5361 JUMP JUMPDEST DUP3 DUP2 MSTORE PUSH1 0xA0 DUP2 ADD PUSH2 0x462F PUSH1 0x20 DUP4 ADD DUP5 PUSH2 0x5384 JUMP JUMPDEST SWAP2 DUP3 MSTORE PUSH1 0x20 DUP3 ADD MSTORE PUSH1 0x40 ADD SWAP1 JUMP JUMPDEST SWAP3 DUP4 MSTORE PUSH1 0x20 DUP4 ADD SWAP2 SWAP1 SWAP2 MSTORE PUSH1 0x40 DUP3 ADD MSTORE PUSH1 0x60 ADD SWAP1 JUMP JUMPDEST PUSH1 0x0 JUMPDEST DUP4 DUP2 LT ISZERO PUSH2 0x599B JUMPI DUP2 DUP2 ADD MLOAD DUP4 DUP3 ADD MSTORE PUSH1 0x20 ADD PUSH2 0x5983 JUMP JUMPDEST DUP4 DUP2 GT ISZERO PUSH2 0x535B JUMPI POP POP PUSH1 0x0 SWAP2 ADD MSTORE JUMP JUMPDEST PUSH1 0x1 PUSH1 0x1 PUSH1 0xA0 SHL SUB DUP2 AND DUP2 EQ PUSH2 0x59C1 JUMPI PUSH1 0x0 DUP1 REVERT JUMPDEST POP JUMP JUMPDEST DUP1 ISZERO ISZERO DUP2 EQ PUSH2 0x59C1 JUMPI PUSH1 0x0 DUP1 REVERT INVALID LOG2 PUSH5 0x6970667358 0x22 SLT KECCAK256 CHAINID 0xE8 0x2D SWAP14 0xA7 SWAP11 0x2A 0xC 0x29 0xB6 0x4C EXTCODEHASH 0xB1 SWAP3 SELFBALANCE 0xBF MUL SWAP9 0x4A PUSH9 0x56AEC8296581BD77AF STOP SWAP11 0xAB PUSH5 0x736F6C6343 STOP MOD 0xC STOP CALLER ",
  "sha1": "d96b18e86f1fcebc6a22e167da334eff0576b05b",
  "source": "// SPDX-License-Identifier: MIT\n\npragma solidity 0.6.12;\npragma experimental ABIEncoderV2;\n\nimport 'OpenZeppelin/openzeppelin-contracts@3.4.0/contracts/token/ERC20/IERC20.sol';\nimport 'OpenZeppelin/openzeppelin-contracts@3.4.0/contracts/math/SafeMath.sol';\n\nimport './WhitelistSpell.sol';\nimport '../utils/HomoraMath.sol';\nimport '../../interfaces/ICurvePool.sol';\nimport '../../interfaces/ICurveRegistry.sol';\nimport '../../interfaces/IWLiquidityGauge.sol';\n\ncontract CurveSpellV1 is WhitelistSpell {\n  using SafeMath for uint;\n  using HomoraMath for uint;\n\n  ICurveRegistry public immutable registry; // Curve registry\n  IWLiquidityGauge public immutable wgauge; // Wrapped liquidity gauge\n  address public immutable crv; // CRV token address\n  mapping(address => address[]) public ulTokens; // Mapping from LP token address -> underlying token addresses\n  mapping(address => address) public poolOf; // Mapping from LP token address to -> pool address\n\n  constructor(\n    IBank _bank,\n    address _werc20,\n    address _weth,\n    address _wgauge\n  ) public WhitelistSpell(_bank, _werc20, _weth) {\n    wgauge = IWLiquidityGauge(_wgauge);\n    IWLiquidityGauge(_wgauge).setApprovalForAll(address(_bank), true);\n    registry = IWLiquidityGauge(_wgauge).registry();\n    crv = address(IWLiquidityGauge(_wgauge).crv());\n  }\n\n  /// @dev Return pool address given LP token and update pool info if not exist.\n  /// @param lp LP token to find the corresponding pool.\n  function getPool(address lp) public returns (address) {\n    address pool = poolOf[lp];\n    if (pool == address(0)) {\n      require(lp != address(0), 'no lp token');\n      pool = registry.get_pool_from_lp_token(lp);\n      require(pool != address(0), 'no corresponding pool for lp token');\n      poolOf[lp] = pool;\n      (uint n, ) = registry.get_n_coins(pool);\n      address[8] memory tokens = registry.get_coins(pool);\n      ulTokens[lp] = new address[](n);\n      for (uint i = 0; i < n; i++) {\n        ulTokens[lp][i] = tokens[i];\n      }\n    }\n    return pool;\n  }\n\n  /// @dev Ensure approval of underlying tokens to the corresponding Curve pool\n  /// @param lp LP token for the pool\n  /// @param n Number of pool's underlying tokens\n  function ensureApproveN(address lp, uint n) public {\n    require(ulTokens[lp].length == n, 'incorrect pool length');\n    address pool = poolOf[lp];\n    address[] memory tokens = ulTokens[lp];\n    for (uint idx = 0; idx < n; idx++) {\n      ensureApprove(tokens[idx], pool);\n    }\n  }\n\n  /// @dev Add liquidity to Curve pool with 2 underlying tokens, with staking to Curve gauge\n  /// @param lp LP token for the pool\n  /// @param amtsUser Supplied underlying token amounts\n  /// @param amtLPUser Supplied LP token amount\n  /// @param amtsBorrow Borrow underlying token amounts\n  /// @param amtLPBorrow Borrow LP token amount\n  /// @param minLPMint Desired LP token amount (slippage control)\n  /// @param pid Curve pool id for the pool\n  /// @param gid Curve gauge id for the pool\n  function addLiquidity2(\n    address lp,\n    uint[2] calldata amtsUser,\n    uint amtLPUser,\n    uint[2] calldata amtsBorrow,\n    uint amtLPBorrow,\n    uint minLPMint,\n    uint pid,\n    uint gid\n  ) external {\n    require(whitelistedLpTokens[lp], 'lp token not whitelisted');\n    address pool = getPool(lp);\n    require(ulTokens[lp].length == 2, 'incorrect pool length');\n    require(wgauge.getUnderlyingTokenFromIds(pid, gid) == lp, 'incorrect underlying');\n    address[] memory tokens = ulTokens[lp];\n\n    // 0. Take out collateral\n    (, address collToken, uint collId, uint collSize) = bank.getCurrentPositionInfo();\n    if (collSize > 0) {\n      (uint decodedPid, uint decodedGid, ) = wgauge.decodeId(collId);\n      require(decodedPid == pid && decodedGid == gid, 'bad pid or gid');\n      require(collToken == address(wgauge), 'collateral token & wgauge mismatched');\n      bank.takeCollateral(address(wgauge), collId, collSize);\n      wgauge.burn(collId, collSize);\n    }\n\n    // 1. Ensure approve 2 underlying tokens\n    ensureApproveN(lp, 2);\n\n    // 2. Get user input amounts\n    for (uint i = 0; i < 2; i++) doTransmit(tokens[i], amtsUser[i]);\n    doTransmit(lp, amtLPUser);\n\n    // 3. Borrow specified amounts\n    for (uint i = 0; i < 2; i++) doBorrow(tokens[i], amtsBorrow[i]);\n    doBorrow(lp, amtLPBorrow);\n\n    // 4. add liquidity\n    uint[2] memory suppliedAmts;\n    for (uint i = 0; i < 2; i++) {\n      suppliedAmts[i] = IERC20(tokens[i]).balanceOf(address(this));\n    }\n    if (suppliedAmts[0] > 0 || suppliedAmts[1] > 0) {\n      ICurvePool(pool).add_liquidity(suppliedAmts, minLPMint);\n    }\n\n    // 5. Put collateral\n    ensureApprove(lp, address(wgauge));\n    {\n      uint amount = IERC20(lp).balanceOf(address(this));\n      uint id = wgauge.mint(pid, gid, amount);\n      bank.putCollateral(address(wgauge), id, amount);\n    }\n\n    // 6. Refund\n    for (uint i = 0; i < 2; i++) doRefund(tokens[i]);\n\n    // 7. Refund crv\n    doRefund(crv);\n  }\n\n  /// @dev Add liquidity to Curve pool with 3 underlying tokens, with staking to Curve gauge\n  /// @param lp LP token for the pool\n  /// @param amtsUser Supplied underlying token amounts\n  /// @param amtLPUser Supplied LP token amount\n  /// @param amtsBorrow Borrow underlying token amounts\n  /// @param amtLPBorrow Borrow LP token amount\n  /// @param minLPMint Desired LP token amount (slippage control)\n  /// @param pid CUrve pool id for the pool\n  /// @param gid Curve gauge id for the pool\n  function addLiquidity3(\n    address lp,\n    uint[3] calldata amtsUser,\n    uint amtLPUser,\n    uint[3] calldata amtsBorrow,\n    uint amtLPBorrow,\n    uint minLPMint,\n    uint pid,\n    uint gid\n  ) external {\n    require(whitelistedLpTokens[lp], 'lp token not whitelisted');\n    address pool = getPool(lp);\n    require(ulTokens[lp].length == 3, 'incorrect pool length');\n    require(wgauge.getUnderlyingTokenFromIds(pid, gid) == lp, 'incorrect underlying');\n    address[] memory tokens = ulTokens[lp];\n\n    // 0. take out collateral\n    (, address collToken, uint collId, uint collSize) = bank.getCurrentPositionInfo();\n    if (collSize > 0) {\n      (uint decodedPid, uint decodedGid, ) = wgauge.decodeId(collId);\n      require(decodedPid == pid && decodedGid == gid, 'incorrect coll id');\n      require(collToken == address(wgauge), 'collateral token & wgauge mismatched');\n      bank.takeCollateral(address(wgauge), collId, collSize);\n      wgauge.burn(collId, collSize);\n    }\n\n    // 1. Ensure approve 3 underlying tokens\n    ensureApproveN(lp, 3);\n\n    // 2. Get user input amounts\n    for (uint i = 0; i < 3; i++) doTransmit(tokens[i], amtsUser[i]);\n    doTransmit(lp, amtLPUser);\n\n    // 3. Borrow specified amounts\n    for (uint i = 0; i < 3; i++) doBorrow(tokens[i], amtsBorrow[i]);\n    doBorrow(lp, amtLPBorrow);\n\n    // 4. add liquidity\n    uint[3] memory suppliedAmts;\n    for (uint i = 0; i < 3; i++) {\n      suppliedAmts[i] = IERC20(tokens[i]).balanceOf(address(this));\n    }\n    if (suppliedAmts[0] > 0 || suppliedAmts[1] > 0 || suppliedAmts[2] > 0) {\n      ICurvePool(pool).add_liquidity(suppliedAmts, minLPMint);\n    }\n\n    // 5. put collateral\n    ensureApprove(lp, address(wgauge));\n    {\n      uint amount = IERC20(lp).balanceOf(address(this));\n      uint id = wgauge.mint(pid, gid, amount);\n      bank.putCollateral(address(wgauge), id, amount);\n    }\n\n    // 6. Refund\n    for (uint i = 0; i < 3; i++) doRefund(tokens[i]);\n\n    // 7. Refund crv\n    doRefund(crv);\n  }\n\n  /// @dev Add liquidity to Curve pool with 4 underlying tokens, with staking to Curve gauge\n  /// @param lp LP token for the pool\n  /// @param amtsUser Supplied underlying token amounts\n  /// @param amtLPUser Supplied LP token amount\n  /// @param amtsBorrow Borrow underlying token amounts\n  /// @param amtLPBorrow Borrow LP token amount\n  /// @param minLPMint Desired LP token amount (slippage control)\n  /// @param pid CUrve pool id for the pool\n  /// @param gid Curve gauge id for the pool\n  function addLiquidity4(\n    address lp,\n    uint[4] calldata amtsUser,\n    uint amtLPUser,\n    uint[4] calldata amtsBorrow,\n    uint amtLPBorrow,\n    uint minLPMint,\n    uint pid,\n    uint gid\n  ) external {\n    require(whitelistedLpTokens[lp], 'lp token not whitelisted');\n    address pool = getPool(lp);\n    require(ulTokens[lp].length == 4, 'incorrect pool length');\n    require(wgauge.getUnderlyingTokenFromIds(pid, gid) == lp, 'incorrect underlying');\n    address[] memory tokens = ulTokens[lp];\n\n    // 0. Take out collateral\n    (, address collToken, uint collId, uint collSize) = bank.getCurrentPositionInfo();\n    if (collSize > 0) {\n      (uint decodedPid, uint decodedGid, ) = wgauge.decodeId(collId);\n      require(decodedPid == pid && decodedGid == gid, 'incorrect coll id');\n      require(collToken == address(wgauge), 'collateral token & wgauge mismatched');\n      bank.takeCollateral(address(wgauge), collId, collSize);\n      wgauge.burn(collId, collSize);\n    }\n\n    // 1. Ensure approve 4 underlying tokens\n    ensureApproveN(lp, 4);\n\n    // 2. Get user input amounts\n    for (uint i = 0; i < 4; i++) doTransmit(tokens[i], amtsUser[i]);\n    doTransmit(lp, amtLPUser);\n\n    // 3. Borrow specified amounts\n    for (uint i = 0; i < 4; i++) doBorrow(tokens[i], amtsBorrow[i]);\n    doBorrow(lp, amtLPBorrow);\n\n    // 4. add liquidity\n    uint[4] memory suppliedAmts;\n    for (uint i = 0; i < 4; i++) {\n      suppliedAmts[i] = IERC20(tokens[i]).balanceOf(address(this));\n    }\n    if (suppliedAmts[0] > 0 || suppliedAmts[1] > 0 || suppliedAmts[2] > 0 || suppliedAmts[3] > 0) {\n      ICurvePool(pool).add_liquidity(suppliedAmts, minLPMint);\n    }\n\n    // 5. Put collateral\n    ensureApprove(lp, address(wgauge));\n    {\n      uint amount = IERC20(lp).balanceOf(address(this));\n      uint id = wgauge.mint(pid, gid, amount);\n      bank.putCollateral(address(wgauge), id, amount);\n    }\n\n    // 6. Refund\n    for (uint i = 0; i < 4; i++) doRefund(tokens[i]);\n\n    // 7. Refund crv\n    doRefund(crv);\n  }\n\n  /// @dev Remove liquidity from Curve pool with 2 underlying tokens\n  /// @param lp LP token for the pool\n  /// @param amtLPTake Take out LP token amount (from Homora)\n  /// @param amtLPWithdraw Withdraw LP token amount (back to caller)\n  /// @param amtsRepay Repay underlying token amounts\n  /// @param amtLPRepay Repay LP token amount\n  /// @param amtsMin Desired underlying token amounts (slippage control)\n  function removeLiquidity2(\n    address lp,\n    uint amtLPTake,\n    uint amtLPWithdraw,\n    uint[2] calldata amtsRepay,\n    uint amtLPRepay,\n    uint[2] calldata amtsMin\n  ) external {\n    require(whitelistedLpTokens[lp], 'lp token not whitelisted');\n    address pool = getPool(lp);\n    uint positionId = bank.POSITION_ID();\n    (, address collToken, uint collId, ) = bank.getPositionInfo(positionId);\n    require(IWLiquidityGauge(collToken).getUnderlyingToken(collId) == lp, 'incorrect underlying');\n    require(collToken == address(wgauge), 'collateral token & wgauge mismatched');\n    address[] memory tokens = ulTokens[lp];\n\n    // 0. Ensure approve\n    ensureApproveN(lp, 2);\n\n    // 1. Compute repay amount if MAX_INT is supplied (max debt)\n    uint[2] memory actualAmtsRepay;\n    for (uint i = 0; i < 2; i++) {\n      actualAmtsRepay[i] = amtsRepay[i] == uint(-1)\n        ? bank.borrowBalanceCurrent(positionId, tokens[i])\n        : amtsRepay[i];\n    }\n    uint[2] memory amtsDesired;\n    for (uint i = 0; i < 2; i++) {\n      amtsDesired[i] = actualAmtsRepay[i].add(amtsMin[i]); // repay amt + slippage control\n    }\n\n    // 2. Take out collateral\n    bank.takeCollateral(address(wgauge), collId, amtLPTake);\n    wgauge.burn(collId, amtLPTake);\n\n    // 3. Compute amount to actually remove. Remove to repay just enough\n    uint amtLPToRemove;\n    if (amtsDesired[0] > 0 || amtsDesired[1] > 0) {\n      amtLPToRemove = IERC20(lp).balanceOf(address(this)).sub(amtLPWithdraw);\n      ICurvePool(pool).remove_liquidity_imbalance(amtsDesired, amtLPToRemove);\n    }\n\n    // 4. Compute leftover amount to remove. Remove balancedly.\n    amtLPToRemove = IERC20(lp).balanceOf(address(this)).sub(amtLPWithdraw);\n    if (amtLPToRemove > 0) {\n      uint[2] memory mins;\n      ICurvePool(pool).remove_liquidity(amtLPToRemove, mins);\n    }\n    // 5. Repay\n    for (uint i = 0; i < 2; i++) {\n      doRepay(tokens[i], actualAmtsRepay[i]);\n    }\n    doRepay(lp, amtLPRepay);\n\n    // 6. Refund\n    for (uint i = 0; i < 2; i++) {\n      doRefund(tokens[i]);\n    }\n    doRefund(lp);\n\n    // 7. Refund crv\n    doRefund(crv);\n  }\n\n  /// @dev Remove liquidity from Curve pool with 3 underlying tokens\n  /// @param lp LP token for the pool\n  /// @param amtLPTake Take out LP token amount (from Homora)\n  /// @param amtLPWithdraw Withdraw LP token amount (back to caller)\n  /// @param amtsRepay Repay underlying token amounts\n  /// @param amtLPRepay Repay LP token amount\n  /// @param amtsMin Desired underlying token amounts (slippage control)\n  function removeLiquidity3(\n    address lp,\n    uint amtLPTake,\n    uint amtLPWithdraw,\n    uint[3] calldata amtsRepay,\n    uint amtLPRepay,\n    uint[3] calldata amtsMin\n  ) external {\n    require(whitelistedLpTokens[lp], 'lp token not whitelisted');\n    address pool = getPool(lp);\n    uint positionId = bank.POSITION_ID();\n    (, address collToken, uint collId, ) = bank.getPositionInfo(positionId);\n    require(IWLiquidityGauge(collToken).getUnderlyingToken(collId) == lp, 'incorrect underlying');\n    require(collToken == address(wgauge), 'collateral token & wgauge mismatched');\n    address[] memory tokens = ulTokens[lp];\n\n    // 0. Ensure approve\n    ensureApproveN(lp, 3);\n\n    // 1. Compute repay amount if MAX_INT is supplied (max debt)\n    uint[3] memory actualAmtsRepay;\n    for (uint i = 0; i < 3; i++) {\n      actualAmtsRepay[i] = amtsRepay[i] == uint(-1)\n        ? bank.borrowBalanceCurrent(positionId, tokens[i])\n        : amtsRepay[i];\n    }\n    uint[3] memory amtsDesired;\n    for (uint i = 0; i < 3; i++) {\n      amtsDesired[i] = actualAmtsRepay[i].add(amtsMin[i]); // repay amt + slippage control\n    }\n\n    // 2. Take out collateral\n    bank.takeCollateral(address(wgauge), collId, amtLPTake);\n    wgauge.burn(collId, amtLPTake);\n\n    // 3. Compute amount to actually remove. Remove to repay just enough\n    uint amtLPToRemove;\n    if (amtsDesired[0] > 0 || amtsDesired[1] > 0 || amtsDesired[2] > 0) {\n      amtLPToRemove = IERC20(lp).balanceOf(address(this)).sub(amtLPWithdraw);\n      ICurvePool(pool).remove_liquidity_imbalance(amtsDesired, amtLPToRemove);\n    }\n\n    // 4. Compute leftover amount to remove. Remove balancedly.\n    amtLPToRemove = IERC20(lp).balanceOf(address(this)).sub(amtLPWithdraw);\n    if (amtLPToRemove > 0) {\n      uint[3] memory mins;\n      ICurvePool(pool).remove_liquidity(amtLPToRemove, mins);\n    }\n\n    // 5. Repay\n    for (uint i = 0; i < 3; i++) {\n      doRepay(tokens[i], actualAmtsRepay[i]);\n    }\n    doRepay(lp, amtLPRepay);\n\n    // 6. Refund\n    for (uint i = 0; i < 3; i++) {\n      doRefund(tokens[i]);\n    }\n    doRefund(lp);\n\n    // 7. Refund crv\n    doRefund(crv);\n  }\n\n  /// @dev Remove liquidity from Curve pool with 4 underlying tokens\n  /// @param lp LP token for the pool\n  /// @param amtLPTake Take out LP token amount (from Homora)\n  /// @param amtLPWithdraw Withdraw LP token amount (back to caller)\n  /// @param amtsRepay Repay underlying token amounts\n  /// @param amtLPRepay Repay LP token amount\n  /// @param amtsMin Desired underlying token amounts (slippage control)\n  function removeLiquidity4(\n    address lp,\n    uint amtLPTake,\n    uint amtLPWithdraw,\n    uint[4] calldata amtsRepay,\n    uint amtLPRepay,\n    uint[4] calldata amtsMin\n  ) external {\n    require(whitelistedLpTokens[lp], 'lp token not whitelisted');\n    address pool = getPool(lp);\n    uint positionId = bank.POSITION_ID();\n    (, address collToken, uint collId, ) = bank.getPositionInfo(positionId);\n    require(IWLiquidityGauge(collToken).getUnderlyingToken(collId) == lp, 'incorrect underlying');\n    require(collToken == address(wgauge), 'collateral token & wgauge mismatched');\n    address[] memory tokens = ulTokens[lp];\n\n    // 0. Ensure approve\n    ensureApproveN(lp, 4);\n\n    // 1. Compute repay amount if MAX_INT is supplied (max debt)\n    uint[4] memory actualAmtsRepay;\n    for (uint i = 0; i < 4; i++) {\n      actualAmtsRepay[i] = amtsRepay[i] == uint(-1)\n        ? bank.borrowBalanceCurrent(positionId, tokens[i])\n        : amtsRepay[i];\n    }\n    uint[4] memory amtsDesired;\n    for (uint i = 0; i < 4; i++) {\n      amtsDesired[i] = actualAmtsRepay[i].add(amtsMin[i]); // repay amt + slippage control\n    }\n\n    // 2. Take out collateral\n    bank.takeCollateral(address(wgauge), collId, amtLPTake);\n    wgauge.burn(collId, amtLPTake);\n\n    // 3. Compute amount to actually remove. Remove to repay just enough\n    uint amtLPToRemove;\n    if (amtsDesired[0] > 0 || amtsDesired[1] > 0 || amtsDesired[2] > 0 || amtsDesired[3] > 0) {\n      amtLPToRemove = IERC20(lp).balanceOf(address(this)).sub(amtLPWithdraw);\n      ICurvePool(pool).remove_liquidity_imbalance(amtsDesired, amtLPToRemove);\n    }\n\n    // 4. Compute leftover amount to remove. Remove balancedly.\n    amtLPToRemove = IERC20(lp).balanceOf(address(this)).sub(amtLPWithdraw);\n    if (amtLPToRemove > 0) {\n      uint[4] memory mins;\n      ICurvePool(pool).remove_liquidity(amtLPToRemove, mins);\n    }\n\n    // 5. Repay\n    for (uint i = 0; i < 4; i++) {\n      doRepay(tokens[i], actualAmtsRepay[i]);\n    }\n    doRepay(lp, amtLPRepay);\n\n    // 6. Refund\n    for (uint i = 0; i < 4; i++) {\n      doRefund(tokens[i]);\n    }\n    doRefund(lp);\n\n    // 7. Refund crv\n    doRefund(crv);\n  }\n\n  /// @dev Harvest CRV reward tokens to in-exec position's owner\n  function harvest() external {\n    (, address collToken, uint collId, uint collSize) = bank.getCurrentPositionInfo();\n    (uint pid, uint gid, ) = wgauge.decodeId(collId);\n    address lp = wgauge.getUnderlyingToken(collId);\n    require(whitelistedLpTokens[lp], 'lp token not whitelisted');\n    require(collToken == address(wgauge), 'collateral token & wgauge mismatched');\n\n    // 1. Take out collateral\n    bank.takeCollateral(address(wgauge), collId, collSize);\n    wgauge.burn(collId, collSize);\n\n    // 2. Put collateral\n    uint amount = IERC20(lp).balanceOf(address(this));\n    ensureApprove(lp, address(wgauge));\n    uint id = wgauge.mint(pid, gid, amount);\n    bank.putCollateral(address(wgauge), id, amount);\n\n    // 3. Refund crv\n    doRefund(crv);\n  }\n}\n",
  "sourcePath": "contracts/spell/CurveSpellV1.sol",
  "type": "contract"
}