{
  "abi": [
    {
      "anonymous": false,
      "inputs": [
        {
          "indexed": false,
          "internalType": "address",
          "name": "governor",
          "type": "address"
        }
      ],
      "name": "AcceptGovernor",
      "type": "event"
    },
    {
      "anonymous": false,
      "inputs": [
        {
          "indexed": false,
          "internalType": "address",
          "name": "token",
          "type": "address"
        },
        {
          "indexed": false,
          "internalType": "address",
          "name": "cToken",
          "type": "address"
        }
      ],
      "name": "AddBank",
      "type": "event"
    },
    {
      "anonymous": false,
      "inputs": [
        {
          "indexed": false,
          "internalType": "uint256",
          "name": "positionId",
          "type": "uint256"
        },
        {
          "indexed": false,
          "internalType": "address",
          "name": "caller",
          "type": "address"
        },
        {
          "indexed": false,
          "internalType": "address",
          "name": "token",
          "type": "address"
        },
        {
          "indexed": false,
          "internalType": "uint256",
          "name": "amount",
          "type": "uint256"
        },
        {
          "indexed": false,
          "internalType": "uint256",
          "name": "share",
          "type": "uint256"
        }
      ],
      "name": "Borrow",
      "type": "event"
    },
    {
      "anonymous": false,
      "inputs": [
        {
          "indexed": false,
          "internalType": "uint256",
          "name": "positionId",
          "type": "uint256"
        },
        {
          "indexed": false,
          "internalType": "address",
          "name": "liquidator",
          "type": "address"
        },
        {
          "indexed": false,
          "internalType": "address",
          "name": "debtToken",
          "type": "address"
        },
        {
          "indexed": false,
          "internalType": "uint256",
          "name": "amount",
          "type": "uint256"
        },
        {
          "indexed": false,
          "internalType": "uint256",
          "name": "share",
          "type": "uint256"
        },
        {
          "indexed": false,
          "internalType": "uint256",
          "name": "bounty",
          "type": "uint256"
        }
      ],
      "name": "Liquidate",
      "type": "event"
    },
    {
      "anonymous": false,
      "inputs": [
        {
          "indexed": false,
          "internalType": "uint256",
          "name": "positionId",
          "type": "uint256"
        },
        {
          "indexed": false,
          "internalType": "address",
          "name": "caller",
          "type": "address"
        },
        {
          "indexed": false,
          "internalType": "address",
          "name": "token",
          "type": "address"
        },
        {
          "indexed": false,
          "internalType": "uint256",
          "name": "id",
          "type": "uint256"
        },
        {
          "indexed": false,
          "internalType": "uint256",
          "name": "amount",
          "type": "uint256"
        }
      ],
      "name": "PutCollateral",
      "type": "event"
    },
    {
      "anonymous": false,
      "inputs": [
        {
          "indexed": false,
          "internalType": "uint256",
          "name": "positionId",
          "type": "uint256"
        },
        {
          "indexed": false,
          "internalType": "address",
          "name": "caller",
          "type": "address"
        },
        {
          "indexed": false,
          "internalType": "address",
          "name": "token",
          "type": "address"
        },
        {
          "indexed": false,
          "internalType": "uint256",
          "name": "amount",
          "type": "uint256"
        },
        {
          "indexed": false,
          "internalType": "uint256",
          "name": "share",
          "type": "uint256"
        }
      ],
      "name": "Repay",
      "type": "event"
    },
    {
      "anonymous": false,
      "inputs": [
        {
          "indexed": false,
          "internalType": "address",
          "name": "exec",
          "type": "address"
        }
      ],
      "name": "SetExec",
      "type": "event"
    },
    {
      "anonymous": false,
      "inputs": [
        {
          "indexed": false,
          "internalType": "uint256",
          "name": "feeBps",
          "type": "uint256"
        }
      ],
      "name": "SetFeeBps",
      "type": "event"
    },
    {
      "anonymous": false,
      "inputs": [
        {
          "indexed": false,
          "internalType": "address",
          "name": "governor",
          "type": "address"
        }
      ],
      "name": "SetGovernor",
      "type": "event"
    },
    {
      "anonymous": false,
      "inputs": [
        {
          "indexed": false,
          "internalType": "address",
          "name": "oracle",
          "type": "address"
        }
      ],
      "name": "SetOracle",
      "type": "event"
    },
    {
      "anonymous": false,
      "inputs": [
        {
          "indexed": false,
          "internalType": "address",
          "name": "pendingGovernor",
          "type": "address"
        }
      ],
      "name": "SetPendingGovernor",
      "type": "event"
    },
    {
      "anonymous": false,
      "inputs": [
        {
          "indexed": false,
          "internalType": "uint256",
          "name": "positionId",
          "type": "uint256"
        },
        {
          "indexed": false,
          "internalType": "address",
          "name": "caller",
          "type": "address"
        },
        {
          "indexed": false,
          "internalType": "address",
          "name": "token",
          "type": "address"
        },
        {
          "indexed": false,
          "internalType": "uint256",
          "name": "id",
          "type": "uint256"
        },
        {
          "indexed": false,
          "internalType": "uint256",
          "name": "amount",
          "type": "uint256"
        }
      ],
      "name": "TakeCollateral",
      "type": "event"
    },
    {
      "anonymous": false,
      "inputs": [
        {
          "indexed": false,
          "internalType": "address",
          "name": "user",
          "type": "address"
        },
        {
          "indexed": false,
          "internalType": "address",
          "name": "token",
          "type": "address"
        },
        {
          "indexed": false,
          "internalType": "uint256",
          "name": "amount",
          "type": "uint256"
        }
      ],
      "name": "WithdrawReserve",
      "type": "event"
    },
    {
      "inputs": [],
      "name": "EXECUTOR",
      "outputs": [
        {
          "internalType": "address",
          "name": "",
          "type": "address"
        }
      ],
      "stateMutability": "view",
      "type": "function"
    },
    {
      "inputs": [],
      "name": "POSITION_ID",
      "outputs": [
        {
          "internalType": "uint256",
          "name": "",
          "type": "uint256"
        }
      ],
      "stateMutability": "view",
      "type": "function"
    },
    {
      "inputs": [],
      "name": "SPELL",
      "outputs": [
        {
          "internalType": "address",
          "name": "",
          "type": "address"
        }
      ],
      "stateMutability": "view",
      "type": "function"
    },
    {
      "inputs": [],
      "name": "_GENERAL_LOCK",
      "outputs": [
        {
          "internalType": "uint256",
          "name": "",
          "type": "uint256"
        }
      ],
      "stateMutability": "view",
      "type": "function"
    },
    {
      "inputs": [],
      "name": "_IN_EXEC_LOCK",
      "outputs": [
        {
          "internalType": "uint256",
          "name": "",
          "type": "uint256"
        }
      ],
      "stateMutability": "view",
      "type": "function"
    },
    {
      "inputs": [],
      "name": "acceptGovernor",
      "outputs": [],
      "stateMutability": "nonpayable",
      "type": "function"
    },
    {
      "inputs": [
        {
          "internalType": "address",
          "name": "token",
          "type": "address"
        }
      ],
      "name": "accrue",
      "outputs": [],
      "stateMutability": "nonpayable",
      "type": "function"
    },
    {
      "inputs": [
        {
          "internalType": "address[]",
          "name": "tokens",
          "type": "address[]"
        }
      ],
      "name": "accrueAll",
      "outputs": [],
      "stateMutability": "nonpayable",
      "type": "function"
    },
    {
      "inputs": [
        {
          "internalType": "address",
          "name": "token",
          "type": "address"
        },
        {
          "internalType": "address",
          "name": "cToken",
          "type": "address"
        }
      ],
      "name": "addBank",
      "outputs": [],
      "stateMutability": "nonpayable",
      "type": "function"
    },
    {
      "inputs": [
        {
          "internalType": "uint256",
          "name": "",
          "type": "uint256"
        }
      ],
      "name": "allBanks",
      "outputs": [
        {
          "internalType": "address",
          "name": "",
          "type": "address"
        }
      ],
      "stateMutability": "view",
      "type": "function"
    },
    {
      "inputs": [],
      "name": "allowBorrowStatus",
      "outputs": [
        {
          "internalType": "bool",
          "name": "",
          "type": "bool"
        }
      ],
      "stateMutability": "view",
      "type": "function"
    },
    {
      "inputs": [],
      "name": "allowContractCalls",
      "outputs": [
        {
          "internalType": "bool",
          "name": "",
          "type": "bool"
        }
      ],
      "stateMutability": "view",
      "type": "function"
    },
    {
      "inputs": [],
      "name": "allowRepayStatus",
      "outputs": [
        {
          "internalType": "bool",
          "name": "",
          "type": "bool"
        }
      ],
      "stateMutability": "view",
      "type": "function"
    },
    {
      "inputs": [],
      "name": "bankStatus",
      "outputs": [
        {
          "internalType": "uint256",
          "name": "",
          "type": "uint256"
        }
      ],
      "stateMutability": "view",
      "type": "function"
    },
    {
      "inputs": [
        {
          "internalType": "address",
          "name": "",
          "type": "address"
        }
      ],
      "name": "banks",
      "outputs": [
        {
          "internalType": "bool",
          "name": "isListed",
          "type": "bool"
        },
        {
          "internalType": "uint8",
          "name": "index",
          "type": "uint8"
        },
        {
          "internalType": "address",
          "name": "cToken",
          "type": "address"
        },
        {
          "internalType": "uint256",
          "name": "reserve",
          "type": "uint256"
        },
        {
          "internalType": "uint256",
          "name": "totalDebt",
          "type": "uint256"
        },
        {
          "internalType": "uint256",
          "name": "totalShare",
          "type": "uint256"
        }
      ],
      "stateMutability": "view",
      "type": "function"
    },
    {
      "inputs": [
        {
          "internalType": "address",
          "name": "token",
          "type": "address"
        },
        {
          "internalType": "uint256",
          "name": "amount",
          "type": "uint256"
        }
      ],
      "name": "borrow",
      "outputs": [],
      "stateMutability": "nonpayable",
      "type": "function"
    },
    {
      "inputs": [
        {
          "internalType": "uint256",
          "name": "positionId",
          "type": "uint256"
        },
        {
          "internalType": "address",
          "name": "token",
          "type": "address"
        }
      ],
      "name": "borrowBalanceCurrent",
      "outputs": [
        {
          "internalType": "uint256",
          "name": "",
          "type": "uint256"
        }
      ],
      "stateMutability": "nonpayable",
      "type": "function"
    },
    {
      "inputs": [
        {
          "internalType": "uint256",
          "name": "positionId",
          "type": "uint256"
        },
        {
          "internalType": "address",
          "name": "token",
          "type": "address"
        }
      ],
      "name": "borrowBalanceStored",
      "outputs": [
        {
          "internalType": "uint256",
          "name": "",
          "type": "uint256"
        }
      ],
      "stateMutability": "view",
      "type": "function"
    },
    {
      "inputs": [
        {
          "internalType": "address",
          "name": "",
          "type": "address"
        }
      ],
      "name": "cTokenInBank",
      "outputs": [
        {
          "internalType": "bool",
          "name": "",
          "type": "bool"
        }
      ],
      "stateMutability": "view",
      "type": "function"
    },
    {
      "inputs": [],
      "name": "caster",
      "outputs": [
        {
          "internalType": "address",
          "name": "",
          "type": "address"
        }
      ],
      "stateMutability": "view",
      "type": "function"
    },
    {
      "inputs": [],
      "name": "exec",
      "outputs": [
        {
          "internalType": "address",
          "name": "",
          "type": "address"
        }
      ],
      "stateMutability": "view",
      "type": "function"
    },
    {
      "inputs": [
        {
          "internalType": "uint256",
          "name": "positionId",
          "type": "uint256"
        },
        {
          "internalType": "address",
          "name": "spell",
          "type": "address"
        },
        {
          "internalType": "bytes",
          "name": "data",
          "type": "bytes"
        }
      ],
      "name": "execute",
      "outputs": [
        {
          "internalType": "uint256",
          "name": "",
          "type": "uint256"
        }
      ],
      "stateMutability": "payable",
      "type": "function"
    },
    {
      "inputs": [],
      "name": "feeBps",
      "outputs": [
        {
          "internalType": "uint256",
          "name": "",
          "type": "uint256"
        }
      ],
      "stateMutability": "view",
      "type": "function"
    },
    {
      "inputs": [
        {
          "internalType": "address",
          "name": "token",
          "type": "address"
        }
      ],
      "name": "getBankInfo",
      "outputs": [
        {
          "internalType": "bool",
          "name": "isListed",
          "type": "bool"
        },
        {
          "internalType": "address",
          "name": "cToken",
          "type": "address"
        },
        {
          "internalType": "uint256",
          "name": "reserve",
          "type": "uint256"
        },
        {
          "internalType": "uint256",
          "name": "totalDebt",
          "type": "uint256"
        },
        {
          "internalType": "uint256",
          "name": "totalShare",
          "type": "uint256"
        }
      ],
      "stateMutability": "view",
      "type": "function"
    },
    {
      "inputs": [
        {
          "internalType": "uint256",
          "name": "positionId",
          "type": "uint256"
        }
      ],
      "name": "getBorrowETHValue",
      "outputs": [
        {
          "internalType": "uint256",
          "name": "",
          "type": "uint256"
        }
      ],
      "stateMutability": "view",
      "type": "function"
    },
    {
      "inputs": [
        {
          "internalType": "uint256",
          "name": "positionId",
          "type": "uint256"
        }
      ],
      "name": "getCollateralETHValue",
      "outputs": [
        {
          "internalType": "uint256",
          "name": "",
          "type": "uint256"
        }
      ],
      "stateMutability": "view",
      "type": "function"
    },
    {
      "inputs": [],
      "name": "getCurrentPositionInfo",
      "outputs": [
        {
          "internalType": "address",
          "name": "owner",
          "type": "address"
        },
        {
          "internalType": "address",
          "name": "collToken",
          "type": "address"
        },
        {
          "internalType": "uint256",
          "name": "collId",
          "type": "uint256"
        },
        {
          "internalType": "uint256",
          "name": "collateralSize",
          "type": "uint256"
        }
      ],
      "stateMutability": "view",
      "type": "function"
    },
    {
      "inputs": [
        {
          "internalType": "uint256",
          "name": "positionId",
          "type": "uint256"
        },
        {
          "internalType": "address",
          "name": "token",
          "type": "address"
        }
      ],
      "name": "getPositionDebtShareOf",
      "outputs": [
        {
          "internalType": "uint256",
          "name": "",
          "type": "uint256"
        }
      ],
      "stateMutability": "view",
      "type": "function"
    },
    {
      "inputs": [
        {
          "internalType": "uint256",
          "name": "positionId",
          "type": "uint256"
        }
      ],
      "name": "getPositionDebts",
      "outputs": [
        {
          "internalType": "address[]",
          "name": "tokens",
          "type": "address[]"
        },
        {
          "internalType": "uint256[]",
          "name": "debts",
          "type": "uint256[]"
        }
      ],
      "stateMutability": "view",
      "type": "function"
    },
    {
      "inputs": [
        {
          "internalType": "uint256",
          "name": "positionId",
          "type": "uint256"
        }
      ],
      "name": "getPositionInfo",
      "outputs": [
        {
          "internalType": "address",
          "name": "owner",
          "type": "address"
        },
        {
          "internalType": "address",
          "name": "collToken",
          "type": "address"
        },
        {
          "internalType": "uint256",
          "name": "collId",
          "type": "uint256"
        },
        {
          "internalType": "uint256",
          "name": "collateralSize",
          "type": "uint256"
        }
      ],
      "stateMutability": "view",
      "type": "function"
    },
    {
      "inputs": [],
      "name": "governor",
      "outputs": [
        {
          "internalType": "address",
          "name": "",
          "type": "address"
        }
      ],
      "stateMutability": "view",
      "type": "function"
    },
    {
      "inputs": [
        {
          "internalType": "contract IOracle",
          "name": "_oracle",
          "type": "address"
        },
        {
          "internalType": "uint256",
          "name": "_feeBps",
          "type": "uint256"
        }
      ],
      "name": "initialize",
      "outputs": [],
      "stateMutability": "nonpayable",
      "type": "function"
    },
    {
      "inputs": [
        {
          "internalType": "uint256",
          "name": "positionId",
          "type": "uint256"
        },
        {
          "internalType": "address",
          "name": "debtToken",
          "type": "address"
        },
        {
          "internalType": "uint256",
          "name": "amountCall",
          "type": "uint256"
        }
      ],
      "name": "liquidate",
      "outputs": [],
      "stateMutability": "nonpayable",
      "type": "function"
    },
    {
      "inputs": [],
      "name": "nextPositionId",
      "outputs": [
        {
          "internalType": "uint256",
          "name": "",
          "type": "uint256"
        }
      ],
      "stateMutability": "view",
      "type": "function"
    },
    {
      "inputs": [
        {
          "internalType": "address",
          "name": "",
          "type": "address"
        },
        {
          "internalType": "address",
          "name": "",
          "type": "address"
        },
        {
          "internalType": "uint256[]",
          "name": "",
          "type": "uint256[]"
        },
        {
          "internalType": "uint256[]",
          "name": "",
          "type": "uint256[]"
        },
        {
          "internalType": "bytes",
          "name": "",
          "type": "bytes"
        }
      ],
      "name": "onERC1155BatchReceived",
      "outputs": [
        {
          "internalType": "bytes4",
          "name": "",
          "type": "bytes4"
        }
      ],
      "stateMutability": "nonpayable",
      "type": "function"
    },
    {
      "inputs": [
        {
          "internalType": "address",
          "name": "",
          "type": "address"
        },
        {
          "internalType": "address",
          "name": "",
          "type": "address"
        },
        {
          "internalType": "uint256",
          "name": "",
          "type": "uint256"
        },
        {
          "internalType": "uint256",
          "name": "",
          "type": "uint256"
        },
        {
          "internalType": "bytes",
          "name": "",
          "type": "bytes"
        }
      ],
      "name": "onERC1155Received",
      "outputs": [
        {
          "internalType": "bytes4",
          "name": "",
          "type": "bytes4"
        }
      ],
      "stateMutability": "nonpayable",
      "type": "function"
    },
    {
      "inputs": [],
      "name": "oracle",
      "outputs": [
        {
          "internalType": "contract IOracle",
          "name": "",
          "type": "address"
        }
      ],
      "stateMutability": "view",
      "type": "function"
    },
    {
      "inputs": [],
      "name": "pendingGovernor",
      "outputs": [
        {
          "internalType": "address",
          "name": "",
          "type": "address"
        }
      ],
      "stateMutability": "view",
      "type": "function"
    },
    {
      "inputs": [
        {
          "internalType": "uint256",
          "name": "",
          "type": "uint256"
        }
      ],
      "name": "positions",
      "outputs": [
        {
          "internalType": "address",
          "name": "owner",
          "type": "address"
        },
        {
          "internalType": "address",
          "name": "collToken",
          "type": "address"
        },
        {
          "internalType": "uint256",
          "name": "collId",
          "type": "uint256"
        },
        {
          "internalType": "uint256",
          "name": "collateralSize",
          "type": "uint256"
        },
        {
          "internalType": "uint256",
          "name": "debtMap",
          "type": "uint256"
        }
      ],
      "stateMutability": "view",
      "type": "function"
    },
    {
      "inputs": [
        {
          "internalType": "address",
          "name": "collToken",
          "type": "address"
        },
        {
          "internalType": "uint256",
          "name": "collId",
          "type": "uint256"
        },
        {
          "internalType": "uint256",
          "name": "amountCall",
          "type": "uint256"
        }
      ],
      "name": "putCollateral",
      "outputs": [],
      "stateMutability": "nonpayable",
      "type": "function"
    },
    {
      "inputs": [
        {
          "internalType": "address",
          "name": "token",
          "type": "address"
        },
        {
          "internalType": "uint256",
          "name": "amountCall",
          "type": "uint256"
        }
      ],
      "name": "repay",
      "outputs": [],
      "stateMutability": "nonpayable",
      "type": "function"
    },
    {
      "inputs": [
        {
          "internalType": "bool",
          "name": "ok",
          "type": "bool"
        }
      ],
      "name": "setAllowContractCalls",
      "outputs": [],
      "stateMutability": "nonpayable",
      "type": "function"
    },
    {
      "inputs": [
        {
          "internalType": "uint256",
          "name": "_bankStatus",
          "type": "uint256"
        }
      ],
      "name": "setBankStatus",
      "outputs": [],
      "stateMutability": "nonpayable",
      "type": "function"
    },
    {
      "inputs": [
        {
          "internalType": "address",
          "name": "_exec",
          "type": "address"
        }
      ],
      "name": "setExec",
      "outputs": [],
      "stateMutability": "nonpayable",
      "type": "function"
    },
    {
      "inputs": [
        {
          "internalType": "uint256",
          "name": "_feeBps",
          "type": "uint256"
        }
      ],
      "name": "setFeeBps",
      "outputs": [],
      "stateMutability": "nonpayable",
      "type": "function"
    },
    {
      "inputs": [
        {
          "internalType": "contract IOracle",
          "name": "_oracle",
          "type": "address"
        }
      ],
      "name": "setOracle",
      "outputs": [],
      "stateMutability": "nonpayable",
      "type": "function"
    },
    {
      "inputs": [
        {
          "internalType": "address",
          "name": "_pendingGovernor",
          "type": "address"
        }
      ],
      "name": "setPendingGovernor",
      "outputs": [],
      "stateMutability": "nonpayable",
      "type": "function"
    },
    {
      "inputs": [
        {
          "internalType": "address[]",
          "name": "spells",
          "type": "address[]"
        },
        {
          "internalType": "bool[]",
          "name": "statuses",
          "type": "bool[]"
        }
      ],
      "name": "setWhitelistSpells",
      "outputs": [],
      "stateMutability": "nonpayable",
      "type": "function"
    },
    {
      "inputs": [
        {
          "internalType": "address[]",
          "name": "tokens",
          "type": "address[]"
        },
        {
          "internalType": "bool[]",
          "name": "statuses",
          "type": "bool[]"
        }
      ],
      "name": "setWhitelistTokens",
      "outputs": [],
      "stateMutability": "nonpayable",
      "type": "function"
    },
    {
      "inputs": [
        {
          "internalType": "address[]",
          "name": "users",
          "type": "address[]"
        },
        {
          "internalType": "bool[]",
          "name": "statuses",
          "type": "bool[]"
        }
      ],
      "name": "setWhitelistUsers",
      "outputs": [],
      "stateMutability": "nonpayable",
      "type": "function"
    },
    {
      "inputs": [
        {
          "internalType": "address",
          "name": "token",
          "type": "address"
        }
      ],
      "name": "support",
      "outputs": [
        {
          "internalType": "bool",
          "name": "",
          "type": "bool"
        }
      ],
      "stateMutability": "view",
      "type": "function"
    },
    {
      "inputs": [
        {
          "internalType": "bytes4",
          "name": "interfaceId",
          "type": "bytes4"
        }
      ],
      "name": "supportsInterface",
      "outputs": [
        {
          "internalType": "bool",
          "name": "",
          "type": "bool"
        }
      ],
      "stateMutability": "view",
      "type": "function"
    },
    {
      "inputs": [
        {
          "internalType": "address",
          "name": "collToken",
          "type": "address"
        },
        {
          "internalType": "uint256",
          "name": "collId",
          "type": "uint256"
        },
        {
          "internalType": "uint256",
          "name": "amount",
          "type": "uint256"
        }
      ],
      "name": "takeCollateral",
      "outputs": [],
      "stateMutability": "nonpayable",
      "type": "function"
    },
    {
      "inputs": [
        {
          "internalType": "address",
          "name": "token",
          "type": "address"
        },
        {
          "internalType": "uint256",
          "name": "amount",
          "type": "uint256"
        }
      ],
      "name": "transmit",
      "outputs": [],
      "stateMutability": "nonpayable",
      "type": "function"
    },
    {
      "inputs": [
        {
          "internalType": "address",
          "name": "",
          "type": "address"
        }
      ],
      "name": "whitelistedSpells",
      "outputs": [
        {
          "internalType": "bool",
          "name": "",
          "type": "bool"
        }
      ],
      "stateMutability": "view",
      "type": "function"
    },
    {
      "inputs": [
        {
          "internalType": "address",
          "name": "",
          "type": "address"
        }
      ],
      "name": "whitelistedTokens",
      "outputs": [
        {
          "internalType": "bool",
          "name": "",
          "type": "bool"
        }
      ],
      "stateMutability": "view",
      "type": "function"
    },
    {
      "inputs": [
        {
          "internalType": "address",
          "name": "",
          "type": "address"
        }
      ],
      "name": "whitelistedUsers",
      "outputs": [
        {
          "internalType": "bool",
          "name": "",
          "type": "bool"
        }
      ],
      "stateMutability": "view",
      "type": "function"
    },
    {
      "inputs": [
        {
          "internalType": "address",
          "name": "token",
          "type": "address"
        },
        {
          "internalType": "uint256",
          "name": "amount",
          "type": "uint256"
        }
      ],
      "name": "withdrawReserve",
      "outputs": [],
      "stateMutability": "nonpayable",
      "type": "function"
    }
  ],
  "bytecode": "60806040523480156200001157600080fd5b50620000246301ffc9a760e01b6200003c565b62000036630271189760e51b6200003c565b620000c1565b6001600160e01b031980821614156200009c576040805162461bcd60e51b815260206004820152601c60248201527f4552433136353a20696e76616c696420696e7465726661636520696400000000604482015290519081900360640190fd5b6001600160e01b0319166000908152604260205260409020805460ff19166001179055565b614f7f80620000d16000396000f3fe6080604052600436106103815760003560e01c80637cbdae6f116101d1578063d05e44a411610102578063e58bb639116100a0578063f23a6e611161006f578063f23a6e61146111f3578063f621cc4814611293578063f70aedd9146112c6578063fc5d28a8146112db57610381565b8063e58bb63914611145578063e660cc081461115a578063ed963a171461118d578063f235757f146111c057610381565b8063d7ac71ff116100dc578063d7ac71ff146110be578063daf9c210146110d3578063dd6f3c7014611106578063e3056a341461113057610381565b8063d05e44a41461105b578063d2ffc9f314611070578063d44b11f01461108557610381565b806399fbab881161016f578063bc197c8111610149578063bc197c8114610ea7578063c1c0e9c414610ff8578063c9a4bb3f1461100d578063cd6dc6871461102257610381565b806399fbab8814610d51578063a20a590614610db2578063b60dae1214610e7d57610381565b806382a2fb9c116101ab57806382a2fb9c14610cbb57806386c0dc8814610cf4578063899346c714610d2757806392ff1ad914610d3c57610381565b80637cbdae6f14610c0a5780637dc0d1d014610c3457806380c3b8c214610c4957610381565b806348d6bbc2116102b657806368eb4ba81161025457806376636722116102235780637663672214610b1b57806379bd1eac14610b305780637adbf97314610b6f5780637b79413a14610ba257610381565b806368eb4ba8146109365780636d6af33414610975578063710a9f6814610a3857806372c27b6214610af157610381565b8063519f509911610290578063519f5099146108685780635787d291146108c4578063630dc7cb146108ee5780636680ac0b1461090357610381565b806348d6bbc21461072b5780634b8a3529146107645780634df890f61461079d57610381565b80632ffd889b1161032357806338bd678a116102fd57806338bd678a146105fa5780633a55f85e146106a85780633d30fb48146106db5780633d581d8e1461071657610381565b80632ffd889b146104db578063314568d9146104f0578063331d93641461052f57610381565b80630e5641e61161035f5780630e5641e61461042d5780631c58ce141461045457806322867d781461048d57806324a9d853146104c657610381565b806301ffc9a714610386578063071feca3146103ce5780630c340a24146103fc575b600080fd5b34801561039257600080fd5b506103ba600480360360208110156103a957600080fd5b50356001600160e01b031916611314565b604080519115158252519081900360200190f35b3480156103da57600080fd5b506103fa600480360360208110156103f157600080fd5b50351515611337565b005b34801561040857600080fd5b50610411611394565b604080516001600160a01b039092168252519081900360200190f35b34801561043957600080fd5b506104426113a9565b60408051918252519081900360200190f35b34801561046057600080fd5b506103fa6004803603604081101561047757600080fd5b506001600160a01b0381351690602001356113af565b34801561049957600080fd5b506103fa600480360360408110156104b057600080fd5b506001600160a01b03813516906020013561152b565b3480156104d257600080fd5b5061044261174c565b3480156104e757600080fd5b506103ba611752565b3480156104fc57600080fd5b506103fa6004803603606081101561051357600080fd5b506001600160a01b03813516906020810135906040013561175d565b34801561053b57600080fd5b506103fa6004803603604081101561055257600080fd5b810190602081018135600160201b81111561056c57600080fd5b82018360208201111561057e57600080fd5b803590602001918460208302840111600160201b8311171561059f57600080fd5b919390929091602081019035600160201b8111156105bc57600080fd5b8201836020820111156105ce57600080fd5b803590602001918460208302840111600160201b831117156105ef57600080fd5b509092509050611a3f565b34801561060657600080fd5b506103fa6004803603602081101561061d57600080fd5b810190602081018135600160201b81111561063757600080fd5b82018360208201111561064957600080fd5b803590602001918460208302840111600160201b8311171561066a57600080fd5b919080806020026020016040519081016040528093929190818152602001838360200280828437600092019190915250929550611bd2945050505050565b3480156106b457600080fd5b506103ba600480360360208110156106cb57600080fd5b50356001600160a01b0316611c06565b3480156106e757600080fd5b506103fa600480360360408110156106fe57600080fd5b506001600160a01b0381358116916020013516611c1b565b34801561072257600080fd5b506103ba611e9d565b34801561073757600080fd5b506103fa6004803603604081101561074e57600080fd5b506001600160a01b038135169060200135611ea8565b34801561077057600080fd5b506103fa6004803603604081101561078757600080fd5b506001600160a01b038135169060200135611fc8565b3480156107a957600080fd5b506103fa600480360360408110156107c057600080fd5b810190602081018135600160201b8111156107da57600080fd5b8201836020820111156107ec57600080fd5b803590602001918460208302840111600160201b8311171561080d57600080fd5b919390929091602081019035600160201b81111561082a57600080fd5b82018360208201111561083c57600080fd5b803590602001918460208302840111600160201b8311171561085d57600080fd5b5090925090506122cc565b34801561087457600080fd5b506108926004803603602081101561088b57600080fd5b50356123cb565b604080516001600160a01b03958616815293909416602084015282840191909152606082015290519081900360800190f35b3480156108d057600080fd5b50610442600480360360208110156108e757600080fd5b50356123ff565b3480156108fa57600080fd5b50610411612545565b34801561090f57600080fd5b506103fa6004803603602081101561092657600080fd5b50356001600160a01b03166125b5565b34801561094257600080fd5b506103fa6004803603606081101561095957600080fd5b506001600160a01b03813516906020810135906040013561270e565b34801561098157600080fd5b5061099f6004803603602081101561099857600080fd5b50356129c4565b604051808060200180602001838103835285818151815260200191508051906020019060200280838360005b838110156109e35781810151838201526020016109cb565b50505050905001838103825284818151815260200191508051906020019060200280838360005b83811015610a22578181015183820152602001610a0a565b5050505090500194505050505060405180910390f35b61044260048036036060811015610a4e57600080fd5b8135916001600160a01b0360208201351691810190606081016040820135600160201b811115610a7d57600080fd5b820183602082011115610a8f57600080fd5b803590602001918460018302840111600160201b83111715610ab057600080fd5b91908080601f016020809104026020016040519081016040528093929190818152602001838380828437600092019190915250929550612b64945050505050565b348015610afd57600080fd5b506103fa60048036036020811015610b1457600080fd5b5035612ee5565b348015610b2757600080fd5b50610411612fb0565b348015610b3c57600080fd5b506103fa60048036036060811015610b5357600080fd5b508035906001600160a01b036020820135169060400135612fbf565b348015610b7b57600080fd5b506103fa60048036036020811015610b9257600080fd5b50356001600160a01b03166132a9565b348015610bae57600080fd5b50610bd560048036036020811015610bc557600080fd5b50356001600160a01b03166133a2565b6040805195151586526001600160a01b0390941660208601528484019290925260608401526080830152519081900360a00190f35b348015610c1657600080fd5b506103fa60048036036020811015610c2d57600080fd5b50356133e2565b348015610c4057600080fd5b5061041161343f565b348015610c5557600080fd5b50610c7c60048036036020811015610c6c57600080fd5b50356001600160a01b031661344e565b60408051961515875260ff90951660208701526001600160a01b03909316858501526060850191909152608084015260a0830152519081900360c00190f35b348015610cc757600080fd5b5061044260048036036040811015610cde57600080fd5b50803590602001356001600160a01b0316613491565b348015610d0057600080fd5b506103ba60048036036020811015610d1757600080fd5b50356001600160a01b03166134af565b348015610d3357600080fd5b506104426134c4565b348015610d4857600080fd5b506104116134ca565b348015610d5d57600080fd5b50610d7b60048036036020811015610d7457600080fd5b50356134d9565b604080516001600160a01b039687168152949095166020850152838501929092526060830152608082015290519081900360a00190f35b348015610dbe57600080fd5b506103fa60048036036040811015610dd557600080fd5b810190602081018135600160201b811115610def57600080fd5b820183602082011115610e0157600080fd5b803590602001918460208302840111600160201b83111715610e2257600080fd5b919390929091602081019035600160201b811115610e3f57600080fd5b820183602082011115610e5157600080fd5b803590602001918460208302840111600160201b83111715610e7257600080fd5b509092509050613514565b348015610e8957600080fd5b5061044260048036036020811015610ea057600080fd5b5035613613565b348015610eb357600080fd5b50610fdb600480360360a0811015610eca57600080fd5b6001600160a01b038235811692602081013590911691810190606081016040820135600160201b811115610efd57600080fd5b820183602082011115610f0f57600080fd5b803590602001918460208302840111600160201b83111715610f3057600080fd5b919390929091602081019035600160201b811115610f4d57600080fd5b820183602082011115610f5f57600080fd5b803590602001918460208302840111600160201b83111715610f8057600080fd5b919390929091602081019035600160201b811115610f9d57600080fd5b820183602082011115610faf57600080fd5b803590602001918460018302840111600160201b83111715610fd057600080fd5b509092509050613731565b604080516001600160e01b03199092168252519081900360200190f35b34801561100457600080fd5b50610411613745565b34801561101957600080fd5b50610442613754565b34801561102e57600080fd5b506103fa6004803603604081101561104557600080fd5b506001600160a01b03813516906020013561375a565b34801561106757600080fd5b50610442613946565b34801561107c57600080fd5b506103ba61394c565b34801561109157600080fd5b50610442600480360360408110156110a857600080fd5b50803590602001356001600160a01b0316613955565b3480156110ca57600080fd5b50610442613981565b3480156110df57600080fd5b506103ba600480360360208110156110f657600080fd5b50356001600160a01b0316613987565b34801561111257600080fd5b506104116004803603602081101561112957600080fd5b503561399c565b34801561113c57600080fd5b506104116139c3565b34801561115157600080fd5b506103fa6139d2565b34801561116657600080fd5b506103ba6004803603602081101561117d57600080fd5b50356001600160a01b0316613a94565b34801561119957600080fd5b506103fa600480360360208110156111b057600080fd5b50356001600160a01b0316613b17565b3480156111cc57600080fd5b506103fa600480360360208110156111e357600080fd5b50356001600160a01b0316613bc3565b3480156111ff57600080fd5b50610fdb600480360360a081101561121657600080fd5b6001600160a01b03823581169260208101359091169160408201359160608101359181019060a081016080820135600160201b81111561125557600080fd5b82018360208201111561126757600080fd5b803590602001918460018302840111600160201b8311171561128857600080fd5b509092509050613c6f565b34801561129f57600080fd5b506103ba600480360360208110156112b657600080fd5b50356001600160a01b0316613c81565b3480156112d257600080fd5b50610892613c96565b3480156112e757600080fd5b50610442600480360360408110156112fe57600080fd5b50803590602001356001600160a01b0316613cf6565b6001600160e01b0319811660009081526042602052604090205460ff165b919050565b6094546001600160a01b03163314611381576040805162461bcd60e51b81526020600482015260086024820152676e6f74206578656360c01b604482015290519081900360640190fd5b608f805460ff1916911515919091179055565b6000546201000090046001600160a01b031681565b60935481565b6000546201000090046001600160a01b03163314611407576040805162461bcd60e51b815260206004820152601060248201526f3737ba103a34329033b7bb32b93737b960811b604482015290519081900360640190fd5b60016083541461144d576040805162461bcd60e51b815260206004820152600c60248201526b67656e6572616c206c6f636b60a01b604482015290519081900360640190fd5b60026083556001600160a01b0382166000908152608c60205260409020805460ff166114b1576040805162461bcd60e51b815260206004820152600e60248201526d18985b9ac81b9bdd08195e1a5cdd60921b604482015290519081900360640190fd5b60018101546114c09083613d6c565b60018201556114d96001600160a01b0384163384613dc9565b604080513381526001600160a01b038516602082015280820184905290517f1480bc3d4718a0a5fa9eb55d53e0b79a638148873fc124922bb0ec377425b85b9181900360600190a15050600160835550565b600019608554141561157b576040805162461bcd60e51b81526020600482015260146024820152733737ba103bb4ba3434b71032bc32b1baba34b7b760611b604482015290519081900360640190fd5b6086546001600160a01b031633146115cb576040805162461bcd60e51b815260206004820152600e60248201526d1b9bdd08199c9bdb481cdc195b1b60921b604482015290519081900360640190fd5b600160845414611611576040805162461bcd60e51b815260206004820152600c60248201526b696e2065786563206c6f636b60a01b604482015290519081900360640190fd5b600260845581611620816125b5565b611628611752565b61166d576040805162461bcd60e51b81526020600482015260116024820152701c995c185e481b9bdd08185b1b1bddd959607a1b604482015290519081900360640190fd5b6001600160a01b03831660009081526090602052604090205460ff166116d2576040805162461bcd60e51b81526020600482015260156024820152741d1bdad95b881b9bdd081dda1a5d195b1a5cdd1959605a1b604482015290519081900360640190fd5b6000806116e26085548686613e1b565b608554604080519182523360208301526001600160a01b038916828201526060820184905260808201839052519294509092507f9181b2981704b7cf4448130f29cb5da1f41e0418d000e7f8880000b09bcbea45919081900360a00190a150506001608455505050565b60895481565b609354600216151590565b60001960855414156117ad576040805162461bcd60e51b81526020600482015260146024820152733737ba103bb4ba3434b71032bc32b1baba34b7b760611b604482015290519081900360640190fd5b6086546001600160a01b031633146117fd576040805162461bcd60e51b815260206004820152600e60248201526d1b9bdd08199c9bdb481cdc195b1b60921b604482015290519081900360640190fd5b600160845414611843576040805162461bcd60e51b815260206004820152600c60248201526b696e2065786563206c6f636b60a01b604482015290519081900360640190fd5b60026084556085546000908152608e6020526040902060018101546001600160a01b03858116911614158061187c575082816002015414155b156119b85760885460408051632461a40960e01b81526001600160a01b0387811660048301526024820187905291519190921691632461a409916044808301926020929190829003018186803b1580156118d557600080fd5b505afa1580156118e9573d6000803e3d6000fd5b505050506040513d60208110156118ff57600080fd5b5051611952576040805162461bcd60e51b815260206004820152601860248201527f636f6c6c61746572616c206e6f7420737570706f727465640000000000000000604482015290519081900360640190fd5b6003810154156119935760405162461bcd60e51b8152600401808060200182810382526029815260200180614de46029913960400191505060405180910390fd5b6001810180546001600160a01b0319166001600160a01b038616179055600281018390555b60006119c5858585613f6e565b60038301549091506119d7908261410f565b6003830155608554604080519182523360208301526001600160a01b038716828201526060820186905260808201839052517f1169c71f6ce3fbf1d6aae39931591c46ed51976eda9f851886fae319970482ff9181900360a00190a150506001608455505050565b6000546201000090046001600160a01b03163314611a97576040805162461bcd60e51b815260206004820152601060248201526f3737ba103a34329033b7bb32b93737b960811b604482015290519081900360640190fd5b828114611ad55760405162461bcd60e51b8152600401808060200182810382526023815260200180614ec76023913960400191505060405180910390fd5b60005b83811015611bcb57828282818110611aec57fe5b9050602002013515611b6d57611b1c858583818110611b0757fe5b905060200201356001600160a01b0316613a94565b611b6d576040805162461bcd60e51b815260206004820152601860248201527f6f7261636c65206e6f7420737570706f727420746f6b656e0000000000000000604482015290519081900360640190fd5b828282818110611b7957fe5b90506020020135151560906000878785818110611b9257fe5b602090810292909201356001600160a01b0316835250810191909152604001600020805460ff1916911515919091179055600101611ad8565b5050505050565b60005b8151811015611c0257611bfa828281518110611bed57fe5b60200260200101516125b5565b600101611bd5565b5050565b608d6020526000908152604090205460ff1681565b6000546201000090046001600160a01b03163314611c73576040805162461bcd60e51b815260206004820152601060248201526f3737ba103a34329033b7bb32b93737b960811b604482015290519081900360640190fd5b6001600160a01b038083166000908152608c602090815260408083209385168352608d90915290205460ff1615611ce9576040805162461bcd60e51b815260206004820152601560248201527463546f6b656e20616c72656164792065786973747360581b604482015290519081900360640190fd5b805460ff1615611d36576040805162461bcd60e51b815260206004820152601360248201527262616e6b20616c72656164792065786973747360681b604482015290519081900360640190fd5b6001600160a01b0382166000908152608d602052604090208054600160ff199182168117909255825416178155608b5461010011611dae576040805162461bcd60e51b815260206004820152601060248201526f1c995858da0818985b9ac81b1a5b5a5d60821b604482015290519081900360640190fd5b608b5481546001600160a01b03808516620100000262010000600160b01b031960ff9094166101000261ff00199093169290921792909216178255611df7908416836000614169565b611e0d6001600160a01b03841683600019614169565b608b80546001810182556000919091527f7b6bb1e9d1b017ff82945596cf3cfb1a6cee971c1ebb16f2c6bd23c2d642728e0180546001600160a01b0319166001600160a01b0385811691821790925560408051918252918416602082015281517f0a5ac30137c068c8fa636e5d085a93d6fda52a1c2657df058b91ecaf0044ea8c929181900390910190a1505050565b609354600116151590565b6000196085541415611ef8576040805162461bcd60e51b81526020600482015260146024820152733737ba103bb4ba3434b71032bc32b1baba34b7b760611b604482015290519081900360640190fd5b6086546001600160a01b03163314611f48576040805162461bcd60e51b815260206004820152600e60248201526d1b9bdd08199c9bdb481cdc195b1b60921b604482015290519081900360640190fd5b600160845414611f8e576040805162461bcd60e51b815260206004820152600c60248201526b696e2065786563206c6f636b60a01b604482015290519081900360640190fd5b60026084556085546000908152608e602052604090208054611fbe906001600160a01b038581169116338561427c565b5050600160845550565b6000196085541415612018576040805162461bcd60e51b81526020600482015260146024820152733737ba103bb4ba3434b71032bc32b1baba34b7b760611b604482015290519081900360640190fd5b6086546001600160a01b03163314612068576040805162461bcd60e51b815260206004820152600e60248201526d1b9bdd08199c9bdb481cdc195b1b60921b604482015290519081900360640190fd5b6001608454146120ae576040805162461bcd60e51b815260206004820152600c60248201526b696e2065786563206c6f636b60a01b604482015290519081900360640190fd5b6002608455816120bd816125b5565b6120c5611e9d565b61210b576040805162461bcd60e51b8152602060048201526012602482015271189bdc9c9bddc81b9bdd08185b1b1bddd95960721b604482015290519081900360640190fd5b6001600160a01b03831660009081526090602052604090205460ff16612170576040805162461bcd60e51b81526020600482015260156024820152741d1bdad95b881b9bdd081dda1a5d195b1a5cdd1959605a1b604482015290519081900360640190fd5b6001600160a01b0383166000908152608c602090815260408083206085548452608e90925282206003820154600283015492939192909182156121c6576121c1826121bb89866142d6565b9061432f565b6121c8565b865b60038601549091506121da908261410f565b60038601556001600160a01b0388166000908152600585016020526040812054612204908361410f565b6001600160a01b038a166000908152600587016020526040902081905590508015612246578554600486018054600161010090930460ff169290921b90911790555b612265336122548b8b61434a565b6001600160a01b038c169190613dc9565b608554604080519182523360208301526001600160a01b038b1682820152606082018a905260808201849052517fef18174796a5d2f91d51dc5e907a4d7867bbd6e800f6225168e0453d581d0dcd9181900360a00190a15050600160845550505050505050565b6000546201000090046001600160a01b03163314612324576040805162461bcd60e51b815260206004820152601060248201526f3737ba103a34329033b7bb32b93737b960811b604482015290519081900360640190fd5b8281146123625760405162461bcd60e51b8152600401808060200182810382526023815260200180614ea46023913960400191505060405180910390fd5b60005b83811015611bcb5782828281811061237957fe5b9050602002013515156091600087878581811061239257fe5b602090810292909201356001600160a01b0316835250810191909152604001600020805460ff1916911515919091179055600101612365565b6000908152608e602052604090208054600182015460028301546003909301546001600160a01b0392831694929091169291565b6000818152608e60205260408120805460048201548392916001600160a01b031690835b811561253a57600182161561252e576000608b828154811061244157fe5b60009182526020808320909101546001600160a01b0316808352600588018252604080842054608c90935283206003810154600282015492955092939092909161249191906121bb9086906142d6565b6088546040805163d596bc0360e01b81526001600160a01b038881166004830152602482018590528b81166044830152915193945061252793919092169163d596bc03916064808301926020929190829003018186803b1580156124f457600080fd5b505afa158015612508573d6000803e3d6000fd5b505050506040513d602081101561251e57600080fd5b50518a9061410f565b9850505050505b600191821c9101612423565b509295945050505050565b608554600090600019811415612598576040805162461bcd60e51b81526020600482015260136024820152723737ba103ab73232b91032bc32b1baba34b7b760691b604482015290519081900360640190fd5b6000908152608e60205260409020546001600160a01b0316905090565b6001600160a01b0381166000908152608c60205260409020805460ff16612614576040805162461bcd60e51b815260206004820152600e60248201526d18985b9ac81b9bdd08195e1a5cdd60921b604482015290519081900360640190fd5b60028101548154604080516305eff7ef60e21b815230600482015290516000926201000090046001600160a01b0316916317bfdfbc91602480830192602092919082900301818787803b15801561266a57600080fd5b505af115801561267e573d6000803e3d6000fd5b505050506040513d602081101561269457600080fd5b50519050818111156126f95760006126cd6127106126c76089546126c18787613d6c90919063ffffffff16565b906142d6565b90614535565b6002850183905590506126ee6126e3868361434a565b60018601549061410f565b600185015550612708565b80821461270857600283018190555b50505050565b600019608554141561275e576040805162461bcd60e51b81526020600482015260146024820152733737ba103bb4ba3434b71032bc32b1baba34b7b760611b604482015290519081900360640190fd5b6086546001600160a01b031633146127ae576040805162461bcd60e51b815260206004820152600e60248201526d1b9bdd08199c9bdb481cdc195b1b60921b604482015290519081900360640190fd5b6001608454146127f4576040805162461bcd60e51b815260206004820152600c60248201526b696e2065786563206c6f636b60a01b604482015290519081900360640190fd5b60026084556085546000908152608e6020526040902060018101546001600160a01b03858116911614612869576040805162461bcd60e51b815260206004820152601860248201527734b73b30b634b21031b7b63630ba32b930b6103a37b5b2b760411b604482015290519081900360640190fd5b806002015483146128bc576040805162461bcd60e51b815260206004820152601860248201527734b73b30b634b21031b7b63630ba32b930b6103a37b5b2b760411b604482015290519081900360640190fd5b6000198214156128ce57806003015491505b60038101546128dd9083613d6c565b600382015560408051637921219560e11b8152306004820152336024820152604481018590526064810184905260a06084820152600060a4820181905291516001600160a01b0387169263f242432a9260e4808201939182900301818387803b15801561294957600080fd5b505af115801561295d573d6000803e3d6000fd5b5050608554604080519182523360208301526001600160a01b038816828201526060820187905260808201869052517fa61ee435e629eecbcb5df77d05e802c71092439cdbeb225d95305f5a159755a393509081900360a0019150a1505060016084555050565b6000818152608e6020526040812060048101546060928392915b80156129fc5760018116156129f4576001909101905b60011c6129de565b8167ffffffffffffffff81118015612a1357600080fd5b50604051908082528060200260200182016040528015612a3d578160200160208202803683370190505b5094508167ffffffffffffffff81118015612a5757600080fd5b50604051908082528060200260200182016040528015612a81578160200160208202803683370190505b509350826004015490506000915060005b8115612b5b576001821615612b4f576000608b8281548110612ab057fe5b60009182526020808320909101546001600160a01b0316808352608c90915260409091208851919250908290899087908110612ae857fe5b6001600160a01b0392831660209182029290920181019190915260038301546002840154928516600090815260058a01909252604090912054612b2f926121bb91906142d6565b878681518110612b3b57fe5b602090810291909101015250506001909201915b600191821c9101612a92565b50505050915091565b6000600160835414612bac576040805162461bcd60e51b815260206004820152600c60248201526b67656e6572616c206c6f636b60a01b604482015290519081900360640190fd5b6002608355608f5460ff16158015612bd457503360009081526092602052604090205460ff16155b15612c1757333214612c17576040805162461bcd60e51b81526020600482015260076024820152666e6f7420656f6160c81b604482015290519081900360640190fd5b6001600160a01b03831660009081526091602052604090205460ff16612c7c576040805162461bcd60e51b81526020600482015260156024820152741cdc195b1b081b9bdd081dda1a5d195b1a5cdd1959605a1b604482015290519081900360640190fd5b83612cb157608a8054600181019091556000818152608e6020526040902080546001600160a01b031916331790559350612d60565b608a548410612d00576040805162461bcd60e51b8152602060048201526016602482015275706f736974696f6e206964206e6f742065786973747360501b604482015290519081900360640190fd5b6000848152608e60205260409020546001600160a01b03163314612d60576040805162461bcd60e51b81526020600482015260126024820152713737ba103837b9b4ba34b7b71037bbb732b960711b604482015290519081900360640190fd5b6085849055608680546001600160a01b0319166001600160a01b038581169182179092556087546040805163be2a1f7960e01b81526004810193845260248101918252865160448201528651929094169363be2a1f79933493899389939091606490910190602085019080838360005b83811015612de8578181015183820152602001612dd0565b50505050905090810190601f168015612e155780820380516001836020036101000a031916815260200191505b5093505050506000604051808303818588803b158015612e3457600080fd5b505af1158015612e48573d6000803e3d6000fd5b50505050506000612e5885613613565b90506000612e65866123ff565b905080821015612ebc576040805162461bcd60e51b815260206004820152601760248201527f696e73756666696369656e7420636f6c6c61746572616c000000000000000000604482015290519081900360640190fd5b505060001960855550608680546001600160a01b03191660011790558260016083559392505050565b6094546001600160a01b03163314612f2f576040805162461bcd60e51b81526020600482015260086024820152676e6f74206578656360c01b604482015290519081900360640190fd5b612710811115612f75576040805162461bcd60e51b815260206004820152600c60248201526b0cccaca40e8dede40d0d2ced60a31b604482015290519081900360640190fd5b60898190556040805182815290517f15b86359c2a1e342ef965d15a848eda1666e575175d1907ea284dab1dcf64ffb9181900360200190a150565b6086546001600160a01b031681565b600160835414613005576040805162461bcd60e51b815260206004820152600c60248201526b67656e6572616c206c6f636b60a01b604482015290519081900360640190fd5b600260835581613014816125b5565b600061301f85613613565b9050600061302c866123ff565b905080821061307b576040805162461bcd60e51b8152602060048201526016602482015275706f736974696f6e207374696c6c206865616c74687960501b604482015290519081900360640190fd5b6000868152608e602052604081209080613096898989613e1b565b600185015491935091506001600160a01b03166130f1576040805162461bcd60e51b81526020600482015260146024820152733130b21031b7b63630ba32b930b6103a37b5b2b760611b604482015290519081900360640190fd5b60885460018401546002850154604080516330e39e5760e21b81526001600160a01b038d8116600483015293841660248201526044810192909252606482018690525160009361319893169163c38e795c916084808301926020929190829003018186803b15801561316257600080fd5b505afa158015613176573d6000803e3d6000fd5b505050506040513d602081101561318c57600080fd5b5051600386015461459c565b60038501549091506131aa9082613d6c565b60038501556001840154600285015460408051637921219560e11b815230600482015233602482015260448101929092526064820184905260a06084830152600060a4830181905290516001600160a01b039093169263f242432a9260e480820193929182900301818387803b15801561322357600080fd5b505af1158015613237573d6000803e3d6000fd5b5050604080518d81523360208201526001600160a01b038d1681830152606081018790526080810186905260a0810185905290517faa05373fff4a28318417dc16d03c4ed7b22197cb65240cff73fa530f0221734993509081900360c0019150a1505060016083555050505050505050565b6094546001600160a01b031633146132f3576040805162461bcd60e51b81526020600482015260086024820152676e6f74206578656360c01b604482015290519081900360640190fd5b6001600160a01b03811661334e576040805162461bcd60e51b815260206004820152601e60248201527f63616e6e6f7420736574207a65726f2061646472657373206f7261636c650000604482015290519081900360640190fd5b608880546001600160a01b0383166001600160a01b0319909116811790915560408051918252517fd3b5d1e0ffaeff528910f3663f0adace7694ab8241d58e17a91351ced2e080319181900360200190a150565b6001600160a01b039081166000908152608c6020526040902080546001820154600283015460039093015460ff8316956201000090930490941693909291565b6000546201000090046001600160a01b0316331461343a576040805162461bcd60e51b815260206004820152601060248201526f3737ba103a34329033b7bb32b93737b960811b604482015290519081900360640190fd5b609355565b6088546001600160a01b031681565b608c60205260009081526040902080546001820154600283015460039093015460ff808416946101008504909116936201000090046001600160a01b0316929186565b600061349c826125b5565b6134a68383613cf6565b90505b92915050565b60916020526000908152604090205460ff1681565b608a5481565b6087546001600160a01b031681565b608e60205260009081526040902080546001820154600283015460038401546004909401546001600160a01b03938416949390921692909185565b6000546201000090046001600160a01b0316331461356c576040805162461bcd60e51b815260206004820152601060248201526f3737ba103a34329033b7bb32b93737b960811b604482015290519081900360640190fd5b8281146135aa5760405162461bcd60e51b8152600401808060200182810382526022815260200180614e826022913960400191505060405180910390fd5b60005b83811015611bcb578282828181106135c157fe5b905060200201351515609260008787858181106135da57fe5b602090810292909201356001600160a01b0316835250810191909152604001600020805460ff19169115159190911790556001016135ad565b6000818152608e6020526040812060038101548061363657600092505050611332565b60018201546001600160a01b031661368c576040805162461bcd60e51b81526020600482015260146024820152733130b21031b7b63630ba32b930b6103a37b5b2b760611b604482015290519081900360640190fd5b608854600183015460028401548454604080516341a2a41960e11b81526001600160a01b03948516600482015260248101939093526044830186905290831660648301525191909216916383454832916084808301926020929190829003018186803b1580156136fb57600080fd5b505afa15801561370f573d6000803e3d6000fd5b505050506040513d602081101561372557600080fd5b50519250611332915050565b63bc197c8160e01b98975050505050505050565b6094546001600160a01b031681565b60845481565b600054610100900460ff168061377357506137736145b2565b80613781575060005460ff16155b6137bc5760405162461bcd60e51b815260040180806020018281038252602e815260200180614e33602e913960400191505060405180910390fd5b600054610100900460ff161580156137e7576000805460ff1961ff0019909116610100171660011790555b6137ef6145c3565b600160838190556084819055600019608555608680546001600160a01b031916909117905560405161382090614c16565b604051809103906000f08015801561383c573d6000803e3d6000fd5b50608780546001600160a01b039283166001600160a01b0319918216179091556088805492861692909116821790556138b1576040805162461bcd60e51b8152602060048201526012602482015271626164206f7261636c65206164647265737360701b604482015290519081900360640190fd5b60898290556001608a556003609355604080516001600160a01b038516815290517fd3b5d1e0ffaeff528910f3663f0adace7694ab8241d58e17a91351ced2e080319181900360200190a16040805183815290517f15b86359c2a1e342ef965d15a848eda1666e575175d1907ea284dab1dcf64ffb9181900360200190a18015613941576000805461ff00191690555b505050565b60835481565b608f5460ff1681565b6000828152608e602090815260408083206001600160a01b038516845260050190915290205492915050565b60855481565b60906020526000908152604090205460ff1681565b608b81815481106139a957fe5b6000918252602090912001546001600160a01b0316905081565b6001546001600160a01b031681565b6001546001600160a01b03163314613a31576040805162461bcd60e51b815260206004820152601860248201527f6e6f74207468652070656e64696e6720676f7665726e6f720000000000000000604482015290519081900360640190fd5b600180546001600160a01b03191690556000805462010000600160b01b031916336201000081029190911790915560408051918252517fd345d81ce68c70b119a17eee79dc1421700bd9cb21ca148a62dc90983964e82f916020908290030190a1565b60885460408051631ccc198160e31b81526001600160a01b0384811660048301529151600093929092169163e660cc0891602480820192602092909190829003018186803b158015613ae557600080fd5b505afa158015613af9573d6000803e3d6000fd5b505050506040513d6020811015613b0f57600080fd5b505192915050565b6000546201000090046001600160a01b03163314613b6f576040805162461bcd60e51b815260206004820152601060248201526f3737ba103a34329033b7bb32b93737b960811b604482015290519081900360640190fd5b609480546001600160a01b0383166001600160a01b0319909116811790915560408051918252517f694048dc9d2c4a28738c579c8611792b901e1cc012954de893d896005d24861f9181900360200190a150565b6000546201000090046001600160a01b03163314613c1b576040805162461bcd60e51b815260206004820152601060248201526f3737ba103a34329033b7bb32b93737b960811b604482015290519081900360640190fd5b600180546001600160a01b0383166001600160a01b0319909116811790915560408051918252517f964dea888b00b2ab53f13dfe7ca334b46e99338c222ae232d98547a1da019f609181900360200190a150565b63f23a6e6160e01b9695505050505050565b60926020526000908152604090205460ff1681565b6000806000806000196085541415613cdd576040805162461bcd60e51b81526020600482015260056024820152641b9bc81a5960da1b604482015290519081900360640190fd5b613ce86085546123cb565b935093509350935090919293565b6001600160a01b0381166000818152608c602090815260408083206002810154600390910154878552608e8452828520958552600590950190925282205491929091801580613d43575082155b15613d5457600093505050506134a9565b613d62826121bb83866142d6565b93505050506134a9565b600082821115613dc3576040805162461bcd60e51b815260206004820152601e60248201527f536166654d6174683a207375627472616374696f6e206f766572666c6f770000604482015290519081900360640190fd5b50900390565b604080516001600160a01b038416602482015260448082018490528251808303909101815260649091019091526020810180516001600160e01b031663a9059cbb60e01b1790526139419084906146c6565b6001600160a01b0382166000818152608c60209081526040808320878452608e83528184206003820154600283015496865260058201909452918420549394859491939185613e6e846121bb84866142d6565b9050600019891415613e7e578098505b6000613e938b613e8e8d8d614777565b61489a565b905081811115613ede576040805162461bcd60e51b81526020600482015260116024820152701c185a5908195e18d959591cc81919589d607a1b604482015290519081900360640190fd5b6000828214613efa57613ef5856126c784896142d6565b613efc565b835b9050613f088682613d6c565b60038901556000613f198583613d6c565b6001600160a01b038e16600090815260058a0160205260409020819055905080613f5b578854600489018054600161010090930460ff169290921b1990911690555b50909c909b509950505050505050505050565b600080846001600160a01b031662fdd58e30866040518363ffffffff1660e01b815260040180836001600160a01b031681526020018281526020019250505060206040518083038186803b158015613fc557600080fd5b505afa158015613fd9573d6000803e3d6000fd5b505050506040513d6020811015613fef57600080fd5b505160408051637921219560e11b8152336004820152306024820152604481018790526064810186905260a06084820152600060a4820181905291519293506001600160a01b0388169263f242432a9260e48084019391929182900301818387803b15801561405d57600080fd5b505af1158015614071573d6000803e3d6000fd5b505050506000856001600160a01b031662fdd58e30876040518363ffffffff1660e01b815260040180836001600160a01b031681526020018281526020019250505060206040518083038186803b1580156140cb57600080fd5b505afa1580156140df573d6000803e3d6000fd5b505050506040513d60208110156140f557600080fd5b505190506141038183613d6c565b925050505b9392505050565b6000828201838110156134a6576040805162461bcd60e51b815260206004820152601b60248201527f536166654d6174683a206164646974696f6e206f766572666c6f770000000000604482015290519081900360640190fd5b8015806141ef575060408051636eb1769f60e11b81523060048201526001600160a01b03848116602483015291519185169163dd62ed3e91604480820192602092909190829003018186803b1580156141c157600080fd5b505afa1580156141d5573d6000803e3d6000fd5b505050506040513d60208110156141eb57600080fd5b5051155b61422a5760405162461bcd60e51b8152600401808060200182810382526036815260200180614f146036913960400191505060405180910390fd5b604080516001600160a01b038416602482015260448082018490528251808303909101815260649091019091526020810180516001600160e01b031663095ea7b360e01b1790526139419084906146c6565b604080516001600160a01b0380861660248301528416604482015260648082018490528251808303909101815260849091019091526020810180516001600160e01b03166323b872dd60e01b1790526127089085906146c6565b6000826142e5575060006134a9565b828202828482816142f257fe5b04146134a65760405162461bcd60e51b8152600401808060200182810382526021815260200180614e616021913960400191505060405180910390fd5b60006134a6826126c76001614344878461410f565b90613d6c565b6001600160a01b0382166000818152608c6020908152604080832081516370a0823160e01b8152306004820152915193949093859391926370a08231926024808301939192829003018186803b1580156143a357600080fd5b505afa1580156143b7573d6000803e3d6000fd5b505050506040513d60208110156143cd57600080fd5b505182546040805163317afabb60e21b8152600481018890529051929350620100009091046001600160a01b03169163c5ebeaec916024808201926020929091908290030181600087803b15801561442457600080fd5b505af1158015614438573d6000803e3d6000fd5b505050506040513d602081101561444e57600080fd5b50511561448f576040805162461bcd60e51b815260206004820152600a60248201526962616420626f72726f7760b01b604482015290519081900360640190fd5b6000856001600160a01b03166370a08231306040518263ffffffff1660e01b815260040180826001600160a01b0316815260200191505060206040518083038186803b1580156144de57600080fd5b505afa1580156144f2573d6000803e3d6000fd5b505050506040513d602081101561450857600080fd5b5051600284015490915061451c908661410f565b600284015561452b8183613d6c565b9695505050505050565b600080821161458b576040805162461bcd60e51b815260206004820152601a60248201527f536166654d6174683a206469766973696f6e206279207a65726f000000000000604482015290519081900360640190fd5b81838161459457fe5b049392505050565b60008183106145ab57816134a6565b5090919050565b60006145bd30614a09565b15905090565b600054610100900460ff16806145dc57506145dc6145b2565b806145ea575060005460ff16155b6146255760405162461bcd60e51b815260040180806020018281038252602e815260200180614e33602e913960400191505060405180910390fd5b600054610100900460ff16158015614650576000805460ff1961ff0019909116610100171660011790555b6000805462010000600160b01b0319163362010000810291909117909155600180546001600160a01b031916905560408051918252517fbce074c8369e26e70e1ae2f14fc944da352cfe6f52e2de9572f0c9942a24b7fc916020908290030190a180156146c3576000805461ff00191690555b50565b606061471b826040518060400160405280602081526020017f5361666545524332303a206c6f772d6c6576656c2063616c6c206661696c6564815250856001600160a01b0316614a0f9092919063ffffffff16565b8051909150156139415780806020019051602081101561473a57600080fd5b50516139415760405162461bcd60e51b815260040180806020018281038252602a815260200180614eea602a913960400191505060405180910390fd5b600080836001600160a01b03166370a08231306040518263ffffffff1660e01b815260040180826001600160a01b0316815260200191505060206040518083038186803b1580156147c757600080fd5b505afa1580156147db573d6000803e3d6000fd5b505050506040513d60208110156147f157600080fd5b5051905061480a6001600160a01b03851633308661427c565b6000846001600160a01b03166370a08231306040518263ffffffff1660e01b815260040180826001600160a01b0316815260200191505060206040518083038186803b15801561485957600080fd5b505afa15801561486d573d6000803e3d6000fd5b505050506040513d602081101561488357600080fd5b505190506148918183613d6c565b95945050505050565b6001600160a01b038083166000908152608c6020908152604080832080546002820154835163073a938160e11b815260048101899052935195969295620100009092049092169391928492630e7527029260248084019382900301818a87803b15801561490657600080fd5b505af115801561491a573d6000803e3d6000fd5b505050506040513d602081101561493057600080fd5b505115614970576040805162461bcd60e51b815260206004820152600960248201526862616420726570617960b81b604482015290519081900360640190fd5b6000826001600160a01b03166395dd9193306040518263ffffffff1660e01b815260040180826001600160a01b0316815260200191505060206040518083038186803b1580156149bf57600080fd5b505afa1580156149d3573d6000803e3d6000fd5b505050506040513d60208110156149e957600080fd5b50516002850181905590506149fe8282613d6c565b979650505050505050565b3b151590565b6060614a1e8484600085614a26565b949350505050565b606082471015614a675760405162461bcd60e51b8152600401808060200182810382526026815260200180614e0d6026913960400191505060405180910390fd5b614a7085614a09565b614ac1576040805162461bcd60e51b815260206004820152601d60248201527f416464726573733a2063616c6c20746f206e6f6e2d636f6e7472616374000000604482015290519081900360640190fd5b60006060866001600160a01b031685876040518082805190602001908083835b60208310614b005780518252601f199092019160209182019101614ae1565b6001836020036101000a03801982511681845116808217855250505050505090500191505060006040518083038185875af1925050503d8060008114614b62576040519150601f19603f3d011682016040523d82523d6000602084013e614b67565b606091505b50915091506149fe82828660608315614b81575081614108565b825115614b915782518084602001fd5b8160405162461bcd60e51b81526004018080602001828103825283818151815260200191508051906020019080838360005b83811015614bdb578181015183820152602001614bc3565b50505050905090810190601f168015614c085780820380516001836020036101000a031916815260200191505b509250505060405180910390fd5b6101c080614c248339019056fe608060405234801561001057600080fd5b506101a0806100206000396000f3fe60806040526004361061001e5760003560e01c8063be2a1f7914610023575b600080fd5b6100a36004803603604081101561003957600080fd5b6001600160a01b03823516919081019060408101602082013564010000000081111561006457600080fd5b82018360208201111561007657600080fd5b8035906020019184600183028401116401000000008311171561009857600080fd5b5090925090506100a5565b005b60006060846001600160a01b0316348585604051808383808284376040519201945060009350909150508083038185875af1925050503d8060008114610107576040519150601f19603f3d011682016040523d82523d6000602084013e61010c565b606091505b509150915081610163578051156101265780518082602001fd5b6040805162461bcd60e51b815260206004820152600d60248201526c1898590818d85cdd0818d85b1b609a1b604482015290519081900360640190fd5b505050505056fea2646970667358221220201f947d409605dca0717c413610ec0a7c7fb979bd98a5c57abdc4e7dfcff97f64736f6c634300060c0033616e6f746865722074797065206f6620636f6c6c61746572616c20616c726561647920657869737473416464726573733a20696e73756666696369656e742062616c616e636520666f722063616c6c496e697469616c697a61626c653a20636f6e747261637420697320616c726561647920696e697469616c697a6564536166654d6174683a206d756c7469706c69636174696f6e206f766572666c6f7775736572732026207374617475736573206c656e677468206d69736d6174636865647370656c6c732026207374617475736573206c656e677468206d69736d617463686564746f6b656e732026207374617475736573206c656e677468206d69736d6174636865645361666545524332303a204552433230206f7065726174696f6e20646964206e6f7420737563636565645361666545524332303a20617070726f76652066726f6d206e6f6e2d7a65726f20746f206e6f6e2d7a65726f20616c6c6f77616e6365a264697066735822122067146d8cc30222839160c5bc292a632d9c93d627bc7fda34a1bd35f6324b76eb64736f6c634300060c0033",
  "bytecodeSha1": "9749eea2544c3a39c22c5237e76741af6c8fa331",
  "compiler": {
    "evm_version": "istanbul",
    "optimizer": {
      "enabled": true,
      "runs": 200
    },
    "version": "0.6.12+commit.27d51765"
  },
  "contractName": "HomoraBank",
  "language": "Solidity",
  "natspec": {
    "kind": "dev",
    "methods": {
      "EXECUTOR()": {
        "details": "Return the current executor (the owner of the current position)."
      },
      "acceptGovernor()": {
        "details": "Accept to become the new governor. Must be called by the pending governor."
      },
      "accrue(address)": {
        "details": "Trigger interest accrual for the given bank.",
        "params": {
          "token": "The underlying token to trigger the interest accrual."
        }
      },
      "accrueAll(address[])": {
        "details": "Convenient function to trigger interest accrual for a list of banks.",
        "params": {
          "tokens": "The list of banks to trigger interest accrual."
        }
      },
      "addBank(address,address)": {
        "details": "Add a new bank to the ecosystem.",
        "params": {
          "cToken": "The address of the cToken smart contract.",
          "token": "The underlying token for the bank."
        }
      },
      "allowBorrowStatus()": {
        "details": "Bank borrow status allowed or not",
        "notice": "check last bit of bankStatus"
      },
      "allowRepayStatus()": {
        "details": "Bank repay status allowed or not",
        "notice": "Check second-to-last bit of bankStatus"
      },
      "borrow(address,uint256)": {
        "details": "Borrow tokens from that bank. Must only be called while under execution.",
        "params": {
          "amount": "The amount of tokens to borrow.",
          "token": "The token to borrow from the bank."
        }
      },
      "borrowBalanceCurrent(uint256,address)": {
        "details": "Trigger interest accrual and return the current borrow balance.",
        "params": {
          "positionId": "The position to query for borrow balance.",
          "token": "The token to query for borrow balance."
        }
      },
      "borrowBalanceStored(uint256,address)": {
        "details": "Return the borrow balance for given position and token without triggering interest accrual.",
        "params": {
          "positionId": "The position to query for borrow balance.",
          "token": "The token to query for borrow balance."
        }
      },
      "execute(uint256,address,bytes)": {
        "details": "Execute the action via HomoraCaster, calling its function with the supplied data.",
        "params": {
          "data": "Extra data to pass to the target for the execution.",
          "positionId": "The position ID to execute the action, or zero for new position.",
          "spell": "The target spell to invoke the execution via HomoraCaster."
        }
      },
      "getBankInfo(address)": {
        "details": "Return bank information for the given token.",
        "params": {
          "token": "The token address to query for bank information."
        }
      },
      "getBorrowETHValue(uint256)": {
        "details": "Return the total borrow value of the given position in ETH.",
        "params": {
          "positionId": "The position ID to query for the borrow value."
        }
      },
      "getCollateralETHValue(uint256)": {
        "details": "Return the total collateral value of the given position in ETH.",
        "params": {
          "positionId": "The position ID to query for the collateral value."
        }
      },
      "getCurrentPositionInfo()": {
        "details": "Return current position information"
      },
      "getPositionDebtShareOf(uint256,address)": {
        "details": "Return the debt share of the given bank token for the given position id.",
        "params": {
          "positionId": "position id to get debt of",
          "token": "ERC20 debt token to query"
        }
      },
      "getPositionDebts(uint256)": {
        "details": "Return the list of all debts for the given position id.",
        "params": {
          "positionId": "position id to get debts of"
        }
      },
      "getPositionInfo(uint256)": {
        "details": "Return position information for the given position id.",
        "params": {
          "positionId": "The position id to query for position information."
        }
      },
      "initialize(address,uint256)": {
        "details": "Initialize the bank smart contract, using msg.sender as the first governor.",
        "params": {
          "_feeBps": "The fee collected to Homora bank.",
          "_oracle": "The oracle smart contract address."
        }
      },
      "liquidate(uint256,address,uint256)": {
        "details": "Liquidate a position. Pay debt for its owner and take the collateral.",
        "params": {
          "amountCall": "The amount to repay when doing transferFrom call.",
          "debtToken": "The debt token to repay.",
          "positionId": "The position ID to liquidate."
        }
      },
      "putCollateral(address,uint256,uint256)": {
        "details": "Put more collateral for users. Must only be called during execution.",
        "params": {
          "amountCall": "The amount of tokens to put via transferFrom.",
          "collId": "The token id to collateral.",
          "collToken": "The ERC1155 token to collateral."
        }
      },
      "repay(address,uint256)": {
        "details": "Repay tokens to the bank. Must only be called while under execution.",
        "params": {
          "amountCall": "The amount of tokens to repay via transferFrom.",
          "token": "The token to repay to the bank."
        }
      },
      "setAllowContractCalls(bool)": {
        "details": "Set allowContractCalls",
        "params": {
          "ok": "The status to set allowContractCalls to (false = onlyEOA)"
        }
      },
      "setBankStatus(uint256)": {
        "details": "Set bank status",
        "params": {
          "_bankStatus": "new bank status to change to"
        }
      },
      "setExec(address)": {
        "details": "Set exec",
        "params": {
          "_exec": "exec address"
        }
      },
      "setFeeBps(uint256)": {
        "details": "Set the fee bps value that Homora bank charges.",
        "params": {
          "_feeBps": "The new fee bps value."
        }
      },
      "setOracle(address)": {
        "details": "Set the oracle smart contract address.",
        "params": {
          "_oracle": "The new oracle smart contract address."
        }
      },
      "setPendingGovernor(address)": {
        "details": "Set the pending governor, which will be the governor once accepted.",
        "params": {
          "_pendingGovernor": "The address to become the pending governor."
        }
      },
      "setWhitelistSpells(address[],bool[])": {
        "details": "Set whitelist spell status",
        "params": {
          "spells": "list of spells to change status",
          "statuses": "list of statuses to change to"
        }
      },
      "setWhitelistTokens(address[],bool[])": {
        "details": "Set whitelist token status",
        "params": {
          "statuses": "list of statuses to change to",
          "tokens": "list of tokens to change status"
        }
      },
      "setWhitelistUsers(address[],bool[])": {
        "details": "Set whitelist user status",
        "params": {
          "statuses": "list of statuses to change to",
          "users": "list of users to change status"
        }
      },
      "support(address)": {
        "details": "Check whether the oracle supports the token",
        "params": {
          "token": "ERC-20 token to check for support"
        }
      },
      "supportsInterface(bytes4)": {
        "details": "See {IERC165-supportsInterface}. Time complexity O(1), guaranteed to always use less than 30 000 gas."
      },
      "takeCollateral(address,uint256,uint256)": {
        "details": "Take some collateral back. Must only be called during execution.",
        "params": {
          "amount": "The amount of tokens to take back via transfer.",
          "collId": "The token id to take back.",
          "collToken": "The ERC1155 token to take back."
        }
      },
      "transmit(address,uint256)": {
        "details": "Transmit user assets to the caller, so users only need to approve Bank for spending.",
        "params": {
          "amount": "The amount to transfer.",
          "token": "The token to transfer from user to the caller."
        }
      },
      "withdrawReserve(address,uint256)": {
        "details": "Withdraw the reserve portion of the bank.",
        "params": {
          "amount": "The amount of tokens to withdraw."
        }
      }
    },
    "stateVariables": {
      "POSITION_ID": {
        "details": "Return the current position while under execution."
      },
      "SPELL": {
        "details": "Return the current target while under execution."
      }
    },
    "version": 1
  },
  "opcodes": "PUSH1 0x80 PUSH1 0x40 MSTORE PUSH1 0x4 CALLDATASIZE LT PUSH2 0x381 JUMPI PUSH1 0x0 CALLDATALOAD PUSH1 0xE0 SHR DUP1 PUSH4 0x7CBDAE6F GT PUSH2 0x1D1 JUMPI DUP1 PUSH4 0xD05E44A4 GT PUSH2 0x102 JUMPI DUP1 PUSH4 0xE58BB639 GT PUSH2 0xA0 JUMPI DUP1 PUSH4 0xF23A6E61 GT PUSH2 0x6F JUMPI DUP1 PUSH4 0xF23A6E61 EQ PUSH2 0x11F3 JUMPI DUP1 PUSH4 0xF621CC48 EQ PUSH2 0x1293 JUMPI DUP1 PUSH4 0xF70AEDD9 EQ PUSH2 0x12C6 JUMPI DUP1 PUSH4 0xFC5D28A8 EQ PUSH2 0x12DB JUMPI PUSH2 0x381 JUMP JUMPDEST DUP1 PUSH4 0xE58BB639 EQ PUSH2 0x1145 JUMPI DUP1 PUSH4 0xE660CC08 EQ PUSH2 0x115A JUMPI DUP1 PUSH4 0xED963A17 EQ PUSH2 0x118D JUMPI DUP1 PUSH4 0xF235757F EQ PUSH2 0x11C0 JUMPI PUSH2 0x381 JUMP JUMPDEST DUP1 PUSH4 0xD7AC71FF GT PUSH2 0xDC JUMPI DUP1 PUSH4 0xD7AC71FF EQ PUSH2 0x10BE JUMPI DUP1 PUSH4 0xDAF9C210 EQ PUSH2 0x10D3 JUMPI DUP1 PUSH4 0xDD6F3C70 EQ PUSH2 0x1106 JUMPI DUP1 PUSH4 0xE3056A34 EQ PUSH2 0x1130 JUMPI PUSH2 0x381 JUMP JUMPDEST DUP1 PUSH4 0xD05E44A4 EQ PUSH2 0x105B JUMPI DUP1 PUSH4 0xD2FFC9F3 EQ PUSH2 0x1070 JUMPI DUP1 PUSH4 0xD44B11F0 EQ PUSH2 0x1085 JUMPI PUSH2 0x381 JUMP JUMPDEST DUP1 PUSH4 0x99FBAB88 GT PUSH2 0x16F JUMPI DUP1 PUSH4 0xBC197C81 GT PUSH2 0x149 JUMPI DUP1 PUSH4 0xBC197C81 EQ PUSH2 0xEA7 JUMPI DUP1 PUSH4 0xC1C0E9C4 EQ PUSH2 0xFF8 JUMPI DUP1 PUSH4 0xC9A4BB3F EQ PUSH2 0x100D JUMPI DUP1 PUSH4 0xCD6DC687 EQ PUSH2 0x1022 JUMPI PUSH2 0x381 JUMP JUMPDEST DUP1 PUSH4 0x99FBAB88 EQ PUSH2 0xD51 JUMPI DUP1 PUSH4 0xA20A5906 EQ PUSH2 0xDB2 JUMPI DUP1 PUSH4 0xB60DAE12 EQ PUSH2 0xE7D JUMPI PUSH2 0x381 JUMP JUMPDEST DUP1 PUSH4 0x82A2FB9C GT PUSH2 0x1AB JUMPI DUP1 PUSH4 0x82A2FB9C EQ PUSH2 0xCBB JUMPI DUP1 PUSH4 0x86C0DC88 EQ PUSH2 0xCF4 JUMPI DUP1 PUSH4 0x899346C7 EQ PUSH2 0xD27 JUMPI DUP1 PUSH4 0x92FF1AD9 EQ PUSH2 0xD3C JUMPI PUSH2 0x381 JUMP JUMPDEST DUP1 PUSH4 0x7CBDAE6F EQ PUSH2 0xC0A JUMPI DUP1 PUSH4 0x7DC0D1D0 EQ PUSH2 0xC34 JUMPI DUP1 PUSH4 0x80C3B8C2 EQ PUSH2 0xC49 JUMPI PUSH2 0x381 JUMP JUMPDEST DUP1 PUSH4 0x48D6BBC2 GT PUSH2 0x2B6 JUMPI DUP1 PUSH4 0x68EB4BA8 GT PUSH2 0x254 JUMPI DUP1 PUSH4 0x76636722 GT PUSH2 0x223 JUMPI DUP1 PUSH4 0x76636722 EQ PUSH2 0xB1B JUMPI DUP1 PUSH4 0x79BD1EAC EQ PUSH2 0xB30 JUMPI DUP1 PUSH4 0x7ADBF973 EQ PUSH2 0xB6F JUMPI DUP1 PUSH4 0x7B79413A EQ PUSH2 0xBA2 JUMPI PUSH2 0x381 JUMP JUMPDEST DUP1 PUSH4 0x68EB4BA8 EQ PUSH2 0x936 JUMPI DUP1 PUSH4 0x6D6AF334 EQ PUSH2 0x975 JUMPI DUP1 PUSH4 0x710A9F68 EQ PUSH2 0xA38 JUMPI DUP1 PUSH4 0x72C27B62 EQ PUSH2 0xAF1 JUMPI PUSH2 0x381 JUMP JUMPDEST DUP1 PUSH4 0x519F5099 GT PUSH2 0x290 JUMPI DUP1 PUSH4 0x519F5099 EQ PUSH2 0x868 JUMPI DUP1 PUSH4 0x5787D291 EQ PUSH2 0x8C4 JUMPI DUP1 PUSH4 0x630DC7CB EQ PUSH2 0x8EE JUMPI DUP1 PUSH4 0x6680AC0B EQ PUSH2 0x903 JUMPI PUSH2 0x381 JUMP JUMPDEST DUP1 PUSH4 0x48D6BBC2 EQ PUSH2 0x72B JUMPI DUP1 PUSH4 0x4B8A3529 EQ PUSH2 0x764 JUMPI DUP1 PUSH4 0x4DF890F6 EQ PUSH2 0x79D JUMPI PUSH2 0x381 JUMP JUMPDEST DUP1 PUSH4 0x2FFD889B GT PUSH2 0x323 JUMPI DUP1 PUSH4 0x38BD678A GT PUSH2 0x2FD JUMPI DUP1 PUSH4 0x38BD678A EQ PUSH2 0x5FA JUMPI DUP1 PUSH4 0x3A55F85E EQ PUSH2 0x6A8 JUMPI DUP1 PUSH4 0x3D30FB48 EQ PUSH2 0x6DB JUMPI DUP1 PUSH4 0x3D581D8E EQ PUSH2 0x716 JUMPI PUSH2 0x381 JUMP JUMPDEST DUP1 PUSH4 0x2FFD889B EQ PUSH2 0x4DB JUMPI DUP1 PUSH4 0x314568D9 EQ PUSH2 0x4F0 JUMPI DUP1 PUSH4 0x331D9364 EQ PUSH2 0x52F JUMPI PUSH2 0x381 JUMP JUMPDEST DUP1 PUSH4 0xE5641E6 GT PUSH2 0x35F JUMPI DUP1 PUSH4 0xE5641E6 EQ PUSH2 0x42D JUMPI DUP1 PUSH4 0x1C58CE14 EQ PUSH2 0x454 JUMPI DUP1 PUSH4 0x22867D78 EQ PUSH2 0x48D JUMPI DUP1 PUSH4 0x24A9D853 EQ PUSH2 0x4C6 JUMPI PUSH2 0x381 JUMP JUMPDEST DUP1 PUSH4 0x1FFC9A7 EQ PUSH2 0x386 JUMPI DUP1 PUSH4 0x71FECA3 EQ PUSH2 0x3CE JUMPI DUP1 PUSH4 0xC340A24 EQ PUSH2 0x3FC JUMPI JUMPDEST PUSH1 0x0 DUP1 REVERT JUMPDEST CALLVALUE DUP1 ISZERO PUSH2 0x392 JUMPI PUSH1 0x0 DUP1 REVERT JUMPDEST POP PUSH2 0x3BA PUSH1 0x4 DUP1 CALLDATASIZE SUB PUSH1 0x20 DUP2 LT ISZERO PUSH2 0x3A9 JUMPI PUSH1 0x0 DUP1 REVERT JUMPDEST POP CALLDATALOAD PUSH1 0x1 PUSH1 0x1 PUSH1 0xE0 SHL SUB NOT AND PUSH2 0x1314 JUMP JUMPDEST PUSH1 0x40 DUP1 MLOAD SWAP2 ISZERO ISZERO DUP3 MSTORE MLOAD SWAP1 DUP2 SWAP1 SUB PUSH1 0x20 ADD SWAP1 RETURN JUMPDEST CALLVALUE DUP1 ISZERO PUSH2 0x3DA JUMPI PUSH1 0x0 DUP1 REVERT JUMPDEST POP PUSH2 0x3FA PUSH1 0x4 DUP1 CALLDATASIZE SUB PUSH1 0x20 DUP2 LT ISZERO PUSH2 0x3F1 JUMPI PUSH1 0x0 DUP1 REVERT JUMPDEST POP CALLDATALOAD ISZERO ISZERO PUSH2 0x1337 JUMP JUMPDEST STOP JUMPDEST CALLVALUE DUP1 ISZERO PUSH2 0x408 JUMPI PUSH1 0x0 DUP1 REVERT JUMPDEST POP PUSH2 0x411 PUSH2 0x1394 JUMP JUMPDEST PUSH1 0x40 DUP1 MLOAD PUSH1 0x1 PUSH1 0x1 PUSH1 0xA0 SHL SUB SWAP1 SWAP3 AND DUP3 MSTORE MLOAD SWAP1 DUP2 SWAP1 SUB PUSH1 0x20 ADD SWAP1 RETURN JUMPDEST CALLVALUE DUP1 ISZERO PUSH2 0x439 JUMPI PUSH1 0x0 DUP1 REVERT JUMPDEST POP PUSH2 0x442 PUSH2 0x13A9 JUMP JUMPDEST PUSH1 0x40 DUP1 MLOAD SWAP2 DUP3 MSTORE MLOAD SWAP1 DUP2 SWAP1 SUB PUSH1 0x20 ADD SWAP1 RETURN JUMPDEST CALLVALUE DUP1 ISZERO PUSH2 0x460 JUMPI PUSH1 0x0 DUP1 REVERT JUMPDEST POP PUSH2 0x3FA PUSH1 0x4 DUP1 CALLDATASIZE SUB PUSH1 0x40 DUP2 LT ISZERO PUSH2 0x477 JUMPI PUSH1 0x0 DUP1 REVERT JUMPDEST POP PUSH1 0x1 PUSH1 0x1 PUSH1 0xA0 SHL SUB DUP2 CALLDATALOAD AND SWAP1 PUSH1 0x20 ADD CALLDATALOAD PUSH2 0x13AF JUMP JUMPDEST CALLVALUE DUP1 ISZERO PUSH2 0x499 JUMPI PUSH1 0x0 DUP1 REVERT JUMPDEST POP PUSH2 0x3FA PUSH1 0x4 DUP1 CALLDATASIZE SUB PUSH1 0x40 DUP2 LT ISZERO PUSH2 0x4B0 JUMPI PUSH1 0x0 DUP1 REVERT JUMPDEST POP PUSH1 0x1 PUSH1 0x1 PUSH1 0xA0 SHL SUB DUP2 CALLDATALOAD AND SWAP1 PUSH1 0x20 ADD CALLDATALOAD PUSH2 0x152B JUMP JUMPDEST CALLVALUE DUP1 ISZERO PUSH2 0x4D2 JUMPI PUSH1 0x0 DUP1 REVERT JUMPDEST POP PUSH2 0x442 PUSH2 0x174C JUMP JUMPDEST CALLVALUE DUP1 ISZERO PUSH2 0x4E7 JUMPI PUSH1 0x0 DUP1 REVERT JUMPDEST POP PUSH2 0x3BA PUSH2 0x1752 JUMP JUMPDEST CALLVALUE DUP1 ISZERO PUSH2 0x4FC JUMPI PUSH1 0x0 DUP1 REVERT JUMPDEST POP PUSH2 0x3FA PUSH1 0x4 DUP1 CALLDATASIZE SUB PUSH1 0x60 DUP2 LT ISZERO PUSH2 0x513 JUMPI PUSH1 0x0 DUP1 REVERT JUMPDEST POP PUSH1 0x1 PUSH1 0x1 PUSH1 0xA0 SHL SUB DUP2 CALLDATALOAD AND SWAP1 PUSH1 0x20 DUP2 ADD CALLDATALOAD SWAP1 PUSH1 0x40 ADD CALLDATALOAD PUSH2 0x175D JUMP JUMPDEST CALLVALUE DUP1 ISZERO PUSH2 0x53B JUMPI PUSH1 0x0 DUP1 REVERT JUMPDEST POP PUSH2 0x3FA PUSH1 0x4 DUP1 CALLDATASIZE SUB PUSH1 0x40 DUP2 LT ISZERO PUSH2 0x552 JUMPI PUSH1 0x0 DUP1 REVERT JUMPDEST DUP2 ADD SWAP1 PUSH1 0x20 DUP2 ADD DUP2 CALLDATALOAD PUSH1 0x1 PUSH1 0x20 SHL DUP2 GT ISZERO PUSH2 0x56C JUMPI PUSH1 0x0 DUP1 REVERT JUMPDEST DUP3 ADD DUP4 PUSH1 0x20 DUP3 ADD GT ISZERO PUSH2 0x57E JUMPI PUSH1 0x0 DUP1 REVERT JUMPDEST DUP1 CALLDATALOAD SWAP1 PUSH1 0x20 ADD SWAP2 DUP5 PUSH1 0x20 DUP4 MUL DUP5 ADD GT PUSH1 0x1 PUSH1 0x20 SHL DUP4 GT OR ISZERO PUSH2 0x59F JUMPI PUSH1 0x0 DUP1 REVERT JUMPDEST SWAP2 SWAP4 SWAP1 SWAP3 SWAP1 SWAP2 PUSH1 0x20 DUP2 ADD SWAP1 CALLDATALOAD PUSH1 0x1 PUSH1 0x20 SHL DUP2 GT ISZERO PUSH2 0x5BC JUMPI PUSH1 0x0 DUP1 REVERT JUMPDEST DUP3 ADD DUP4 PUSH1 0x20 DUP3 ADD GT ISZERO PUSH2 0x5CE JUMPI PUSH1 0x0 DUP1 REVERT JUMPDEST DUP1 CALLDATALOAD SWAP1 PUSH1 0x20 ADD SWAP2 DUP5 PUSH1 0x20 DUP4 MUL DUP5 ADD GT PUSH1 0x1 PUSH1 0x20 SHL DUP4 GT OR ISZERO PUSH2 0x5EF JUMPI PUSH1 0x0 DUP1 REVERT JUMPDEST POP SWAP1 SWAP3 POP SWAP1 POP PUSH2 0x1A3F JUMP JUMPDEST CALLVALUE DUP1 ISZERO PUSH2 0x606 JUMPI PUSH1 0x0 DUP1 REVERT JUMPDEST POP PUSH2 0x3FA PUSH1 0x4 DUP1 CALLDATASIZE SUB PUSH1 0x20 DUP2 LT ISZERO PUSH2 0x61D JUMPI PUSH1 0x0 DUP1 REVERT JUMPDEST DUP2 ADD SWAP1 PUSH1 0x20 DUP2 ADD DUP2 CALLDATALOAD PUSH1 0x1 PUSH1 0x20 SHL DUP2 GT ISZERO PUSH2 0x637 JUMPI PUSH1 0x0 DUP1 REVERT JUMPDEST DUP3 ADD DUP4 PUSH1 0x20 DUP3 ADD GT ISZERO PUSH2 0x649 JUMPI PUSH1 0x0 DUP1 REVERT JUMPDEST DUP1 CALLDATALOAD SWAP1 PUSH1 0x20 ADD SWAP2 DUP5 PUSH1 0x20 DUP4 MUL DUP5 ADD GT PUSH1 0x1 PUSH1 0x20 SHL DUP4 GT OR ISZERO PUSH2 0x66A JUMPI PUSH1 0x0 DUP1 REVERT JUMPDEST SWAP2 SWAP1 DUP1 DUP1 PUSH1 0x20 MUL PUSH1 0x20 ADD PUSH1 0x40 MLOAD SWAP1 DUP2 ADD PUSH1 0x40 MSTORE DUP1 SWAP4 SWAP3 SWAP2 SWAP1 DUP2 DUP2 MSTORE PUSH1 0x20 ADD DUP4 DUP4 PUSH1 0x20 MUL DUP1 DUP3 DUP5 CALLDATACOPY PUSH1 0x0 SWAP3 ADD SWAP2 SWAP1 SWAP2 MSTORE POP SWAP3 SWAP6 POP PUSH2 0x1BD2 SWAP5 POP POP POP POP POP JUMP JUMPDEST CALLVALUE DUP1 ISZERO PUSH2 0x6B4 JUMPI PUSH1 0x0 DUP1 REVERT JUMPDEST POP PUSH2 0x3BA PUSH1 0x4 DUP1 CALLDATASIZE SUB PUSH1 0x20 DUP2 LT ISZERO PUSH2 0x6CB JUMPI PUSH1 0x0 DUP1 REVERT JUMPDEST POP CALLDATALOAD PUSH1 0x1 PUSH1 0x1 PUSH1 0xA0 SHL SUB AND PUSH2 0x1C06 JUMP JUMPDEST CALLVALUE DUP1 ISZERO PUSH2 0x6E7 JUMPI PUSH1 0x0 DUP1 REVERT JUMPDEST POP PUSH2 0x3FA PUSH1 0x4 DUP1 CALLDATASIZE SUB PUSH1 0x40 DUP2 LT ISZERO PUSH2 0x6FE JUMPI PUSH1 0x0 DUP1 REVERT JUMPDEST POP PUSH1 0x1 PUSH1 0x1 PUSH1 0xA0 SHL SUB DUP2 CALLDATALOAD DUP2 AND SWAP2 PUSH1 0x20 ADD CALLDATALOAD AND PUSH2 0x1C1B JUMP JUMPDEST CALLVALUE DUP1 ISZERO PUSH2 0x722 JUMPI PUSH1 0x0 DUP1 REVERT JUMPDEST POP PUSH2 0x3BA PUSH2 0x1E9D JUMP JUMPDEST CALLVALUE DUP1 ISZERO PUSH2 0x737 JUMPI PUSH1 0x0 DUP1 REVERT JUMPDEST POP PUSH2 0x3FA PUSH1 0x4 DUP1 CALLDATASIZE SUB PUSH1 0x40 DUP2 LT ISZERO PUSH2 0x74E JUMPI PUSH1 0x0 DUP1 REVERT JUMPDEST POP PUSH1 0x1 PUSH1 0x1 PUSH1 0xA0 SHL SUB DUP2 CALLDATALOAD AND SWAP1 PUSH1 0x20 ADD CALLDATALOAD PUSH2 0x1EA8 JUMP JUMPDEST CALLVALUE DUP1 ISZERO PUSH2 0x770 JUMPI PUSH1 0x0 DUP1 REVERT JUMPDEST POP PUSH2 0x3FA PUSH1 0x4 DUP1 CALLDATASIZE SUB PUSH1 0x40 DUP2 LT ISZERO PUSH2 0x787 JUMPI PUSH1 0x0 DUP1 REVERT JUMPDEST POP PUSH1 0x1 PUSH1 0x1 PUSH1 0xA0 SHL SUB DUP2 CALLDATALOAD AND SWAP1 PUSH1 0x20 ADD CALLDATALOAD PUSH2 0x1FC8 JUMP JUMPDEST CALLVALUE DUP1 ISZERO PUSH2 0x7A9 JUMPI PUSH1 0x0 DUP1 REVERT JUMPDEST POP PUSH2 0x3FA PUSH1 0x4 DUP1 CALLDATASIZE SUB PUSH1 0x40 DUP2 LT ISZERO PUSH2 0x7C0 JUMPI PUSH1 0x0 DUP1 REVERT JUMPDEST DUP2 ADD SWAP1 PUSH1 0x20 DUP2 ADD DUP2 CALLDATALOAD PUSH1 0x1 PUSH1 0x20 SHL DUP2 GT ISZERO PUSH2 0x7DA JUMPI PUSH1 0x0 DUP1 REVERT JUMPDEST DUP3 ADD DUP4 PUSH1 0x20 DUP3 ADD GT ISZERO PUSH2 0x7EC JUMPI PUSH1 0x0 DUP1 REVERT JUMPDEST DUP1 CALLDATALOAD SWAP1 PUSH1 0x20 ADD SWAP2 DUP5 PUSH1 0x20 DUP4 MUL DUP5 ADD GT PUSH1 0x1 PUSH1 0x20 SHL DUP4 GT OR ISZERO PUSH2 0x80D JUMPI PUSH1 0x0 DUP1 REVERT JUMPDEST SWAP2 SWAP4 SWAP1 SWAP3 SWAP1 SWAP2 PUSH1 0x20 DUP2 ADD SWAP1 CALLDATALOAD PUSH1 0x1 PUSH1 0x20 SHL DUP2 GT ISZERO PUSH2 0x82A JUMPI PUSH1 0x0 DUP1 REVERT JUMPDEST DUP3 ADD DUP4 PUSH1 0x20 DUP3 ADD GT ISZERO PUSH2 0x83C JUMPI PUSH1 0x0 DUP1 REVERT JUMPDEST DUP1 CALLDATALOAD SWAP1 PUSH1 0x20 ADD SWAP2 DUP5 PUSH1 0x20 DUP4 MUL DUP5 ADD GT PUSH1 0x1 PUSH1 0x20 SHL DUP4 GT OR ISZERO PUSH2 0x85D JUMPI PUSH1 0x0 DUP1 REVERT JUMPDEST POP SWAP1 SWAP3 POP SWAP1 POP PUSH2 0x22CC JUMP JUMPDEST CALLVALUE DUP1 ISZERO PUSH2 0x874 JUMPI PUSH1 0x0 DUP1 REVERT JUMPDEST POP PUSH2 0x892 PUSH1 0x4 DUP1 CALLDATASIZE SUB PUSH1 0x20 DUP2 LT ISZERO PUSH2 0x88B JUMPI PUSH1 0x0 DUP1 REVERT JUMPDEST POP CALLDATALOAD PUSH2 0x23CB JUMP JUMPDEST PUSH1 0x40 DUP1 MLOAD PUSH1 0x1 PUSH1 0x1 PUSH1 0xA0 SHL SUB SWAP6 DUP7 AND DUP2 MSTORE SWAP4 SWAP1 SWAP5 AND PUSH1 0x20 DUP5 ADD MSTORE DUP3 DUP5 ADD SWAP2 SWAP1 SWAP2 MSTORE PUSH1 0x60 DUP3 ADD MSTORE SWAP1 MLOAD SWAP1 DUP2 SWAP1 SUB PUSH1 0x80 ADD SWAP1 RETURN JUMPDEST CALLVALUE DUP1 ISZERO PUSH2 0x8D0 JUMPI PUSH1 0x0 DUP1 REVERT JUMPDEST POP PUSH2 0x442 PUSH1 0x4 DUP1 CALLDATASIZE SUB PUSH1 0x20 DUP2 LT ISZERO PUSH2 0x8E7 JUMPI PUSH1 0x0 DUP1 REVERT JUMPDEST POP CALLDATALOAD PUSH2 0x23FF JUMP JUMPDEST CALLVALUE DUP1 ISZERO PUSH2 0x8FA JUMPI PUSH1 0x0 DUP1 REVERT JUMPDEST POP PUSH2 0x411 PUSH2 0x2545 JUMP JUMPDEST CALLVALUE DUP1 ISZERO PUSH2 0x90F JUMPI PUSH1 0x0 DUP1 REVERT JUMPDEST POP PUSH2 0x3FA PUSH1 0x4 DUP1 CALLDATASIZE SUB PUSH1 0x20 DUP2 LT ISZERO PUSH2 0x926 JUMPI PUSH1 0x0 DUP1 REVERT JUMPDEST POP CALLDATALOAD PUSH1 0x1 PUSH1 0x1 PUSH1 0xA0 SHL SUB AND PUSH2 0x25B5 JUMP JUMPDEST CALLVALUE DUP1 ISZERO PUSH2 0x942 JUMPI PUSH1 0x0 DUP1 REVERT JUMPDEST POP PUSH2 0x3FA PUSH1 0x4 DUP1 CALLDATASIZE SUB PUSH1 0x60 DUP2 LT ISZERO PUSH2 0x959 JUMPI PUSH1 0x0 DUP1 REVERT JUMPDEST POP PUSH1 0x1 PUSH1 0x1 PUSH1 0xA0 SHL SUB DUP2 CALLDATALOAD AND SWAP1 PUSH1 0x20 DUP2 ADD CALLDATALOAD SWAP1 PUSH1 0x40 ADD CALLDATALOAD PUSH2 0x270E JUMP JUMPDEST CALLVALUE DUP1 ISZERO PUSH2 0x981 JUMPI PUSH1 0x0 DUP1 REVERT JUMPDEST POP PUSH2 0x99F PUSH1 0x4 DUP1 CALLDATASIZE SUB PUSH1 0x20 DUP2 LT ISZERO PUSH2 0x998 JUMPI PUSH1 0x0 DUP1 REVERT JUMPDEST POP CALLDATALOAD PUSH2 0x29C4 JUMP JUMPDEST PUSH1 0x40 MLOAD DUP1 DUP1 PUSH1 0x20 ADD DUP1 PUSH1 0x20 ADD DUP4 DUP2 SUB DUP4 MSTORE DUP6 DUP2 DUP2 MLOAD DUP2 MSTORE PUSH1 0x20 ADD SWAP2 POP DUP1 MLOAD SWAP1 PUSH1 0x20 ADD SWAP1 PUSH1 0x20 MUL DUP1 DUP4 DUP4 PUSH1 0x0 JUMPDEST DUP4 DUP2 LT ISZERO PUSH2 0x9E3 JUMPI DUP2 DUP2 ADD MLOAD DUP4 DUP3 ADD MSTORE PUSH1 0x20 ADD PUSH2 0x9CB JUMP JUMPDEST POP POP POP POP SWAP1 POP ADD DUP4 DUP2 SUB DUP3 MSTORE DUP5 DUP2 DUP2 MLOAD DUP2 MSTORE PUSH1 0x20 ADD SWAP2 POP DUP1 MLOAD SWAP1 PUSH1 0x20 ADD SWAP1 PUSH1 0x20 MUL DUP1 DUP4 DUP4 PUSH1 0x0 JUMPDEST DUP4 DUP2 LT ISZERO PUSH2 0xA22 JUMPI DUP2 DUP2 ADD MLOAD DUP4 DUP3 ADD MSTORE PUSH1 0x20 ADD PUSH2 0xA0A JUMP JUMPDEST POP POP POP POP SWAP1 POP ADD SWAP5 POP POP POP POP POP PUSH1 0x40 MLOAD DUP1 SWAP2 SUB SWAP1 RETURN JUMPDEST PUSH2 0x442 PUSH1 0x4 DUP1 CALLDATASIZE SUB PUSH1 0x60 DUP2 LT ISZERO PUSH2 0xA4E JUMPI PUSH1 0x0 DUP1 REVERT JUMPDEST DUP2 CALLDATALOAD SWAP2 PUSH1 0x1 PUSH1 0x1 PUSH1 0xA0 SHL SUB PUSH1 0x20 DUP3 ADD CALLDATALOAD AND SWAP2 DUP2 ADD SWAP1 PUSH1 0x60 DUP2 ADD PUSH1 0x40 DUP3 ADD CALLDATALOAD PUSH1 0x1 PUSH1 0x20 SHL DUP2 GT ISZERO PUSH2 0xA7D JUMPI PUSH1 0x0 DUP1 REVERT JUMPDEST DUP3 ADD DUP4 PUSH1 0x20 DUP3 ADD GT ISZERO PUSH2 0xA8F JUMPI PUSH1 0x0 DUP1 REVERT JUMPDEST DUP1 CALLDATALOAD SWAP1 PUSH1 0x20 ADD SWAP2 DUP5 PUSH1 0x1 DUP4 MUL DUP5 ADD GT PUSH1 0x1 PUSH1 0x20 SHL DUP4 GT OR ISZERO PUSH2 0xAB0 JUMPI PUSH1 0x0 DUP1 REVERT JUMPDEST SWAP2 SWAP1 DUP1 DUP1 PUSH1 0x1F ADD PUSH1 0x20 DUP1 SWAP2 DIV MUL PUSH1 0x20 ADD PUSH1 0x40 MLOAD SWAP1 DUP2 ADD PUSH1 0x40 MSTORE DUP1 SWAP4 SWAP3 SWAP2 SWAP1 DUP2 DUP2 MSTORE PUSH1 0x20 ADD DUP4 DUP4 DUP1 DUP3 DUP5 CALLDATACOPY PUSH1 0x0 SWAP3 ADD SWAP2 SWAP1 SWAP2 MSTORE POP SWAP3 SWAP6 POP PUSH2 0x2B64 SWAP5 POP POP POP POP POP JUMP JUMPDEST CALLVALUE DUP1 ISZERO PUSH2 0xAFD JUMPI PUSH1 0x0 DUP1 REVERT JUMPDEST POP PUSH2 0x3FA PUSH1 0x4 DUP1 CALLDATASIZE SUB PUSH1 0x20 DUP2 LT ISZERO PUSH2 0xB14 JUMPI PUSH1 0x0 DUP1 REVERT JUMPDEST POP CALLDATALOAD PUSH2 0x2EE5 JUMP JUMPDEST CALLVALUE DUP1 ISZERO PUSH2 0xB27 JUMPI PUSH1 0x0 DUP1 REVERT JUMPDEST POP PUSH2 0x411 PUSH2 0x2FB0 JUMP JUMPDEST CALLVALUE DUP1 ISZERO PUSH2 0xB3C JUMPI PUSH1 0x0 DUP1 REVERT JUMPDEST POP PUSH2 0x3FA PUSH1 0x4 DUP1 CALLDATASIZE SUB PUSH1 0x60 DUP2 LT ISZERO PUSH2 0xB53 JUMPI PUSH1 0x0 DUP1 REVERT JUMPDEST POP DUP1 CALLDATALOAD SWAP1 PUSH1 0x1 PUSH1 0x1 PUSH1 0xA0 SHL SUB PUSH1 0x20 DUP3 ADD CALLDATALOAD AND SWAP1 PUSH1 0x40 ADD CALLDATALOAD PUSH2 0x2FBF JUMP JUMPDEST CALLVALUE DUP1 ISZERO PUSH2 0xB7B JUMPI PUSH1 0x0 DUP1 REVERT JUMPDEST POP PUSH2 0x3FA PUSH1 0x4 DUP1 CALLDATASIZE SUB PUSH1 0x20 DUP2 LT ISZERO PUSH2 0xB92 JUMPI PUSH1 0x0 DUP1 REVERT JUMPDEST POP CALLDATALOAD PUSH1 0x1 PUSH1 0x1 PUSH1 0xA0 SHL SUB AND PUSH2 0x32A9 JUMP JUMPDEST CALLVALUE DUP1 ISZERO PUSH2 0xBAE JUMPI PUSH1 0x0 DUP1 REVERT JUMPDEST POP PUSH2 0xBD5 PUSH1 0x4 DUP1 CALLDATASIZE SUB PUSH1 0x20 DUP2 LT ISZERO PUSH2 0xBC5 JUMPI PUSH1 0x0 DUP1 REVERT JUMPDEST POP CALLDATALOAD PUSH1 0x1 PUSH1 0x1 PUSH1 0xA0 SHL SUB AND PUSH2 0x33A2 JUMP JUMPDEST PUSH1 0x40 DUP1 MLOAD SWAP6 ISZERO ISZERO DUP7 MSTORE PUSH1 0x1 PUSH1 0x1 PUSH1 0xA0 SHL SUB SWAP1 SWAP5 AND PUSH1 0x20 DUP7 ADD MSTORE DUP5 DUP5 ADD SWAP3 SWAP1 SWAP3 MSTORE PUSH1 0x60 DUP5 ADD MSTORE PUSH1 0x80 DUP4 ADD MSTORE MLOAD SWAP1 DUP2 SWAP1 SUB PUSH1 0xA0 ADD SWAP1 RETURN JUMPDEST CALLVALUE DUP1 ISZERO PUSH2 0xC16 JUMPI PUSH1 0x0 DUP1 REVERT JUMPDEST POP PUSH2 0x3FA PUSH1 0x4 DUP1 CALLDATASIZE SUB PUSH1 0x20 DUP2 LT ISZERO PUSH2 0xC2D JUMPI PUSH1 0x0 DUP1 REVERT JUMPDEST POP CALLDATALOAD PUSH2 0x33E2 JUMP JUMPDEST CALLVALUE DUP1 ISZERO PUSH2 0xC40 JUMPI PUSH1 0x0 DUP1 REVERT JUMPDEST POP PUSH2 0x411 PUSH2 0x343F JUMP JUMPDEST CALLVALUE DUP1 ISZERO PUSH2 0xC55 JUMPI PUSH1 0x0 DUP1 REVERT JUMPDEST POP PUSH2 0xC7C PUSH1 0x4 DUP1 CALLDATASIZE SUB PUSH1 0x20 DUP2 LT ISZERO PUSH2 0xC6C JUMPI PUSH1 0x0 DUP1 REVERT JUMPDEST POP CALLDATALOAD PUSH1 0x1 PUSH1 0x1 PUSH1 0xA0 SHL SUB AND PUSH2 0x344E JUMP JUMPDEST PUSH1 0x40 DUP1 MLOAD SWAP7 ISZERO ISZERO DUP8 MSTORE PUSH1 0xFF SWAP1 SWAP6 AND PUSH1 0x20 DUP8 ADD MSTORE PUSH1 0x1 PUSH1 0x1 PUSH1 0xA0 SHL SUB SWAP1 SWAP4 AND DUP6 DUP6 ADD MSTORE PUSH1 0x60 DUP6 ADD SWAP2 SWAP1 SWAP2 MSTORE PUSH1 0x80 DUP5 ADD MSTORE PUSH1 0xA0 DUP4 ADD MSTORE MLOAD SWAP1 DUP2 SWAP1 SUB PUSH1 0xC0 ADD SWAP1 RETURN JUMPDEST CALLVALUE DUP1 ISZERO PUSH2 0xCC7 JUMPI PUSH1 0x0 DUP1 REVERT JUMPDEST POP PUSH2 0x442 PUSH1 0x4 DUP1 CALLDATASIZE SUB PUSH1 0x40 DUP2 LT ISZERO PUSH2 0xCDE JUMPI PUSH1 0x0 DUP1 REVERT JUMPDEST POP DUP1 CALLDATALOAD SWAP1 PUSH1 0x20 ADD CALLDATALOAD PUSH1 0x1 PUSH1 0x1 PUSH1 0xA0 SHL SUB AND PUSH2 0x3491 JUMP JUMPDEST CALLVALUE DUP1 ISZERO PUSH2 0xD00 JUMPI PUSH1 0x0 DUP1 REVERT JUMPDEST POP PUSH2 0x3BA PUSH1 0x4 DUP1 CALLDATASIZE SUB PUSH1 0x20 DUP2 LT ISZERO PUSH2 0xD17 JUMPI PUSH1 0x0 DUP1 REVERT JUMPDEST POP CALLDATALOAD PUSH1 0x1 PUSH1 0x1 PUSH1 0xA0 SHL SUB AND PUSH2 0x34AF JUMP JUMPDEST CALLVALUE DUP1 ISZERO PUSH2 0xD33 JUMPI PUSH1 0x0 DUP1 REVERT JUMPDEST POP PUSH2 0x442 PUSH2 0x34C4 JUMP JUMPDEST CALLVALUE DUP1 ISZERO PUSH2 0xD48 JUMPI PUSH1 0x0 DUP1 REVERT JUMPDEST POP PUSH2 0x411 PUSH2 0x34CA JUMP JUMPDEST CALLVALUE DUP1 ISZERO PUSH2 0xD5D JUMPI PUSH1 0x0 DUP1 REVERT JUMPDEST POP PUSH2 0xD7B PUSH1 0x4 DUP1 CALLDATASIZE SUB PUSH1 0x20 DUP2 LT ISZERO PUSH2 0xD74 JUMPI PUSH1 0x0 DUP1 REVERT JUMPDEST POP CALLDATALOAD PUSH2 0x34D9 JUMP JUMPDEST PUSH1 0x40 DUP1 MLOAD PUSH1 0x1 PUSH1 0x1 PUSH1 0xA0 SHL SUB SWAP7 DUP8 AND DUP2 MSTORE SWAP5 SWAP1 SWAP6 AND PUSH1 0x20 DUP6 ADD MSTORE DUP4 DUP6 ADD SWAP3 SWAP1 SWAP3 MSTORE PUSH1 0x60 DUP4 ADD MSTORE PUSH1 0x80 DUP3 ADD MSTORE SWAP1 MLOAD SWAP1 DUP2 SWAP1 SUB PUSH1 0xA0 ADD SWAP1 RETURN JUMPDEST CALLVALUE DUP1 ISZERO PUSH2 0xDBE JUMPI PUSH1 0x0 DUP1 REVERT JUMPDEST POP PUSH2 0x3FA PUSH1 0x4 DUP1 CALLDATASIZE SUB PUSH1 0x40 DUP2 LT ISZERO PUSH2 0xDD5 JUMPI PUSH1 0x0 DUP1 REVERT JUMPDEST DUP2 ADD SWAP1 PUSH1 0x20 DUP2 ADD DUP2 CALLDATALOAD PUSH1 0x1 PUSH1 0x20 SHL DUP2 GT ISZERO PUSH2 0xDEF JUMPI PUSH1 0x0 DUP1 REVERT JUMPDEST DUP3 ADD DUP4 PUSH1 0x20 DUP3 ADD GT ISZERO PUSH2 0xE01 JUMPI PUSH1 0x0 DUP1 REVERT JUMPDEST DUP1 CALLDATALOAD SWAP1 PUSH1 0x20 ADD SWAP2 DUP5 PUSH1 0x20 DUP4 MUL DUP5 ADD GT PUSH1 0x1 PUSH1 0x20 SHL DUP4 GT OR ISZERO PUSH2 0xE22 JUMPI PUSH1 0x0 DUP1 REVERT JUMPDEST SWAP2 SWAP4 SWAP1 SWAP3 SWAP1 SWAP2 PUSH1 0x20 DUP2 ADD SWAP1 CALLDATALOAD PUSH1 0x1 PUSH1 0x20 SHL DUP2 GT ISZERO PUSH2 0xE3F JUMPI PUSH1 0x0 DUP1 REVERT JUMPDEST DUP3 ADD DUP4 PUSH1 0x20 DUP3 ADD GT ISZERO PUSH2 0xE51 JUMPI PUSH1 0x0 DUP1 REVERT JUMPDEST DUP1 CALLDATALOAD SWAP1 PUSH1 0x20 ADD SWAP2 DUP5 PUSH1 0x20 DUP4 MUL DUP5 ADD GT PUSH1 0x1 PUSH1 0x20 SHL DUP4 GT OR ISZERO PUSH2 0xE72 JUMPI PUSH1 0x0 DUP1 REVERT JUMPDEST POP SWAP1 SWAP3 POP SWAP1 POP PUSH2 0x3514 JUMP JUMPDEST CALLVALUE DUP1 ISZERO PUSH2 0xE89 JUMPI PUSH1 0x0 DUP1 REVERT JUMPDEST POP PUSH2 0x442 PUSH1 0x4 DUP1 CALLDATASIZE SUB PUSH1 0x20 DUP2 LT ISZERO PUSH2 0xEA0 JUMPI PUSH1 0x0 DUP1 REVERT JUMPDEST POP CALLDATALOAD PUSH2 0x3613 JUMP JUMPDEST CALLVALUE DUP1 ISZERO PUSH2 0xEB3 JUMPI PUSH1 0x0 DUP1 REVERT JUMPDEST POP PUSH2 0xFDB PUSH1 0x4 DUP1 CALLDATASIZE SUB PUSH1 0xA0 DUP2 LT ISZERO PUSH2 0xECA JUMPI PUSH1 0x0 DUP1 REVERT JUMPDEST PUSH1 0x1 PUSH1 0x1 PUSH1 0xA0 SHL SUB DUP3 CALLDATALOAD DUP2 AND SWAP3 PUSH1 0x20 DUP2 ADD CALLDATALOAD SWAP1 SWAP2 AND SWAP2 DUP2 ADD SWAP1 PUSH1 0x60 DUP2 ADD PUSH1 0x40 DUP3 ADD CALLDATALOAD PUSH1 0x1 PUSH1 0x20 SHL DUP2 GT ISZERO PUSH2 0xEFD JUMPI PUSH1 0x0 DUP1 REVERT JUMPDEST DUP3 ADD DUP4 PUSH1 0x20 DUP3 ADD GT ISZERO PUSH2 0xF0F JUMPI PUSH1 0x0 DUP1 REVERT JUMPDEST DUP1 CALLDATALOAD SWAP1 PUSH1 0x20 ADD SWAP2 DUP5 PUSH1 0x20 DUP4 MUL DUP5 ADD GT PUSH1 0x1 PUSH1 0x20 SHL DUP4 GT OR ISZERO PUSH2 0xF30 JUMPI PUSH1 0x0 DUP1 REVERT JUMPDEST SWAP2 SWAP4 SWAP1 SWAP3 SWAP1 SWAP2 PUSH1 0x20 DUP2 ADD SWAP1 CALLDATALOAD PUSH1 0x1 PUSH1 0x20 SHL DUP2 GT ISZERO PUSH2 0xF4D JUMPI PUSH1 0x0 DUP1 REVERT JUMPDEST DUP3 ADD DUP4 PUSH1 0x20 DUP3 ADD GT ISZERO PUSH2 0xF5F JUMPI PUSH1 0x0 DUP1 REVERT JUMPDEST DUP1 CALLDATALOAD SWAP1 PUSH1 0x20 ADD SWAP2 DUP5 PUSH1 0x20 DUP4 MUL DUP5 ADD GT PUSH1 0x1 PUSH1 0x20 SHL DUP4 GT OR ISZERO PUSH2 0xF80 JUMPI PUSH1 0x0 DUP1 REVERT JUMPDEST SWAP2 SWAP4 SWAP1 SWAP3 SWAP1 SWAP2 PUSH1 0x20 DUP2 ADD SWAP1 CALLDATALOAD PUSH1 0x1 PUSH1 0x20 SHL DUP2 GT ISZERO PUSH2 0xF9D JUMPI PUSH1 0x0 DUP1 REVERT JUMPDEST DUP3 ADD DUP4 PUSH1 0x20 DUP3 ADD GT ISZERO PUSH2 0xFAF JUMPI PUSH1 0x0 DUP1 REVERT JUMPDEST DUP1 CALLDATALOAD SWAP1 PUSH1 0x20 ADD SWAP2 DUP5 PUSH1 0x1 DUP4 MUL DUP5 ADD GT PUSH1 0x1 PUSH1 0x20 SHL DUP4 GT OR ISZERO PUSH2 0xFD0 JUMPI PUSH1 0x0 DUP1 REVERT JUMPDEST POP SWAP1 SWAP3 POP SWAP1 POP PUSH2 0x3731 JUMP JUMPDEST PUSH1 0x40 DUP1 MLOAD PUSH1 0x1 PUSH1 0x1 PUSH1 0xE0 SHL SUB NOT SWAP1 SWAP3 AND DUP3 MSTORE MLOAD SWAP1 DUP2 SWAP1 SUB PUSH1 0x20 ADD SWAP1 RETURN JUMPDEST CALLVALUE DUP1 ISZERO PUSH2 0x1004 JUMPI PUSH1 0x0 DUP1 REVERT JUMPDEST POP PUSH2 0x411 PUSH2 0x3745 JUMP JUMPDEST CALLVALUE DUP1 ISZERO PUSH2 0x1019 JUMPI PUSH1 0x0 DUP1 REVERT JUMPDEST POP PUSH2 0x442 PUSH2 0x3754 JUMP JUMPDEST CALLVALUE DUP1 ISZERO PUSH2 0x102E JUMPI PUSH1 0x0 DUP1 REVERT JUMPDEST POP PUSH2 0x3FA PUSH1 0x4 DUP1 CALLDATASIZE SUB PUSH1 0x40 DUP2 LT ISZERO PUSH2 0x1045 JUMPI PUSH1 0x0 DUP1 REVERT JUMPDEST POP PUSH1 0x1 PUSH1 0x1 PUSH1 0xA0 SHL SUB DUP2 CALLDATALOAD AND SWAP1 PUSH1 0x20 ADD CALLDATALOAD PUSH2 0x375A JUMP JUMPDEST CALLVALUE DUP1 ISZERO PUSH2 0x1067 JUMPI PUSH1 0x0 DUP1 REVERT JUMPDEST POP PUSH2 0x442 PUSH2 0x3946 JUMP JUMPDEST CALLVALUE DUP1 ISZERO PUSH2 0x107C JUMPI PUSH1 0x0 DUP1 REVERT JUMPDEST POP PUSH2 0x3BA PUSH2 0x394C JUMP JUMPDEST CALLVALUE DUP1 ISZERO PUSH2 0x1091 JUMPI PUSH1 0x0 DUP1 REVERT JUMPDEST POP PUSH2 0x442 PUSH1 0x4 DUP1 CALLDATASIZE SUB PUSH1 0x40 DUP2 LT ISZERO PUSH2 0x10A8 JUMPI PUSH1 0x0 DUP1 REVERT JUMPDEST POP DUP1 CALLDATALOAD SWAP1 PUSH1 0x20 ADD CALLDATALOAD PUSH1 0x1 PUSH1 0x1 PUSH1 0xA0 SHL SUB AND PUSH2 0x3955 JUMP JUMPDEST CALLVALUE DUP1 ISZERO PUSH2 0x10CA JUMPI PUSH1 0x0 DUP1 REVERT JUMPDEST POP PUSH2 0x442 PUSH2 0x3981 JUMP JUMPDEST CALLVALUE DUP1 ISZERO PUSH2 0x10DF JUMPI PUSH1 0x0 DUP1 REVERT JUMPDEST POP PUSH2 0x3BA PUSH1 0x4 DUP1 CALLDATASIZE SUB PUSH1 0x20 DUP2 LT ISZERO PUSH2 0x10F6 JUMPI PUSH1 0x0 DUP1 REVERT JUMPDEST POP CALLDATALOAD PUSH1 0x1 PUSH1 0x1 PUSH1 0xA0 SHL SUB AND PUSH2 0x3987 JUMP JUMPDEST CALLVALUE DUP1 ISZERO PUSH2 0x1112 JUMPI PUSH1 0x0 DUP1 REVERT JUMPDEST POP PUSH2 0x411 PUSH1 0x4 DUP1 CALLDATASIZE SUB PUSH1 0x20 DUP2 LT ISZERO PUSH2 0x1129 JUMPI PUSH1 0x0 DUP1 REVERT JUMPDEST POP CALLDATALOAD PUSH2 0x399C JUMP JUMPDEST CALLVALUE DUP1 ISZERO PUSH2 0x113C JUMPI PUSH1 0x0 DUP1 REVERT JUMPDEST POP PUSH2 0x411 PUSH2 0x39C3 JUMP JUMPDEST CALLVALUE DUP1 ISZERO PUSH2 0x1151 JUMPI PUSH1 0x0 DUP1 REVERT JUMPDEST POP PUSH2 0x3FA PUSH2 0x39D2 JUMP JUMPDEST CALLVALUE DUP1 ISZERO PUSH2 0x1166 JUMPI PUSH1 0x0 DUP1 REVERT JUMPDEST POP PUSH2 0x3BA PUSH1 0x4 DUP1 CALLDATASIZE SUB PUSH1 0x20 DUP2 LT ISZERO PUSH2 0x117D JUMPI PUSH1 0x0 DUP1 REVERT JUMPDEST POP CALLDATALOAD PUSH1 0x1 PUSH1 0x1 PUSH1 0xA0 SHL SUB AND PUSH2 0x3A94 JUMP JUMPDEST CALLVALUE DUP1 ISZERO PUSH2 0x1199 JUMPI PUSH1 0x0 DUP1 REVERT JUMPDEST POP PUSH2 0x3FA PUSH1 0x4 DUP1 CALLDATASIZE SUB PUSH1 0x20 DUP2 LT ISZERO PUSH2 0x11B0 JUMPI PUSH1 0x0 DUP1 REVERT JUMPDEST POP CALLDATALOAD PUSH1 0x1 PUSH1 0x1 PUSH1 0xA0 SHL SUB AND PUSH2 0x3B17 JUMP JUMPDEST CALLVALUE DUP1 ISZERO PUSH2 0x11CC JUMPI PUSH1 0x0 DUP1 REVERT JUMPDEST POP PUSH2 0x3FA PUSH1 0x4 DUP1 CALLDATASIZE SUB PUSH1 0x20 DUP2 LT ISZERO PUSH2 0x11E3 JUMPI PUSH1 0x0 DUP1 REVERT JUMPDEST POP CALLDATALOAD PUSH1 0x1 PUSH1 0x1 PUSH1 0xA0 SHL SUB AND PUSH2 0x3BC3 JUMP JUMPDEST CALLVALUE DUP1 ISZERO PUSH2 0x11FF JUMPI PUSH1 0x0 DUP1 REVERT JUMPDEST POP PUSH2 0xFDB PUSH1 0x4 DUP1 CALLDATASIZE SUB PUSH1 0xA0 DUP2 LT ISZERO PUSH2 0x1216 JUMPI PUSH1 0x0 DUP1 REVERT JUMPDEST PUSH1 0x1 PUSH1 0x1 PUSH1 0xA0 SHL SUB DUP3 CALLDATALOAD DUP2 AND SWAP3 PUSH1 0x20 DUP2 ADD CALLDATALOAD SWAP1 SWAP2 AND SWAP2 PUSH1 0x40 DUP3 ADD CALLDATALOAD SWAP2 PUSH1 0x60 DUP2 ADD CALLDATALOAD SWAP2 DUP2 ADD SWAP1 PUSH1 0xA0 DUP2 ADD PUSH1 0x80 DUP3 ADD CALLDATALOAD PUSH1 0x1 PUSH1 0x20 SHL DUP2 GT ISZERO PUSH2 0x1255 JUMPI PUSH1 0x0 DUP1 REVERT JUMPDEST DUP3 ADD DUP4 PUSH1 0x20 DUP3 ADD GT ISZERO PUSH2 0x1267 JUMPI PUSH1 0x0 DUP1 REVERT JUMPDEST DUP1 CALLDATALOAD SWAP1 PUSH1 0x20 ADD SWAP2 DUP5 PUSH1 0x1 DUP4 MUL DUP5 ADD GT PUSH1 0x1 PUSH1 0x20 SHL DUP4 GT OR ISZERO PUSH2 0x1288 JUMPI PUSH1 0x0 DUP1 REVERT JUMPDEST POP SWAP1 SWAP3 POP SWAP1 POP PUSH2 0x3C6F JUMP JUMPDEST CALLVALUE DUP1 ISZERO PUSH2 0x129F JUMPI PUSH1 0x0 DUP1 REVERT JUMPDEST POP PUSH2 0x3BA PUSH1 0x4 DUP1 CALLDATASIZE SUB PUSH1 0x20 DUP2 LT ISZERO PUSH2 0x12B6 JUMPI PUSH1 0x0 DUP1 REVERT JUMPDEST POP CALLDATALOAD PUSH1 0x1 PUSH1 0x1 PUSH1 0xA0 SHL SUB AND PUSH2 0x3C81 JUMP JUMPDEST CALLVALUE DUP1 ISZERO PUSH2 0x12D2 JUMPI PUSH1 0x0 DUP1 REVERT JUMPDEST POP PUSH2 0x892 PUSH2 0x3C96 JUMP JUMPDEST CALLVALUE DUP1 ISZERO PUSH2 0x12E7 JUMPI PUSH1 0x0 DUP1 REVERT JUMPDEST POP PUSH2 0x442 PUSH1 0x4 DUP1 CALLDATASIZE SUB PUSH1 0x40 DUP2 LT ISZERO PUSH2 0x12FE JUMPI PUSH1 0x0 DUP1 REVERT JUMPDEST POP DUP1 CALLDATALOAD SWAP1 PUSH1 0x20 ADD CALLDATALOAD PUSH1 0x1 PUSH1 0x1 PUSH1 0xA0 SHL SUB AND PUSH2 0x3CF6 JUMP JUMPDEST PUSH1 0x1 PUSH1 0x1 PUSH1 0xE0 SHL SUB NOT DUP2 AND PUSH1 0x0 SWAP1 DUP2 MSTORE PUSH1 0x42 PUSH1 0x20 MSTORE PUSH1 0x40 SWAP1 KECCAK256 SLOAD PUSH1 0xFF AND JUMPDEST SWAP2 SWAP1 POP JUMP JUMPDEST PUSH1 0x94 SLOAD PUSH1 0x1 PUSH1 0x1 PUSH1 0xA0 SHL SUB AND CALLER EQ PUSH2 0x1381 JUMPI PUSH1 0x40 DUP1 MLOAD PUSH3 0x461BCD PUSH1 0xE5 SHL DUP2 MSTORE PUSH1 0x20 PUSH1 0x4 DUP3 ADD MSTORE PUSH1 0x8 PUSH1 0x24 DUP3 ADD MSTORE PUSH8 0x6E6F742065786563 PUSH1 0xC0 SHL PUSH1 0x44 DUP3 ADD MSTORE SWAP1 MLOAD SWAP1 DUP2 SWAP1 SUB PUSH1 0x64 ADD SWAP1 REVERT JUMPDEST PUSH1 0x8F DUP1 SLOAD PUSH1 0xFF NOT AND SWAP2 ISZERO ISZERO SWAP2 SWAP1 SWAP2 OR SWAP1 SSTORE JUMP JUMPDEST PUSH1 0x0 SLOAD PUSH3 0x10000 SWAP1 DIV PUSH1 0x1 PUSH1 0x1 PUSH1 0xA0 SHL SUB AND DUP2 JUMP JUMPDEST PUSH1 0x93 SLOAD DUP2 JUMP JUMPDEST PUSH1 0x0 SLOAD PUSH3 0x10000 SWAP1 DIV PUSH1 0x1 PUSH1 0x1 PUSH1 0xA0 SHL SUB AND CALLER EQ PUSH2 0x1407 JUMPI PUSH1 0x40 DUP1 MLOAD PUSH3 0x461BCD PUSH1 0xE5 SHL DUP2 MSTORE PUSH1 0x20 PUSH1 0x4 DUP3 ADD MSTORE PUSH1 0x10 PUSH1 0x24 DUP3 ADD MSTORE PUSH16 0x3737BA103A34329033B7BB32B93737B9 PUSH1 0x81 SHL PUSH1 0x44 DUP3 ADD MSTORE SWAP1 MLOAD SWAP1 DUP2 SWAP1 SUB PUSH1 0x64 ADD SWAP1 REVERT JUMPDEST PUSH1 0x1 PUSH1 0x83 SLOAD EQ PUSH2 0x144D JUMPI PUSH1 0x40 DUP1 MLOAD PUSH3 0x461BCD PUSH1 0xE5 SHL DUP2 MSTORE PUSH1 0x20 PUSH1 0x4 DUP3 ADD MSTORE PUSH1 0xC PUSH1 0x24 DUP3 ADD MSTORE PUSH12 0x67656E6572616C206C6F636B PUSH1 0xA0 SHL PUSH1 0x44 DUP3 ADD MSTORE SWAP1 MLOAD SWAP1 DUP2 SWAP1 SUB PUSH1 0x64 ADD SWAP1 REVERT JUMPDEST PUSH1 0x2 PUSH1 0x83 SSTORE PUSH1 0x1 PUSH1 0x1 PUSH1 0xA0 SHL SUB DUP3 AND PUSH1 0x0 SWAP1 DUP2 MSTORE PUSH1 0x8C PUSH1 0x20 MSTORE PUSH1 0x40 SWAP1 KECCAK256 DUP1 SLOAD PUSH1 0xFF AND PUSH2 0x14B1 JUMPI PUSH1 0x40 DUP1 MLOAD PUSH3 0x461BCD PUSH1 0xE5 SHL DUP2 MSTORE PUSH1 0x20 PUSH1 0x4 DUP3 ADD MSTORE PUSH1 0xE PUSH1 0x24 DUP3 ADD MSTORE PUSH14 0x18985B9AC81B9BDD08195E1A5CDD PUSH1 0x92 SHL PUSH1 0x44 DUP3 ADD MSTORE SWAP1 MLOAD SWAP1 DUP2 SWAP1 SUB PUSH1 0x64 ADD SWAP1 REVERT JUMPDEST PUSH1 0x1 DUP2 ADD SLOAD PUSH2 0x14C0 SWAP1 DUP4 PUSH2 0x3D6C JUMP JUMPDEST PUSH1 0x1 DUP3 ADD SSTORE PUSH2 0x14D9 PUSH1 0x1 PUSH1 0x1 PUSH1 0xA0 SHL SUB DUP5 AND CALLER DUP5 PUSH2 0x3DC9 JUMP JUMPDEST PUSH1 0x40 DUP1 MLOAD CALLER DUP2 MSTORE PUSH1 0x1 PUSH1 0x1 PUSH1 0xA0 SHL SUB DUP6 AND PUSH1 0x20 DUP3 ADD MSTORE DUP1 DUP3 ADD DUP5 SWAP1 MSTORE SWAP1 MLOAD PUSH32 0x1480BC3D4718A0A5FA9EB55D53E0B79A638148873FC124922BB0EC377425B85B SWAP2 DUP2 SWAP1 SUB PUSH1 0x60 ADD SWAP1 LOG1 POP POP PUSH1 0x1 PUSH1 0x83 SSTORE POP JUMP JUMPDEST PUSH1 0x0 NOT PUSH1 0x85 SLOAD EQ ISZERO PUSH2 0x157B JUMPI PUSH1 0x40 DUP1 MLOAD PUSH3 0x461BCD PUSH1 0xE5 SHL DUP2 MSTORE PUSH1 0x20 PUSH1 0x4 DUP3 ADD MSTORE PUSH1 0x14 PUSH1 0x24 DUP3 ADD MSTORE PUSH20 0x3737BA103BB4BA3434B71032BC32B1BABA34B7B7 PUSH1 0x61 SHL PUSH1 0x44 DUP3 ADD MSTORE SWAP1 MLOAD SWAP1 DUP2 SWAP1 SUB PUSH1 0x64 ADD SWAP1 REVERT JUMPDEST PUSH1 0x86 SLOAD PUSH1 0x1 PUSH1 0x1 PUSH1 0xA0 SHL SUB AND CALLER EQ PUSH2 0x15CB JUMPI PUSH1 0x40 DUP1 MLOAD PUSH3 0x461BCD PUSH1 0xE5 SHL DUP2 MSTORE PUSH1 0x20 PUSH1 0x4 DUP3 ADD MSTORE PUSH1 0xE PUSH1 0x24 DUP3 ADD MSTORE PUSH14 0x1B9BDD08199C9BDB481CDC195B1B PUSH1 0x92 SHL PUSH1 0x44 DUP3 ADD MSTORE SWAP1 MLOAD SWAP1 DUP2 SWAP1 SUB PUSH1 0x64 ADD SWAP1 REVERT JUMPDEST PUSH1 0x1 PUSH1 0x84 SLOAD EQ PUSH2 0x1611 JUMPI PUSH1 0x40 DUP1 MLOAD PUSH3 0x461BCD PUSH1 0xE5 SHL DUP2 MSTORE PUSH1 0x20 PUSH1 0x4 DUP3 ADD MSTORE PUSH1 0xC PUSH1 0x24 DUP3 ADD MSTORE PUSH12 0x696E2065786563206C6F636B PUSH1 0xA0 SHL PUSH1 0x44 DUP3 ADD MSTORE SWAP1 MLOAD SWAP1 DUP2 SWAP1 SUB PUSH1 0x64 ADD SWAP1 REVERT JUMPDEST PUSH1 0x2 PUSH1 0x84 SSTORE DUP2 PUSH2 0x1620 DUP2 PUSH2 0x25B5 JUMP JUMPDEST PUSH2 0x1628 PUSH2 0x1752 JUMP JUMPDEST PUSH2 0x166D JUMPI PUSH1 0x40 DUP1 MLOAD PUSH3 0x461BCD PUSH1 0xE5 SHL DUP2 MSTORE PUSH1 0x20 PUSH1 0x4 DUP3 ADD MSTORE PUSH1 0x11 PUSH1 0x24 DUP3 ADD MSTORE PUSH17 0x1C995C185E481B9BDD08185B1B1BDDD959 PUSH1 0x7A SHL PUSH1 0x44 DUP3 ADD MSTORE SWAP1 MLOAD SWAP1 DUP2 SWAP1 SUB PUSH1 0x64 ADD SWAP1 REVERT JUMPDEST PUSH1 0x1 PUSH1 0x1 PUSH1 0xA0 SHL SUB DUP4 AND PUSH1 0x0 SWAP1 DUP2 MSTORE PUSH1 0x90 PUSH1 0x20 MSTORE PUSH1 0x40 SWAP1 KECCAK256 SLOAD PUSH1 0xFF AND PUSH2 0x16D2 JUMPI PUSH1 0x40 DUP1 MLOAD PUSH3 0x461BCD PUSH1 0xE5 SHL DUP2 MSTORE PUSH1 0x20 PUSH1 0x4 DUP3 ADD MSTORE PUSH1 0x15 PUSH1 0x24 DUP3 ADD MSTORE PUSH21 0x1D1BDAD95B881B9BDD081DDA1A5D195B1A5CDD1959 PUSH1 0x5A SHL PUSH1 0x44 DUP3 ADD MSTORE SWAP1 MLOAD SWAP1 DUP2 SWAP1 SUB PUSH1 0x64 ADD SWAP1 REVERT JUMPDEST PUSH1 0x0 DUP1 PUSH2 0x16E2 PUSH1 0x85 SLOAD DUP7 DUP7 PUSH2 0x3E1B JUMP JUMPDEST PUSH1 0x85 SLOAD PUSH1 0x40 DUP1 MLOAD SWAP2 DUP3 MSTORE CALLER PUSH1 0x20 DUP4 ADD MSTORE PUSH1 0x1 PUSH1 0x1 PUSH1 0xA0 SHL SUB DUP10 AND DUP3 DUP3 ADD MSTORE PUSH1 0x60 DUP3 ADD DUP5 SWAP1 MSTORE PUSH1 0x80 DUP3 ADD DUP4 SWAP1 MSTORE MLOAD SWAP3 SWAP5 POP SWAP1 SWAP3 POP PUSH32 0x9181B2981704B7CF4448130F29CB5DA1F41E0418D000E7F8880000B09BCBEA45 SWAP2 SWAP1 DUP2 SWAP1 SUB PUSH1 0xA0 ADD SWAP1 LOG1 POP POP PUSH1 0x1 PUSH1 0x84 SSTORE POP POP POP JUMP JUMPDEST PUSH1 0x89 SLOAD DUP2 JUMP JUMPDEST PUSH1 0x93 SLOAD PUSH1 0x2 AND ISZERO ISZERO SWAP1 JUMP JUMPDEST PUSH1 0x0 NOT PUSH1 0x85 SLOAD EQ ISZERO PUSH2 0x17AD JUMPI PUSH1 0x40 DUP1 MLOAD PUSH3 0x461BCD PUSH1 0xE5 SHL DUP2 MSTORE PUSH1 0x20 PUSH1 0x4 DUP3 ADD MSTORE PUSH1 0x14 PUSH1 0x24 DUP3 ADD MSTORE PUSH20 0x3737BA103BB4BA3434B71032BC32B1BABA34B7B7 PUSH1 0x61 SHL PUSH1 0x44 DUP3 ADD MSTORE SWAP1 MLOAD SWAP1 DUP2 SWAP1 SUB PUSH1 0x64 ADD SWAP1 REVERT JUMPDEST PUSH1 0x86 SLOAD PUSH1 0x1 PUSH1 0x1 PUSH1 0xA0 SHL SUB AND CALLER EQ PUSH2 0x17FD JUMPI PUSH1 0x40 DUP1 MLOAD PUSH3 0x461BCD PUSH1 0xE5 SHL DUP2 MSTORE PUSH1 0x20 PUSH1 0x4 DUP3 ADD MSTORE PUSH1 0xE PUSH1 0x24 DUP3 ADD MSTORE PUSH14 0x1B9BDD08199C9BDB481CDC195B1B PUSH1 0x92 SHL PUSH1 0x44 DUP3 ADD MSTORE SWAP1 MLOAD SWAP1 DUP2 SWAP1 SUB PUSH1 0x64 ADD SWAP1 REVERT JUMPDEST PUSH1 0x1 PUSH1 0x84 SLOAD EQ PUSH2 0x1843 JUMPI PUSH1 0x40 DUP1 MLOAD PUSH3 0x461BCD PUSH1 0xE5 SHL DUP2 MSTORE PUSH1 0x20 PUSH1 0x4 DUP3 ADD MSTORE PUSH1 0xC PUSH1 0x24 DUP3 ADD MSTORE PUSH12 0x696E2065786563206C6F636B PUSH1 0xA0 SHL PUSH1 0x44 DUP3 ADD MSTORE SWAP1 MLOAD SWAP1 DUP2 SWAP1 SUB PUSH1 0x64 ADD SWAP1 REVERT JUMPDEST PUSH1 0x2 PUSH1 0x84 SSTORE PUSH1 0x85 SLOAD PUSH1 0x0 SWAP1 DUP2 MSTORE PUSH1 0x8E PUSH1 0x20 MSTORE PUSH1 0x40 SWAP1 KECCAK256 PUSH1 0x1 DUP2 ADD SLOAD PUSH1 0x1 PUSH1 0x1 PUSH1 0xA0 SHL SUB DUP6 DUP2 AND SWAP2 AND EQ ISZERO DUP1 PUSH2 0x187C JUMPI POP DUP3 DUP2 PUSH1 0x2 ADD SLOAD EQ ISZERO JUMPDEST ISZERO PUSH2 0x19B8 JUMPI PUSH1 0x88 SLOAD PUSH1 0x40 DUP1 MLOAD PUSH4 0x2461A409 PUSH1 0xE0 SHL DUP2 MSTORE PUSH1 0x1 PUSH1 0x1 PUSH1 0xA0 SHL SUB DUP8 DUP2 AND PUSH1 0x4 DUP4 ADD MSTORE PUSH1 0x24 DUP3 ADD DUP8 SWAP1 MSTORE SWAP2 MLOAD SWAP2 SWAP1 SWAP3 AND SWAP2 PUSH4 0x2461A409 SWAP2 PUSH1 0x44 DUP1 DUP4 ADD SWAP3 PUSH1 0x20 SWAP3 SWAP2 SWAP1 DUP3 SWAP1 SUB ADD DUP2 DUP7 DUP1 EXTCODESIZE ISZERO DUP1 ISZERO PUSH2 0x18D5 JUMPI PUSH1 0x0 DUP1 REVERT JUMPDEST POP GAS STATICCALL ISZERO DUP1 ISZERO PUSH2 0x18E9 JUMPI RETURNDATASIZE PUSH1 0x0 DUP1 RETURNDATACOPY RETURNDATASIZE PUSH1 0x0 REVERT JUMPDEST POP POP POP POP PUSH1 0x40 MLOAD RETURNDATASIZE PUSH1 0x20 DUP2 LT ISZERO PUSH2 0x18FF JUMPI PUSH1 0x0 DUP1 REVERT JUMPDEST POP MLOAD PUSH2 0x1952 JUMPI PUSH1 0x40 DUP1 MLOAD PUSH3 0x461BCD PUSH1 0xE5 SHL DUP2 MSTORE PUSH1 0x20 PUSH1 0x4 DUP3 ADD MSTORE PUSH1 0x18 PUSH1 0x24 DUP3 ADD MSTORE PUSH32 0x636F6C6C61746572616C206E6F7420737570706F727465640000000000000000 PUSH1 0x44 DUP3 ADD MSTORE SWAP1 MLOAD SWAP1 DUP2 SWAP1 SUB PUSH1 0x64 ADD SWAP1 REVERT JUMPDEST PUSH1 0x3 DUP2 ADD SLOAD ISZERO PUSH2 0x1993 JUMPI PUSH1 0x40 MLOAD PUSH3 0x461BCD PUSH1 0xE5 SHL DUP2 MSTORE PUSH1 0x4 ADD DUP1 DUP1 PUSH1 0x20 ADD DUP3 DUP2 SUB DUP3 MSTORE PUSH1 0x29 DUP2 MSTORE PUSH1 0x20 ADD DUP1 PUSH2 0x4DE4 PUSH1 0x29 SWAP2 CODECOPY PUSH1 0x40 ADD SWAP2 POP POP PUSH1 0x40 MLOAD DUP1 SWAP2 SUB SWAP1 REVERT JUMPDEST PUSH1 0x1 DUP2 ADD DUP1 SLOAD PUSH1 0x1 PUSH1 0x1 PUSH1 0xA0 SHL SUB NOT AND PUSH1 0x1 PUSH1 0x1 PUSH1 0xA0 SHL SUB DUP7 AND OR SWAP1 SSTORE PUSH1 0x2 DUP2 ADD DUP4 SWAP1 SSTORE JUMPDEST PUSH1 0x0 PUSH2 0x19C5 DUP6 DUP6 DUP6 PUSH2 0x3F6E JUMP JUMPDEST PUSH1 0x3 DUP4 ADD SLOAD SWAP1 SWAP2 POP PUSH2 0x19D7 SWAP1 DUP3 PUSH2 0x410F JUMP JUMPDEST PUSH1 0x3 DUP4 ADD SSTORE PUSH1 0x85 SLOAD PUSH1 0x40 DUP1 MLOAD SWAP2 DUP3 MSTORE CALLER PUSH1 0x20 DUP4 ADD MSTORE PUSH1 0x1 PUSH1 0x1 PUSH1 0xA0 SHL SUB DUP8 AND DUP3 DUP3 ADD MSTORE PUSH1 0x60 DUP3 ADD DUP7 SWAP1 MSTORE PUSH1 0x80 DUP3 ADD DUP4 SWAP1 MSTORE MLOAD PUSH32 0x1169C71F6CE3FBF1D6AAE39931591C46ED51976EDA9F851886FAE319970482FF SWAP2 DUP2 SWAP1 SUB PUSH1 0xA0 ADD SWAP1 LOG1 POP POP PUSH1 0x1 PUSH1 0x84 SSTORE POP POP POP JUMP JUMPDEST PUSH1 0x0 SLOAD PUSH3 0x10000 SWAP1 DIV PUSH1 0x1 PUSH1 0x1 PUSH1 0xA0 SHL SUB AND CALLER EQ PUSH2 0x1A97 JUMPI PUSH1 0x40 DUP1 MLOAD PUSH3 0x461BCD PUSH1 0xE5 SHL DUP2 MSTORE PUSH1 0x20 PUSH1 0x4 DUP3 ADD MSTORE PUSH1 0x10 PUSH1 0x24 DUP3 ADD MSTORE PUSH16 0x3737BA103A34329033B7BB32B93737B9 PUSH1 0x81 SHL PUSH1 0x44 DUP3 ADD MSTORE SWAP1 MLOAD SWAP1 DUP2 SWAP1 SUB PUSH1 0x64 ADD SWAP1 REVERT JUMPDEST DUP3 DUP2 EQ PUSH2 0x1AD5 JUMPI PUSH1 0x40 MLOAD PUSH3 0x461BCD PUSH1 0xE5 SHL DUP2 MSTORE PUSH1 0x4 ADD DUP1 DUP1 PUSH1 0x20 ADD DUP3 DUP2 SUB DUP3 MSTORE PUSH1 0x23 DUP2 MSTORE PUSH1 0x20 ADD DUP1 PUSH2 0x4EC7 PUSH1 0x23 SWAP2 CODECOPY PUSH1 0x40 ADD SWAP2 POP POP PUSH1 0x40 MLOAD DUP1 SWAP2 SUB SWAP1 REVERT JUMPDEST PUSH1 0x0 JUMPDEST DUP4 DUP2 LT ISZERO PUSH2 0x1BCB JUMPI DUP3 DUP3 DUP3 DUP2 DUP2 LT PUSH2 0x1AEC JUMPI INVALID JUMPDEST SWAP1 POP PUSH1 0x20 MUL ADD CALLDATALOAD ISZERO PUSH2 0x1B6D JUMPI PUSH2 0x1B1C DUP6 DUP6 DUP4 DUP2 DUP2 LT PUSH2 0x1B07 JUMPI INVALID JUMPDEST SWAP1 POP PUSH1 0x20 MUL ADD CALLDATALOAD PUSH1 0x1 PUSH1 0x1 PUSH1 0xA0 SHL SUB AND PUSH2 0x3A94 JUMP JUMPDEST PUSH2 0x1B6D JUMPI PUSH1 0x40 DUP1 MLOAD PUSH3 0x461BCD PUSH1 0xE5 SHL DUP2 MSTORE PUSH1 0x20 PUSH1 0x4 DUP3 ADD MSTORE PUSH1 0x18 PUSH1 0x24 DUP3 ADD MSTORE PUSH32 0x6F7261636C65206E6F7420737570706F727420746F6B656E0000000000000000 PUSH1 0x44 DUP3 ADD MSTORE SWAP1 MLOAD SWAP1 DUP2 SWAP1 SUB PUSH1 0x64 ADD SWAP1 REVERT JUMPDEST DUP3 DUP3 DUP3 DUP2 DUP2 LT PUSH2 0x1B79 JUMPI INVALID JUMPDEST SWAP1 POP PUSH1 0x20 MUL ADD CALLDATALOAD ISZERO ISZERO PUSH1 0x90 PUSH1 0x0 DUP8 DUP8 DUP6 DUP2 DUP2 LT PUSH2 0x1B92 JUMPI INVALID JUMPDEST PUSH1 0x20 SWAP1 DUP2 MUL SWAP3 SWAP1 SWAP3 ADD CALLDATALOAD PUSH1 0x1 PUSH1 0x1 PUSH1 0xA0 SHL SUB AND DUP4 MSTORE POP DUP2 ADD SWAP2 SWAP1 SWAP2 MSTORE PUSH1 0x40 ADD PUSH1 0x0 KECCAK256 DUP1 SLOAD PUSH1 0xFF NOT AND SWAP2 ISZERO ISZERO SWAP2 SWAP1 SWAP2 OR SWAP1 SSTORE PUSH1 0x1 ADD PUSH2 0x1AD8 JUMP JUMPDEST POP POP POP POP POP JUMP JUMPDEST PUSH1 0x0 JUMPDEST DUP2 MLOAD DUP2 LT ISZERO PUSH2 0x1C02 JUMPI PUSH2 0x1BFA DUP3 DUP3 DUP2 MLOAD DUP2 LT PUSH2 0x1BED JUMPI INVALID JUMPDEST PUSH1 0x20 MUL PUSH1 0x20 ADD ADD MLOAD PUSH2 0x25B5 JUMP JUMPDEST PUSH1 0x1 ADD PUSH2 0x1BD5 JUMP JUMPDEST POP POP JUMP JUMPDEST PUSH1 0x8D PUSH1 0x20 MSTORE PUSH1 0x0 SWAP1 DUP2 MSTORE PUSH1 0x40 SWAP1 KECCAK256 SLOAD PUSH1 0xFF AND DUP2 JUMP JUMPDEST PUSH1 0x0 SLOAD PUSH3 0x10000 SWAP1 DIV PUSH1 0x1 PUSH1 0x1 PUSH1 0xA0 SHL SUB AND CALLER EQ PUSH2 0x1C73 JUMPI PUSH1 0x40 DUP1 MLOAD PUSH3 0x461BCD PUSH1 0xE5 SHL DUP2 MSTORE PUSH1 0x20 PUSH1 0x4 DUP3 ADD MSTORE PUSH1 0x10 PUSH1 0x24 DUP3 ADD MSTORE PUSH16 0x3737BA103A34329033B7BB32B93737B9 PUSH1 0x81 SHL PUSH1 0x44 DUP3 ADD MSTORE SWAP1 MLOAD SWAP1 DUP2 SWAP1 SUB PUSH1 0x64 ADD SWAP1 REVERT JUMPDEST PUSH1 0x1 PUSH1 0x1 PUSH1 0xA0 SHL SUB DUP1 DUP4 AND PUSH1 0x0 SWAP1 DUP2 MSTORE PUSH1 0x8C PUSH1 0x20 SWAP1 DUP2 MSTORE PUSH1 0x40 DUP1 DUP4 KECCAK256 SWAP4 DUP6 AND DUP4 MSTORE PUSH1 0x8D SWAP1 SWAP2 MSTORE SWAP1 KECCAK256 SLOAD PUSH1 0xFF AND ISZERO PUSH2 0x1CE9 JUMPI PUSH1 0x40 DUP1 MLOAD PUSH3 0x461BCD PUSH1 0xE5 SHL DUP2 MSTORE PUSH1 0x20 PUSH1 0x4 DUP3 ADD MSTORE PUSH1 0x15 PUSH1 0x24 DUP3 ADD MSTORE PUSH21 0x63546F6B656E20616C726561647920657869737473 PUSH1 0x58 SHL PUSH1 0x44 DUP3 ADD MSTORE SWAP1 MLOAD SWAP1 DUP2 SWAP1 SUB PUSH1 0x64 ADD SWAP1 REVERT JUMPDEST DUP1 SLOAD PUSH1 0xFF AND ISZERO PUSH2 0x1D36 JUMPI PUSH1 0x40 DUP1 MLOAD PUSH3 0x461BCD PUSH1 0xE5 SHL DUP2 MSTORE PUSH1 0x20 PUSH1 0x4 DUP3 ADD MSTORE PUSH1 0x13 PUSH1 0x24 DUP3 ADD MSTORE PUSH19 0x62616E6B20616C726561647920657869737473 PUSH1 0x68 SHL PUSH1 0x44 DUP3 ADD MSTORE SWAP1 MLOAD SWAP1 DUP2 SWAP1 SUB PUSH1 0x64 ADD SWAP1 REVERT JUMPDEST PUSH1 0x1 PUSH1 0x1 PUSH1 0xA0 SHL SUB DUP3 AND PUSH1 0x0 SWAP1 DUP2 MSTORE PUSH1 0x8D PUSH1 0x20 MSTORE PUSH1 0x40 SWAP1 KECCAK256 DUP1 SLOAD PUSH1 0x1 PUSH1 0xFF NOT SWAP2 DUP3 AND DUP2 OR SWAP1 SWAP3 SSTORE DUP3 SLOAD AND OR DUP2 SSTORE PUSH1 0x8B SLOAD PUSH2 0x100 GT PUSH2 0x1DAE JUMPI PUSH1 0x40 DUP1 MLOAD PUSH3 0x461BCD PUSH1 0xE5 SHL DUP2 MSTORE PUSH1 0x20 PUSH1 0x4 DUP3 ADD MSTORE PUSH1 0x10 PUSH1 0x24 DUP3 ADD MSTORE PUSH16 0x1C995858DA0818985B9AC81B1A5B5A5D PUSH1 0x82 SHL PUSH1 0x44 DUP3 ADD MSTORE SWAP1 MLOAD SWAP1 DUP2 SWAP1 SUB PUSH1 0x64 ADD SWAP1 REVERT JUMPDEST PUSH1 0x8B SLOAD DUP2 SLOAD PUSH1 0x1 PUSH1 0x1 PUSH1 0xA0 SHL SUB DUP1 DUP6 AND PUSH3 0x10000 MUL PUSH3 0x10000 PUSH1 0x1 PUSH1 0xB0 SHL SUB NOT PUSH1 0xFF SWAP1 SWAP5 AND PUSH2 0x100 MUL PUSH2 0xFF00 NOT SWAP1 SWAP4 AND SWAP3 SWAP1 SWAP3 OR SWAP3 SWAP1 SWAP3 AND OR DUP3 SSTORE PUSH2 0x1DF7 SWAP1 DUP5 AND DUP4 PUSH1 0x0 PUSH2 0x4169 JUMP JUMPDEST PUSH2 0x1E0D PUSH1 0x1 PUSH1 0x1 PUSH1 0xA0 SHL SUB DUP5 AND DUP4 PUSH1 0x0 NOT PUSH2 0x4169 JUMP JUMPDEST PUSH1 0x8B DUP1 SLOAD PUSH1 0x1 DUP2 ADD DUP3 SSTORE PUSH1 0x0 SWAP2 SWAP1 SWAP2 MSTORE PUSH32 0x7B6BB1E9D1B017FF82945596CF3CFB1A6CEE971C1EBB16F2C6BD23C2D642728E ADD DUP1 SLOAD PUSH1 0x1 PUSH1 0x1 PUSH1 0xA0 SHL SUB NOT AND PUSH1 0x1 PUSH1 0x1 PUSH1 0xA0 SHL SUB DUP6 DUP2 AND SWAP2 DUP3 OR SWAP1 SWAP3 SSTORE PUSH1 0x40 DUP1 MLOAD SWAP2 DUP3 MSTORE SWAP2 DUP5 AND PUSH1 0x20 DUP3 ADD MSTORE DUP2 MLOAD PUSH32 0xA5AC30137C068C8FA636E5D085A93D6FDA52A1C2657DF058B91ECAF0044EA8C SWAP3 SWAP2 DUP2 SWAP1 SUB SWAP1 SWAP2 ADD SWAP1 LOG1 POP POP POP JUMP JUMPDEST PUSH1 0x93 SLOAD PUSH1 0x1 AND ISZERO ISZERO SWAP1 JUMP JUMPDEST PUSH1 0x0 NOT PUSH1 0x85 SLOAD EQ ISZERO PUSH2 0x1EF8 JUMPI PUSH1 0x40 DUP1 MLOAD PUSH3 0x461BCD PUSH1 0xE5 SHL DUP2 MSTORE PUSH1 0x20 PUSH1 0x4 DUP3 ADD MSTORE PUSH1 0x14 PUSH1 0x24 DUP3 ADD MSTORE PUSH20 0x3737BA103BB4BA3434B71032BC32B1BABA34B7B7 PUSH1 0x61 SHL PUSH1 0x44 DUP3 ADD MSTORE SWAP1 MLOAD SWAP1 DUP2 SWAP1 SUB PUSH1 0x64 ADD SWAP1 REVERT JUMPDEST PUSH1 0x86 SLOAD PUSH1 0x1 PUSH1 0x1 PUSH1 0xA0 SHL SUB AND CALLER EQ PUSH2 0x1F48 JUMPI PUSH1 0x40 DUP1 MLOAD PUSH3 0x461BCD PUSH1 0xE5 SHL DUP2 MSTORE PUSH1 0x20 PUSH1 0x4 DUP3 ADD MSTORE PUSH1 0xE PUSH1 0x24 DUP3 ADD MSTORE PUSH14 0x1B9BDD08199C9BDB481CDC195B1B PUSH1 0x92 SHL PUSH1 0x44 DUP3 ADD MSTORE SWAP1 MLOAD SWAP1 DUP2 SWAP1 SUB PUSH1 0x64 ADD SWAP1 REVERT JUMPDEST PUSH1 0x1 PUSH1 0x84 SLOAD EQ PUSH2 0x1F8E JUMPI PUSH1 0x40 DUP1 MLOAD PUSH3 0x461BCD PUSH1 0xE5 SHL DUP2 MSTORE PUSH1 0x20 PUSH1 0x4 DUP3 ADD MSTORE PUSH1 0xC PUSH1 0x24 DUP3 ADD MSTORE PUSH12 0x696E2065786563206C6F636B PUSH1 0xA0 SHL PUSH1 0x44 DUP3 ADD MSTORE SWAP1 MLOAD SWAP1 DUP2 SWAP1 SUB PUSH1 0x64 ADD SWAP1 REVERT JUMPDEST PUSH1 0x2 PUSH1 0x84 SSTORE PUSH1 0x85 SLOAD PUSH1 0x0 SWAP1 DUP2 MSTORE PUSH1 0x8E PUSH1 0x20 MSTORE PUSH1 0x40 SWAP1 KECCAK256 DUP1 SLOAD PUSH2 0x1FBE SWAP1 PUSH1 0x1 PUSH1 0x1 PUSH1 0xA0 SHL SUB DUP6 DUP2 AND SWAP2 AND CALLER DUP6 PUSH2 0x427C JUMP JUMPDEST POP POP PUSH1 0x1 PUSH1 0x84 SSTORE POP JUMP JUMPDEST PUSH1 0x0 NOT PUSH1 0x85 SLOAD EQ ISZERO PUSH2 0x2018 JUMPI PUSH1 0x40 DUP1 MLOAD PUSH3 0x461BCD PUSH1 0xE5 SHL DUP2 MSTORE PUSH1 0x20 PUSH1 0x4 DUP3 ADD MSTORE PUSH1 0x14 PUSH1 0x24 DUP3 ADD MSTORE PUSH20 0x3737BA103BB4BA3434B71032BC32B1BABA34B7B7 PUSH1 0x61 SHL PUSH1 0x44 DUP3 ADD MSTORE SWAP1 MLOAD SWAP1 DUP2 SWAP1 SUB PUSH1 0x64 ADD SWAP1 REVERT JUMPDEST PUSH1 0x86 SLOAD PUSH1 0x1 PUSH1 0x1 PUSH1 0xA0 SHL SUB AND CALLER EQ PUSH2 0x2068 JUMPI PUSH1 0x40 DUP1 MLOAD PUSH3 0x461BCD PUSH1 0xE5 SHL DUP2 MSTORE PUSH1 0x20 PUSH1 0x4 DUP3 ADD MSTORE PUSH1 0xE PUSH1 0x24 DUP3 ADD MSTORE PUSH14 0x1B9BDD08199C9BDB481CDC195B1B PUSH1 0x92 SHL PUSH1 0x44 DUP3 ADD MSTORE SWAP1 MLOAD SWAP1 DUP2 SWAP1 SUB PUSH1 0x64 ADD SWAP1 REVERT JUMPDEST PUSH1 0x1 PUSH1 0x84 SLOAD EQ PUSH2 0x20AE JUMPI PUSH1 0x40 DUP1 MLOAD PUSH3 0x461BCD PUSH1 0xE5 SHL DUP2 MSTORE PUSH1 0x20 PUSH1 0x4 DUP3 ADD MSTORE PUSH1 0xC PUSH1 0x24 DUP3 ADD MSTORE PUSH12 0x696E2065786563206C6F636B PUSH1 0xA0 SHL PUSH1 0x44 DUP3 ADD MSTORE SWAP1 MLOAD SWAP1 DUP2 SWAP1 SUB PUSH1 0x64 ADD SWAP1 REVERT JUMPDEST PUSH1 0x2 PUSH1 0x84 SSTORE DUP2 PUSH2 0x20BD DUP2 PUSH2 0x25B5 JUMP JUMPDEST PUSH2 0x20C5 PUSH2 0x1E9D JUMP JUMPDEST PUSH2 0x210B JUMPI PUSH1 0x40 DUP1 MLOAD PUSH3 0x461BCD PUSH1 0xE5 SHL DUP2 MSTORE PUSH1 0x20 PUSH1 0x4 DUP3 ADD MSTORE PUSH1 0x12 PUSH1 0x24 DUP3 ADD MSTORE PUSH18 0x189BDC9C9BDDC81B9BDD08185B1B1BDDD959 PUSH1 0x72 SHL PUSH1 0x44 DUP3 ADD MSTORE SWAP1 MLOAD SWAP1 DUP2 SWAP1 SUB PUSH1 0x64 ADD SWAP1 REVERT JUMPDEST PUSH1 0x1 PUSH1 0x1 PUSH1 0xA0 SHL SUB DUP4 AND PUSH1 0x0 SWAP1 DUP2 MSTORE PUSH1 0x90 PUSH1 0x20 MSTORE PUSH1 0x40 SWAP1 KECCAK256 SLOAD PUSH1 0xFF AND PUSH2 0x2170 JUMPI PUSH1 0x40 DUP1 MLOAD PUSH3 0x461BCD PUSH1 0xE5 SHL DUP2 MSTORE PUSH1 0x20 PUSH1 0x4 DUP3 ADD MSTORE PUSH1 0x15 PUSH1 0x24 DUP3 ADD MSTORE PUSH21 0x1D1BDAD95B881B9BDD081DDA1A5D195B1A5CDD1959 PUSH1 0x5A SHL PUSH1 0x44 DUP3 ADD MSTORE SWAP1 MLOAD SWAP1 DUP2 SWAP1 SUB PUSH1 0x64 ADD SWAP1 REVERT JUMPDEST PUSH1 0x1 PUSH1 0x1 PUSH1 0xA0 SHL SUB DUP4 AND PUSH1 0x0 SWAP1 DUP2 MSTORE PUSH1 0x8C PUSH1 0x20 SWAP1 DUP2 MSTORE PUSH1 0x40 DUP1 DUP4 KECCAK256 PUSH1 0x85 SLOAD DUP5 MSTORE PUSH1 0x8E SWAP1 SWAP3 MSTORE DUP3 KECCAK256 PUSH1 0x3 DUP3 ADD SLOAD PUSH1 0x2 DUP4 ADD SLOAD SWAP3 SWAP4 SWAP2 SWAP3 SWAP1 SWAP2 DUP3 ISZERO PUSH2 0x21C6 JUMPI PUSH2 0x21C1 DUP3 PUSH2 0x21BB DUP10 DUP7 PUSH2 0x42D6 JUMP JUMPDEST SWAP1 PUSH2 0x432F JUMP JUMPDEST PUSH2 0x21C8 JUMP JUMPDEST DUP7 JUMPDEST PUSH1 0x3 DUP7 ADD SLOAD SWAP1 SWAP2 POP PUSH2 0x21DA SWAP1 DUP3 PUSH2 0x410F JUMP JUMPDEST PUSH1 0x3 DUP7 ADD SSTORE PUSH1 0x1 PUSH1 0x1 PUSH1 0xA0 SHL SUB DUP9 AND PUSH1 0x0 SWAP1 DUP2 MSTORE PUSH1 0x5 DUP6 ADD PUSH1 0x20 MSTORE PUSH1 0x40 DUP2 KECCAK256 SLOAD PUSH2 0x2204 SWAP1 DUP4 PUSH2 0x410F JUMP JUMPDEST PUSH1 0x1 PUSH1 0x1 PUSH1 0xA0 SHL SUB DUP11 AND PUSH1 0x0 SWAP1 DUP2 MSTORE PUSH1 0x5 DUP8 ADD PUSH1 0x20 MSTORE PUSH1 0x40 SWAP1 KECCAK256 DUP2 SWAP1 SSTORE SWAP1 POP DUP1 ISZERO PUSH2 0x2246 JUMPI DUP6 SLOAD PUSH1 0x4 DUP7 ADD DUP1 SLOAD PUSH1 0x1 PUSH2 0x100 SWAP1 SWAP4 DIV PUSH1 0xFF AND SWAP3 SWAP1 SWAP3 SHL SWAP1 SWAP2 OR SWAP1 SSTORE JUMPDEST PUSH2 0x2265 CALLER PUSH2 0x2254 DUP12 DUP12 PUSH2 0x434A JUMP JUMPDEST PUSH1 0x1 PUSH1 0x1 PUSH1 0xA0 SHL SUB DUP13 AND SWAP2 SWAP1 PUSH2 0x3DC9 JUMP JUMPDEST PUSH1 0x85 SLOAD PUSH1 0x40 DUP1 MLOAD SWAP2 DUP3 MSTORE CALLER PUSH1 0x20 DUP4 ADD MSTORE PUSH1 0x1 PUSH1 0x1 PUSH1 0xA0 SHL SUB DUP12 AND DUP3 DUP3 ADD MSTORE PUSH1 0x60 DUP3 ADD DUP11 SWAP1 MSTORE PUSH1 0x80 DUP3 ADD DUP5 SWAP1 MSTORE MLOAD PUSH32 0xEF18174796A5D2F91D51DC5E907A4D7867BBD6E800F6225168E0453D581D0DCD SWAP2 DUP2 SWAP1 SUB PUSH1 0xA0 ADD SWAP1 LOG1 POP POP PUSH1 0x1 PUSH1 0x84 SSTORE POP POP POP POP POP POP POP JUMP JUMPDEST PUSH1 0x0 SLOAD PUSH3 0x10000 SWAP1 DIV PUSH1 0x1 PUSH1 0x1 PUSH1 0xA0 SHL SUB AND CALLER EQ PUSH2 0x2324 JUMPI PUSH1 0x40 DUP1 MLOAD PUSH3 0x461BCD PUSH1 0xE5 SHL DUP2 MSTORE PUSH1 0x20 PUSH1 0x4 DUP3 ADD MSTORE PUSH1 0x10 PUSH1 0x24 DUP3 ADD MSTORE PUSH16 0x3737BA103A34329033B7BB32B93737B9 PUSH1 0x81 SHL PUSH1 0x44 DUP3 ADD MSTORE SWAP1 MLOAD SWAP1 DUP2 SWAP1 SUB PUSH1 0x64 ADD SWAP1 REVERT JUMPDEST DUP3 DUP2 EQ PUSH2 0x2362 JUMPI PUSH1 0x40 MLOAD PUSH3 0x461BCD PUSH1 0xE5 SHL DUP2 MSTORE PUSH1 0x4 ADD DUP1 DUP1 PUSH1 0x20 ADD DUP3 DUP2 SUB DUP3 MSTORE PUSH1 0x23 DUP2 MSTORE PUSH1 0x20 ADD DUP1 PUSH2 0x4EA4 PUSH1 0x23 SWAP2 CODECOPY PUSH1 0x40 ADD SWAP2 POP POP PUSH1 0x40 MLOAD DUP1 SWAP2 SUB SWAP1 REVERT JUMPDEST PUSH1 0x0 JUMPDEST DUP4 DUP2 LT ISZERO PUSH2 0x1BCB JUMPI DUP3 DUP3 DUP3 DUP2 DUP2 LT PUSH2 0x2379 JUMPI INVALID JUMPDEST SWAP1 POP PUSH1 0x20 MUL ADD CALLDATALOAD ISZERO ISZERO PUSH1 0x91 PUSH1 0x0 DUP8 DUP8 DUP6 DUP2 DUP2 LT PUSH2 0x2392 JUMPI INVALID JUMPDEST PUSH1 0x20 SWAP1 DUP2 MUL SWAP3 SWAP1 SWAP3 ADD CALLDATALOAD PUSH1 0x1 PUSH1 0x1 PUSH1 0xA0 SHL SUB AND DUP4 MSTORE POP DUP2 ADD SWAP2 SWAP1 SWAP2 MSTORE PUSH1 0x40 ADD PUSH1 0x0 KECCAK256 DUP1 SLOAD PUSH1 0xFF NOT AND SWAP2 ISZERO ISZERO SWAP2 SWAP1 SWAP2 OR SWAP1 SSTORE PUSH1 0x1 ADD PUSH2 0x2365 JUMP JUMPDEST PUSH1 0x0 SWAP1 DUP2 MSTORE PUSH1 0x8E PUSH1 0x20 MSTORE PUSH1 0x40 SWAP1 KECCAK256 DUP1 SLOAD PUSH1 0x1 DUP3 ADD SLOAD PUSH1 0x2 DUP4 ADD SLOAD PUSH1 0x3 SWAP1 SWAP4 ADD SLOAD PUSH1 0x1 PUSH1 0x1 PUSH1 0xA0 SHL SUB SWAP3 DUP4 AND SWAP5 SWAP3 SWAP1 SWAP2 AND SWAP3 SWAP2 JUMP JUMPDEST PUSH1 0x0 DUP2 DUP2 MSTORE PUSH1 0x8E PUSH1 0x20 MSTORE PUSH1 0x40 DUP2 KECCAK256 DUP1 SLOAD PUSH1 0x4 DUP3 ADD SLOAD DUP4 SWAP3 SWAP2 PUSH1 0x1 PUSH1 0x1 PUSH1 0xA0 SHL SUB AND SWAP1 DUP4 JUMPDEST DUP2 ISZERO PUSH2 0x253A JUMPI PUSH1 0x1 DUP3 AND ISZERO PUSH2 0x252E JUMPI PUSH1 0x0 PUSH1 0x8B DUP3 DUP2 SLOAD DUP2 LT PUSH2 0x2441 JUMPI INVALID JUMPDEST PUSH1 0x0 SWAP2 DUP3 MSTORE PUSH1 0x20 DUP1 DUP4 KECCAK256 SWAP1 SWAP2 ADD SLOAD PUSH1 0x1 PUSH1 0x1 PUSH1 0xA0 SHL SUB AND DUP1 DUP4 MSTORE PUSH1 0x5 DUP9 ADD DUP3 MSTORE PUSH1 0x40 DUP1 DUP5 KECCAK256 SLOAD PUSH1 0x8C SWAP1 SWAP4 MSTORE DUP4 KECCAK256 PUSH1 0x3 DUP2 ADD SLOAD PUSH1 0x2 DUP3 ADD SLOAD SWAP3 SWAP6 POP SWAP3 SWAP4 SWAP1 SWAP3 SWAP1 SWAP2 PUSH2 0x2491 SWAP2 SWAP1 PUSH2 0x21BB SWAP1 DUP7 SWAP1 PUSH2 0x42D6 JUMP JUMPDEST PUSH1 0x88 SLOAD PUSH1 0x40 DUP1 MLOAD PUSH4 0xD596BC03 PUSH1 0xE0 SHL DUP2 MSTORE PUSH1 0x1 PUSH1 0x1 PUSH1 0xA0 SHL SUB DUP9 DUP2 AND PUSH1 0x4 DUP4 ADD MSTORE PUSH1 0x24 DUP3 ADD DUP6 SWAP1 MSTORE DUP12 DUP2 AND PUSH1 0x44 DUP4 ADD MSTORE SWAP2 MLOAD SWAP4 SWAP5 POP PUSH2 0x2527 SWAP4 SWAP2 SWAP1 SWAP3 AND SWAP2 PUSH4 0xD596BC03 SWAP2 PUSH1 0x64 DUP1 DUP4 ADD SWAP3 PUSH1 0x20 SWAP3 SWAP2 SWAP1 DUP3 SWAP1 SUB ADD DUP2 DUP7 DUP1 EXTCODESIZE ISZERO DUP1 ISZERO PUSH2 0x24F4 JUMPI PUSH1 0x0 DUP1 REVERT JUMPDEST POP GAS STATICCALL ISZERO DUP1 ISZERO PUSH2 0x2508 JUMPI RETURNDATASIZE PUSH1 0x0 DUP1 RETURNDATACOPY RETURNDATASIZE PUSH1 0x0 REVERT JUMPDEST POP POP POP POP PUSH1 0x40 MLOAD RETURNDATASIZE PUSH1 0x20 DUP2 LT ISZERO PUSH2 0x251E JUMPI PUSH1 0x0 DUP1 REVERT JUMPDEST POP MLOAD DUP11 SWAP1 PUSH2 0x410F JUMP JUMPDEST SWAP9 POP POP POP POP POP JUMPDEST PUSH1 0x1 SWAP2 DUP3 SHR SWAP2 ADD PUSH2 0x2423 JUMP JUMPDEST POP SWAP3 SWAP6 SWAP5 POP POP POP POP POP JUMP JUMPDEST PUSH1 0x85 SLOAD PUSH1 0x0 SWAP1 PUSH1 0x0 NOT DUP2 EQ ISZERO PUSH2 0x2598 JUMPI PUSH1 0x40 DUP1 MLOAD PUSH3 0x461BCD PUSH1 0xE5 SHL DUP2 MSTORE PUSH1 0x20 PUSH1 0x4 DUP3 ADD MSTORE PUSH1 0x13 PUSH1 0x24 DUP3 ADD MSTORE PUSH19 0x3737BA103AB73232B91032BC32B1BABA34B7B7 PUSH1 0x69 SHL PUSH1 0x44 DUP3 ADD MSTORE SWAP1 MLOAD SWAP1 DUP2 SWAP1 SUB PUSH1 0x64 ADD SWAP1 REVERT JUMPDEST PUSH1 0x0 SWAP1 DUP2 MSTORE PUSH1 0x8E PUSH1 0x20 MSTORE PUSH1 0x40 SWAP1 KECCAK256 SLOAD PUSH1 0x1 PUSH1 0x1 PUSH1 0xA0 SHL SUB AND SWAP1 POP SWAP1 JUMP JUMPDEST PUSH1 0x1 PUSH1 0x1 PUSH1 0xA0 SHL SUB DUP2 AND PUSH1 0x0 SWAP1 DUP2 MSTORE PUSH1 0x8C PUSH1 0x20 MSTORE PUSH1 0x40 SWAP1 KECCAK256 DUP1 SLOAD PUSH1 0xFF AND PUSH2 0x2614 JUMPI PUSH1 0x40 DUP1 MLOAD PUSH3 0x461BCD PUSH1 0xE5 SHL DUP2 MSTORE PUSH1 0x20 PUSH1 0x4 DUP3 ADD MSTORE PUSH1 0xE PUSH1 0x24 DUP3 ADD MSTORE PUSH14 0x18985B9AC81B9BDD08195E1A5CDD PUSH1 0x92 SHL PUSH1 0x44 DUP3 ADD MSTORE SWAP1 MLOAD SWAP1 DUP2 SWAP1 SUB PUSH1 0x64 ADD SWAP1 REVERT JUMPDEST PUSH1 0x2 DUP2 ADD SLOAD DUP2 SLOAD PUSH1 0x40 DUP1 MLOAD PUSH4 0x5EFF7EF PUSH1 0xE2 SHL DUP2 MSTORE ADDRESS PUSH1 0x4 DUP3 ADD MSTORE SWAP1 MLOAD PUSH1 0x0 SWAP3 PUSH3 0x10000 SWAP1 DIV PUSH1 0x1 PUSH1 0x1 PUSH1 0xA0 SHL SUB AND SWAP2 PUSH4 0x17BFDFBC SWAP2 PUSH1 0x24 DUP1 DUP4 ADD SWAP3 PUSH1 0x20 SWAP3 SWAP2 SWAP1 DUP3 SWAP1 SUB ADD DUP2 DUP8 DUP8 DUP1 EXTCODESIZE ISZERO DUP1 ISZERO PUSH2 0x266A JUMPI PUSH1 0x0 DUP1 REVERT JUMPDEST POP GAS CALL ISZERO DUP1 ISZERO PUSH2 0x267E JUMPI RETURNDATASIZE PUSH1 0x0 DUP1 RETURNDATACOPY RETURNDATASIZE PUSH1 0x0 REVERT JUMPDEST POP POP POP POP PUSH1 0x40 MLOAD RETURNDATASIZE PUSH1 0x20 DUP2 LT ISZERO PUSH2 0x2694 JUMPI PUSH1 0x0 DUP1 REVERT JUMPDEST POP MLOAD SWAP1 POP DUP2 DUP2 GT ISZERO PUSH2 0x26F9 JUMPI PUSH1 0x0 PUSH2 0x26CD PUSH2 0x2710 PUSH2 0x26C7 PUSH1 0x89 SLOAD PUSH2 0x26C1 DUP8 DUP8 PUSH2 0x3D6C SWAP1 SWAP2 SWAP1 PUSH4 0xFFFFFFFF AND JUMP JUMPDEST SWAP1 PUSH2 0x42D6 JUMP JUMPDEST SWAP1 PUSH2 0x4535 JUMP JUMPDEST PUSH1 0x2 DUP6 ADD DUP4 SWAP1 SSTORE SWAP1 POP PUSH2 0x26EE PUSH2 0x26E3 DUP7 DUP4 PUSH2 0x434A JUMP JUMPDEST PUSH1 0x1 DUP7 ADD SLOAD SWAP1 PUSH2 0x410F JUMP JUMPDEST PUSH1 0x1 DUP6 ADD SSTORE POP PUSH2 0x2708 JUMP JUMPDEST DUP1 DUP3 EQ PUSH2 0x2708 JUMPI PUSH1 0x2 DUP4 ADD DUP2 SWAP1 SSTORE JUMPDEST POP POP POP POP JUMP JUMPDEST PUSH1 0x0 NOT PUSH1 0x85 SLOAD EQ ISZERO PUSH2 0x275E JUMPI PUSH1 0x40 DUP1 MLOAD PUSH3 0x461BCD PUSH1 0xE5 SHL DUP2 MSTORE PUSH1 0x20 PUSH1 0x4 DUP3 ADD MSTORE PUSH1 0x14 PUSH1 0x24 DUP3 ADD MSTORE PUSH20 0x3737BA103BB4BA3434B71032BC32B1BABA34B7B7 PUSH1 0x61 SHL PUSH1 0x44 DUP3 ADD MSTORE SWAP1 MLOAD SWAP1 DUP2 SWAP1 SUB PUSH1 0x64 ADD SWAP1 REVERT JUMPDEST PUSH1 0x86 SLOAD PUSH1 0x1 PUSH1 0x1 PUSH1 0xA0 SHL SUB AND CALLER EQ PUSH2 0x27AE JUMPI PUSH1 0x40 DUP1 MLOAD PUSH3 0x461BCD PUSH1 0xE5 SHL DUP2 MSTORE PUSH1 0x20 PUSH1 0x4 DUP3 ADD MSTORE PUSH1 0xE PUSH1 0x24 DUP3 ADD MSTORE PUSH14 0x1B9BDD08199C9BDB481CDC195B1B PUSH1 0x92 SHL PUSH1 0x44 DUP3 ADD MSTORE SWAP1 MLOAD SWAP1 DUP2 SWAP1 SUB PUSH1 0x64 ADD SWAP1 REVERT JUMPDEST PUSH1 0x1 PUSH1 0x84 SLOAD EQ PUSH2 0x27F4 JUMPI PUSH1 0x40 DUP1 MLOAD PUSH3 0x461BCD PUSH1 0xE5 SHL DUP2 MSTORE PUSH1 0x20 PUSH1 0x4 DUP3 ADD MSTORE PUSH1 0xC PUSH1 0x24 DUP3 ADD MSTORE PUSH12 0x696E2065786563206C6F636B PUSH1 0xA0 SHL PUSH1 0x44 DUP3 ADD MSTORE SWAP1 MLOAD SWAP1 DUP2 SWAP1 SUB PUSH1 0x64 ADD SWAP1 REVERT JUMPDEST PUSH1 0x2 PUSH1 0x84 SSTORE PUSH1 0x85 SLOAD PUSH1 0x0 SWAP1 DUP2 MSTORE PUSH1 0x8E PUSH1 0x20 MSTORE PUSH1 0x40 SWAP1 KECCAK256 PUSH1 0x1 DUP2 ADD SLOAD PUSH1 0x1 PUSH1 0x1 PUSH1 0xA0 SHL SUB DUP6 DUP2 AND SWAP2 AND EQ PUSH2 0x2869 JUMPI PUSH1 0x40 DUP1 MLOAD PUSH3 0x461BCD PUSH1 0xE5 SHL DUP2 MSTORE PUSH1 0x20 PUSH1 0x4 DUP3 ADD MSTORE PUSH1 0x18 PUSH1 0x24 DUP3 ADD MSTORE PUSH24 0x34B73B30B634B21031B7B63630BA32B930B6103A37B5B2B7 PUSH1 0x41 SHL PUSH1 0x44 DUP3 ADD MSTORE SWAP1 MLOAD SWAP1 DUP2 SWAP1 SUB PUSH1 0x64 ADD SWAP1 REVERT JUMPDEST DUP1 PUSH1 0x2 ADD SLOAD DUP4 EQ PUSH2 0x28BC JUMPI PUSH1 0x40 DUP1 MLOAD PUSH3 0x461BCD PUSH1 0xE5 SHL DUP2 MSTORE PUSH1 0x20 PUSH1 0x4 DUP3 ADD MSTORE PUSH1 0x18 PUSH1 0x24 DUP3 ADD MSTORE PUSH24 0x34B73B30B634B21031B7B63630BA32B930B6103A37B5B2B7 PUSH1 0x41 SHL PUSH1 0x44 DUP3 ADD MSTORE SWAP1 MLOAD SWAP1 DUP2 SWAP1 SUB PUSH1 0x64 ADD SWAP1 REVERT JUMPDEST PUSH1 0x0 NOT DUP3 EQ ISZERO PUSH2 0x28CE JUMPI DUP1 PUSH1 0x3 ADD SLOAD SWAP2 POP JUMPDEST PUSH1 0x3 DUP2 ADD SLOAD PUSH2 0x28DD SWAP1 DUP4 PUSH2 0x3D6C JUMP JUMPDEST PUSH1 0x3 DUP3 ADD SSTORE PUSH1 0x40 DUP1 MLOAD PUSH4 0x79212195 PUSH1 0xE1 SHL DUP2 MSTORE ADDRESS PUSH1 0x4 DUP3 ADD MSTORE CALLER PUSH1 0x24 DUP3 ADD MSTORE PUSH1 0x44 DUP2 ADD DUP6 SWAP1 MSTORE PUSH1 0x64 DUP2 ADD DUP5 SWAP1 MSTORE PUSH1 0xA0 PUSH1 0x84 DUP3 ADD MSTORE PUSH1 0x0 PUSH1 0xA4 DUP3 ADD DUP2 SWAP1 MSTORE SWAP2 MLOAD PUSH1 0x1 PUSH1 0x1 PUSH1 0xA0 SHL SUB DUP8 AND SWAP3 PUSH4 0xF242432A SWAP3 PUSH1 0xE4 DUP1 DUP3 ADD SWAP4 SWAP2 DUP3 SWAP1 SUB ADD DUP2 DUP4 DUP8 DUP1 EXTCODESIZE ISZERO DUP1 ISZERO PUSH2 0x2949 JUMPI PUSH1 0x0 DUP1 REVERT JUMPDEST POP GAS CALL ISZERO DUP1 ISZERO PUSH2 0x295D JUMPI RETURNDATASIZE PUSH1 0x0 DUP1 RETURNDATACOPY RETURNDATASIZE PUSH1 0x0 REVERT JUMPDEST POP POP PUSH1 0x85 SLOAD PUSH1 0x40 DUP1 MLOAD SWAP2 DUP3 MSTORE CALLER PUSH1 0x20 DUP4 ADD MSTORE PUSH1 0x1 PUSH1 0x1 PUSH1 0xA0 SHL SUB DUP9 AND DUP3 DUP3 ADD MSTORE PUSH1 0x60 DUP3 ADD DUP8 SWAP1 MSTORE PUSH1 0x80 DUP3 ADD DUP7 SWAP1 MSTORE MLOAD PUSH32 0xA61EE435E629EECBCB5DF77D05E802C71092439CDBEB225D95305F5A159755A3 SWAP4 POP SWAP1 DUP2 SWAP1 SUB PUSH1 0xA0 ADD SWAP2 POP LOG1 POP POP PUSH1 0x1 PUSH1 0x84 SSTORE POP POP JUMP JUMPDEST PUSH1 0x0 DUP2 DUP2 MSTORE PUSH1 0x8E PUSH1 0x20 MSTORE PUSH1 0x40 DUP2 KECCAK256 PUSH1 0x4 DUP2 ADD SLOAD PUSH1 0x60 SWAP3 DUP4 SWAP3 SWAP2 JUMPDEST DUP1 ISZERO PUSH2 0x29FC JUMPI PUSH1 0x1 DUP2 AND ISZERO PUSH2 0x29F4 JUMPI PUSH1 0x1 SWAP1 SWAP2 ADD SWAP1 JUMPDEST PUSH1 0x1 SHR PUSH2 0x29DE JUMP JUMPDEST DUP2 PUSH8 0xFFFFFFFFFFFFFFFF DUP2 GT DUP1 ISZERO PUSH2 0x2A13 JUMPI PUSH1 0x0 DUP1 REVERT JUMPDEST POP PUSH1 0x40 MLOAD SWAP1 DUP1 DUP3 MSTORE DUP1 PUSH1 0x20 MUL PUSH1 0x20 ADD DUP3 ADD PUSH1 0x40 MSTORE DUP1 ISZERO PUSH2 0x2A3D JUMPI DUP2 PUSH1 0x20 ADD PUSH1 0x20 DUP3 MUL DUP1 CALLDATASIZE DUP4 CALLDATACOPY ADD SWAP1 POP JUMPDEST POP SWAP5 POP DUP2 PUSH8 0xFFFFFFFFFFFFFFFF DUP2 GT DUP1 ISZERO PUSH2 0x2A57 JUMPI PUSH1 0x0 DUP1 REVERT JUMPDEST POP PUSH1 0x40 MLOAD SWAP1 DUP1 DUP3 MSTORE DUP1 PUSH1 0x20 MUL PUSH1 0x20 ADD DUP3 ADD PUSH1 0x40 MSTORE DUP1 ISZERO PUSH2 0x2A81 JUMPI DUP2 PUSH1 0x20 ADD PUSH1 0x20 DUP3 MUL DUP1 CALLDATASIZE DUP4 CALLDATACOPY ADD SWAP1 POP JUMPDEST POP SWAP4 POP DUP3 PUSH1 0x4 ADD SLOAD SWAP1 POP PUSH1 0x0 SWAP2 POP PUSH1 0x0 JUMPDEST DUP2 ISZERO PUSH2 0x2B5B JUMPI PUSH1 0x1 DUP3 AND ISZERO PUSH2 0x2B4F JUMPI PUSH1 0x0 PUSH1 0x8B DUP3 DUP2 SLOAD DUP2 LT PUSH2 0x2AB0 JUMPI INVALID JUMPDEST PUSH1 0x0 SWAP2 DUP3 MSTORE PUSH1 0x20 DUP1 DUP4 KECCAK256 SWAP1 SWAP2 ADD SLOAD PUSH1 0x1 PUSH1 0x1 PUSH1 0xA0 SHL SUB AND DUP1 DUP4 MSTORE PUSH1 0x8C SWAP1 SWAP2 MSTORE PUSH1 0x40 SWAP1 SWAP2 KECCAK256 DUP9 MLOAD SWAP2 SWAP3 POP SWAP1 DUP3 SWAP1 DUP10 SWAP1 DUP8 SWAP1 DUP2 LT PUSH2 0x2AE8 JUMPI INVALID JUMPDEST PUSH1 0x1 PUSH1 0x1 PUSH1 0xA0 SHL SUB SWAP3 DUP4 AND PUSH1 0x20 SWAP2 DUP3 MUL SWAP3 SWAP1 SWAP3 ADD DUP2 ADD SWAP2 SWAP1 SWAP2 MSTORE PUSH1 0x3 DUP4 ADD SLOAD PUSH1 0x2 DUP5 ADD SLOAD SWAP3 DUP6 AND PUSH1 0x0 SWAP1 DUP2 MSTORE PUSH1 0x5 DUP11 ADD SWAP1 SWAP3 MSTORE PUSH1 0x40 SWAP1 SWAP2 KECCAK256 SLOAD PUSH2 0x2B2F SWAP3 PUSH2 0x21BB SWAP2 SWAP1 PUSH2 0x42D6 JUMP JUMPDEST DUP8 DUP7 DUP2 MLOAD DUP2 LT PUSH2 0x2B3B JUMPI INVALID JUMPDEST PUSH1 0x20 SWAP1 DUP2 MUL SWAP2 SWAP1 SWAP2 ADD ADD MSTORE POP POP PUSH1 0x1 SWAP1 SWAP3 ADD SWAP2 JUMPDEST PUSH1 0x1 SWAP2 DUP3 SHR SWAP2 ADD PUSH2 0x2A92 JUMP JUMPDEST POP POP POP POP SWAP2 POP SWAP2 JUMP JUMPDEST PUSH1 0x0 PUSH1 0x1 PUSH1 0x83 SLOAD EQ PUSH2 0x2BAC JUMPI PUSH1 0x40 DUP1 MLOAD PUSH3 0x461BCD PUSH1 0xE5 SHL DUP2 MSTORE PUSH1 0x20 PUSH1 0x4 DUP3 ADD MSTORE PUSH1 0xC PUSH1 0x24 DUP3 ADD MSTORE PUSH12 0x67656E6572616C206C6F636B PUSH1 0xA0 SHL PUSH1 0x44 DUP3 ADD MSTORE SWAP1 MLOAD SWAP1 DUP2 SWAP1 SUB PUSH1 0x64 ADD SWAP1 REVERT JUMPDEST PUSH1 0x2 PUSH1 0x83 SSTORE PUSH1 0x8F SLOAD PUSH1 0xFF AND ISZERO DUP1 ISZERO PUSH2 0x2BD4 JUMPI POP CALLER PUSH1 0x0 SWAP1 DUP2 MSTORE PUSH1 0x92 PUSH1 0x20 MSTORE PUSH1 0x40 SWAP1 KECCAK256 SLOAD PUSH1 0xFF AND ISZERO JUMPDEST ISZERO PUSH2 0x2C17 JUMPI CALLER ORIGIN EQ PUSH2 0x2C17 JUMPI PUSH1 0x40 DUP1 MLOAD PUSH3 0x461BCD PUSH1 0xE5 SHL DUP2 MSTORE PUSH1 0x20 PUSH1 0x4 DUP3 ADD MSTORE PUSH1 0x7 PUSH1 0x24 DUP3 ADD MSTORE PUSH7 0x6E6F7420656F61 PUSH1 0xC8 SHL PUSH1 0x44 DUP3 ADD MSTORE SWAP1 MLOAD SWAP1 DUP2 SWAP1 SUB PUSH1 0x64 ADD SWAP1 REVERT JUMPDEST PUSH1 0x1 PUSH1 0x1 PUSH1 0xA0 SHL SUB DUP4 AND PUSH1 0x0 SWAP1 DUP2 MSTORE PUSH1 0x91 PUSH1 0x20 MSTORE PUSH1 0x40 SWAP1 KECCAK256 SLOAD PUSH1 0xFF AND PUSH2 0x2C7C JUMPI PUSH1 0x40 DUP1 MLOAD PUSH3 0x461BCD PUSH1 0xE5 SHL DUP2 MSTORE PUSH1 0x20 PUSH1 0x4 DUP3 ADD MSTORE PUSH1 0x15 PUSH1 0x24 DUP3 ADD MSTORE PUSH21 0x1CDC195B1B081B9BDD081DDA1A5D195B1A5CDD1959 PUSH1 0x5A SHL PUSH1 0x44 DUP3 ADD MSTORE SWAP1 MLOAD SWAP1 DUP2 SWAP1 SUB PUSH1 0x64 ADD SWAP1 REVERT JUMPDEST DUP4 PUSH2 0x2CB1 JUMPI PUSH1 0x8A DUP1 SLOAD PUSH1 0x1 DUP2 ADD SWAP1 SWAP2 SSTORE PUSH1 0x0 DUP2 DUP2 MSTORE PUSH1 0x8E PUSH1 0x20 MSTORE PUSH1 0x40 SWAP1 KECCAK256 DUP1 SLOAD PUSH1 0x1 PUSH1 0x1 PUSH1 0xA0 SHL SUB NOT AND CALLER OR SWAP1 SSTORE SWAP4 POP PUSH2 0x2D60 JUMP JUMPDEST PUSH1 0x8A SLOAD DUP5 LT PUSH2 0x2D00 JUMPI PUSH1 0x40 DUP1 MLOAD PUSH3 0x461BCD PUSH1 0xE5 SHL DUP2 MSTORE PUSH1 0x20 PUSH1 0x4 DUP3 ADD MSTORE PUSH1 0x16 PUSH1 0x24 DUP3 ADD MSTORE PUSH22 0x706F736974696F6E206964206E6F7420657869737473 PUSH1 0x50 SHL PUSH1 0x44 DUP3 ADD MSTORE SWAP1 MLOAD SWAP1 DUP2 SWAP1 SUB PUSH1 0x64 ADD SWAP1 REVERT JUMPDEST PUSH1 0x0 DUP5 DUP2 MSTORE PUSH1 0x8E PUSH1 0x20 MSTORE PUSH1 0x40 SWAP1 KECCAK256 SLOAD PUSH1 0x1 PUSH1 0x1 PUSH1 0xA0 SHL SUB AND CALLER EQ PUSH2 0x2D60 JUMPI PUSH1 0x40 DUP1 MLOAD PUSH3 0x461BCD PUSH1 0xE5 SHL DUP2 MSTORE PUSH1 0x20 PUSH1 0x4 DUP3 ADD MSTORE PUSH1 0x12 PUSH1 0x24 DUP3 ADD MSTORE PUSH18 0x3737BA103837B9B4BA34B7B71037BBB732B9 PUSH1 0x71 SHL PUSH1 0x44 DUP3 ADD MSTORE SWAP1 MLOAD SWAP1 DUP2 SWAP1 SUB PUSH1 0x64 ADD SWAP1 REVERT JUMPDEST PUSH1 0x85 DUP5 SWAP1 SSTORE PUSH1 0x86 DUP1 SLOAD PUSH1 0x1 PUSH1 0x1 PUSH1 0xA0 SHL SUB NOT AND PUSH1 0x1 PUSH1 0x1 PUSH1 0xA0 SHL SUB DUP6 DUP2 AND SWAP2 DUP3 OR SWAP1 SWAP3 SSTORE PUSH1 0x87 SLOAD PUSH1 0x40 DUP1 MLOAD PUSH4 0xBE2A1F79 PUSH1 0xE0 SHL DUP2 MSTORE PUSH1 0x4 DUP2 ADD SWAP4 DUP5 MSTORE PUSH1 0x24 DUP2 ADD SWAP2 DUP3 MSTORE DUP7 MLOAD PUSH1 0x44 DUP3 ADD MSTORE DUP7 MLOAD SWAP3 SWAP1 SWAP5 AND SWAP4 PUSH4 0xBE2A1F79 SWAP4 CALLVALUE SWAP4 DUP10 SWAP4 DUP10 SWAP4 SWAP1 SWAP2 PUSH1 0x64 SWAP1 SWAP2 ADD SWAP1 PUSH1 0x20 DUP6 ADD SWAP1 DUP1 DUP4 DUP4 PUSH1 0x0 JUMPDEST DUP4 DUP2 LT ISZERO PUSH2 0x2DE8 JUMPI DUP2 DUP2 ADD MLOAD DUP4 DUP3 ADD MSTORE PUSH1 0x20 ADD PUSH2 0x2DD0 JUMP JUMPDEST POP POP POP POP SWAP1 POP SWAP1 DUP2 ADD SWAP1 PUSH1 0x1F AND DUP1 ISZERO PUSH2 0x2E15 JUMPI DUP1 DUP3 SUB DUP1 MLOAD PUSH1 0x1 DUP4 PUSH1 0x20 SUB PUSH2 0x100 EXP SUB NOT AND DUP2 MSTORE PUSH1 0x20 ADD SWAP2 POP JUMPDEST POP SWAP4 POP POP POP POP PUSH1 0x0 PUSH1 0x40 MLOAD DUP1 DUP4 SUB DUP2 DUP6 DUP9 DUP1 EXTCODESIZE ISZERO DUP1 ISZERO PUSH2 0x2E34 JUMPI PUSH1 0x0 DUP1 REVERT JUMPDEST POP GAS CALL ISZERO DUP1 ISZERO PUSH2 0x2E48 JUMPI RETURNDATASIZE PUSH1 0x0 DUP1 RETURNDATACOPY RETURNDATASIZE PUSH1 0x0 REVERT JUMPDEST POP POP POP POP POP PUSH1 0x0 PUSH2 0x2E58 DUP6 PUSH2 0x3613 JUMP JUMPDEST SWAP1 POP PUSH1 0x0 PUSH2 0x2E65 DUP7 PUSH2 0x23FF JUMP JUMPDEST SWAP1 POP DUP1 DUP3 LT ISZERO PUSH2 0x2EBC JUMPI PUSH1 0x40 DUP1 MLOAD PUSH3 0x461BCD PUSH1 0xE5 SHL DUP2 MSTORE PUSH1 0x20 PUSH1 0x4 DUP3 ADD MSTORE PUSH1 0x17 PUSH1 0x24 DUP3 ADD MSTORE PUSH32 0x696E73756666696369656E7420636F6C6C61746572616C000000000000000000 PUSH1 0x44 DUP3 ADD MSTORE SWAP1 MLOAD SWAP1 DUP2 SWAP1 SUB PUSH1 0x64 ADD SWAP1 REVERT JUMPDEST POP POP PUSH1 0x0 NOT PUSH1 0x85 SSTORE POP PUSH1 0x86 DUP1 SLOAD PUSH1 0x1 PUSH1 0x1 PUSH1 0xA0 SHL SUB NOT AND PUSH1 0x1 OR SWAP1 SSTORE DUP3 PUSH1 0x1 PUSH1 0x83 SSTORE SWAP4 SWAP3 POP POP POP JUMP JUMPDEST PUSH1 0x94 SLOAD PUSH1 0x1 PUSH1 0x1 PUSH1 0xA0 SHL SUB AND CALLER EQ PUSH2 0x2F2F JUMPI PUSH1 0x40 DUP1 MLOAD PUSH3 0x461BCD PUSH1 0xE5 SHL DUP2 MSTORE PUSH1 0x20 PUSH1 0x4 DUP3 ADD MSTORE PUSH1 0x8 PUSH1 0x24 DUP3 ADD MSTORE PUSH8 0x6E6F742065786563 PUSH1 0xC0 SHL PUSH1 0x44 DUP3 ADD MSTORE SWAP1 MLOAD SWAP1 DUP2 SWAP1 SUB PUSH1 0x64 ADD SWAP1 REVERT JUMPDEST PUSH2 0x2710 DUP2 GT ISZERO PUSH2 0x2F75 JUMPI PUSH1 0x40 DUP1 MLOAD PUSH3 0x461BCD PUSH1 0xE5 SHL DUP2 MSTORE PUSH1 0x20 PUSH1 0x4 DUP3 ADD MSTORE PUSH1 0xC PUSH1 0x24 DUP3 ADD MSTORE PUSH12 0xCCCACA40E8DEDE40D0D2CED PUSH1 0xA3 SHL PUSH1 0x44 DUP3 ADD MSTORE SWAP1 MLOAD SWAP1 DUP2 SWAP1 SUB PUSH1 0x64 ADD SWAP1 REVERT JUMPDEST PUSH1 0x89 DUP2 SWAP1 SSTORE PUSH1 0x40 DUP1 MLOAD DUP3 DUP2 MSTORE SWAP1 MLOAD PUSH32 0x15B86359C2A1E342EF965D15A848EDA1666E575175D1907EA284DAB1DCF64FFB SWAP2 DUP2 SWAP1 SUB PUSH1 0x20 ADD SWAP1 LOG1 POP JUMP JUMPDEST PUSH1 0x86 SLOAD PUSH1 0x1 PUSH1 0x1 PUSH1 0xA0 SHL SUB AND DUP2 JUMP JUMPDEST PUSH1 0x1 PUSH1 0x83 SLOAD EQ PUSH2 0x3005 JUMPI PUSH1 0x40 DUP1 MLOAD PUSH3 0x461BCD PUSH1 0xE5 SHL DUP2 MSTORE PUSH1 0x20 PUSH1 0x4 DUP3 ADD MSTORE PUSH1 0xC PUSH1 0x24 DUP3 ADD MSTORE PUSH12 0x67656E6572616C206C6F636B PUSH1 0xA0 SHL PUSH1 0x44 DUP3 ADD MSTORE SWAP1 MLOAD SWAP1 DUP2 SWAP1 SUB PUSH1 0x64 ADD SWAP1 REVERT JUMPDEST PUSH1 0x2 PUSH1 0x83 SSTORE DUP2 PUSH2 0x3014 DUP2 PUSH2 0x25B5 JUMP JUMPDEST PUSH1 0x0 PUSH2 0x301F DUP6 PUSH2 0x3613 JUMP JUMPDEST SWAP1 POP PUSH1 0x0 PUSH2 0x302C DUP7 PUSH2 0x23FF JUMP JUMPDEST SWAP1 POP DUP1 DUP3 LT PUSH2 0x307B JUMPI PUSH1 0x40 DUP1 MLOAD PUSH3 0x461BCD PUSH1 0xE5 SHL DUP2 MSTORE PUSH1 0x20 PUSH1 0x4 DUP3 ADD MSTORE PUSH1 0x16 PUSH1 0x24 DUP3 ADD MSTORE PUSH22 0x706F736974696F6E207374696C6C206865616C746879 PUSH1 0x50 SHL PUSH1 0x44 DUP3 ADD MSTORE SWAP1 MLOAD SWAP1 DUP2 SWAP1 SUB PUSH1 0x64 ADD SWAP1 REVERT JUMPDEST PUSH1 0x0 DUP7 DUP2 MSTORE PUSH1 0x8E PUSH1 0x20 MSTORE PUSH1 0x40 DUP2 KECCAK256 SWAP1 DUP1 PUSH2 0x3096 DUP10 DUP10 DUP10 PUSH2 0x3E1B JUMP JUMPDEST PUSH1 0x1 DUP6 ADD SLOAD SWAP2 SWAP4 POP SWAP2 POP PUSH1 0x1 PUSH1 0x1 PUSH1 0xA0 SHL SUB AND PUSH2 0x30F1 JUMPI PUSH1 0x40 DUP1 MLOAD PUSH3 0x461BCD PUSH1 0xE5 SHL DUP2 MSTORE PUSH1 0x20 PUSH1 0x4 DUP3 ADD MSTORE PUSH1 0x14 PUSH1 0x24 DUP3 ADD MSTORE PUSH20 0x3130B21031B7B63630BA32B930B6103A37B5B2B7 PUSH1 0x61 SHL PUSH1 0x44 DUP3 ADD MSTORE SWAP1 MLOAD SWAP1 DUP2 SWAP1 SUB PUSH1 0x64 ADD SWAP1 REVERT JUMPDEST PUSH1 0x88 SLOAD PUSH1 0x1 DUP5 ADD SLOAD PUSH1 0x2 DUP6 ADD SLOAD PUSH1 0x40 DUP1 MLOAD PUSH4 0x30E39E57 PUSH1 0xE2 SHL DUP2 MSTORE PUSH1 0x1 PUSH1 0x1 PUSH1 0xA0 SHL SUB DUP14 DUP2 AND PUSH1 0x4 DUP4 ADD MSTORE SWAP4 DUP5 AND PUSH1 0x24 DUP3 ADD MSTORE PUSH1 0x44 DUP2 ADD SWAP3 SWAP1 SWAP3 MSTORE PUSH1 0x64 DUP3 ADD DUP7 SWAP1 MSTORE MLOAD PUSH1 0x0 SWAP4 PUSH2 0x3198 SWAP4 AND SWAP2 PUSH4 0xC38E795C SWAP2 PUSH1 0x84 DUP1 DUP4 ADD SWAP3 PUSH1 0x20 SWAP3 SWAP2 SWAP1 DUP3 SWAP1 SUB ADD DUP2 DUP7 DUP1 EXTCODESIZE ISZERO DUP1 ISZERO PUSH2 0x3162 JUMPI PUSH1 0x0 DUP1 REVERT JUMPDEST POP GAS STATICCALL ISZERO DUP1 ISZERO PUSH2 0x3176 JUMPI RETURNDATASIZE PUSH1 0x0 DUP1 RETURNDATACOPY RETURNDATASIZE PUSH1 0x0 REVERT JUMPDEST POP POP POP POP PUSH1 0x40 MLOAD RETURNDATASIZE PUSH1 0x20 DUP2 LT ISZERO PUSH2 0x318C JUMPI PUSH1 0x0 DUP1 REVERT JUMPDEST POP MLOAD PUSH1 0x3 DUP7 ADD SLOAD PUSH2 0x459C JUMP JUMPDEST PUSH1 0x3 DUP6 ADD SLOAD SWAP1 SWAP2 POP PUSH2 0x31AA SWAP1 DUP3 PUSH2 0x3D6C JUMP JUMPDEST PUSH1 0x3 DUP6 ADD SSTORE PUSH1 0x1 DUP5 ADD SLOAD PUSH1 0x2 DUP6 ADD SLOAD PUSH1 0x40 DUP1 MLOAD PUSH4 0x79212195 PUSH1 0xE1 SHL DUP2 MSTORE ADDRESS PUSH1 0x4 DUP3 ADD MSTORE CALLER PUSH1 0x24 DUP3 ADD MSTORE PUSH1 0x44 DUP2 ADD SWAP3 SWAP1 SWAP3 MSTORE PUSH1 0x64 DUP3 ADD DUP5 SWAP1 MSTORE PUSH1 0xA0 PUSH1 0x84 DUP4 ADD MSTORE PUSH1 0x0 PUSH1 0xA4 DUP4 ADD DUP2 SWAP1 MSTORE SWAP1 MLOAD PUSH1 0x1 PUSH1 0x1 PUSH1 0xA0 SHL SUB SWAP1 SWAP4 AND SWAP3 PUSH4 0xF242432A SWAP3 PUSH1 0xE4 DUP1 DUP3 ADD SWAP4 SWAP3 SWAP2 DUP3 SWAP1 SUB ADD DUP2 DUP4 DUP8 DUP1 EXTCODESIZE ISZERO DUP1 ISZERO PUSH2 0x3223 JUMPI PUSH1 0x0 DUP1 REVERT JUMPDEST POP GAS CALL ISZERO DUP1 ISZERO PUSH2 0x3237 JUMPI RETURNDATASIZE PUSH1 0x0 DUP1 RETURNDATACOPY RETURNDATASIZE PUSH1 0x0 REVERT JUMPDEST POP POP PUSH1 0x40 DUP1 MLOAD DUP14 DUP2 MSTORE CALLER PUSH1 0x20 DUP3 ADD MSTORE PUSH1 0x1 PUSH1 0x1 PUSH1 0xA0 SHL SUB DUP14 AND DUP2 DUP4 ADD MSTORE PUSH1 0x60 DUP2 ADD DUP8 SWAP1 MSTORE PUSH1 0x80 DUP2 ADD DUP7 SWAP1 MSTORE PUSH1 0xA0 DUP2 ADD DUP6 SWAP1 MSTORE SWAP1 MLOAD PUSH32 0xAA05373FFF4A28318417DC16D03C4ED7B22197CB65240CFF73FA530F02217349 SWAP4 POP SWAP1 DUP2 SWAP1 SUB PUSH1 0xC0 ADD SWAP2 POP LOG1 POP POP PUSH1 0x1 PUSH1 0x83 SSTORE POP POP POP POP POP POP POP POP JUMP JUMPDEST PUSH1 0x94 SLOAD PUSH1 0x1 PUSH1 0x1 PUSH1 0xA0 SHL SUB AND CALLER EQ PUSH2 0x32F3 JUMPI PUSH1 0x40 DUP1 MLOAD PUSH3 0x461BCD PUSH1 0xE5 SHL DUP2 MSTORE PUSH1 0x20 PUSH1 0x4 DUP3 ADD MSTORE PUSH1 0x8 PUSH1 0x24 DUP3 ADD MSTORE PUSH8 0x6E6F742065786563 PUSH1 0xC0 SHL PUSH1 0x44 DUP3 ADD MSTORE SWAP1 MLOAD SWAP1 DUP2 SWAP1 SUB PUSH1 0x64 ADD SWAP1 REVERT JUMPDEST PUSH1 0x1 PUSH1 0x1 PUSH1 0xA0 SHL SUB DUP2 AND PUSH2 0x334E JUMPI PUSH1 0x40 DUP1 MLOAD PUSH3 0x461BCD PUSH1 0xE5 SHL DUP2 MSTORE PUSH1 0x20 PUSH1 0x4 DUP3 ADD MSTORE PUSH1 0x1E PUSH1 0x24 DUP3 ADD MSTORE PUSH32 0x63616E6E6F7420736574207A65726F2061646472657373206F7261636C650000 PUSH1 0x44 DUP3 ADD MSTORE SWAP1 MLOAD SWAP1 DUP2 SWAP1 SUB PUSH1 0x64 ADD SWAP1 REVERT JUMPDEST PUSH1 0x88 DUP1 SLOAD PUSH1 0x1 PUSH1 0x1 PUSH1 0xA0 SHL SUB DUP4 AND PUSH1 0x1 PUSH1 0x1 PUSH1 0xA0 SHL SUB NOT SWAP1 SWAP2 AND DUP2 OR SWAP1 SWAP2 SSTORE PUSH1 0x40 DUP1 MLOAD SWAP2 DUP3 MSTORE MLOAD PUSH32 0xD3B5D1E0FFAEFF528910F3663F0ADACE7694AB8241D58E17A91351CED2E08031 SWAP2 DUP2 SWAP1 SUB PUSH1 0x20 ADD SWAP1 LOG1 POP JUMP JUMPDEST PUSH1 0x1 PUSH1 0x1 PUSH1 0xA0 SHL SUB SWAP1 DUP2 AND PUSH1 0x0 SWAP1 DUP2 MSTORE PUSH1 0x8C PUSH1 0x20 MSTORE PUSH1 0x40 SWAP1 KECCAK256 DUP1 SLOAD PUSH1 0x1 DUP3 ADD SLOAD PUSH1 0x2 DUP4 ADD SLOAD PUSH1 0x3 SWAP1 SWAP4 ADD SLOAD PUSH1 0xFF DUP4 AND SWAP6 PUSH3 0x10000 SWAP1 SWAP4 DIV SWAP1 SWAP5 AND SWAP4 SWAP1 SWAP3 SWAP2 JUMP JUMPDEST PUSH1 0x0 SLOAD PUSH3 0x10000 SWAP1 DIV PUSH1 0x1 PUSH1 0x1 PUSH1 0xA0 SHL SUB AND CALLER EQ PUSH2 0x343A JUMPI PUSH1 0x40 DUP1 MLOAD PUSH3 0x461BCD PUSH1 0xE5 SHL DUP2 MSTORE PUSH1 0x20 PUSH1 0x4 DUP3 ADD MSTORE PUSH1 0x10 PUSH1 0x24 DUP3 ADD MSTORE PUSH16 0x3737BA103A34329033B7BB32B93737B9 PUSH1 0x81 SHL PUSH1 0x44 DUP3 ADD MSTORE SWAP1 MLOAD SWAP1 DUP2 SWAP1 SUB PUSH1 0x64 ADD SWAP1 REVERT JUMPDEST PUSH1 0x93 SSTORE JUMP JUMPDEST PUSH1 0x88 SLOAD PUSH1 0x1 PUSH1 0x1 PUSH1 0xA0 SHL SUB AND DUP2 JUMP JUMPDEST PUSH1 0x8C PUSH1 0x20 MSTORE PUSH1 0x0 SWAP1 DUP2 MSTORE PUSH1 0x40 SWAP1 KECCAK256 DUP1 SLOAD PUSH1 0x1 DUP3 ADD SLOAD PUSH1 0x2 DUP4 ADD SLOAD PUSH1 0x3 SWAP1 SWAP4 ADD SLOAD PUSH1 0xFF DUP1 DUP5 AND SWAP5 PUSH2 0x100 DUP6 DIV SWAP1 SWAP2 AND SWAP4 PUSH3 0x10000 SWAP1 DIV PUSH1 0x1 PUSH1 0x1 PUSH1 0xA0 SHL SUB AND SWAP3 SWAP2 DUP7 JUMP JUMPDEST PUSH1 0x0 PUSH2 0x349C DUP3 PUSH2 0x25B5 JUMP JUMPDEST PUSH2 0x34A6 DUP4 DUP4 PUSH2 0x3CF6 JUMP JUMPDEST SWAP1 POP JUMPDEST SWAP3 SWAP2 POP POP JUMP JUMPDEST PUSH1 0x91 PUSH1 0x20 MSTORE PUSH1 0x0 SWAP1 DUP2 MSTORE PUSH1 0x40 SWAP1 KECCAK256 SLOAD PUSH1 0xFF AND DUP2 JUMP JUMPDEST PUSH1 0x8A SLOAD DUP2 JUMP JUMPDEST PUSH1 0x87 SLOAD PUSH1 0x1 PUSH1 0x1 PUSH1 0xA0 SHL SUB AND DUP2 JUMP JUMPDEST PUSH1 0x8E PUSH1 0x20 MSTORE PUSH1 0x0 SWAP1 DUP2 MSTORE PUSH1 0x40 SWAP1 KECCAK256 DUP1 SLOAD PUSH1 0x1 DUP3 ADD SLOAD PUSH1 0x2 DUP4 ADD SLOAD PUSH1 0x3 DUP5 ADD SLOAD PUSH1 0x4 SWAP1 SWAP5 ADD SLOAD PUSH1 0x1 PUSH1 0x1 PUSH1 0xA0 SHL SUB SWAP4 DUP5 AND SWAP5 SWAP4 SWAP1 SWAP3 AND SWAP3 SWAP1 SWAP2 DUP6 JUMP JUMPDEST PUSH1 0x0 SLOAD PUSH3 0x10000 SWAP1 DIV PUSH1 0x1 PUSH1 0x1 PUSH1 0xA0 SHL SUB AND CALLER EQ PUSH2 0x356C JUMPI PUSH1 0x40 DUP1 MLOAD PUSH3 0x461BCD PUSH1 0xE5 SHL DUP2 MSTORE PUSH1 0x20 PUSH1 0x4 DUP3 ADD MSTORE PUSH1 0x10 PUSH1 0x24 DUP3 ADD MSTORE PUSH16 0x3737BA103A34329033B7BB32B93737B9 PUSH1 0x81 SHL PUSH1 0x44 DUP3 ADD MSTORE SWAP1 MLOAD SWAP1 DUP2 SWAP1 SUB PUSH1 0x64 ADD SWAP1 REVERT JUMPDEST DUP3 DUP2 EQ PUSH2 0x35AA JUMPI PUSH1 0x40 MLOAD PUSH3 0x461BCD PUSH1 0xE5 SHL DUP2 MSTORE PUSH1 0x4 ADD DUP1 DUP1 PUSH1 0x20 ADD DUP3 DUP2 SUB DUP3 MSTORE PUSH1 0x22 DUP2 MSTORE PUSH1 0x20 ADD DUP1 PUSH2 0x4E82 PUSH1 0x22 SWAP2 CODECOPY PUSH1 0x40 ADD SWAP2 POP POP PUSH1 0x40 MLOAD DUP1 SWAP2 SUB SWAP1 REVERT JUMPDEST PUSH1 0x0 JUMPDEST DUP4 DUP2 LT ISZERO PUSH2 0x1BCB JUMPI DUP3 DUP3 DUP3 DUP2 DUP2 LT PUSH2 0x35C1 JUMPI INVALID JUMPDEST SWAP1 POP PUSH1 0x20 MUL ADD CALLDATALOAD ISZERO ISZERO PUSH1 0x92 PUSH1 0x0 DUP8 DUP8 DUP6 DUP2 DUP2 LT PUSH2 0x35DA JUMPI INVALID JUMPDEST PUSH1 0x20 SWAP1 DUP2 MUL SWAP3 SWAP1 SWAP3 ADD CALLDATALOAD PUSH1 0x1 PUSH1 0x1 PUSH1 0xA0 SHL SUB AND DUP4 MSTORE POP DUP2 ADD SWAP2 SWAP1 SWAP2 MSTORE PUSH1 0x40 ADD PUSH1 0x0 KECCAK256 DUP1 SLOAD PUSH1 0xFF NOT AND SWAP2 ISZERO ISZERO SWAP2 SWAP1 SWAP2 OR SWAP1 SSTORE PUSH1 0x1 ADD PUSH2 0x35AD JUMP JUMPDEST PUSH1 0x0 DUP2 DUP2 MSTORE PUSH1 0x8E PUSH1 0x20 MSTORE PUSH1 0x40 DUP2 KECCAK256 PUSH1 0x3 DUP2 ADD SLOAD DUP1 PUSH2 0x3636 JUMPI PUSH1 0x0 SWAP3 POP POP POP PUSH2 0x1332 JUMP JUMPDEST PUSH1 0x1 DUP3 ADD SLOAD PUSH1 0x1 PUSH1 0x1 PUSH1 0xA0 SHL SUB AND PUSH2 0x368C JUMPI PUSH1 0x40 DUP1 MLOAD PUSH3 0x461BCD PUSH1 0xE5 SHL DUP2 MSTORE PUSH1 0x20 PUSH1 0x4 DUP3 ADD MSTORE PUSH1 0x14 PUSH1 0x24 DUP3 ADD MSTORE PUSH20 0x3130B21031B7B63630BA32B930B6103A37B5B2B7 PUSH1 0x61 SHL PUSH1 0x44 DUP3 ADD MSTORE SWAP1 MLOAD SWAP1 DUP2 SWAP1 SUB PUSH1 0x64 ADD SWAP1 REVERT JUMPDEST PUSH1 0x88 SLOAD PUSH1 0x1 DUP4 ADD SLOAD PUSH1 0x2 DUP5 ADD SLOAD DUP5 SLOAD PUSH1 0x40 DUP1 MLOAD PUSH4 0x41A2A419 PUSH1 0xE1 SHL DUP2 MSTORE PUSH1 0x1 PUSH1 0x1 PUSH1 0xA0 SHL SUB SWAP5 DUP6 AND PUSH1 0x4 DUP3 ADD MSTORE PUSH1 0x24 DUP2 ADD SWAP4 SWAP1 SWAP4 MSTORE PUSH1 0x44 DUP4 ADD DUP7 SWAP1 MSTORE SWAP1 DUP4 AND PUSH1 0x64 DUP4 ADD MSTORE MLOAD SWAP2 SWAP1 SWAP3 AND SWAP2 PUSH4 0x83454832 SWAP2 PUSH1 0x84 DUP1 DUP4 ADD SWAP3 PUSH1 0x20 SWAP3 SWAP2 SWAP1 DUP3 SWAP1 SUB ADD DUP2 DUP7 DUP1 EXTCODESIZE ISZERO DUP1 ISZERO PUSH2 0x36FB JUMPI PUSH1 0x0 DUP1 REVERT JUMPDEST POP GAS STATICCALL ISZERO DUP1 ISZERO PUSH2 0x370F JUMPI RETURNDATASIZE PUSH1 0x0 DUP1 RETURNDATACOPY RETURNDATASIZE PUSH1 0x0 REVERT JUMPDEST POP POP POP POP PUSH1 0x40 MLOAD RETURNDATASIZE PUSH1 0x20 DUP2 LT ISZERO PUSH2 0x3725 JUMPI PUSH1 0x0 DUP1 REVERT JUMPDEST POP MLOAD SWAP3 POP PUSH2 0x1332 SWAP2 POP POP JUMP JUMPDEST PUSH4 0xBC197C81 PUSH1 0xE0 SHL SWAP9 SWAP8 POP POP POP POP POP POP POP POP JUMP JUMPDEST PUSH1 0x94 SLOAD PUSH1 0x1 PUSH1 0x1 PUSH1 0xA0 SHL SUB AND DUP2 JUMP JUMPDEST PUSH1 0x84 SLOAD DUP2 JUMP JUMPDEST PUSH1 0x0 SLOAD PUSH2 0x100 SWAP1 DIV PUSH1 0xFF AND DUP1 PUSH2 0x3773 JUMPI POP PUSH2 0x3773 PUSH2 0x45B2 JUMP JUMPDEST DUP1 PUSH2 0x3781 JUMPI POP PUSH1 0x0 SLOAD PUSH1 0xFF AND ISZERO JUMPDEST PUSH2 0x37BC JUMPI PUSH1 0x40 MLOAD PUSH3 0x461BCD PUSH1 0xE5 SHL DUP2 MSTORE PUSH1 0x4 ADD DUP1 DUP1 PUSH1 0x20 ADD DUP3 DUP2 SUB DUP3 MSTORE PUSH1 0x2E DUP2 MSTORE PUSH1 0x20 ADD DUP1 PUSH2 0x4E33 PUSH1 0x2E SWAP2 CODECOPY PUSH1 0x40 ADD SWAP2 POP POP PUSH1 0x40 MLOAD DUP1 SWAP2 SUB SWAP1 REVERT JUMPDEST PUSH1 0x0 SLOAD PUSH2 0x100 SWAP1 DIV PUSH1 0xFF AND ISZERO DUP1 ISZERO PUSH2 0x37E7 JUMPI PUSH1 0x0 DUP1 SLOAD PUSH1 0xFF NOT PUSH2 0xFF00 NOT SWAP1 SWAP2 AND PUSH2 0x100 OR AND PUSH1 0x1 OR SWAP1 SSTORE JUMPDEST PUSH2 0x37EF PUSH2 0x45C3 JUMP JUMPDEST PUSH1 0x1 PUSH1 0x83 DUP2 SWAP1 SSTORE PUSH1 0x84 DUP2 SWAP1 SSTORE PUSH1 0x0 NOT PUSH1 0x85 SSTORE PUSH1 0x86 DUP1 SLOAD PUSH1 0x1 PUSH1 0x1 PUSH1 0xA0 SHL SUB NOT AND SWAP1 SWAP2 OR SWAP1 SSTORE PUSH1 0x40 MLOAD PUSH2 0x3820 SWAP1 PUSH2 0x4C16 JUMP JUMPDEST PUSH1 0x40 MLOAD DUP1 SWAP2 SUB SWAP1 PUSH1 0x0 CREATE DUP1 ISZERO DUP1 ISZERO PUSH2 0x383C JUMPI RETURNDATASIZE PUSH1 0x0 DUP1 RETURNDATACOPY RETURNDATASIZE PUSH1 0x0 REVERT JUMPDEST POP PUSH1 0x87 DUP1 SLOAD PUSH1 0x1 PUSH1 0x1 PUSH1 0xA0 SHL SUB SWAP3 DUP4 AND PUSH1 0x1 PUSH1 0x1 PUSH1 0xA0 SHL SUB NOT SWAP2 DUP3 AND OR SWAP1 SWAP2 SSTORE PUSH1 0x88 DUP1 SLOAD SWAP3 DUP7 AND SWAP3 SWAP1 SWAP2 AND DUP3 OR SWAP1 SSTORE PUSH2 0x38B1 JUMPI PUSH1 0x40 DUP1 MLOAD PUSH3 0x461BCD PUSH1 0xE5 SHL DUP2 MSTORE PUSH1 0x20 PUSH1 0x4 DUP3 ADD MSTORE PUSH1 0x12 PUSH1 0x24 DUP3 ADD MSTORE PUSH18 0x626164206F7261636C652061646472657373 PUSH1 0x70 SHL PUSH1 0x44 DUP3 ADD MSTORE SWAP1 MLOAD SWAP1 DUP2 SWAP1 SUB PUSH1 0x64 ADD SWAP1 REVERT JUMPDEST PUSH1 0x89 DUP3 SWAP1 SSTORE PUSH1 0x1 PUSH1 0x8A SSTORE PUSH1 0x3 PUSH1 0x93 SSTORE PUSH1 0x40 DUP1 MLOAD PUSH1 0x1 PUSH1 0x1 PUSH1 0xA0 SHL SUB DUP6 AND DUP2 MSTORE SWAP1 MLOAD PUSH32 0xD3B5D1E0FFAEFF528910F3663F0ADACE7694AB8241D58E17A91351CED2E08031 SWAP2 DUP2 SWAP1 SUB PUSH1 0x20 ADD SWAP1 LOG1 PUSH1 0x40 DUP1 MLOAD DUP4 DUP2 MSTORE SWAP1 MLOAD PUSH32 0x15B86359C2A1E342EF965D15A848EDA1666E575175D1907EA284DAB1DCF64FFB SWAP2 DUP2 SWAP1 SUB PUSH1 0x20 ADD SWAP1 LOG1 DUP1 ISZERO PUSH2 0x3941 JUMPI PUSH1 0x0 DUP1 SLOAD PUSH2 0xFF00 NOT AND SWAP1 SSTORE JUMPDEST POP POP POP JUMP JUMPDEST PUSH1 0x83 SLOAD DUP2 JUMP JUMPDEST PUSH1 0x8F SLOAD PUSH1 0xFF AND DUP2 JUMP JUMPDEST PUSH1 0x0 DUP3 DUP2 MSTORE PUSH1 0x8E PUSH1 0x20 SWAP1 DUP2 MSTORE PUSH1 0x40 DUP1 DUP4 KECCAK256 PUSH1 0x1 PUSH1 0x1 PUSH1 0xA0 SHL SUB DUP6 AND DUP5 MSTORE PUSH1 0x5 ADD SWAP1 SWAP2 MSTORE SWAP1 KECCAK256 SLOAD SWAP3 SWAP2 POP POP JUMP JUMPDEST PUSH1 0x85 SLOAD DUP2 JUMP JUMPDEST PUSH1 0x90 PUSH1 0x20 MSTORE PUSH1 0x0 SWAP1 DUP2 MSTORE PUSH1 0x40 SWAP1 KECCAK256 SLOAD PUSH1 0xFF AND DUP2 JUMP JUMPDEST PUSH1 0x8B DUP2 DUP2 SLOAD DUP2 LT PUSH2 0x39A9 JUMPI INVALID JUMPDEST PUSH1 0x0 SWAP2 DUP3 MSTORE PUSH1 0x20 SWAP1 SWAP2 KECCAK256 ADD SLOAD PUSH1 0x1 PUSH1 0x1 PUSH1 0xA0 SHL SUB AND SWAP1 POP DUP2 JUMP JUMPDEST PUSH1 0x1 SLOAD PUSH1 0x1 PUSH1 0x1 PUSH1 0xA0 SHL SUB AND DUP2 JUMP JUMPDEST PUSH1 0x1 SLOAD PUSH1 0x1 PUSH1 0x1 PUSH1 0xA0 SHL SUB AND CALLER EQ PUSH2 0x3A31 JUMPI PUSH1 0x40 DUP1 MLOAD PUSH3 0x461BCD PUSH1 0xE5 SHL DUP2 MSTORE PUSH1 0x20 PUSH1 0x4 DUP3 ADD MSTORE PUSH1 0x18 PUSH1 0x24 DUP3 ADD MSTORE PUSH32 0x6E6F74207468652070656E64696E6720676F7665726E6F720000000000000000 PUSH1 0x44 DUP3 ADD MSTORE SWAP1 MLOAD SWAP1 DUP2 SWAP1 SUB PUSH1 0x64 ADD SWAP1 REVERT JUMPDEST PUSH1 0x1 DUP1 SLOAD PUSH1 0x1 PUSH1 0x1 PUSH1 0xA0 SHL SUB NOT AND SWAP1 SSTORE PUSH1 0x0 DUP1 SLOAD PUSH3 0x10000 PUSH1 0x1 PUSH1 0xB0 SHL SUB NOT AND CALLER PUSH3 0x10000 DUP2 MUL SWAP2 SWAP1 SWAP2 OR SWAP1 SWAP2 SSTORE PUSH1 0x40 DUP1 MLOAD SWAP2 DUP3 MSTORE MLOAD PUSH32 0xD345D81CE68C70B119A17EEE79DC1421700BD9CB21CA148A62DC90983964E82F SWAP2 PUSH1 0x20 SWAP1 DUP3 SWAP1 SUB ADD SWAP1 LOG1 JUMP JUMPDEST PUSH1 0x88 SLOAD PUSH1 0x40 DUP1 MLOAD PUSH4 0x1CCC1981 PUSH1 0xE3 SHL DUP2 MSTORE PUSH1 0x1 PUSH1 0x1 PUSH1 0xA0 SHL SUB DUP5 DUP2 AND PUSH1 0x4 DUP4 ADD MSTORE SWAP2 MLOAD PUSH1 0x0 SWAP4 SWAP3 SWAP1 SWAP3 AND SWAP2 PUSH4 0xE660CC08 SWAP2 PUSH1 0x24 DUP1 DUP3 ADD SWAP3 PUSH1 0x20 SWAP3 SWAP1 SWAP2 SWAP1 DUP3 SWAP1 SUB ADD DUP2 DUP7 DUP1 EXTCODESIZE ISZERO DUP1 ISZERO PUSH2 0x3AE5 JUMPI PUSH1 0x0 DUP1 REVERT JUMPDEST POP GAS STATICCALL ISZERO DUP1 ISZERO PUSH2 0x3AF9 JUMPI RETURNDATASIZE PUSH1 0x0 DUP1 RETURNDATACOPY RETURNDATASIZE PUSH1 0x0 REVERT JUMPDEST POP POP POP POP PUSH1 0x40 MLOAD RETURNDATASIZE PUSH1 0x20 DUP2 LT ISZERO PUSH2 0x3B0F JUMPI PUSH1 0x0 DUP1 REVERT JUMPDEST POP MLOAD SWAP3 SWAP2 POP POP JUMP JUMPDEST PUSH1 0x0 SLOAD PUSH3 0x10000 SWAP1 DIV PUSH1 0x1 PUSH1 0x1 PUSH1 0xA0 SHL SUB AND CALLER EQ PUSH2 0x3B6F JUMPI PUSH1 0x40 DUP1 MLOAD PUSH3 0x461BCD PUSH1 0xE5 SHL DUP2 MSTORE PUSH1 0x20 PUSH1 0x4 DUP3 ADD MSTORE PUSH1 0x10 PUSH1 0x24 DUP3 ADD MSTORE PUSH16 0x3737BA103A34329033B7BB32B93737B9 PUSH1 0x81 SHL PUSH1 0x44 DUP3 ADD MSTORE SWAP1 MLOAD SWAP1 DUP2 SWAP1 SUB PUSH1 0x64 ADD SWAP1 REVERT JUMPDEST PUSH1 0x94 DUP1 SLOAD PUSH1 0x1 PUSH1 0x1 PUSH1 0xA0 SHL SUB DUP4 AND PUSH1 0x1 PUSH1 0x1 PUSH1 0xA0 SHL SUB NOT SWAP1 SWAP2 AND DUP2 OR SWAP1 SWAP2 SSTORE PUSH1 0x40 DUP1 MLOAD SWAP2 DUP3 MSTORE MLOAD PUSH32 0x694048DC9D2C4A28738C579C8611792B901E1CC012954DE893D896005D24861F SWAP2 DUP2 SWAP1 SUB PUSH1 0x20 ADD SWAP1 LOG1 POP JUMP JUMPDEST PUSH1 0x0 SLOAD PUSH3 0x10000 SWAP1 DIV PUSH1 0x1 PUSH1 0x1 PUSH1 0xA0 SHL SUB AND CALLER EQ PUSH2 0x3C1B JUMPI PUSH1 0x40 DUP1 MLOAD PUSH3 0x461BCD PUSH1 0xE5 SHL DUP2 MSTORE PUSH1 0x20 PUSH1 0x4 DUP3 ADD MSTORE PUSH1 0x10 PUSH1 0x24 DUP3 ADD MSTORE PUSH16 0x3737BA103A34329033B7BB32B93737B9 PUSH1 0x81 SHL PUSH1 0x44 DUP3 ADD MSTORE SWAP1 MLOAD SWAP1 DUP2 SWAP1 SUB PUSH1 0x64 ADD SWAP1 REVERT JUMPDEST PUSH1 0x1 DUP1 SLOAD PUSH1 0x1 PUSH1 0x1 PUSH1 0xA0 SHL SUB DUP4 AND PUSH1 0x1 PUSH1 0x1 PUSH1 0xA0 SHL SUB NOT SWAP1 SWAP2 AND DUP2 OR SWAP1 SWAP2 SSTORE PUSH1 0x40 DUP1 MLOAD SWAP2 DUP3 MSTORE MLOAD PUSH32 0x964DEA888B00B2AB53F13DFE7CA334B46E99338C222AE232D98547A1DA019F60 SWAP2 DUP2 SWAP1 SUB PUSH1 0x20 ADD SWAP1 LOG1 POP JUMP JUMPDEST PUSH4 0xF23A6E61 PUSH1 0xE0 SHL SWAP7 SWAP6 POP POP POP POP POP POP JUMP JUMPDEST PUSH1 0x92 PUSH1 0x20 MSTORE PUSH1 0x0 SWAP1 DUP2 MSTORE PUSH1 0x40 SWAP1 KECCAK256 SLOAD PUSH1 0xFF AND DUP2 JUMP JUMPDEST PUSH1 0x0 DUP1 PUSH1 0x0 DUP1 PUSH1 0x0 NOT PUSH1 0x85 SLOAD EQ ISZERO PUSH2 0x3CDD JUMPI PUSH1 0x40 DUP1 MLOAD PUSH3 0x461BCD PUSH1 0xE5 SHL DUP2 MSTORE PUSH1 0x20 PUSH1 0x4 DUP3 ADD MSTORE PUSH1 0x5 PUSH1 0x24 DUP3 ADD MSTORE PUSH5 0x1B9BC81A59 PUSH1 0xDA SHL PUSH1 0x44 DUP3 ADD MSTORE SWAP1 MLOAD SWAP1 DUP2 SWAP1 SUB PUSH1 0x64 ADD SWAP1 REVERT JUMPDEST PUSH2 0x3CE8 PUSH1 0x85 SLOAD PUSH2 0x23CB JUMP JUMPDEST SWAP4 POP SWAP4 POP SWAP4 POP SWAP4 POP SWAP1 SWAP2 SWAP3 SWAP4 JUMP JUMPDEST PUSH1 0x1 PUSH1 0x1 PUSH1 0xA0 SHL SUB DUP2 AND PUSH1 0x0 DUP2 DUP2 MSTORE PUSH1 0x8C PUSH1 0x20 SWAP1 DUP2 MSTORE PUSH1 0x40 DUP1 DUP4 KECCAK256 PUSH1 0x2 DUP2 ADD SLOAD PUSH1 0x3 SWAP1 SWAP2 ADD SLOAD DUP8 DUP6 MSTORE PUSH1 0x8E DUP5 MSTORE DUP3 DUP6 KECCAK256 SWAP6 DUP6 MSTORE PUSH1 0x5 SWAP1 SWAP6 ADD SWAP1 SWAP3 MSTORE DUP3 KECCAK256 SLOAD SWAP2 SWAP3 SWAP1 SWAP2 DUP1 ISZERO DUP1 PUSH2 0x3D43 JUMPI POP DUP3 ISZERO JUMPDEST ISZERO PUSH2 0x3D54 JUMPI PUSH1 0x0 SWAP4 POP POP POP POP PUSH2 0x34A9 JUMP JUMPDEST PUSH2 0x3D62 DUP3 PUSH2 0x21BB DUP4 DUP7 PUSH2 0x42D6 JUMP JUMPDEST SWAP4 POP POP POP POP PUSH2 0x34A9 JUMP JUMPDEST PUSH1 0x0 DUP3 DUP3 GT ISZERO PUSH2 0x3DC3 JUMPI PUSH1 0x40 DUP1 MLOAD PUSH3 0x461BCD PUSH1 0xE5 SHL DUP2 MSTORE PUSH1 0x20 PUSH1 0x4 DUP3 ADD MSTORE PUSH1 0x1E PUSH1 0x24 DUP3 ADD MSTORE PUSH32 0x536166654D6174683A207375627472616374696F6E206F766572666C6F770000 PUSH1 0x44 DUP3 ADD MSTORE SWAP1 MLOAD SWAP1 DUP2 SWAP1 SUB PUSH1 0x64 ADD SWAP1 REVERT JUMPDEST POP SWAP1 SUB SWAP1 JUMP JUMPDEST PUSH1 0x40 DUP1 MLOAD PUSH1 0x1 PUSH1 0x1 PUSH1 0xA0 SHL SUB DUP5 AND PUSH1 0x24 DUP3 ADD MSTORE PUSH1 0x44 DUP1 DUP3 ADD DUP5 SWAP1 MSTORE DUP3 MLOAD DUP1 DUP4 SUB SWAP1 SWAP2 ADD DUP2 MSTORE PUSH1 0x64 SWAP1 SWAP2 ADD SWAP1 SWAP2 MSTORE PUSH1 0x20 DUP2 ADD DUP1 MLOAD PUSH1 0x1 PUSH1 0x1 PUSH1 0xE0 SHL SUB AND PUSH4 0xA9059CBB PUSH1 0xE0 SHL OR SWAP1 MSTORE PUSH2 0x3941 SWAP1 DUP5 SWAP1 PUSH2 0x46C6 JUMP JUMPDEST PUSH1 0x1 PUSH1 0x1 PUSH1 0xA0 SHL SUB DUP3 AND PUSH1 0x0 DUP2 DUP2 MSTORE PUSH1 0x8C PUSH1 0x20 SWAP1 DUP2 MSTORE PUSH1 0x40 DUP1 DUP4 KECCAK256 DUP8 DUP5 MSTORE PUSH1 0x8E DUP4 MSTORE DUP2 DUP5 KECCAK256 PUSH1 0x3 DUP3 ADD SLOAD PUSH1 0x2 DUP4 ADD SLOAD SWAP7 DUP7 MSTORE PUSH1 0x5 DUP3 ADD SWAP1 SWAP5 MSTORE SWAP2 DUP5 KECCAK256 SLOAD SWAP4 SWAP5 DUP6 SWAP5 SWAP2 SWAP4 SWAP2 DUP6 PUSH2 0x3E6E DUP5 PUSH2 0x21BB DUP5 DUP7 PUSH2 0x42D6 JUMP JUMPDEST SWAP1 POP PUSH1 0x0 NOT DUP10 EQ ISZERO PUSH2 0x3E7E JUMPI DUP1 SWAP9 POP JUMPDEST PUSH1 0x0 PUSH2 0x3E93 DUP12 PUSH2 0x3E8E DUP14 DUP14 PUSH2 0x4777 JUMP JUMPDEST PUSH2 0x489A JUMP JUMPDEST SWAP1 POP DUP2 DUP2 GT ISZERO PUSH2 0x3EDE JUMPI PUSH1 0x40 DUP1 MLOAD PUSH3 0x461BCD PUSH1 0xE5 SHL DUP2 MSTORE PUSH1 0x20 PUSH1 0x4 DUP3 ADD MSTORE PUSH1 0x11 PUSH1 0x24 DUP3 ADD MSTORE PUSH17 0x1C185A5908195E18D959591CC81919589D PUSH1 0x7A SHL PUSH1 0x44 DUP3 ADD MSTORE SWAP1 MLOAD SWAP1 DUP2 SWAP1 SUB PUSH1 0x64 ADD SWAP1 REVERT JUMPDEST PUSH1 0x0 DUP3 DUP3 EQ PUSH2 0x3EFA JUMPI PUSH2 0x3EF5 DUP6 PUSH2 0x26C7 DUP5 DUP10 PUSH2 0x42D6 JUMP JUMPDEST PUSH2 0x3EFC JUMP JUMPDEST DUP4 JUMPDEST SWAP1 POP PUSH2 0x3F08 DUP7 DUP3 PUSH2 0x3D6C JUMP JUMPDEST PUSH1 0x3 DUP10 ADD SSTORE PUSH1 0x0 PUSH2 0x3F19 DUP6 DUP4 PUSH2 0x3D6C JUMP JUMPDEST PUSH1 0x1 PUSH1 0x1 PUSH1 0xA0 SHL SUB DUP15 AND PUSH1 0x0 SWAP1 DUP2 MSTORE PUSH1 0x5 DUP11 ADD PUSH1 0x20 MSTORE PUSH1 0x40 SWAP1 KECCAK256 DUP2 SWAP1 SSTORE SWAP1 POP DUP1 PUSH2 0x3F5B JUMPI DUP9 SLOAD PUSH1 0x4 DUP10 ADD DUP1 SLOAD PUSH1 0x1 PUSH2 0x100 SWAP1 SWAP4 DIV PUSH1 0xFF AND SWAP3 SWAP1 SWAP3 SHL NOT SWAP1 SWAP2 AND SWAP1 SSTORE JUMPDEST POP SWAP1 SWAP13 SWAP1 SWAP12 POP SWAP10 POP POP POP POP POP POP POP POP POP POP JUMP JUMPDEST PUSH1 0x0 DUP1 DUP5 PUSH1 0x1 PUSH1 0x1 PUSH1 0xA0 SHL SUB AND PUSH3 0xFDD58E ADDRESS DUP7 PUSH1 0x40 MLOAD DUP4 PUSH4 0xFFFFFFFF AND PUSH1 0xE0 SHL DUP2 MSTORE PUSH1 0x4 ADD DUP1 DUP4 PUSH1 0x1 PUSH1 0x1 PUSH1 0xA0 SHL SUB AND DUP2 MSTORE PUSH1 0x20 ADD DUP3 DUP2 MSTORE PUSH1 0x20 ADD SWAP3 POP POP POP PUSH1 0x20 PUSH1 0x40 MLOAD DUP1 DUP4 SUB DUP2 DUP7 DUP1 EXTCODESIZE ISZERO DUP1 ISZERO PUSH2 0x3FC5 JUMPI PUSH1 0x0 DUP1 REVERT JUMPDEST POP GAS STATICCALL ISZERO DUP1 ISZERO PUSH2 0x3FD9 JUMPI RETURNDATASIZE PUSH1 0x0 DUP1 RETURNDATACOPY RETURNDATASIZE PUSH1 0x0 REVERT JUMPDEST POP POP POP POP PUSH1 0x40 MLOAD RETURNDATASIZE PUSH1 0x20 DUP2 LT ISZERO PUSH2 0x3FEF JUMPI PUSH1 0x0 DUP1 REVERT JUMPDEST POP MLOAD PUSH1 0x40 DUP1 MLOAD PUSH4 0x79212195 PUSH1 0xE1 SHL DUP2 MSTORE CALLER PUSH1 0x4 DUP3 ADD MSTORE ADDRESS PUSH1 0x24 DUP3 ADD MSTORE PUSH1 0x44 DUP2 ADD DUP8 SWAP1 MSTORE PUSH1 0x64 DUP2 ADD DUP7 SWAP1 MSTORE PUSH1 0xA0 PUSH1 0x84 DUP3 ADD MSTORE PUSH1 0x0 PUSH1 0xA4 DUP3 ADD DUP2 SWAP1 MSTORE SWAP2 MLOAD SWAP3 SWAP4 POP PUSH1 0x1 PUSH1 0x1 PUSH1 0xA0 SHL SUB DUP9 AND SWAP3 PUSH4 0xF242432A SWAP3 PUSH1 0xE4 DUP1 DUP5 ADD SWAP4 SWAP2 SWAP3 SWAP2 DUP3 SWAP1 SUB ADD DUP2 DUP4 DUP8 DUP1 EXTCODESIZE ISZERO DUP1 ISZERO PUSH2 0x405D JUMPI PUSH1 0x0 DUP1 REVERT JUMPDEST POP GAS CALL ISZERO DUP1 ISZERO PUSH2 0x4071 JUMPI RETURNDATASIZE PUSH1 0x0 DUP1 RETURNDATACOPY RETURNDATASIZE PUSH1 0x0 REVERT JUMPDEST POP POP POP POP PUSH1 0x0 DUP6 PUSH1 0x1 PUSH1 0x1 PUSH1 0xA0 SHL SUB AND PUSH3 0xFDD58E ADDRESS DUP8 PUSH1 0x40 MLOAD DUP4 PUSH4 0xFFFFFFFF AND PUSH1 0xE0 SHL DUP2 MSTORE PUSH1 0x4 ADD DUP1 DUP4 PUSH1 0x1 PUSH1 0x1 PUSH1 0xA0 SHL SUB AND DUP2 MSTORE PUSH1 0x20 ADD DUP3 DUP2 MSTORE PUSH1 0x20 ADD SWAP3 POP POP POP PUSH1 0x20 PUSH1 0x40 MLOAD DUP1 DUP4 SUB DUP2 DUP7 DUP1 EXTCODESIZE ISZERO DUP1 ISZERO PUSH2 0x40CB JUMPI PUSH1 0x0 DUP1 REVERT JUMPDEST POP GAS STATICCALL ISZERO DUP1 ISZERO PUSH2 0x40DF JUMPI RETURNDATASIZE PUSH1 0x0 DUP1 RETURNDATACOPY RETURNDATASIZE PUSH1 0x0 REVERT JUMPDEST POP POP POP POP PUSH1 0x40 MLOAD RETURNDATASIZE PUSH1 0x20 DUP2 LT ISZERO PUSH2 0x40F5 JUMPI PUSH1 0x0 DUP1 REVERT JUMPDEST POP MLOAD SWAP1 POP PUSH2 0x4103 DUP2 DUP4 PUSH2 0x3D6C JUMP JUMPDEST SWAP3 POP POP POP JUMPDEST SWAP4 SWAP3 POP POP POP JUMP JUMPDEST PUSH1 0x0 DUP3 DUP3 ADD DUP4 DUP2 LT ISZERO PUSH2 0x34A6 JUMPI PUSH1 0x40 DUP1 MLOAD PUSH3 0x461BCD PUSH1 0xE5 SHL DUP2 MSTORE PUSH1 0x20 PUSH1 0x4 DUP3 ADD MSTORE PUSH1 0x1B PUSH1 0x24 DUP3 ADD MSTORE PUSH32 0x536166654D6174683A206164646974696F6E206F766572666C6F770000000000 PUSH1 0x44 DUP3 ADD MSTORE SWAP1 MLOAD SWAP1 DUP2 SWAP1 SUB PUSH1 0x64 ADD SWAP1 REVERT JUMPDEST DUP1 ISZERO DUP1 PUSH2 0x41EF JUMPI POP PUSH1 0x40 DUP1 MLOAD PUSH4 0x6EB1769F PUSH1 0xE1 SHL DUP2 MSTORE ADDRESS PUSH1 0x4 DUP3 ADD MSTORE PUSH1 0x1 PUSH1 0x1 PUSH1 0xA0 SHL SUB DUP5 DUP2 AND PUSH1 0x24 DUP4 ADD MSTORE SWAP2 MLOAD SWAP2 DUP6 AND SWAP2 PUSH4 0xDD62ED3E SWAP2 PUSH1 0x44 DUP1 DUP3 ADD SWAP3 PUSH1 0x20 SWAP3 SWAP1 SWAP2 SWAP1 DUP3 SWAP1 SUB ADD DUP2 DUP7 DUP1 EXTCODESIZE ISZERO DUP1 ISZERO PUSH2 0x41C1 JUMPI PUSH1 0x0 DUP1 REVERT JUMPDEST POP GAS STATICCALL ISZERO DUP1 ISZERO PUSH2 0x41D5 JUMPI RETURNDATASIZE PUSH1 0x0 DUP1 RETURNDATACOPY RETURNDATASIZE PUSH1 0x0 REVERT JUMPDEST POP POP POP POP PUSH1 0x40 MLOAD RETURNDATASIZE PUSH1 0x20 DUP2 LT ISZERO PUSH2 0x41EB JUMPI PUSH1 0x0 DUP1 REVERT JUMPDEST POP MLOAD ISZERO JUMPDEST PUSH2 0x422A JUMPI PUSH1 0x40 MLOAD PUSH3 0x461BCD PUSH1 0xE5 SHL DUP2 MSTORE PUSH1 0x4 ADD DUP1 DUP1 PUSH1 0x20 ADD DUP3 DUP2 SUB DUP3 MSTORE PUSH1 0x36 DUP2 MSTORE PUSH1 0x20 ADD DUP1 PUSH2 0x4F14 PUSH1 0x36 SWAP2 CODECOPY PUSH1 0x40 ADD SWAP2 POP POP PUSH1 0x40 MLOAD DUP1 SWAP2 SUB SWAP1 REVERT JUMPDEST PUSH1 0x40 DUP1 MLOAD PUSH1 0x1 PUSH1 0x1 PUSH1 0xA0 SHL SUB DUP5 AND PUSH1 0x24 DUP3 ADD MSTORE PUSH1 0x44 DUP1 DUP3 ADD DUP5 SWAP1 MSTORE DUP3 MLOAD DUP1 DUP4 SUB SWAP1 SWAP2 ADD DUP2 MSTORE PUSH1 0x64 SWAP1 SWAP2 ADD SWAP1 SWAP2 MSTORE PUSH1 0x20 DUP2 ADD DUP1 MLOAD PUSH1 0x1 PUSH1 0x1 PUSH1 0xE0 SHL SUB AND PUSH4 0x95EA7B3 PUSH1 0xE0 SHL OR SWAP1 MSTORE PUSH2 0x3941 SWAP1 DUP5 SWAP1 PUSH2 0x46C6 JUMP JUMPDEST PUSH1 0x40 DUP1 MLOAD PUSH1 0x1 PUSH1 0x1 PUSH1 0xA0 SHL SUB DUP1 DUP7 AND PUSH1 0x24 DUP4 ADD MSTORE DUP5 AND PUSH1 0x44 DUP3 ADD MSTORE PUSH1 0x64 DUP1 DUP3 ADD DUP5 SWAP1 MSTORE DUP3 MLOAD DUP1 DUP4 SUB SWAP1 SWAP2 ADD DUP2 MSTORE PUSH1 0x84 SWAP1 SWAP2 ADD SWAP1 SWAP2 MSTORE PUSH1 0x20 DUP2 ADD DUP1 MLOAD PUSH1 0x1 PUSH1 0x1 PUSH1 0xE0 SHL SUB AND PUSH4 0x23B872DD PUSH1 0xE0 SHL OR SWAP1 MSTORE PUSH2 0x2708 SWAP1 DUP6 SWAP1 PUSH2 0x46C6 JUMP JUMPDEST PUSH1 0x0 DUP3 PUSH2 0x42E5 JUMPI POP PUSH1 0x0 PUSH2 0x34A9 JUMP JUMPDEST DUP3 DUP3 MUL DUP3 DUP5 DUP3 DUP2 PUSH2 0x42F2 JUMPI INVALID JUMPDEST DIV EQ PUSH2 0x34A6 JUMPI PUSH1 0x40 MLOAD PUSH3 0x461BCD PUSH1 0xE5 SHL DUP2 MSTORE PUSH1 0x4 ADD DUP1 DUP1 PUSH1 0x20 ADD DUP3 DUP2 SUB DUP3 MSTORE PUSH1 0x21 DUP2 MSTORE PUSH1 0x20 ADD DUP1 PUSH2 0x4E61 PUSH1 0x21 SWAP2 CODECOPY PUSH1 0x40 ADD SWAP2 POP POP PUSH1 0x40 MLOAD DUP1 SWAP2 SUB SWAP1 REVERT JUMPDEST PUSH1 0x0 PUSH2 0x34A6 DUP3 PUSH2 0x26C7 PUSH1 0x1 PUSH2 0x4344 DUP8 DUP5 PUSH2 0x410F JUMP JUMPDEST SWAP1 PUSH2 0x3D6C JUMP JUMPDEST PUSH1 0x1 PUSH1 0x1 PUSH1 0xA0 SHL SUB DUP3 AND PUSH1 0x0 DUP2 DUP2 MSTORE PUSH1 0x8C PUSH1 0x20 SWAP1 DUP2 MSTORE PUSH1 0x40 DUP1 DUP4 KECCAK256 DUP2 MLOAD PUSH4 0x70A08231 PUSH1 0xE0 SHL DUP2 MSTORE ADDRESS PUSH1 0x4 DUP3 ADD MSTORE SWAP2 MLOAD SWAP4 SWAP5 SWAP1 SWAP4 DUP6 SWAP4 SWAP2 SWAP3 PUSH4 0x70A08231 SWAP3 PUSH1 0x24 DUP1 DUP4 ADD SWAP4 SWAP2 SWAP3 DUP3 SWAP1 SUB ADD DUP2 DUP7 DUP1 EXTCODESIZE ISZERO DUP1 ISZERO PUSH2 0x43A3 JUMPI PUSH1 0x0 DUP1 REVERT JUMPDEST POP GAS STATICCALL ISZERO DUP1 ISZERO PUSH2 0x43B7 JUMPI RETURNDATASIZE PUSH1 0x0 DUP1 RETURNDATACOPY RETURNDATASIZE PUSH1 0x0 REVERT JUMPDEST POP POP POP POP PUSH1 0x40 MLOAD RETURNDATASIZE PUSH1 0x20 DUP2 LT ISZERO PUSH2 0x43CD JUMPI PUSH1 0x0 DUP1 REVERT JUMPDEST POP MLOAD DUP3 SLOAD PUSH1 0x40 DUP1 MLOAD PUSH4 0x317AFABB PUSH1 0xE2 SHL DUP2 MSTORE PUSH1 0x4 DUP2 ADD DUP9 SWAP1 MSTORE SWAP1 MLOAD SWAP3 SWAP4 POP PUSH3 0x10000 SWAP1 SWAP2 DIV PUSH1 0x1 PUSH1 0x1 PUSH1 0xA0 SHL SUB AND SWAP2 PUSH4 0xC5EBEAEC SWAP2 PUSH1 0x24 DUP1 DUP3 ADD SWAP3 PUSH1 0x20 SWAP3 SWAP1 SWAP2 SWAP1 DUP3 SWAP1 SUB ADD DUP2 PUSH1 0x0 DUP8 DUP1 EXTCODESIZE ISZERO DUP1 ISZERO PUSH2 0x4424 JUMPI PUSH1 0x0 DUP1 REVERT JUMPDEST POP GAS CALL ISZERO DUP1 ISZERO PUSH2 0x4438 JUMPI RETURNDATASIZE PUSH1 0x0 DUP1 RETURNDATACOPY RETURNDATASIZE PUSH1 0x0 REVERT JUMPDEST POP POP POP POP PUSH1 0x40 MLOAD RETURNDATASIZE PUSH1 0x20 DUP2 LT ISZERO PUSH2 0x444E JUMPI PUSH1 0x0 DUP1 REVERT JUMPDEST POP MLOAD ISZERO PUSH2 0x448F JUMPI PUSH1 0x40 DUP1 MLOAD PUSH3 0x461BCD PUSH1 0xE5 SHL DUP2 MSTORE PUSH1 0x20 PUSH1 0x4 DUP3 ADD MSTORE PUSH1 0xA PUSH1 0x24 DUP3 ADD MSTORE PUSH10 0x62616420626F72726F77 PUSH1 0xB0 SHL PUSH1 0x44 DUP3 ADD MSTORE SWAP1 MLOAD SWAP1 DUP2 SWAP1 SUB PUSH1 0x64 ADD SWAP1 REVERT JUMPDEST PUSH1 0x0 DUP6 PUSH1 0x1 PUSH1 0x1 PUSH1 0xA0 SHL SUB AND PUSH4 0x70A08231 ADDRESS PUSH1 0x40 MLOAD DUP3 PUSH4 0xFFFFFFFF AND PUSH1 0xE0 SHL DUP2 MSTORE PUSH1 0x4 ADD DUP1 DUP3 PUSH1 0x1 PUSH1 0x1 PUSH1 0xA0 SHL SUB AND DUP2 MSTORE PUSH1 0x20 ADD SWAP2 POP POP PUSH1 0x20 PUSH1 0x40 MLOAD DUP1 DUP4 SUB DUP2 DUP7 DUP1 EXTCODESIZE ISZERO DUP1 ISZERO PUSH2 0x44DE JUMPI PUSH1 0x0 DUP1 REVERT JUMPDEST POP GAS STATICCALL ISZERO DUP1 ISZERO PUSH2 0x44F2 JUMPI RETURNDATASIZE PUSH1 0x0 DUP1 RETURNDATACOPY RETURNDATASIZE PUSH1 0x0 REVERT JUMPDEST POP POP POP POP PUSH1 0x40 MLOAD RETURNDATASIZE PUSH1 0x20 DUP2 LT ISZERO PUSH2 0x4508 JUMPI PUSH1 0x0 DUP1 REVERT JUMPDEST POP MLOAD PUSH1 0x2 DUP5 ADD SLOAD SWAP1 SWAP2 POP PUSH2 0x451C SWAP1 DUP7 PUSH2 0x410F JUMP JUMPDEST PUSH1 0x2 DUP5 ADD SSTORE PUSH2 0x452B DUP2 DUP4 PUSH2 0x3D6C JUMP JUMPDEST SWAP7 SWAP6 POP POP POP POP POP POP JUMP JUMPDEST PUSH1 0x0 DUP1 DUP3 GT PUSH2 0x458B JUMPI PUSH1 0x40 DUP1 MLOAD PUSH3 0x461BCD PUSH1 0xE5 SHL DUP2 MSTORE PUSH1 0x20 PUSH1 0x4 DUP3 ADD MSTORE PUSH1 0x1A PUSH1 0x24 DUP3 ADD MSTORE PUSH32 0x536166654D6174683A206469766973696F6E206279207A65726F000000000000 PUSH1 0x44 DUP3 ADD MSTORE SWAP1 MLOAD SWAP1 DUP2 SWAP1 SUB PUSH1 0x64 ADD SWAP1 REVERT JUMPDEST DUP2 DUP4 DUP2 PUSH2 0x4594 JUMPI INVALID JUMPDEST DIV SWAP4 SWAP3 POP POP POP JUMP JUMPDEST PUSH1 0x0 DUP2 DUP4 LT PUSH2 0x45AB JUMPI DUP2 PUSH2 0x34A6 JUMP JUMPDEST POP SWAP1 SWAP2 SWAP1 POP JUMP JUMPDEST PUSH1 0x0 PUSH2 0x45BD ADDRESS PUSH2 0x4A09 JUMP JUMPDEST ISZERO SWAP1 POP SWAP1 JUMP JUMPDEST PUSH1 0x0 SLOAD PUSH2 0x100 SWAP1 DIV PUSH1 0xFF AND DUP1 PUSH2 0x45DC JUMPI POP PUSH2 0x45DC PUSH2 0x45B2 JUMP JUMPDEST DUP1 PUSH2 0x45EA JUMPI POP PUSH1 0x0 SLOAD PUSH1 0xFF AND ISZERO JUMPDEST PUSH2 0x4625 JUMPI PUSH1 0x40 MLOAD PUSH3 0x461BCD PUSH1 0xE5 SHL DUP2 MSTORE PUSH1 0x4 ADD DUP1 DUP1 PUSH1 0x20 ADD DUP3 DUP2 SUB DUP3 MSTORE PUSH1 0x2E DUP2 MSTORE PUSH1 0x20 ADD DUP1 PUSH2 0x4E33 PUSH1 0x2E SWAP2 CODECOPY PUSH1 0x40 ADD SWAP2 POP POP PUSH1 0x40 MLOAD DUP1 SWAP2 SUB SWAP1 REVERT JUMPDEST PUSH1 0x0 SLOAD PUSH2 0x100 SWAP1 DIV PUSH1 0xFF AND ISZERO DUP1 ISZERO PUSH2 0x4650 JUMPI PUSH1 0x0 DUP1 SLOAD PUSH1 0xFF NOT PUSH2 0xFF00 NOT SWAP1 SWAP2 AND PUSH2 0x100 OR AND PUSH1 0x1 OR SWAP1 SSTORE JUMPDEST PUSH1 0x0 DUP1 SLOAD PUSH3 0x10000 PUSH1 0x1 PUSH1 0xB0 SHL SUB NOT AND CALLER PUSH3 0x10000 DUP2 MUL SWAP2 SWAP1 SWAP2 OR SWAP1 SWAP2 SSTORE PUSH1 0x1 DUP1 SLOAD PUSH1 0x1 PUSH1 0x1 PUSH1 0xA0 SHL SUB NOT AND SWAP1 SSTORE PUSH1 0x40 DUP1 MLOAD SWAP2 DUP3 MSTORE MLOAD PUSH32 0xBCE074C8369E26E70E1AE2F14FC944DA352CFE6F52E2DE9572F0C9942A24B7FC SWAP2 PUSH1 0x20 SWAP1 DUP3 SWAP1 SUB ADD SWAP1 LOG1 DUP1 ISZERO PUSH2 0x46C3 JUMPI PUSH1 0x0 DUP1 SLOAD PUSH2 0xFF00 NOT AND SWAP1 SSTORE JUMPDEST POP JUMP JUMPDEST PUSH1 0x60 PUSH2 0x471B DUP3 PUSH1 0x40 MLOAD DUP1 PUSH1 0x40 ADD PUSH1 0x40 MSTORE DUP1 PUSH1 0x20 DUP2 MSTORE PUSH1 0x20 ADD PUSH32 0x5361666545524332303A206C6F772D6C6576656C2063616C6C206661696C6564 DUP2 MSTORE POP DUP6 PUSH1 0x1 PUSH1 0x1 PUSH1 0xA0 SHL SUB AND PUSH2 0x4A0F SWAP1 SWAP3 SWAP2 SWAP1 PUSH4 0xFFFFFFFF AND JUMP JUMPDEST DUP1 MLOAD SWAP1 SWAP2 POP ISZERO PUSH2 0x3941 JUMPI DUP1 DUP1 PUSH1 0x20 ADD SWAP1 MLOAD PUSH1 0x20 DUP2 LT ISZERO PUSH2 0x473A JUMPI PUSH1 0x0 DUP1 REVERT JUMPDEST POP MLOAD PUSH2 0x3941 JUMPI PUSH1 0x40 MLOAD PUSH3 0x461BCD PUSH1 0xE5 SHL DUP2 MSTORE PUSH1 0x4 ADD DUP1 DUP1 PUSH1 0x20 ADD DUP3 DUP2 SUB DUP3 MSTORE PUSH1 0x2A DUP2 MSTORE PUSH1 0x20 ADD DUP1 PUSH2 0x4EEA PUSH1 0x2A SWAP2 CODECOPY PUSH1 0x40 ADD SWAP2 POP POP PUSH1 0x40 MLOAD DUP1 SWAP2 SUB SWAP1 REVERT JUMPDEST PUSH1 0x0 DUP1 DUP4 PUSH1 0x1 PUSH1 0x1 PUSH1 0xA0 SHL SUB AND PUSH4 0x70A08231 ADDRESS PUSH1 0x40 MLOAD DUP3 PUSH4 0xFFFFFFFF AND PUSH1 0xE0 SHL DUP2 MSTORE PUSH1 0x4 ADD DUP1 DUP3 PUSH1 0x1 PUSH1 0x1 PUSH1 0xA0 SHL SUB AND DUP2 MSTORE PUSH1 0x20 ADD SWAP2 POP POP PUSH1 0x20 PUSH1 0x40 MLOAD DUP1 DUP4 SUB DUP2 DUP7 DUP1 EXTCODESIZE ISZERO DUP1 ISZERO PUSH2 0x47C7 JUMPI PUSH1 0x0 DUP1 REVERT JUMPDEST POP GAS STATICCALL ISZERO DUP1 ISZERO PUSH2 0x47DB JUMPI RETURNDATASIZE PUSH1 0x0 DUP1 RETURNDATACOPY RETURNDATASIZE PUSH1 0x0 REVERT JUMPDEST POP POP POP POP PUSH1 0x40 MLOAD RETURNDATASIZE PUSH1 0x20 DUP2 LT ISZERO PUSH2 0x47F1 JUMPI PUSH1 0x0 DUP1 REVERT JUMPDEST POP MLOAD SWAP1 POP PUSH2 0x480A PUSH1 0x1 PUSH1 0x1 PUSH1 0xA0 SHL SUB DUP6 AND CALLER ADDRESS DUP7 PUSH2 0x427C JUMP JUMPDEST PUSH1 0x0 DUP5 PUSH1 0x1 PUSH1 0x1 PUSH1 0xA0 SHL SUB AND PUSH4 0x70A08231 ADDRESS PUSH1 0x40 MLOAD DUP3 PUSH4 0xFFFFFFFF AND PUSH1 0xE0 SHL DUP2 MSTORE PUSH1 0x4 ADD DUP1 DUP3 PUSH1 0x1 PUSH1 0x1 PUSH1 0xA0 SHL SUB AND DUP2 MSTORE PUSH1 0x20 ADD SWAP2 POP POP PUSH1 0x20 PUSH1 0x40 MLOAD DUP1 DUP4 SUB DUP2 DUP7 DUP1 EXTCODESIZE ISZERO DUP1 ISZERO PUSH2 0x4859 JUMPI PUSH1 0x0 DUP1 REVERT JUMPDEST POP GAS STATICCALL ISZERO DUP1 ISZERO PUSH2 0x486D JUMPI RETURNDATASIZE PUSH1 0x0 DUP1 RETURNDATACOPY RETURNDATASIZE PUSH1 0x0 REVERT JUMPDEST POP POP POP POP PUSH1 0x40 MLOAD RETURNDATASIZE PUSH1 0x20 DUP2 LT ISZERO PUSH2 0x4883 JUMPI PUSH1 0x0 DUP1 REVERT JUMPDEST POP MLOAD SWAP1 POP PUSH2 0x4891 DUP2 DUP4 PUSH2 0x3D6C JUMP JUMPDEST SWAP6 SWAP5 POP POP POP POP POP JUMP JUMPDEST PUSH1 0x1 PUSH1 0x1 PUSH1 0xA0 SHL SUB DUP1 DUP4 AND PUSH1 0x0 SWAP1 DUP2 MSTORE PUSH1 0x8C PUSH1 0x20 SWAP1 DUP2 MSTORE PUSH1 0x40 DUP1 DUP4 KECCAK256 DUP1 SLOAD PUSH1 0x2 DUP3 ADD SLOAD DUP4 MLOAD PUSH4 0x73A9381 PUSH1 0xE1 SHL DUP2 MSTORE PUSH1 0x4 DUP2 ADD DUP10 SWAP1 MSTORE SWAP4 MLOAD SWAP6 SWAP7 SWAP3 SWAP6 PUSH3 0x10000 SWAP1 SWAP3 DIV SWAP1 SWAP3 AND SWAP4 SWAP2 SWAP3 DUP5 SWAP3 PUSH4 0xE752702 SWAP3 PUSH1 0x24 DUP1 DUP5 ADD SWAP4 DUP3 SWAP1 SUB ADD DUP2 DUP11 DUP8 DUP1 EXTCODESIZE ISZERO DUP1 ISZERO PUSH2 0x4906 JUMPI PUSH1 0x0 DUP1 REVERT JUMPDEST POP GAS CALL ISZERO DUP1 ISZERO PUSH2 0x491A JUMPI RETURNDATASIZE PUSH1 0x0 DUP1 RETURNDATACOPY RETURNDATASIZE PUSH1 0x0 REVERT JUMPDEST POP POP POP POP PUSH1 0x40 MLOAD RETURNDATASIZE PUSH1 0x20 DUP2 LT ISZERO PUSH2 0x4930 JUMPI PUSH1 0x0 DUP1 REVERT JUMPDEST POP MLOAD ISZERO PUSH2 0x4970 JUMPI PUSH1 0x40 DUP1 MLOAD PUSH3 0x461BCD PUSH1 0xE5 SHL DUP2 MSTORE PUSH1 0x20 PUSH1 0x4 DUP3 ADD MSTORE PUSH1 0x9 PUSH1 0x24 DUP3 ADD MSTORE PUSH9 0x626164207265706179 PUSH1 0xB8 SHL PUSH1 0x44 DUP3 ADD MSTORE SWAP1 MLOAD SWAP1 DUP2 SWAP1 SUB PUSH1 0x64 ADD SWAP1 REVERT JUMPDEST PUSH1 0x0 DUP3 PUSH1 0x1 PUSH1 0x1 PUSH1 0xA0 SHL SUB AND PUSH4 0x95DD9193 ADDRESS PUSH1 0x40 MLOAD DUP3 PUSH4 0xFFFFFFFF AND PUSH1 0xE0 SHL DUP2 MSTORE PUSH1 0x4 ADD DUP1 DUP3 PUSH1 0x1 PUSH1 0x1 PUSH1 0xA0 SHL SUB AND DUP2 MSTORE PUSH1 0x20 ADD SWAP2 POP POP PUSH1 0x20 PUSH1 0x40 MLOAD DUP1 DUP4 SUB DUP2 DUP7 DUP1 EXTCODESIZE ISZERO DUP1 ISZERO PUSH2 0x49BF JUMPI PUSH1 0x0 DUP1 REVERT JUMPDEST POP GAS STATICCALL ISZERO DUP1 ISZERO PUSH2 0x49D3 JUMPI RETURNDATASIZE PUSH1 0x0 DUP1 RETURNDATACOPY RETURNDATASIZE PUSH1 0x0 REVERT JUMPDEST POP POP POP POP PUSH1 0x40 MLOAD RETURNDATASIZE PUSH1 0x20 DUP2 LT ISZERO PUSH2 0x49E9 JUMPI PUSH1 0x0 DUP1 REVERT JUMPDEST POP MLOAD PUSH1 0x2 DUP6 ADD DUP2 SWAP1 SSTORE SWAP1 POP PUSH2 0x49FE DUP3 DUP3 PUSH2 0x3D6C JUMP JUMPDEST SWAP8 SWAP7 POP POP POP POP POP POP POP JUMP JUMPDEST EXTCODESIZE ISZERO ISZERO SWAP1 JUMP JUMPDEST PUSH1 0x60 PUSH2 0x4A1E DUP5 DUP5 PUSH1 0x0 DUP6 PUSH2 0x4A26 JUMP JUMPDEST SWAP5 SWAP4 POP POP POP POP JUMP JUMPDEST PUSH1 0x60 DUP3 SELFBALANCE LT ISZERO PUSH2 0x4A67 JUMPI PUSH1 0x40 MLOAD PUSH3 0x461BCD PUSH1 0xE5 SHL DUP2 MSTORE PUSH1 0x4 ADD DUP1 DUP1 PUSH1 0x20 ADD DUP3 DUP2 SUB DUP3 MSTORE PUSH1 0x26 DUP2 MSTORE PUSH1 0x20 ADD DUP1 PUSH2 0x4E0D PUSH1 0x26 SWAP2 CODECOPY PUSH1 0x40 ADD SWAP2 POP POP PUSH1 0x40 MLOAD DUP1 SWAP2 SUB SWAP1 REVERT JUMPDEST PUSH2 0x4A70 DUP6 PUSH2 0x4A09 JUMP JUMPDEST PUSH2 0x4AC1 JUMPI PUSH1 0x40 DUP1 MLOAD PUSH3 0x461BCD PUSH1 0xE5 SHL DUP2 MSTORE PUSH1 0x20 PUSH1 0x4 DUP3 ADD MSTORE PUSH1 0x1D PUSH1 0x24 DUP3 ADD MSTORE PUSH32 0x416464726573733A2063616C6C20746F206E6F6E2D636F6E7472616374000000 PUSH1 0x44 DUP3 ADD MSTORE SWAP1 MLOAD SWAP1 DUP2 SWAP1 SUB PUSH1 0x64 ADD SWAP1 REVERT JUMPDEST PUSH1 0x0 PUSH1 0x60 DUP7 PUSH1 0x1 PUSH1 0x1 PUSH1 0xA0 SHL SUB AND DUP6 DUP8 PUSH1 0x40 MLOAD DUP1 DUP3 DUP1 MLOAD SWAP1 PUSH1 0x20 ADD SWAP1 DUP1 DUP4 DUP4 JUMPDEST PUSH1 0x20 DUP4 LT PUSH2 0x4B00 JUMPI DUP1 MLOAD DUP3 MSTORE PUSH1 0x1F NOT SWAP1 SWAP3 ADD SWAP2 PUSH1 0x20 SWAP2 DUP3 ADD SWAP2 ADD PUSH2 0x4AE1 JUMP JUMPDEST PUSH1 0x1 DUP4 PUSH1 0x20 SUB PUSH2 0x100 EXP SUB DUP1 NOT DUP3 MLOAD AND DUP2 DUP5 MLOAD AND DUP1 DUP3 OR DUP6 MSTORE POP POP POP POP POP POP SWAP1 POP ADD SWAP2 POP POP PUSH1 0x0 PUSH1 0x40 MLOAD DUP1 DUP4 SUB DUP2 DUP6 DUP8 GAS CALL SWAP3 POP POP POP RETURNDATASIZE DUP1 PUSH1 0x0 DUP2 EQ PUSH2 0x4B62 JUMPI PUSH1 0x40 MLOAD SWAP2 POP PUSH1 0x1F NOT PUSH1 0x3F RETURNDATASIZE ADD AND DUP3 ADD PUSH1 0x40 MSTORE RETURNDATASIZE DUP3 MSTORE RETURNDATASIZE PUSH1 0x0 PUSH1 0x20 DUP5 ADD RETURNDATACOPY PUSH2 0x4B67 JUMP JUMPDEST PUSH1 0x60 SWAP2 POP JUMPDEST POP SWAP2 POP SWAP2 POP PUSH2 0x49FE DUP3 DUP3 DUP7 PUSH1 0x60 DUP4 ISZERO PUSH2 0x4B81 JUMPI POP DUP2 PUSH2 0x4108 JUMP JUMPDEST DUP3 MLOAD ISZERO PUSH2 0x4B91 JUMPI DUP3 MLOAD DUP1 DUP5 PUSH1 0x20 ADD REVERT JUMPDEST DUP2 PUSH1 0x40 MLOAD PUSH3 0x461BCD PUSH1 0xE5 SHL DUP2 MSTORE PUSH1 0x4 ADD DUP1 DUP1 PUSH1 0x20 ADD DUP3 DUP2 SUB DUP3 MSTORE DUP4 DUP2 DUP2 MLOAD DUP2 MSTORE PUSH1 0x20 ADD SWAP2 POP DUP1 MLOAD SWAP1 PUSH1 0x20 ADD SWAP1 DUP1 DUP4 DUP4 PUSH1 0x0 JUMPDEST DUP4 DUP2 LT ISZERO PUSH2 0x4BDB JUMPI DUP2 DUP2 ADD MLOAD DUP4 DUP3 ADD MSTORE PUSH1 0x20 ADD PUSH2 0x4BC3 JUMP JUMPDEST POP POP POP POP SWAP1 POP SWAP1 DUP2 ADD SWAP1 PUSH1 0x1F AND DUP1 ISZERO PUSH2 0x4C08 JUMPI DUP1 DUP3 SUB DUP1 MLOAD PUSH1 0x1 DUP4 PUSH1 0x20 SUB PUSH2 0x100 EXP SUB NOT AND DUP2 MSTORE PUSH1 0x20 ADD SWAP2 POP JUMPDEST POP SWAP3 POP POP POP PUSH1 0x40 MLOAD DUP1 SWAP2 SUB SWAP1 REVERT JUMPDEST PUSH2 0x1C0 DUP1 PUSH2 0x4C24 DUP4 CODECOPY ADD SWAP1 JUMP INVALID PUSH1 0x80 PUSH1 0x40 MSTORE CALLVALUE DUP1 ISZERO PUSH2 0x10 JUMPI PUSH1 0x0 DUP1 REVERT JUMPDEST POP PUSH2 0x1A0 DUP1 PUSH2 0x20 PUSH1 0x0 CODECOPY PUSH1 0x0 RETURN INVALID PUSH1 0x80 PUSH1 0x40 MSTORE PUSH1 0x4 CALLDATASIZE LT PUSH2 0x1E JUMPI PUSH1 0x0 CALLDATALOAD PUSH1 0xE0 SHR DUP1 PUSH4 0xBE2A1F79 EQ PUSH2 0x23 JUMPI JUMPDEST PUSH1 0x0 DUP1 REVERT JUMPDEST PUSH2 0xA3 PUSH1 0x4 DUP1 CALLDATASIZE SUB PUSH1 0x40 DUP2 LT ISZERO PUSH2 0x39 JUMPI PUSH1 0x0 DUP1 REVERT JUMPDEST PUSH1 0x1 PUSH1 0x1 PUSH1 0xA0 SHL SUB DUP3 CALLDATALOAD AND SWAP2 SWAP1 DUP2 ADD SWAP1 PUSH1 0x40 DUP2 ADD PUSH1 0x20 DUP3 ADD CALLDATALOAD PUSH5 0x100000000 DUP2 GT ISZERO PUSH2 0x64 JUMPI PUSH1 0x0 DUP1 REVERT JUMPDEST DUP3 ADD DUP4 PUSH1 0x20 DUP3 ADD GT ISZERO PUSH2 0x76 JUMPI PUSH1 0x0 DUP1 REVERT JUMPDEST DUP1 CALLDATALOAD SWAP1 PUSH1 0x20 ADD SWAP2 DUP5 PUSH1 0x1 DUP4 MUL DUP5 ADD GT PUSH5 0x100000000 DUP4 GT OR ISZERO PUSH2 0x98 JUMPI PUSH1 0x0 DUP1 REVERT JUMPDEST POP SWAP1 SWAP3 POP SWAP1 POP PUSH2 0xA5 JUMP JUMPDEST STOP JUMPDEST PUSH1 0x0 PUSH1 0x60 DUP5 PUSH1 0x1 PUSH1 0x1 PUSH1 0xA0 SHL SUB AND CALLVALUE DUP6 DUP6 PUSH1 0x40 MLOAD DUP1 DUP4 DUP4 DUP1 DUP3 DUP5 CALLDATACOPY PUSH1 0x40 MLOAD SWAP3 ADD SWAP5 POP PUSH1 0x0 SWAP4 POP SWAP1 SWAP2 POP POP DUP1 DUP4 SUB DUP2 DUP6 DUP8 GAS CALL SWAP3 POP POP POP RETURNDATASIZE DUP1 PUSH1 0x0 DUP2 EQ PUSH2 0x107 JUMPI PUSH1 0x40 MLOAD SWAP2 POP PUSH1 0x1F NOT PUSH1 0x3F RETURNDATASIZE ADD AND DUP3 ADD PUSH1 0x40 MSTORE RETURNDATASIZE DUP3 MSTORE RETURNDATASIZE PUSH1 0x0 PUSH1 0x20 DUP5 ADD RETURNDATACOPY PUSH2 0x10C JUMP JUMPDEST PUSH1 0x60 SWAP2 POP JUMPDEST POP SWAP2 POP SWAP2 POP DUP2 PUSH2 0x163 JUMPI DUP1 MLOAD ISZERO PUSH2 0x126 JUMPI DUP1 MLOAD DUP1 DUP3 PUSH1 0x20 ADD REVERT JUMPDEST PUSH1 0x40 DUP1 MLOAD PUSH3 0x461BCD PUSH1 0xE5 SHL DUP2 MSTORE PUSH1 0x20 PUSH1 0x4 DUP3 ADD MSTORE PUSH1 0xD PUSH1 0x24 DUP3 ADD MSTORE PUSH13 0x1898590818D85CDD0818D85B1B PUSH1 0x9A SHL PUSH1 0x44 DUP3 ADD MSTORE SWAP1 MLOAD SWAP1 DUP2 SWAP1 SUB PUSH1 0x64 ADD SWAP1 REVERT JUMPDEST POP POP POP POP POP JUMP INVALID LOG2 PUSH5 0x6970667358 0x22 SLT KECCAK256 KECCAK256 0x1F SWAP5 PUSH30 0x409605DCA0717C413610EC0A7C7FB979BD98A5C57ABDC4E7DFCFF97F6473 PUSH16 0x6C634300060C0033616E6F7468657220 PUSH21 0x797065206F6620636F6C6C61746572616C20616C72 PUSH6 0x616479206578 PUSH10 0x73747341646472657373 GASPRICE KECCAK256 PUSH10 0x6E73756666696369656E PUSH21 0x2062616C616E636520666F722063616C6C496E6974 PUSH10 0x616C697A61626C653A20 PUSH4 0x6F6E7472 PUSH2 0x6374 KECCAK256 PUSH10 0x7320616C726561647920 PUSH10 0x6E697469616C697A6564 MSTORE8 PUSH2 0x6665 0x4D PUSH2 0x7468 GASPRICE KECCAK256 PUSH14 0x756C7469706C69636174696F6E20 PUSH16 0x766572666C6F77757365727320262073 PUSH21 0x617475736573206C656E677468206D69736D617463 PUSH9 0x65647370656C6C7320 0x26 KECCAK256 PUSH20 0x74617475736573206C656E677468206D69736D61 PUSH21 0x63686564746F6B656E732026207374617475736573 KECCAK256 PUSH13 0x656E677468206D69736D617463 PUSH9 0x656453616665455243 ORIGIN ADDRESS GASPRICE KECCAK256 GASLIMIT MSTORE NUMBER ORIGIN ADDRESS KECCAK256 PUSH16 0x7065726174696F6E20646964206E6F74 KECCAK256 PUSH20 0x7563636565645361666545524332303A20617070 PUSH19 0x6F76652066726F6D206E6F6E2D7A65726F2074 PUSH16 0x206E6F6E2D7A65726F20616C6C6F7761 PUSH15 0x6365A264697066735822122067146D DUP13 0xC3 MUL 0x22 DUP4 SWAP2 PUSH1 0xC5 0xBC 0x29 0x2A PUSH4 0x2D9C93D6 0x27 0xBC PUSH32 0xDA34A1BD35F6324B76EB64736F6C634300060C00330000000000000000000000 ",
  "sha1": "497188d553908895ca6eb4cfd460cda2871f119e",
  "source": "// SPDX-License-Identifier: MIT\n\npragma solidity 0.6.12;\n\nimport 'OpenZeppelin/openzeppelin-contracts@3.4.0/contracts/token/ERC20/IERC20.sol';\nimport 'OpenZeppelin/openzeppelin-contracts@3.4.0/contracts/token/ERC20/SafeERC20.sol';\nimport 'OpenZeppelin/openzeppelin-contracts@3.4.0/contracts/token/ERC1155/IERC1155.sol';\nimport 'OpenZeppelin/openzeppelin-contracts@3.4.0/contracts/math/SafeMath.sol';\nimport 'OpenZeppelin/openzeppelin-contracts@3.4.0/contracts/math/Math.sol';\n\nimport './Governable.sol';\nimport './utils/ERC1155NaiveReceiver.sol';\nimport '../interfaces/IBank.sol';\nimport '../interfaces/ICErc20.sol';\nimport '../interfaces/IOracle.sol';\n\nlibrary HomoraSafeMath {\n  using SafeMath for uint;\n\n  /// @dev Computes round-up division.\n  function ceilDiv(uint a, uint b) internal pure returns (uint) {\n    return a.add(b).sub(1).div(b);\n  }\n}\n\ncontract HomoraCaster {\n  /// @dev Call to the target using the given data.\n  /// @param target The address target to call.\n  /// @param data The data used in the call.\n  function cast(address target, bytes calldata data) external payable {\n    (bool ok, bytes memory returndata) = target.call{value: msg.value}(data);\n    if (!ok) {\n      if (returndata.length > 0) {\n        // The easiest way to bubble the revert reason is using memory via assembly\n        // solhint-disable-next-line no-inline-assembly\n        assembly {\n          let returndata_size := mload(returndata)\n          revert(add(32, returndata), returndata_size)\n        }\n      } else {\n        revert('bad cast call');\n      }\n    }\n  }\n}\n\ncontract HomoraBank is Governable, ERC1155NaiveReceiver, IBank {\n  using SafeMath for uint;\n  using HomoraSafeMath for uint;\n  using SafeERC20 for IERC20;\n\n  uint private constant _NOT_ENTERED = 1;\n  uint private constant _ENTERED = 2;\n  uint private constant _NO_ID = uint(-1);\n  address private constant _NO_ADDRESS = address(1);\n\n  struct Bank {\n    bool isListed; // Whether this market exists.\n    uint8 index; // Reverse look up index for this bank.\n    address cToken; // The CToken to draw liquidity from.\n    uint reserve; // The reserve portion allocated to Homora protocol.\n    uint totalDebt; // The last recorded total debt since last action.\n    uint totalShare; // The total debt share count across all open positions.\n  }\n\n  struct Position {\n    address owner; // The owner of this position.\n    address collToken; // The ERC1155 token used as collateral for this position.\n    uint collId; // The token id used as collateral.\n    uint collateralSize; // The size of collateral token for this position.\n    uint debtMap; // Bitmap of nonzero debt. i^th bit is set iff debt share of i^th bank is nonzero.\n    mapping(address => uint) debtShareOf; // The debt share for each token.\n  }\n\n  uint public _GENERAL_LOCK; // TEMPORARY: re-entrancy lock guard.\n  uint public _IN_EXEC_LOCK; // TEMPORARY: exec lock guard.\n  uint public override POSITION_ID; // TEMPORARY: position ID currently under execution.\n  address public override SPELL; // TEMPORARY: spell currently under execution.\n\n  address public caster; // The caster address for untrusted execution.\n  IOracle public oracle; // The oracle address for determining prices.\n  uint public feeBps; // The fee collected as protocol reserve in basis points from interest.\n  uint public override nextPositionId; // Next available position ID, starting from 1 (see initialize).\n\n  address[] public allBanks; // The list of all listed banks.\n  mapping(address => Bank) public banks; // Mapping from token to bank data.\n  mapping(address => bool) public cTokenInBank; // Mapping from cToken to its existence in bank.\n  mapping(uint => Position) public positions; // Mapping from position ID to position data.\n\n  bool public allowContractCalls; // The boolean status whether to allow call from contract (false = onlyEOA)\n  mapping(address => bool) public whitelistedTokens; // Mapping from token to whitelist status\n  mapping(address => bool) public whitelistedSpells; // Mapping from spell to whitelist status\n  mapping(address => bool) public whitelistedUsers; // Mapping from user to whitelist status\n\n  uint public bankStatus; // Each bit stores certain bank status, e.g. borrow allowed, repay allowed\n  address public exec; // Exec address.\n\n  /// @dev Ensure that the function is called from EOA when allowContractCalls is set to false and caller is not whitelisted\n  modifier onlyEOAEx() {\n    if (!allowContractCalls && !whitelistedUsers[msg.sender]) {\n      require(msg.sender == tx.origin, 'not eoa');\n    }\n    _;\n  }\n\n  /// @dev Ensure that the function is called from executive team\n  modifier onlyExec() {\n    require(msg.sender == exec, 'not exec');\n    _;\n  }\n\n  /// @dev Reentrancy lock guard.\n  modifier lock() {\n    require(_GENERAL_LOCK == _NOT_ENTERED, 'general lock');\n    _GENERAL_LOCK = _ENTERED;\n    _;\n    _GENERAL_LOCK = _NOT_ENTERED;\n  }\n\n  /// @dev Ensure that the function is called from within the execution scope.\n  modifier inExec() {\n    require(POSITION_ID != _NO_ID, 'not within execution');\n    require(SPELL == msg.sender, 'not from spell');\n    require(_IN_EXEC_LOCK == _NOT_ENTERED, 'in exec lock');\n    _IN_EXEC_LOCK = _ENTERED;\n    _;\n    _IN_EXEC_LOCK = _NOT_ENTERED;\n  }\n\n  /// @dev Ensure that the interest rate of the given token is accrued.\n  modifier poke(address token) {\n    accrue(token);\n    _;\n  }\n\n  /// @dev Initialize the bank smart contract, using msg.sender as the first governor.\n  /// @param _oracle The oracle smart contract address.\n  /// @param _feeBps The fee collected to Homora bank.\n  function initialize(IOracle _oracle, uint _feeBps) external initializer {\n    __Governable__init();\n    _GENERAL_LOCK = _NOT_ENTERED;\n    _IN_EXEC_LOCK = _NOT_ENTERED;\n    POSITION_ID = _NO_ID;\n    SPELL = _NO_ADDRESS;\n    caster = address(new HomoraCaster());\n    oracle = _oracle;\n    require(address(_oracle) != address(0), 'bad oracle address');\n    feeBps = _feeBps;\n    nextPositionId = 1;\n    bankStatus = 3; // allow both borrow and repay\n    emit SetOracle(address(_oracle));\n    emit SetFeeBps(_feeBps);\n  }\n\n  /// @dev Return the current executor (the owner of the current position).\n  function EXECUTOR() external view override returns (address) {\n    uint positionId = POSITION_ID;\n    require(positionId != _NO_ID, 'not under execution');\n    return positions[positionId].owner;\n  }\n\n  /// @dev Set allowContractCalls\n  /// @param ok The status to set allowContractCalls to (false = onlyEOA)\n  function setAllowContractCalls(bool ok) external onlyExec {\n    allowContractCalls = ok;\n  }\n\n  /// @dev Set whitelist spell status\n  /// @param spells list of spells to change status\n  /// @param statuses list of statuses to change to\n  function setWhitelistSpells(address[] calldata spells, bool[] calldata statuses)\n    external\n    onlyGov\n  {\n    require(spells.length == statuses.length, 'spells & statuses length mismatched');\n    for (uint idx = 0; idx < spells.length; idx++) {\n      whitelistedSpells[spells[idx]] = statuses[idx];\n    }\n  }\n\n  /// @dev Set whitelist token status\n  /// @param tokens list of tokens to change status\n  /// @param statuses list of statuses to change to\n  function setWhitelistTokens(address[] calldata tokens, bool[] calldata statuses)\n    external\n    onlyGov\n  {\n    require(tokens.length == statuses.length, 'tokens & statuses length mismatched');\n    for (uint idx = 0; idx < tokens.length; idx++) {\n      if (statuses[idx]) {\n        // check oracle suppport\n        require(support(tokens[idx]), 'oracle not support token');\n      }\n      whitelistedTokens[tokens[idx]] = statuses[idx];\n    }\n  }\n\n  /// @dev Set whitelist user status\n  /// @param users list of users to change status\n  /// @param statuses list of statuses to change to\n  function setWhitelistUsers(address[] calldata users, bool[] calldata statuses) external onlyGov {\n    require(users.length == statuses.length, 'users & statuses length mismatched');\n    for (uint idx = 0; idx < users.length; idx++) {\n      whitelistedUsers[users[idx]] = statuses[idx];\n    }\n  }\n\n  /// @dev Set exec\n  /// @param _exec exec address\n  function setExec(address _exec) external onlyGov {\n    exec = _exec;\n    emit SetExec(_exec);\n  }\n\n  /// @dev Check whether the oracle supports the token\n  /// @param token ERC-20 token to check for support\n  function support(address token) public view override returns (bool) {\n    return oracle.support(token);\n  }\n\n  /// @dev Set bank status\n  /// @param _bankStatus new bank status to change to\n  function setBankStatus(uint _bankStatus) external onlyGov {\n    bankStatus = _bankStatus;\n  }\n\n  /// @dev Bank borrow status allowed or not\n  /// @notice check last bit of bankStatus\n  function allowBorrowStatus() public view returns (bool) {\n    return (bankStatus & 0x01) > 0;\n  }\n\n  /// @dev Bank repay status allowed or not\n  /// @notice Check second-to-last bit of bankStatus\n  function allowRepayStatus() public view returns (bool) {\n    return (bankStatus & 0x02) > 0;\n  }\n\n  /// @dev Trigger interest accrual for the given bank.\n  /// @param token The underlying token to trigger the interest accrual.\n  function accrue(address token) public override {\n    Bank storage bank = banks[token];\n    require(bank.isListed, 'bank not exist');\n    uint totalDebt = bank.totalDebt;\n    uint debt = ICErc20(bank.cToken).borrowBalanceCurrent(address(this));\n    if (debt > totalDebt) {\n      uint fee = debt.sub(totalDebt).mul(feeBps).div(10000);\n      bank.totalDebt = debt;\n      bank.reserve = bank.reserve.add(doBorrow(token, fee));\n    } else if (totalDebt != debt) {\n      // We should never reach here because CREAMv2 does not support *repayBorrowBehalf*\n      // functionality. We set bank.totalDebt = debt nonetheless to ensure consistency. But do\n      // note that if *repayBorrowBehalf* exists, an attacker can maliciously deflate debt\n      // share value and potentially make this contract stop working due to math overflow.\n      bank.totalDebt = debt;\n    }\n  }\n\n  /// @dev Convenient function to trigger interest accrual for a list of banks.\n  /// @param tokens The list of banks to trigger interest accrual.\n  function accrueAll(address[] memory tokens) external {\n    for (uint idx = 0; idx < tokens.length; idx++) {\n      accrue(tokens[idx]);\n    }\n  }\n\n  /// @dev Return the borrow balance for given position and token without triggering interest accrual.\n  /// @param positionId The position to query for borrow balance.\n  /// @param token The token to query for borrow balance.\n  function borrowBalanceStored(uint positionId, address token) public view override returns (uint) {\n    uint totalDebt = banks[token].totalDebt;\n    uint totalShare = banks[token].totalShare;\n    uint share = positions[positionId].debtShareOf[token];\n    if (share == 0 || totalDebt == 0) {\n      return 0;\n    } else {\n      return share.mul(totalDebt).ceilDiv(totalShare);\n    }\n  }\n\n  /// @dev Trigger interest accrual and return the current borrow balance.\n  /// @param positionId The position to query for borrow balance.\n  /// @param token The token to query for borrow balance.\n  function borrowBalanceCurrent(uint positionId, address token) external override returns (uint) {\n    accrue(token);\n    return borrowBalanceStored(positionId, token);\n  }\n\n  /// @dev Return bank information for the given token.\n  /// @param token The token address to query for bank information.\n  function getBankInfo(address token)\n    external\n    view\n    override\n    returns (\n      bool isListed,\n      address cToken,\n      uint reserve,\n      uint totalDebt,\n      uint totalShare\n    )\n  {\n    Bank storage bank = banks[token];\n    return (bank.isListed, bank.cToken, bank.reserve, bank.totalDebt, bank.totalShare);\n  }\n\n  /// @dev Return position information for the given position id.\n  /// @param positionId The position id to query for position information.\n  function getPositionInfo(uint positionId)\n    public\n    view\n    override\n    returns (\n      address owner,\n      address collToken,\n      uint collId,\n      uint collateralSize\n    )\n  {\n    Position storage pos = positions[positionId];\n    return (pos.owner, pos.collToken, pos.collId, pos.collateralSize);\n  }\n\n  /// @dev Return current position information\n  function getCurrentPositionInfo()\n    external\n    view\n    override\n    returns (\n      address owner,\n      address collToken,\n      uint collId,\n      uint collateralSize\n    )\n  {\n    require(POSITION_ID != _NO_ID, 'no id');\n    return getPositionInfo(POSITION_ID);\n  }\n\n  /// @dev Return the debt share of the given bank token for the given position id.\n  /// @param positionId position id to get debt of\n  /// @param token ERC20 debt token to query\n  function getPositionDebtShareOf(uint positionId, address token) external view returns (uint) {\n    return positions[positionId].debtShareOf[token];\n  }\n\n  /// @dev Return the list of all debts for the given position id.\n  /// @param positionId position id to get debts of\n  function getPositionDebts(uint positionId)\n    external\n    view\n    returns (address[] memory tokens, uint[] memory debts)\n  {\n    Position storage pos = positions[positionId];\n    uint count = 0;\n    uint bitMap = pos.debtMap;\n    while (bitMap > 0) {\n      if ((bitMap & 1) != 0) {\n        count++;\n      }\n      bitMap >>= 1;\n    }\n    tokens = new address[](count);\n    debts = new uint[](count);\n    bitMap = pos.debtMap;\n    count = 0;\n    uint idx = 0;\n    while (bitMap > 0) {\n      if ((bitMap & 1) != 0) {\n        address token = allBanks[idx];\n        Bank storage bank = banks[token];\n        tokens[count] = token;\n        debts[count] = pos.debtShareOf[token].mul(bank.totalDebt).ceilDiv(bank.totalShare);\n        count++;\n      }\n      idx++;\n      bitMap >>= 1;\n    }\n  }\n\n  /// @dev Return the total collateral value of the given position in ETH.\n  /// @param positionId The position ID to query for the collateral value.\n  function getCollateralETHValue(uint positionId) public view returns (uint) {\n    Position storage pos = positions[positionId];\n    uint size = pos.collateralSize;\n    if (size == 0) {\n      return 0;\n    } else {\n      require(pos.collToken != address(0), 'bad collateral token');\n      return oracle.asETHCollateral(pos.collToken, pos.collId, size, pos.owner);\n    }\n  }\n\n  /// @dev Return the total borrow value of the given position in ETH.\n  /// @param positionId The position ID to query for the borrow value.\n  function getBorrowETHValue(uint positionId) public view override returns (uint) {\n    uint value = 0;\n    Position storage pos = positions[positionId];\n    address owner = pos.owner;\n    uint bitMap = pos.debtMap;\n    uint idx = 0;\n    while (bitMap > 0) {\n      if ((bitMap & 1) != 0) {\n        address token = allBanks[idx];\n        uint share = pos.debtShareOf[token];\n        Bank storage bank = banks[token];\n        uint debt = share.mul(bank.totalDebt).ceilDiv(bank.totalShare);\n        value = value.add(oracle.asETHBorrow(token, debt, owner));\n      }\n      idx++;\n      bitMap >>= 1;\n    }\n    return value;\n  }\n\n  /// @dev Add a new bank to the ecosystem.\n  /// @param token The underlying token for the bank.\n  /// @param cToken The address of the cToken smart contract.\n  function addBank(address token, address cToken) external onlyGov {\n    Bank storage bank = banks[token];\n    require(!cTokenInBank[cToken], 'cToken already exists');\n    require(!bank.isListed, 'bank already exists');\n    cTokenInBank[cToken] = true;\n    bank.isListed = true;\n    require(allBanks.length < 256, 'reach bank limit');\n    bank.index = uint8(allBanks.length);\n    bank.cToken = cToken;\n    IERC20(token).safeApprove(cToken, 0);\n    IERC20(token).safeApprove(cToken, uint(-1));\n    allBanks.push(token);\n    emit AddBank(token, cToken);\n  }\n\n  /// @dev Set the oracle smart contract address.\n  /// @param _oracle The new oracle smart contract address.\n  function setOracle(IOracle _oracle) external onlyExec {\n    require(address(_oracle) != address(0), 'cannot set zero address oracle');\n    oracle = _oracle;\n    emit SetOracle(address(_oracle));\n  }\n\n  /// @dev Set the fee bps value that Homora bank charges.\n  /// @param _feeBps The new fee bps value.\n  function setFeeBps(uint _feeBps) external onlyExec {\n    require(_feeBps <= 10000, 'fee too high');\n    feeBps = _feeBps;\n    emit SetFeeBps(_feeBps);\n  }\n\n  /// @dev Withdraw the reserve portion of the bank.\n  /// @param amount The amount of tokens to withdraw.\n  function withdrawReserve(address token, uint amount) external onlyGov lock {\n    Bank storage bank = banks[token];\n    require(bank.isListed, 'bank not exist');\n    bank.reserve = bank.reserve.sub(amount);\n    IERC20(token).safeTransfer(msg.sender, amount);\n    emit WithdrawReserve(msg.sender, token, amount);\n  }\n\n  /// @dev Liquidate a position. Pay debt for its owner and take the collateral.\n  /// @param positionId The position ID to liquidate.\n  /// @param debtToken The debt token to repay.\n  /// @param amountCall The amount to repay when doing transferFrom call.\n  function liquidate(\n    uint positionId,\n    address debtToken,\n    uint amountCall\n  ) external override lock poke(debtToken) {\n    uint collateralValue = getCollateralETHValue(positionId);\n    uint borrowValue = getBorrowETHValue(positionId);\n    require(collateralValue < borrowValue, 'position still healthy');\n    Position storage pos = positions[positionId];\n    (uint amountPaid, uint share) = repayInternal(positionId, debtToken, amountCall);\n    require(pos.collToken != address(0), 'bad collateral token');\n    uint bounty = Math.min(\n      oracle.convertForLiquidation(debtToken, pos.collToken, pos.collId, amountPaid),\n      pos.collateralSize\n    );\n    pos.collateralSize = pos.collateralSize.sub(bounty);\n    IERC1155(pos.collToken).safeTransferFrom(address(this), msg.sender, pos.collId, bounty, '');\n    emit Liquidate(positionId, msg.sender, debtToken, amountPaid, share, bounty);\n  }\n\n  /// @dev Execute the action via HomoraCaster, calling its function with the supplied data.\n  /// @param positionId The position ID to execute the action, or zero for new position.\n  /// @param spell The target spell to invoke the execution via HomoraCaster.\n  /// @param data Extra data to pass to the target for the execution.\n  function execute(\n    uint positionId,\n    address spell,\n    bytes memory data\n  ) external payable lock onlyEOAEx returns (uint) {\n    require(whitelistedSpells[spell], 'spell not whitelisted');\n    if (positionId == 0) {\n      positionId = nextPositionId++;\n      positions[positionId].owner = msg.sender;\n    } else {\n      require(positionId < nextPositionId, 'position id not exists');\n      require(msg.sender == positions[positionId].owner, 'not position owner');\n    }\n    POSITION_ID = positionId;\n    SPELL = spell;\n    HomoraCaster(caster).cast{value: msg.value}(spell, data);\n    uint collateralValue = getCollateralETHValue(positionId);\n    uint borrowValue = getBorrowETHValue(positionId);\n    require(collateralValue >= borrowValue, 'insufficient collateral');\n    POSITION_ID = _NO_ID;\n    SPELL = _NO_ADDRESS;\n    return positionId;\n  }\n\n  /// @dev Borrow tokens from that bank. Must only be called while under execution.\n  /// @param token The token to borrow from the bank.\n  /// @param amount The amount of tokens to borrow.\n  function borrow(address token, uint amount) external override inExec poke(token) {\n    require(allowBorrowStatus(), 'borrow not allowed');\n    require(whitelistedTokens[token], 'token not whitelisted');\n    Bank storage bank = banks[token];\n    Position storage pos = positions[POSITION_ID];\n    uint totalShare = bank.totalShare;\n    uint totalDebt = bank.totalDebt;\n    uint share = totalShare == 0 ? amount : amount.mul(totalShare).ceilDiv(totalDebt);\n    bank.totalShare = bank.totalShare.add(share);\n    uint newShare = pos.debtShareOf[token].add(share);\n    pos.debtShareOf[token] = newShare;\n    if (newShare > 0) {\n      pos.debtMap |= (1 << uint(bank.index));\n    }\n    IERC20(token).safeTransfer(msg.sender, doBorrow(token, amount));\n    emit Borrow(POSITION_ID, msg.sender, token, amount, share);\n  }\n\n  /// @dev Repay tokens to the bank. Must only be called while under execution.\n  /// @param token The token to repay to the bank.\n  /// @param amountCall The amount of tokens to repay via transferFrom.\n  function repay(address token, uint amountCall) external override inExec poke(token) {\n    require(allowRepayStatus(), 'repay not allowed');\n    require(whitelistedTokens[token], 'token not whitelisted');\n    (uint amount, uint share) = repayInternal(POSITION_ID, token, amountCall);\n    emit Repay(POSITION_ID, msg.sender, token, amount, share);\n  }\n\n  /// @dev Perform repay action. Return the amount actually taken and the debt share reduced.\n  /// @param positionId The position ID to repay the debt.\n  /// @param token The bank token to pay the debt.\n  /// @param amountCall The amount to repay by calling transferFrom, or -1 for debt size.\n  function repayInternal(\n    uint positionId,\n    address token,\n    uint amountCall\n  ) internal returns (uint, uint) {\n    Bank storage bank = banks[token];\n    Position storage pos = positions[positionId];\n    uint totalShare = bank.totalShare;\n    uint totalDebt = bank.totalDebt;\n    uint oldShare = pos.debtShareOf[token];\n    uint oldDebt = oldShare.mul(totalDebt).ceilDiv(totalShare);\n    if (amountCall == uint(-1)) {\n      amountCall = oldDebt;\n    }\n    uint paid = doRepay(token, doERC20TransferIn(token, amountCall));\n    require(paid <= oldDebt, 'paid exceeds debt'); // prevent share overflow attack\n    uint lessShare = paid == oldDebt ? oldShare : paid.mul(totalShare).div(totalDebt);\n    bank.totalShare = totalShare.sub(lessShare);\n    uint newShare = oldShare.sub(lessShare);\n    pos.debtShareOf[token] = newShare;\n    if (newShare == 0) {\n      pos.debtMap &= ~(1 << uint(bank.index));\n    }\n    return (paid, lessShare);\n  }\n\n  /// @dev Transmit user assets to the caller, so users only need to approve Bank for spending.\n  /// @param token The token to transfer from user to the caller.\n  /// @param amount The amount to transfer.\n  function transmit(address token, uint amount) external override inExec {\n    Position storage pos = positions[POSITION_ID];\n    IERC20(token).safeTransferFrom(pos.owner, msg.sender, amount);\n  }\n\n  /// @dev Put more collateral for users. Must only be called during execution.\n  /// @param collToken The ERC1155 token to collateral.\n  /// @param collId The token id to collateral.\n  /// @param amountCall The amount of tokens to put via transferFrom.\n  function putCollateral(\n    address collToken,\n    uint collId,\n    uint amountCall\n  ) external override inExec {\n    Position storage pos = positions[POSITION_ID];\n    if (pos.collToken != collToken || pos.collId != collId) {\n      require(oracle.supportWrappedToken(collToken, collId), 'collateral not supported');\n      require(pos.collateralSize == 0, 'another type of collateral already exists');\n      pos.collToken = collToken;\n      pos.collId = collId;\n    }\n    uint amount = doERC1155TransferIn(collToken, collId, amountCall);\n    pos.collateralSize = pos.collateralSize.add(amount);\n    emit PutCollateral(POSITION_ID, msg.sender, collToken, collId, amount);\n  }\n\n  /// @dev Take some collateral back. Must only be called during execution.\n  /// @param collToken The ERC1155 token to take back.\n  /// @param collId The token id to take back.\n  /// @param amount The amount of tokens to take back via transfer.\n  function takeCollateral(\n    address collToken,\n    uint collId,\n    uint amount\n  ) external override inExec {\n    Position storage pos = positions[POSITION_ID];\n    require(collToken == pos.collToken, 'invalid collateral token');\n    require(collId == pos.collId, 'invalid collateral token');\n    if (amount == uint(-1)) {\n      amount = pos.collateralSize;\n    }\n    pos.collateralSize = pos.collateralSize.sub(amount);\n    IERC1155(collToken).safeTransferFrom(address(this), msg.sender, collId, amount, '');\n    emit TakeCollateral(POSITION_ID, msg.sender, collToken, collId, amount);\n  }\n\n  /// @dev Internal function to perform borrow from the bank and return the amount received.\n  /// @param token The token to perform borrow action.\n  /// @param amountCall The amount use in the transferFrom call.\n  /// NOTE: Caller must ensure that cToken interest was already accrued up to this block.\n  function doBorrow(address token, uint amountCall) internal returns (uint) {\n    Bank storage bank = banks[token]; // assume the input is already sanity checked.\n    uint balanceBefore = IERC20(token).balanceOf(address(this));\n    require(ICErc20(bank.cToken).borrow(amountCall) == 0, 'bad borrow');\n    uint balanceAfter = IERC20(token).balanceOf(address(this));\n    bank.totalDebt = bank.totalDebt.add(amountCall);\n    return balanceAfter.sub(balanceBefore);\n  }\n\n  /// @dev Internal function to perform repay to the bank and return the amount actually repaid.\n  /// @param token The token to perform repay action.\n  /// @param amountCall The amount to use in the repay call.\n  /// NOTE: Caller must ensure that cToken interest was already accrued up to this block.\n  function doRepay(address token, uint amountCall) internal returns (uint) {\n    Bank storage bank = banks[token]; // assume the input is already sanity checked.\n    ICErc20 cToken = ICErc20(bank.cToken);\n    uint oldDebt = bank.totalDebt;\n    require(cToken.repayBorrow(amountCall) == 0, 'bad repay');\n    uint newDebt = cToken.borrowBalanceStored(address(this));\n    bank.totalDebt = newDebt;\n    return oldDebt.sub(newDebt);\n  }\n\n  /// @dev Internal function to perform ERC20 transfer in and return amount actually received.\n  /// @param token The token to perform transferFrom action.\n  /// @param amountCall The amount use in the transferFrom call.\n  function doERC20TransferIn(address token, uint amountCall) internal returns (uint) {\n    uint balanceBefore = IERC20(token).balanceOf(address(this));\n    IERC20(token).safeTransferFrom(msg.sender, address(this), amountCall);\n    uint balanceAfter = IERC20(token).balanceOf(address(this));\n    return balanceAfter.sub(balanceBefore);\n  }\n\n  /// @dev Internal function to perform ERC1155 transfer in and return amount actually received.\n  /// @param token The token to perform transferFrom action.\n  /// @param id The id to perform transferFrom action.\n  /// @param amountCall The amount use in the transferFrom call.\n  function doERC1155TransferIn(\n    address token,\n    uint id,\n    uint amountCall\n  ) internal returns (uint) {\n    uint balanceBefore = IERC1155(token).balanceOf(address(this), id);\n    IERC1155(token).safeTransferFrom(msg.sender, address(this), id, amountCall, '');\n    uint balanceAfter = IERC1155(token).balanceOf(address(this), id);\n    return balanceAfter.sub(balanceBefore);\n  }\n}\n",
  "sourcePath": "contracts/HomoraBank.sol",
  "type": "contract"
}