{
  "abi": [
    {
      "inputs": [
        {
          "internalType": "contract IBank",
          "name": "_bank",
          "type": "address"
        },
        {
          "internalType": "address",
          "name": "_werc20",
          "type": "address"
        },
        {
          "internalType": "contract IUniswapV2Router02",
          "name": "_router",
          "type": "address"
        },
        {
          "internalType": "address",
          "name": "_wmasterchef",
          "type": "address"
        }
      ],
      "stateMutability": "nonpayable",
      "type": "constructor"
    },
    {
      "anonymous": false,
      "inputs": [
        {
          "indexed": false,
          "internalType": "address",
          "name": "governor",
          "type": "address"
        }
      ],
      "name": "AcceptGovernor",
      "type": "event"
    },
    {
      "anonymous": false,
      "inputs": [
        {
          "indexed": false,
          "internalType": "address",
          "name": "governor",
          "type": "address"
        }
      ],
      "name": "SetGovernor",
      "type": "event"
    },
    {
      "anonymous": false,
      "inputs": [
        {
          "indexed": false,
          "internalType": "address",
          "name": "pendingGovernor",
          "type": "address"
        }
      ],
      "name": "SetPendingGovernor",
      "type": "event"
    },
    {
      "inputs": [],
      "name": "acceptGovernor",
      "outputs": [],
      "stateMutability": "nonpayable",
      "type": "function"
    },
    {
      "inputs": [
        {
          "internalType": "address",
          "name": "tokenA",
          "type": "address"
        },
        {
          "internalType": "address",
          "name": "tokenB",
          "type": "address"
        },
        {
          "components": [
            {
              "internalType": "uint256",
              "name": "amtAUser",
              "type": "uint256"
            },
            {
              "internalType": "uint256",
              "name": "amtBUser",
              "type": "uint256"
            },
            {
              "internalType": "uint256",
              "name": "amtLPUser",
              "type": "uint256"
            },
            {
              "internalType": "uint256",
              "name": "amtABorrow",
              "type": "uint256"
            },
            {
              "internalType": "uint256",
              "name": "amtBBorrow",
              "type": "uint256"
            },
            {
              "internalType": "uint256",
              "name": "amtLPBorrow",
              "type": "uint256"
            },
            {
              "internalType": "uint256",
              "name": "amtAMin",
              "type": "uint256"
            },
            {
              "internalType": "uint256",
              "name": "amtBMin",
              "type": "uint256"
            }
          ],
          "internalType": "struct SushiswapSpellV1.Amounts",
          "name": "amt",
          "type": "tuple"
        }
      ],
      "name": "addLiquidityWERC20",
      "outputs": [],
      "stateMutability": "payable",
      "type": "function"
    },
    {
      "inputs": [
        {
          "internalType": "address",
          "name": "tokenA",
          "type": "address"
        },
        {
          "internalType": "address",
          "name": "tokenB",
          "type": "address"
        },
        {
          "components": [
            {
              "internalType": "uint256",
              "name": "amtAUser",
              "type": "uint256"
            },
            {
              "internalType": "uint256",
              "name": "amtBUser",
              "type": "uint256"
            },
            {
              "internalType": "uint256",
              "name": "amtLPUser",
              "type": "uint256"
            },
            {
              "internalType": "uint256",
              "name": "amtABorrow",
              "type": "uint256"
            },
            {
              "internalType": "uint256",
              "name": "amtBBorrow",
              "type": "uint256"
            },
            {
              "internalType": "uint256",
              "name": "amtLPBorrow",
              "type": "uint256"
            },
            {
              "internalType": "uint256",
              "name": "amtAMin",
              "type": "uint256"
            },
            {
              "internalType": "uint256",
              "name": "amtBMin",
              "type": "uint256"
            }
          ],
          "internalType": "struct SushiswapSpellV1.Amounts",
          "name": "amt",
          "type": "tuple"
        },
        {
          "internalType": "uint256",
          "name": "pid",
          "type": "uint256"
        }
      ],
      "name": "addLiquidityWMasterChef",
      "outputs": [],
      "stateMutability": "payable",
      "type": "function"
    },
    {
      "inputs": [
        {
          "internalType": "address",
          "name": "",
          "type": "address"
        },
        {
          "internalType": "address",
          "name": "",
          "type": "address"
        }
      ],
      "name": "approved",
      "outputs": [
        {
          "internalType": "bool",
          "name": "",
          "type": "bool"
        }
      ],
      "stateMutability": "view",
      "type": "function"
    },
    {
      "inputs": [],
      "name": "bank",
      "outputs": [
        {
          "internalType": "contract IBank",
          "name": "",
          "type": "address"
        }
      ],
      "stateMutability": "view",
      "type": "function"
    },
    {
      "inputs": [],
      "name": "factory",
      "outputs": [
        {
          "internalType": "contract IUniswapV2Factory",
          "name": "",
          "type": "address"
        }
      ],
      "stateMutability": "view",
      "type": "function"
    },
    {
      "inputs": [
        {
          "internalType": "address",
          "name": "tokenA",
          "type": "address"
        },
        {
          "internalType": "address",
          "name": "tokenB",
          "type": "address"
        }
      ],
      "name": "getAndApprovePair",
      "outputs": [
        {
          "internalType": "address",
          "name": "",
          "type": "address"
        }
      ],
      "stateMutability": "nonpayable",
      "type": "function"
    },
    {
      "inputs": [],
      "name": "governor",
      "outputs": [
        {
          "internalType": "address",
          "name": "",
          "type": "address"
        }
      ],
      "stateMutability": "view",
      "type": "function"
    },
    {
      "inputs": [],
      "name": "harvestWMasterChef",
      "outputs": [],
      "stateMutability": "nonpayable",
      "type": "function"
    },
    {
      "inputs": [
        {
          "internalType": "address",
          "name": "",
          "type": "address"
        },
        {
          "internalType": "address",
          "name": "",
          "type": "address"
        },
        {
          "internalType": "uint256[]",
          "name": "",
          "type": "uint256[]"
        },
        {
          "internalType": "uint256[]",
          "name": "",
          "type": "uint256[]"
        },
        {
          "internalType": "bytes",
          "name": "",
          "type": "bytes"
        }
      ],
      "name": "onERC1155BatchReceived",
      "outputs": [
        {
          "internalType": "bytes4",
          "name": "",
          "type": "bytes4"
        }
      ],
      "stateMutability": "nonpayable",
      "type": "function"
    },
    {
      "inputs": [
        {
          "internalType": "address",
          "name": "",
          "type": "address"
        },
        {
          "internalType": "address",
          "name": "",
          "type": "address"
        },
        {
          "internalType": "uint256",
          "name": "",
          "type": "uint256"
        },
        {
          "internalType": "uint256",
          "name": "",
          "type": "uint256"
        },
        {
          "internalType": "bytes",
          "name": "",
          "type": "bytes"
        }
      ],
      "name": "onERC1155Received",
      "outputs": [
        {
          "internalType": "bytes4",
          "name": "",
          "type": "bytes4"
        }
      ],
      "stateMutability": "nonpayable",
      "type": "function"
    },
    {
      "inputs": [
        {
          "internalType": "address",
          "name": "",
          "type": "address"
        },
        {
          "internalType": "address",
          "name": "",
          "type": "address"
        }
      ],
      "name": "pairs",
      "outputs": [
        {
          "internalType": "address",
          "name": "",
          "type": "address"
        }
      ],
      "stateMutability": "view",
      "type": "function"
    },
    {
      "inputs": [],
      "name": "pendingGovernor",
      "outputs": [
        {
          "internalType": "address",
          "name": "",
          "type": "address"
        }
      ],
      "stateMutability": "view",
      "type": "function"
    },
    {
      "inputs": [
        {
          "internalType": "address",
          "name": "tokenA",
          "type": "address"
        },
        {
          "internalType": "address",
          "name": "tokenB",
          "type": "address"
        },
        {
          "components": [
            {
              "internalType": "uint256",
              "name": "amtLPTake",
              "type": "uint256"
            },
            {
              "internalType": "uint256",
              "name": "amtLPWithdraw",
              "type": "uint256"
            },
            {
              "internalType": "uint256",
              "name": "amtARepay",
              "type": "uint256"
            },
            {
              "internalType": "uint256",
              "name": "amtBRepay",
              "type": "uint256"
            },
            {
              "internalType": "uint256",
              "name": "amtLPRepay",
              "type": "uint256"
            },
            {
              "internalType": "uint256",
              "name": "amtAMin",
              "type": "uint256"
            },
            {
              "internalType": "uint256",
              "name": "amtBMin",
              "type": "uint256"
            }
          ],
          "internalType": "struct SushiswapSpellV1.RepayAmounts",
          "name": "amt",
          "type": "tuple"
        }
      ],
      "name": "removeLiquidityWERC20",
      "outputs": [],
      "stateMutability": "nonpayable",
      "type": "function"
    },
    {
      "inputs": [
        {
          "internalType": "address",
          "name": "tokenA",
          "type": "address"
        },
        {
          "internalType": "address",
          "name": "tokenB",
          "type": "address"
        },
        {
          "components": [
            {
              "internalType": "uint256",
              "name": "amtLPTake",
              "type": "uint256"
            },
            {
              "internalType": "uint256",
              "name": "amtLPWithdraw",
              "type": "uint256"
            },
            {
              "internalType": "uint256",
              "name": "amtARepay",
              "type": "uint256"
            },
            {
              "internalType": "uint256",
              "name": "amtBRepay",
              "type": "uint256"
            },
            {
              "internalType": "uint256",
              "name": "amtLPRepay",
              "type": "uint256"
            },
            {
              "internalType": "uint256",
              "name": "amtAMin",
              "type": "uint256"
            },
            {
              "internalType": "uint256",
              "name": "amtBMin",
              "type": "uint256"
            }
          ],
          "internalType": "struct SushiswapSpellV1.RepayAmounts",
          "name": "amt",
          "type": "tuple"
        }
      ],
      "name": "removeLiquidityWMasterChef",
      "outputs": [],
      "stateMutability": "nonpayable",
      "type": "function"
    },
    {
      "inputs": [],
      "name": "router",
      "outputs": [
        {
          "internalType": "contract IUniswapV2Router02",
          "name": "",
          "type": "address"
        }
      ],
      "stateMutability": "view",
      "type": "function"
    },
    {
      "inputs": [
        {
          "internalType": "address",
          "name": "_pendingGovernor",
          "type": "address"
        }
      ],
      "name": "setPendingGovernor",
      "outputs": [],
      "stateMutability": "nonpayable",
      "type": "function"
    },
    {
      "inputs": [
        {
          "internalType": "address[]",
          "name": "lpTokens",
          "type": "address[]"
        },
        {
          "internalType": "bool[]",
          "name": "statuses",
          "type": "bool[]"
        }
      ],
      "name": "setWhitelistLPTokens",
      "outputs": [],
      "stateMutability": "nonpayable",
      "type": "function"
    },
    {
      "inputs": [
        {
          "internalType": "bytes4",
          "name": "interfaceId",
          "type": "bytes4"
        }
      ],
      "name": "supportsInterface",
      "outputs": [
        {
          "internalType": "bool",
          "name": "",
          "type": "bool"
        }
      ],
      "stateMutability": "view",
      "type": "function"
    },
    {
      "inputs": [],
      "name": "sushi",
      "outputs": [
        {
          "internalType": "address",
          "name": "",
          "type": "address"
        }
      ],
      "stateMutability": "view",
      "type": "function"
    },
    {
      "inputs": [],
      "name": "werc20",
      "outputs": [
        {
          "internalType": "contract IWERC20",
          "name": "",
          "type": "address"
        }
      ],
      "stateMutability": "view",
      "type": "function"
    },
    {
      "inputs": [],
      "name": "weth",
      "outputs": [
        {
          "internalType": "address",
          "name": "",
          "type": "address"
        }
      ],
      "stateMutability": "view",
      "type": "function"
    },
    {
      "inputs": [
        {
          "internalType": "address",
          "name": "",
          "type": "address"
        }
      ],
      "name": "whitelistedLpTokens",
      "outputs": [
        {
          "internalType": "bool",
          "name": "",
          "type": "bool"
        }
      ],
      "stateMutability": "view",
      "type": "function"
    },
    {
      "inputs": [],
      "name": "wmasterchef",
      "outputs": [
        {
          "internalType": "contract IWMasterChef",
          "name": "",
          "type": "address"
        }
      ],
      "stateMutability": "view",
      "type": "function"
    },
    {
      "stateMutability": "payable",
      "type": "receive"
    }
  ],
  "bytecode": "6101606040523480156200001257600080fd5b506040516200534d3803806200534d833981016040819052620000359162000832565b8383836001600160a01b031663ad5c46486040518163ffffffff1660e01b815260040160206040518083038186803b1580156200007157600080fd5b505afa15801562000086573d6000803e3d6000fd5b505050506040513d601f19601f82011682018060405250810190620000ac9190620007f1565b828282620000c16301ffc9a760e01b62000323565b620000d3630271189760e51b62000323565b6001600160601b0319606084811b821660805283811b821660a05282901b1660c0526200010181846200037e565b60405163a22cb46560e01b81526001600160a01b0383169063a22cb4659062000132908690600190600401620008fe565b600060405180830381600087803b1580156200014d57600080fd5b505af115801562000162573d6000803e3d6000fd5b50505050505050620001796200040860201b60201c565b505050816001600160a01b0316610100816001600160a01b031660601b81525050816001600160a01b031663c45a01556040518163ffffffff1660e01b815260040160206040518083038186803b158015620001d457600080fd5b505afa158015620001e9573d6000803e3d6000fd5b505050506040513d601f19601f820116820180604052508101906200020f9190620007f1565b6001600160601b0319606091821b811660e0529082901b166101205260405163a22cb46560e01b81526001600160a01b0382169063a22cb465906200025c908790600190600401620008fe565b600060405180830381600087803b1580156200027757600080fd5b505af11580156200028c573d6000803e3d6000fd5b50505050806001600160a01b0316630a0879036040518163ffffffff1660e01b8152600401602060405180830381600087803b158015620002cc57600080fd5b505af1158015620002e1573d6000803e3d6000fd5b505050506040513d601f19601f82011682018060405250810190620003079190620007f1565b60601b6001600160601b031916610140525062000b5992505050565b6001600160e01b03198082161415620003595760405162461bcd60e51b8152600401620003509062000967565b60405180910390fd5b6001600160e01b0319166000908152602081905260409020805460ff19166001179055565b6001600160a01b0380831660009081526041602090815260408083209385168352929052205460ff166200040457620003d381600019846001600160a01b0316620004fa60201b62001b34179092919060201c565b6001600160a01b038083166000908152604160209081526040808320938516835292905220805460ff191660011790555b5050565b604254610100900460ff16806200042457506200042462000608565b8062000433575060425460ff16155b620004525760405162461bcd60e51b81526004016200035090620009e4565b604254610100900460ff161580156200047e576042805460ff1961ff0019909116610100171660011790555b6042805462010000600160b01b0319163362010000810291909117909155604380546001600160a01b03191690556040517fbce074c8369e26e70e1ae2f14fc944da352cfe6f52e2de9572f0c9942a24b7fc91620004dc91620008d0565b60405180910390a18015620004f7576042805461ff00191690555b50565b801580620005895750604051636eb1769f60e11b81526001600160a01b0384169063dd62ed3e90620005339030908690600401620008e4565b60206040518083038186803b1580156200054c57600080fd5b505afa15801562000561573d6000803e3d6000fd5b505050506040513d601f19601f8201168201806040525081019062000587919062000899565b155b620005a85760405162461bcd60e51b8152600401620003509062000ab3565b620006038363095ea7b360e01b8484604051602401620005ca92919062000919565b60408051808303601f190181529190526020810180516001600160e01b0319939093166001600160e01b03938416179052906200062616565b505050565b60006200062030620006c260201b62001c331760201c565b15905090565b606062000682826040518060400160405280602081526020017f5361666545524332303a206c6f772d6c6576656c2063616c6c206661696c6564815250856001600160a01b0316620006c860201b62001c39179092919060201c565b805190915015620006035780806020019051810190620006a3919062000810565b620006035760405162461bcd60e51b8152600401620003509062000a69565b3b151590565b6060620006d98484600085620006e3565b90505b9392505050565b606082471015620007085760405162461bcd60e51b815260040162000350906200099e565b6200071385620006c2565b620007325760405162461bcd60e51b8152600401620003509062000a32565b60006060866001600160a01b03168587604051620007519190620008b2565b60006040518083038185875af1925050503d806000811462000790576040519150601f19603f3d011682016040523d82523d6000602084013e62000795565b606091505b509092509050620007a8828286620007b3565b979650505050505050565b60608315620007c4575081620006dc565b825115620007d55782518084602001fd5b8160405162461bcd60e51b815260040162000350919062000932565b60006020828403121562000803578081fd5b8151620006dc8162000b43565b60006020828403121562000822578081fd5b81518015158114620006dc578182fd5b6000806000806080858703121562000848578283fd5b8451620008558162000b43565b6020860151909450620008688162000b43565b60408601519093506200087b8162000b43565b60608601519092506200088e8162000b43565b939692955090935050565b600060208284031215620008ab578081fd5b5051919050565b60008251620008c681846020870162000b10565b9190910192915050565b6001600160a01b0391909116815260200190565b6001600160a01b0392831681529116602082015260400190565b6001600160a01b039290921682521515602082015260400190565b6001600160a01b03929092168252602082015260400190565b60006020825282518060208401526200095381604085016020870162000b10565b601f01601f19169190910160400192915050565b6020808252601c908201527f4552433136353a20696e76616c696420696e7465726661636520696400000000604082015260600190565b60208082526026908201527f416464726573733a20696e73756666696369656e742062616c616e636520666f6040820152651c8818d85b1b60d21b606082015260800190565b6020808252602e908201527f496e697469616c697a61626c653a20636f6e747261637420697320616c72656160408201526d191e481a5b9a5d1a585b1a5e995960921b606082015260800190565b6020808252601d908201527f416464726573733a2063616c6c20746f206e6f6e2d636f6e7472616374000000604082015260600190565b6020808252602a908201527f5361666545524332303a204552433230206f7065726174696f6e20646964206e6040820152691bdd081cdd58d8d9595960b21b606082015260800190565b60208082526036908201527f5361666545524332303a20617070726f76652066726f6d206e6f6e2d7a65726f60408201527f20746f206e6f6e2d7a65726f20616c6c6f77616e636500000000000000000000606082015260800190565b60005b8381101562000b2d57818101518382015260200162000b13565b8381111562000b3d576000848401525b50505050565b6001600160a01b0381168114620004f757600080fd5b60805160601c60a05160601c60c05160601c60e05160601c6101005160601c6101205160601c6101405160601c61465562000cf86000398061046e5280610c67528061103552806117b3525080610762528061080252806108d9528061096c52806109e15280610af65280610b345280610c045280610d185280610e905280610f235280610f97528061115c5280611366528061140e52806114a1528061151452806115a8528061165152806117365250806105cb52806105f5528061061f5280611b1252806121ae52806122df528061240c5280612c1e5280612e2a525080610516528061106f52508061015f52806106a2528061300d52806130b3528061347e525080610caa5280611d3e5280611db25280612edd5280612f185280612fc65250806106c9528061093f5280610bd75280610cf45280610d4d5280610ef652806112af5280611474528061170952806119055280611c645280611d105280611e595280611f1a5280611fc7528061207452806127bb5280612f96528061311e52806133e55280613420528061350a528061355e52506146556000f3fe60806040526004361061014f5760003560e01c806395723b1c116100b6578063e58bb6391161006f578063e58bb6391461039f578063ee42c6f4146103b4578063f235757f146103d4578063f23a6e61146103f4578063f4b1604514610414578063f887ea4014610434576101a7565b806395723b1c14610302578063bc197c8114610322578063c45a01551461034f578063cc9b188014610364578063e07d904e14610377578063e3056a341461038a576101a7565b806340a65ad21161010857806340a65ad21461026e5780634bab09f6146102835780635741229c146102a357806369454b86146102b857806376cdb03b146102d857806386adcc79146102ed576101a7565b806301ffc9a7146101ac5780630a087903146101e25780630c340a24146102045780631387d96d146102195780632185059f146102395780633fc8cef314610259576101a7565b366101a757336001600160a01b037f000000000000000000000000000000000000000000000000000000000000000016146101a55760405162461bcd60e51b815260040161019c906142d9565b60405180910390fd5b005b600080fd5b3480156101b857600080fd5b506101cc6101c7366004613db5565b610449565b6040516101d99190613fe9565b60405180910390f35b3480156101ee57600080fd5b506101f761046c565b6040516101d99190613ef8565b34801561021057600080fd5b506101f7610490565b34801561022557600080fd5b506101a5610234366004613b2e565b6104a5565b34801561024557600080fd5b506101f76102543660046139a2565b6104d0565b34801561026557600080fd5b506101f76106a0565b34801561027a57600080fd5b506101a56106c4565b34801561028f57600080fd5b506101cc61029e36600461396a565b610c93565b3480156102af57600080fd5b506101f7610ca8565b3480156102c457600080fd5b506101f76102d33660046139a2565b610ccc565b3480156102e457600080fd5b506101f7610cf2565b3480156102f957600080fd5b506101f7610d16565b34801561030e57600080fd5b506101a561031d366004613b2e565b610d3a565b34801561032e57600080fd5b5061034261033d3660046139da565b611059565b6040516101d99190613ff4565b34801561035b57600080fd5b506101f761106d565b6101a5610372366004613a95565b611091565b6101a5610385366004613add565b61114a565b34801561039657600080fd5b506101f76117e4565b3480156103ab57600080fd5b506101a56117f3565b3480156103c057600080fd5b506101a56103cf366004613c7f565b611883565b3480156103e057600080fd5b506101a56103ef36600461396a565b611a58565b34801561040057600080fd5b5061034261040f366004613bc7565b611ade565b34801561042057600080fd5b506101cc61042f3660046139a2565b611af0565b34801561044057600080fd5b506101f7611b10565b6001600160e01b0319811660009081526020819052604090205460ff165b919050565b7f000000000000000000000000000000000000000000000000000000000000000081565b6042546201000090046001600160a01b031681565b60006104b184846104d0565b90506104be818335611c52565b6104ca84848484611e1d565b50505050565b6001600160a01b0380831660009081526085602090815260408083208585168452909152812054909116806106975760405163e6a4390560e01b81526001600160a01b037f0000000000000000000000000000000000000000000000000000000000000000169063e6a439059061054d9087908790600401613f0c565b60206040518083038186803b15801561056557600080fd5b505afa158015610579573d6000803e3d6000fd5b505050506040513d601f19601f8201168201806040525081019061059d9190613986565b90506001600160a01b0381166105c55760405162461bcd60e51b815260040161019c90614251565b6105ef847f00000000000000000000000000000000000000000000000000000000000000006126b8565b610619837f00000000000000000000000000000000000000000000000000000000000000006126b8565b610643817f00000000000000000000000000000000000000000000000000000000000000006126b8565b6001600160a01b0380851660008181526085602081815260408084208987168552825280842080549688166001600160a01b0319978816811790915592825280842094845293905291902080549092161790555b90505b92915050565b7f000000000000000000000000000000000000000000000000000000000000000081565b6000807f00000000000000000000000000000000000000000000000000000000000000006001600160a01b031663f70aedd96040518163ffffffff1660e01b815260040160806040518083038186803b15801561072057600080fd5b505afa158015610734573d6000803e3d6000fd5b505050506040513d601f19601f820116820180604052508101906107589190613b80565b50925092505060007f00000000000000000000000000000000000000000000000000000000000000006001600160a01b031663dc20c6fa836040518263ffffffff1660e01b81526004016107ac919061450a565b604080518083038186803b1580156107c357600080fd5b505afa1580156107d7573d6000803e3d6000fd5b505050506040513d601f19601f820116820180604052508101906107fb9190613e49565b50905060007f00000000000000000000000000000000000000000000000000000000000000006001600160a01b031663a4775772846040518263ffffffff1660e01b815260040161084c919061450a565b60206040518083038186803b15801561086457600080fd5b505afa158015610878573d6000803e3d6000fd5b505050506040513d601f19601f8201168201806040525081019061089c9190613986565b6001600160a01b03811660009081526084602052604090205490915060ff166108d75760405162461bcd60e51b815260040161019c906142a2565b7f00000000000000000000000000000000000000000000000000000000000000006001600160a01b0316846001600160a01b0316146109285760405162461bcd60e51b815260040161019c90614373565b604051630d1d697560e31b81526001600160a01b037f000000000000000000000000000000000000000000000000000000000000000016906368eb4ba89061099a907f000000000000000000000000000000000000000000000000000000000000000090879060001990600401613fc8565b600060405180830381600087803b1580156109b457600080fd5b505af11580156109c8573d6000803e3d6000fd5b505060405163b390c0ab60e01b81526001600160a01b037f000000000000000000000000000000000000000000000000000000000000000016925063b390c0ab9150610a1c90869060001990600401614566565b602060405180830381600087803b158015610a3657600080fd5b505af1158015610a4a573d6000803e3d6000fd5b505050506040513d601f19601f82011682018060405250810190610a6e9190613e31565b506040516370a0823160e01b81526000906001600160a01b038316906370a0823190610a9e903090600401613ef8565b60206040518083038186803b158015610ab657600080fd5b505afa158015610aca573d6000803e3d6000fd5b505050506040513d601f19601f82011682018060405250810190610aee9190613e31565b9050610b1a827f00000000000000000000000000000000000000000000000000000000000000006126b8565b604051630d9778e560e11b81526000906001600160a01b037f00000000000000000000000000000000000000000000000000000000000000001690631b2ef1ca90610b6b9087908690600401614566565b602060405180830381600087803b158015610b8557600080fd5b505af1158015610b99573d6000803e3d6000fd5b505050506040513d601f19601f82011682018060405250810190610bbd9190613e31565b60405163314568d960e01b81529091506001600160a01b037f0000000000000000000000000000000000000000000000000000000000000000169063314568d990610c30907f00000000000000000000000000000000000000000000000000000000000000009085908790600401613fc8565b600060405180830381600087803b158015610c4a57600080fd5b505af1158015610c5e573d6000803e3d6000fd5b50505050610c8b7f000000000000000000000000000000000000000000000000000000000000000061272f565b505050505050565b60846020526000908152604090205460ff1681565b7f000000000000000000000000000000000000000000000000000000000000000081565b60856020908152600092835260408084209091529082529020546001600160a01b031681565b7f000000000000000000000000000000000000000000000000000000000000000081565b7f000000000000000000000000000000000000000000000000000000000000000081565b6000610d4684846104d0565b90506000807f00000000000000000000000000000000000000000000000000000000000000006001600160a01b031663f70aedd96040518163ffffffff1660e01b815260040160806040518083038186803b158015610da457600080fd5b505afa158015610db8573d6000803e3d6000fd5b505050506040513d601f19601f82011682018060405250810190610ddc9190613b80565b509250925050826001600160a01b0316826001600160a01b031663a4775772836040518263ffffffff1660e01b8152600401610e18919061450a565b60206040518083038186803b158015610e3057600080fd5b505afa158015610e44573d6000803e3d6000fd5b505050506040513d601f19601f82011682018060405250810190610e689190613986565b6001600160a01b031614610e8e5760405162461bcd60e51b815260040161019c9061443c565b7f00000000000000000000000000000000000000000000000000000000000000006001600160a01b0316826001600160a01b031614610edf5760405162461bcd60e51b815260040161019c90614373565b604051630d1d697560e31b81526001600160a01b037f000000000000000000000000000000000000000000000000000000000000000016906368eb4ba890610f50907f0000000000000000000000000000000000000000000000000000000000000000908590893590600401613fc8565b600060405180830381600087803b158015610f6a57600080fd5b505af1158015610f7e573d6000803e3d6000fd5b505060405163b390c0ab60e01b81526001600160a01b037f000000000000000000000000000000000000000000000000000000000000000016925063b390c0ab9150610fd1908490883590600401614566565b602060405180830381600087803b158015610feb57600080fd5b505af1158015610fff573d6000803e3d6000fd5b505050506040513d601f19601f820116820180604052508101906110239190613e31565b5061103086868686611e1d565b610c8b7f000000000000000000000000000000000000000000000000000000000000000061272f565b63bc197c8160e01b98975050505050505050565b7f000000000000000000000000000000000000000000000000000000000000000081565b600061109d84846104d0565b90506110ab8484848461285b565b61113081826001600160a01b03166370a08231306040518263ffffffff1660e01b81526004016110db9190613ef8565b60206040518083038186803b1580156110f357600080fd5b505afa158015611107573d6000803e3d6000fd5b505050506040513d601f19601f8201168201806040525081019061112b9190613e31565b612ed1565b611138612ff3565b6111418461272f565b6104ca8361272f565b600061115685856104d0565b905060007f00000000000000000000000000000000000000000000000000000000000000006001600160a01b0316631fc8bc5d6040518163ffffffff1660e01b815260040160206040518083038186803b1580156111b357600080fd5b505afa1580156111c7573d6000803e3d6000fd5b505050506040513d601f19601f820116820180604052508101906111eb9190613986565b6001600160a01b0316631526fe27846040518263ffffffff1660e01b8152600401611216919061450a565b60806040518083038186803b15801561122e57600080fd5b505afa158015611242573d6000803e3d6000fd5b505050506040513d601f19601f820116820180604052508101906112669190613c41565b5050509050816001600160a01b0316816001600160a01b03161461129c5760405162461bcd60e51b815260040161019c90614276565b6112a88686868561285b565b60008060007f00000000000000000000000000000000000000000000000000000000000000006001600160a01b031663f70aedd96040518163ffffffff1660e01b815260040160806040518083038186803b15801561130657600080fd5b505afa15801561131a573d6000803e3d6000fd5b505050506040513d601f19601f8201168201806040525081019061133e9190613b80565b919550935091505080156115a257604051636e10637d60e11b81526000906001600160a01b037f0000000000000000000000000000000000000000000000000000000000000000169063dc20c6fa9061139b90869060040161450a565b604080518083038186803b1580156113b257600080fd5b505afa1580156113c6573d6000803e3d6000fd5b505050506040513d601f19601f820116820180604052508101906113ea9190613e49565b50905080871461140c5760405162461bcd60e51b815260040161019c906143de565b7f00000000000000000000000000000000000000000000000000000000000000006001600160a01b0316846001600160a01b03161461145d5760405162461bcd60e51b815260040161019c90614373565b604051630d1d697560e31b81526001600160a01b037f000000000000000000000000000000000000000000000000000000000000000016906368eb4ba8906114cd907f00000000000000000000000000000000000000000000000000000000000000009087908790600401613fc8565b600060405180830381600087803b1580156114e757600080fd5b505af11580156114fb573d6000803e3d6000fd5b505060405163b390c0ab60e01b81526001600160a01b037f000000000000000000000000000000000000000000000000000000000000000016925063b390c0ab915061154d9086908690600401614566565b602060405180830381600087803b15801561156757600080fd5b505af115801561157b573d6000803e3d6000fd5b505050506040513d601f19601f8201168201806040525081019061159f9190613e31565b50505b6115cc857f00000000000000000000000000000000000000000000000000000000000000006126b8565b6040516370a0823160e01b81526000906001600160a01b038716906370a08231906115fb903090600401613ef8565b60206040518083038186803b15801561161357600080fd5b505afa158015611627573d6000803e3d6000fd5b505050506040513d601f19601f8201168201806040525081019061164b9190613e31565b905060007f00000000000000000000000000000000000000000000000000000000000000006001600160a01b0316631b2ef1ca89846040518363ffffffff1660e01b815260040161169d929190614566565b602060405180830381600087803b1580156116b757600080fd5b505af11580156116cb573d6000803e3d6000fd5b505050506040513d601f19601f820116820180604052508101906116ef9190613e31565b60405163314568d960e01b81529091506001600160a01b037f0000000000000000000000000000000000000000000000000000000000000000169063314568d990611762907f00000000000000000000000000000000000000000000000000000000000000009085908790600401613fc8565b600060405180830381600087803b15801561177c57600080fd5b505af1158015611790573d6000803e3d6000fd5b5050505061179c612ff3565b6117a58b61272f565b6117ae8a61272f565b6117d77f000000000000000000000000000000000000000000000000000000000000000061272f565b5050505050505050505050565b6043546001600160a01b031681565b6043546001600160a01b0316331461181d5760405162461bcd60e51b815260040161019c90614089565b604380546001600160a01b03191690556042805462010000600160b01b03191633620100008102919091179091556040517fd345d81ce68c70b119a17eee79dc1421700bd9cb21ca148a62dc90983964e82f9161187991613ef8565b60405180910390a1565b6042546201000090046001600160a01b031633146118b35760405162461bcd60e51b815260040161019c906141e2565b8281146118d25760405162461bcd60e51b815260040161019c9061420c565b60005b83811015611a51578282828181106118e957fe5b90506020020160208101906118fe9190613d7d565b156119db577f00000000000000000000000000000000000000000000000000000000000000006001600160a01b031663e660cc0886868481811061193e57fe5b9050602002016020810190611953919061396a565b6040518263ffffffff1660e01b815260040161196f9190613ef8565b60206040518083038186803b15801561198757600080fd5b505afa15801561199b573d6000803e3d6000fd5b505050506040513d601f19601f820116820180604052508101906119bf9190613d99565b6119db5760405162461bcd60e51b815260040161019c906140f7565b8282828181106119e757fe5b90506020020160208101906119fc9190613d7d565b60846000878785818110611a0c57fe5b9050602002016020810190611a21919061396a565b6001600160a01b031681526020810191909152604001600020805460ff19169115159190911790556001016118d5565b5050505050565b6042546201000090046001600160a01b03163314611a885760405162461bcd60e51b815260040161019c906141e2565b604380546001600160a01b0319166001600160a01b0383161790556040517f964dea888b00b2ab53f13dfe7ca334b46e99338c222ae232d98547a1da019f6090611ad3908390613ef8565b60405180910390a150565b63f23a6e6160e01b9695505050505050565b604160209081526000928352604080842090915290825290205460ff1681565b7f000000000000000000000000000000000000000000000000000000000000000081565b801580611bbc5750604051636eb1769f60e11b81526001600160a01b0384169063dd62ed3e90611b6a9030908690600401613f0c565b60206040518083038186803b158015611b8257600080fd5b505afa158015611b96573d6000803e3d6000fd5b505050506040513d601f19601f82011682018060405250810190611bba9190613e31565b155b611bd85760405162461bcd60e51b815260040161019c906144b4565b611c2e8363095ea7b360e01b8484604051602401611bf7929190613faf565b60408051601f198184030181529190526020810180516001600160e01b03166001600160e01b03199093169290921790915261323c565b505050565b3b151590565b6060611c4884846000856132cb565b90505b9392505050565b8015611e1957600019811415611cf9577f00000000000000000000000000000000000000000000000000000000000000006001600160a01b031663f70aedd96040518163ffffffff1660e01b815260040160806040518083038186803b158015611cbb57600080fd5b505afa158015611ccf573d6000803e3d6000fd5b505050506040513d601f19601f82011682018060405250810190611cf39190613b80565b93505050505b604051630d1d697560e31b81526001600160a01b037f00000000000000000000000000000000000000000000000000000000000000008116916368eb4ba891611d6b917f0000000000000000000000000000000000000000000000000000000000000000918716908690600401613fc8565b600060405180830381600087803b158015611d8557600080fd5b505af1158015611d99573d6000803e3d6000fd5b5050604051632770a7eb60e21b81526001600160a01b037f0000000000000000000000000000000000000000000000000000000000000000169250639dc29fac9150611deb9085908590600401613faf565b600060405180830381600087803b158015611e0557600080fd5b505af1158015610c8b573d6000803e3d6000fd5b5050565b6001600160a01b03811660009081526084602052604090205460ff16611e555760405162461bcd60e51b815260040161019c906142a2565b60007f00000000000000000000000000000000000000000000000000000000000000006001600160a01b031663d7ac71ff6040518163ffffffff1660e01b815260040160206040518083038186803b158015611eb057600080fd5b505afa158015611ec4573d6000803e3d6000fd5b505050506040513d601f19601f82011682018060405250810190611ee89190613e31565b9050604083013560608401356080850135600019831415611fa6576040516320a8bee760e21b81526001600160a01b037f000000000000000000000000000000000000000000000000000000000000000016906382a2fb9c90611f519087908c90600401614513565b602060405180830381600087803b158015611f6b57600080fd5b505af1158015611f7f573d6000803e3d6000fd5b505050506040513d601f19601f82011682018060405250810190611fa39190613e31565b92505b600019821415612053576040516320a8bee760e21b81526001600160a01b037f000000000000000000000000000000000000000000000000000000000000000016906382a2fb9c90611ffe9087908b90600401614513565b602060405180830381600087803b15801561201857600080fd5b505af115801561202c573d6000803e3d6000fd5b505050506040513d601f19601f820116820180604052508101906120509190613e31565b91505b600019811415612100576040516320a8bee760e21b81526001600160a01b037f000000000000000000000000000000000000000000000000000000000000000016906382a2fb9c906120ab9087908990600401614513565b602060405180830381600087803b1580156120c557600080fd5b505af11580156120d9573d6000803e3d6000fd5b505050506040513d601f19601f820116820180604052508101906120fd9190613e31565b90505b600061218c8760200135876001600160a01b03166370a08231306040518263ffffffff1660e01b81526004016121369190613ef8565b60206040518083038186803b15801561214e57600080fd5b505afa158015612162573d6000803e3d6000fd5b505050506040513d601f19601f820116820180604052508101906121869190613e31565b9061338c565b9050600080821561224757604051635d5155ef60e11b81526001600160a01b037f0000000000000000000000000000000000000000000000000000000000000000169063baa2abde906121f0908e908e908890600090819030904290600401613f26565b6040805180830381600087803b15801561220957600080fd5b505af115801561221d573d6000803e3d6000fd5b505050506040513d601f19601f820116820180604052508101906122419190613e49565b90925090505b60006122578760a08c01356133b4565b905060006122698760c08d01356133b4565b9050818410801561227957508083115b156123985760408051600280825260608083018452926020830190803683370190505090508c8e826000815181106122ad57fe5b60200260200101836001815181106122c157fe5b6001600160a01b0393841660209182029290920101529181169091527f000000000000000000000000000000000000000000000000000000000000000016638803dbee61230e858861338c565b612318878661338c565b8430426040518663ffffffff1660e01b815260040161233b95949392919061452a565b600060405180830381600087803b15801561235557600080fd5b505af1158015612369573d6000803e3d6000fd5b505050506040513d6000823e601f3d908101601f191682016040526123919190810190613ce8565b50506124c1565b81841180156123a657508083105b156124c15760408051600280825260608083018452926020830190803683370190505090508d8d826000815181106123da57fe5b60200260200101836001815181106123ee57fe5b6001600160a01b0393841660209182029290920101529181169091527f000000000000000000000000000000000000000000000000000000000000000016638803dbee61243b848761338c565b612445888761338c565b8430426040518663ffffffff1660e01b815260040161246895949392919061452a565b600060405180830381600087803b15801561248257600080fd5b505af1158015612496573d6000803e3d6000fd5b505050506040513d6000823e601f3d908101601f191682016040526124be9190810190613ce8565b50505b6124cb8d896133d9565b6124d58c886133d9565b6124df8a876133d9565b6040516370a0823160e01b815260a08c0135906001600160a01b038f16906370a0823190612511903090600401613ef8565b60206040518083038186803b15801561252957600080fd5b505afa15801561253d573d6000803e3d6000fd5b505050506040513d601f19601f820116820180604052508101906125619190613e31565b101561256c57600080fd5b6040516370a0823160e01b815260c08c0135906001600160a01b038e16906370a082319061259e903090600401613ef8565b60206040518083038186803b1580156125b657600080fd5b505afa1580156125ca573d6000803e3d6000fd5b505050506040513d601f19601f820116820180604052508101906125ee9190613e31565b10156125f957600080fd5b6040516370a0823160e01b815260208c0135906001600160a01b038c16906370a082319061262b903090600401613ef8565b60206040518083038186803b15801561264357600080fd5b505afa158015612657573d6000803e3d6000fd5b505050506040513d601f19601f8201168201806040525081019061267b9190613e31565b101561268657600080fd5b61268e612ff3565b6126978d61272f565b6126a08c61272f565b6126a98a61272f565b50505050505050505050505050565b6001600160a01b0380831660009081526041602090815260408083209385168352929052205460ff16611e19576126fb6001600160a01b03831682600019611b34565b6001600160a01b038083166000908152604160209081526040808320938516835292905220805460ff191660011790555050565b6040516370a0823160e01b81526000906001600160a01b038316906370a082319061275e903090600401613ef8565b60206040518083038186803b15801561277657600080fd5b505afa15801561278a573d6000803e3d6000fd5b505050506040513d601f19601f820116820180604052508101906127ae9190613e31565b90508015611e1957611e197f00000000000000000000000000000000000000000000000000000000000000006001600160a01b031663630dc7cb6040518163ffffffff1660e01b815260040160206040518083038186803b15801561281257600080fd5b505afa158015612826573d6000803e3d6000fd5b505050506040513d601f19601f8201168201806040525081019061284a9190613986565b6001600160a01b0384169083613457565b6001600160a01b03811660009081526084602052604090205460ff166128935760405162461bcd60e51b815260040161019c906142a2565b61289b613476565b6128a68483356134ed565b6128b48383602001356134ed565b6128c28183604001356134ed565b6128d0848360600135613541565b6128de838360800135613541565b6128ec818360a00135613541565b6000806000866001600160a01b03166370a08231306040518263ffffffff1660e01b815260040161291d9190613ef8565b60206040518083038186803b15801561293557600080fd5b505afa158015612949573d6000803e3d6000fd5b505050506040513d601f19601f8201168201806040525081019061296d9190613e31565b90506000866001600160a01b03166370a08231306040518263ffffffff1660e01b815260040161299d9190613ef8565b60206040518083038186803b1580156129b557600080fd5b505afa1580156129c9573d6000803e3d6000fd5b505050506040513d601f19601f820116820180604052508101906129ed9190613e31565b9050600080896001600160a01b0316876001600160a01b0316630dfe16816040518163ffffffff1660e01b815260040160206040518083038186803b158015612a3557600080fd5b505afa158015612a49573d6000803e3d6000fd5b505050506040513d601f19601f82011682018060405250810190612a6d9190613986565b6001600160a01b03161415612b0357866001600160a01b0316630902f1ac6040518163ffffffff1660e01b815260040160606040518083038186803b158015612ab557600080fd5b505afa158015612ac9573d6000803e3d6000fd5b505050506040513d601f19601f82011682018060405250810190612aed9190613ddd565b506001600160701b039182169350169050612b86565b866001600160a01b0316630902f1ac6040518163ffffffff1660e01b815260040160606040518083038186803b158015612b3c57600080fd5b505afa158015612b50573d6000803e3d6000fd5b505050506040513d601f19601f82011682018060405250810190612b749190613ddd565b506001600160701b0390811693501690505b612b9284848484613595565b90965094505084159250612cb791505057604080516002808252606080830184529260208301908036833701905050905081612bcf578686612bd2565b85875b82600081518110612bdf57fe5b6020026020010183600181518110612bf357fe5b6001600160a01b0393841660209182029290920101529181169091526040516338ed173960e01b81527f0000000000000000000000000000000000000000000000000000000000000000909116906338ed173990612c5e90869060009086903090429060040161452a565b600060405180830381600087803b158015612c7857600080fd5b505af1158015612c8c573d6000803e3d6000fd5b505050506040513d6000823e601f3d908101601f19168201604052612cb49190810190613ce8565b50505b6040516370a0823160e01b81526000906001600160a01b038816906370a0823190612ce6903090600401613ef8565b60206040518083038186803b158015612cfe57600080fd5b505afa158015612d12573d6000803e3d6000fd5b505050506040513d601f19601f82011682018060405250810190612d369190613e31565b90506000866001600160a01b03166370a08231306040518263ffffffff1660e01b8152600401612d669190613ef8565b60206040518083038186803b158015612d7e57600080fd5b505afa158015612d92573d6000803e3d6000fd5b505050506040513d601f19601f82011682018060405250810190612db69190613e31565b90506000821180612dc75750600081115b15612ec7578560c00135821015612df05760405162461bcd60e51b815260040161019c90614351565b8560e00135811015612e145760405162461bcd60e51b815260040161019c90614067565b60405162e8e33760e81b81526001600160a01b037f0000000000000000000000000000000000000000000000000000000000000000169063e8e3370090612e75908b908b908790879060c08e01359060e08f01359030904290600401613f66565b606060405180830381600087803b158015612e8f57600080fd5b505af1158015612ea3573d6000803e3d6000fd5b505050506040513d601f19601f820116820180604052508101906117d79190613e6c565b5050505050505050565b8015611e1957612f01827f00000000000000000000000000000000000000000000000000000000000000006126b8565b6040516340c10f1960e01b81526001600160a01b037f000000000000000000000000000000000000000000000000000000000000000016906340c10f1990612f4f9085908590600401613faf565b600060405180830381600087803b158015612f6957600080fd5b505af1158015612f7d573d6000803e3d6000fd5b505060405163314568d960e01b81526001600160a01b037f00000000000000000000000000000000000000000000000000000000000000008116935063314568d99250611deb917f0000000000000000000000000000000000000000000000000000000000000000918716908690600401613fc8565b6040516370a0823160e01b81526000906001600160a01b037f000000000000000000000000000000000000000000000000000000000000000016906370a0823190613042903090600401613ef8565b602060405180830381600087803b15801561305c57600080fd5b505af1158015613070573d6000803e3d6000fd5b505050506040513d601f19601f820116820180604052508101906130949190613e31565b9050801561323957604051632e1a7d4d60e01b81526001600160a01b037f00000000000000000000000000000000000000000000000000000000000000001690632e1a7d4d906130e890849060040161450a565b600060405180830381600087803b15801561310257600080fd5b505af1158015613116573d6000803e3d6000fd5b5050505060007f00000000000000000000000000000000000000000000000000000000000000006001600160a01b031663630dc7cb6040518163ffffffff1660e01b815260040160206040518083038186803b15801561317557600080fd5b505afa158015613189573d6000803e3d6000fd5b505050506040513d601f19601f820116820180604052508101906131ad9190613986565b604080516000815260208101918290526001600160a01b03929092169184916131d69190613edc565b60006040518083038185875af1925050503d8060008114613213576040519150601f19603f3d011682016040523d82523d6000602084013e613218565b606091505b5050905080611e195760405162461bcd60e51b815260040161019c9061403c565b50565b6060613291826040518060400160405280602081526020017f5361666545524332303a206c6f772d6c6576656c2063616c6c206661696c6564815250856001600160a01b0316611c399092919063ffffffff16565b805190915015611c2e57808060200190518101906132af9190613d99565b611c2e5760405162461bcd60e51b815260040161019c9061446a565b6060824710156132ed5760405162461bcd60e51b815260040161019c90614165565b6132f685611c33565b6133125760405162461bcd60e51b815260040161019c90614405565b60006060866001600160a01b0316858760405161332f9190613edc565b60006040518083038185875af1925050503d806000811461336c576040519150601f19603f3d011682016040523d82523d6000602084013e613371565b606091505b50915091506133818282866135e4565b979650505050505050565b6000828211156133ae5760405162461bcd60e51b815260040161019c9061412e565b50900390565b6000828201838110156106975760405162461bcd60e51b815260040161019c906140c0565b8015611e1957613409827f00000000000000000000000000000000000000000000000000000000000000006126b8565b604051630450cfaf60e31b81526001600160a01b037f000000000000000000000000000000000000000000000000000000000000000016906322867d7890611deb9085908590600401613faf565b611c2e8363a9059cbb60e01b8484604051602401611bf7929190613faf565b34156134eb577f00000000000000000000000000000000000000000000000000000000000000006001600160a01b031663d0e30db0346040518263ffffffff1660e01b81526004016000604051808303818588803b1580156134d757600080fd5b505af1158015611a51573d6000803e3d6000fd5b565b8015611e195760405163246b5de160e11b81526001600160a01b037f000000000000000000000000000000000000000000000000000000000000000016906348d6bbc290611deb9085908590600401613faf565b8015611e1957604051634b8a352960e01b81526001600160a01b037f00000000000000000000000000000000000000000000000000000000000000001690634b8a352990611deb9085908590600401613faf565b6000806135a2858561361d565b6135ac878561361d565b106135c8576135bd86868686613657565b9150600090506135db565b6135d485878587613657565b9150600190505b94509492505050565b606083156135f3575081611c4b565b8251156136035782518084602001fd5b8160405162461bcd60e51b815260040161019c9190614009565b60008261362c5750600061069a565b8282028284828161363957fe5b04146106975760405162461bcd60e51b815260040161019c90614310565b6000613663848461361d565b61366d868461361d565b101561368b5760405162461bcd60e51b815260040161019c906143bc565b6103e5600061369c6107cd8661361d565b905060006136b76136ad888861361d565b6121868a8861361d565b905060006136e4876136de6136cc8b8a6133b4565b6136d8866103e861361d565b90613751565b9061361d565b905060006136f760046136de878561361d565b905060006137176137128361370c888061361d565b906133b4565b613783565b90506000613725828761338c565b9050600061373488600261361d565b90506137408282613751565b9d9c50505050505050505050505050565b60008082116137725760405162461bcd60e51b815260040161019c906141ab565b81838161377b57fe5b049392505050565b60008161379257506000610467565b816001600160801b82106137ab5760809190911c9060401b5b6801000000000000000082106137c65760409190911c9060201b5b64010000000082106137dd5760209190911c9060101b5b6201000082106137f25760109190911c9060081b5b61010082106138065760089190911c9060041b5b601082106138195760049190911c9060021b5b600882106138255760011b5b600181858161383057fe5b048201901c9050600181858161384257fe5b048201901c9050600181858161385457fe5b048201901c9050600181858161386657fe5b048201901c9050600181858161387857fe5b048201901c9050600181858161388a57fe5b048201901c9050600181858161389c57fe5b048201901c905060008185816138ae57fe5b0490508082106138be57806138c0565b815b95945050505050565b60008083601f8401126138da578182fd5b50813567ffffffffffffffff8111156138f1578182fd5b602083019150836020808302850101111561390b57600080fd5b9250929050565b60008083601f840112613923578182fd5b50813567ffffffffffffffff81111561393a578182fd5b60208301915083602082850101111561390b57600080fd5b60006101008284031215613964578081fd5b50919050565b60006020828403121561397b578081fd5b8135610697816145e7565b600060208284031215613997578081fd5b8151610697816145e7565b600080604083850312156139b4578081fd5b82356139bf816145e7565b915060208301356139cf816145e7565b809150509250929050565b60008060008060008060008060a0898b0312156139f5578384fd5b8835613a00816145e7565b97506020890135613a10816145e7565b9650604089013567ffffffffffffffff80821115613a2c578586fd5b613a388c838d016138c9565b909850965060608b0135915080821115613a50578586fd5b613a5c8c838d016138c9565b909650945060808b0135915080821115613a74578384fd5b50613a818b828c01613912565b999c989b5096995094979396929594505050565b60008060006101408486031215613aaa578283fd5b8335613ab5816145e7565b92506020840135613ac5816145e7565b9150613ad48560408601613952565b90509250925092565b6000806000806101608587031215613af3578384fd5b8435613afe816145e7565b93506020850135613b0e816145e7565b9250613b1d8660408701613952565b939692955092936101400135925050565b6000806000838503610120811215613b44578384fd5b8435613b4f816145e7565b93506020850135613b5f816145e7565b925060e0603f1982011215613b72578182fd5b506040840190509250925092565b60008060008060808587031215613b95578182fd5b8451613ba0816145e7565b6020860151909450613bb1816145e7565b6040860151606090960151949790965092505050565b60008060008060008060a08789031215613bdf578384fd5b8635613bea816145e7565b95506020870135613bfa816145e7565b94506040870135935060608701359250608087013567ffffffffffffffff811115613c23578283fd5b613c2f89828a01613912565b979a9699509497509295939492505050565b60008060008060808587031215613c56578182fd5b8451613c61816145e7565b60208601516040870151606090970151919890975090945092505050565b60008060008060408587031215613c94578182fd5b843567ffffffffffffffff80821115613cab578384fd5b613cb7888389016138c9565b90965094506020870135915080821115613ccf578384fd5b50613cdc878288016138c9565b95989497509550505050565b60006020808385031215613cfa578182fd5b825167ffffffffffffffff811115613d10578283fd5b8301601f81018513613d20578283fd5b8051613d33613d2e8261459b565b614574565b8181528381019083850185840285018601891015613d4f578687fd5b8694505b83851015613d71578051835260019490940193918501918501613d53565b50979650505050505050565b600060208284031215613d8e578081fd5b8135610697816145fc565b600060208284031215613daa578081fd5b8151610697816145fc565b600060208284031215613dc6578081fd5b81356001600160e01b031981168114610697578182fd5b600080600060608486031215613df1578081fd5b8351613dfc8161460a565b6020850151909350613e0d8161460a565b604085015190925063ffffffff81168114613e26578182fd5b809150509250925092565b600060208284031215613e42578081fd5b5051919050565b60008060408385031215613e5b578182fd5b505080516020909101519092909150565b600080600060608486031215613e80578081fd5b8351925060208401519150604084015190509250925092565b6000815180845260208085019450808401835b83811015613ed15781516001600160a01b031687529582019590820190600101613eac565b509495945050505050565b60008251613eee8184602087016145bb565b9190910192915050565b6001600160a01b0391909116815260200190565b6001600160a01b0392831681529116602082015260400190565b6001600160a01b039788168152958716602087015260408601949094526060850192909252608084015290921660a082015260c081019190915260e00190565b6001600160a01b039889168152968816602088015260408701959095526060860193909352608085019190915260a084015290921660c082015260e08101919091526101000190565b6001600160a01b03929092168252602082015260400190565b6001600160a01b039390931683526020830191909152604082015260600190565b901515815260200190565b6001600160e01b031991909116815260200190565b60006020825282518060208401526140288160408501602087016145bb565b601f01601f19169190910160400192915050565b6020808252601190820152701c99599d5b99081155120819985a5b1959607a1b604082015260600190565b60208082526008908201526710b0b6ba2126b4b760c11b604082015260600190565b60208082526018908201527f6e6f74207468652070656e64696e6720676f7665726e6f720000000000000000604082015260600190565b6020808252601b908201527f536166654d6174683a206164646974696f6e206f766572666c6f770000000000604082015260600190565b6020808252601b908201527f6f7261636c65206e6f7420737570706f7274206c7020746f6b656e0000000000604082015260600190565b6020808252601e908201527f536166654d6174683a207375627472616374696f6e206f766572666c6f770000604082015260600190565b60208082526026908201527f416464726573733a20696e73756666696369656e742062616c616e636520666f6040820152651c8818d85b1b60d21b606082015260800190565b6020808252601a908201527f536166654d6174683a206469766973696f6e206279207a65726f000000000000604082015260600190565b60208082526010908201526f3737ba103a34329033b7bb32b93737b960811b604082015260600190565b60208082526025908201527f6c70546f6b656e732026207374617475736573206c656e677468206d69736d616040820152641d18da195960da1b606082015260800190565b6020808252600b908201526a3737903638103a37b5b2b760a91b604082015260600190565b60208082526012908201527134b731b7b93932b1ba103638103a37b5b2b760711b604082015260600190565b60208082526018908201527f6c7020746f6b656e206e6f742077686974656c69737465640000000000000000604082015260600190565b60208082526017908201527f455448206d75737420636f6d652066726f6d2057455448000000000000000000604082015260600190565b60208082526021908201527f536166654d6174683a206d756c7469706c69636174696f6e206f766572666c6f6040820152607760f81b606082015260800190565b60208082526008908201526710b0b6ba20a6b4b760c11b604082015260600190565b60208082526029908201527f636f6c6c61746572616c20746f6b656e202620776d617374657263686566206d6040820152681a5cdb585d18da195960ba1b606082015260800190565b60208082526008908201526714995d995c9cd95960c21b604082015260600190565b6020808252600d908201526c1a5b98dbdc9c9958dd081c1a59609a1b604082015260600190565b6020808252601d908201527f416464726573733a2063616c6c20746f206e6f6e2d636f6e7472616374000000604082015260600190565b602080825260149082015273696e636f727265637420756e6465726c79696e6760601b604082015260600190565b6020808252602a908201527f5361666545524332303a204552433230206f7065726174696f6e20646964206e6040820152691bdd081cdd58d8d9595960b21b606082015260800190565b60208082526036908201527f5361666545524332303a20617070726f76652066726f6d206e6f6e2d7a65726f60408201527520746f206e6f6e2d7a65726f20616c6c6f77616e636560501b606082015260800190565b90815260200190565b9182526001600160a01b0316602082015260400190565b600086825285602083015260a0604083015261454960a0830186613e99565b6001600160a01b0394909416606083015250608001529392505050565b918252602082015260400190565b60405181810167ffffffffffffffff8111828210171561459357600080fd5b604052919050565b600067ffffffffffffffff8211156145b1578081fd5b5060209081020190565b60005b838110156145d65781810151838201526020016145be565b838111156104ca5750506000910152565b6001600160a01b038116811461323957600080fd5b801515811461323957600080fd5b6001600160701b038116811461323957600080fdfea26469706673582212203f8ad90c1fe45e01da91d60e7b7dcd4ddfa21ae0e615518b4cce1c714ba3f8d164736f6c634300060c0033",
  "bytecodeSha1": "1848b4e5f833f8d8a2fcb42e6e24c24e43b461a8",
  "compiler": {
    "evm_version": "istanbul",
    "optimizer": {
      "enabled": true,
      "runs": 200
    },
    "version": "0.6.12+commit.27d51765"
  },
  "contractName": "SushiswapSpellV1",
  "language": "Solidity",
  "natspec": {
    "kind": "dev",
    "methods": {
      "acceptGovernor()": {
        "details": "Accept to become the new governor. Must be called by the pending governor."
      },
      "addLiquidityWERC20(address,address,(uint256,uint256,uint256,uint256,uint256,uint256,uint256,uint256))": {
        "details": "Add liquidity to Sushiswap pool, with no staking rewards (use WERC20 wrapper)",
        "params": {
          "amt": "Amounts of tokens to supply, borrow, and get.",
          "tokenA": "Token A for the pair",
          "tokenB": "Token B for the pair"
        }
      },
      "addLiquidityWMasterChef(address,address,(uint256,uint256,uint256,uint256,uint256,uint256,uint256,uint256),uint256)": {
        "details": "Add liquidity to Sushiswap pool, with staking to masterChef",
        "params": {
          "amt": "Amounts of tokens to supply, borrow, and get.",
          "pid": "Pool id",
          "tokenA": "Token A for the pair",
          "tokenB": "Token B for the pair"
        }
      },
      "getAndApprovePair(address,address)": {
        "details": "Return the LP token for the token pairs (can be in any order)",
        "params": {
          "tokenA": "Token A to get LP token",
          "tokenB": "Token B to get LP token"
        }
      },
      "harvestWMasterChef()": {
        "details": "Harvest SUSHI reward tokens to in-exec position's owner"
      },
      "removeLiquidityWERC20(address,address,(uint256,uint256,uint256,uint256,uint256,uint256,uint256))": {
        "details": "Remove liquidity from Sushiswap pool, with no staking rewards (use WERC20 wrapper)",
        "params": {
          "amt": "Amounts of tokens to take out, withdraw, repay, and get.",
          "tokenA": "Token A for the pair",
          "tokenB": "Token B for the pair"
        }
      },
      "removeLiquidityWMasterChef(address,address,(uint256,uint256,uint256,uint256,uint256,uint256,uint256))": {
        "details": "Remove liquidity from Sushiswap pool, from masterChef staking",
        "params": {
          "amt": "Amounts of tokens to take out, withdraw, repay, and get.",
          "tokenA": "Token A for the pair",
          "tokenB": "Token B for the pair"
        }
      },
      "setPendingGovernor(address)": {
        "details": "Set the pending governor, which will be the governor once accepted.",
        "params": {
          "_pendingGovernor": "The address to become the pending governor."
        }
      },
      "setWhitelistLPTokens(address[],bool[])": {
        "details": "Set whitelist LP token statuses for spell",
        "params": {
          "lpTokens": "LP tokens to set whitelist statuses",
          "statuses": "Whitelist statuses"
        }
      },
      "supportsInterface(bytes4)": {
        "details": "See {IERC165-supportsInterface}. Time complexity O(1), guaranteed to always use less than 30 000 gas."
      }
    },
    "version": 1
  },
  "opcodes": "PUSH1 0x80 PUSH1 0x40 MSTORE PUSH1 0x4 CALLDATASIZE LT PUSH2 0x14F JUMPI PUSH1 0x0 CALLDATALOAD PUSH1 0xE0 SHR DUP1 PUSH4 0x95723B1C GT PUSH2 0xB6 JUMPI DUP1 PUSH4 0xE58BB639 GT PUSH2 0x6F JUMPI DUP1 PUSH4 0xE58BB639 EQ PUSH2 0x39F JUMPI DUP1 PUSH4 0xEE42C6F4 EQ PUSH2 0x3B4 JUMPI DUP1 PUSH4 0xF235757F EQ PUSH2 0x3D4 JUMPI DUP1 PUSH4 0xF23A6E61 EQ PUSH2 0x3F4 JUMPI DUP1 PUSH4 0xF4B16045 EQ PUSH2 0x414 JUMPI DUP1 PUSH4 0xF887EA40 EQ PUSH2 0x434 JUMPI PUSH2 0x1A7 JUMP JUMPDEST DUP1 PUSH4 0x95723B1C EQ PUSH2 0x302 JUMPI DUP1 PUSH4 0xBC197C81 EQ PUSH2 0x322 JUMPI DUP1 PUSH4 0xC45A0155 EQ PUSH2 0x34F JUMPI DUP1 PUSH4 0xCC9B1880 EQ PUSH2 0x364 JUMPI DUP1 PUSH4 0xE07D904E EQ PUSH2 0x377 JUMPI DUP1 PUSH4 0xE3056A34 EQ PUSH2 0x38A JUMPI PUSH2 0x1A7 JUMP JUMPDEST DUP1 PUSH4 0x40A65AD2 GT PUSH2 0x108 JUMPI DUP1 PUSH4 0x40A65AD2 EQ PUSH2 0x26E JUMPI DUP1 PUSH4 0x4BAB09F6 EQ PUSH2 0x283 JUMPI DUP1 PUSH4 0x5741229C EQ PUSH2 0x2A3 JUMPI DUP1 PUSH4 0x69454B86 EQ PUSH2 0x2B8 JUMPI DUP1 PUSH4 0x76CDB03B EQ PUSH2 0x2D8 JUMPI DUP1 PUSH4 0x86ADCC79 EQ PUSH2 0x2ED JUMPI PUSH2 0x1A7 JUMP JUMPDEST DUP1 PUSH4 0x1FFC9A7 EQ PUSH2 0x1AC JUMPI DUP1 PUSH4 0xA087903 EQ PUSH2 0x1E2 JUMPI DUP1 PUSH4 0xC340A24 EQ PUSH2 0x204 JUMPI DUP1 PUSH4 0x1387D96D EQ PUSH2 0x219 JUMPI DUP1 PUSH4 0x2185059F EQ PUSH2 0x239 JUMPI DUP1 PUSH4 0x3FC8CEF3 EQ PUSH2 0x259 JUMPI PUSH2 0x1A7 JUMP JUMPDEST CALLDATASIZE PUSH2 0x1A7 JUMPI CALLER PUSH1 0x1 PUSH1 0x1 PUSH1 0xA0 SHL SUB PUSH32 0x0 AND EQ PUSH2 0x1A5 JUMPI PUSH1 0x40 MLOAD PUSH3 0x461BCD PUSH1 0xE5 SHL DUP2 MSTORE PUSH1 0x4 ADD PUSH2 0x19C SWAP1 PUSH2 0x42D9 JUMP JUMPDEST PUSH1 0x40 MLOAD DUP1 SWAP2 SUB SWAP1 REVERT JUMPDEST STOP JUMPDEST PUSH1 0x0 DUP1 REVERT JUMPDEST CALLVALUE DUP1 ISZERO PUSH2 0x1B8 JUMPI PUSH1 0x0 DUP1 REVERT JUMPDEST POP PUSH2 0x1CC PUSH2 0x1C7 CALLDATASIZE PUSH1 0x4 PUSH2 0x3DB5 JUMP JUMPDEST PUSH2 0x449 JUMP JUMPDEST PUSH1 0x40 MLOAD PUSH2 0x1D9 SWAP2 SWAP1 PUSH2 0x3FE9 JUMP JUMPDEST PUSH1 0x40 MLOAD DUP1 SWAP2 SUB SWAP1 RETURN JUMPDEST CALLVALUE DUP1 ISZERO PUSH2 0x1EE JUMPI PUSH1 0x0 DUP1 REVERT JUMPDEST POP PUSH2 0x1F7 PUSH2 0x46C JUMP JUMPDEST PUSH1 0x40 MLOAD PUSH2 0x1D9 SWAP2 SWAP1 PUSH2 0x3EF8 JUMP JUMPDEST CALLVALUE DUP1 ISZERO PUSH2 0x210 JUMPI PUSH1 0x0 DUP1 REVERT JUMPDEST POP PUSH2 0x1F7 PUSH2 0x490 JUMP JUMPDEST CALLVALUE DUP1 ISZERO PUSH2 0x225 JUMPI PUSH1 0x0 DUP1 REVERT JUMPDEST POP PUSH2 0x1A5 PUSH2 0x234 CALLDATASIZE PUSH1 0x4 PUSH2 0x3B2E JUMP JUMPDEST PUSH2 0x4A5 JUMP JUMPDEST CALLVALUE DUP1 ISZERO PUSH2 0x245 JUMPI PUSH1 0x0 DUP1 REVERT JUMPDEST POP PUSH2 0x1F7 PUSH2 0x254 CALLDATASIZE PUSH1 0x4 PUSH2 0x39A2 JUMP JUMPDEST PUSH2 0x4D0 JUMP JUMPDEST CALLVALUE DUP1 ISZERO PUSH2 0x265 JUMPI PUSH1 0x0 DUP1 REVERT JUMPDEST POP PUSH2 0x1F7 PUSH2 0x6A0 JUMP JUMPDEST CALLVALUE DUP1 ISZERO PUSH2 0x27A JUMPI PUSH1 0x0 DUP1 REVERT JUMPDEST POP PUSH2 0x1A5 PUSH2 0x6C4 JUMP JUMPDEST CALLVALUE DUP1 ISZERO PUSH2 0x28F JUMPI PUSH1 0x0 DUP1 REVERT JUMPDEST POP PUSH2 0x1CC PUSH2 0x29E CALLDATASIZE PUSH1 0x4 PUSH2 0x396A JUMP JUMPDEST PUSH2 0xC93 JUMP JUMPDEST CALLVALUE DUP1 ISZERO PUSH2 0x2AF JUMPI PUSH1 0x0 DUP1 REVERT JUMPDEST POP PUSH2 0x1F7 PUSH2 0xCA8 JUMP JUMPDEST CALLVALUE DUP1 ISZERO PUSH2 0x2C4 JUMPI PUSH1 0x0 DUP1 REVERT JUMPDEST POP PUSH2 0x1F7 PUSH2 0x2D3 CALLDATASIZE PUSH1 0x4 PUSH2 0x39A2 JUMP JUMPDEST PUSH2 0xCCC JUMP JUMPDEST CALLVALUE DUP1 ISZERO PUSH2 0x2E4 JUMPI PUSH1 0x0 DUP1 REVERT JUMPDEST POP PUSH2 0x1F7 PUSH2 0xCF2 JUMP JUMPDEST CALLVALUE DUP1 ISZERO PUSH2 0x2F9 JUMPI PUSH1 0x0 DUP1 REVERT JUMPDEST POP PUSH2 0x1F7 PUSH2 0xD16 JUMP JUMPDEST CALLVALUE DUP1 ISZERO PUSH2 0x30E JUMPI PUSH1 0x0 DUP1 REVERT JUMPDEST POP PUSH2 0x1A5 PUSH2 0x31D CALLDATASIZE PUSH1 0x4 PUSH2 0x3B2E JUMP JUMPDEST PUSH2 0xD3A JUMP JUMPDEST CALLVALUE DUP1 ISZERO PUSH2 0x32E JUMPI PUSH1 0x0 DUP1 REVERT JUMPDEST POP PUSH2 0x342 PUSH2 0x33D CALLDATASIZE PUSH1 0x4 PUSH2 0x39DA JUMP JUMPDEST PUSH2 0x1059 JUMP JUMPDEST PUSH1 0x40 MLOAD PUSH2 0x1D9 SWAP2 SWAP1 PUSH2 0x3FF4 JUMP JUMPDEST CALLVALUE DUP1 ISZERO PUSH2 0x35B JUMPI PUSH1 0x0 DUP1 REVERT JUMPDEST POP PUSH2 0x1F7 PUSH2 0x106D JUMP JUMPDEST PUSH2 0x1A5 PUSH2 0x372 CALLDATASIZE PUSH1 0x4 PUSH2 0x3A95 JUMP JUMPDEST PUSH2 0x1091 JUMP JUMPDEST PUSH2 0x1A5 PUSH2 0x385 CALLDATASIZE PUSH1 0x4 PUSH2 0x3ADD JUMP JUMPDEST PUSH2 0x114A JUMP JUMPDEST CALLVALUE DUP1 ISZERO PUSH2 0x396 JUMPI PUSH1 0x0 DUP1 REVERT JUMPDEST POP PUSH2 0x1F7 PUSH2 0x17E4 JUMP JUMPDEST CALLVALUE DUP1 ISZERO PUSH2 0x3AB JUMPI PUSH1 0x0 DUP1 REVERT JUMPDEST POP PUSH2 0x1A5 PUSH2 0x17F3 JUMP JUMPDEST CALLVALUE DUP1 ISZERO PUSH2 0x3C0 JUMPI PUSH1 0x0 DUP1 REVERT JUMPDEST POP PUSH2 0x1A5 PUSH2 0x3CF CALLDATASIZE PUSH1 0x4 PUSH2 0x3C7F JUMP JUMPDEST PUSH2 0x1883 JUMP JUMPDEST CALLVALUE DUP1 ISZERO PUSH2 0x3E0 JUMPI PUSH1 0x0 DUP1 REVERT JUMPDEST POP PUSH2 0x1A5 PUSH2 0x3EF CALLDATASIZE PUSH1 0x4 PUSH2 0x396A JUMP JUMPDEST PUSH2 0x1A58 JUMP JUMPDEST CALLVALUE DUP1 ISZERO PUSH2 0x400 JUMPI PUSH1 0x0 DUP1 REVERT JUMPDEST POP PUSH2 0x342 PUSH2 0x40F CALLDATASIZE PUSH1 0x4 PUSH2 0x3BC7 JUMP JUMPDEST PUSH2 0x1ADE JUMP JUMPDEST CALLVALUE DUP1 ISZERO PUSH2 0x420 JUMPI PUSH1 0x0 DUP1 REVERT JUMPDEST POP PUSH2 0x1CC PUSH2 0x42F CALLDATASIZE PUSH1 0x4 PUSH2 0x39A2 JUMP JUMPDEST PUSH2 0x1AF0 JUMP JUMPDEST CALLVALUE DUP1 ISZERO PUSH2 0x440 JUMPI PUSH1 0x0 DUP1 REVERT JUMPDEST POP PUSH2 0x1F7 PUSH2 0x1B10 JUMP JUMPDEST PUSH1 0x1 PUSH1 0x1 PUSH1 0xE0 SHL SUB NOT DUP2 AND PUSH1 0x0 SWAP1 DUP2 MSTORE PUSH1 0x20 DUP2 SWAP1 MSTORE PUSH1 0x40 SWAP1 KECCAK256 SLOAD PUSH1 0xFF AND JUMPDEST SWAP2 SWAP1 POP JUMP JUMPDEST PUSH32 0x0 DUP2 JUMP JUMPDEST PUSH1 0x42 SLOAD PUSH3 0x10000 SWAP1 DIV PUSH1 0x1 PUSH1 0x1 PUSH1 0xA0 SHL SUB AND DUP2 JUMP JUMPDEST PUSH1 0x0 PUSH2 0x4B1 DUP5 DUP5 PUSH2 0x4D0 JUMP JUMPDEST SWAP1 POP PUSH2 0x4BE DUP2 DUP4 CALLDATALOAD PUSH2 0x1C52 JUMP JUMPDEST PUSH2 0x4CA DUP5 DUP5 DUP5 DUP5 PUSH2 0x1E1D JUMP JUMPDEST POP POP POP POP JUMP JUMPDEST PUSH1 0x1 PUSH1 0x1 PUSH1 0xA0 SHL SUB DUP1 DUP4 AND PUSH1 0x0 SWAP1 DUP2 MSTORE PUSH1 0x85 PUSH1 0x20 SWAP1 DUP2 MSTORE PUSH1 0x40 DUP1 DUP4 KECCAK256 DUP6 DUP6 AND DUP5 MSTORE SWAP1 SWAP2 MSTORE DUP2 KECCAK256 SLOAD SWAP1 SWAP2 AND DUP1 PUSH2 0x697 JUMPI PUSH1 0x40 MLOAD PUSH4 0xE6A43905 PUSH1 0xE0 SHL DUP2 MSTORE PUSH1 0x1 PUSH1 0x1 PUSH1 0xA0 SHL SUB PUSH32 0x0 AND SWAP1 PUSH4 0xE6A43905 SWAP1 PUSH2 0x54D SWAP1 DUP8 SWAP1 DUP8 SWAP1 PUSH1 0x4 ADD PUSH2 0x3F0C JUMP JUMPDEST PUSH1 0x20 PUSH1 0x40 MLOAD DUP1 DUP4 SUB DUP2 DUP7 DUP1 EXTCODESIZE ISZERO DUP1 ISZERO PUSH2 0x565 JUMPI PUSH1 0x0 DUP1 REVERT JUMPDEST POP GAS STATICCALL ISZERO DUP1 ISZERO PUSH2 0x579 JUMPI RETURNDATASIZE PUSH1 0x0 DUP1 RETURNDATACOPY RETURNDATASIZE PUSH1 0x0 REVERT JUMPDEST POP POP POP POP PUSH1 0x40 MLOAD RETURNDATASIZE PUSH1 0x1F NOT PUSH1 0x1F DUP3 ADD AND DUP3 ADD DUP1 PUSH1 0x40 MSTORE POP DUP2 ADD SWAP1 PUSH2 0x59D SWAP2 SWAP1 PUSH2 0x3986 JUMP JUMPDEST SWAP1 POP PUSH1 0x1 PUSH1 0x1 PUSH1 0xA0 SHL SUB DUP2 AND PUSH2 0x5C5 JUMPI PUSH1 0x40 MLOAD PUSH3 0x461BCD PUSH1 0xE5 SHL DUP2 MSTORE PUSH1 0x4 ADD PUSH2 0x19C SWAP1 PUSH2 0x4251 JUMP JUMPDEST PUSH2 0x5EF DUP5 PUSH32 0x0 PUSH2 0x26B8 JUMP JUMPDEST PUSH2 0x619 DUP4 PUSH32 0x0 PUSH2 0x26B8 JUMP JUMPDEST PUSH2 0x643 DUP2 PUSH32 0x0 PUSH2 0x26B8 JUMP JUMPDEST PUSH1 0x1 PUSH1 0x1 PUSH1 0xA0 SHL SUB DUP1 DUP6 AND PUSH1 0x0 DUP2 DUP2 MSTORE PUSH1 0x85 PUSH1 0x20 DUP2 DUP2 MSTORE PUSH1 0x40 DUP1 DUP5 KECCAK256 DUP10 DUP8 AND DUP6 MSTORE DUP3 MSTORE DUP1 DUP5 KECCAK256 DUP1 SLOAD SWAP7 DUP9 AND PUSH1 0x1 PUSH1 0x1 PUSH1 0xA0 SHL SUB NOT SWAP8 DUP9 AND DUP2 OR SWAP1 SWAP2 SSTORE SWAP3 DUP3 MSTORE DUP1 DUP5 KECCAK256 SWAP5 DUP5 MSTORE SWAP4 SWAP1 MSTORE SWAP2 SWAP1 KECCAK256 DUP1 SLOAD SWAP1 SWAP3 AND OR SWAP1 SSTORE JUMPDEST SWAP1 POP JUMPDEST SWAP3 SWAP2 POP POP JUMP JUMPDEST PUSH32 0x0 DUP2 JUMP JUMPDEST PUSH1 0x0 DUP1 PUSH32 0x0 PUSH1 0x1 PUSH1 0x1 PUSH1 0xA0 SHL SUB AND PUSH4 0xF70AEDD9 PUSH1 0x40 MLOAD DUP2 PUSH4 0xFFFFFFFF AND PUSH1 0xE0 SHL DUP2 MSTORE PUSH1 0x4 ADD PUSH1 0x80 PUSH1 0x40 MLOAD DUP1 DUP4 SUB DUP2 DUP7 DUP1 EXTCODESIZE ISZERO DUP1 ISZERO PUSH2 0x720 JUMPI PUSH1 0x0 DUP1 REVERT JUMPDEST POP GAS STATICCALL ISZERO DUP1 ISZERO PUSH2 0x734 JUMPI RETURNDATASIZE PUSH1 0x0 DUP1 RETURNDATACOPY RETURNDATASIZE PUSH1 0x0 REVERT JUMPDEST POP POP POP POP PUSH1 0x40 MLOAD RETURNDATASIZE PUSH1 0x1F NOT PUSH1 0x1F DUP3 ADD AND DUP3 ADD DUP1 PUSH1 0x40 MSTORE POP DUP2 ADD SWAP1 PUSH2 0x758 SWAP2 SWAP1 PUSH2 0x3B80 JUMP JUMPDEST POP SWAP3 POP SWAP3 POP POP PUSH1 0x0 PUSH32 0x0 PUSH1 0x1 PUSH1 0x1 PUSH1 0xA0 SHL SUB AND PUSH4 0xDC20C6FA DUP4 PUSH1 0x40 MLOAD DUP3 PUSH4 0xFFFFFFFF AND PUSH1 0xE0 SHL DUP2 MSTORE PUSH1 0x4 ADD PUSH2 0x7AC SWAP2 SWAP1 PUSH2 0x450A JUMP JUMPDEST PUSH1 0x40 DUP1 MLOAD DUP1 DUP4 SUB DUP2 DUP7 DUP1 EXTCODESIZE ISZERO DUP1 ISZERO PUSH2 0x7C3 JUMPI PUSH1 0x0 DUP1 REVERT JUMPDEST POP GAS STATICCALL ISZERO DUP1 ISZERO PUSH2 0x7D7 JUMPI RETURNDATASIZE PUSH1 0x0 DUP1 RETURNDATACOPY RETURNDATASIZE PUSH1 0x0 REVERT JUMPDEST POP POP POP POP PUSH1 0x40 MLOAD RETURNDATASIZE PUSH1 0x1F NOT PUSH1 0x1F DUP3 ADD AND DUP3 ADD DUP1 PUSH1 0x40 MSTORE POP DUP2 ADD SWAP1 PUSH2 0x7FB SWAP2 SWAP1 PUSH2 0x3E49 JUMP JUMPDEST POP SWAP1 POP PUSH1 0x0 PUSH32 0x0 PUSH1 0x1 PUSH1 0x1 PUSH1 0xA0 SHL SUB AND PUSH4 0xA4775772 DUP5 PUSH1 0x40 MLOAD DUP3 PUSH4 0xFFFFFFFF AND PUSH1 0xE0 SHL DUP2 MSTORE PUSH1 0x4 ADD PUSH2 0x84C SWAP2 SWAP1 PUSH2 0x450A JUMP JUMPDEST PUSH1 0x20 PUSH1 0x40 MLOAD DUP1 DUP4 SUB DUP2 DUP7 DUP1 EXTCODESIZE ISZERO DUP1 ISZERO PUSH2 0x864 JUMPI PUSH1 0x0 DUP1 REVERT JUMPDEST POP GAS STATICCALL ISZERO DUP1 ISZERO PUSH2 0x878 JUMPI RETURNDATASIZE PUSH1 0x0 DUP1 RETURNDATACOPY RETURNDATASIZE PUSH1 0x0 REVERT JUMPDEST POP POP POP POP PUSH1 0x40 MLOAD RETURNDATASIZE PUSH1 0x1F NOT PUSH1 0x1F DUP3 ADD AND DUP3 ADD DUP1 PUSH1 0x40 MSTORE POP DUP2 ADD SWAP1 PUSH2 0x89C SWAP2 SWAP1 PUSH2 0x3986 JUMP JUMPDEST PUSH1 0x1 PUSH1 0x1 PUSH1 0xA0 SHL SUB DUP2 AND PUSH1 0x0 SWAP1 DUP2 MSTORE PUSH1 0x84 PUSH1 0x20 MSTORE PUSH1 0x40 SWAP1 KECCAK256 SLOAD SWAP1 SWAP2 POP PUSH1 0xFF AND PUSH2 0x8D7 JUMPI PUSH1 0x40 MLOAD PUSH3 0x461BCD PUSH1 0xE5 SHL DUP2 MSTORE PUSH1 0x4 ADD PUSH2 0x19C SWAP1 PUSH2 0x42A2 JUMP JUMPDEST PUSH32 0x0 PUSH1 0x1 PUSH1 0x1 PUSH1 0xA0 SHL SUB AND DUP5 PUSH1 0x1 PUSH1 0x1 PUSH1 0xA0 SHL SUB AND EQ PUSH2 0x928 JUMPI PUSH1 0x40 MLOAD PUSH3 0x461BCD PUSH1 0xE5 SHL DUP2 MSTORE PUSH1 0x4 ADD PUSH2 0x19C SWAP1 PUSH2 0x4373 JUMP JUMPDEST PUSH1 0x40 MLOAD PUSH4 0xD1D6975 PUSH1 0xE3 SHL DUP2 MSTORE PUSH1 0x1 PUSH1 0x1 PUSH1 0xA0 SHL SUB PUSH32 0x0 AND SWAP1 PUSH4 0x68EB4BA8 SWAP1 PUSH2 0x99A SWAP1 PUSH32 0x0 SWAP1 DUP8 SWAP1 PUSH1 0x0 NOT SWAP1 PUSH1 0x4 ADD PUSH2 0x3FC8 JUMP JUMPDEST PUSH1 0x0 PUSH1 0x40 MLOAD DUP1 DUP4 SUB DUP2 PUSH1 0x0 DUP8 DUP1 EXTCODESIZE ISZERO DUP1 ISZERO PUSH2 0x9B4 JUMPI PUSH1 0x0 DUP1 REVERT JUMPDEST POP GAS CALL ISZERO DUP1 ISZERO PUSH2 0x9C8 JUMPI RETURNDATASIZE PUSH1 0x0 DUP1 RETURNDATACOPY RETURNDATASIZE PUSH1 0x0 REVERT JUMPDEST POP POP PUSH1 0x40 MLOAD PUSH4 0xB390C0AB PUSH1 0xE0 SHL DUP2 MSTORE PUSH1 0x1 PUSH1 0x1 PUSH1 0xA0 SHL SUB PUSH32 0x0 AND SWAP3 POP PUSH4 0xB390C0AB SWAP2 POP PUSH2 0xA1C SWAP1 DUP7 SWAP1 PUSH1 0x0 NOT SWAP1 PUSH1 0x4 ADD PUSH2 0x4566 JUMP JUMPDEST PUSH1 0x20 PUSH1 0x40 MLOAD DUP1 DUP4 SUB DUP2 PUSH1 0x0 DUP8 DUP1 EXTCODESIZE ISZERO DUP1 ISZERO PUSH2 0xA36 JUMPI PUSH1 0x0 DUP1 REVERT JUMPDEST POP GAS CALL ISZERO DUP1 ISZERO PUSH2 0xA4A JUMPI RETURNDATASIZE PUSH1 0x0 DUP1 RETURNDATACOPY RETURNDATASIZE PUSH1 0x0 REVERT JUMPDEST POP POP POP POP PUSH1 0x40 MLOAD RETURNDATASIZE PUSH1 0x1F NOT PUSH1 0x1F DUP3 ADD AND DUP3 ADD DUP1 PUSH1 0x40 MSTORE POP DUP2 ADD SWAP1 PUSH2 0xA6E SWAP2 SWAP1 PUSH2 0x3E31 JUMP JUMPDEST POP PUSH1 0x40 MLOAD PUSH4 0x70A08231 PUSH1 0xE0 SHL DUP2 MSTORE PUSH1 0x0 SWAP1 PUSH1 0x1 PUSH1 0x1 PUSH1 0xA0 SHL SUB DUP4 AND SWAP1 PUSH4 0x70A08231 SWAP1 PUSH2 0xA9E SWAP1 ADDRESS SWAP1 PUSH1 0x4 ADD PUSH2 0x3EF8 JUMP JUMPDEST PUSH1 0x20 PUSH1 0x40 MLOAD DUP1 DUP4 SUB DUP2 DUP7 DUP1 EXTCODESIZE ISZERO DUP1 ISZERO PUSH2 0xAB6 JUMPI PUSH1 0x0 DUP1 REVERT JUMPDEST POP GAS STATICCALL ISZERO DUP1 ISZERO PUSH2 0xACA JUMPI RETURNDATASIZE PUSH1 0x0 DUP1 RETURNDATACOPY RETURNDATASIZE PUSH1 0x0 REVERT JUMPDEST POP POP POP POP PUSH1 0x40 MLOAD RETURNDATASIZE PUSH1 0x1F NOT PUSH1 0x1F DUP3 ADD AND DUP3 ADD DUP1 PUSH1 0x40 MSTORE POP DUP2 ADD SWAP1 PUSH2 0xAEE SWAP2 SWAP1 PUSH2 0x3E31 JUMP JUMPDEST SWAP1 POP PUSH2 0xB1A DUP3 PUSH32 0x0 PUSH2 0x26B8 JUMP JUMPDEST PUSH1 0x40 MLOAD PUSH4 0xD9778E5 PUSH1 0xE1 SHL DUP2 MSTORE PUSH1 0x0 SWAP1 PUSH1 0x1 PUSH1 0x1 PUSH1 0xA0 SHL SUB PUSH32 0x0 AND SWAP1 PUSH4 0x1B2EF1CA SWAP1 PUSH2 0xB6B SWAP1 DUP8 SWAP1 DUP7 SWAP1 PUSH1 0x4 ADD PUSH2 0x4566 JUMP JUMPDEST PUSH1 0x20 PUSH1 0x40 MLOAD DUP1 DUP4 SUB DUP2 PUSH1 0x0 DUP8 DUP1 EXTCODESIZE ISZERO DUP1 ISZERO PUSH2 0xB85 JUMPI PUSH1 0x0 DUP1 REVERT JUMPDEST POP GAS CALL ISZERO DUP1 ISZERO PUSH2 0xB99 JUMPI RETURNDATASIZE PUSH1 0x0 DUP1 RETURNDATACOPY RETURNDATASIZE PUSH1 0x0 REVERT JUMPDEST POP POP POP POP PUSH1 0x40 MLOAD RETURNDATASIZE PUSH1 0x1F NOT PUSH1 0x1F DUP3 ADD AND DUP3 ADD DUP1 PUSH1 0x40 MSTORE POP DUP2 ADD SWAP1 PUSH2 0xBBD SWAP2 SWAP1 PUSH2 0x3E31 JUMP JUMPDEST PUSH1 0x40 MLOAD PUSH4 0x314568D9 PUSH1 0xE0 SHL DUP2 MSTORE SWAP1 SWAP2 POP PUSH1 0x1 PUSH1 0x1 PUSH1 0xA0 SHL SUB PUSH32 0x0 AND SWAP1 PUSH4 0x314568D9 SWAP1 PUSH2 0xC30 SWAP1 PUSH32 0x0 SWAP1 DUP6 SWAP1 DUP8 SWAP1 PUSH1 0x4 ADD PUSH2 0x3FC8 JUMP JUMPDEST PUSH1 0x0 PUSH1 0x40 MLOAD DUP1 DUP4 SUB DUP2 PUSH1 0x0 DUP8 DUP1 EXTCODESIZE ISZERO DUP1 ISZERO PUSH2 0xC4A JUMPI PUSH1 0x0 DUP1 REVERT JUMPDEST POP GAS CALL ISZERO DUP1 ISZERO PUSH2 0xC5E JUMPI RETURNDATASIZE PUSH1 0x0 DUP1 RETURNDATACOPY RETURNDATASIZE PUSH1 0x0 REVERT JUMPDEST POP POP POP POP PUSH2 0xC8B PUSH32 0x0 PUSH2 0x272F JUMP JUMPDEST POP POP POP POP POP POP JUMP JUMPDEST PUSH1 0x84 PUSH1 0x20 MSTORE PUSH1 0x0 SWAP1 DUP2 MSTORE PUSH1 0x40 SWAP1 KECCAK256 SLOAD PUSH1 0xFF AND DUP2 JUMP JUMPDEST PUSH32 0x0 DUP2 JUMP JUMPDEST PUSH1 0x85 PUSH1 0x20 SWAP1 DUP2 MSTORE PUSH1 0x0 SWAP3 DUP4 MSTORE PUSH1 0x40 DUP1 DUP5 KECCAK256 SWAP1 SWAP2 MSTORE SWAP1 DUP3 MSTORE SWAP1 KECCAK256 SLOAD PUSH1 0x1 PUSH1 0x1 PUSH1 0xA0 SHL SUB AND DUP2 JUMP JUMPDEST PUSH32 0x0 DUP2 JUMP JUMPDEST PUSH32 0x0 DUP2 JUMP JUMPDEST PUSH1 0x0 PUSH2 0xD46 DUP5 DUP5 PUSH2 0x4D0 JUMP JUMPDEST SWAP1 POP PUSH1 0x0 DUP1 PUSH32 0x0 PUSH1 0x1 PUSH1 0x1 PUSH1 0xA0 SHL SUB AND PUSH4 0xF70AEDD9 PUSH1 0x40 MLOAD DUP2 PUSH4 0xFFFFFFFF AND PUSH1 0xE0 SHL DUP2 MSTORE PUSH1 0x4 ADD PUSH1 0x80 PUSH1 0x40 MLOAD DUP1 DUP4 SUB DUP2 DUP7 DUP1 EXTCODESIZE ISZERO DUP1 ISZERO PUSH2 0xDA4 JUMPI PUSH1 0x0 DUP1 REVERT JUMPDEST POP GAS STATICCALL ISZERO DUP1 ISZERO PUSH2 0xDB8 JUMPI RETURNDATASIZE PUSH1 0x0 DUP1 RETURNDATACOPY RETURNDATASIZE PUSH1 0x0 REVERT JUMPDEST POP POP POP POP PUSH1 0x40 MLOAD RETURNDATASIZE PUSH1 0x1F NOT PUSH1 0x1F DUP3 ADD AND DUP3 ADD DUP1 PUSH1 0x40 MSTORE POP DUP2 ADD SWAP1 PUSH2 0xDDC SWAP2 SWAP1 PUSH2 0x3B80 JUMP JUMPDEST POP SWAP3 POP SWAP3 POP POP DUP3 PUSH1 0x1 PUSH1 0x1 PUSH1 0xA0 SHL SUB AND DUP3 PUSH1 0x1 PUSH1 0x1 PUSH1 0xA0 SHL SUB AND PUSH4 0xA4775772 DUP4 PUSH1 0x40 MLOAD DUP3 PUSH4 0xFFFFFFFF AND PUSH1 0xE0 SHL DUP2 MSTORE PUSH1 0x4 ADD PUSH2 0xE18 SWAP2 SWAP1 PUSH2 0x450A JUMP JUMPDEST PUSH1 0x20 PUSH1 0x40 MLOAD DUP1 DUP4 SUB DUP2 DUP7 DUP1 EXTCODESIZE ISZERO DUP1 ISZERO PUSH2 0xE30 JUMPI PUSH1 0x0 DUP1 REVERT JUMPDEST POP GAS STATICCALL ISZERO DUP1 ISZERO PUSH2 0xE44 JUMPI RETURNDATASIZE PUSH1 0x0 DUP1 RETURNDATACOPY RETURNDATASIZE PUSH1 0x0 REVERT JUMPDEST POP POP POP POP PUSH1 0x40 MLOAD RETURNDATASIZE PUSH1 0x1F NOT PUSH1 0x1F DUP3 ADD AND DUP3 ADD DUP1 PUSH1 0x40 MSTORE POP DUP2 ADD SWAP1 PUSH2 0xE68 SWAP2 SWAP1 PUSH2 0x3986 JUMP JUMPDEST PUSH1 0x1 PUSH1 0x1 PUSH1 0xA0 SHL SUB AND EQ PUSH2 0xE8E JUMPI PUSH1 0x40 MLOAD PUSH3 0x461BCD PUSH1 0xE5 SHL DUP2 MSTORE PUSH1 0x4 ADD PUSH2 0x19C SWAP1 PUSH2 0x443C JUMP JUMPDEST PUSH32 0x0 PUSH1 0x1 PUSH1 0x1 PUSH1 0xA0 SHL SUB AND DUP3 PUSH1 0x1 PUSH1 0x1 PUSH1 0xA0 SHL SUB AND EQ PUSH2 0xEDF JUMPI PUSH1 0x40 MLOAD PUSH3 0x461BCD PUSH1 0xE5 SHL DUP2 MSTORE PUSH1 0x4 ADD PUSH2 0x19C SWAP1 PUSH2 0x4373 JUMP JUMPDEST PUSH1 0x40 MLOAD PUSH4 0xD1D6975 PUSH1 0xE3 SHL DUP2 MSTORE PUSH1 0x1 PUSH1 0x1 PUSH1 0xA0 SHL SUB PUSH32 0x0 AND SWAP1 PUSH4 0x68EB4BA8 SWAP1 PUSH2 0xF50 SWAP1 PUSH32 0x0 SWAP1 DUP6 SWAP1 DUP10 CALLDATALOAD SWAP1 PUSH1 0x4 ADD PUSH2 0x3FC8 JUMP JUMPDEST PUSH1 0x0 PUSH1 0x40 MLOAD DUP1 DUP4 SUB DUP2 PUSH1 0x0 DUP8 DUP1 EXTCODESIZE ISZERO DUP1 ISZERO PUSH2 0xF6A JUMPI PUSH1 0x0 DUP1 REVERT JUMPDEST POP GAS CALL ISZERO DUP1 ISZERO PUSH2 0xF7E JUMPI RETURNDATASIZE PUSH1 0x0 DUP1 RETURNDATACOPY RETURNDATASIZE PUSH1 0x0 REVERT JUMPDEST POP POP PUSH1 0x40 MLOAD PUSH4 0xB390C0AB PUSH1 0xE0 SHL DUP2 MSTORE PUSH1 0x1 PUSH1 0x1 PUSH1 0xA0 SHL SUB PUSH32 0x0 AND SWAP3 POP PUSH4 0xB390C0AB SWAP2 POP PUSH2 0xFD1 SWAP1 DUP5 SWAP1 DUP9 CALLDATALOAD SWAP1 PUSH1 0x4 ADD PUSH2 0x4566 JUMP JUMPDEST PUSH1 0x20 PUSH1 0x40 MLOAD DUP1 DUP4 SUB DUP2 PUSH1 0x0 DUP8 DUP1 EXTCODESIZE ISZERO DUP1 ISZERO PUSH2 0xFEB JUMPI PUSH1 0x0 DUP1 REVERT JUMPDEST POP GAS CALL ISZERO DUP1 ISZERO PUSH2 0xFFF JUMPI RETURNDATASIZE PUSH1 0x0 DUP1 RETURNDATACOPY RETURNDATASIZE PUSH1 0x0 REVERT JUMPDEST POP POP POP POP PUSH1 0x40 MLOAD RETURNDATASIZE PUSH1 0x1F NOT PUSH1 0x1F DUP3 ADD AND DUP3 ADD DUP1 PUSH1 0x40 MSTORE POP DUP2 ADD SWAP1 PUSH2 0x1023 SWAP2 SWAP1 PUSH2 0x3E31 JUMP JUMPDEST POP PUSH2 0x1030 DUP7 DUP7 DUP7 DUP7 PUSH2 0x1E1D JUMP JUMPDEST PUSH2 0xC8B PUSH32 0x0 PUSH2 0x272F JUMP JUMPDEST PUSH4 0xBC197C81 PUSH1 0xE0 SHL SWAP9 SWAP8 POP POP POP POP POP POP POP POP JUMP JUMPDEST PUSH32 0x0 DUP2 JUMP JUMPDEST PUSH1 0x0 PUSH2 0x109D DUP5 DUP5 PUSH2 0x4D0 JUMP JUMPDEST SWAP1 POP PUSH2 0x10AB DUP5 DUP5 DUP5 DUP5 PUSH2 0x285B JUMP JUMPDEST PUSH2 0x1130 DUP2 DUP3 PUSH1 0x1 PUSH1 0x1 PUSH1 0xA0 SHL SUB AND PUSH4 0x70A08231 ADDRESS PUSH1 0x40 MLOAD DUP3 PUSH4 0xFFFFFFFF AND PUSH1 0xE0 SHL DUP2 MSTORE PUSH1 0x4 ADD PUSH2 0x10DB SWAP2 SWAP1 PUSH2 0x3EF8 JUMP JUMPDEST PUSH1 0x20 PUSH1 0x40 MLOAD DUP1 DUP4 SUB DUP2 DUP7 DUP1 EXTCODESIZE ISZERO DUP1 ISZERO PUSH2 0x10F3 JUMPI PUSH1 0x0 DUP1 REVERT JUMPDEST POP GAS STATICCALL ISZERO DUP1 ISZERO PUSH2 0x1107 JUMPI RETURNDATASIZE PUSH1 0x0 DUP1 RETURNDATACOPY RETURNDATASIZE PUSH1 0x0 REVERT JUMPDEST POP POP POP POP PUSH1 0x40 MLOAD RETURNDATASIZE PUSH1 0x1F NOT PUSH1 0x1F DUP3 ADD AND DUP3 ADD DUP1 PUSH1 0x40 MSTORE POP DUP2 ADD SWAP1 PUSH2 0x112B SWAP2 SWAP1 PUSH2 0x3E31 JUMP JUMPDEST PUSH2 0x2ED1 JUMP JUMPDEST PUSH2 0x1138 PUSH2 0x2FF3 JUMP JUMPDEST PUSH2 0x1141 DUP5 PUSH2 0x272F JUMP JUMPDEST PUSH2 0x4CA DUP4 PUSH2 0x272F JUMP JUMPDEST PUSH1 0x0 PUSH2 0x1156 DUP6 DUP6 PUSH2 0x4D0 JUMP JUMPDEST SWAP1 POP PUSH1 0x0 PUSH32 0x0 PUSH1 0x1 PUSH1 0x1 PUSH1 0xA0 SHL SUB AND PUSH4 0x1FC8BC5D PUSH1 0x40 MLOAD DUP2 PUSH4 0xFFFFFFFF AND PUSH1 0xE0 SHL DUP2 MSTORE PUSH1 0x4 ADD PUSH1 0x20 PUSH1 0x40 MLOAD DUP1 DUP4 SUB DUP2 DUP7 DUP1 EXTCODESIZE ISZERO DUP1 ISZERO PUSH2 0x11B3 JUMPI PUSH1 0x0 DUP1 REVERT JUMPDEST POP GAS STATICCALL ISZERO DUP1 ISZERO PUSH2 0x11C7 JUMPI RETURNDATASIZE PUSH1 0x0 DUP1 RETURNDATACOPY RETURNDATASIZE PUSH1 0x0 REVERT JUMPDEST POP POP POP POP PUSH1 0x40 MLOAD RETURNDATASIZE PUSH1 0x1F NOT PUSH1 0x1F DUP3 ADD AND DUP3 ADD DUP1 PUSH1 0x40 MSTORE POP DUP2 ADD SWAP1 PUSH2 0x11EB SWAP2 SWAP1 PUSH2 0x3986 JUMP JUMPDEST PUSH1 0x1 PUSH1 0x1 PUSH1 0xA0 SHL SUB AND PUSH4 0x1526FE27 DUP5 PUSH1 0x40 MLOAD DUP3 PUSH4 0xFFFFFFFF AND PUSH1 0xE0 SHL DUP2 MSTORE PUSH1 0x4 ADD PUSH2 0x1216 SWAP2 SWAP1 PUSH2 0x450A JUMP JUMPDEST PUSH1 0x80 PUSH1 0x40 MLOAD DUP1 DUP4 SUB DUP2 DUP7 DUP1 EXTCODESIZE ISZERO DUP1 ISZERO PUSH2 0x122E JUMPI PUSH1 0x0 DUP1 REVERT JUMPDEST POP GAS STATICCALL ISZERO DUP1 ISZERO PUSH2 0x1242 JUMPI RETURNDATASIZE PUSH1 0x0 DUP1 RETURNDATACOPY RETURNDATASIZE PUSH1 0x0 REVERT JUMPDEST POP POP POP POP PUSH1 0x40 MLOAD RETURNDATASIZE PUSH1 0x1F NOT PUSH1 0x1F DUP3 ADD AND DUP3 ADD DUP1 PUSH1 0x40 MSTORE POP DUP2 ADD SWAP1 PUSH2 0x1266 SWAP2 SWAP1 PUSH2 0x3C41 JUMP JUMPDEST POP POP POP SWAP1 POP DUP2 PUSH1 0x1 PUSH1 0x1 PUSH1 0xA0 SHL SUB AND DUP2 PUSH1 0x1 PUSH1 0x1 PUSH1 0xA0 SHL SUB AND EQ PUSH2 0x129C JUMPI PUSH1 0x40 MLOAD PUSH3 0x461BCD PUSH1 0xE5 SHL DUP2 MSTORE PUSH1 0x4 ADD PUSH2 0x19C SWAP1 PUSH2 0x4276 JUMP JUMPDEST PUSH2 0x12A8 DUP7 DUP7 DUP7 DUP6 PUSH2 0x285B JUMP JUMPDEST PUSH1 0x0 DUP1 PUSH1 0x0 PUSH32 0x0 PUSH1 0x1 PUSH1 0x1 PUSH1 0xA0 SHL SUB AND PUSH4 0xF70AEDD9 PUSH1 0x40 MLOAD DUP2 PUSH4 0xFFFFFFFF AND PUSH1 0xE0 SHL DUP2 MSTORE PUSH1 0x4 ADD PUSH1 0x80 PUSH1 0x40 MLOAD DUP1 DUP4 SUB DUP2 DUP7 DUP1 EXTCODESIZE ISZERO DUP1 ISZERO PUSH2 0x1306 JUMPI PUSH1 0x0 DUP1 REVERT JUMPDEST POP GAS STATICCALL ISZERO DUP1 ISZERO PUSH2 0x131A JUMPI RETURNDATASIZE PUSH1 0x0 DUP1 RETURNDATACOPY RETURNDATASIZE PUSH1 0x0 REVERT JUMPDEST POP POP POP POP PUSH1 0x40 MLOAD RETURNDATASIZE PUSH1 0x1F NOT PUSH1 0x1F DUP3 ADD AND DUP3 ADD DUP1 PUSH1 0x40 MSTORE POP DUP2 ADD SWAP1 PUSH2 0x133E SWAP2 SWAP1 PUSH2 0x3B80 JUMP JUMPDEST SWAP2 SWAP6 POP SWAP4 POP SWAP2 POP POP DUP1 ISZERO PUSH2 0x15A2 JUMPI PUSH1 0x40 MLOAD PUSH4 0x6E10637D PUSH1 0xE1 SHL DUP2 MSTORE PUSH1 0x0 SWAP1 PUSH1 0x1 PUSH1 0x1 PUSH1 0xA0 SHL SUB PUSH32 0x0 AND SWAP1 PUSH4 0xDC20C6FA SWAP1 PUSH2 0x139B SWAP1 DUP7 SWAP1 PUSH1 0x4 ADD PUSH2 0x450A JUMP JUMPDEST PUSH1 0x40 DUP1 MLOAD DUP1 DUP4 SUB DUP2 DUP7 DUP1 EXTCODESIZE ISZERO DUP1 ISZERO PUSH2 0x13B2 JUMPI PUSH1 0x0 DUP1 REVERT JUMPDEST POP GAS STATICCALL ISZERO DUP1 ISZERO PUSH2 0x13C6 JUMPI RETURNDATASIZE PUSH1 0x0 DUP1 RETURNDATACOPY RETURNDATASIZE PUSH1 0x0 REVERT JUMPDEST POP POP POP POP PUSH1 0x40 MLOAD RETURNDATASIZE PUSH1 0x1F NOT PUSH1 0x1F DUP3 ADD AND DUP3 ADD DUP1 PUSH1 0x40 MSTORE POP DUP2 ADD SWAP1 PUSH2 0x13EA SWAP2 SWAP1 PUSH2 0x3E49 JUMP JUMPDEST POP SWAP1 POP DUP1 DUP8 EQ PUSH2 0x140C JUMPI PUSH1 0x40 MLOAD PUSH3 0x461BCD PUSH1 0xE5 SHL DUP2 MSTORE PUSH1 0x4 ADD PUSH2 0x19C SWAP1 PUSH2 0x43DE JUMP JUMPDEST PUSH32 0x0 PUSH1 0x1 PUSH1 0x1 PUSH1 0xA0 SHL SUB AND DUP5 PUSH1 0x1 PUSH1 0x1 PUSH1 0xA0 SHL SUB AND EQ PUSH2 0x145D JUMPI PUSH1 0x40 MLOAD PUSH3 0x461BCD PUSH1 0xE5 SHL DUP2 MSTORE PUSH1 0x4 ADD PUSH2 0x19C SWAP1 PUSH2 0x4373 JUMP JUMPDEST PUSH1 0x40 MLOAD PUSH4 0xD1D6975 PUSH1 0xE3 SHL DUP2 MSTORE PUSH1 0x1 PUSH1 0x1 PUSH1 0xA0 SHL SUB PUSH32 0x0 AND SWAP1 PUSH4 0x68EB4BA8 SWAP1 PUSH2 0x14CD SWAP1 PUSH32 0x0 SWAP1 DUP8 SWAP1 DUP8 SWAP1 PUSH1 0x4 ADD PUSH2 0x3FC8 JUMP JUMPDEST PUSH1 0x0 PUSH1 0x40 MLOAD DUP1 DUP4 SUB DUP2 PUSH1 0x0 DUP8 DUP1 EXTCODESIZE ISZERO DUP1 ISZERO PUSH2 0x14E7 JUMPI PUSH1 0x0 DUP1 REVERT JUMPDEST POP GAS CALL ISZERO DUP1 ISZERO PUSH2 0x14FB JUMPI RETURNDATASIZE PUSH1 0x0 DUP1 RETURNDATACOPY RETURNDATASIZE PUSH1 0x0 REVERT JUMPDEST POP POP PUSH1 0x40 MLOAD PUSH4 0xB390C0AB PUSH1 0xE0 SHL DUP2 MSTORE PUSH1 0x1 PUSH1 0x1 PUSH1 0xA0 SHL SUB PUSH32 0x0 AND SWAP3 POP PUSH4 0xB390C0AB SWAP2 POP PUSH2 0x154D SWAP1 DUP7 SWAP1 DUP7 SWAP1 PUSH1 0x4 ADD PUSH2 0x4566 JUMP JUMPDEST PUSH1 0x20 PUSH1 0x40 MLOAD DUP1 DUP4 SUB DUP2 PUSH1 0x0 DUP8 DUP1 EXTCODESIZE ISZERO DUP1 ISZERO PUSH2 0x1567 JUMPI PUSH1 0x0 DUP1 REVERT JUMPDEST POP GAS CALL ISZERO DUP1 ISZERO PUSH2 0x157B JUMPI RETURNDATASIZE PUSH1 0x0 DUP1 RETURNDATACOPY RETURNDATASIZE PUSH1 0x0 REVERT JUMPDEST POP POP POP POP PUSH1 0x40 MLOAD RETURNDATASIZE PUSH1 0x1F NOT PUSH1 0x1F DUP3 ADD AND DUP3 ADD DUP1 PUSH1 0x40 MSTORE POP DUP2 ADD SWAP1 PUSH2 0x159F SWAP2 SWAP1 PUSH2 0x3E31 JUMP JUMPDEST POP POP JUMPDEST PUSH2 0x15CC DUP6 PUSH32 0x0 PUSH2 0x26B8 JUMP JUMPDEST PUSH1 0x40 MLOAD PUSH4 0x70A08231 PUSH1 0xE0 SHL DUP2 MSTORE PUSH1 0x0 SWAP1 PUSH1 0x1 PUSH1 0x1 PUSH1 0xA0 SHL SUB DUP8 AND SWAP1 PUSH4 0x70A08231 SWAP1 PUSH2 0x15FB SWAP1 ADDRESS SWAP1 PUSH1 0x4 ADD PUSH2 0x3EF8 JUMP JUMPDEST PUSH1 0x20 PUSH1 0x40 MLOAD DUP1 DUP4 SUB DUP2 DUP7 DUP1 EXTCODESIZE ISZERO DUP1 ISZERO PUSH2 0x1613 JUMPI PUSH1 0x0 DUP1 REVERT JUMPDEST POP GAS STATICCALL ISZERO DUP1 ISZERO PUSH2 0x1627 JUMPI RETURNDATASIZE PUSH1 0x0 DUP1 RETURNDATACOPY RETURNDATASIZE PUSH1 0x0 REVERT JUMPDEST POP POP POP POP PUSH1 0x40 MLOAD RETURNDATASIZE PUSH1 0x1F NOT PUSH1 0x1F DUP3 ADD AND DUP3 ADD DUP1 PUSH1 0x40 MSTORE POP DUP2 ADD SWAP1 PUSH2 0x164B SWAP2 SWAP1 PUSH2 0x3E31 JUMP JUMPDEST SWAP1 POP PUSH1 0x0 PUSH32 0x0 PUSH1 0x1 PUSH1 0x1 PUSH1 0xA0 SHL SUB AND PUSH4 0x1B2EF1CA DUP10 DUP5 PUSH1 0x40 MLOAD DUP4 PUSH4 0xFFFFFFFF AND PUSH1 0xE0 SHL DUP2 MSTORE PUSH1 0x4 ADD PUSH2 0x169D SWAP3 SWAP2 SWAP1 PUSH2 0x4566 JUMP JUMPDEST PUSH1 0x20 PUSH1 0x40 MLOAD DUP1 DUP4 SUB DUP2 PUSH1 0x0 DUP8 DUP1 EXTCODESIZE ISZERO DUP1 ISZERO PUSH2 0x16B7 JUMPI PUSH1 0x0 DUP1 REVERT JUMPDEST POP GAS CALL ISZERO DUP1 ISZERO PUSH2 0x16CB JUMPI RETURNDATASIZE PUSH1 0x0 DUP1 RETURNDATACOPY RETURNDATASIZE PUSH1 0x0 REVERT JUMPDEST POP POP POP POP PUSH1 0x40 MLOAD RETURNDATASIZE PUSH1 0x1F NOT PUSH1 0x1F DUP3 ADD AND DUP3 ADD DUP1 PUSH1 0x40 MSTORE POP DUP2 ADD SWAP1 PUSH2 0x16EF SWAP2 SWAP1 PUSH2 0x3E31 JUMP JUMPDEST PUSH1 0x40 MLOAD PUSH4 0x314568D9 PUSH1 0xE0 SHL DUP2 MSTORE SWAP1 SWAP2 POP PUSH1 0x1 PUSH1 0x1 PUSH1 0xA0 SHL SUB PUSH32 0x0 AND SWAP1 PUSH4 0x314568D9 SWAP1 PUSH2 0x1762 SWAP1 PUSH32 0x0 SWAP1 DUP6 SWAP1 DUP8 SWAP1 PUSH1 0x4 ADD PUSH2 0x3FC8 JUMP JUMPDEST PUSH1 0x0 PUSH1 0x40 MLOAD DUP1 DUP4 SUB DUP2 PUSH1 0x0 DUP8 DUP1 EXTCODESIZE ISZERO DUP1 ISZERO PUSH2 0x177C JUMPI PUSH1 0x0 DUP1 REVERT JUMPDEST POP GAS CALL ISZERO DUP1 ISZERO PUSH2 0x1790 JUMPI RETURNDATASIZE PUSH1 0x0 DUP1 RETURNDATACOPY RETURNDATASIZE PUSH1 0x0 REVERT JUMPDEST POP POP POP POP PUSH2 0x179C PUSH2 0x2FF3 JUMP JUMPDEST PUSH2 0x17A5 DUP12 PUSH2 0x272F JUMP JUMPDEST PUSH2 0x17AE DUP11 PUSH2 0x272F JUMP JUMPDEST PUSH2 0x17D7 PUSH32 0x0 PUSH2 0x272F JUMP JUMPDEST POP POP POP POP POP POP POP POP POP POP POP JUMP JUMPDEST PUSH1 0x43 SLOAD PUSH1 0x1 PUSH1 0x1 PUSH1 0xA0 SHL SUB AND DUP2 JUMP JUMPDEST PUSH1 0x43 SLOAD PUSH1 0x1 PUSH1 0x1 PUSH1 0xA0 SHL SUB AND CALLER EQ PUSH2 0x181D JUMPI PUSH1 0x40 MLOAD PUSH3 0x461BCD PUSH1 0xE5 SHL DUP2 MSTORE PUSH1 0x4 ADD PUSH2 0x19C SWAP1 PUSH2 0x4089 JUMP JUMPDEST PUSH1 0x43 DUP1 SLOAD PUSH1 0x1 PUSH1 0x1 PUSH1 0xA0 SHL SUB NOT AND SWAP1 SSTORE PUSH1 0x42 DUP1 SLOAD PUSH3 0x10000 PUSH1 0x1 PUSH1 0xB0 SHL SUB NOT AND CALLER PUSH3 0x10000 DUP2 MUL SWAP2 SWAP1 SWAP2 OR SWAP1 SWAP2 SSTORE PUSH1 0x40 MLOAD PUSH32 0xD345D81CE68C70B119A17EEE79DC1421700BD9CB21CA148A62DC90983964E82F SWAP2 PUSH2 0x1879 SWAP2 PUSH2 0x3EF8 JUMP JUMPDEST PUSH1 0x40 MLOAD DUP1 SWAP2 SUB SWAP1 LOG1 JUMP JUMPDEST PUSH1 0x42 SLOAD PUSH3 0x10000 SWAP1 DIV PUSH1 0x1 PUSH1 0x1 PUSH1 0xA0 SHL SUB AND CALLER EQ PUSH2 0x18B3 JUMPI PUSH1 0x40 MLOAD PUSH3 0x461BCD PUSH1 0xE5 SHL DUP2 MSTORE PUSH1 0x4 ADD PUSH2 0x19C SWAP1 PUSH2 0x41E2 JUMP JUMPDEST DUP3 DUP2 EQ PUSH2 0x18D2 JUMPI PUSH1 0x40 MLOAD PUSH3 0x461BCD PUSH1 0xE5 SHL DUP2 MSTORE PUSH1 0x4 ADD PUSH2 0x19C SWAP1 PUSH2 0x420C JUMP JUMPDEST PUSH1 0x0 JUMPDEST DUP4 DUP2 LT ISZERO PUSH2 0x1A51 JUMPI DUP3 DUP3 DUP3 DUP2 DUP2 LT PUSH2 0x18E9 JUMPI INVALID JUMPDEST SWAP1 POP PUSH1 0x20 MUL ADD PUSH1 0x20 DUP2 ADD SWAP1 PUSH2 0x18FE SWAP2 SWAP1 PUSH2 0x3D7D JUMP JUMPDEST ISZERO PUSH2 0x19DB JUMPI PUSH32 0x0 PUSH1 0x1 PUSH1 0x1 PUSH1 0xA0 SHL SUB AND PUSH4 0xE660CC08 DUP7 DUP7 DUP5 DUP2 DUP2 LT PUSH2 0x193E JUMPI INVALID JUMPDEST SWAP1 POP PUSH1 0x20 MUL ADD PUSH1 0x20 DUP2 ADD SWAP1 PUSH2 0x1953 SWAP2 SWAP1 PUSH2 0x396A JUMP JUMPDEST PUSH1 0x40 MLOAD DUP3 PUSH4 0xFFFFFFFF AND PUSH1 0xE0 SHL DUP2 MSTORE PUSH1 0x4 ADD PUSH2 0x196F SWAP2 SWAP1 PUSH2 0x3EF8 JUMP JUMPDEST PUSH1 0x20 PUSH1 0x40 MLOAD DUP1 DUP4 SUB DUP2 DUP7 DUP1 EXTCODESIZE ISZERO DUP1 ISZERO PUSH2 0x1987 JUMPI PUSH1 0x0 DUP1 REVERT JUMPDEST POP GAS STATICCALL ISZERO DUP1 ISZERO PUSH2 0x199B JUMPI RETURNDATASIZE PUSH1 0x0 DUP1 RETURNDATACOPY RETURNDATASIZE PUSH1 0x0 REVERT JUMPDEST POP POP POP POP PUSH1 0x40 MLOAD RETURNDATASIZE PUSH1 0x1F NOT PUSH1 0x1F DUP3 ADD AND DUP3 ADD DUP1 PUSH1 0x40 MSTORE POP DUP2 ADD SWAP1 PUSH2 0x19BF SWAP2 SWAP1 PUSH2 0x3D99 JUMP JUMPDEST PUSH2 0x19DB JUMPI PUSH1 0x40 MLOAD PUSH3 0x461BCD PUSH1 0xE5 SHL DUP2 MSTORE PUSH1 0x4 ADD PUSH2 0x19C SWAP1 PUSH2 0x40F7 JUMP JUMPDEST DUP3 DUP3 DUP3 DUP2 DUP2 LT PUSH2 0x19E7 JUMPI INVALID JUMPDEST SWAP1 POP PUSH1 0x20 MUL ADD PUSH1 0x20 DUP2 ADD SWAP1 PUSH2 0x19FC SWAP2 SWAP1 PUSH2 0x3D7D JUMP JUMPDEST PUSH1 0x84 PUSH1 0x0 DUP8 DUP8 DUP6 DUP2 DUP2 LT PUSH2 0x1A0C JUMPI INVALID JUMPDEST SWAP1 POP PUSH1 0x20 MUL ADD PUSH1 0x20 DUP2 ADD SWAP1 PUSH2 0x1A21 SWAP2 SWAP1 PUSH2 0x396A JUMP JUMPDEST PUSH1 0x1 PUSH1 0x1 PUSH1 0xA0 SHL SUB AND DUP2 MSTORE PUSH1 0x20 DUP2 ADD SWAP2 SWAP1 SWAP2 MSTORE PUSH1 0x40 ADD PUSH1 0x0 KECCAK256 DUP1 SLOAD PUSH1 0xFF NOT AND SWAP2 ISZERO ISZERO SWAP2 SWAP1 SWAP2 OR SWAP1 SSTORE PUSH1 0x1 ADD PUSH2 0x18D5 JUMP JUMPDEST POP POP POP POP POP JUMP JUMPDEST PUSH1 0x42 SLOAD PUSH3 0x10000 SWAP1 DIV PUSH1 0x1 PUSH1 0x1 PUSH1 0xA0 SHL SUB AND CALLER EQ PUSH2 0x1A88 JUMPI PUSH1 0x40 MLOAD PUSH3 0x461BCD PUSH1 0xE5 SHL DUP2 MSTORE PUSH1 0x4 ADD PUSH2 0x19C SWAP1 PUSH2 0x41E2 JUMP JUMPDEST PUSH1 0x43 DUP1 SLOAD PUSH1 0x1 PUSH1 0x1 PUSH1 0xA0 SHL SUB NOT AND PUSH1 0x1 PUSH1 0x1 PUSH1 0xA0 SHL SUB DUP4 AND OR SWAP1 SSTORE PUSH1 0x40 MLOAD PUSH32 0x964DEA888B00B2AB53F13DFE7CA334B46E99338C222AE232D98547A1DA019F60 SWAP1 PUSH2 0x1AD3 SWAP1 DUP4 SWAP1 PUSH2 0x3EF8 JUMP JUMPDEST PUSH1 0x40 MLOAD DUP1 SWAP2 SUB SWAP1 LOG1 POP JUMP JUMPDEST PUSH4 0xF23A6E61 PUSH1 0xE0 SHL SWAP7 SWAP6 POP POP POP POP POP POP JUMP JUMPDEST PUSH1 0x41 PUSH1 0x20 SWAP1 DUP2 MSTORE PUSH1 0x0 SWAP3 DUP4 MSTORE PUSH1 0x40 DUP1 DUP5 KECCAK256 SWAP1 SWAP2 MSTORE SWAP1 DUP3 MSTORE SWAP1 KECCAK256 SLOAD PUSH1 0xFF AND DUP2 JUMP JUMPDEST PUSH32 0x0 DUP2 JUMP JUMPDEST DUP1 ISZERO DUP1 PUSH2 0x1BBC JUMPI POP PUSH1 0x40 MLOAD PUSH4 0x6EB1769F PUSH1 0xE1 SHL DUP2 MSTORE PUSH1 0x1 PUSH1 0x1 PUSH1 0xA0 SHL SUB DUP5 AND SWAP1 PUSH4 0xDD62ED3E SWAP1 PUSH2 0x1B6A SWAP1 ADDRESS SWAP1 DUP7 SWAP1 PUSH1 0x4 ADD PUSH2 0x3F0C JUMP JUMPDEST PUSH1 0x20 PUSH1 0x40 MLOAD DUP1 DUP4 SUB DUP2 DUP7 DUP1 EXTCODESIZE ISZERO DUP1 ISZERO PUSH2 0x1B82 JUMPI PUSH1 0x0 DUP1 REVERT JUMPDEST POP GAS STATICCALL ISZERO DUP1 ISZERO PUSH2 0x1B96 JUMPI RETURNDATASIZE PUSH1 0x0 DUP1 RETURNDATACOPY RETURNDATASIZE PUSH1 0x0 REVERT JUMPDEST POP POP POP POP PUSH1 0x40 MLOAD RETURNDATASIZE PUSH1 0x1F NOT PUSH1 0x1F DUP3 ADD AND DUP3 ADD DUP1 PUSH1 0x40 MSTORE POP DUP2 ADD SWAP1 PUSH2 0x1BBA SWAP2 SWAP1 PUSH2 0x3E31 JUMP JUMPDEST ISZERO JUMPDEST PUSH2 0x1BD8 JUMPI PUSH1 0x40 MLOAD PUSH3 0x461BCD PUSH1 0xE5 SHL DUP2 MSTORE PUSH1 0x4 ADD PUSH2 0x19C SWAP1 PUSH2 0x44B4 JUMP JUMPDEST PUSH2 0x1C2E DUP4 PUSH4 0x95EA7B3 PUSH1 0xE0 SHL DUP5 DUP5 PUSH1 0x40 MLOAD PUSH1 0x24 ADD PUSH2 0x1BF7 SWAP3 SWAP2 SWAP1 PUSH2 0x3FAF JUMP JUMPDEST PUSH1 0x40 DUP1 MLOAD PUSH1 0x1F NOT DUP2 DUP5 SUB ADD DUP2 MSTORE SWAP2 SWAP1 MSTORE PUSH1 0x20 DUP2 ADD DUP1 MLOAD PUSH1 0x1 PUSH1 0x1 PUSH1 0xE0 SHL SUB AND PUSH1 0x1 PUSH1 0x1 PUSH1 0xE0 SHL SUB NOT SWAP1 SWAP4 AND SWAP3 SWAP1 SWAP3 OR SWAP1 SWAP2 MSTORE PUSH2 0x323C JUMP JUMPDEST POP POP POP JUMP JUMPDEST EXTCODESIZE ISZERO ISZERO SWAP1 JUMP JUMPDEST PUSH1 0x60 PUSH2 0x1C48 DUP5 DUP5 PUSH1 0x0 DUP6 PUSH2 0x32CB JUMP JUMPDEST SWAP1 POP JUMPDEST SWAP4 SWAP3 POP POP POP JUMP JUMPDEST DUP1 ISZERO PUSH2 0x1E19 JUMPI PUSH1 0x0 NOT DUP2 EQ ISZERO PUSH2 0x1CF9 JUMPI PUSH32 0x0 PUSH1 0x1 PUSH1 0x1 PUSH1 0xA0 SHL SUB AND PUSH4 0xF70AEDD9 PUSH1 0x40 MLOAD DUP2 PUSH4 0xFFFFFFFF AND PUSH1 0xE0 SHL DUP2 MSTORE PUSH1 0x4 ADD PUSH1 0x80 PUSH1 0x40 MLOAD DUP1 DUP4 SUB DUP2 DUP7 DUP1 EXTCODESIZE ISZERO DUP1 ISZERO PUSH2 0x1CBB JUMPI PUSH1 0x0 DUP1 REVERT JUMPDEST POP GAS STATICCALL ISZERO DUP1 ISZERO PUSH2 0x1CCF JUMPI RETURNDATASIZE PUSH1 0x0 DUP1 RETURNDATACOPY RETURNDATASIZE PUSH1 0x0 REVERT JUMPDEST POP POP POP POP PUSH1 0x40 MLOAD RETURNDATASIZE PUSH1 0x1F NOT PUSH1 0x1F DUP3 ADD AND DUP3 ADD DUP1 PUSH1 0x40 MSTORE POP DUP2 ADD SWAP1 PUSH2 0x1CF3 SWAP2 SWAP1 PUSH2 0x3B80 JUMP JUMPDEST SWAP4 POP POP POP POP JUMPDEST PUSH1 0x40 MLOAD PUSH4 0xD1D6975 PUSH1 0xE3 SHL DUP2 MSTORE PUSH1 0x1 PUSH1 0x1 PUSH1 0xA0 SHL SUB PUSH32 0x0 DUP2 AND SWAP2 PUSH4 0x68EB4BA8 SWAP2 PUSH2 0x1D6B SWAP2 PUSH32 0x0 SWAP2 DUP8 AND SWAP1 DUP7 SWAP1 PUSH1 0x4 ADD PUSH2 0x3FC8 JUMP JUMPDEST PUSH1 0x0 PUSH1 0x40 MLOAD DUP1 DUP4 SUB DUP2 PUSH1 0x0 DUP8 DUP1 EXTCODESIZE ISZERO DUP1 ISZERO PUSH2 0x1D85 JUMPI PUSH1 0x0 DUP1 REVERT JUMPDEST POP GAS CALL ISZERO DUP1 ISZERO PUSH2 0x1D99 JUMPI RETURNDATASIZE PUSH1 0x0 DUP1 RETURNDATACOPY RETURNDATASIZE PUSH1 0x0 REVERT JUMPDEST POP POP PUSH1 0x40 MLOAD PUSH4 0x2770A7EB PUSH1 0xE2 SHL DUP2 MSTORE PUSH1 0x1 PUSH1 0x1 PUSH1 0xA0 SHL SUB PUSH32 0x0 AND SWAP3 POP PUSH4 0x9DC29FAC SWAP2 POP PUSH2 0x1DEB SWAP1 DUP6 SWAP1 DUP6 SWAP1 PUSH1 0x4 ADD PUSH2 0x3FAF JUMP JUMPDEST PUSH1 0x0 PUSH1 0x40 MLOAD DUP1 DUP4 SUB DUP2 PUSH1 0x0 DUP8 DUP1 EXTCODESIZE ISZERO DUP1 ISZERO PUSH2 0x1E05 JUMPI PUSH1 0x0 DUP1 REVERT JUMPDEST POP GAS CALL ISZERO DUP1 ISZERO PUSH2 0xC8B JUMPI RETURNDATASIZE PUSH1 0x0 DUP1 RETURNDATACOPY RETURNDATASIZE PUSH1 0x0 REVERT JUMPDEST POP POP JUMP JUMPDEST PUSH1 0x1 PUSH1 0x1 PUSH1 0xA0 SHL SUB DUP2 AND PUSH1 0x0 SWAP1 DUP2 MSTORE PUSH1 0x84 PUSH1 0x20 MSTORE PUSH1 0x40 SWAP1 KECCAK256 SLOAD PUSH1 0xFF AND PUSH2 0x1E55 JUMPI PUSH1 0x40 MLOAD PUSH3 0x461BCD PUSH1 0xE5 SHL DUP2 MSTORE PUSH1 0x4 ADD PUSH2 0x19C SWAP1 PUSH2 0x42A2 JUMP JUMPDEST PUSH1 0x0 PUSH32 0x0 PUSH1 0x1 PUSH1 0x1 PUSH1 0xA0 SHL SUB AND PUSH4 0xD7AC71FF PUSH1 0x40 MLOAD DUP2 PUSH4 0xFFFFFFFF AND PUSH1 0xE0 SHL DUP2 MSTORE PUSH1 0x4 ADD PUSH1 0x20 PUSH1 0x40 MLOAD DUP1 DUP4 SUB DUP2 DUP7 DUP1 EXTCODESIZE ISZERO DUP1 ISZERO PUSH2 0x1EB0 JUMPI PUSH1 0x0 DUP1 REVERT JUMPDEST POP GAS STATICCALL ISZERO DUP1 ISZERO PUSH2 0x1EC4 JUMPI RETURNDATASIZE PUSH1 0x0 DUP1 RETURNDATACOPY RETURNDATASIZE PUSH1 0x0 REVERT JUMPDEST POP POP POP POP PUSH1 0x40 MLOAD RETURNDATASIZE PUSH1 0x1F NOT PUSH1 0x1F DUP3 ADD AND DUP3 ADD DUP1 PUSH1 0x40 MSTORE POP DUP2 ADD SWAP1 PUSH2 0x1EE8 SWAP2 SWAP1 PUSH2 0x3E31 JUMP JUMPDEST SWAP1 POP PUSH1 0x40 DUP4 ADD CALLDATALOAD PUSH1 0x60 DUP5 ADD CALLDATALOAD PUSH1 0x80 DUP6 ADD CALLDATALOAD PUSH1 0x0 NOT DUP4 EQ ISZERO PUSH2 0x1FA6 JUMPI PUSH1 0x40 MLOAD PUSH4 0x20A8BEE7 PUSH1 0xE2 SHL DUP2 MSTORE PUSH1 0x1 PUSH1 0x1 PUSH1 0xA0 SHL SUB PUSH32 0x0 AND SWAP1 PUSH4 0x82A2FB9C SWAP1 PUSH2 0x1F51 SWAP1 DUP8 SWAP1 DUP13 SWAP1 PUSH1 0x4 ADD PUSH2 0x4513 JUMP JUMPDEST PUSH1 0x20 PUSH1 0x40 MLOAD DUP1 DUP4 SUB DUP2 PUSH1 0x0 DUP8 DUP1 EXTCODESIZE ISZERO DUP1 ISZERO PUSH2 0x1F6B JUMPI PUSH1 0x0 DUP1 REVERT JUMPDEST POP GAS CALL ISZERO DUP1 ISZERO PUSH2 0x1F7F JUMPI RETURNDATASIZE PUSH1 0x0 DUP1 RETURNDATACOPY RETURNDATASIZE PUSH1 0x0 REVERT JUMPDEST POP POP POP POP PUSH1 0x40 MLOAD RETURNDATASIZE PUSH1 0x1F NOT PUSH1 0x1F DUP3 ADD AND DUP3 ADD DUP1 PUSH1 0x40 MSTORE POP DUP2 ADD SWAP1 PUSH2 0x1FA3 SWAP2 SWAP1 PUSH2 0x3E31 JUMP JUMPDEST SWAP3 POP JUMPDEST PUSH1 0x0 NOT DUP3 EQ ISZERO PUSH2 0x2053 JUMPI PUSH1 0x40 MLOAD PUSH4 0x20A8BEE7 PUSH1 0xE2 SHL DUP2 MSTORE PUSH1 0x1 PUSH1 0x1 PUSH1 0xA0 SHL SUB PUSH32 0x0 AND SWAP1 PUSH4 0x82A2FB9C SWAP1 PUSH2 0x1FFE SWAP1 DUP8 SWAP1 DUP12 SWAP1 PUSH1 0x4 ADD PUSH2 0x4513 JUMP JUMPDEST PUSH1 0x20 PUSH1 0x40 MLOAD DUP1 DUP4 SUB DUP2 PUSH1 0x0 DUP8 DUP1 EXTCODESIZE ISZERO DUP1 ISZERO PUSH2 0x2018 JUMPI PUSH1 0x0 DUP1 REVERT JUMPDEST POP GAS CALL ISZERO DUP1 ISZERO PUSH2 0x202C JUMPI RETURNDATASIZE PUSH1 0x0 DUP1 RETURNDATACOPY RETURNDATASIZE PUSH1 0x0 REVERT JUMPDEST POP POP POP POP PUSH1 0x40 MLOAD RETURNDATASIZE PUSH1 0x1F NOT PUSH1 0x1F DUP3 ADD AND DUP3 ADD DUP1 PUSH1 0x40 MSTORE POP DUP2 ADD SWAP1 PUSH2 0x2050 SWAP2 SWAP1 PUSH2 0x3E31 JUMP JUMPDEST SWAP2 POP JUMPDEST PUSH1 0x0 NOT DUP2 EQ ISZERO PUSH2 0x2100 JUMPI PUSH1 0x40 MLOAD PUSH4 0x20A8BEE7 PUSH1 0xE2 SHL DUP2 MSTORE PUSH1 0x1 PUSH1 0x1 PUSH1 0xA0 SHL SUB PUSH32 0x0 AND SWAP1 PUSH4 0x82A2FB9C SWAP1 PUSH2 0x20AB SWAP1 DUP8 SWAP1 DUP10 SWAP1 PUSH1 0x4 ADD PUSH2 0x4513 JUMP JUMPDEST PUSH1 0x20 PUSH1 0x40 MLOAD DUP1 DUP4 SUB DUP2 PUSH1 0x0 DUP8 DUP1 EXTCODESIZE ISZERO DUP1 ISZERO PUSH2 0x20C5 JUMPI PUSH1 0x0 DUP1 REVERT JUMPDEST POP GAS CALL ISZERO DUP1 ISZERO PUSH2 0x20D9 JUMPI RETURNDATASIZE PUSH1 0x0 DUP1 RETURNDATACOPY RETURNDATASIZE PUSH1 0x0 REVERT JUMPDEST POP POP POP POP PUSH1 0x40 MLOAD RETURNDATASIZE PUSH1 0x1F NOT PUSH1 0x1F DUP3 ADD AND DUP3 ADD DUP1 PUSH1 0x40 MSTORE POP DUP2 ADD SWAP1 PUSH2 0x20FD SWAP2 SWAP1 PUSH2 0x3E31 JUMP JUMPDEST SWAP1 POP JUMPDEST PUSH1 0x0 PUSH2 0x218C DUP8 PUSH1 0x20 ADD CALLDATALOAD DUP8 PUSH1 0x1 PUSH1 0x1 PUSH1 0xA0 SHL SUB AND PUSH4 0x70A08231 ADDRESS PUSH1 0x40 MLOAD DUP3 PUSH4 0xFFFFFFFF AND PUSH1 0xE0 SHL DUP2 MSTORE PUSH1 0x4 ADD PUSH2 0x2136 SWAP2 SWAP1 PUSH2 0x3EF8 JUMP JUMPDEST PUSH1 0x20 PUSH1 0x40 MLOAD DUP1 DUP4 SUB DUP2 DUP7 DUP1 EXTCODESIZE ISZERO DUP1 ISZERO PUSH2 0x214E JUMPI PUSH1 0x0 DUP1 REVERT JUMPDEST POP GAS STATICCALL ISZERO DUP1 ISZERO PUSH2 0x2162 JUMPI RETURNDATASIZE PUSH1 0x0 DUP1 RETURNDATACOPY RETURNDATASIZE PUSH1 0x0 REVERT JUMPDEST POP POP POP POP PUSH1 0x40 MLOAD RETURNDATASIZE PUSH1 0x1F NOT PUSH1 0x1F DUP3 ADD AND DUP3 ADD DUP1 PUSH1 0x40 MSTORE POP DUP2 ADD SWAP1 PUSH2 0x2186 SWAP2 SWAP1 PUSH2 0x3E31 JUMP JUMPDEST SWAP1 PUSH2 0x338C JUMP JUMPDEST SWAP1 POP PUSH1 0x0 DUP1 DUP3 ISZERO PUSH2 0x2247 JUMPI PUSH1 0x40 MLOAD PUSH4 0x5D5155EF PUSH1 0xE1 SHL DUP2 MSTORE PUSH1 0x1 PUSH1 0x1 PUSH1 0xA0 SHL SUB PUSH32 0x0 AND SWAP1 PUSH4 0xBAA2ABDE SWAP1 PUSH2 0x21F0 SWAP1 DUP15 SWAP1 DUP15 SWAP1 DUP9 SWAP1 PUSH1 0x0 SWAP1 DUP2 SWAP1 ADDRESS SWAP1 TIMESTAMP SWAP1 PUSH1 0x4 ADD PUSH2 0x3F26 JUMP JUMPDEST PUSH1 0x40 DUP1 MLOAD DUP1 DUP4 SUB DUP2 PUSH1 0x0 DUP8 DUP1 EXTCODESIZE ISZERO DUP1 ISZERO PUSH2 0x2209 JUMPI PUSH1 0x0 DUP1 REVERT JUMPDEST POP GAS CALL ISZERO DUP1 ISZERO PUSH2 0x221D JUMPI RETURNDATASIZE PUSH1 0x0 DUP1 RETURNDATACOPY RETURNDATASIZE PUSH1 0x0 REVERT JUMPDEST POP POP POP POP PUSH1 0x40 MLOAD RETURNDATASIZE PUSH1 0x1F NOT PUSH1 0x1F DUP3 ADD AND DUP3 ADD DUP1 PUSH1 0x40 MSTORE POP DUP2 ADD SWAP1 PUSH2 0x2241 SWAP2 SWAP1 PUSH2 0x3E49 JUMP JUMPDEST SWAP1 SWAP3 POP SWAP1 POP JUMPDEST PUSH1 0x0 PUSH2 0x2257 DUP8 PUSH1 0xA0 DUP13 ADD CALLDATALOAD PUSH2 0x33B4 JUMP JUMPDEST SWAP1 POP PUSH1 0x0 PUSH2 0x2269 DUP8 PUSH1 0xC0 DUP14 ADD CALLDATALOAD PUSH2 0x33B4 JUMP JUMPDEST SWAP1 POP DUP2 DUP5 LT DUP1 ISZERO PUSH2 0x2279 JUMPI POP DUP1 DUP4 GT JUMPDEST ISZERO PUSH2 0x2398 JUMPI PUSH1 0x40 DUP1 MLOAD PUSH1 0x2 DUP1 DUP3 MSTORE PUSH1 0x60 DUP1 DUP4 ADD DUP5 MSTORE SWAP3 PUSH1 0x20 DUP4 ADD SWAP1 DUP1 CALLDATASIZE DUP4 CALLDATACOPY ADD SWAP1 POP POP SWAP1 POP DUP13 DUP15 DUP3 PUSH1 0x0 DUP2 MLOAD DUP2 LT PUSH2 0x22AD JUMPI INVALID JUMPDEST PUSH1 0x20 MUL PUSH1 0x20 ADD ADD DUP4 PUSH1 0x1 DUP2 MLOAD DUP2 LT PUSH2 0x22C1 JUMPI INVALID JUMPDEST PUSH1 0x1 PUSH1 0x1 PUSH1 0xA0 SHL SUB SWAP4 DUP5 AND PUSH1 0x20 SWAP2 DUP3 MUL SWAP3 SWAP1 SWAP3 ADD ADD MSTORE SWAP2 DUP2 AND SWAP1 SWAP2 MSTORE PUSH32 0x0 AND PUSH4 0x8803DBEE PUSH2 0x230E DUP6 DUP9 PUSH2 0x338C JUMP JUMPDEST PUSH2 0x2318 DUP8 DUP7 PUSH2 0x338C JUMP JUMPDEST DUP5 ADDRESS TIMESTAMP PUSH1 0x40 MLOAD DUP7 PUSH4 0xFFFFFFFF AND PUSH1 0xE0 SHL DUP2 MSTORE PUSH1 0x4 ADD PUSH2 0x233B SWAP6 SWAP5 SWAP4 SWAP3 SWAP2 SWAP1 PUSH2 0x452A JUMP JUMPDEST PUSH1 0x0 PUSH1 0x40 MLOAD DUP1 DUP4 SUB DUP2 PUSH1 0x0 DUP8 DUP1 EXTCODESIZE ISZERO DUP1 ISZERO PUSH2 0x2355 JUMPI PUSH1 0x0 DUP1 REVERT JUMPDEST POP GAS CALL ISZERO DUP1 ISZERO PUSH2 0x2369 JUMPI RETURNDATASIZE PUSH1 0x0 DUP1 RETURNDATACOPY RETURNDATASIZE PUSH1 0x0 REVERT JUMPDEST POP POP POP POP PUSH1 0x40 MLOAD RETURNDATASIZE PUSH1 0x0 DUP3 RETURNDATACOPY PUSH1 0x1F RETURNDATASIZE SWAP1 DUP2 ADD PUSH1 0x1F NOT AND DUP3 ADD PUSH1 0x40 MSTORE PUSH2 0x2391 SWAP2 SWAP1 DUP2 ADD SWAP1 PUSH2 0x3CE8 JUMP JUMPDEST POP POP PUSH2 0x24C1 JUMP JUMPDEST DUP2 DUP5 GT DUP1 ISZERO PUSH2 0x23A6 JUMPI POP DUP1 DUP4 LT JUMPDEST ISZERO PUSH2 0x24C1 JUMPI PUSH1 0x40 DUP1 MLOAD PUSH1 0x2 DUP1 DUP3 MSTORE PUSH1 0x60 DUP1 DUP4 ADD DUP5 MSTORE SWAP3 PUSH1 0x20 DUP4 ADD SWAP1 DUP1 CALLDATASIZE DUP4 CALLDATACOPY ADD SWAP1 POP POP SWAP1 POP DUP14 DUP14 DUP3 PUSH1 0x0 DUP2 MLOAD DUP2 LT PUSH2 0x23DA JUMPI INVALID JUMPDEST PUSH1 0x20 MUL PUSH1 0x20 ADD ADD DUP4 PUSH1 0x1 DUP2 MLOAD DUP2 LT PUSH2 0x23EE JUMPI INVALID JUMPDEST PUSH1 0x1 PUSH1 0x1 PUSH1 0xA0 SHL SUB SWAP4 DUP5 AND PUSH1 0x20 SWAP2 DUP3 MUL SWAP3 SWAP1 SWAP3 ADD ADD MSTORE SWAP2 DUP2 AND SWAP1 SWAP2 MSTORE PUSH32 0x0 AND PUSH4 0x8803DBEE PUSH2 0x243B DUP5 DUP8 PUSH2 0x338C JUMP JUMPDEST PUSH2 0x2445 DUP9 DUP8 PUSH2 0x338C JUMP JUMPDEST DUP5 ADDRESS TIMESTAMP PUSH1 0x40 MLOAD DUP7 PUSH4 0xFFFFFFFF AND PUSH1 0xE0 SHL DUP2 MSTORE PUSH1 0x4 ADD PUSH2 0x2468 SWAP6 SWAP5 SWAP4 SWAP3 SWAP2 SWAP1 PUSH2 0x452A JUMP JUMPDEST PUSH1 0x0 PUSH1 0x40 MLOAD DUP1 DUP4 SUB DUP2 PUSH1 0x0 DUP8 DUP1 EXTCODESIZE ISZERO DUP1 ISZERO PUSH2 0x2482 JUMPI PUSH1 0x0 DUP1 REVERT JUMPDEST POP GAS CALL ISZERO DUP1 ISZERO PUSH2 0x2496 JUMPI RETURNDATASIZE PUSH1 0x0 DUP1 RETURNDATACOPY RETURNDATASIZE PUSH1 0x0 REVERT JUMPDEST POP POP POP POP PUSH1 0x40 MLOAD RETURNDATASIZE PUSH1 0x0 DUP3 RETURNDATACOPY PUSH1 0x1F RETURNDATASIZE SWAP1 DUP2 ADD PUSH1 0x1F NOT AND DUP3 ADD PUSH1 0x40 MSTORE PUSH2 0x24BE SWAP2 SWAP1 DUP2 ADD SWAP1 PUSH2 0x3CE8 JUMP JUMPDEST POP POP JUMPDEST PUSH2 0x24CB DUP14 DUP10 PUSH2 0x33D9 JUMP JUMPDEST PUSH2 0x24D5 DUP13 DUP9 PUSH2 0x33D9 JUMP JUMPDEST PUSH2 0x24DF DUP11 DUP8 PUSH2 0x33D9 JUMP JUMPDEST PUSH1 0x40 MLOAD PUSH4 0x70A08231 PUSH1 0xE0 SHL DUP2 MSTORE PUSH1 0xA0 DUP13 ADD CALLDATALOAD SWAP1 PUSH1 0x1 PUSH1 0x1 PUSH1 0xA0 SHL SUB DUP16 AND SWAP1 PUSH4 0x70A08231 SWAP1 PUSH2 0x2511 SWAP1 ADDRESS SWAP1 PUSH1 0x4 ADD PUSH2 0x3EF8 JUMP JUMPDEST PUSH1 0x20 PUSH1 0x40 MLOAD DUP1 DUP4 SUB DUP2 DUP7 DUP1 EXTCODESIZE ISZERO DUP1 ISZERO PUSH2 0x2529 JUMPI PUSH1 0x0 DUP1 REVERT JUMPDEST POP GAS STATICCALL ISZERO DUP1 ISZERO PUSH2 0x253D JUMPI RETURNDATASIZE PUSH1 0x0 DUP1 RETURNDATACOPY RETURNDATASIZE PUSH1 0x0 REVERT JUMPDEST POP POP POP POP PUSH1 0x40 MLOAD RETURNDATASIZE PUSH1 0x1F NOT PUSH1 0x1F DUP3 ADD AND DUP3 ADD DUP1 PUSH1 0x40 MSTORE POP DUP2 ADD SWAP1 PUSH2 0x2561 SWAP2 SWAP1 PUSH2 0x3E31 JUMP JUMPDEST LT ISZERO PUSH2 0x256C JUMPI PUSH1 0x0 DUP1 REVERT JUMPDEST PUSH1 0x40 MLOAD PUSH4 0x70A08231 PUSH1 0xE0 SHL DUP2 MSTORE PUSH1 0xC0 DUP13 ADD CALLDATALOAD SWAP1 PUSH1 0x1 PUSH1 0x1 PUSH1 0xA0 SHL SUB DUP15 AND SWAP1 PUSH4 0x70A08231 SWAP1 PUSH2 0x259E SWAP1 ADDRESS SWAP1 PUSH1 0x4 ADD PUSH2 0x3EF8 JUMP JUMPDEST PUSH1 0x20 PUSH1 0x40 MLOAD DUP1 DUP4 SUB DUP2 DUP7 DUP1 EXTCODESIZE ISZERO DUP1 ISZERO PUSH2 0x25B6 JUMPI PUSH1 0x0 DUP1 REVERT JUMPDEST POP GAS STATICCALL ISZERO DUP1 ISZERO PUSH2 0x25CA JUMPI RETURNDATASIZE PUSH1 0x0 DUP1 RETURNDATACOPY RETURNDATASIZE PUSH1 0x0 REVERT JUMPDEST POP POP POP POP PUSH1 0x40 MLOAD RETURNDATASIZE PUSH1 0x1F NOT PUSH1 0x1F DUP3 ADD AND DUP3 ADD DUP1 PUSH1 0x40 MSTORE POP DUP2 ADD SWAP1 PUSH2 0x25EE SWAP2 SWAP1 PUSH2 0x3E31 JUMP JUMPDEST LT ISZERO PUSH2 0x25F9 JUMPI PUSH1 0x0 DUP1 REVERT JUMPDEST PUSH1 0x40 MLOAD PUSH4 0x70A08231 PUSH1 0xE0 SHL DUP2 MSTORE PUSH1 0x20 DUP13 ADD CALLDATALOAD SWAP1 PUSH1 0x1 PUSH1 0x1 PUSH1 0xA0 SHL SUB DUP13 AND SWAP1 PUSH4 0x70A08231 SWAP1 PUSH2 0x262B SWAP1 ADDRESS SWAP1 PUSH1 0x4 ADD PUSH2 0x3EF8 JUMP JUMPDEST PUSH1 0x20 PUSH1 0x40 MLOAD DUP1 DUP4 SUB DUP2 DUP7 DUP1 EXTCODESIZE ISZERO DUP1 ISZERO PUSH2 0x2643 JUMPI PUSH1 0x0 DUP1 REVERT JUMPDEST POP GAS STATICCALL ISZERO DUP1 ISZERO PUSH2 0x2657 JUMPI RETURNDATASIZE PUSH1 0x0 DUP1 RETURNDATACOPY RETURNDATASIZE PUSH1 0x0 REVERT JUMPDEST POP POP POP POP PUSH1 0x40 MLOAD RETURNDATASIZE PUSH1 0x1F NOT PUSH1 0x1F DUP3 ADD AND DUP3 ADD DUP1 PUSH1 0x40 MSTORE POP DUP2 ADD SWAP1 PUSH2 0x267B SWAP2 SWAP1 PUSH2 0x3E31 JUMP JUMPDEST LT ISZERO PUSH2 0x2686 JUMPI PUSH1 0x0 DUP1 REVERT JUMPDEST PUSH2 0x268E PUSH2 0x2FF3 JUMP JUMPDEST PUSH2 0x2697 DUP14 PUSH2 0x272F JUMP JUMPDEST PUSH2 0x26A0 DUP13 PUSH2 0x272F JUMP JUMPDEST PUSH2 0x26A9 DUP11 PUSH2 0x272F JUMP JUMPDEST POP POP POP POP POP POP POP POP POP POP POP POP POP JUMP JUMPDEST PUSH1 0x1 PUSH1 0x1 PUSH1 0xA0 SHL SUB DUP1 DUP4 AND PUSH1 0x0 SWAP1 DUP2 MSTORE PUSH1 0x41 PUSH1 0x20 SWAP1 DUP2 MSTORE PUSH1 0x40 DUP1 DUP4 KECCAK256 SWAP4 DUP6 AND DUP4 MSTORE SWAP3 SWAP1 MSTORE KECCAK256 SLOAD PUSH1 0xFF AND PUSH2 0x1E19 JUMPI PUSH2 0x26FB PUSH1 0x1 PUSH1 0x1 PUSH1 0xA0 SHL SUB DUP4 AND DUP3 PUSH1 0x0 NOT PUSH2 0x1B34 JUMP JUMPDEST PUSH1 0x1 PUSH1 0x1 PUSH1 0xA0 SHL SUB DUP1 DUP4 AND PUSH1 0x0 SWAP1 DUP2 MSTORE PUSH1 0x41 PUSH1 0x20 SWAP1 DUP2 MSTORE PUSH1 0x40 DUP1 DUP4 KECCAK256 SWAP4 DUP6 AND DUP4 MSTORE SWAP3 SWAP1 MSTORE KECCAK256 DUP1 SLOAD PUSH1 0xFF NOT AND PUSH1 0x1 OR SWAP1 SSTORE POP POP JUMP JUMPDEST PUSH1 0x40 MLOAD PUSH4 0x70A08231 PUSH1 0xE0 SHL DUP2 MSTORE PUSH1 0x0 SWAP1 PUSH1 0x1 PUSH1 0x1 PUSH1 0xA0 SHL SUB DUP4 AND SWAP1 PUSH4 0x70A08231 SWAP1 PUSH2 0x275E SWAP1 ADDRESS SWAP1 PUSH1 0x4 ADD PUSH2 0x3EF8 JUMP JUMPDEST PUSH1 0x20 PUSH1 0x40 MLOAD DUP1 DUP4 SUB DUP2 DUP7 DUP1 EXTCODESIZE ISZERO DUP1 ISZERO PUSH2 0x2776 JUMPI PUSH1 0x0 DUP1 REVERT JUMPDEST POP GAS STATICCALL ISZERO DUP1 ISZERO PUSH2 0x278A JUMPI RETURNDATASIZE PUSH1 0x0 DUP1 RETURNDATACOPY RETURNDATASIZE PUSH1 0x0 REVERT JUMPDEST POP POP POP POP PUSH1 0x40 MLOAD RETURNDATASIZE PUSH1 0x1F NOT PUSH1 0x1F DUP3 ADD AND DUP3 ADD DUP1 PUSH1 0x40 MSTORE POP DUP2 ADD SWAP1 PUSH2 0x27AE SWAP2 SWAP1 PUSH2 0x3E31 JUMP JUMPDEST SWAP1 POP DUP1 ISZERO PUSH2 0x1E19 JUMPI PUSH2 0x1E19 PUSH32 0x0 PUSH1 0x1 PUSH1 0x1 PUSH1 0xA0 SHL SUB AND PUSH4 0x630DC7CB PUSH1 0x40 MLOAD DUP2 PUSH4 0xFFFFFFFF AND PUSH1 0xE0 SHL DUP2 MSTORE PUSH1 0x4 ADD PUSH1 0x20 PUSH1 0x40 MLOAD DUP1 DUP4 SUB DUP2 DUP7 DUP1 EXTCODESIZE ISZERO DUP1 ISZERO PUSH2 0x2812 JUMPI PUSH1 0x0 DUP1 REVERT JUMPDEST POP GAS STATICCALL ISZERO DUP1 ISZERO PUSH2 0x2826 JUMPI RETURNDATASIZE PUSH1 0x0 DUP1 RETURNDATACOPY RETURNDATASIZE PUSH1 0x0 REVERT JUMPDEST POP POP POP POP PUSH1 0x40 MLOAD RETURNDATASIZE PUSH1 0x1F NOT PUSH1 0x1F DUP3 ADD AND DUP3 ADD DUP1 PUSH1 0x40 MSTORE POP DUP2 ADD SWAP1 PUSH2 0x284A SWAP2 SWAP1 PUSH2 0x3986 JUMP JUMPDEST PUSH1 0x1 PUSH1 0x1 PUSH1 0xA0 SHL SUB DUP5 AND SWAP1 DUP4 PUSH2 0x3457 JUMP JUMPDEST PUSH1 0x1 PUSH1 0x1 PUSH1 0xA0 SHL SUB DUP2 AND PUSH1 0x0 SWAP1 DUP2 MSTORE PUSH1 0x84 PUSH1 0x20 MSTORE PUSH1 0x40 SWAP1 KECCAK256 SLOAD PUSH1 0xFF AND PUSH2 0x2893 JUMPI PUSH1 0x40 MLOAD PUSH3 0x461BCD PUSH1 0xE5 SHL DUP2 MSTORE PUSH1 0x4 ADD PUSH2 0x19C SWAP1 PUSH2 0x42A2 JUMP JUMPDEST PUSH2 0x289B PUSH2 0x3476 JUMP JUMPDEST PUSH2 0x28A6 DUP5 DUP4 CALLDATALOAD PUSH2 0x34ED JUMP JUMPDEST PUSH2 0x28B4 DUP4 DUP4 PUSH1 0x20 ADD CALLDATALOAD PUSH2 0x34ED JUMP JUMPDEST PUSH2 0x28C2 DUP2 DUP4 PUSH1 0x40 ADD CALLDATALOAD PUSH2 0x34ED JUMP JUMPDEST PUSH2 0x28D0 DUP5 DUP4 PUSH1 0x60 ADD CALLDATALOAD PUSH2 0x3541 JUMP JUMPDEST PUSH2 0x28DE DUP4 DUP4 PUSH1 0x80 ADD CALLDATALOAD PUSH2 0x3541 JUMP JUMPDEST PUSH2 0x28EC DUP2 DUP4 PUSH1 0xA0 ADD CALLDATALOAD PUSH2 0x3541 JUMP JUMPDEST PUSH1 0x0 DUP1 PUSH1 0x0 DUP7 PUSH1 0x1 PUSH1 0x1 PUSH1 0xA0 SHL SUB AND PUSH4 0x70A08231 ADDRESS PUSH1 0x40 MLOAD DUP3 PUSH4 0xFFFFFFFF AND PUSH1 0xE0 SHL DUP2 MSTORE PUSH1 0x4 ADD PUSH2 0x291D SWAP2 SWAP1 PUSH2 0x3EF8 JUMP JUMPDEST PUSH1 0x20 PUSH1 0x40 MLOAD DUP1 DUP4 SUB DUP2 DUP7 DUP1 EXTCODESIZE ISZERO DUP1 ISZERO PUSH2 0x2935 JUMPI PUSH1 0x0 DUP1 REVERT JUMPDEST POP GAS STATICCALL ISZERO DUP1 ISZERO PUSH2 0x2949 JUMPI RETURNDATASIZE PUSH1 0x0 DUP1 RETURNDATACOPY RETURNDATASIZE PUSH1 0x0 REVERT JUMPDEST POP POP POP POP PUSH1 0x40 MLOAD RETURNDATASIZE PUSH1 0x1F NOT PUSH1 0x1F DUP3 ADD AND DUP3 ADD DUP1 PUSH1 0x40 MSTORE POP DUP2 ADD SWAP1 PUSH2 0x296D SWAP2 SWAP1 PUSH2 0x3E31 JUMP JUMPDEST SWAP1 POP PUSH1 0x0 DUP7 PUSH1 0x1 PUSH1 0x1 PUSH1 0xA0 SHL SUB AND PUSH4 0x70A08231 ADDRESS PUSH1 0x40 MLOAD DUP3 PUSH4 0xFFFFFFFF AND PUSH1 0xE0 SHL DUP2 MSTORE PUSH1 0x4 ADD PUSH2 0x299D SWAP2 SWAP1 PUSH2 0x3EF8 JUMP JUMPDEST PUSH1 0x20 PUSH1 0x40 MLOAD DUP1 DUP4 SUB DUP2 DUP7 DUP1 EXTCODESIZE ISZERO DUP1 ISZERO PUSH2 0x29B5 JUMPI PUSH1 0x0 DUP1 REVERT JUMPDEST POP GAS STATICCALL ISZERO DUP1 ISZERO PUSH2 0x29C9 JUMPI RETURNDATASIZE PUSH1 0x0 DUP1 RETURNDATACOPY RETURNDATASIZE PUSH1 0x0 REVERT JUMPDEST POP POP POP POP PUSH1 0x40 MLOAD RETURNDATASIZE PUSH1 0x1F NOT PUSH1 0x1F DUP3 ADD AND DUP3 ADD DUP1 PUSH1 0x40 MSTORE POP DUP2 ADD SWAP1 PUSH2 0x29ED SWAP2 SWAP1 PUSH2 0x3E31 JUMP JUMPDEST SWAP1 POP PUSH1 0x0 DUP1 DUP10 PUSH1 0x1 PUSH1 0x1 PUSH1 0xA0 SHL SUB AND DUP8 PUSH1 0x1 PUSH1 0x1 PUSH1 0xA0 SHL SUB AND PUSH4 0xDFE1681 PUSH1 0x40 MLOAD DUP2 PUSH4 0xFFFFFFFF AND PUSH1 0xE0 SHL DUP2 MSTORE PUSH1 0x4 ADD PUSH1 0x20 PUSH1 0x40 MLOAD DUP1 DUP4 SUB DUP2 DUP7 DUP1 EXTCODESIZE ISZERO DUP1 ISZERO PUSH2 0x2A35 JUMPI PUSH1 0x0 DUP1 REVERT JUMPDEST POP GAS STATICCALL ISZERO DUP1 ISZERO PUSH2 0x2A49 JUMPI RETURNDATASIZE PUSH1 0x0 DUP1 RETURNDATACOPY RETURNDATASIZE PUSH1 0x0 REVERT JUMPDEST POP POP POP POP PUSH1 0x40 MLOAD RETURNDATASIZE PUSH1 0x1F NOT PUSH1 0x1F DUP3 ADD AND DUP3 ADD DUP1 PUSH1 0x40 MSTORE POP DUP2 ADD SWAP1 PUSH2 0x2A6D SWAP2 SWAP1 PUSH2 0x3986 JUMP JUMPDEST PUSH1 0x1 PUSH1 0x1 PUSH1 0xA0 SHL SUB AND EQ ISZERO PUSH2 0x2B03 JUMPI DUP7 PUSH1 0x1 PUSH1 0x1 PUSH1 0xA0 SHL SUB AND PUSH4 0x902F1AC PUSH1 0x40 MLOAD DUP2 PUSH4 0xFFFFFFFF AND PUSH1 0xE0 SHL DUP2 MSTORE PUSH1 0x4 ADD PUSH1 0x60 PUSH1 0x40 MLOAD DUP1 DUP4 SUB DUP2 DUP7 DUP1 EXTCODESIZE ISZERO DUP1 ISZERO PUSH2 0x2AB5 JUMPI PUSH1 0x0 DUP1 REVERT JUMPDEST POP GAS STATICCALL ISZERO DUP1 ISZERO PUSH2 0x2AC9 JUMPI RETURNDATASIZE PUSH1 0x0 DUP1 RETURNDATACOPY RETURNDATASIZE PUSH1 0x0 REVERT JUMPDEST POP POP POP POP PUSH1 0x40 MLOAD RETURNDATASIZE PUSH1 0x1F NOT PUSH1 0x1F DUP3 ADD AND DUP3 ADD DUP1 PUSH1 0x40 MSTORE POP DUP2 ADD SWAP1 PUSH2 0x2AED SWAP2 SWAP1 PUSH2 0x3DDD JUMP JUMPDEST POP PUSH1 0x1 PUSH1 0x1 PUSH1 0x70 SHL SUB SWAP2 DUP3 AND SWAP4 POP AND SWAP1 POP PUSH2 0x2B86 JUMP JUMPDEST DUP7 PUSH1 0x1 PUSH1 0x1 PUSH1 0xA0 SHL SUB AND PUSH4 0x902F1AC PUSH1 0x40 MLOAD DUP2 PUSH4 0xFFFFFFFF AND PUSH1 0xE0 SHL DUP2 MSTORE PUSH1 0x4 ADD PUSH1 0x60 PUSH1 0x40 MLOAD DUP1 DUP4 SUB DUP2 DUP7 DUP1 EXTCODESIZE ISZERO DUP1 ISZERO PUSH2 0x2B3C JUMPI PUSH1 0x0 DUP1 REVERT JUMPDEST POP GAS STATICCALL ISZERO DUP1 ISZERO PUSH2 0x2B50 JUMPI RETURNDATASIZE PUSH1 0x0 DUP1 RETURNDATACOPY RETURNDATASIZE PUSH1 0x0 REVERT JUMPDEST POP POP POP POP PUSH1 0x40 MLOAD RETURNDATASIZE PUSH1 0x1F NOT PUSH1 0x1F DUP3 ADD AND DUP3 ADD DUP1 PUSH1 0x40 MSTORE POP DUP2 ADD SWAP1 PUSH2 0x2B74 SWAP2 SWAP1 PUSH2 0x3DDD JUMP JUMPDEST POP PUSH1 0x1 PUSH1 0x1 PUSH1 0x70 SHL SUB SWAP1 DUP2 AND SWAP4 POP AND SWAP1 POP JUMPDEST PUSH2 0x2B92 DUP5 DUP5 DUP5 DUP5 PUSH2 0x3595 JUMP JUMPDEST SWAP1 SWAP7 POP SWAP5 POP POP DUP5 ISZERO SWAP3 POP PUSH2 0x2CB7 SWAP2 POP POP JUMPI PUSH1 0x40 DUP1 MLOAD PUSH1 0x2 DUP1 DUP3 MSTORE PUSH1 0x60 DUP1 DUP4 ADD DUP5 MSTORE SWAP3 PUSH1 0x20 DUP4 ADD SWAP1 DUP1 CALLDATASIZE DUP4 CALLDATACOPY ADD SWAP1 POP POP SWAP1 POP DUP2 PUSH2 0x2BCF JUMPI DUP7 DUP7 PUSH2 0x2BD2 JUMP JUMPDEST DUP6 DUP8 JUMPDEST DUP3 PUSH1 0x0 DUP2 MLOAD DUP2 LT PUSH2 0x2BDF JUMPI INVALID JUMPDEST PUSH1 0x20 MUL PUSH1 0x20 ADD ADD DUP4 PUSH1 0x1 DUP2 MLOAD DUP2 LT PUSH2 0x2BF3 JUMPI INVALID JUMPDEST PUSH1 0x1 PUSH1 0x1 PUSH1 0xA0 SHL SUB SWAP4 DUP5 AND PUSH1 0x20 SWAP2 DUP3 MUL SWAP3 SWAP1 SWAP3 ADD ADD MSTORE SWAP2 DUP2 AND SWAP1 SWAP2 MSTORE PUSH1 0x40 MLOAD PUSH4 0x38ED1739 PUSH1 0xE0 SHL DUP2 MSTORE PUSH32 0x0 SWAP1 SWAP2 AND SWAP1 PUSH4 0x38ED1739 SWAP1 PUSH2 0x2C5E SWAP1 DUP7 SWAP1 PUSH1 0x0 SWAP1 DUP7 SWAP1 ADDRESS SWAP1 TIMESTAMP SWAP1 PUSH1 0x4 ADD PUSH2 0x452A JUMP JUMPDEST PUSH1 0x0 PUSH1 0x40 MLOAD DUP1 DUP4 SUB DUP2 PUSH1 0x0 DUP8 DUP1 EXTCODESIZE ISZERO DUP1 ISZERO PUSH2 0x2C78 JUMPI PUSH1 0x0 DUP1 REVERT JUMPDEST POP GAS CALL ISZERO DUP1 ISZERO PUSH2 0x2C8C JUMPI RETURNDATASIZE PUSH1 0x0 DUP1 RETURNDATACOPY RETURNDATASIZE PUSH1 0x0 REVERT JUMPDEST POP POP POP POP PUSH1 0x40 MLOAD RETURNDATASIZE PUSH1 0x0 DUP3 RETURNDATACOPY PUSH1 0x1F RETURNDATASIZE SWAP1 DUP2 ADD PUSH1 0x1F NOT AND DUP3 ADD PUSH1 0x40 MSTORE PUSH2 0x2CB4 SWAP2 SWAP1 DUP2 ADD SWAP1 PUSH2 0x3CE8 JUMP JUMPDEST POP POP JUMPDEST PUSH1 0x40 MLOAD PUSH4 0x70A08231 PUSH1 0xE0 SHL DUP2 MSTORE PUSH1 0x0 SWAP1 PUSH1 0x1 PUSH1 0x1 PUSH1 0xA0 SHL SUB DUP9 AND SWAP1 PUSH4 0x70A08231 SWAP1 PUSH2 0x2CE6 SWAP1 ADDRESS SWAP1 PUSH1 0x4 ADD PUSH2 0x3EF8 JUMP JUMPDEST PUSH1 0x20 PUSH1 0x40 MLOAD DUP1 DUP4 SUB DUP2 DUP7 DUP1 EXTCODESIZE ISZERO DUP1 ISZERO PUSH2 0x2CFE JUMPI PUSH1 0x0 DUP1 REVERT JUMPDEST POP GAS STATICCALL ISZERO DUP1 ISZERO PUSH2 0x2D12 JUMPI RETURNDATASIZE PUSH1 0x0 DUP1 RETURNDATACOPY RETURNDATASIZE PUSH1 0x0 REVERT JUMPDEST POP POP POP POP PUSH1 0x40 MLOAD RETURNDATASIZE PUSH1 0x1F NOT PUSH1 0x1F DUP3 ADD AND DUP3 ADD DUP1 PUSH1 0x40 MSTORE POP DUP2 ADD SWAP1 PUSH2 0x2D36 SWAP2 SWAP1 PUSH2 0x3E31 JUMP JUMPDEST SWAP1 POP PUSH1 0x0 DUP7 PUSH1 0x1 PUSH1 0x1 PUSH1 0xA0 SHL SUB AND PUSH4 0x70A08231 ADDRESS PUSH1 0x40 MLOAD DUP3 PUSH4 0xFFFFFFFF AND PUSH1 0xE0 SHL DUP2 MSTORE PUSH1 0x4 ADD PUSH2 0x2D66 SWAP2 SWAP1 PUSH2 0x3EF8 JUMP JUMPDEST PUSH1 0x20 PUSH1 0x40 MLOAD DUP1 DUP4 SUB DUP2 DUP7 DUP1 EXTCODESIZE ISZERO DUP1 ISZERO PUSH2 0x2D7E JUMPI PUSH1 0x0 DUP1 REVERT JUMPDEST POP GAS STATICCALL ISZERO DUP1 ISZERO PUSH2 0x2D92 JUMPI RETURNDATASIZE PUSH1 0x0 DUP1 RETURNDATACOPY RETURNDATASIZE PUSH1 0x0 REVERT JUMPDEST POP POP POP POP PUSH1 0x40 MLOAD RETURNDATASIZE PUSH1 0x1F NOT PUSH1 0x1F DUP3 ADD AND DUP3 ADD DUP1 PUSH1 0x40 MSTORE POP DUP2 ADD SWAP1 PUSH2 0x2DB6 SWAP2 SWAP1 PUSH2 0x3E31 JUMP JUMPDEST SWAP1 POP PUSH1 0x0 DUP3 GT DUP1 PUSH2 0x2DC7 JUMPI POP PUSH1 0x0 DUP2 GT JUMPDEST ISZERO PUSH2 0x2EC7 JUMPI DUP6 PUSH1 0xC0 ADD CALLDATALOAD DUP3 LT ISZERO PUSH2 0x2DF0 JUMPI PUSH1 0x40 MLOAD PUSH3 0x461BCD PUSH1 0xE5 SHL DUP2 MSTORE PUSH1 0x4 ADD PUSH2 0x19C SWAP1 PUSH2 0x4351 JUMP JUMPDEST DUP6 PUSH1 0xE0 ADD CALLDATALOAD DUP2 LT ISZERO PUSH2 0x2E14 JUMPI PUSH1 0x40 MLOAD PUSH3 0x461BCD PUSH1 0xE5 SHL DUP2 MSTORE PUSH1 0x4 ADD PUSH2 0x19C SWAP1 PUSH2 0x4067 JUMP JUMPDEST PUSH1 0x40 MLOAD PUSH3 0xE8E337 PUSH1 0xE8 SHL DUP2 MSTORE PUSH1 0x1 PUSH1 0x1 PUSH1 0xA0 SHL SUB PUSH32 0x0 AND SWAP1 PUSH4 0xE8E33700 SWAP1 PUSH2 0x2E75 SWAP1 DUP12 SWAP1 DUP12 SWAP1 DUP8 SWAP1 DUP8 SWAP1 PUSH1 0xC0 DUP15 ADD CALLDATALOAD SWAP1 PUSH1 0xE0 DUP16 ADD CALLDATALOAD SWAP1 ADDRESS SWAP1 TIMESTAMP SWAP1 PUSH1 0x4 ADD PUSH2 0x3F66 JUMP JUMPDEST PUSH1 0x60 PUSH1 0x40 MLOAD DUP1 DUP4 SUB DUP2 PUSH1 0x0 DUP8 DUP1 EXTCODESIZE ISZERO DUP1 ISZERO PUSH2 0x2E8F JUMPI PUSH1 0x0 DUP1 REVERT JUMPDEST POP GAS CALL ISZERO DUP1 ISZERO PUSH2 0x2EA3 JUMPI RETURNDATASIZE PUSH1 0x0 DUP1 RETURNDATACOPY RETURNDATASIZE PUSH1 0x0 REVERT JUMPDEST POP POP POP POP PUSH1 0x40 MLOAD RETURNDATASIZE PUSH1 0x1F NOT PUSH1 0x1F DUP3 ADD AND DUP3 ADD DUP1 PUSH1 0x40 MSTORE POP DUP2 ADD SWAP1 PUSH2 0x17D7 SWAP2 SWAP1 PUSH2 0x3E6C JUMP JUMPDEST POP POP POP POP POP POP POP POP JUMP JUMPDEST DUP1 ISZERO PUSH2 0x1E19 JUMPI PUSH2 0x2F01 DUP3 PUSH32 0x0 PUSH2 0x26B8 JUMP JUMPDEST PUSH1 0x40 MLOAD PUSH4 0x40C10F19 PUSH1 0xE0 SHL DUP2 MSTORE PUSH1 0x1 PUSH1 0x1 PUSH1 0xA0 SHL SUB PUSH32 0x0 AND SWAP1 PUSH4 0x40C10F19 SWAP1 PUSH2 0x2F4F SWAP1 DUP6 SWAP1 DUP6 SWAP1 PUSH1 0x4 ADD PUSH2 0x3FAF JUMP JUMPDEST PUSH1 0x0 PUSH1 0x40 MLOAD DUP1 DUP4 SUB DUP2 PUSH1 0x0 DUP8 DUP1 EXTCODESIZE ISZERO DUP1 ISZERO PUSH2 0x2F69 JUMPI PUSH1 0x0 DUP1 REVERT JUMPDEST POP GAS CALL ISZERO DUP1 ISZERO PUSH2 0x2F7D JUMPI RETURNDATASIZE PUSH1 0x0 DUP1 RETURNDATACOPY RETURNDATASIZE PUSH1 0x0 REVERT JUMPDEST POP POP PUSH1 0x40 MLOAD PUSH4 0x314568D9 PUSH1 0xE0 SHL DUP2 MSTORE PUSH1 0x1 PUSH1 0x1 PUSH1 0xA0 SHL SUB PUSH32 0x0 DUP2 AND SWAP4 POP PUSH4 0x314568D9 SWAP3 POP PUSH2 0x1DEB SWAP2 PUSH32 0x0 SWAP2 DUP8 AND SWAP1 DUP7 SWAP1 PUSH1 0x4 ADD PUSH2 0x3FC8 JUMP JUMPDEST PUSH1 0x40 MLOAD PUSH4 0x70A08231 PUSH1 0xE0 SHL DUP2 MSTORE PUSH1 0x0 SWAP1 PUSH1 0x1 PUSH1 0x1 PUSH1 0xA0 SHL SUB PUSH32 0x0 AND SWAP1 PUSH4 0x70A08231 SWAP1 PUSH2 0x3042 SWAP1 ADDRESS SWAP1 PUSH1 0x4 ADD PUSH2 0x3EF8 JUMP JUMPDEST PUSH1 0x20 PUSH1 0x40 MLOAD DUP1 DUP4 SUB DUP2 PUSH1 0x0 DUP8 DUP1 EXTCODESIZE ISZERO DUP1 ISZERO PUSH2 0x305C JUMPI PUSH1 0x0 DUP1 REVERT JUMPDEST POP GAS CALL ISZERO DUP1 ISZERO PUSH2 0x3070 JUMPI RETURNDATASIZE PUSH1 0x0 DUP1 RETURNDATACOPY RETURNDATASIZE PUSH1 0x0 REVERT JUMPDEST POP POP POP POP PUSH1 0x40 MLOAD RETURNDATASIZE PUSH1 0x1F NOT PUSH1 0x1F DUP3 ADD AND DUP3 ADD DUP1 PUSH1 0x40 MSTORE POP DUP2 ADD SWAP1 PUSH2 0x3094 SWAP2 SWAP1 PUSH2 0x3E31 JUMP JUMPDEST SWAP1 POP DUP1 ISZERO PUSH2 0x3239 JUMPI PUSH1 0x40 MLOAD PUSH4 0x2E1A7D4D PUSH1 0xE0 SHL DUP2 MSTORE PUSH1 0x1 PUSH1 0x1 PUSH1 0xA0 SHL SUB PUSH32 0x0 AND SWAP1 PUSH4 0x2E1A7D4D SWAP1 PUSH2 0x30E8 SWAP1 DUP5 SWAP1 PUSH1 0x4 ADD PUSH2 0x450A JUMP JUMPDEST PUSH1 0x0 PUSH1 0x40 MLOAD DUP1 DUP4 SUB DUP2 PUSH1 0x0 DUP8 DUP1 EXTCODESIZE ISZERO DUP1 ISZERO PUSH2 0x3102 JUMPI PUSH1 0x0 DUP1 REVERT JUMPDEST POP GAS CALL ISZERO DUP1 ISZERO PUSH2 0x3116 JUMPI RETURNDATASIZE PUSH1 0x0 DUP1 RETURNDATACOPY RETURNDATASIZE PUSH1 0x0 REVERT JUMPDEST POP POP POP POP PUSH1 0x0 PUSH32 0x0 PUSH1 0x1 PUSH1 0x1 PUSH1 0xA0 SHL SUB AND PUSH4 0x630DC7CB PUSH1 0x40 MLOAD DUP2 PUSH4 0xFFFFFFFF AND PUSH1 0xE0 SHL DUP2 MSTORE PUSH1 0x4 ADD PUSH1 0x20 PUSH1 0x40 MLOAD DUP1 DUP4 SUB DUP2 DUP7 DUP1 EXTCODESIZE ISZERO DUP1 ISZERO PUSH2 0x3175 JUMPI PUSH1 0x0 DUP1 REVERT JUMPDEST POP GAS STATICCALL ISZERO DUP1 ISZERO PUSH2 0x3189 JUMPI RETURNDATASIZE PUSH1 0x0 DUP1 RETURNDATACOPY RETURNDATASIZE PUSH1 0x0 REVERT JUMPDEST POP POP POP POP PUSH1 0x40 MLOAD RETURNDATASIZE PUSH1 0x1F NOT PUSH1 0x1F DUP3 ADD AND DUP3 ADD DUP1 PUSH1 0x40 MSTORE POP DUP2 ADD SWAP1 PUSH2 0x31AD SWAP2 SWAP1 PUSH2 0x3986 JUMP JUMPDEST PUSH1 0x40 DUP1 MLOAD PUSH1 0x0 DUP2 MSTORE PUSH1 0x20 DUP2 ADD SWAP2 DUP3 SWAP1 MSTORE PUSH1 0x1 PUSH1 0x1 PUSH1 0xA0 SHL SUB SWAP3 SWAP1 SWAP3 AND SWAP2 DUP5 SWAP2 PUSH2 0x31D6 SWAP2 SWAP1 PUSH2 0x3EDC JUMP JUMPDEST PUSH1 0x0 PUSH1 0x40 MLOAD DUP1 DUP4 SUB DUP2 DUP6 DUP8 GAS CALL SWAP3 POP POP POP RETURNDATASIZE DUP1 PUSH1 0x0 DUP2 EQ PUSH2 0x3213 JUMPI PUSH1 0x40 MLOAD SWAP2 POP PUSH1 0x1F NOT PUSH1 0x3F RETURNDATASIZE ADD AND DUP3 ADD PUSH1 0x40 MSTORE RETURNDATASIZE DUP3 MSTORE RETURNDATASIZE PUSH1 0x0 PUSH1 0x20 DUP5 ADD RETURNDATACOPY PUSH2 0x3218 JUMP JUMPDEST PUSH1 0x60 SWAP2 POP JUMPDEST POP POP SWAP1 POP DUP1 PUSH2 0x1E19 JUMPI PUSH1 0x40 MLOAD PUSH3 0x461BCD PUSH1 0xE5 SHL DUP2 MSTORE PUSH1 0x4 ADD PUSH2 0x19C SWAP1 PUSH2 0x403C JUMP JUMPDEST POP JUMP JUMPDEST PUSH1 0x60 PUSH2 0x3291 DUP3 PUSH1 0x40 MLOAD DUP1 PUSH1 0x40 ADD PUSH1 0x40 MSTORE DUP1 PUSH1 0x20 DUP2 MSTORE PUSH1 0x20 ADD PUSH32 0x5361666545524332303A206C6F772D6C6576656C2063616C6C206661696C6564 DUP2 MSTORE POP DUP6 PUSH1 0x1 PUSH1 0x1 PUSH1 0xA0 SHL SUB AND PUSH2 0x1C39 SWAP1 SWAP3 SWAP2 SWAP1 PUSH4 0xFFFFFFFF AND JUMP JUMPDEST DUP1 MLOAD SWAP1 SWAP2 POP ISZERO PUSH2 0x1C2E JUMPI DUP1 DUP1 PUSH1 0x20 ADD SWAP1 MLOAD DUP2 ADD SWAP1 PUSH2 0x32AF SWAP2 SWAP1 PUSH2 0x3D99 JUMP JUMPDEST PUSH2 0x1C2E JUMPI PUSH1 0x40 MLOAD PUSH3 0x461BCD PUSH1 0xE5 SHL DUP2 MSTORE PUSH1 0x4 ADD PUSH2 0x19C SWAP1 PUSH2 0x446A JUMP JUMPDEST PUSH1 0x60 DUP3 SELFBALANCE LT ISZERO PUSH2 0x32ED JUMPI PUSH1 0x40 MLOAD PUSH3 0x461BCD PUSH1 0xE5 SHL DUP2 MSTORE PUSH1 0x4 ADD PUSH2 0x19C SWAP1 PUSH2 0x4165 JUMP JUMPDEST PUSH2 0x32F6 DUP6 PUSH2 0x1C33 JUMP JUMPDEST PUSH2 0x3312 JUMPI PUSH1 0x40 MLOAD PUSH3 0x461BCD PUSH1 0xE5 SHL DUP2 MSTORE PUSH1 0x4 ADD PUSH2 0x19C SWAP1 PUSH2 0x4405 JUMP JUMPDEST PUSH1 0x0 PUSH1 0x60 DUP7 PUSH1 0x1 PUSH1 0x1 PUSH1 0xA0 SHL SUB AND DUP6 DUP8 PUSH1 0x40 MLOAD PUSH2 0x332F SWAP2 SWAP1 PUSH2 0x3EDC JUMP JUMPDEST PUSH1 0x0 PUSH1 0x40 MLOAD DUP1 DUP4 SUB DUP2 DUP6 DUP8 GAS CALL SWAP3 POP POP POP RETURNDATASIZE DUP1 PUSH1 0x0 DUP2 EQ PUSH2 0x336C JUMPI PUSH1 0x40 MLOAD SWAP2 POP PUSH1 0x1F NOT PUSH1 0x3F RETURNDATASIZE ADD AND DUP3 ADD PUSH1 0x40 MSTORE RETURNDATASIZE DUP3 MSTORE RETURNDATASIZE PUSH1 0x0 PUSH1 0x20 DUP5 ADD RETURNDATACOPY PUSH2 0x3371 JUMP JUMPDEST PUSH1 0x60 SWAP2 POP JUMPDEST POP SWAP2 POP SWAP2 POP PUSH2 0x3381 DUP3 DUP3 DUP7 PUSH2 0x35E4 JUMP JUMPDEST SWAP8 SWAP7 POP POP POP POP POP POP POP JUMP JUMPDEST PUSH1 0x0 DUP3 DUP3 GT ISZERO PUSH2 0x33AE JUMPI PUSH1 0x40 MLOAD PUSH3 0x461BCD PUSH1 0xE5 SHL DUP2 MSTORE PUSH1 0x4 ADD PUSH2 0x19C SWAP1 PUSH2 0x412E JUMP JUMPDEST POP SWAP1 SUB SWAP1 JUMP JUMPDEST PUSH1 0x0 DUP3 DUP3 ADD DUP4 DUP2 LT ISZERO PUSH2 0x697 JUMPI PUSH1 0x40 MLOAD PUSH3 0x461BCD PUSH1 0xE5 SHL DUP2 MSTORE PUSH1 0x4 ADD PUSH2 0x19C SWAP1 PUSH2 0x40C0 JUMP JUMPDEST DUP1 ISZERO PUSH2 0x1E19 JUMPI PUSH2 0x3409 DUP3 PUSH32 0x0 PUSH2 0x26B8 JUMP JUMPDEST PUSH1 0x40 MLOAD PUSH4 0x450CFAF PUSH1 0xE3 SHL DUP2 MSTORE PUSH1 0x1 PUSH1 0x1 PUSH1 0xA0 SHL SUB PUSH32 0x0 AND SWAP1 PUSH4 0x22867D78 SWAP1 PUSH2 0x1DEB SWAP1 DUP6 SWAP1 DUP6 SWAP1 PUSH1 0x4 ADD PUSH2 0x3FAF JUMP JUMPDEST PUSH2 0x1C2E DUP4 PUSH4 0xA9059CBB PUSH1 0xE0 SHL DUP5 DUP5 PUSH1 0x40 MLOAD PUSH1 0x24 ADD PUSH2 0x1BF7 SWAP3 SWAP2 SWAP1 PUSH2 0x3FAF JUMP JUMPDEST CALLVALUE ISZERO PUSH2 0x34EB JUMPI PUSH32 0x0 PUSH1 0x1 PUSH1 0x1 PUSH1 0xA0 SHL SUB AND PUSH4 0xD0E30DB0 CALLVALUE PUSH1 0x40 MLOAD DUP3 PUSH4 0xFFFFFFFF AND PUSH1 0xE0 SHL DUP2 MSTORE PUSH1 0x4 ADD PUSH1 0x0 PUSH1 0x40 MLOAD DUP1 DUP4 SUB DUP2 DUP6 DUP9 DUP1 EXTCODESIZE ISZERO DUP1 ISZERO PUSH2 0x34D7 JUMPI PUSH1 0x0 DUP1 REVERT JUMPDEST POP GAS CALL ISZERO DUP1 ISZERO PUSH2 0x1A51 JUMPI RETURNDATASIZE PUSH1 0x0 DUP1 RETURNDATACOPY RETURNDATASIZE PUSH1 0x0 REVERT JUMPDEST JUMP JUMPDEST DUP1 ISZERO PUSH2 0x1E19 JUMPI PUSH1 0x40 MLOAD PUSH4 0x246B5DE1 PUSH1 0xE1 SHL DUP2 MSTORE PUSH1 0x1 PUSH1 0x1 PUSH1 0xA0 SHL SUB PUSH32 0x0 AND SWAP1 PUSH4 0x48D6BBC2 SWAP1 PUSH2 0x1DEB SWAP1 DUP6 SWAP1 DUP6 SWAP1 PUSH1 0x4 ADD PUSH2 0x3FAF JUMP JUMPDEST DUP1 ISZERO PUSH2 0x1E19 JUMPI PUSH1 0x40 MLOAD PUSH4 0x4B8A3529 PUSH1 0xE0 SHL DUP2 MSTORE PUSH1 0x1 PUSH1 0x1 PUSH1 0xA0 SHL SUB PUSH32 0x0 AND SWAP1 PUSH4 0x4B8A3529 SWAP1 PUSH2 0x1DEB SWAP1 DUP6 SWAP1 DUP6 SWAP1 PUSH1 0x4 ADD PUSH2 0x3FAF JUMP JUMPDEST PUSH1 0x0 DUP1 PUSH2 0x35A2 DUP6 DUP6 PUSH2 0x361D JUMP JUMPDEST PUSH2 0x35AC DUP8 DUP6 PUSH2 0x361D JUMP JUMPDEST LT PUSH2 0x35C8 JUMPI PUSH2 0x35BD DUP7 DUP7 DUP7 DUP7 PUSH2 0x3657 JUMP JUMPDEST SWAP2 POP PUSH1 0x0 SWAP1 POP PUSH2 0x35DB JUMP JUMPDEST PUSH2 0x35D4 DUP6 DUP8 DUP6 DUP8 PUSH2 0x3657 JUMP JUMPDEST SWAP2 POP PUSH1 0x1 SWAP1 POP JUMPDEST SWAP5 POP SWAP5 SWAP3 POP POP POP JUMP JUMPDEST PUSH1 0x60 DUP4 ISZERO PUSH2 0x35F3 JUMPI POP DUP2 PUSH2 0x1C4B JUMP JUMPDEST DUP3 MLOAD ISZERO PUSH2 0x3603 JUMPI DUP3 MLOAD DUP1 DUP5 PUSH1 0x20 ADD REVERT JUMPDEST DUP2 PUSH1 0x40 MLOAD PUSH3 0x461BCD PUSH1 0xE5 SHL DUP2 MSTORE PUSH1 0x4 ADD PUSH2 0x19C SWAP2 SWAP1 PUSH2 0x4009 JUMP JUMPDEST PUSH1 0x0 DUP3 PUSH2 0x362C JUMPI POP PUSH1 0x0 PUSH2 0x69A JUMP JUMPDEST DUP3 DUP3 MUL DUP3 DUP5 DUP3 DUP2 PUSH2 0x3639 JUMPI INVALID JUMPDEST DIV EQ PUSH2 0x697 JUMPI PUSH1 0x40 MLOAD PUSH3 0x461BCD PUSH1 0xE5 SHL DUP2 MSTORE PUSH1 0x4 ADD PUSH2 0x19C SWAP1 PUSH2 0x4310 JUMP JUMPDEST PUSH1 0x0 PUSH2 0x3663 DUP5 DUP5 PUSH2 0x361D JUMP JUMPDEST PUSH2 0x366D DUP7 DUP5 PUSH2 0x361D JUMP JUMPDEST LT ISZERO PUSH2 0x368B JUMPI PUSH1 0x40 MLOAD PUSH3 0x461BCD PUSH1 0xE5 SHL DUP2 MSTORE PUSH1 0x4 ADD PUSH2 0x19C SWAP1 PUSH2 0x43BC JUMP JUMPDEST PUSH2 0x3E5 PUSH1 0x0 PUSH2 0x369C PUSH2 0x7CD DUP7 PUSH2 0x361D JUMP JUMPDEST SWAP1 POP PUSH1 0x0 PUSH2 0x36B7 PUSH2 0x36AD DUP9 DUP9 PUSH2 0x361D JUMP JUMPDEST PUSH2 0x2186 DUP11 DUP9 PUSH2 0x361D JUMP JUMPDEST SWAP1 POP PUSH1 0x0 PUSH2 0x36E4 DUP8 PUSH2 0x36DE PUSH2 0x36CC DUP12 DUP11 PUSH2 0x33B4 JUMP JUMPDEST PUSH2 0x36D8 DUP7 PUSH2 0x3E8 PUSH2 0x361D JUMP JUMPDEST SWAP1 PUSH2 0x3751 JUMP JUMPDEST SWAP1 PUSH2 0x361D JUMP JUMPDEST SWAP1 POP PUSH1 0x0 PUSH2 0x36F7 PUSH1 0x4 PUSH2 0x36DE DUP8 DUP6 PUSH2 0x361D JUMP JUMPDEST SWAP1 POP PUSH1 0x0 PUSH2 0x3717 PUSH2 0x3712 DUP4 PUSH2 0x370C DUP9 DUP1 PUSH2 0x361D JUMP JUMPDEST SWAP1 PUSH2 0x33B4 JUMP JUMPDEST PUSH2 0x3783 JUMP JUMPDEST SWAP1 POP PUSH1 0x0 PUSH2 0x3725 DUP3 DUP8 PUSH2 0x338C JUMP JUMPDEST SWAP1 POP PUSH1 0x0 PUSH2 0x3734 DUP9 PUSH1 0x2 PUSH2 0x361D JUMP JUMPDEST SWAP1 POP PUSH2 0x3740 DUP3 DUP3 PUSH2 0x3751 JUMP JUMPDEST SWAP14 SWAP13 POP POP POP POP POP POP POP POP POP POP POP POP POP JUMP JUMPDEST PUSH1 0x0 DUP1 DUP3 GT PUSH2 0x3772 JUMPI PUSH1 0x40 MLOAD PUSH3 0x461BCD PUSH1 0xE5 SHL DUP2 MSTORE PUSH1 0x4 ADD PUSH2 0x19C SWAP1 PUSH2 0x41AB JUMP JUMPDEST DUP2 DUP4 DUP2 PUSH2 0x377B JUMPI INVALID JUMPDEST DIV SWAP4 SWAP3 POP POP POP JUMP JUMPDEST PUSH1 0x0 DUP2 PUSH2 0x3792 JUMPI POP PUSH1 0x0 PUSH2 0x467 JUMP JUMPDEST DUP2 PUSH1 0x1 PUSH1 0x1 PUSH1 0x80 SHL DUP3 LT PUSH2 0x37AB JUMPI PUSH1 0x80 SWAP2 SWAP1 SWAP2 SHR SWAP1 PUSH1 0x40 SHL JUMPDEST PUSH9 0x10000000000000000 DUP3 LT PUSH2 0x37C6 JUMPI PUSH1 0x40 SWAP2 SWAP1 SWAP2 SHR SWAP1 PUSH1 0x20 SHL JUMPDEST PUSH5 0x100000000 DUP3 LT PUSH2 0x37DD JUMPI PUSH1 0x20 SWAP2 SWAP1 SWAP2 SHR SWAP1 PUSH1 0x10 SHL JUMPDEST PUSH3 0x10000 DUP3 LT PUSH2 0x37F2 JUMPI PUSH1 0x10 SWAP2 SWAP1 SWAP2 SHR SWAP1 PUSH1 0x8 SHL JUMPDEST PUSH2 0x100 DUP3 LT PUSH2 0x3806 JUMPI PUSH1 0x8 SWAP2 SWAP1 SWAP2 SHR SWAP1 PUSH1 0x4 SHL JUMPDEST PUSH1 0x10 DUP3 LT PUSH2 0x3819 JUMPI PUSH1 0x4 SWAP2 SWAP1 SWAP2 SHR SWAP1 PUSH1 0x2 SHL JUMPDEST PUSH1 0x8 DUP3 LT PUSH2 0x3825 JUMPI PUSH1 0x1 SHL JUMPDEST PUSH1 0x1 DUP2 DUP6 DUP2 PUSH2 0x3830 JUMPI INVALID JUMPDEST DIV DUP3 ADD SWAP1 SHR SWAP1 POP PUSH1 0x1 DUP2 DUP6 DUP2 PUSH2 0x3842 JUMPI INVALID JUMPDEST DIV DUP3 ADD SWAP1 SHR SWAP1 POP PUSH1 0x1 DUP2 DUP6 DUP2 PUSH2 0x3854 JUMPI INVALID JUMPDEST DIV DUP3 ADD SWAP1 SHR SWAP1 POP PUSH1 0x1 DUP2 DUP6 DUP2 PUSH2 0x3866 JUMPI INVALID JUMPDEST DIV DUP3 ADD SWAP1 SHR SWAP1 POP PUSH1 0x1 DUP2 DUP6 DUP2 PUSH2 0x3878 JUMPI INVALID JUMPDEST DIV DUP3 ADD SWAP1 SHR SWAP1 POP PUSH1 0x1 DUP2 DUP6 DUP2 PUSH2 0x388A JUMPI INVALID JUMPDEST DIV DUP3 ADD SWAP1 SHR SWAP1 POP PUSH1 0x1 DUP2 DUP6 DUP2 PUSH2 0x389C JUMPI INVALID JUMPDEST DIV DUP3 ADD SWAP1 SHR SWAP1 POP PUSH1 0x0 DUP2 DUP6 DUP2 PUSH2 0x38AE JUMPI INVALID JUMPDEST DIV SWAP1 POP DUP1 DUP3 LT PUSH2 0x38BE JUMPI DUP1 PUSH2 0x38C0 JUMP JUMPDEST DUP2 JUMPDEST SWAP6 SWAP5 POP POP POP POP POP JUMP JUMPDEST PUSH1 0x0 DUP1 DUP4 PUSH1 0x1F DUP5 ADD SLT PUSH2 0x38DA JUMPI DUP2 DUP3 REVERT JUMPDEST POP DUP2 CALLDATALOAD PUSH8 0xFFFFFFFFFFFFFFFF DUP2 GT ISZERO PUSH2 0x38F1 JUMPI DUP2 DUP3 REVERT JUMPDEST PUSH1 0x20 DUP4 ADD SWAP2 POP DUP4 PUSH1 0x20 DUP1 DUP4 MUL DUP6 ADD ADD GT ISZERO PUSH2 0x390B JUMPI PUSH1 0x0 DUP1 REVERT JUMPDEST SWAP3 POP SWAP3 SWAP1 POP JUMP JUMPDEST PUSH1 0x0 DUP1 DUP4 PUSH1 0x1F DUP5 ADD SLT PUSH2 0x3923 JUMPI DUP2 DUP3 REVERT JUMPDEST POP DUP2 CALLDATALOAD PUSH8 0xFFFFFFFFFFFFFFFF DUP2 GT ISZERO PUSH2 0x393A JUMPI DUP2 DUP3 REVERT JUMPDEST PUSH1 0x20 DUP4 ADD SWAP2 POP DUP4 PUSH1 0x20 DUP3 DUP6 ADD ADD GT ISZERO PUSH2 0x390B JUMPI PUSH1 0x0 DUP1 REVERT JUMPDEST PUSH1 0x0 PUSH2 0x100 DUP3 DUP5 SUB SLT ISZERO PUSH2 0x3964 JUMPI DUP1 DUP2 REVERT JUMPDEST POP SWAP2 SWAP1 POP JUMP JUMPDEST PUSH1 0x0 PUSH1 0x20 DUP3 DUP5 SUB SLT ISZERO PUSH2 0x397B JUMPI DUP1 DUP2 REVERT JUMPDEST DUP2 CALLDATALOAD PUSH2 0x697 DUP2 PUSH2 0x45E7 JUMP JUMPDEST PUSH1 0x0 PUSH1 0x20 DUP3 DUP5 SUB SLT ISZERO PUSH2 0x3997 JUMPI DUP1 DUP2 REVERT JUMPDEST DUP2 MLOAD PUSH2 0x697 DUP2 PUSH2 0x45E7 JUMP JUMPDEST PUSH1 0x0 DUP1 PUSH1 0x40 DUP4 DUP6 SUB SLT ISZERO PUSH2 0x39B4 JUMPI DUP1 DUP2 REVERT JUMPDEST DUP3 CALLDATALOAD PUSH2 0x39BF DUP2 PUSH2 0x45E7 JUMP JUMPDEST SWAP2 POP PUSH1 0x20 DUP4 ADD CALLDATALOAD PUSH2 0x39CF DUP2 PUSH2 0x45E7 JUMP JUMPDEST DUP1 SWAP2 POP POP SWAP3 POP SWAP3 SWAP1 POP JUMP JUMPDEST PUSH1 0x0 DUP1 PUSH1 0x0 DUP1 PUSH1 0x0 DUP1 PUSH1 0x0 DUP1 PUSH1 0xA0 DUP10 DUP12 SUB SLT ISZERO PUSH2 0x39F5 JUMPI DUP4 DUP5 REVERT JUMPDEST DUP9 CALLDATALOAD PUSH2 0x3A00 DUP2 PUSH2 0x45E7 JUMP JUMPDEST SWAP8 POP PUSH1 0x20 DUP10 ADD CALLDATALOAD PUSH2 0x3A10 DUP2 PUSH2 0x45E7 JUMP JUMPDEST SWAP7 POP PUSH1 0x40 DUP10 ADD CALLDATALOAD PUSH8 0xFFFFFFFFFFFFFFFF DUP1 DUP3 GT ISZERO PUSH2 0x3A2C JUMPI DUP6 DUP7 REVERT JUMPDEST PUSH2 0x3A38 DUP13 DUP4 DUP14 ADD PUSH2 0x38C9 JUMP JUMPDEST SWAP1 SWAP9 POP SWAP7 POP PUSH1 0x60 DUP12 ADD CALLDATALOAD SWAP2 POP DUP1 DUP3 GT ISZERO PUSH2 0x3A50 JUMPI DUP6 DUP7 REVERT JUMPDEST PUSH2 0x3A5C DUP13 DUP4 DUP14 ADD PUSH2 0x38C9 JUMP JUMPDEST SWAP1 SWAP7 POP SWAP5 POP PUSH1 0x80 DUP12 ADD CALLDATALOAD SWAP2 POP DUP1 DUP3 GT ISZERO PUSH2 0x3A74 JUMPI DUP4 DUP5 REVERT JUMPDEST POP PUSH2 0x3A81 DUP12 DUP3 DUP13 ADD PUSH2 0x3912 JUMP JUMPDEST SWAP10 SWAP13 SWAP9 SWAP12 POP SWAP7 SWAP10 POP SWAP5 SWAP8 SWAP4 SWAP7 SWAP3 SWAP6 SWAP5 POP POP POP JUMP JUMPDEST PUSH1 0x0 DUP1 PUSH1 0x0 PUSH2 0x140 DUP5 DUP7 SUB SLT ISZERO PUSH2 0x3AAA JUMPI DUP3 DUP4 REVERT JUMPDEST DUP4 CALLDATALOAD PUSH2 0x3AB5 DUP2 PUSH2 0x45E7 JUMP JUMPDEST SWAP3 POP PUSH1 0x20 DUP5 ADD CALLDATALOAD PUSH2 0x3AC5 DUP2 PUSH2 0x45E7 JUMP JUMPDEST SWAP2 POP PUSH2 0x3AD4 DUP6 PUSH1 0x40 DUP7 ADD PUSH2 0x3952 JUMP JUMPDEST SWAP1 POP SWAP3 POP SWAP3 POP SWAP3 JUMP JUMPDEST PUSH1 0x0 DUP1 PUSH1 0x0 DUP1 PUSH2 0x160 DUP6 DUP8 SUB SLT ISZERO PUSH2 0x3AF3 JUMPI DUP4 DUP5 REVERT JUMPDEST DUP5 CALLDATALOAD PUSH2 0x3AFE DUP2 PUSH2 0x45E7 JUMP JUMPDEST SWAP4 POP PUSH1 0x20 DUP6 ADD CALLDATALOAD PUSH2 0x3B0E DUP2 PUSH2 0x45E7 JUMP JUMPDEST SWAP3 POP PUSH2 0x3B1D DUP7 PUSH1 0x40 DUP8 ADD PUSH2 0x3952 JUMP JUMPDEST SWAP4 SWAP7 SWAP3 SWAP6 POP SWAP3 SWAP4 PUSH2 0x140 ADD CALLDATALOAD SWAP3 POP POP JUMP JUMPDEST PUSH1 0x0 DUP1 PUSH1 0x0 DUP4 DUP6 SUB PUSH2 0x120 DUP2 SLT ISZERO PUSH2 0x3B44 JUMPI DUP4 DUP5 REVERT JUMPDEST DUP5 CALLDATALOAD PUSH2 0x3B4F DUP2 PUSH2 0x45E7 JUMP JUMPDEST SWAP4 POP PUSH1 0x20 DUP6 ADD CALLDATALOAD PUSH2 0x3B5F DUP2 PUSH2 0x45E7 JUMP JUMPDEST SWAP3 POP PUSH1 0xE0 PUSH1 0x3F NOT DUP3 ADD SLT ISZERO PUSH2 0x3B72 JUMPI DUP2 DUP3 REVERT JUMPDEST POP PUSH1 0x40 DUP5 ADD SWAP1 POP SWAP3 POP SWAP3 POP SWAP3 JUMP JUMPDEST PUSH1 0x0 DUP1 PUSH1 0x0 DUP1 PUSH1 0x80 DUP6 DUP8 SUB SLT ISZERO PUSH2 0x3B95 JUMPI DUP2 DUP3 REVERT JUMPDEST DUP5 MLOAD PUSH2 0x3BA0 DUP2 PUSH2 0x45E7 JUMP JUMPDEST PUSH1 0x20 DUP7 ADD MLOAD SWAP1 SWAP5 POP PUSH2 0x3BB1 DUP2 PUSH2 0x45E7 JUMP JUMPDEST PUSH1 0x40 DUP7 ADD MLOAD PUSH1 0x60 SWAP1 SWAP7 ADD MLOAD SWAP5 SWAP8 SWAP1 SWAP7 POP SWAP3 POP POP POP JUMP JUMPDEST PUSH1 0x0 DUP1 PUSH1 0x0 DUP1 PUSH1 0x0 DUP1 PUSH1 0xA0 DUP8 DUP10 SUB SLT ISZERO PUSH2 0x3BDF JUMPI DUP4 DUP5 REVERT JUMPDEST DUP7 CALLDATALOAD PUSH2 0x3BEA DUP2 PUSH2 0x45E7 JUMP JUMPDEST SWAP6 POP PUSH1 0x20 DUP8 ADD CALLDATALOAD PUSH2 0x3BFA DUP2 PUSH2 0x45E7 JUMP JUMPDEST SWAP5 POP PUSH1 0x40 DUP8 ADD CALLDATALOAD SWAP4 POP PUSH1 0x60 DUP8 ADD CALLDATALOAD SWAP3 POP PUSH1 0x80 DUP8 ADD CALLDATALOAD PUSH8 0xFFFFFFFFFFFFFFFF DUP2 GT ISZERO PUSH2 0x3C23 JUMPI DUP3 DUP4 REVERT JUMPDEST PUSH2 0x3C2F DUP10 DUP3 DUP11 ADD PUSH2 0x3912 JUMP JUMPDEST SWAP8 SWAP11 SWAP7 SWAP10 POP SWAP5 SWAP8 POP SWAP3 SWAP6 SWAP4 SWAP5 SWAP3 POP POP POP JUMP JUMPDEST PUSH1 0x0 DUP1 PUSH1 0x0 DUP1 PUSH1 0x80 DUP6 DUP8 SUB SLT ISZERO PUSH2 0x3C56 JUMPI DUP2 DUP3 REVERT JUMPDEST DUP5 MLOAD PUSH2 0x3C61 DUP2 PUSH2 0x45E7 JUMP JUMPDEST PUSH1 0x20 DUP7 ADD MLOAD PUSH1 0x40 DUP8 ADD MLOAD PUSH1 0x60 SWAP1 SWAP8 ADD MLOAD SWAP2 SWAP9 SWAP1 SWAP8 POP SWAP1 SWAP5 POP SWAP3 POP POP POP JUMP JUMPDEST PUSH1 0x0 DUP1 PUSH1 0x0 DUP1 PUSH1 0x40 DUP6 DUP8 SUB SLT ISZERO PUSH2 0x3C94 JUMPI DUP2 DUP3 REVERT JUMPDEST DUP5 CALLDATALOAD PUSH8 0xFFFFFFFFFFFFFFFF DUP1 DUP3 GT ISZERO PUSH2 0x3CAB JUMPI DUP4 DUP5 REVERT JUMPDEST PUSH2 0x3CB7 DUP9 DUP4 DUP10 ADD PUSH2 0x38C9 JUMP JUMPDEST SWAP1 SWAP7 POP SWAP5 POP PUSH1 0x20 DUP8 ADD CALLDATALOAD SWAP2 POP DUP1 DUP3 GT ISZERO PUSH2 0x3CCF JUMPI DUP4 DUP5 REVERT JUMPDEST POP PUSH2 0x3CDC DUP8 DUP3 DUP9 ADD PUSH2 0x38C9 JUMP JUMPDEST SWAP6 SWAP9 SWAP5 SWAP8 POP SWAP6 POP POP POP POP JUMP JUMPDEST PUSH1 0x0 PUSH1 0x20 DUP1 DUP4 DUP6 SUB SLT ISZERO PUSH2 0x3CFA JUMPI DUP2 DUP3 REVERT JUMPDEST DUP3 MLOAD PUSH8 0xFFFFFFFFFFFFFFFF DUP2 GT ISZERO PUSH2 0x3D10 JUMPI DUP3 DUP4 REVERT JUMPDEST DUP4 ADD PUSH1 0x1F DUP2 ADD DUP6 SGT PUSH2 0x3D20 JUMPI DUP3 DUP4 REVERT JUMPDEST DUP1 MLOAD PUSH2 0x3D33 PUSH2 0x3D2E DUP3 PUSH2 0x459B JUMP JUMPDEST PUSH2 0x4574 JUMP JUMPDEST DUP2 DUP2 MSTORE DUP4 DUP2 ADD SWAP1 DUP4 DUP6 ADD DUP6 DUP5 MUL DUP6 ADD DUP7 ADD DUP10 LT ISZERO PUSH2 0x3D4F JUMPI DUP7 DUP8 REVERT JUMPDEST DUP7 SWAP5 POP JUMPDEST DUP4 DUP6 LT ISZERO PUSH2 0x3D71 JUMPI DUP1 MLOAD DUP4 MSTORE PUSH1 0x1 SWAP5 SWAP1 SWAP5 ADD SWAP4 SWAP2 DUP6 ADD SWAP2 DUP6 ADD PUSH2 0x3D53 JUMP JUMPDEST POP SWAP8 SWAP7 POP POP POP POP POP POP POP JUMP JUMPDEST PUSH1 0x0 PUSH1 0x20 DUP3 DUP5 SUB SLT ISZERO PUSH2 0x3D8E JUMPI DUP1 DUP2 REVERT JUMPDEST DUP2 CALLDATALOAD PUSH2 0x697 DUP2 PUSH2 0x45FC JUMP JUMPDEST PUSH1 0x0 PUSH1 0x20 DUP3 DUP5 SUB SLT ISZERO PUSH2 0x3DAA JUMPI DUP1 DUP2 REVERT JUMPDEST DUP2 MLOAD PUSH2 0x697 DUP2 PUSH2 0x45FC JUMP JUMPDEST PUSH1 0x0 PUSH1 0x20 DUP3 DUP5 SUB SLT ISZERO PUSH2 0x3DC6 JUMPI DUP1 DUP2 REVERT JUMPDEST DUP2 CALLDATALOAD PUSH1 0x1 PUSH1 0x1 PUSH1 0xE0 SHL SUB NOT DUP2 AND DUP2 EQ PUSH2 0x697 JUMPI DUP2 DUP3 REVERT JUMPDEST PUSH1 0x0 DUP1 PUSH1 0x0 PUSH1 0x60 DUP5 DUP7 SUB SLT ISZERO PUSH2 0x3DF1 JUMPI DUP1 DUP2 REVERT JUMPDEST DUP4 MLOAD PUSH2 0x3DFC DUP2 PUSH2 0x460A JUMP JUMPDEST PUSH1 0x20 DUP6 ADD MLOAD SWAP1 SWAP4 POP PUSH2 0x3E0D DUP2 PUSH2 0x460A JUMP JUMPDEST PUSH1 0x40 DUP6 ADD MLOAD SWAP1 SWAP3 POP PUSH4 0xFFFFFFFF DUP2 AND DUP2 EQ PUSH2 0x3E26 JUMPI DUP2 DUP3 REVERT JUMPDEST DUP1 SWAP2 POP POP SWAP3 POP SWAP3 POP SWAP3 JUMP JUMPDEST PUSH1 0x0 PUSH1 0x20 DUP3 DUP5 SUB SLT ISZERO PUSH2 0x3E42 JUMPI DUP1 DUP2 REVERT JUMPDEST POP MLOAD SWAP2 SWAP1 POP JUMP JUMPDEST PUSH1 0x0 DUP1 PUSH1 0x40 DUP4 DUP6 SUB SLT ISZERO PUSH2 0x3E5B JUMPI DUP2 DUP3 REVERT JUMPDEST POP POP DUP1 MLOAD PUSH1 0x20 SWAP1 SWAP2 ADD MLOAD SWAP1 SWAP3 SWAP1 SWAP2 POP JUMP JUMPDEST PUSH1 0x0 DUP1 PUSH1 0x0 PUSH1 0x60 DUP5 DUP7 SUB SLT ISZERO PUSH2 0x3E80 JUMPI DUP1 DUP2 REVERT JUMPDEST DUP4 MLOAD SWAP3 POP PUSH1 0x20 DUP5 ADD MLOAD SWAP2 POP PUSH1 0x40 DUP5 ADD MLOAD SWAP1 POP SWAP3 POP SWAP3 POP SWAP3 JUMP JUMPDEST PUSH1 0x0 DUP2 MLOAD DUP1 DUP5 MSTORE PUSH1 0x20 DUP1 DUP6 ADD SWAP5 POP DUP1 DUP5 ADD DUP4 JUMPDEST DUP4 DUP2 LT ISZERO PUSH2 0x3ED1 JUMPI DUP2 MLOAD PUSH1 0x1 PUSH1 0x1 PUSH1 0xA0 SHL SUB AND DUP8 MSTORE SWAP6 DUP3 ADD SWAP6 SWAP1 DUP3 ADD SWAP1 PUSH1 0x1 ADD PUSH2 0x3EAC JUMP JUMPDEST POP SWAP5 SWAP6 SWAP5 POP POP POP POP POP JUMP JUMPDEST PUSH1 0x0 DUP3 MLOAD PUSH2 0x3EEE DUP2 DUP5 PUSH1 0x20 DUP8 ADD PUSH2 0x45BB JUMP JUMPDEST SWAP2 SWAP1 SWAP2 ADD SWAP3 SWAP2 POP POP JUMP JUMPDEST PUSH1 0x1 PUSH1 0x1 PUSH1 0xA0 SHL SUB SWAP2 SWAP1 SWAP2 AND DUP2 MSTORE PUSH1 0x20 ADD SWAP1 JUMP JUMPDEST PUSH1 0x1 PUSH1 0x1 PUSH1 0xA0 SHL SUB SWAP3 DUP4 AND DUP2 MSTORE SWAP2 AND PUSH1 0x20 DUP3 ADD MSTORE PUSH1 0x40 ADD SWAP1 JUMP JUMPDEST PUSH1 0x1 PUSH1 0x1 PUSH1 0xA0 SHL SUB SWAP8 DUP9 AND DUP2 MSTORE SWAP6 DUP8 AND PUSH1 0x20 DUP8 ADD MSTORE PUSH1 0x40 DUP7 ADD SWAP5 SWAP1 SWAP5 MSTORE PUSH1 0x60 DUP6 ADD SWAP3 SWAP1 SWAP3 MSTORE PUSH1 0x80 DUP5 ADD MSTORE SWAP1 SWAP3 AND PUSH1 0xA0 DUP3 ADD MSTORE PUSH1 0xC0 DUP2 ADD SWAP2 SWAP1 SWAP2 MSTORE PUSH1 0xE0 ADD SWAP1 JUMP JUMPDEST PUSH1 0x1 PUSH1 0x1 PUSH1 0xA0 SHL SUB SWAP9 DUP10 AND DUP2 MSTORE SWAP7 DUP9 AND PUSH1 0x20 DUP9 ADD MSTORE PUSH1 0x40 DUP8 ADD SWAP6 SWAP1 SWAP6 MSTORE PUSH1 0x60 DUP7 ADD SWAP4 SWAP1 SWAP4 MSTORE PUSH1 0x80 DUP6 ADD SWAP2 SWAP1 SWAP2 MSTORE PUSH1 0xA0 DUP5 ADD MSTORE SWAP1 SWAP3 AND PUSH1 0xC0 DUP3 ADD MSTORE PUSH1 0xE0 DUP2 ADD SWAP2 SWAP1 SWAP2 MSTORE PUSH2 0x100 ADD SWAP1 JUMP JUMPDEST PUSH1 0x1 PUSH1 0x1 PUSH1 0xA0 SHL SUB SWAP3 SWAP1 SWAP3 AND DUP3 MSTORE PUSH1 0x20 DUP3 ADD MSTORE PUSH1 0x40 ADD SWAP1 JUMP JUMPDEST PUSH1 0x1 PUSH1 0x1 PUSH1 0xA0 SHL SUB SWAP4 SWAP1 SWAP4 AND DUP4 MSTORE PUSH1 0x20 DUP4 ADD SWAP2 SWAP1 SWAP2 MSTORE PUSH1 0x40 DUP3 ADD MSTORE PUSH1 0x60 ADD SWAP1 JUMP JUMPDEST SWAP1 ISZERO ISZERO DUP2 MSTORE PUSH1 0x20 ADD SWAP1 JUMP JUMPDEST PUSH1 0x1 PUSH1 0x1 PUSH1 0xE0 SHL SUB NOT SWAP2 SWAP1 SWAP2 AND DUP2 MSTORE PUSH1 0x20 ADD SWAP1 JUMP JUMPDEST PUSH1 0x0 PUSH1 0x20 DUP3 MSTORE DUP3 MLOAD DUP1 PUSH1 0x20 DUP5 ADD MSTORE PUSH2 0x4028 DUP2 PUSH1 0x40 DUP6 ADD PUSH1 0x20 DUP8 ADD PUSH2 0x45BB JUMP JUMPDEST PUSH1 0x1F ADD PUSH1 0x1F NOT AND SWAP2 SWAP1 SWAP2 ADD PUSH1 0x40 ADD SWAP3 SWAP2 POP POP JUMP JUMPDEST PUSH1 0x20 DUP1 DUP3 MSTORE PUSH1 0x11 SWAP1 DUP3 ADD MSTORE PUSH17 0x1C99599D5B99081155120819985A5B1959 PUSH1 0x7A SHL PUSH1 0x40 DUP3 ADD MSTORE PUSH1 0x60 ADD SWAP1 JUMP JUMPDEST PUSH1 0x20 DUP1 DUP3 MSTORE PUSH1 0x8 SWAP1 DUP3 ADD MSTORE PUSH8 0x10B0B6BA2126B4B7 PUSH1 0xC1 SHL PUSH1 0x40 DUP3 ADD MSTORE PUSH1 0x60 ADD SWAP1 JUMP JUMPDEST PUSH1 0x20 DUP1 DUP3 MSTORE PUSH1 0x18 SWAP1 DUP3 ADD MSTORE PUSH32 0x6E6F74207468652070656E64696E6720676F7665726E6F720000000000000000 PUSH1 0x40 DUP3 ADD MSTORE PUSH1 0x60 ADD SWAP1 JUMP JUMPDEST PUSH1 0x20 DUP1 DUP3 MSTORE PUSH1 0x1B SWAP1 DUP3 ADD MSTORE PUSH32 0x536166654D6174683A206164646974696F6E206F766572666C6F770000000000 PUSH1 0x40 DUP3 ADD MSTORE PUSH1 0x60 ADD SWAP1 JUMP JUMPDEST PUSH1 0x20 DUP1 DUP3 MSTORE PUSH1 0x1B SWAP1 DUP3 ADD MSTORE PUSH32 0x6F7261636C65206E6F7420737570706F7274206C7020746F6B656E0000000000 PUSH1 0x40 DUP3 ADD MSTORE PUSH1 0x60 ADD SWAP1 JUMP JUMPDEST PUSH1 0x20 DUP1 DUP3 MSTORE PUSH1 0x1E SWAP1 DUP3 ADD MSTORE PUSH32 0x536166654D6174683A207375627472616374696F6E206F766572666C6F770000 PUSH1 0x40 DUP3 ADD MSTORE PUSH1 0x60 ADD SWAP1 JUMP JUMPDEST PUSH1 0x20 DUP1 DUP3 MSTORE PUSH1 0x26 SWAP1 DUP3 ADD MSTORE PUSH32 0x416464726573733A20696E73756666696369656E742062616C616E636520666F PUSH1 0x40 DUP3 ADD MSTORE PUSH6 0x1C8818D85B1B PUSH1 0xD2 SHL PUSH1 0x60 DUP3 ADD MSTORE PUSH1 0x80 ADD SWAP1 JUMP JUMPDEST PUSH1 0x20 DUP1 DUP3 MSTORE PUSH1 0x1A SWAP1 DUP3 ADD MSTORE PUSH32 0x536166654D6174683A206469766973696F6E206279207A65726F000000000000 PUSH1 0x40 DUP3 ADD MSTORE PUSH1 0x60 ADD SWAP1 JUMP JUMPDEST PUSH1 0x20 DUP1 DUP3 MSTORE PUSH1 0x10 SWAP1 DUP3 ADD MSTORE PUSH16 0x3737BA103A34329033B7BB32B93737B9 PUSH1 0x81 SHL PUSH1 0x40 DUP3 ADD MSTORE PUSH1 0x60 ADD SWAP1 JUMP JUMPDEST PUSH1 0x20 DUP1 DUP3 MSTORE PUSH1 0x25 SWAP1 DUP3 ADD MSTORE PUSH32 0x6C70546F6B656E732026207374617475736573206C656E677468206D69736D61 PUSH1 0x40 DUP3 ADD MSTORE PUSH5 0x1D18DA1959 PUSH1 0xDA SHL PUSH1 0x60 DUP3 ADD MSTORE PUSH1 0x80 ADD SWAP1 JUMP JUMPDEST PUSH1 0x20 DUP1 DUP3 MSTORE PUSH1 0xB SWAP1 DUP3 ADD MSTORE PUSH11 0x3737903638103A37B5B2B7 PUSH1 0xA9 SHL PUSH1 0x40 DUP3 ADD MSTORE PUSH1 0x60 ADD SWAP1 JUMP JUMPDEST PUSH1 0x20 DUP1 DUP3 MSTORE PUSH1 0x12 SWAP1 DUP3 ADD MSTORE PUSH18 0x34B731B7B93932B1BA103638103A37B5B2B7 PUSH1 0x71 SHL PUSH1 0x40 DUP3 ADD MSTORE PUSH1 0x60 ADD SWAP1 JUMP JUMPDEST PUSH1 0x20 DUP1 DUP3 MSTORE PUSH1 0x18 SWAP1 DUP3 ADD MSTORE PUSH32 0x6C7020746F6B656E206E6F742077686974656C69737465640000000000000000 PUSH1 0x40 DUP3 ADD MSTORE PUSH1 0x60 ADD SWAP1 JUMP JUMPDEST PUSH1 0x20 DUP1 DUP3 MSTORE PUSH1 0x17 SWAP1 DUP3 ADD MSTORE PUSH32 0x455448206D75737420636F6D652066726F6D2057455448000000000000000000 PUSH1 0x40 DUP3 ADD MSTORE PUSH1 0x60 ADD SWAP1 JUMP JUMPDEST PUSH1 0x20 DUP1 DUP3 MSTORE PUSH1 0x21 SWAP1 DUP3 ADD MSTORE PUSH32 0x536166654D6174683A206D756C7469706C69636174696F6E206F766572666C6F PUSH1 0x40 DUP3 ADD MSTORE PUSH1 0x77 PUSH1 0xF8 SHL PUSH1 0x60 DUP3 ADD MSTORE PUSH1 0x80 ADD SWAP1 JUMP JUMPDEST PUSH1 0x20 DUP1 DUP3 MSTORE PUSH1 0x8 SWAP1 DUP3 ADD MSTORE PUSH8 0x10B0B6BA20A6B4B7 PUSH1 0xC1 SHL PUSH1 0x40 DUP3 ADD MSTORE PUSH1 0x60 ADD SWAP1 JUMP JUMPDEST PUSH1 0x20 DUP1 DUP3 MSTORE PUSH1 0x29 SWAP1 DUP3 ADD MSTORE PUSH32 0x636F6C6C61746572616C20746F6B656E202620776D617374657263686566206D PUSH1 0x40 DUP3 ADD MSTORE PUSH9 0x1A5CDB585D18DA1959 PUSH1 0xBA SHL PUSH1 0x60 DUP3 ADD MSTORE PUSH1 0x80 ADD SWAP1 JUMP JUMPDEST PUSH1 0x20 DUP1 DUP3 MSTORE PUSH1 0x8 SWAP1 DUP3 ADD MSTORE PUSH8 0x14995D995C9CD959 PUSH1 0xC2 SHL PUSH1 0x40 DUP3 ADD MSTORE PUSH1 0x60 ADD SWAP1 JUMP JUMPDEST PUSH1 0x20 DUP1 DUP3 MSTORE PUSH1 0xD SWAP1 DUP3 ADD MSTORE PUSH13 0x1A5B98DBDC9C9958DD081C1A59 PUSH1 0x9A SHL PUSH1 0x40 DUP3 ADD MSTORE PUSH1 0x60 ADD SWAP1 JUMP JUMPDEST PUSH1 0x20 DUP1 DUP3 MSTORE PUSH1 0x1D SWAP1 DUP3 ADD MSTORE PUSH32 0x416464726573733A2063616C6C20746F206E6F6E2D636F6E7472616374000000 PUSH1 0x40 DUP3 ADD MSTORE PUSH1 0x60 ADD SWAP1 JUMP JUMPDEST PUSH1 0x20 DUP1 DUP3 MSTORE PUSH1 0x14 SWAP1 DUP3 ADD MSTORE PUSH20 0x696E636F727265637420756E6465726C79696E67 PUSH1 0x60 SHL PUSH1 0x40 DUP3 ADD MSTORE PUSH1 0x60 ADD SWAP1 JUMP JUMPDEST PUSH1 0x20 DUP1 DUP3 MSTORE PUSH1 0x2A SWAP1 DUP3 ADD MSTORE PUSH32 0x5361666545524332303A204552433230206F7065726174696F6E20646964206E PUSH1 0x40 DUP3 ADD MSTORE PUSH10 0x1BDD081CDD58D8D95959 PUSH1 0xB2 SHL PUSH1 0x60 DUP3 ADD MSTORE PUSH1 0x80 ADD SWAP1 JUMP JUMPDEST PUSH1 0x20 DUP1 DUP3 MSTORE PUSH1 0x36 SWAP1 DUP3 ADD MSTORE PUSH32 0x5361666545524332303A20617070726F76652066726F6D206E6F6E2D7A65726F PUSH1 0x40 DUP3 ADD MSTORE PUSH22 0x20746F206E6F6E2D7A65726F20616C6C6F77616E6365 PUSH1 0x50 SHL PUSH1 0x60 DUP3 ADD MSTORE PUSH1 0x80 ADD SWAP1 JUMP JUMPDEST SWAP1 DUP2 MSTORE PUSH1 0x20 ADD SWAP1 JUMP JUMPDEST SWAP2 DUP3 MSTORE PUSH1 0x1 PUSH1 0x1 PUSH1 0xA0 SHL SUB AND PUSH1 0x20 DUP3 ADD MSTORE PUSH1 0x40 ADD SWAP1 JUMP JUMPDEST PUSH1 0x0 DUP7 DUP3 MSTORE DUP6 PUSH1 0x20 DUP4 ADD MSTORE PUSH1 0xA0 PUSH1 0x40 DUP4 ADD MSTORE PUSH2 0x4549 PUSH1 0xA0 DUP4 ADD DUP7 PUSH2 0x3E99 JUMP JUMPDEST PUSH1 0x1 PUSH1 0x1 PUSH1 0xA0 SHL SUB SWAP5 SWAP1 SWAP5 AND PUSH1 0x60 DUP4 ADD MSTORE POP PUSH1 0x80 ADD MSTORE SWAP4 SWAP3 POP POP POP JUMP JUMPDEST SWAP2 DUP3 MSTORE PUSH1 0x20 DUP3 ADD MSTORE PUSH1 0x40 ADD SWAP1 JUMP JUMPDEST PUSH1 0x40 MLOAD DUP2 DUP2 ADD PUSH8 0xFFFFFFFFFFFFFFFF DUP2 GT DUP3 DUP3 LT OR ISZERO PUSH2 0x4593 JUMPI PUSH1 0x0 DUP1 REVERT JUMPDEST PUSH1 0x40 MSTORE SWAP2 SWAP1 POP JUMP JUMPDEST PUSH1 0x0 PUSH8 0xFFFFFFFFFFFFFFFF DUP3 GT ISZERO PUSH2 0x45B1 JUMPI DUP1 DUP2 REVERT JUMPDEST POP PUSH1 0x20 SWAP1 DUP2 MUL ADD SWAP1 JUMP JUMPDEST PUSH1 0x0 JUMPDEST DUP4 DUP2 LT ISZERO PUSH2 0x45D6 JUMPI DUP2 DUP2 ADD MLOAD DUP4 DUP3 ADD MSTORE PUSH1 0x20 ADD PUSH2 0x45BE JUMP JUMPDEST DUP4 DUP2 GT ISZERO PUSH2 0x4CA JUMPI POP POP PUSH1 0x0 SWAP2 ADD MSTORE JUMP JUMPDEST PUSH1 0x1 PUSH1 0x1 PUSH1 0xA0 SHL SUB DUP2 AND DUP2 EQ PUSH2 0x3239 JUMPI PUSH1 0x0 DUP1 REVERT JUMPDEST DUP1 ISZERO ISZERO DUP2 EQ PUSH2 0x3239 JUMPI PUSH1 0x0 DUP1 REVERT JUMPDEST PUSH1 0x1 PUSH1 0x1 PUSH1 0x70 SHL SUB DUP2 AND DUP2 EQ PUSH2 0x3239 JUMPI PUSH1 0x0 DUP1 REVERT INVALID LOG2 PUSH5 0x6970667358 0x22 SLT KECCAK256 EXTCODEHASH DUP11 0xD9 0xC 0x1F 0xE4 0x5E ADD 0xDA SWAP2 0xD6 0xE PUSH28 0x7DCD4DDFA21AE0E615518B4CCE1C714BA3F8D164736F6C634300060C STOP CALLER ",
  "sha1": "34d6245c68260b9345ee34d1f10a7bc7944b8c79",
  "source": "// SPDX-License-Identifier: MIT\n\npragma solidity 0.6.12;\npragma experimental ABIEncoderV2;\n\nimport 'OpenZeppelin/openzeppelin-contracts@3.4.0/contracts/token/ERC20/IERC20.sol';\nimport 'OpenZeppelin/openzeppelin-contracts@3.4.0/contracts/math/SafeMath.sol';\n\nimport './WhitelistSpell.sol';\nimport '../utils/HomoraMath.sol';\nimport '../../interfaces/IUniswapV2Factory.sol';\nimport '../../interfaces/IUniswapV2Router02.sol';\nimport '../../interfaces/IUniswapV2Pair.sol';\nimport '../../interfaces/IWMasterChef.sol';\n\ncontract SushiswapSpellV1 is WhitelistSpell {\n  using SafeMath for uint;\n  using HomoraMath for uint;\n\n  IUniswapV2Factory public immutable factory; // Sushiswap factory\n  IUniswapV2Router02 public immutable router; // Sushiswap router\n\n  mapping(address => mapping(address => address)) public pairs; // Mapping from tokenA to (mapping from tokenB to LP token)\n\n  IWMasterChef public immutable wmasterchef; // Wrapped masterChef\n\n  address public immutable sushi; // Sushi token address\n\n  constructor(\n    IBank _bank,\n    address _werc20,\n    IUniswapV2Router02 _router,\n    address _wmasterchef\n  ) public WhitelistSpell(_bank, _werc20, _router.WETH()) {\n    router = _router;\n    factory = IUniswapV2Factory(_router.factory());\n    wmasterchef = IWMasterChef(_wmasterchef);\n    IWMasterChef(_wmasterchef).setApprovalForAll(address(_bank), true);\n    sushi = address(IWMasterChef(_wmasterchef).sushi());\n  }\n\n  /// @dev Return the LP token for the token pairs (can be in any order)\n  /// @param tokenA Token A to get LP token\n  /// @param tokenB Token B to get LP token\n  function getAndApprovePair(address tokenA, address tokenB) public returns (address) {\n    address lp = pairs[tokenA][tokenB];\n    if (lp == address(0)) {\n      lp = factory.getPair(tokenA, tokenB);\n      require(lp != address(0), 'no lp token');\n      ensureApprove(tokenA, address(router));\n      ensureApprove(tokenB, address(router));\n      ensureApprove(lp, address(router));\n      pairs[tokenA][tokenB] = lp;\n      pairs[tokenB][tokenA] = lp;\n    }\n    return lp;\n  }\n\n  /// @dev Compute optimal deposit amount\n  /// @param amtA amount of token A desired to deposit\n  /// @param amtB amount of token B desired to deposit\n  /// @param resA amount of token A in reserve\n  /// @param resB amount of token B in reserve\n  function optimalDeposit(\n    uint amtA,\n    uint amtB,\n    uint resA,\n    uint resB\n  ) internal pure returns (uint swapAmt, bool isReversed) {\n    if (amtA.mul(resB) >= amtB.mul(resA)) {\n      swapAmt = _optimalDepositA(amtA, amtB, resA, resB);\n      isReversed = false;\n    } else {\n      swapAmt = _optimalDepositA(amtB, amtA, resB, resA);\n      isReversed = true;\n    }\n  }\n\n  /// @dev Compute optimal deposit amount helper.\n  /// @param amtA amount of token A desired to deposit\n  /// @param amtB amount of token B desired to deposit\n  /// @param resA amount of token A in reserve\n  /// @param resB amount of token B in reserve\n  /// Formula: https://blog.alphafinance.io/byot/\n  function _optimalDepositA(\n    uint amtA,\n    uint amtB,\n    uint resA,\n    uint resB\n  ) internal pure returns (uint) {\n    require(amtA.mul(resB) >= amtB.mul(resA), 'Reversed');\n    uint a = 997;\n    uint b = uint(1997).mul(resA);\n    uint _c = (amtA.mul(resB)).sub(amtB.mul(resA));\n    uint c = _c.mul(1000).div(amtB.add(resB)).mul(resA);\n    uint d = a.mul(c).mul(4);\n    uint e = HomoraMath.sqrt(b.mul(b).add(d));\n    uint numerator = e.sub(b);\n    uint denominator = a.mul(2);\n    return numerator.div(denominator);\n  }\n\n  struct Amounts {\n    uint amtAUser; // Supplied tokenA amount\n    uint amtBUser; // Supplied tokenB amount\n    uint amtLPUser; // Supplied LP token amount\n    uint amtABorrow; // Borrow tokenA amount\n    uint amtBBorrow; // Borrow tokenB amount\n    uint amtLPBorrow; // Borrow LP token amount\n    uint amtAMin; // Desired tokenA amount (slippage control)\n    uint amtBMin; // Desired tokenB amount (slippage control)\n  }\n\n  /// @dev Add liquidity to Sushiswap pool\n  /// @param tokenA Token A for the pair\n  /// @param tokenB Token B for the pair\n  /// @param amt Amounts of tokens to supply, borrow, and get.\n  function addLiquidityInternal(\n    address tokenA,\n    address tokenB,\n    Amounts calldata amt,\n    address lp\n  ) internal {\n    require(whitelistedLpTokens[lp], 'lp token not whitelisted');\n\n    // 1. Get user input amounts\n    doTransmitETH();\n    doTransmit(tokenA, amt.amtAUser);\n    doTransmit(tokenB, amt.amtBUser);\n    doTransmit(lp, amt.amtLPUser);\n\n    // 2. Borrow specified amounts\n    doBorrow(tokenA, amt.amtABorrow);\n    doBorrow(tokenB, amt.amtBBorrow);\n    doBorrow(lp, amt.amtLPBorrow);\n\n    // 3. Calculate optimal swap amount\n    uint swapAmt;\n    bool isReversed;\n    {\n      uint amtA = IERC20(tokenA).balanceOf(address(this));\n      uint amtB = IERC20(tokenB).balanceOf(address(this));\n      uint resA;\n      uint resB;\n      if (IUniswapV2Pair(lp).token0() == tokenA) {\n        (resA, resB, ) = IUniswapV2Pair(lp).getReserves();\n      } else {\n        (resB, resA, ) = IUniswapV2Pair(lp).getReserves();\n      }\n      (swapAmt, isReversed) = optimalDeposit(amtA, amtB, resA, resB);\n    }\n\n    // 4. Swap optimal amount\n    if (swapAmt > 0) {\n      address[] memory path = new address[](2);\n      (path[0], path[1]) = isReversed ? (tokenB, tokenA) : (tokenA, tokenB);\n      router.swapExactTokensForTokens(swapAmt, 0, path, address(this), block.timestamp);\n    }\n\n    // 5. Add liquidity\n    uint balA = IERC20(tokenA).balanceOf(address(this));\n    uint balB = IERC20(tokenB).balanceOf(address(this));\n    if (balA > 0 || balB > 0) {\n      require(balA >= amt.amtAMin, '!amtAMin');\n      require(balB >= amt.amtBMin, '!amtBMin');\n      router.addLiquidity(\n        tokenA,\n        tokenB,\n        balA,\n        balB,\n        amt.amtAMin,\n        amt.amtBMin,\n        address(this),\n        block.timestamp\n      );\n    }\n  }\n\n  /// @dev Add liquidity to Sushiswap pool, with no staking rewards (use WERC20 wrapper)\n  /// @param tokenA Token A for the pair\n  /// @param tokenB Token B for the pair\n  /// @param amt Amounts of tokens to supply, borrow, and get.\n  function addLiquidityWERC20(\n    address tokenA,\n    address tokenB,\n    Amounts calldata amt\n  ) external payable {\n    address lp = getAndApprovePair(tokenA, tokenB);\n    // 1-5. add liquidity\n    addLiquidityInternal(tokenA, tokenB, amt, lp);\n\n    // 6. Put collateral\n    doPutCollateral(lp, IERC20(lp).balanceOf(address(this)));\n\n    // 7. Refund leftovers to users\n    doRefundETH();\n    doRefund(tokenA);\n    doRefund(tokenB);\n  }\n\n  /// @dev Add liquidity to Sushiswap pool, with staking to masterChef\n  /// @param tokenA Token A for the pair\n  /// @param tokenB Token B for the pair\n  /// @param amt Amounts of tokens to supply, borrow, and get.\n  /// @param pid Pool id\n  function addLiquidityWMasterChef(\n    address tokenA,\n    address tokenB,\n    Amounts calldata amt,\n    uint pid\n  ) external payable {\n    address lp = getAndApprovePair(tokenA, tokenB);\n    (address lpToken, , , ) = wmasterchef.chef().poolInfo(pid);\n    require(lpToken == lp, 'incorrect lp token');\n\n    // 1-5. add liquidity\n    addLiquidityInternal(tokenA, tokenB, amt, lp);\n\n    // 6. Take out collateral\n    (, address collToken, uint collId, uint collSize) = bank.getCurrentPositionInfo();\n    if (collSize > 0) {\n      (uint decodedPid, ) = wmasterchef.decodeId(collId);\n      require(pid == decodedPid, 'incorrect pid');\n      require(collToken == address(wmasterchef), 'collateral token & wmasterchef mismatched');\n      bank.takeCollateral(address(wmasterchef), collId, collSize);\n      wmasterchef.burn(collId, collSize);\n    }\n\n    // 7. Put collateral\n    ensureApprove(lp, address(wmasterchef));\n    uint amount = IERC20(lp).balanceOf(address(this));\n    uint id = wmasterchef.mint(pid, amount);\n    bank.putCollateral(address(wmasterchef), id, amount);\n\n    // 8. Refund leftovers to users\n    doRefundETH();\n    doRefund(tokenA);\n    doRefund(tokenB);\n\n    // 9. Refund sushi\n    doRefund(sushi);\n  }\n\n  struct RepayAmounts {\n    uint amtLPTake; // Take out LP token amount (from Homora)\n    uint amtLPWithdraw; // Withdraw LP token amount (back to caller)\n    uint amtARepay; // Repay tokenA amount\n    uint amtBRepay; // Repay tokenB amount\n    uint amtLPRepay; // Repay LP token amount\n    uint amtAMin; // Desired tokenA amount\n    uint amtBMin; // Desired tokenB amount\n  }\n\n  /// @dev Remove liquidity from Sushiswap pool\n  /// @param tokenA Token A for the pair\n  /// @param tokenB Token B for the pair\n  /// @param amt Amounts of tokens to take out, withdraw, repay, and get.\n  function removeLiquidityInternal(\n    address tokenA,\n    address tokenB,\n    RepayAmounts calldata amt,\n    address lp\n  ) internal {\n    require(whitelistedLpTokens[lp], 'lp token not whitelisted');\n    uint positionId = bank.POSITION_ID();\n\n    uint amtARepay = amt.amtARepay;\n    uint amtBRepay = amt.amtBRepay;\n    uint amtLPRepay = amt.amtLPRepay;\n\n    // 2. Compute repay amount if MAX_INT is supplied (max debt)\n    if (amtARepay == uint(-1)) {\n      amtARepay = bank.borrowBalanceCurrent(positionId, tokenA);\n    }\n    if (amtBRepay == uint(-1)) {\n      amtBRepay = bank.borrowBalanceCurrent(positionId, tokenB);\n    }\n    if (amtLPRepay == uint(-1)) {\n      amtLPRepay = bank.borrowBalanceCurrent(positionId, lp);\n    }\n\n    // 3. Compute amount to actually remove\n    uint amtLPToRemove = IERC20(lp).balanceOf(address(this)).sub(amt.amtLPWithdraw);\n\n    // 4. Remove liquidity\n    uint amtA;\n    uint amtB;\n    if (amtLPToRemove > 0) {\n      (amtA, amtB) = router.removeLiquidity(\n        tokenA,\n        tokenB,\n        amtLPToRemove,\n        0,\n        0,\n        address(this),\n        block.timestamp\n      );\n    }\n\n    // 5. MinimizeTrading\n    uint amtADesired = amtARepay.add(amt.amtAMin);\n    uint amtBDesired = amtBRepay.add(amt.amtBMin);\n\n    if (amtA < amtADesired && amtB > amtBDesired) {\n      address[] memory path = new address[](2);\n      (path[0], path[1]) = (tokenB, tokenA);\n      router.swapTokensForExactTokens(\n        amtADesired.sub(amtA),\n        amtB.sub(amtBDesired),\n        path,\n        address(this),\n        block.timestamp\n      );\n    } else if (amtA > amtADesired && amtB < amtBDesired) {\n      address[] memory path = new address[](2);\n      (path[0], path[1]) = (tokenA, tokenB);\n      router.swapTokensForExactTokens(\n        amtBDesired.sub(amtB),\n        amtA.sub(amtADesired),\n        path,\n        address(this),\n        block.timestamp\n      );\n    }\n\n    // 6. Repay\n    doRepay(tokenA, amtARepay);\n    doRepay(tokenB, amtBRepay);\n    doRepay(lp, amtLPRepay);\n\n    // 7. Slippage control\n    require(IERC20(tokenA).balanceOf(address(this)) >= amt.amtAMin);\n    require(IERC20(tokenB).balanceOf(address(this)) >= amt.amtBMin);\n    require(IERC20(lp).balanceOf(address(this)) >= amt.amtLPWithdraw);\n\n    // 8. Refund leftover\n    doRefundETH();\n    doRefund(tokenA);\n    doRefund(tokenB);\n    doRefund(lp);\n  }\n\n  /// @dev Remove liquidity from Sushiswap pool, with no staking rewards (use WERC20 wrapper)\n  /// @param tokenA Token A for the pair\n  /// @param tokenB Token B for the pair\n  /// @param amt Amounts of tokens to take out, withdraw, repay, and get.\n  function removeLiquidityWERC20(\n    address tokenA,\n    address tokenB,\n    RepayAmounts calldata amt\n  ) external {\n    address lp = getAndApprovePair(tokenA, tokenB);\n\n    // 1. Take out collateral\n    doTakeCollateral(lp, amt.amtLPTake);\n\n    // 2-8. remove liquidity\n    removeLiquidityInternal(tokenA, tokenB, amt, lp);\n  }\n\n  /// @dev Remove liquidity from Sushiswap pool, from masterChef staking\n  /// @param tokenA Token A for the pair\n  /// @param tokenB Token B for the pair\n  /// @param amt Amounts of tokens to take out, withdraw, repay, and get.\n  function removeLiquidityWMasterChef(\n    address tokenA,\n    address tokenB,\n    RepayAmounts calldata amt\n  ) external {\n    address lp = getAndApprovePair(tokenA, tokenB);\n    (, address collToken, uint collId, ) = bank.getCurrentPositionInfo();\n    require(IWMasterChef(collToken).getUnderlyingToken(collId) == lp, 'incorrect underlying');\n    require(collToken == address(wmasterchef), 'collateral token & wmasterchef mismatched');\n\n    // 1. Take out collateral\n    bank.takeCollateral(address(wmasterchef), collId, amt.amtLPTake);\n    wmasterchef.burn(collId, amt.amtLPTake);\n\n    // 2-8. remove liquidity\n    removeLiquidityInternal(tokenA, tokenB, amt, lp);\n\n    // 9. Refund sushi\n    doRefund(sushi);\n  }\n\n  /// @dev Harvest SUSHI reward tokens to in-exec position's owner\n  function harvestWMasterChef() external {\n    (, address collToken, uint collId, ) = bank.getCurrentPositionInfo();\n    (uint pid, ) = wmasterchef.decodeId(collId);\n    address lp = wmasterchef.getUnderlyingToken(collId);\n    require(whitelistedLpTokens[lp], 'lp token not whitelisted');\n    require(collToken == address(wmasterchef), 'collateral token & wmasterchef mismatched');\n\n    // 1. Take out collateral\n    bank.takeCollateral(address(wmasterchef), collId, uint(-1));\n    wmasterchef.burn(collId, uint(-1));\n\n    // 2. put collateral\n    uint amount = IERC20(lp).balanceOf(address(this));\n    ensureApprove(lp, address(wmasterchef));\n    uint id = wmasterchef.mint(pid, amount);\n    bank.putCollateral(address(wmasterchef), id, amount);\n\n    // 3. Refund sushi\n    doRefund(sushi);\n  }\n}\n",
  "sourcePath": "contracts/spell/SushiswapSpellV1.sol",
  "type": "contract"
}