{
  "abi": [
    {
      "inputs": [
        {
          "internalType": "contract IBank",
          "name": "_bank",
          "type": "address"
        },
        {
          "internalType": "address",
          "name": "_werc20",
          "type": "address"
        },
        {
          "internalType": "contract IUniswapV2Router02",
          "name": "_router",
          "type": "address"
        }
      ],
      "stateMutability": "nonpayable",
      "type": "constructor"
    },
    {
      "anonymous": false,
      "inputs": [
        {
          "indexed": false,
          "internalType": "address",
          "name": "governor",
          "type": "address"
        }
      ],
      "name": "AcceptGovernor",
      "type": "event"
    },
    {
      "anonymous": false,
      "inputs": [
        {
          "indexed": false,
          "internalType": "address",
          "name": "governor",
          "type": "address"
        }
      ],
      "name": "SetGovernor",
      "type": "event"
    },
    {
      "anonymous": false,
      "inputs": [
        {
          "indexed": false,
          "internalType": "address",
          "name": "pendingGovernor",
          "type": "address"
        }
      ],
      "name": "SetPendingGovernor",
      "type": "event"
    },
    {
      "inputs": [],
      "name": "acceptGovernor",
      "outputs": [],
      "stateMutability": "nonpayable",
      "type": "function"
    },
    {
      "inputs": [
        {
          "internalType": "address",
          "name": "tokenA",
          "type": "address"
        },
        {
          "internalType": "address",
          "name": "tokenB",
          "type": "address"
        },
        {
          "components": [
            {
              "internalType": "uint256",
              "name": "amtAUser",
              "type": "uint256"
            },
            {
              "internalType": "uint256",
              "name": "amtBUser",
              "type": "uint256"
            },
            {
              "internalType": "uint256",
              "name": "amtLPUser",
              "type": "uint256"
            },
            {
              "internalType": "uint256",
              "name": "amtABorrow",
              "type": "uint256"
            },
            {
              "internalType": "uint256",
              "name": "amtBBorrow",
              "type": "uint256"
            },
            {
              "internalType": "uint256",
              "name": "amtLPBorrow",
              "type": "uint256"
            },
            {
              "internalType": "uint256",
              "name": "amtAMin",
              "type": "uint256"
            },
            {
              "internalType": "uint256",
              "name": "amtBMin",
              "type": "uint256"
            }
          ],
          "internalType": "struct UniswapV2SpellV1.Amounts",
          "name": "amt",
          "type": "tuple"
        }
      ],
      "name": "addLiquidityWERC20",
      "outputs": [],
      "stateMutability": "payable",
      "type": "function"
    },
    {
      "inputs": [
        {
          "internalType": "address",
          "name": "tokenA",
          "type": "address"
        },
        {
          "internalType": "address",
          "name": "tokenB",
          "type": "address"
        },
        {
          "components": [
            {
              "internalType": "uint256",
              "name": "amtAUser",
              "type": "uint256"
            },
            {
              "internalType": "uint256",
              "name": "amtBUser",
              "type": "uint256"
            },
            {
              "internalType": "uint256",
              "name": "amtLPUser",
              "type": "uint256"
            },
            {
              "internalType": "uint256",
              "name": "amtABorrow",
              "type": "uint256"
            },
            {
              "internalType": "uint256",
              "name": "amtBBorrow",
              "type": "uint256"
            },
            {
              "internalType": "uint256",
              "name": "amtLPBorrow",
              "type": "uint256"
            },
            {
              "internalType": "uint256",
              "name": "amtAMin",
              "type": "uint256"
            },
            {
              "internalType": "uint256",
              "name": "amtBMin",
              "type": "uint256"
            }
          ],
          "internalType": "struct UniswapV2SpellV1.Amounts",
          "name": "amt",
          "type": "tuple"
        },
        {
          "internalType": "address",
          "name": "wstaking",
          "type": "address"
        }
      ],
      "name": "addLiquidityWStakingRewards",
      "outputs": [],
      "stateMutability": "payable",
      "type": "function"
    },
    {
      "inputs": [
        {
          "internalType": "address",
          "name": "",
          "type": "address"
        },
        {
          "internalType": "address",
          "name": "",
          "type": "address"
        }
      ],
      "name": "approved",
      "outputs": [
        {
          "internalType": "bool",
          "name": "",
          "type": "bool"
        }
      ],
      "stateMutability": "view",
      "type": "function"
    },
    {
      "inputs": [],
      "name": "bank",
      "outputs": [
        {
          "internalType": "contract IBank",
          "name": "",
          "type": "address"
        }
      ],
      "stateMutability": "view",
      "type": "function"
    },
    {
      "inputs": [],
      "name": "factory",
      "outputs": [
        {
          "internalType": "contract IUniswapV2Factory",
          "name": "",
          "type": "address"
        }
      ],
      "stateMutability": "view",
      "type": "function"
    },
    {
      "inputs": [
        {
          "internalType": "address",
          "name": "tokenA",
          "type": "address"
        },
        {
          "internalType": "address",
          "name": "tokenB",
          "type": "address"
        }
      ],
      "name": "getAndApprovePair",
      "outputs": [
        {
          "internalType": "address",
          "name": "",
          "type": "address"
        }
      ],
      "stateMutability": "nonpayable",
      "type": "function"
    },
    {
      "inputs": [],
      "name": "governor",
      "outputs": [
        {
          "internalType": "address",
          "name": "",
          "type": "address"
        }
      ],
      "stateMutability": "view",
      "type": "function"
    },
    {
      "inputs": [
        {
          "internalType": "address",
          "name": "wstaking",
          "type": "address"
        }
      ],
      "name": "harvestWStakingRewards",
      "outputs": [],
      "stateMutability": "nonpayable",
      "type": "function"
    },
    {
      "inputs": [
        {
          "internalType": "address",
          "name": "",
          "type": "address"
        },
        {
          "internalType": "address",
          "name": "",
          "type": "address"
        },
        {
          "internalType": "uint256[]",
          "name": "",
          "type": "uint256[]"
        },
        {
          "internalType": "uint256[]",
          "name": "",
          "type": "uint256[]"
        },
        {
          "internalType": "bytes",
          "name": "",
          "type": "bytes"
        }
      ],
      "name": "onERC1155BatchReceived",
      "outputs": [
        {
          "internalType": "bytes4",
          "name": "",
          "type": "bytes4"
        }
      ],
      "stateMutability": "nonpayable",
      "type": "function"
    },
    {
      "inputs": [
        {
          "internalType": "address",
          "name": "",
          "type": "address"
        },
        {
          "internalType": "address",
          "name": "",
          "type": "address"
        },
        {
          "internalType": "uint256",
          "name": "",
          "type": "uint256"
        },
        {
          "internalType": "uint256",
          "name": "",
          "type": "uint256"
        },
        {
          "internalType": "bytes",
          "name": "",
          "type": "bytes"
        }
      ],
      "name": "onERC1155Received",
      "outputs": [
        {
          "internalType": "bytes4",
          "name": "",
          "type": "bytes4"
        }
      ],
      "stateMutability": "nonpayable",
      "type": "function"
    },
    {
      "inputs": [
        {
          "internalType": "address",
          "name": "",
          "type": "address"
        },
        {
          "internalType": "address",
          "name": "",
          "type": "address"
        }
      ],
      "name": "pairs",
      "outputs": [
        {
          "internalType": "address",
          "name": "",
          "type": "address"
        }
      ],
      "stateMutability": "view",
      "type": "function"
    },
    {
      "inputs": [],
      "name": "pendingGovernor",
      "outputs": [
        {
          "internalType": "address",
          "name": "",
          "type": "address"
        }
      ],
      "stateMutability": "view",
      "type": "function"
    },
    {
      "inputs": [
        {
          "internalType": "address",
          "name": "tokenA",
          "type": "address"
        },
        {
          "internalType": "address",
          "name": "tokenB",
          "type": "address"
        },
        {
          "components": [
            {
              "internalType": "uint256",
              "name": "amtLPTake",
              "type": "uint256"
            },
            {
              "internalType": "uint256",
              "name": "amtLPWithdraw",
              "type": "uint256"
            },
            {
              "internalType": "uint256",
              "name": "amtARepay",
              "type": "uint256"
            },
            {
              "internalType": "uint256",
              "name": "amtBRepay",
              "type": "uint256"
            },
            {
              "internalType": "uint256",
              "name": "amtLPRepay",
              "type": "uint256"
            },
            {
              "internalType": "uint256",
              "name": "amtAMin",
              "type": "uint256"
            },
            {
              "internalType": "uint256",
              "name": "amtBMin",
              "type": "uint256"
            }
          ],
          "internalType": "struct UniswapV2SpellV1.RepayAmounts",
          "name": "amt",
          "type": "tuple"
        }
      ],
      "name": "removeLiquidityWERC20",
      "outputs": [],
      "stateMutability": "nonpayable",
      "type": "function"
    },
    {
      "inputs": [
        {
          "internalType": "address",
          "name": "tokenA",
          "type": "address"
        },
        {
          "internalType": "address",
          "name": "tokenB",
          "type": "address"
        },
        {
          "components": [
            {
              "internalType": "uint256",
              "name": "amtLPTake",
              "type": "uint256"
            },
            {
              "internalType": "uint256",
              "name": "amtLPWithdraw",
              "type": "uint256"
            },
            {
              "internalType": "uint256",
              "name": "amtARepay",
              "type": "uint256"
            },
            {
              "internalType": "uint256",
              "name": "amtBRepay",
              "type": "uint256"
            },
            {
              "internalType": "uint256",
              "name": "amtLPRepay",
              "type": "uint256"
            },
            {
              "internalType": "uint256",
              "name": "amtAMin",
              "type": "uint256"
            },
            {
              "internalType": "uint256",
              "name": "amtBMin",
              "type": "uint256"
            }
          ],
          "internalType": "struct UniswapV2SpellV1.RepayAmounts",
          "name": "amt",
          "type": "tuple"
        },
        {
          "internalType": "address",
          "name": "wstaking",
          "type": "address"
        }
      ],
      "name": "removeLiquidityWStakingRewards",
      "outputs": [],
      "stateMutability": "nonpayable",
      "type": "function"
    },
    {
      "inputs": [],
      "name": "router",
      "outputs": [
        {
          "internalType": "contract IUniswapV2Router02",
          "name": "",
          "type": "address"
        }
      ],
      "stateMutability": "view",
      "type": "function"
    },
    {
      "inputs": [
        {
          "internalType": "address",
          "name": "_pendingGovernor",
          "type": "address"
        }
      ],
      "name": "setPendingGovernor",
      "outputs": [],
      "stateMutability": "nonpayable",
      "type": "function"
    },
    {
      "inputs": [
        {
          "internalType": "address[]",
          "name": "lpTokens",
          "type": "address[]"
        },
        {
          "internalType": "bool[]",
          "name": "statuses",
          "type": "bool[]"
        }
      ],
      "name": "setWhitelistLPTokens",
      "outputs": [],
      "stateMutability": "nonpayable",
      "type": "function"
    },
    {
      "inputs": [
        {
          "internalType": "bytes4",
          "name": "interfaceId",
          "type": "bytes4"
        }
      ],
      "name": "supportsInterface",
      "outputs": [
        {
          "internalType": "bool",
          "name": "",
          "type": "bool"
        }
      ],
      "stateMutability": "view",
      "type": "function"
    },
    {
      "inputs": [],
      "name": "werc20",
      "outputs": [
        {
          "internalType": "contract IWERC20",
          "name": "",
          "type": "address"
        }
      ],
      "stateMutability": "view",
      "type": "function"
    },
    {
      "inputs": [],
      "name": "weth",
      "outputs": [
        {
          "internalType": "address",
          "name": "",
          "type": "address"
        }
      ],
      "stateMutability": "view",
      "type": "function"
    },
    {
      "inputs": [
        {
          "internalType": "address",
          "name": "",
          "type": "address"
        }
      ],
      "name": "whitelistedLpTokens",
      "outputs": [
        {
          "internalType": "bool",
          "name": "",
          "type": "bool"
        }
      ],
      "stateMutability": "view",
      "type": "function"
    },
    {
      "stateMutability": "payable",
      "type": "receive"
    }
  ],
  "bytecode": "6101206040523480156200001257600080fd5b5060405162004f5738038062004f57833981016040819052620000359162000738565b8282826001600160a01b031663ad5c46486040518163ffffffff1660e01b815260040160206040518083038186803b1580156200007157600080fd5b505afa15801562000086573d6000803e3d6000fd5b505050506040513d601f19601f82011682018060405250810190620000ac9190620006f7565b828282620000c16301ffc9a760e01b62000229565b620000d3630271189760e51b62000229565b6001600160601b0319606084811b821660805283811b821660a05282901b1660c05262000101818462000284565b60405163a22cb46560e01b81526001600160a01b0383169063a22cb4659062000132908690600190600401620007f0565b600060405180830381600087803b1580156200014d57600080fd5b505af115801562000162573d6000803e3d6000fd5b50505050505050620001796200030e60201b60201c565b505050806001600160a01b0316610100816001600160a01b031660601b81525050806001600160a01b031663c45a01556040518163ffffffff1660e01b815260040160206040518083038186803b158015620001d457600080fd5b505afa158015620001e9573d6000803e3d6000fd5b505050506040513d601f19601f820116820180604052508101906200020f9190620006f7565b60601b6001600160601b03191660e0525062000a4b915050565b6001600160e01b031980821614156200025f5760405162461bcd60e51b8152600401620002569062000859565b60405180910390fd5b6001600160e01b0319166000908152602081905260409020805460ff19166001179055565b6001600160a01b0380831660009081526041602090815260408083209385168352929052205460ff166200030a57620002d981600019846001600160a01b03166200040060201b620018ee179092919060201c565b6001600160a01b038083166000908152604160209081526040808320938516835292905220805460ff191660011790555b5050565b604254610100900460ff16806200032a57506200032a6200050e565b8062000339575060425460ff16155b620003585760405162461bcd60e51b81526004016200025690620008d6565b604254610100900460ff1615801562000384576042805460ff1961ff0019909116610100171660011790555b6042805462010000600160b01b0319163362010000810291909117909155604380546001600160a01b03191690556040517fbce074c8369e26e70e1ae2f14fc944da352cfe6f52e2de9572f0c9942a24b7fc91620003e291620007c2565b60405180910390a18015620003fd576042805461ff00191690555b50565b8015806200048f5750604051636eb1769f60e11b81526001600160a01b0384169063dd62ed3e90620004399030908690600401620007d6565b60206040518083038186803b1580156200045257600080fd5b505afa15801562000467573d6000803e3d6000fd5b505050506040513d601f19601f820116820180604052508101906200048d91906200078b565b155b620004ae5760405162461bcd60e51b81526004016200025690620009a5565b620005098363095ea7b360e01b8484604051602401620004d09291906200080b565b60408051808303601f190181529190526020810180516001600160e01b0319939093166001600160e01b03938416179052906200052c16565b505050565b60006200052630620005c860201b620019ed1760201c565b15905090565b606062000588826040518060400160405280602081526020017f5361666545524332303a206c6f772d6c6576656c2063616c6c206661696c6564815250856001600160a01b0316620005ce60201b620019f3179092919060201c565b805190915015620005095780806020019051810190620005a9919062000716565b620005095760405162461bcd60e51b815260040162000256906200095b565b3b151590565b6060620005df8484600085620005e9565b90505b9392505050565b6060824710156200060e5760405162461bcd60e51b8152600401620002569062000890565b6200061985620005c8565b620006385760405162461bcd60e51b8152600401620002569062000924565b60006060866001600160a01b03168587604051620006579190620007a4565b60006040518083038185875af1925050503d806000811462000696576040519150601f19603f3d011682016040523d82523d6000602084013e6200069b565b606091505b509092509050620006ae828286620006b9565b979650505050505050565b60608315620006ca575081620005e2565b825115620006db5782518084602001fd5b8160405162461bcd60e51b815260040162000256919062000824565b60006020828403121562000709578081fd5b8151620005e28162000a35565b60006020828403121562000728578081fd5b81518015158114620005e2578182fd5b6000806000606084860312156200074d578182fd5b83516200075a8162000a35565b60208501519093506200076d8162000a35565b6040850151909250620007808162000a35565b809150509250925092565b6000602082840312156200079d578081fd5b5051919050565b60008251620007b881846020870162000a02565b9190910192915050565b6001600160a01b0391909116815260200190565b6001600160a01b0392831681529116602082015260400190565b6001600160a01b039290921682521515602082015260400190565b6001600160a01b03929092168252602082015260400190565b60006020825282518060208401526200084581604085016020870162000a02565b601f01601f19169190910160400192915050565b6020808252601c908201527f4552433136353a20696e76616c696420696e7465726661636520696400000000604082015260600190565b60208082526026908201527f416464726573733a20696e73756666696369656e742062616c616e636520666f6040820152651c8818d85b1b60d21b606082015260800190565b6020808252602e908201527f496e697469616c697a61626c653a20636f6e747261637420697320616c72656160408201526d191e481a5b9a5d1a585b1a5e995960921b606082015260800190565b6020808252601d908201527f416464726573733a2063616c6c20746f206e6f6e2d636f6e7472616374000000604082015260600190565b6020808252602a908201527f5361666545524332303a204552433230206f7065726174696f6e20646964206e6040820152691bdd081cdd58d8d9595960b21b606082015260800190565b60208082526036908201527f5361666545524332303a20617070726f76652066726f6d206e6f6e2d7a65726f60408201527f20746f206e6f6e2d7a65726f20616c6c6f77616e636500000000000000000000606082015260800190565b60005b8381101562000a1f57818101518382015260200162000a05565b8381111562000a2f576000848401525b50505050565b6001600160a01b0381168114620003fd57600080fd5b60805160601c60a05160601c60c05160601c60e05160601c6101005160601c6143eb62000b6c60003980610572528061059c52806105c652806118cc5280611f6d528061209e52806121cb52806129dd5280612be95250806104bd5280610ec952508061014952806106495280612dc25280612e685280613233525080610b275280611af85280611b6c5280612c925280612ccd5280612d7b5250806106e7528061087d5280610a935280610b715280610ba65280610da6528061103c52806111cd52806113ee528061148e528061150352806116bf5280611a1e5280611aca5280611c185280611cd95280611d865280611e33528061257a5280612d4b5280612ed3528061319a52806131d552806132bf528061331352506143eb6000f3fe6080604052600436106101395760003560e01c8063bc197c81116100ab578063e58bb6391161006f578063e58bb6391461036a578063ee42c6f41461037f578063f235757f1461039f578063f23a6e61146103bf578063f4b16045146103df578063f887ea40146103ff57610191565b8063bc197c81146102ed578063c45a01551461031a578063cc9b18801461032f578063d57cdec514610342578063e3056a341461035557610191565b806345174f18116100fd57806345174f18146102435780634bab09f6146102635780635741229c1461028357806369454b861461029857806376cdb03b146102b8578063b2cfde44146102cd57610191565b806301ffc9a7146101965780630c340a24146101cc5780631387d96d146101ee5780632185059f1461020e5780633fc8cef31461022e57610191565b3661019157336001600160a01b037f0000000000000000000000000000000000000000000000000000000000000000161461018f5760405162461bcd60e51b8152600401610186906140df565b60405180910390fd5b005b600080fd5b3480156101a257600080fd5b506101b66101b1366004613b86565b610414565b6040516101c39190613dd5565b60405180910390f35b3480156101d857600080fd5b506101e1610437565b6040516101c39190613cc9565b3480156101fa57600080fd5b5061018f6102093660046138ff565b61044c565b34801561021a57600080fd5b506101e1610229366004613768565b610477565b34801561023a57600080fd5b506101e1610647565b34801561024f57600080fd5b5061018f61025e366004613730565b61066b565b34801561026f57600080fd5b506101b661027e366004613730565b610b10565b34801561028f57600080fd5b506101e1610b25565b3480156102a457600080fd5b506101e16102b3366004613768565b610b49565b3480156102c457600080fd5b506101e1610b6f565b3480156102d957600080fd5b5061018f6102e836600461393e565b610b93565b3480156102f957600080fd5b5061030d6103083660046137a0565b610eb3565b6040516101c39190613de0565b34801561032657600080fd5b506101e1610ec7565b61018f61033d36600461385b565b610eeb565b61018f6103503660046138a3565b610fa4565b34801561036157600080fd5b506101e161159e565b34801561037657600080fd5b5061018f6115ad565b34801561038b57600080fd5b5061018f61039a366004613a50565b61163d565b3480156103ab57600080fd5b5061018f6103ba366004613730565b611812565b3480156103cb57600080fd5b5061030d6103da3660046139d6565b611898565b3480156103eb57600080fd5b506101b66103fa366004613768565b6118aa565b34801561040b57600080fd5b506101e16118ca565b6001600160e01b0319811660009081526020819052604090205460ff165b919050565b6042546201000090046001600160a01b031681565b60006104588484610477565b9050610465818335611a0c565b61047184848484611bdc565b50505050565b6001600160a01b03808316600090815260856020908152604080832085851684529091528120549091168061063e5760405163e6a4390560e01b81526001600160a01b037f0000000000000000000000000000000000000000000000000000000000000000169063e6a43905906104f49087908790600401613cdd565b60206040518083038186803b15801561050c57600080fd5b505afa158015610520573d6000803e3d6000fd5b505050506040513d601f19601f82011682018060405250810190610544919061374c565b90506001600160a01b03811661056c5760405162461bcd60e51b815260040161018690614083565b610596847f0000000000000000000000000000000000000000000000000000000000000000612477565b6105c0837f0000000000000000000000000000000000000000000000000000000000000000612477565b6105ea817f0000000000000000000000000000000000000000000000000000000000000000612477565b6001600160a01b0380851660008181526085602081815260408084208987168552825280842080549688166001600160a01b0319978816811790915592825280842094845293905291902080549092161790555b90505b92915050565b7f000000000000000000000000000000000000000000000000000000000000000081565b6000816001600160a01b031663228cb7336040518163ffffffff1660e01b8152600401602060405180830381600087803b1580156106a857600080fd5b505af11580156106bc573d6000803e3d6000fd5b505050506040513d601f19601f820116820180604052508101906106e0919061374c565b90506000807f00000000000000000000000000000000000000000000000000000000000000006001600160a01b031663f70aedd96040518163ffffffff1660e01b815260040160806040518083038186803b15801561073e57600080fd5b505afa158015610752573d6000803e3d6000fd5b505050506040513d601f19601f82011682018060405250810190610776919061398f565b5092509250506000846001600160a01b031663a4775772836040518263ffffffff1660e01b81526004016107aa91906142a0565b60206040518083038186803b1580156107c257600080fd5b505afa1580156107d6573d6000803e3d6000fd5b505050506040513d601f19601f820116820180604052508101906107fa919061374c565b6001600160a01b03811660009081526084602052604090205490915060ff166108355760405162461bcd60e51b8152600401610186906140a8565b846001600160a01b0316836001600160a01b0316146108665760405162461bcd60e51b815260040161018690613e75565b604051630d1d697560e31b81526001600160a01b037f000000000000000000000000000000000000000000000000000000000000000016906368eb4ba8906108b8908890869060001990600401613db4565b600060405180830381600087803b1580156108d257600080fd5b505af11580156108e6573d6000803e3d6000fd5b505060405163b390c0ab60e01b81526001600160a01b038816925063b390c0ab915061091a908590600019906004016142fc565b602060405180830381600087803b15801561093457600080fd5b505af1158015610948573d6000803e3d6000fd5b505050506040513d601f19601f8201168201806040525081019061096c9190613c02565b506040516370a0823160e01b81526000906001600160a01b038316906370a082319061099c903090600401613cc9565b60206040518083038186803b1580156109b457600080fd5b505afa1580156109c8573d6000803e3d6000fd5b505050506040513d601f19601f820116820180604052508101906109ec9190613c02565b90506109f88287612477565b60405163140e25ad60e31b81526000906001600160a01b0388169063a0712d6890610a279085906004016142a0565b602060405180830381600087803b158015610a4157600080fd5b505af1158015610a55573d6000803e3d6000fd5b505050506040513d601f19601f82011682018060405250810190610a799190613c02565b60405163314568d960e01b81529091506001600160a01b037f0000000000000000000000000000000000000000000000000000000000000000169063314568d990610acc908a9085908790600401613db4565b600060405180830381600087803b158015610ae657600080fd5b505af1158015610afa573d6000803e3d6000fd5b50505050610b07866124ee565b50505050505050565b60846020526000908152604090205460ff1681565b7f000000000000000000000000000000000000000000000000000000000000000081565b60856020908152600092835260408084209091529082529020546001600160a01b031681565b7f000000000000000000000000000000000000000000000000000000000000000081565b6000610b9f8585610477565b90506000807f00000000000000000000000000000000000000000000000000000000000000006001600160a01b031663f70aedd96040518163ffffffff1660e01b815260040160806040518083038186803b158015610bfd57600080fd5b505afa158015610c11573d6000803e3d6000fd5b505050506040513d601f19601f82011682018060405250810190610c35919061398f565b5092509250506000846001600160a01b031663228cb7336040518163ffffffff1660e01b8152600401602060405180830381600087803b158015610c7857600080fd5b505af1158015610c8c573d6000803e3d6000fd5b505050506040513d601f19601f82011682018060405250810190610cb0919061374c565b9050836001600160a01b0316836001600160a01b031663a4775772846040518263ffffffff1660e01b8152600401610ce891906142a0565b60206040518083038186803b158015610d0057600080fd5b505afa158015610d14573d6000803e3d6000fd5b505050506040513d601f19601f82011682018060405250810190610d38919061374c565b6001600160a01b031614610d5e5760405162461bcd60e51b8152600401610186906141d2565b846001600160a01b0316836001600160a01b031614610d8f5760405162461bcd60e51b815260040161018690613e75565b604051630d1d697560e31b81526001600160a01b037f000000000000000000000000000000000000000000000000000000000000000016906368eb4ba890610de090889086908b3590600401613db4565b600060405180830381600087803b158015610dfa57600080fd5b505af1158015610e0e573d6000803e3d6000fd5b505060405163b390c0ab60e01b81526001600160a01b038816925063b390c0ab9150610e419085908a35906004016142fc565b602060405180830381600087803b158015610e5b57600080fd5b505af1158015610e6f573d6000803e3d6000fd5b505050506040513d601f19601f82011682018060405250810190610e939190613c02565b50610ea088888887611bdc565b610ea9816124ee565b5050505050505050565b63bc197c8160e01b98975050505050505050565b7f000000000000000000000000000000000000000000000000000000000000000081565b6000610ef78484610477565b9050610f058484848461261a565b610f8a81826001600160a01b03166370a08231306040518263ffffffff1660e01b8152600401610f359190613cc9565b60206040518083038186803b158015610f4d57600080fd5b505afa158015610f61573d6000803e3d6000fd5b505050506040513d601f19601f82011682018060405250810190610f859190613c02565b612c86565b610f92612da8565b610f9b846124ee565b610471836124ee565b6000610fb08585610477565b90506000826001600160a01b031663228cb7336040518163ffffffff1660e01b8152600401602060405180830381600087803b158015610fef57600080fd5b505af1158015611003573d6000803e3d6000fd5b505050506040513d601f19601f82011682018060405250810190611027919061374c565b90506110358686868561261a565b60008060007f00000000000000000000000000000000000000000000000000000000000000006001600160a01b031663f70aedd96040518163ffffffff1660e01b815260040160806040518083038186803b15801561109357600080fd5b505afa1580156110a7573d6000803e3d6000fd5b505050506040513d601f19601f820116820180604052508101906110cb919061398f565b919550935091505080156112ba57846001600160a01b0316836001600160a01b031663a4775772846040518263ffffffff1660e01b815260040161110f91906142a0565b60206040518083038186803b15801561112757600080fd5b505afa15801561113b573d6000803e3d6000fd5b505050506040513d601f19601f8201168201806040525081019061115f919061374c565b6001600160a01b0316146111855760405162461bcd60e51b8152600401610186906141d2565b856001600160a01b0316836001600160a01b0316146111b65760405162461bcd60e51b815260040161018690613e75565b604051630d1d697560e31b81526001600160a01b037f000000000000000000000000000000000000000000000000000000000000000016906368eb4ba89061120690899086908690600401613db4565b600060405180830381600087803b15801561122057600080fd5b505af1158015611234573d6000803e3d6000fd5b505060405163b390c0ab60e01b81526001600160a01b038916925063b390c0ab915061126690859085906004016142fc565b602060405180830381600087803b15801561128057600080fd5b505af1158015611294573d6000803e3d6000fd5b505050506040513d601f19601f820116820180604052508101906112b89190613c02565b505b6112c48587612477565b6040516370a0823160e01b81526000906001600160a01b038716906370a08231906112f3903090600401613cc9565b60206040518083038186803b15801561130b57600080fd5b505afa15801561131f573d6000803e3d6000fd5b505050506040513d601f19601f820116820180604052508101906113439190613c02565b90506000876001600160a01b031663a0712d68836040518263ffffffff1660e01b815260040161137391906142a0565b602060405180830381600087803b15801561138d57600080fd5b505af11580156113a1573d6000803e3d6000fd5b505050506040513d601f19601f820116820180604052508101906113c59190613c02565b60405163e985e9c560e01b81529091506001600160a01b0389169063e985e9c5906114169030907f000000000000000000000000000000000000000000000000000000000000000090600401613cdd565b60206040518083038186803b15801561142e57600080fd5b505afa158015611442573d6000803e3d6000fd5b505050506040513d601f19601f820116820180604052508101906114669190613b6a565b6114ec5760405163a22cb46560e01b81526001600160a01b0389169063a22cb465906114b9907f000000000000000000000000000000000000000000000000000000000000000090600190600401613d80565b600060405180830381600087803b1580156114d357600080fd5b505af11580156114e7573d6000803e3d6000fd5b505050505b60405163314568d960e01b81526001600160a01b037f0000000000000000000000000000000000000000000000000000000000000000169063314568d99061153c908b9085908790600401613db4565b600060405180830381600087803b15801561155657600080fd5b505af115801561156a573d6000803e3d6000fd5b50505050611576612da8565b61157f8b6124ee565b6115888a6124ee565b611591866124ee565b5050505050505050505050565b6043546001600160a01b031681565b6043546001600160a01b031633146115d75760405162461bcd60e51b815260040161018690613ebb565b604380546001600160a01b03191690556042805462010000600160b01b03191633620100008102919091179091556040517fd345d81ce68c70b119a17eee79dc1421700bd9cb21ca148a62dc90983964e82f9161163391613cc9565b60405180910390a1565b6042546201000090046001600160a01b0316331461166d5760405162461bcd60e51b815260040161018690614014565b82811461168c5760405162461bcd60e51b81526004016101869061403e565b60005b8381101561180b578282828181106116a357fe5b90506020020160208101906116b89190613b4e565b15611795577f00000000000000000000000000000000000000000000000000000000000000006001600160a01b031663e660cc088686848181106116f857fe5b905060200201602081019061170d9190613730565b6040518263ffffffff1660e01b81526004016117299190613cc9565b60206040518083038186803b15801561174157600080fd5b505afa158015611755573d6000803e3d6000fd5b505050506040513d601f19601f820116820180604052508101906117799190613b6a565b6117955760405162461bcd60e51b815260040161018690613f29565b8282828181106117a157fe5b90506020020160208101906117b69190613b4e565b608460008787858181106117c657fe5b90506020020160208101906117db9190613730565b6001600160a01b031681526020810191909152604001600020805460ff191691151591909117905560010161168f565b5050505050565b6042546201000090046001600160a01b031633146118425760405162461bcd60e51b815260040161018690614014565b604380546001600160a01b0319166001600160a01b0383161790556040517f964dea888b00b2ab53f13dfe7ca334b46e99338c222ae232d98547a1da019f609061188d908390613cc9565b60405180910390a150565b63f23a6e6160e01b9695505050505050565b604160209081526000928352604080842090915290825290205460ff1681565b7f000000000000000000000000000000000000000000000000000000000000000081565b8015806119765750604051636eb1769f60e11b81526001600160a01b0384169063dd62ed3e906119249030908690600401613cdd565b60206040518083038186803b15801561193c57600080fd5b505afa158015611950573d6000803e3d6000fd5b505050506040513d601f19601f820116820180604052508101906119749190613c02565b155b6119925760405162461bcd60e51b81526004016101869061424a565b6119e88363095ea7b360e01b84846040516024016119b1929190613d9b565b60408051601f198184030181529190526020810180516001600160e01b03166001600160e01b031990931692909217909152612ff1565b505050565b3b151590565b6060611a028484600085613080565b90505b9392505050565b8015611bd857600019811415611ab3577f00000000000000000000000000000000000000000000000000000000000000006001600160a01b031663f70aedd96040518163ffffffff1660e01b815260040160806040518083038186803b158015611a7557600080fd5b505afa158015611a89573d6000803e3d6000fd5b505050506040513d601f19601f82011682018060405250810190611aad919061398f565b93505050505b604051630d1d697560e31b81526001600160a01b037f00000000000000000000000000000000000000000000000000000000000000008116916368eb4ba891611b25917f0000000000000000000000000000000000000000000000000000000000000000918716908690600401613db4565b600060405180830381600087803b158015611b3f57600080fd5b505af1158015611b53573d6000803e3d6000fd5b5050604051632770a7eb60e21b81526001600160a01b037f0000000000000000000000000000000000000000000000000000000000000000169250639dc29fac9150611ba59085908590600401613d9b565b600060405180830381600087803b158015611bbf57600080fd5b505af1158015611bd3573d6000803e3d6000fd5b505050505b5050565b6001600160a01b03811660009081526084602052604090205460ff16611c145760405162461bcd60e51b8152600401610186906140a8565b60007f00000000000000000000000000000000000000000000000000000000000000006001600160a01b031663d7ac71ff6040518163ffffffff1660e01b815260040160206040518083038186803b158015611c6f57600080fd5b505afa158015611c83573d6000803e3d6000fd5b505050506040513d601f19601f82011682018060405250810190611ca79190613c02565b9050604083013560608401356080850135600019831415611d65576040516320a8bee760e21b81526001600160a01b037f000000000000000000000000000000000000000000000000000000000000000016906382a2fb9c90611d109087908c906004016142a9565b602060405180830381600087803b158015611d2a57600080fd5b505af1158015611d3e573d6000803e3d6000fd5b505050506040513d601f19601f82011682018060405250810190611d629190613c02565b92505b600019821415611e12576040516320a8bee760e21b81526001600160a01b037f000000000000000000000000000000000000000000000000000000000000000016906382a2fb9c90611dbd9087908b906004016142a9565b602060405180830381600087803b158015611dd757600080fd5b505af1158015611deb573d6000803e3d6000fd5b505050506040513d601f19601f82011682018060405250810190611e0f9190613c02565b91505b600019811415611ebf576040516320a8bee760e21b81526001600160a01b037f000000000000000000000000000000000000000000000000000000000000000016906382a2fb9c90611e6a90879089906004016142a9565b602060405180830381600087803b158015611e8457600080fd5b505af1158015611e98573d6000803e3d6000fd5b505050506040513d601f19601f82011682018060405250810190611ebc9190613c02565b90505b6000611f4b8760200135876001600160a01b03166370a08231306040518263ffffffff1660e01b8152600401611ef59190613cc9565b60206040518083038186803b158015611f0d57600080fd5b505afa158015611f21573d6000803e3d6000fd5b505050506040513d601f19601f82011682018060405250810190611f459190613c02565b90613141565b9050600080821561200657604051635d5155ef60e11b81526001600160a01b037f0000000000000000000000000000000000000000000000000000000000000000169063baa2abde90611faf908e908e908890600090819030904290600401613cf7565b6040805180830381600087803b158015611fc857600080fd5b505af1158015611fdc573d6000803e3d6000fd5b505050506040513d601f19601f820116820180604052508101906120009190613c1a565b90925090505b60006120168760a08c0135613169565b905060006120288760c08d0135613169565b9050818410801561203857508083115b156121575760408051600280825260608083018452926020830190803683370190505090508c8e8260008151811061206c57fe5b602002602001018360018151811061208057fe5b6001600160a01b0393841660209182029290920101529181169091527f000000000000000000000000000000000000000000000000000000000000000016638803dbee6120cd8588613141565b6120d78786613141565b8430426040518663ffffffff1660e01b81526004016120fa9594939291906142c0565b600060405180830381600087803b15801561211457600080fd5b505af1158015612128573d6000803e3d6000fd5b505050506040513d6000823e601f3d908101601f191682016040526121509190810190613ab9565b5050612280565b818411801561216557508083105b156122805760408051600280825260608083018452926020830190803683370190505090508d8d8260008151811061219957fe5b60200260200101836001815181106121ad57fe5b6001600160a01b0393841660209182029290920101529181169091527f000000000000000000000000000000000000000000000000000000000000000016638803dbee6121fa8487613141565b6122048887613141565b8430426040518663ffffffff1660e01b81526004016122279594939291906142c0565b600060405180830381600087803b15801561224157600080fd5b505af1158015612255573d6000803e3d6000fd5b505050506040513d6000823e601f3d908101601f1916820160405261227d9190810190613ab9565b50505b61228a8d8961318e565b6122948c8861318e565b61229e8a8761318e565b6040516370a0823160e01b815260a08c0135906001600160a01b038f16906370a08231906122d0903090600401613cc9565b60206040518083038186803b1580156122e857600080fd5b505afa1580156122fc573d6000803e3d6000fd5b505050506040513d601f19601f820116820180604052508101906123209190613c02565b101561232b57600080fd5b6040516370a0823160e01b815260c08c0135906001600160a01b038e16906370a082319061235d903090600401613cc9565b60206040518083038186803b15801561237557600080fd5b505afa158015612389573d6000803e3d6000fd5b505050506040513d601f19601f820116820180604052508101906123ad9190613c02565b10156123b857600080fd5b6040516370a0823160e01b815260208c0135906001600160a01b038c16906370a08231906123ea903090600401613cc9565b60206040518083038186803b15801561240257600080fd5b505afa158015612416573d6000803e3d6000fd5b505050506040513d601f19601f8201168201806040525081019061243a9190613c02565b101561244557600080fd5b61244d612da8565b6124568d6124ee565b61245f8c6124ee565b6124688a6124ee565b50505050505050505050505050565b6001600160a01b0380831660009081526041602090815260408083209385168352929052205460ff16611bd8576124ba6001600160a01b038316826000196118ee565b6001600160a01b038083166000908152604160209081526040808320938516835292905220805460ff191660011790555050565b6040516370a0823160e01b81526000906001600160a01b038316906370a082319061251d903090600401613cc9565b60206040518083038186803b15801561253557600080fd5b505afa158015612549573d6000803e3d6000fd5b505050506040513d601f19601f8201168201806040525081019061256d9190613c02565b90508015611bd857611bd87f00000000000000000000000000000000000000000000000000000000000000006001600160a01b031663630dc7cb6040518163ffffffff1660e01b815260040160206040518083038186803b1580156125d157600080fd5b505afa1580156125e5573d6000803e3d6000fd5b505050506040513d601f19601f82011682018060405250810190612609919061374c565b6001600160a01b038416908361320c565b6001600160a01b03811660009081526084602052604090205460ff166126525760405162461bcd60e51b8152600401610186906140a8565b61265a61322b565b6126658483356132a2565b6126738383602001356132a2565b6126818183604001356132a2565b61268f8483606001356132f6565b61269d8383608001356132f6565b6126ab818360a001356132f6565b6000806000866001600160a01b03166370a08231306040518263ffffffff1660e01b81526004016126dc9190613cc9565b60206040518083038186803b1580156126f457600080fd5b505afa158015612708573d6000803e3d6000fd5b505050506040513d601f19601f8201168201806040525081019061272c9190613c02565b90506000866001600160a01b03166370a08231306040518263ffffffff1660e01b815260040161275c9190613cc9565b60206040518083038186803b15801561277457600080fd5b505afa158015612788573d6000803e3d6000fd5b505050506040513d601f19601f820116820180604052508101906127ac9190613c02565b9050600080896001600160a01b0316876001600160a01b0316630dfe16816040518163ffffffff1660e01b815260040160206040518083038186803b1580156127f457600080fd5b505afa158015612808573d6000803e3d6000fd5b505050506040513d601f19601f8201168201806040525081019061282c919061374c565b6001600160a01b031614156128c257866001600160a01b0316630902f1ac6040518163ffffffff1660e01b815260040160606040518083038186803b15801561287457600080fd5b505afa158015612888573d6000803e3d6000fd5b505050506040513d601f19601f820116820180604052508101906128ac9190613bae565b506001600160701b039182169350169050612945565b866001600160a01b0316630902f1ac6040518163ffffffff1660e01b815260040160606040518083038186803b1580156128fb57600080fd5b505afa15801561290f573d6000803e3d6000fd5b505050506040513d601f19601f820116820180604052508101906129339190613bae565b506001600160701b0390811693501690505b6129518484848461334a565b90965094505084159250612a769150505760408051600280825260608083018452926020830190803683370190505090508161298e578686612991565b85875b8260008151811061299e57fe5b60200260200101836001815181106129b257fe5b6001600160a01b0393841660209182029290920101529181169091526040516338ed173960e01b81527f0000000000000000000000000000000000000000000000000000000000000000909116906338ed173990612a1d9086906000908690309042906004016142c0565b600060405180830381600087803b158015612a3757600080fd5b505af1158015612a4b573d6000803e3d6000fd5b505050506040513d6000823e601f3d908101601f19168201604052612a739190810190613ab9565b50505b6040516370a0823160e01b81526000906001600160a01b038816906370a0823190612aa5903090600401613cc9565b60206040518083038186803b158015612abd57600080fd5b505afa158015612ad1573d6000803e3d6000fd5b505050506040513d601f19601f82011682018060405250810190612af59190613c02565b90506000866001600160a01b03166370a08231306040518263ffffffff1660e01b8152600401612b259190613cc9565b60206040518083038186803b158015612b3d57600080fd5b505afa158015612b51573d6000803e3d6000fd5b505050506040513d601f19601f82011682018060405250810190612b759190613c02565b90506000821180612b865750600081115b15610ea9578560c00135821015612baf5760405162461bcd60e51b815260040161018690614157565b8560e00135811015612bd35760405162461bcd60e51b815260040161018690613e53565b60405162e8e33760e81b81526001600160a01b037f0000000000000000000000000000000000000000000000000000000000000000169063e8e3370090612c34908b908b908790879060c08e01359060e08f01359030904290600401613d37565b606060405180830381600087803b158015612c4e57600080fd5b505af1158015612c62573d6000803e3d6000fd5b505050506040513d601f19601f820116820180604052508101906115919190613c3d565b8015611bd857612cb6827f0000000000000000000000000000000000000000000000000000000000000000612477565b6040516340c10f1960e01b81526001600160a01b037f000000000000000000000000000000000000000000000000000000000000000016906340c10f1990612d049085908590600401613d9b565b600060405180830381600087803b158015612d1e57600080fd5b505af1158015612d32573d6000803e3d6000fd5b505060405163314568d960e01b81526001600160a01b037f00000000000000000000000000000000000000000000000000000000000000008116935063314568d99250611ba5917f0000000000000000000000000000000000000000000000000000000000000000918716908690600401613db4565b6040516370a0823160e01b81526000906001600160a01b037f000000000000000000000000000000000000000000000000000000000000000016906370a0823190612df7903090600401613cc9565b602060405180830381600087803b158015612e1157600080fd5b505af1158015612e25573d6000803e3d6000fd5b505050506040513d601f19601f82011682018060405250810190612e499190613c02565b90508015612fee57604051632e1a7d4d60e01b81526001600160a01b037f00000000000000000000000000000000000000000000000000000000000000001690632e1a7d4d90612e9d9084906004016142a0565b600060405180830381600087803b158015612eb757600080fd5b505af1158015612ecb573d6000803e3d6000fd5b5050505060007f00000000000000000000000000000000000000000000000000000000000000006001600160a01b031663630dc7cb6040518163ffffffff1660e01b815260040160206040518083038186803b158015612f2a57600080fd5b505afa158015612f3e573d6000803e3d6000fd5b505050506040513d601f19601f82011682018060405250810190612f62919061374c565b604080516000815260208101918290526001600160a01b0392909216918491612f8b9190613cad565b60006040518083038185875af1925050503d8060008114612fc8576040519150601f19603f3d011682016040523d82523d6000602084013e612fcd565b606091505b5050905080611bd85760405162461bcd60e51b815260040161018690613e28565b50565b6060613046826040518060400160405280602081526020017f5361666545524332303a206c6f772d6c6576656c2063616c6c206661696c6564815250856001600160a01b03166119f39092919063ffffffff16565b8051909150156119e857808060200190518101906130649190613b6a565b6119e85760405162461bcd60e51b815260040161018690614200565b6060824710156130a25760405162461bcd60e51b815260040161018690613f97565b6130ab856119ed565b6130c75760405162461bcd60e51b81526004016101869061419b565b60006060866001600160a01b031685876040516130e49190613cad565b60006040518083038185875af1925050503d8060008114613121576040519150601f19603f3d011682016040523d82523d6000602084013e613126565b606091505b5091509150613136828286613399565b979650505050505050565b6000828211156131635760405162461bcd60e51b815260040161018690613f60565b50900390565b60008282018381101561063e5760405162461bcd60e51b815260040161018690613ef2565b8015611bd8576131be827f0000000000000000000000000000000000000000000000000000000000000000612477565b604051630450cfaf60e31b81526001600160a01b037f000000000000000000000000000000000000000000000000000000000000000016906322867d7890611ba59085908590600401613d9b565b6119e88363a9059cbb60e01b84846040516024016119b1929190613d9b565b34156132a0577f00000000000000000000000000000000000000000000000000000000000000006001600160a01b031663d0e30db0346040518263ffffffff1660e01b81526004016000604051808303818588803b15801561328c57600080fd5b505af115801561180b573d6000803e3d6000fd5b565b8015611bd85760405163246b5de160e11b81526001600160a01b037f000000000000000000000000000000000000000000000000000000000000000016906348d6bbc290611ba59085908590600401613d9b565b8015611bd857604051634b8a352960e01b81526001600160a01b037f00000000000000000000000000000000000000000000000000000000000000001690634b8a352990611ba59085908590600401613d9b565b60008061335785856133d2565b61336187856133d2565b1061337d576133728686868661340c565b915060009050613390565b6133898587858761340c565b9150600190505b94509492505050565b606083156133a8575081611a05565b8251156133b85782518084602001fd5b8160405162461bcd60e51b81526004016101869190613df5565b6000826133e157506000610641565b828202828482816133ee57fe5b041461063e5760405162461bcd60e51b815260040161018690614116565b600061341884846133d2565b61342286846133d2565b10156134405760405162461bcd60e51b815260040161018690614179565b6103e560006134516107cd866133d2565b9050600061346c61346288886133d2565b611f458a886133d2565b90506000613499876134936134818b8a613169565b61348d866103e86133d2565b90613506565b906133d2565b905060006134ac600461349387856133d2565b905060006134cc6134c7836134c188806133d2565b90613169565b613538565b905060006134da8287613141565b905060006134e98860026133d2565b90506134f58282613506565b9d9c50505050505050505050505050565b60008082116135275760405162461bcd60e51b815260040161018690613fdd565b81838161353057fe5b049392505050565b60008161354757506000610432565b816001600160801b82106135605760809190911c9060401b5b68010000000000000000821061357b5760409190911c9060201b5b64010000000082106135925760209190911c9060101b5b6201000082106135a75760109190911c9060081b5b61010082106135bb5760089190911c9060041b5b601082106135ce5760049190911c9060021b5b600882106135da5760011b5b60018185816135e557fe5b048201901c905060018185816135f757fe5b048201901c9050600181858161360957fe5b048201901c9050600181858161361b57fe5b048201901c9050600181858161362d57fe5b048201901c9050600181858161363f57fe5b048201901c9050600181858161365157fe5b048201901c9050600081858161366357fe5b0490508082106136735780613675565b815b95945050505050565b60008083601f84011261368f578182fd5b50813567ffffffffffffffff8111156136a6578182fd5b60208301915083602080830285010111156136c057600080fd5b9250929050565b60008083601f8401126136d8578182fd5b50813567ffffffffffffffff8111156136ef578182fd5b6020830191508360208285010111156136c057600080fd5b60006101008284031215613719578081fd5b50919050565b600060e08284031215613719578081fd5b600060208284031215613741578081fd5b813561063e8161437d565b60006020828403121561375d578081fd5b815161063e8161437d565b6000806040838503121561377a578081fd5b82356137858161437d565b915060208301356137958161437d565b809150509250929050565b60008060008060008060008060a0898b0312156137bb578384fd5b88356137c68161437d565b975060208901356137d68161437d565b9650604089013567ffffffffffffffff808211156137f2578586fd5b6137fe8c838d0161367e565b909850965060608b0135915080821115613816578586fd5b6138228c838d0161367e565b909650945060808b013591508082111561383a578384fd5b506138478b828c016136c7565b999c989b5096995094979396929594505050565b60008060006101408486031215613870578283fd5b833561387b8161437d565b9250602084013561388b8161437d565b915061389a8560408601613707565b90509250925092565b60008060008061016085870312156138b9578384fd5b84356138c48161437d565b935060208501356138d48161437d565b92506138e38660408701613707565b91506101408501356138f48161437d565b939692955090935050565b60008060006101208486031215613914578283fd5b833561391f8161437d565b9250602084013561392f8161437d565b915061389a856040860161371f565b6000806000806101408587031215613954578384fd5b843561395f8161437d565b9350602085013561396f8161437d565b925061397e866040870161371f565b91506101208501356138f48161437d565b600080600080608085870312156139a4578182fd5b84516139af8161437d565b60208601519094506139c08161437d565b6040860151606090960151949790965092505050565b60008060008060008060a087890312156139ee578384fd5b86356139f98161437d565b95506020870135613a098161437d565b94506040870135935060608701359250608087013567ffffffffffffffff811115613a32578283fd5b613a3e89828a016136c7565b979a9699509497509295939492505050565b60008060008060408587031215613a65578182fd5b843567ffffffffffffffff80821115613a7c578384fd5b613a888883890161367e565b90965094506020870135915080821115613aa0578384fd5b50613aad8782880161367e565b95989497509550505050565b60006020808385031215613acb578182fd5b825167ffffffffffffffff811115613ae1578283fd5b8301601f81018513613af1578283fd5b8051613b04613aff82614331565b61430a565b8181528381019083850185840285018601891015613b20578687fd5b8694505b83851015613b42578051835260019490940193918501918501613b24565b50979650505050505050565b600060208284031215613b5f578081fd5b813561063e81614392565b600060208284031215613b7b578081fd5b815161063e81614392565b600060208284031215613b97578081fd5b81356001600160e01b03198116811461063e578182fd5b600080600060608486031215613bc2578081fd5b8351613bcd816143a0565b6020850151909350613bde816143a0565b604085015190925063ffffffff81168114613bf7578182fd5b809150509250925092565b600060208284031215613c13578081fd5b5051919050565b60008060408385031215613c2c578182fd5b505080516020909101519092909150565b600080600060608486031215613c51578081fd5b8351925060208401519150604084015190509250925092565b6000815180845260208085019450808401835b83811015613ca25781516001600160a01b031687529582019590820190600101613c7d565b509495945050505050565b60008251613cbf818460208701614351565b9190910192915050565b6001600160a01b0391909116815260200190565b6001600160a01b0392831681529116602082015260400190565b6001600160a01b039788168152958716602087015260408601949094526060850192909252608084015290921660a082015260c081019190915260e00190565b6001600160a01b039889168152968816602088015260408701959095526060860193909352608085019190915260a084015290921660c082015260e08101919091526101000190565b6001600160a01b039290921682521515602082015260400190565b6001600160a01b03929092168252602082015260400190565b6001600160a01b039390931683526020830191909152604082015260600190565b901515815260200190565b6001600160e01b031991909116815260200190565b6000602082528251806020840152613e14816040850160208701614351565b601f01601f19169190910160400192915050565b6020808252601190820152701c99599d5b99081155120819985a5b1959607a1b604082015260600190565b60208082526008908201526710b0b6ba2126b4b760c11b604082015260600190565b60208082526026908201527f636f6c6c61746572616c20746f6b656e202620777374616b696e67206d69736d604082015265185d18da195960d21b606082015260800190565b60208082526018908201527f6e6f74207468652070656e64696e6720676f7665726e6f720000000000000000604082015260600190565b6020808252601b908201527f536166654d6174683a206164646974696f6e206f766572666c6f770000000000604082015260600190565b6020808252601b908201527f6f7261636c65206e6f7420737570706f7274206c7020746f6b656e0000000000604082015260600190565b6020808252601e908201527f536166654d6174683a207375627472616374696f6e206f766572666c6f770000604082015260600190565b60208082526026908201527f416464726573733a20696e73756666696369656e742062616c616e636520666f6040820152651c8818d85b1b60d21b606082015260800190565b6020808252601a908201527f536166654d6174683a206469766973696f6e206279207a65726f000000000000604082015260600190565b60208082526010908201526f3737ba103a34329033b7bb32b93737b960811b604082015260600190565b60208082526025908201527f6c70546f6b656e732026207374617475736573206c656e677468206d69736d616040820152641d18da195960da1b606082015260800190565b6020808252600b908201526a3737903638103a37b5b2b760a91b604082015260600190565b60208082526018908201527f6c7020746f6b656e206e6f742077686974656c69737465640000000000000000604082015260600190565b60208082526017908201527f455448206d75737420636f6d652066726f6d2057455448000000000000000000604082015260600190565b60208082526021908201527f536166654d6174683a206d756c7469706c69636174696f6e206f766572666c6f6040820152607760f81b606082015260800190565b60208082526008908201526710b0b6ba20a6b4b760c11b604082015260600190565b60208082526008908201526714995d995c9cd95960c21b604082015260600190565b6020808252601d908201527f416464726573733a2063616c6c20746f206e6f6e2d636f6e7472616374000000604082015260600190565b602080825260149082015273696e636f727265637420756e6465726c79696e6760601b604082015260600190565b6020808252602a908201527f5361666545524332303a204552433230206f7065726174696f6e20646964206e6040820152691bdd081cdd58d8d9595960b21b606082015260800190565b60208082526036908201527f5361666545524332303a20617070726f76652066726f6d206e6f6e2d7a65726f60408201527520746f206e6f6e2d7a65726f20616c6c6f77616e636560501b606082015260800190565b90815260200190565b9182526001600160a01b0316602082015260400190565b600086825285602083015260a060408301526142df60a0830186613c6a565b6001600160a01b0394909416606083015250608001529392505050565b918252602082015260400190565b60405181810167ffffffffffffffff8111828210171561432957600080fd5b604052919050565b600067ffffffffffffffff821115614347578081fd5b5060209081020190565b60005b8381101561436c578181015183820152602001614354565b838111156104715750506000910152565b6001600160a01b0381168114612fee57600080fd5b8015158114612fee57600080fd5b6001600160701b0381168114612fee57600080fdfea26469706673582212207b5183882f35c80f14190030640bbce71833b9b50fc86aa45b99dd3245a10c3d64736f6c634300060c0033",
  "bytecodeSha1": "19f6471a6bb8bda7640f9b843d2e5ee9b3bea5d7",
  "compiler": {
    "evm_version": "istanbul",
    "optimizer": {
      "enabled": true,
      "runs": 200
    },
    "version": "0.6.12+commit.27d51765"
  },
  "contractName": "UniswapV2SpellV1",
  "language": "Solidity",
  "natspec": {
    "kind": "dev",
    "methods": {
      "acceptGovernor()": {
        "details": "Accept to become the new governor. Must be called by the pending governor."
      },
      "addLiquidityWERC20(address,address,(uint256,uint256,uint256,uint256,uint256,uint256,uint256,uint256))": {
        "details": "Add liquidity to Uniswap pool, with no staking rewards (use WERC20 wrapper)",
        "params": {
          "amt": "Amounts of tokens to supply, borrow, and get.",
          "tokenA": "Token A for the pair",
          "tokenB": "Token B for the pair"
        }
      },
      "addLiquidityWStakingRewards(address,address,(uint256,uint256,uint256,uint256,uint256,uint256,uint256,uint256),address)": {
        "details": "Add liquidity to Uniswap pool, with staking rewards",
        "params": {
          "amt": "Amounts of tokens to supply, borrow, and get.",
          "tokenA": "Token A for the pair",
          "tokenB": "Token B for the pair",
          "wstaking": "Wrapped staking rewards address"
        }
      },
      "getAndApprovePair(address,address)": {
        "details": "Return the LP token for the token pairs (can be in any order)",
        "params": {
          "tokenA": "Token A to get LP token",
          "tokenB": "Token B to get LP token"
        }
      },
      "harvestWStakingRewards(address)": {
        "details": "Harvest staking reward tokens to in-exec position's owner",
        "params": {
          "wstaking": "Wrapped staking rewards address"
        }
      },
      "removeLiquidityWERC20(address,address,(uint256,uint256,uint256,uint256,uint256,uint256,uint256))": {
        "details": "Remove liquidity from Uniswap pool, with no staking rewards (use WERC20 wrapper)",
        "params": {
          "amt": "Amounts of tokens to take out, withdraw, repay, and get.",
          "tokenA": "Token A for the pair",
          "tokenB": "Token B for the pair"
        }
      },
      "removeLiquidityWStakingRewards(address,address,(uint256,uint256,uint256,uint256,uint256,uint256,uint256),address)": {
        "details": "Remove liquidity from Uniswap pool, from staking rewards",
        "params": {
          "amt": "Amounts of tokens to take out, withdraw, repay, and get.",
          "tokenA": "Token A for the pair",
          "tokenB": "Token B for the pair"
        }
      },
      "setPendingGovernor(address)": {
        "details": "Set the pending governor, which will be the governor once accepted.",
        "params": {
          "_pendingGovernor": "The address to become the pending governor."
        }
      },
      "setWhitelistLPTokens(address[],bool[])": {
        "details": "Set whitelist LP token statuses for spell",
        "params": {
          "lpTokens": "LP tokens to set whitelist statuses",
          "statuses": "Whitelist statuses"
        }
      },
      "supportsInterface(bytes4)": {
        "details": "See {IERC165-supportsInterface}. Time complexity O(1), guaranteed to always use less than 30 000 gas."
      }
    },
    "version": 1
  },
  "opcodes": "PUSH1 0x80 PUSH1 0x40 MSTORE PUSH1 0x4 CALLDATASIZE LT PUSH2 0x139 JUMPI PUSH1 0x0 CALLDATALOAD PUSH1 0xE0 SHR DUP1 PUSH4 0xBC197C81 GT PUSH2 0xAB JUMPI DUP1 PUSH4 0xE58BB639 GT PUSH2 0x6F JUMPI DUP1 PUSH4 0xE58BB639 EQ PUSH2 0x36A JUMPI DUP1 PUSH4 0xEE42C6F4 EQ PUSH2 0x37F JUMPI DUP1 PUSH4 0xF235757F EQ PUSH2 0x39F JUMPI DUP1 PUSH4 0xF23A6E61 EQ PUSH2 0x3BF JUMPI DUP1 PUSH4 0xF4B16045 EQ PUSH2 0x3DF JUMPI DUP1 PUSH4 0xF887EA40 EQ PUSH2 0x3FF JUMPI PUSH2 0x191 JUMP JUMPDEST DUP1 PUSH4 0xBC197C81 EQ PUSH2 0x2ED JUMPI DUP1 PUSH4 0xC45A0155 EQ PUSH2 0x31A JUMPI DUP1 PUSH4 0xCC9B1880 EQ PUSH2 0x32F JUMPI DUP1 PUSH4 0xD57CDEC5 EQ PUSH2 0x342 JUMPI DUP1 PUSH4 0xE3056A34 EQ PUSH2 0x355 JUMPI PUSH2 0x191 JUMP JUMPDEST DUP1 PUSH4 0x45174F18 GT PUSH2 0xFD JUMPI DUP1 PUSH4 0x45174F18 EQ PUSH2 0x243 JUMPI DUP1 PUSH4 0x4BAB09F6 EQ PUSH2 0x263 JUMPI DUP1 PUSH4 0x5741229C EQ PUSH2 0x283 JUMPI DUP1 PUSH4 0x69454B86 EQ PUSH2 0x298 JUMPI DUP1 PUSH4 0x76CDB03B EQ PUSH2 0x2B8 JUMPI DUP1 PUSH4 0xB2CFDE44 EQ PUSH2 0x2CD JUMPI PUSH2 0x191 JUMP JUMPDEST DUP1 PUSH4 0x1FFC9A7 EQ PUSH2 0x196 JUMPI DUP1 PUSH4 0xC340A24 EQ PUSH2 0x1CC JUMPI DUP1 PUSH4 0x1387D96D EQ PUSH2 0x1EE JUMPI DUP1 PUSH4 0x2185059F EQ PUSH2 0x20E JUMPI DUP1 PUSH4 0x3FC8CEF3 EQ PUSH2 0x22E JUMPI PUSH2 0x191 JUMP JUMPDEST CALLDATASIZE PUSH2 0x191 JUMPI CALLER PUSH1 0x1 PUSH1 0x1 PUSH1 0xA0 SHL SUB PUSH32 0x0 AND EQ PUSH2 0x18F JUMPI PUSH1 0x40 MLOAD PUSH3 0x461BCD PUSH1 0xE5 SHL DUP2 MSTORE PUSH1 0x4 ADD PUSH2 0x186 SWAP1 PUSH2 0x40DF JUMP JUMPDEST PUSH1 0x40 MLOAD DUP1 SWAP2 SUB SWAP1 REVERT JUMPDEST STOP JUMPDEST PUSH1 0x0 DUP1 REVERT JUMPDEST CALLVALUE DUP1 ISZERO PUSH2 0x1A2 JUMPI PUSH1 0x0 DUP1 REVERT JUMPDEST POP PUSH2 0x1B6 PUSH2 0x1B1 CALLDATASIZE PUSH1 0x4 PUSH2 0x3B86 JUMP JUMPDEST PUSH2 0x414 JUMP JUMPDEST PUSH1 0x40 MLOAD PUSH2 0x1C3 SWAP2 SWAP1 PUSH2 0x3DD5 JUMP JUMPDEST PUSH1 0x40 MLOAD DUP1 SWAP2 SUB SWAP1 RETURN JUMPDEST CALLVALUE DUP1 ISZERO PUSH2 0x1D8 JUMPI PUSH1 0x0 DUP1 REVERT JUMPDEST POP PUSH2 0x1E1 PUSH2 0x437 JUMP JUMPDEST PUSH1 0x40 MLOAD PUSH2 0x1C3 SWAP2 SWAP1 PUSH2 0x3CC9 JUMP JUMPDEST CALLVALUE DUP1 ISZERO PUSH2 0x1FA JUMPI PUSH1 0x0 DUP1 REVERT JUMPDEST POP PUSH2 0x18F PUSH2 0x209 CALLDATASIZE PUSH1 0x4 PUSH2 0x38FF JUMP JUMPDEST PUSH2 0x44C JUMP JUMPDEST CALLVALUE DUP1 ISZERO PUSH2 0x21A JUMPI PUSH1 0x0 DUP1 REVERT JUMPDEST POP PUSH2 0x1E1 PUSH2 0x229 CALLDATASIZE PUSH1 0x4 PUSH2 0x3768 JUMP JUMPDEST PUSH2 0x477 JUMP JUMPDEST CALLVALUE DUP1 ISZERO PUSH2 0x23A JUMPI PUSH1 0x0 DUP1 REVERT JUMPDEST POP PUSH2 0x1E1 PUSH2 0x647 JUMP JUMPDEST CALLVALUE DUP1 ISZERO PUSH2 0x24F JUMPI PUSH1 0x0 DUP1 REVERT JUMPDEST POP PUSH2 0x18F PUSH2 0x25E CALLDATASIZE PUSH1 0x4 PUSH2 0x3730 JUMP JUMPDEST PUSH2 0x66B JUMP JUMPDEST CALLVALUE DUP1 ISZERO PUSH2 0x26F JUMPI PUSH1 0x0 DUP1 REVERT JUMPDEST POP PUSH2 0x1B6 PUSH2 0x27E CALLDATASIZE PUSH1 0x4 PUSH2 0x3730 JUMP JUMPDEST PUSH2 0xB10 JUMP JUMPDEST CALLVALUE DUP1 ISZERO PUSH2 0x28F JUMPI PUSH1 0x0 DUP1 REVERT JUMPDEST POP PUSH2 0x1E1 PUSH2 0xB25 JUMP JUMPDEST CALLVALUE DUP1 ISZERO PUSH2 0x2A4 JUMPI PUSH1 0x0 DUP1 REVERT JUMPDEST POP PUSH2 0x1E1 PUSH2 0x2B3 CALLDATASIZE PUSH1 0x4 PUSH2 0x3768 JUMP JUMPDEST PUSH2 0xB49 JUMP JUMPDEST CALLVALUE DUP1 ISZERO PUSH2 0x2C4 JUMPI PUSH1 0x0 DUP1 REVERT JUMPDEST POP PUSH2 0x1E1 PUSH2 0xB6F JUMP JUMPDEST CALLVALUE DUP1 ISZERO PUSH2 0x2D9 JUMPI PUSH1 0x0 DUP1 REVERT JUMPDEST POP PUSH2 0x18F PUSH2 0x2E8 CALLDATASIZE PUSH1 0x4 PUSH2 0x393E JUMP JUMPDEST PUSH2 0xB93 JUMP JUMPDEST CALLVALUE DUP1 ISZERO PUSH2 0x2F9 JUMPI PUSH1 0x0 DUP1 REVERT JUMPDEST POP PUSH2 0x30D PUSH2 0x308 CALLDATASIZE PUSH1 0x4 PUSH2 0x37A0 JUMP JUMPDEST PUSH2 0xEB3 JUMP JUMPDEST PUSH1 0x40 MLOAD PUSH2 0x1C3 SWAP2 SWAP1 PUSH2 0x3DE0 JUMP JUMPDEST CALLVALUE DUP1 ISZERO PUSH2 0x326 JUMPI PUSH1 0x0 DUP1 REVERT JUMPDEST POP PUSH2 0x1E1 PUSH2 0xEC7 JUMP JUMPDEST PUSH2 0x18F PUSH2 0x33D CALLDATASIZE PUSH1 0x4 PUSH2 0x385B JUMP JUMPDEST PUSH2 0xEEB JUMP JUMPDEST PUSH2 0x18F PUSH2 0x350 CALLDATASIZE PUSH1 0x4 PUSH2 0x38A3 JUMP JUMPDEST PUSH2 0xFA4 JUMP JUMPDEST CALLVALUE DUP1 ISZERO PUSH2 0x361 JUMPI PUSH1 0x0 DUP1 REVERT JUMPDEST POP PUSH2 0x1E1 PUSH2 0x159E JUMP JUMPDEST CALLVALUE DUP1 ISZERO PUSH2 0x376 JUMPI PUSH1 0x0 DUP1 REVERT JUMPDEST POP PUSH2 0x18F PUSH2 0x15AD JUMP JUMPDEST CALLVALUE DUP1 ISZERO PUSH2 0x38B JUMPI PUSH1 0x0 DUP1 REVERT JUMPDEST POP PUSH2 0x18F PUSH2 0x39A CALLDATASIZE PUSH1 0x4 PUSH2 0x3A50 JUMP JUMPDEST PUSH2 0x163D JUMP JUMPDEST CALLVALUE DUP1 ISZERO PUSH2 0x3AB JUMPI PUSH1 0x0 DUP1 REVERT JUMPDEST POP PUSH2 0x18F PUSH2 0x3BA CALLDATASIZE PUSH1 0x4 PUSH2 0x3730 JUMP JUMPDEST PUSH2 0x1812 JUMP JUMPDEST CALLVALUE DUP1 ISZERO PUSH2 0x3CB JUMPI PUSH1 0x0 DUP1 REVERT JUMPDEST POP PUSH2 0x30D PUSH2 0x3DA CALLDATASIZE PUSH1 0x4 PUSH2 0x39D6 JUMP JUMPDEST PUSH2 0x1898 JUMP JUMPDEST CALLVALUE DUP1 ISZERO PUSH2 0x3EB JUMPI PUSH1 0x0 DUP1 REVERT JUMPDEST POP PUSH2 0x1B6 PUSH2 0x3FA CALLDATASIZE PUSH1 0x4 PUSH2 0x3768 JUMP JUMPDEST PUSH2 0x18AA JUMP JUMPDEST CALLVALUE DUP1 ISZERO PUSH2 0x40B JUMPI PUSH1 0x0 DUP1 REVERT JUMPDEST POP PUSH2 0x1E1 PUSH2 0x18CA JUMP JUMPDEST PUSH1 0x1 PUSH1 0x1 PUSH1 0xE0 SHL SUB NOT DUP2 AND PUSH1 0x0 SWAP1 DUP2 MSTORE PUSH1 0x20 DUP2 SWAP1 MSTORE PUSH1 0x40 SWAP1 KECCAK256 SLOAD PUSH1 0xFF AND JUMPDEST SWAP2 SWAP1 POP JUMP JUMPDEST PUSH1 0x42 SLOAD PUSH3 0x10000 SWAP1 DIV PUSH1 0x1 PUSH1 0x1 PUSH1 0xA0 SHL SUB AND DUP2 JUMP JUMPDEST PUSH1 0x0 PUSH2 0x458 DUP5 DUP5 PUSH2 0x477 JUMP JUMPDEST SWAP1 POP PUSH2 0x465 DUP2 DUP4 CALLDATALOAD PUSH2 0x1A0C JUMP JUMPDEST PUSH2 0x471 DUP5 DUP5 DUP5 DUP5 PUSH2 0x1BDC JUMP JUMPDEST POP POP POP POP JUMP JUMPDEST PUSH1 0x1 PUSH1 0x1 PUSH1 0xA0 SHL SUB DUP1 DUP4 AND PUSH1 0x0 SWAP1 DUP2 MSTORE PUSH1 0x85 PUSH1 0x20 SWAP1 DUP2 MSTORE PUSH1 0x40 DUP1 DUP4 KECCAK256 DUP6 DUP6 AND DUP5 MSTORE SWAP1 SWAP2 MSTORE DUP2 KECCAK256 SLOAD SWAP1 SWAP2 AND DUP1 PUSH2 0x63E JUMPI PUSH1 0x40 MLOAD PUSH4 0xE6A43905 PUSH1 0xE0 SHL DUP2 MSTORE PUSH1 0x1 PUSH1 0x1 PUSH1 0xA0 SHL SUB PUSH32 0x0 AND SWAP1 PUSH4 0xE6A43905 SWAP1 PUSH2 0x4F4 SWAP1 DUP8 SWAP1 DUP8 SWAP1 PUSH1 0x4 ADD PUSH2 0x3CDD JUMP JUMPDEST PUSH1 0x20 PUSH1 0x40 MLOAD DUP1 DUP4 SUB DUP2 DUP7 DUP1 EXTCODESIZE ISZERO DUP1 ISZERO PUSH2 0x50C JUMPI PUSH1 0x0 DUP1 REVERT JUMPDEST POP GAS STATICCALL ISZERO DUP1 ISZERO PUSH2 0x520 JUMPI RETURNDATASIZE PUSH1 0x0 DUP1 RETURNDATACOPY RETURNDATASIZE PUSH1 0x0 REVERT JUMPDEST POP POP POP POP PUSH1 0x40 MLOAD RETURNDATASIZE PUSH1 0x1F NOT PUSH1 0x1F DUP3 ADD AND DUP3 ADD DUP1 PUSH1 0x40 MSTORE POP DUP2 ADD SWAP1 PUSH2 0x544 SWAP2 SWAP1 PUSH2 0x374C JUMP JUMPDEST SWAP1 POP PUSH1 0x1 PUSH1 0x1 PUSH1 0xA0 SHL SUB DUP2 AND PUSH2 0x56C JUMPI PUSH1 0x40 MLOAD PUSH3 0x461BCD PUSH1 0xE5 SHL DUP2 MSTORE PUSH1 0x4 ADD PUSH2 0x186 SWAP1 PUSH2 0x4083 JUMP JUMPDEST PUSH2 0x596 DUP5 PUSH32 0x0 PUSH2 0x2477 JUMP JUMPDEST PUSH2 0x5C0 DUP4 PUSH32 0x0 PUSH2 0x2477 JUMP JUMPDEST PUSH2 0x5EA DUP2 PUSH32 0x0 PUSH2 0x2477 JUMP JUMPDEST PUSH1 0x1 PUSH1 0x1 PUSH1 0xA0 SHL SUB DUP1 DUP6 AND PUSH1 0x0 DUP2 DUP2 MSTORE PUSH1 0x85 PUSH1 0x20 DUP2 DUP2 MSTORE PUSH1 0x40 DUP1 DUP5 KECCAK256 DUP10 DUP8 AND DUP6 MSTORE DUP3 MSTORE DUP1 DUP5 KECCAK256 DUP1 SLOAD SWAP7 DUP9 AND PUSH1 0x1 PUSH1 0x1 PUSH1 0xA0 SHL SUB NOT SWAP8 DUP9 AND DUP2 OR SWAP1 SWAP2 SSTORE SWAP3 DUP3 MSTORE DUP1 DUP5 KECCAK256 SWAP5 DUP5 MSTORE SWAP4 SWAP1 MSTORE SWAP2 SWAP1 KECCAK256 DUP1 SLOAD SWAP1 SWAP3 AND OR SWAP1 SSTORE JUMPDEST SWAP1 POP JUMPDEST SWAP3 SWAP2 POP POP JUMP JUMPDEST PUSH32 0x0 DUP2 JUMP JUMPDEST PUSH1 0x0 DUP2 PUSH1 0x1 PUSH1 0x1 PUSH1 0xA0 SHL SUB AND PUSH4 0x228CB733 PUSH1 0x40 MLOAD DUP2 PUSH4 0xFFFFFFFF AND PUSH1 0xE0 SHL DUP2 MSTORE PUSH1 0x4 ADD PUSH1 0x20 PUSH1 0x40 MLOAD DUP1 DUP4 SUB DUP2 PUSH1 0x0 DUP8 DUP1 EXTCODESIZE ISZERO DUP1 ISZERO PUSH2 0x6A8 JUMPI PUSH1 0x0 DUP1 REVERT JUMPDEST POP GAS CALL ISZERO DUP1 ISZERO PUSH2 0x6BC JUMPI RETURNDATASIZE PUSH1 0x0 DUP1 RETURNDATACOPY RETURNDATASIZE PUSH1 0x0 REVERT JUMPDEST POP POP POP POP PUSH1 0x40 MLOAD RETURNDATASIZE PUSH1 0x1F NOT PUSH1 0x1F DUP3 ADD AND DUP3 ADD DUP1 PUSH1 0x40 MSTORE POP DUP2 ADD SWAP1 PUSH2 0x6E0 SWAP2 SWAP1 PUSH2 0x374C JUMP JUMPDEST SWAP1 POP PUSH1 0x0 DUP1 PUSH32 0x0 PUSH1 0x1 PUSH1 0x1 PUSH1 0xA0 SHL SUB AND PUSH4 0xF70AEDD9 PUSH1 0x40 MLOAD DUP2 PUSH4 0xFFFFFFFF AND PUSH1 0xE0 SHL DUP2 MSTORE PUSH1 0x4 ADD PUSH1 0x80 PUSH1 0x40 MLOAD DUP1 DUP4 SUB DUP2 DUP7 DUP1 EXTCODESIZE ISZERO DUP1 ISZERO PUSH2 0x73E JUMPI PUSH1 0x0 DUP1 REVERT JUMPDEST POP GAS STATICCALL ISZERO DUP1 ISZERO PUSH2 0x752 JUMPI RETURNDATASIZE PUSH1 0x0 DUP1 RETURNDATACOPY RETURNDATASIZE PUSH1 0x0 REVERT JUMPDEST POP POP POP POP PUSH1 0x40 MLOAD RETURNDATASIZE PUSH1 0x1F NOT PUSH1 0x1F DUP3 ADD AND DUP3 ADD DUP1 PUSH1 0x40 MSTORE POP DUP2 ADD SWAP1 PUSH2 0x776 SWAP2 SWAP1 PUSH2 0x398F JUMP JUMPDEST POP SWAP3 POP SWAP3 POP POP PUSH1 0x0 DUP5 PUSH1 0x1 PUSH1 0x1 PUSH1 0xA0 SHL SUB AND PUSH4 0xA4775772 DUP4 PUSH1 0x40 MLOAD DUP3 PUSH4 0xFFFFFFFF AND PUSH1 0xE0 SHL DUP2 MSTORE PUSH1 0x4 ADD PUSH2 0x7AA SWAP2 SWAP1 PUSH2 0x42A0 JUMP JUMPDEST PUSH1 0x20 PUSH1 0x40 MLOAD DUP1 DUP4 SUB DUP2 DUP7 DUP1 EXTCODESIZE ISZERO DUP1 ISZERO PUSH2 0x7C2 JUMPI PUSH1 0x0 DUP1 REVERT JUMPDEST POP GAS STATICCALL ISZERO DUP1 ISZERO PUSH2 0x7D6 JUMPI RETURNDATASIZE PUSH1 0x0 DUP1 RETURNDATACOPY RETURNDATASIZE PUSH1 0x0 REVERT JUMPDEST POP POP POP POP PUSH1 0x40 MLOAD RETURNDATASIZE PUSH1 0x1F NOT PUSH1 0x1F DUP3 ADD AND DUP3 ADD DUP1 PUSH1 0x40 MSTORE POP DUP2 ADD SWAP1 PUSH2 0x7FA SWAP2 SWAP1 PUSH2 0x374C JUMP JUMPDEST PUSH1 0x1 PUSH1 0x1 PUSH1 0xA0 SHL SUB DUP2 AND PUSH1 0x0 SWAP1 DUP2 MSTORE PUSH1 0x84 PUSH1 0x20 MSTORE PUSH1 0x40 SWAP1 KECCAK256 SLOAD SWAP1 SWAP2 POP PUSH1 0xFF AND PUSH2 0x835 JUMPI PUSH1 0x40 MLOAD PUSH3 0x461BCD PUSH1 0xE5 SHL DUP2 MSTORE PUSH1 0x4 ADD PUSH2 0x186 SWAP1 PUSH2 0x40A8 JUMP JUMPDEST DUP5 PUSH1 0x1 PUSH1 0x1 PUSH1 0xA0 SHL SUB AND DUP4 PUSH1 0x1 PUSH1 0x1 PUSH1 0xA0 SHL SUB AND EQ PUSH2 0x866 JUMPI PUSH1 0x40 MLOAD PUSH3 0x461BCD PUSH1 0xE5 SHL DUP2 MSTORE PUSH1 0x4 ADD PUSH2 0x186 SWAP1 PUSH2 0x3E75 JUMP JUMPDEST PUSH1 0x40 MLOAD PUSH4 0xD1D6975 PUSH1 0xE3 SHL DUP2 MSTORE PUSH1 0x1 PUSH1 0x1 PUSH1 0xA0 SHL SUB PUSH32 0x0 AND SWAP1 PUSH4 0x68EB4BA8 SWAP1 PUSH2 0x8B8 SWAP1 DUP9 SWAP1 DUP7 SWAP1 PUSH1 0x0 NOT SWAP1 PUSH1 0x4 ADD PUSH2 0x3DB4 JUMP JUMPDEST PUSH1 0x0 PUSH1 0x40 MLOAD DUP1 DUP4 SUB DUP2 PUSH1 0x0 DUP8 DUP1 EXTCODESIZE ISZERO DUP1 ISZERO PUSH2 0x8D2 JUMPI PUSH1 0x0 DUP1 REVERT JUMPDEST POP GAS CALL ISZERO DUP1 ISZERO PUSH2 0x8E6 JUMPI RETURNDATASIZE PUSH1 0x0 DUP1 RETURNDATACOPY RETURNDATASIZE PUSH1 0x0 REVERT JUMPDEST POP POP PUSH1 0x40 MLOAD PUSH4 0xB390C0AB PUSH1 0xE0 SHL DUP2 MSTORE PUSH1 0x1 PUSH1 0x1 PUSH1 0xA0 SHL SUB DUP9 AND SWAP3 POP PUSH4 0xB390C0AB SWAP2 POP PUSH2 0x91A SWAP1 DUP6 SWAP1 PUSH1 0x0 NOT SWAP1 PUSH1 0x4 ADD PUSH2 0x42FC JUMP JUMPDEST PUSH1 0x20 PUSH1 0x40 MLOAD DUP1 DUP4 SUB DUP2 PUSH1 0x0 DUP8 DUP1 EXTCODESIZE ISZERO DUP1 ISZERO PUSH2 0x934 JUMPI PUSH1 0x0 DUP1 REVERT JUMPDEST POP GAS CALL ISZERO DUP1 ISZERO PUSH2 0x948 JUMPI RETURNDATASIZE PUSH1 0x0 DUP1 RETURNDATACOPY RETURNDATASIZE PUSH1 0x0 REVERT JUMPDEST POP POP POP POP PUSH1 0x40 MLOAD RETURNDATASIZE PUSH1 0x1F NOT PUSH1 0x1F DUP3 ADD AND DUP3 ADD DUP1 PUSH1 0x40 MSTORE POP DUP2 ADD SWAP1 PUSH2 0x96C SWAP2 SWAP1 PUSH2 0x3C02 JUMP JUMPDEST POP PUSH1 0x40 MLOAD PUSH4 0x70A08231 PUSH1 0xE0 SHL DUP2 MSTORE PUSH1 0x0 SWAP1 PUSH1 0x1 PUSH1 0x1 PUSH1 0xA0 SHL SUB DUP4 AND SWAP1 PUSH4 0x70A08231 SWAP1 PUSH2 0x99C SWAP1 ADDRESS SWAP1 PUSH1 0x4 ADD PUSH2 0x3CC9 JUMP JUMPDEST PUSH1 0x20 PUSH1 0x40 MLOAD DUP1 DUP4 SUB DUP2 DUP7 DUP1 EXTCODESIZE ISZERO DUP1 ISZERO PUSH2 0x9B4 JUMPI PUSH1 0x0 DUP1 REVERT JUMPDEST POP GAS STATICCALL ISZERO DUP1 ISZERO PUSH2 0x9C8 JUMPI RETURNDATASIZE PUSH1 0x0 DUP1 RETURNDATACOPY RETURNDATASIZE PUSH1 0x0 REVERT JUMPDEST POP POP POP POP PUSH1 0x40 MLOAD RETURNDATASIZE PUSH1 0x1F NOT PUSH1 0x1F DUP3 ADD AND DUP3 ADD DUP1 PUSH1 0x40 MSTORE POP DUP2 ADD SWAP1 PUSH2 0x9EC SWAP2 SWAP1 PUSH2 0x3C02 JUMP JUMPDEST SWAP1 POP PUSH2 0x9F8 DUP3 DUP8 PUSH2 0x2477 JUMP JUMPDEST PUSH1 0x40 MLOAD PUSH4 0x140E25AD PUSH1 0xE3 SHL DUP2 MSTORE PUSH1 0x0 SWAP1 PUSH1 0x1 PUSH1 0x1 PUSH1 0xA0 SHL SUB DUP9 AND SWAP1 PUSH4 0xA0712D68 SWAP1 PUSH2 0xA27 SWAP1 DUP6 SWAP1 PUSH1 0x4 ADD PUSH2 0x42A0 JUMP JUMPDEST PUSH1 0x20 PUSH1 0x40 MLOAD DUP1 DUP4 SUB DUP2 PUSH1 0x0 DUP8 DUP1 EXTCODESIZE ISZERO DUP1 ISZERO PUSH2 0xA41 JUMPI PUSH1 0x0 DUP1 REVERT JUMPDEST POP GAS CALL ISZERO DUP1 ISZERO PUSH2 0xA55 JUMPI RETURNDATASIZE PUSH1 0x0 DUP1 RETURNDATACOPY RETURNDATASIZE PUSH1 0x0 REVERT JUMPDEST POP POP POP POP PUSH1 0x40 MLOAD RETURNDATASIZE PUSH1 0x1F NOT PUSH1 0x1F DUP3 ADD AND DUP3 ADD DUP1 PUSH1 0x40 MSTORE POP DUP2 ADD SWAP1 PUSH2 0xA79 SWAP2 SWAP1 PUSH2 0x3C02 JUMP JUMPDEST PUSH1 0x40 MLOAD PUSH4 0x314568D9 PUSH1 0xE0 SHL DUP2 MSTORE SWAP1 SWAP2 POP PUSH1 0x1 PUSH1 0x1 PUSH1 0xA0 SHL SUB PUSH32 0x0 AND SWAP1 PUSH4 0x314568D9 SWAP1 PUSH2 0xACC SWAP1 DUP11 SWAP1 DUP6 SWAP1 DUP8 SWAP1 PUSH1 0x4 ADD PUSH2 0x3DB4 JUMP JUMPDEST PUSH1 0x0 PUSH1 0x40 MLOAD DUP1 DUP4 SUB DUP2 PUSH1 0x0 DUP8 DUP1 EXTCODESIZE ISZERO DUP1 ISZERO PUSH2 0xAE6 JUMPI PUSH1 0x0 DUP1 REVERT JUMPDEST POP GAS CALL ISZERO DUP1 ISZERO PUSH2 0xAFA JUMPI RETURNDATASIZE PUSH1 0x0 DUP1 RETURNDATACOPY RETURNDATASIZE PUSH1 0x0 REVERT JUMPDEST POP POP POP POP PUSH2 0xB07 DUP7 PUSH2 0x24EE JUMP JUMPDEST POP POP POP POP POP POP POP JUMP JUMPDEST PUSH1 0x84 PUSH1 0x20 MSTORE PUSH1 0x0 SWAP1 DUP2 MSTORE PUSH1 0x40 SWAP1 KECCAK256 SLOAD PUSH1 0xFF AND DUP2 JUMP JUMPDEST PUSH32 0x0 DUP2 JUMP JUMPDEST PUSH1 0x85 PUSH1 0x20 SWAP1 DUP2 MSTORE PUSH1 0x0 SWAP3 DUP4 MSTORE PUSH1 0x40 DUP1 DUP5 KECCAK256 SWAP1 SWAP2 MSTORE SWAP1 DUP3 MSTORE SWAP1 KECCAK256 SLOAD PUSH1 0x1 PUSH1 0x1 PUSH1 0xA0 SHL SUB AND DUP2 JUMP JUMPDEST PUSH32 0x0 DUP2 JUMP JUMPDEST PUSH1 0x0 PUSH2 0xB9F DUP6 DUP6 PUSH2 0x477 JUMP JUMPDEST SWAP1 POP PUSH1 0x0 DUP1 PUSH32 0x0 PUSH1 0x1 PUSH1 0x1 PUSH1 0xA0 SHL SUB AND PUSH4 0xF70AEDD9 PUSH1 0x40 MLOAD DUP2 PUSH4 0xFFFFFFFF AND PUSH1 0xE0 SHL DUP2 MSTORE PUSH1 0x4 ADD PUSH1 0x80 PUSH1 0x40 MLOAD DUP1 DUP4 SUB DUP2 DUP7 DUP1 EXTCODESIZE ISZERO DUP1 ISZERO PUSH2 0xBFD JUMPI PUSH1 0x0 DUP1 REVERT JUMPDEST POP GAS STATICCALL ISZERO DUP1 ISZERO PUSH2 0xC11 JUMPI RETURNDATASIZE PUSH1 0x0 DUP1 RETURNDATACOPY RETURNDATASIZE PUSH1 0x0 REVERT JUMPDEST POP POP POP POP PUSH1 0x40 MLOAD RETURNDATASIZE PUSH1 0x1F NOT PUSH1 0x1F DUP3 ADD AND DUP3 ADD DUP1 PUSH1 0x40 MSTORE POP DUP2 ADD SWAP1 PUSH2 0xC35 SWAP2 SWAP1 PUSH2 0x398F JUMP JUMPDEST POP SWAP3 POP SWAP3 POP POP PUSH1 0x0 DUP5 PUSH1 0x1 PUSH1 0x1 PUSH1 0xA0 SHL SUB AND PUSH4 0x228CB733 PUSH1 0x40 MLOAD DUP2 PUSH4 0xFFFFFFFF AND PUSH1 0xE0 SHL DUP2 MSTORE PUSH1 0x4 ADD PUSH1 0x20 PUSH1 0x40 MLOAD DUP1 DUP4 SUB DUP2 PUSH1 0x0 DUP8 DUP1 EXTCODESIZE ISZERO DUP1 ISZERO PUSH2 0xC78 JUMPI PUSH1 0x0 DUP1 REVERT JUMPDEST POP GAS CALL ISZERO DUP1 ISZERO PUSH2 0xC8C JUMPI RETURNDATASIZE PUSH1 0x0 DUP1 RETURNDATACOPY RETURNDATASIZE PUSH1 0x0 REVERT JUMPDEST POP POP POP POP PUSH1 0x40 MLOAD RETURNDATASIZE PUSH1 0x1F NOT PUSH1 0x1F DUP3 ADD AND DUP3 ADD DUP1 PUSH1 0x40 MSTORE POP DUP2 ADD SWAP1 PUSH2 0xCB0 SWAP2 SWAP1 PUSH2 0x374C JUMP JUMPDEST SWAP1 POP DUP4 PUSH1 0x1 PUSH1 0x1 PUSH1 0xA0 SHL SUB AND DUP4 PUSH1 0x1 PUSH1 0x1 PUSH1 0xA0 SHL SUB AND PUSH4 0xA4775772 DUP5 PUSH1 0x40 MLOAD DUP3 PUSH4 0xFFFFFFFF AND PUSH1 0xE0 SHL DUP2 MSTORE PUSH1 0x4 ADD PUSH2 0xCE8 SWAP2 SWAP1 PUSH2 0x42A0 JUMP JUMPDEST PUSH1 0x20 PUSH1 0x40 MLOAD DUP1 DUP4 SUB DUP2 DUP7 DUP1 EXTCODESIZE ISZERO DUP1 ISZERO PUSH2 0xD00 JUMPI PUSH1 0x0 DUP1 REVERT JUMPDEST POP GAS STATICCALL ISZERO DUP1 ISZERO PUSH2 0xD14 JUMPI RETURNDATASIZE PUSH1 0x0 DUP1 RETURNDATACOPY RETURNDATASIZE PUSH1 0x0 REVERT JUMPDEST POP POP POP POP PUSH1 0x40 MLOAD RETURNDATASIZE PUSH1 0x1F NOT PUSH1 0x1F DUP3 ADD AND DUP3 ADD DUP1 PUSH1 0x40 MSTORE POP DUP2 ADD SWAP1 PUSH2 0xD38 SWAP2 SWAP1 PUSH2 0x374C JUMP JUMPDEST PUSH1 0x1 PUSH1 0x1 PUSH1 0xA0 SHL SUB AND EQ PUSH2 0xD5E JUMPI PUSH1 0x40 MLOAD PUSH3 0x461BCD PUSH1 0xE5 SHL DUP2 MSTORE PUSH1 0x4 ADD PUSH2 0x186 SWAP1 PUSH2 0x41D2 JUMP JUMPDEST DUP5 PUSH1 0x1 PUSH1 0x1 PUSH1 0xA0 SHL SUB AND DUP4 PUSH1 0x1 PUSH1 0x1 PUSH1 0xA0 SHL SUB AND EQ PUSH2 0xD8F JUMPI PUSH1 0x40 MLOAD PUSH3 0x461BCD PUSH1 0xE5 SHL DUP2 MSTORE PUSH1 0x4 ADD PUSH2 0x186 SWAP1 PUSH2 0x3E75 JUMP JUMPDEST PUSH1 0x40 MLOAD PUSH4 0xD1D6975 PUSH1 0xE3 SHL DUP2 MSTORE PUSH1 0x1 PUSH1 0x1 PUSH1 0xA0 SHL SUB PUSH32 0x0 AND SWAP1 PUSH4 0x68EB4BA8 SWAP1 PUSH2 0xDE0 SWAP1 DUP9 SWAP1 DUP7 SWAP1 DUP12 CALLDATALOAD SWAP1 PUSH1 0x4 ADD PUSH2 0x3DB4 JUMP JUMPDEST PUSH1 0x0 PUSH1 0x40 MLOAD DUP1 DUP4 SUB DUP2 PUSH1 0x0 DUP8 DUP1 EXTCODESIZE ISZERO DUP1 ISZERO PUSH2 0xDFA JUMPI PUSH1 0x0 DUP1 REVERT JUMPDEST POP GAS CALL ISZERO DUP1 ISZERO PUSH2 0xE0E JUMPI RETURNDATASIZE PUSH1 0x0 DUP1 RETURNDATACOPY RETURNDATASIZE PUSH1 0x0 REVERT JUMPDEST POP POP PUSH1 0x40 MLOAD PUSH4 0xB390C0AB PUSH1 0xE0 SHL DUP2 MSTORE PUSH1 0x1 PUSH1 0x1 PUSH1 0xA0 SHL SUB DUP9 AND SWAP3 POP PUSH4 0xB390C0AB SWAP2 POP PUSH2 0xE41 SWAP1 DUP6 SWAP1 DUP11 CALLDATALOAD SWAP1 PUSH1 0x4 ADD PUSH2 0x42FC JUMP JUMPDEST PUSH1 0x20 PUSH1 0x40 MLOAD DUP1 DUP4 SUB DUP2 PUSH1 0x0 DUP8 DUP1 EXTCODESIZE ISZERO DUP1 ISZERO PUSH2 0xE5B JUMPI PUSH1 0x0 DUP1 REVERT JUMPDEST POP GAS CALL ISZERO DUP1 ISZERO PUSH2 0xE6F JUMPI RETURNDATASIZE PUSH1 0x0 DUP1 RETURNDATACOPY RETURNDATASIZE PUSH1 0x0 REVERT JUMPDEST POP POP POP POP PUSH1 0x40 MLOAD RETURNDATASIZE PUSH1 0x1F NOT PUSH1 0x1F DUP3 ADD AND DUP3 ADD DUP1 PUSH1 0x40 MSTORE POP DUP2 ADD SWAP1 PUSH2 0xE93 SWAP2 SWAP1 PUSH2 0x3C02 JUMP JUMPDEST POP PUSH2 0xEA0 DUP9 DUP9 DUP9 DUP8 PUSH2 0x1BDC JUMP JUMPDEST PUSH2 0xEA9 DUP2 PUSH2 0x24EE JUMP JUMPDEST POP POP POP POP POP POP POP POP JUMP JUMPDEST PUSH4 0xBC197C81 PUSH1 0xE0 SHL SWAP9 SWAP8 POP POP POP POP POP POP POP POP JUMP JUMPDEST PUSH32 0x0 DUP2 JUMP JUMPDEST PUSH1 0x0 PUSH2 0xEF7 DUP5 DUP5 PUSH2 0x477 JUMP JUMPDEST SWAP1 POP PUSH2 0xF05 DUP5 DUP5 DUP5 DUP5 PUSH2 0x261A JUMP JUMPDEST PUSH2 0xF8A DUP2 DUP3 PUSH1 0x1 PUSH1 0x1 PUSH1 0xA0 SHL SUB AND PUSH4 0x70A08231 ADDRESS PUSH1 0x40 MLOAD DUP3 PUSH4 0xFFFFFFFF AND PUSH1 0xE0 SHL DUP2 MSTORE PUSH1 0x4 ADD PUSH2 0xF35 SWAP2 SWAP1 PUSH2 0x3CC9 JUMP JUMPDEST PUSH1 0x20 PUSH1 0x40 MLOAD DUP1 DUP4 SUB DUP2 DUP7 DUP1 EXTCODESIZE ISZERO DUP1 ISZERO PUSH2 0xF4D JUMPI PUSH1 0x0 DUP1 REVERT JUMPDEST POP GAS STATICCALL ISZERO DUP1 ISZERO PUSH2 0xF61 JUMPI RETURNDATASIZE PUSH1 0x0 DUP1 RETURNDATACOPY RETURNDATASIZE PUSH1 0x0 REVERT JUMPDEST POP POP POP POP PUSH1 0x40 MLOAD RETURNDATASIZE PUSH1 0x1F NOT PUSH1 0x1F DUP3 ADD AND DUP3 ADD DUP1 PUSH1 0x40 MSTORE POP DUP2 ADD SWAP1 PUSH2 0xF85 SWAP2 SWAP1 PUSH2 0x3C02 JUMP JUMPDEST PUSH2 0x2C86 JUMP JUMPDEST PUSH2 0xF92 PUSH2 0x2DA8 JUMP JUMPDEST PUSH2 0xF9B DUP5 PUSH2 0x24EE JUMP JUMPDEST PUSH2 0x471 DUP4 PUSH2 0x24EE JUMP JUMPDEST PUSH1 0x0 PUSH2 0xFB0 DUP6 DUP6 PUSH2 0x477 JUMP JUMPDEST SWAP1 POP PUSH1 0x0 DUP3 PUSH1 0x1 PUSH1 0x1 PUSH1 0xA0 SHL SUB AND PUSH4 0x228CB733 PUSH1 0x40 MLOAD DUP2 PUSH4 0xFFFFFFFF AND PUSH1 0xE0 SHL DUP2 MSTORE PUSH1 0x4 ADD PUSH1 0x20 PUSH1 0x40 MLOAD DUP1 DUP4 SUB DUP2 PUSH1 0x0 DUP8 DUP1 EXTCODESIZE ISZERO DUP1 ISZERO PUSH2 0xFEF JUMPI PUSH1 0x0 DUP1 REVERT JUMPDEST POP GAS CALL ISZERO DUP1 ISZERO PUSH2 0x1003 JUMPI RETURNDATASIZE PUSH1 0x0 DUP1 RETURNDATACOPY RETURNDATASIZE PUSH1 0x0 REVERT JUMPDEST POP POP POP POP PUSH1 0x40 MLOAD RETURNDATASIZE PUSH1 0x1F NOT PUSH1 0x1F DUP3 ADD AND DUP3 ADD DUP1 PUSH1 0x40 MSTORE POP DUP2 ADD SWAP1 PUSH2 0x1027 SWAP2 SWAP1 PUSH2 0x374C JUMP JUMPDEST SWAP1 POP PUSH2 0x1035 DUP7 DUP7 DUP7 DUP6 PUSH2 0x261A JUMP JUMPDEST PUSH1 0x0 DUP1 PUSH1 0x0 PUSH32 0x0 PUSH1 0x1 PUSH1 0x1 PUSH1 0xA0 SHL SUB AND PUSH4 0xF70AEDD9 PUSH1 0x40 MLOAD DUP2 PUSH4 0xFFFFFFFF AND PUSH1 0xE0 SHL DUP2 MSTORE PUSH1 0x4 ADD PUSH1 0x80 PUSH1 0x40 MLOAD DUP1 DUP4 SUB DUP2 DUP7 DUP1 EXTCODESIZE ISZERO DUP1 ISZERO PUSH2 0x1093 JUMPI PUSH1 0x0 DUP1 REVERT JUMPDEST POP GAS STATICCALL ISZERO DUP1 ISZERO PUSH2 0x10A7 JUMPI RETURNDATASIZE PUSH1 0x0 DUP1 RETURNDATACOPY RETURNDATASIZE PUSH1 0x0 REVERT JUMPDEST POP POP POP POP PUSH1 0x40 MLOAD RETURNDATASIZE PUSH1 0x1F NOT PUSH1 0x1F DUP3 ADD AND DUP3 ADD DUP1 PUSH1 0x40 MSTORE POP DUP2 ADD SWAP1 PUSH2 0x10CB SWAP2 SWAP1 PUSH2 0x398F JUMP JUMPDEST SWAP2 SWAP6 POP SWAP4 POP SWAP2 POP POP DUP1 ISZERO PUSH2 0x12BA JUMPI DUP5 PUSH1 0x1 PUSH1 0x1 PUSH1 0xA0 SHL SUB AND DUP4 PUSH1 0x1 PUSH1 0x1 PUSH1 0xA0 SHL SUB AND PUSH4 0xA4775772 DUP5 PUSH1 0x40 MLOAD DUP3 PUSH4 0xFFFFFFFF AND PUSH1 0xE0 SHL DUP2 MSTORE PUSH1 0x4 ADD PUSH2 0x110F SWAP2 SWAP1 PUSH2 0x42A0 JUMP JUMPDEST PUSH1 0x20 PUSH1 0x40 MLOAD DUP1 DUP4 SUB DUP2 DUP7 DUP1 EXTCODESIZE ISZERO DUP1 ISZERO PUSH2 0x1127 JUMPI PUSH1 0x0 DUP1 REVERT JUMPDEST POP GAS STATICCALL ISZERO DUP1 ISZERO PUSH2 0x113B JUMPI RETURNDATASIZE PUSH1 0x0 DUP1 RETURNDATACOPY RETURNDATASIZE PUSH1 0x0 REVERT JUMPDEST POP POP POP POP PUSH1 0x40 MLOAD RETURNDATASIZE PUSH1 0x1F NOT PUSH1 0x1F DUP3 ADD AND DUP3 ADD DUP1 PUSH1 0x40 MSTORE POP DUP2 ADD SWAP1 PUSH2 0x115F SWAP2 SWAP1 PUSH2 0x374C JUMP JUMPDEST PUSH1 0x1 PUSH1 0x1 PUSH1 0xA0 SHL SUB AND EQ PUSH2 0x1185 JUMPI PUSH1 0x40 MLOAD PUSH3 0x461BCD PUSH1 0xE5 SHL DUP2 MSTORE PUSH1 0x4 ADD PUSH2 0x186 SWAP1 PUSH2 0x41D2 JUMP JUMPDEST DUP6 PUSH1 0x1 PUSH1 0x1 PUSH1 0xA0 SHL SUB AND DUP4 PUSH1 0x1 PUSH1 0x1 PUSH1 0xA0 SHL SUB AND EQ PUSH2 0x11B6 JUMPI PUSH1 0x40 MLOAD PUSH3 0x461BCD PUSH1 0xE5 SHL DUP2 MSTORE PUSH1 0x4 ADD PUSH2 0x186 SWAP1 PUSH2 0x3E75 JUMP JUMPDEST PUSH1 0x40 MLOAD PUSH4 0xD1D6975 PUSH1 0xE3 SHL DUP2 MSTORE PUSH1 0x1 PUSH1 0x1 PUSH1 0xA0 SHL SUB PUSH32 0x0 AND SWAP1 PUSH4 0x68EB4BA8 SWAP1 PUSH2 0x1206 SWAP1 DUP10 SWAP1 DUP7 SWAP1 DUP7 SWAP1 PUSH1 0x4 ADD PUSH2 0x3DB4 JUMP JUMPDEST PUSH1 0x0 PUSH1 0x40 MLOAD DUP1 DUP4 SUB DUP2 PUSH1 0x0 DUP8 DUP1 EXTCODESIZE ISZERO DUP1 ISZERO PUSH2 0x1220 JUMPI PUSH1 0x0 DUP1 REVERT JUMPDEST POP GAS CALL ISZERO DUP1 ISZERO PUSH2 0x1234 JUMPI RETURNDATASIZE PUSH1 0x0 DUP1 RETURNDATACOPY RETURNDATASIZE PUSH1 0x0 REVERT JUMPDEST POP POP PUSH1 0x40 MLOAD PUSH4 0xB390C0AB PUSH1 0xE0 SHL DUP2 MSTORE PUSH1 0x1 PUSH1 0x1 PUSH1 0xA0 SHL SUB DUP10 AND SWAP3 POP PUSH4 0xB390C0AB SWAP2 POP PUSH2 0x1266 SWAP1 DUP6 SWAP1 DUP6 SWAP1 PUSH1 0x4 ADD PUSH2 0x42FC JUMP JUMPDEST PUSH1 0x20 PUSH1 0x40 MLOAD DUP1 DUP4 SUB DUP2 PUSH1 0x0 DUP8 DUP1 EXTCODESIZE ISZERO DUP1 ISZERO PUSH2 0x1280 JUMPI PUSH1 0x0 DUP1 REVERT JUMPDEST POP GAS CALL ISZERO DUP1 ISZERO PUSH2 0x1294 JUMPI RETURNDATASIZE PUSH1 0x0 DUP1 RETURNDATACOPY RETURNDATASIZE PUSH1 0x0 REVERT JUMPDEST POP POP POP POP PUSH1 0x40 MLOAD RETURNDATASIZE PUSH1 0x1F NOT PUSH1 0x1F DUP3 ADD AND DUP3 ADD DUP1 PUSH1 0x40 MSTORE POP DUP2 ADD SWAP1 PUSH2 0x12B8 SWAP2 SWAP1 PUSH2 0x3C02 JUMP JUMPDEST POP JUMPDEST PUSH2 0x12C4 DUP6 DUP8 PUSH2 0x2477 JUMP JUMPDEST PUSH1 0x40 MLOAD PUSH4 0x70A08231 PUSH1 0xE0 SHL DUP2 MSTORE PUSH1 0x0 SWAP1 PUSH1 0x1 PUSH1 0x1 PUSH1 0xA0 SHL SUB DUP8 AND SWAP1 PUSH4 0x70A08231 SWAP1 PUSH2 0x12F3 SWAP1 ADDRESS SWAP1 PUSH1 0x4 ADD PUSH2 0x3CC9 JUMP JUMPDEST PUSH1 0x20 PUSH1 0x40 MLOAD DUP1 DUP4 SUB DUP2 DUP7 DUP1 EXTCODESIZE ISZERO DUP1 ISZERO PUSH2 0x130B JUMPI PUSH1 0x0 DUP1 REVERT JUMPDEST POP GAS STATICCALL ISZERO DUP1 ISZERO PUSH2 0x131F JUMPI RETURNDATASIZE PUSH1 0x0 DUP1 RETURNDATACOPY RETURNDATASIZE PUSH1 0x0 REVERT JUMPDEST POP POP POP POP PUSH1 0x40 MLOAD RETURNDATASIZE PUSH1 0x1F NOT PUSH1 0x1F DUP3 ADD AND DUP3 ADD DUP1 PUSH1 0x40 MSTORE POP DUP2 ADD SWAP1 PUSH2 0x1343 SWAP2 SWAP1 PUSH2 0x3C02 JUMP JUMPDEST SWAP1 POP PUSH1 0x0 DUP8 PUSH1 0x1 PUSH1 0x1 PUSH1 0xA0 SHL SUB AND PUSH4 0xA0712D68 DUP4 PUSH1 0x40 MLOAD DUP3 PUSH4 0xFFFFFFFF AND PUSH1 0xE0 SHL DUP2 MSTORE PUSH1 0x4 ADD PUSH2 0x1373 SWAP2 SWAP1 PUSH2 0x42A0 JUMP JUMPDEST PUSH1 0x20 PUSH1 0x40 MLOAD DUP1 DUP4 SUB DUP2 PUSH1 0x0 DUP8 DUP1 EXTCODESIZE ISZERO DUP1 ISZERO PUSH2 0x138D JUMPI PUSH1 0x0 DUP1 REVERT JUMPDEST POP GAS CALL ISZERO DUP1 ISZERO PUSH2 0x13A1 JUMPI RETURNDATASIZE PUSH1 0x0 DUP1 RETURNDATACOPY RETURNDATASIZE PUSH1 0x0 REVERT JUMPDEST POP POP POP POP PUSH1 0x40 MLOAD RETURNDATASIZE PUSH1 0x1F NOT PUSH1 0x1F DUP3 ADD AND DUP3 ADD DUP1 PUSH1 0x40 MSTORE POP DUP2 ADD SWAP1 PUSH2 0x13C5 SWAP2 SWAP1 PUSH2 0x3C02 JUMP JUMPDEST PUSH1 0x40 MLOAD PUSH4 0xE985E9C5 PUSH1 0xE0 SHL DUP2 MSTORE SWAP1 SWAP2 POP PUSH1 0x1 PUSH1 0x1 PUSH1 0xA0 SHL SUB DUP10 AND SWAP1 PUSH4 0xE985E9C5 SWAP1 PUSH2 0x1416 SWAP1 ADDRESS SWAP1 PUSH32 0x0 SWAP1 PUSH1 0x4 ADD PUSH2 0x3CDD JUMP JUMPDEST PUSH1 0x20 PUSH1 0x40 MLOAD DUP1 DUP4 SUB DUP2 DUP7 DUP1 EXTCODESIZE ISZERO DUP1 ISZERO PUSH2 0x142E JUMPI PUSH1 0x0 DUP1 REVERT JUMPDEST POP GAS STATICCALL ISZERO DUP1 ISZERO PUSH2 0x1442 JUMPI RETURNDATASIZE PUSH1 0x0 DUP1 RETURNDATACOPY RETURNDATASIZE PUSH1 0x0 REVERT JUMPDEST POP POP POP POP PUSH1 0x40 MLOAD RETURNDATASIZE PUSH1 0x1F NOT PUSH1 0x1F DUP3 ADD AND DUP3 ADD DUP1 PUSH1 0x40 MSTORE POP DUP2 ADD SWAP1 PUSH2 0x1466 SWAP2 SWAP1 PUSH2 0x3B6A JUMP JUMPDEST PUSH2 0x14EC JUMPI PUSH1 0x40 MLOAD PUSH4 0xA22CB465 PUSH1 0xE0 SHL DUP2 MSTORE PUSH1 0x1 PUSH1 0x1 PUSH1 0xA0 SHL SUB DUP10 AND SWAP1 PUSH4 0xA22CB465 SWAP1 PUSH2 0x14B9 SWAP1 PUSH32 0x0 SWAP1 PUSH1 0x1 SWAP1 PUSH1 0x4 ADD PUSH2 0x3D80 JUMP JUMPDEST PUSH1 0x0 PUSH1 0x40 MLOAD DUP1 DUP4 SUB DUP2 PUSH1 0x0 DUP8 DUP1 EXTCODESIZE ISZERO DUP1 ISZERO PUSH2 0x14D3 JUMPI PUSH1 0x0 DUP1 REVERT JUMPDEST POP GAS CALL ISZERO DUP1 ISZERO PUSH2 0x14E7 JUMPI RETURNDATASIZE PUSH1 0x0 DUP1 RETURNDATACOPY RETURNDATASIZE PUSH1 0x0 REVERT JUMPDEST POP POP POP POP JUMPDEST PUSH1 0x40 MLOAD PUSH4 0x314568D9 PUSH1 0xE0 SHL DUP2 MSTORE PUSH1 0x1 PUSH1 0x1 PUSH1 0xA0 SHL SUB PUSH32 0x0 AND SWAP1 PUSH4 0x314568D9 SWAP1 PUSH2 0x153C SWAP1 DUP12 SWAP1 DUP6 SWAP1 DUP8 SWAP1 PUSH1 0x4 ADD PUSH2 0x3DB4 JUMP JUMPDEST PUSH1 0x0 PUSH1 0x40 MLOAD DUP1 DUP4 SUB DUP2 PUSH1 0x0 DUP8 DUP1 EXTCODESIZE ISZERO DUP1 ISZERO PUSH2 0x1556 JUMPI PUSH1 0x0 DUP1 REVERT JUMPDEST POP GAS CALL ISZERO DUP1 ISZERO PUSH2 0x156A JUMPI RETURNDATASIZE PUSH1 0x0 DUP1 RETURNDATACOPY RETURNDATASIZE PUSH1 0x0 REVERT JUMPDEST POP POP POP POP PUSH2 0x1576 PUSH2 0x2DA8 JUMP JUMPDEST PUSH2 0x157F DUP12 PUSH2 0x24EE JUMP JUMPDEST PUSH2 0x1588 DUP11 PUSH2 0x24EE JUMP JUMPDEST PUSH2 0x1591 DUP7 PUSH2 0x24EE JUMP JUMPDEST POP POP POP POP POP POP POP POP POP POP POP JUMP JUMPDEST PUSH1 0x43 SLOAD PUSH1 0x1 PUSH1 0x1 PUSH1 0xA0 SHL SUB AND DUP2 JUMP JUMPDEST PUSH1 0x43 SLOAD PUSH1 0x1 PUSH1 0x1 PUSH1 0xA0 SHL SUB AND CALLER EQ PUSH2 0x15D7 JUMPI PUSH1 0x40 MLOAD PUSH3 0x461BCD PUSH1 0xE5 SHL DUP2 MSTORE PUSH1 0x4 ADD PUSH2 0x186 SWAP1 PUSH2 0x3EBB JUMP JUMPDEST PUSH1 0x43 DUP1 SLOAD PUSH1 0x1 PUSH1 0x1 PUSH1 0xA0 SHL SUB NOT AND SWAP1 SSTORE PUSH1 0x42 DUP1 SLOAD PUSH3 0x10000 PUSH1 0x1 PUSH1 0xB0 SHL SUB NOT AND CALLER PUSH3 0x10000 DUP2 MUL SWAP2 SWAP1 SWAP2 OR SWAP1 SWAP2 SSTORE PUSH1 0x40 MLOAD PUSH32 0xD345D81CE68C70B119A17EEE79DC1421700BD9CB21CA148A62DC90983964E82F SWAP2 PUSH2 0x1633 SWAP2 PUSH2 0x3CC9 JUMP JUMPDEST PUSH1 0x40 MLOAD DUP1 SWAP2 SUB SWAP1 LOG1 JUMP JUMPDEST PUSH1 0x42 SLOAD PUSH3 0x10000 SWAP1 DIV PUSH1 0x1 PUSH1 0x1 PUSH1 0xA0 SHL SUB AND CALLER EQ PUSH2 0x166D JUMPI PUSH1 0x40 MLOAD PUSH3 0x461BCD PUSH1 0xE5 SHL DUP2 MSTORE PUSH1 0x4 ADD PUSH2 0x186 SWAP1 PUSH2 0x4014 JUMP JUMPDEST DUP3 DUP2 EQ PUSH2 0x168C JUMPI PUSH1 0x40 MLOAD PUSH3 0x461BCD PUSH1 0xE5 SHL DUP2 MSTORE PUSH1 0x4 ADD PUSH2 0x186 SWAP1 PUSH2 0x403E JUMP JUMPDEST PUSH1 0x0 JUMPDEST DUP4 DUP2 LT ISZERO PUSH2 0x180B JUMPI DUP3 DUP3 DUP3 DUP2 DUP2 LT PUSH2 0x16A3 JUMPI INVALID JUMPDEST SWAP1 POP PUSH1 0x20 MUL ADD PUSH1 0x20 DUP2 ADD SWAP1 PUSH2 0x16B8 SWAP2 SWAP1 PUSH2 0x3B4E JUMP JUMPDEST ISZERO PUSH2 0x1795 JUMPI PUSH32 0x0 PUSH1 0x1 PUSH1 0x1 PUSH1 0xA0 SHL SUB AND PUSH4 0xE660CC08 DUP7 DUP7 DUP5 DUP2 DUP2 LT PUSH2 0x16F8 JUMPI INVALID JUMPDEST SWAP1 POP PUSH1 0x20 MUL ADD PUSH1 0x20 DUP2 ADD SWAP1 PUSH2 0x170D SWAP2 SWAP1 PUSH2 0x3730 JUMP JUMPDEST PUSH1 0x40 MLOAD DUP3 PUSH4 0xFFFFFFFF AND PUSH1 0xE0 SHL DUP2 MSTORE PUSH1 0x4 ADD PUSH2 0x1729 SWAP2 SWAP1 PUSH2 0x3CC9 JUMP JUMPDEST PUSH1 0x20 PUSH1 0x40 MLOAD DUP1 DUP4 SUB DUP2 DUP7 DUP1 EXTCODESIZE ISZERO DUP1 ISZERO PUSH2 0x1741 JUMPI PUSH1 0x0 DUP1 REVERT JUMPDEST POP GAS STATICCALL ISZERO DUP1 ISZERO PUSH2 0x1755 JUMPI RETURNDATASIZE PUSH1 0x0 DUP1 RETURNDATACOPY RETURNDATASIZE PUSH1 0x0 REVERT JUMPDEST POP POP POP POP PUSH1 0x40 MLOAD RETURNDATASIZE PUSH1 0x1F NOT PUSH1 0x1F DUP3 ADD AND DUP3 ADD DUP1 PUSH1 0x40 MSTORE POP DUP2 ADD SWAP1 PUSH2 0x1779 SWAP2 SWAP1 PUSH2 0x3B6A JUMP JUMPDEST PUSH2 0x1795 JUMPI PUSH1 0x40 MLOAD PUSH3 0x461BCD PUSH1 0xE5 SHL DUP2 MSTORE PUSH1 0x4 ADD PUSH2 0x186 SWAP1 PUSH2 0x3F29 JUMP JUMPDEST DUP3 DUP3 DUP3 DUP2 DUP2 LT PUSH2 0x17A1 JUMPI INVALID JUMPDEST SWAP1 POP PUSH1 0x20 MUL ADD PUSH1 0x20 DUP2 ADD SWAP1 PUSH2 0x17B6 SWAP2 SWAP1 PUSH2 0x3B4E JUMP JUMPDEST PUSH1 0x84 PUSH1 0x0 DUP8 DUP8 DUP6 DUP2 DUP2 LT PUSH2 0x17C6 JUMPI INVALID JUMPDEST SWAP1 POP PUSH1 0x20 MUL ADD PUSH1 0x20 DUP2 ADD SWAP1 PUSH2 0x17DB SWAP2 SWAP1 PUSH2 0x3730 JUMP JUMPDEST PUSH1 0x1 PUSH1 0x1 PUSH1 0xA0 SHL SUB AND DUP2 MSTORE PUSH1 0x20 DUP2 ADD SWAP2 SWAP1 SWAP2 MSTORE PUSH1 0x40 ADD PUSH1 0x0 KECCAK256 DUP1 SLOAD PUSH1 0xFF NOT AND SWAP2 ISZERO ISZERO SWAP2 SWAP1 SWAP2 OR SWAP1 SSTORE PUSH1 0x1 ADD PUSH2 0x168F JUMP JUMPDEST POP POP POP POP POP JUMP JUMPDEST PUSH1 0x42 SLOAD PUSH3 0x10000 SWAP1 DIV PUSH1 0x1 PUSH1 0x1 PUSH1 0xA0 SHL SUB AND CALLER EQ PUSH2 0x1842 JUMPI PUSH1 0x40 MLOAD PUSH3 0x461BCD PUSH1 0xE5 SHL DUP2 MSTORE PUSH1 0x4 ADD PUSH2 0x186 SWAP1 PUSH2 0x4014 JUMP JUMPDEST PUSH1 0x43 DUP1 SLOAD PUSH1 0x1 PUSH1 0x1 PUSH1 0xA0 SHL SUB NOT AND PUSH1 0x1 PUSH1 0x1 PUSH1 0xA0 SHL SUB DUP4 AND OR SWAP1 SSTORE PUSH1 0x40 MLOAD PUSH32 0x964DEA888B00B2AB53F13DFE7CA334B46E99338C222AE232D98547A1DA019F60 SWAP1 PUSH2 0x188D SWAP1 DUP4 SWAP1 PUSH2 0x3CC9 JUMP JUMPDEST PUSH1 0x40 MLOAD DUP1 SWAP2 SUB SWAP1 LOG1 POP JUMP JUMPDEST PUSH4 0xF23A6E61 PUSH1 0xE0 SHL SWAP7 SWAP6 POP POP POP POP POP POP JUMP JUMPDEST PUSH1 0x41 PUSH1 0x20 SWAP1 DUP2 MSTORE PUSH1 0x0 SWAP3 DUP4 MSTORE PUSH1 0x40 DUP1 DUP5 KECCAK256 SWAP1 SWAP2 MSTORE SWAP1 DUP3 MSTORE SWAP1 KECCAK256 SLOAD PUSH1 0xFF AND DUP2 JUMP JUMPDEST PUSH32 0x0 DUP2 JUMP JUMPDEST DUP1 ISZERO DUP1 PUSH2 0x1976 JUMPI POP PUSH1 0x40 MLOAD PUSH4 0x6EB1769F PUSH1 0xE1 SHL DUP2 MSTORE PUSH1 0x1 PUSH1 0x1 PUSH1 0xA0 SHL SUB DUP5 AND SWAP1 PUSH4 0xDD62ED3E SWAP1 PUSH2 0x1924 SWAP1 ADDRESS SWAP1 DUP7 SWAP1 PUSH1 0x4 ADD PUSH2 0x3CDD JUMP JUMPDEST PUSH1 0x20 PUSH1 0x40 MLOAD DUP1 DUP4 SUB DUP2 DUP7 DUP1 EXTCODESIZE ISZERO DUP1 ISZERO PUSH2 0x193C JUMPI PUSH1 0x0 DUP1 REVERT JUMPDEST POP GAS STATICCALL ISZERO DUP1 ISZERO PUSH2 0x1950 JUMPI RETURNDATASIZE PUSH1 0x0 DUP1 RETURNDATACOPY RETURNDATASIZE PUSH1 0x0 REVERT JUMPDEST POP POP POP POP PUSH1 0x40 MLOAD RETURNDATASIZE PUSH1 0x1F NOT PUSH1 0x1F DUP3 ADD AND DUP3 ADD DUP1 PUSH1 0x40 MSTORE POP DUP2 ADD SWAP1 PUSH2 0x1974 SWAP2 SWAP1 PUSH2 0x3C02 JUMP JUMPDEST ISZERO JUMPDEST PUSH2 0x1992 JUMPI PUSH1 0x40 MLOAD PUSH3 0x461BCD PUSH1 0xE5 SHL DUP2 MSTORE PUSH1 0x4 ADD PUSH2 0x186 SWAP1 PUSH2 0x424A JUMP JUMPDEST PUSH2 0x19E8 DUP4 PUSH4 0x95EA7B3 PUSH1 0xE0 SHL DUP5 DUP5 PUSH1 0x40 MLOAD PUSH1 0x24 ADD PUSH2 0x19B1 SWAP3 SWAP2 SWAP1 PUSH2 0x3D9B JUMP JUMPDEST PUSH1 0x40 DUP1 MLOAD PUSH1 0x1F NOT DUP2 DUP5 SUB ADD DUP2 MSTORE SWAP2 SWAP1 MSTORE PUSH1 0x20 DUP2 ADD DUP1 MLOAD PUSH1 0x1 PUSH1 0x1 PUSH1 0xE0 SHL SUB AND PUSH1 0x1 PUSH1 0x1 PUSH1 0xE0 SHL SUB NOT SWAP1 SWAP4 AND SWAP3 SWAP1 SWAP3 OR SWAP1 SWAP2 MSTORE PUSH2 0x2FF1 JUMP JUMPDEST POP POP POP JUMP JUMPDEST EXTCODESIZE ISZERO ISZERO SWAP1 JUMP JUMPDEST PUSH1 0x60 PUSH2 0x1A02 DUP5 DUP5 PUSH1 0x0 DUP6 PUSH2 0x3080 JUMP JUMPDEST SWAP1 POP JUMPDEST SWAP4 SWAP3 POP POP POP JUMP JUMPDEST DUP1 ISZERO PUSH2 0x1BD8 JUMPI PUSH1 0x0 NOT DUP2 EQ ISZERO PUSH2 0x1AB3 JUMPI PUSH32 0x0 PUSH1 0x1 PUSH1 0x1 PUSH1 0xA0 SHL SUB AND PUSH4 0xF70AEDD9 PUSH1 0x40 MLOAD DUP2 PUSH4 0xFFFFFFFF AND PUSH1 0xE0 SHL DUP2 MSTORE PUSH1 0x4 ADD PUSH1 0x80 PUSH1 0x40 MLOAD DUP1 DUP4 SUB DUP2 DUP7 DUP1 EXTCODESIZE ISZERO DUP1 ISZERO PUSH2 0x1A75 JUMPI PUSH1 0x0 DUP1 REVERT JUMPDEST POP GAS STATICCALL ISZERO DUP1 ISZERO PUSH2 0x1A89 JUMPI RETURNDATASIZE PUSH1 0x0 DUP1 RETURNDATACOPY RETURNDATASIZE PUSH1 0x0 REVERT JUMPDEST POP POP POP POP PUSH1 0x40 MLOAD RETURNDATASIZE PUSH1 0x1F NOT PUSH1 0x1F DUP3 ADD AND DUP3 ADD DUP1 PUSH1 0x40 MSTORE POP DUP2 ADD SWAP1 PUSH2 0x1AAD SWAP2 SWAP1 PUSH2 0x398F JUMP JUMPDEST SWAP4 POP POP POP POP JUMPDEST PUSH1 0x40 MLOAD PUSH4 0xD1D6975 PUSH1 0xE3 SHL DUP2 MSTORE PUSH1 0x1 PUSH1 0x1 PUSH1 0xA0 SHL SUB PUSH32 0x0 DUP2 AND SWAP2 PUSH4 0x68EB4BA8 SWAP2 PUSH2 0x1B25 SWAP2 PUSH32 0x0 SWAP2 DUP8 AND SWAP1 DUP7 SWAP1 PUSH1 0x4 ADD PUSH2 0x3DB4 JUMP JUMPDEST PUSH1 0x0 PUSH1 0x40 MLOAD DUP1 DUP4 SUB DUP2 PUSH1 0x0 DUP8 DUP1 EXTCODESIZE ISZERO DUP1 ISZERO PUSH2 0x1B3F JUMPI PUSH1 0x0 DUP1 REVERT JUMPDEST POP GAS CALL ISZERO DUP1 ISZERO PUSH2 0x1B53 JUMPI RETURNDATASIZE PUSH1 0x0 DUP1 RETURNDATACOPY RETURNDATASIZE PUSH1 0x0 REVERT JUMPDEST POP POP PUSH1 0x40 MLOAD PUSH4 0x2770A7EB PUSH1 0xE2 SHL DUP2 MSTORE PUSH1 0x1 PUSH1 0x1 PUSH1 0xA0 SHL SUB PUSH32 0x0 AND SWAP3 POP PUSH4 0x9DC29FAC SWAP2 POP PUSH2 0x1BA5 SWAP1 DUP6 SWAP1 DUP6 SWAP1 PUSH1 0x4 ADD PUSH2 0x3D9B JUMP JUMPDEST PUSH1 0x0 PUSH1 0x40 MLOAD DUP1 DUP4 SUB DUP2 PUSH1 0x0 DUP8 DUP1 EXTCODESIZE ISZERO DUP1 ISZERO PUSH2 0x1BBF JUMPI PUSH1 0x0 DUP1 REVERT JUMPDEST POP GAS CALL ISZERO DUP1 ISZERO PUSH2 0x1BD3 JUMPI RETURNDATASIZE PUSH1 0x0 DUP1 RETURNDATACOPY RETURNDATASIZE PUSH1 0x0 REVERT JUMPDEST POP POP POP POP JUMPDEST POP POP JUMP JUMPDEST PUSH1 0x1 PUSH1 0x1 PUSH1 0xA0 SHL SUB DUP2 AND PUSH1 0x0 SWAP1 DUP2 MSTORE PUSH1 0x84 PUSH1 0x20 MSTORE PUSH1 0x40 SWAP1 KECCAK256 SLOAD PUSH1 0xFF AND PUSH2 0x1C14 JUMPI PUSH1 0x40 MLOAD PUSH3 0x461BCD PUSH1 0xE5 SHL DUP2 MSTORE PUSH1 0x4 ADD PUSH2 0x186 SWAP1 PUSH2 0x40A8 JUMP JUMPDEST PUSH1 0x0 PUSH32 0x0 PUSH1 0x1 PUSH1 0x1 PUSH1 0xA0 SHL SUB AND PUSH4 0xD7AC71FF PUSH1 0x40 MLOAD DUP2 PUSH4 0xFFFFFFFF AND PUSH1 0xE0 SHL DUP2 MSTORE PUSH1 0x4 ADD PUSH1 0x20 PUSH1 0x40 MLOAD DUP1 DUP4 SUB DUP2 DUP7 DUP1 EXTCODESIZE ISZERO DUP1 ISZERO PUSH2 0x1C6F JUMPI PUSH1 0x0 DUP1 REVERT JUMPDEST POP GAS STATICCALL ISZERO DUP1 ISZERO PUSH2 0x1C83 JUMPI RETURNDATASIZE PUSH1 0x0 DUP1 RETURNDATACOPY RETURNDATASIZE PUSH1 0x0 REVERT JUMPDEST POP POP POP POP PUSH1 0x40 MLOAD RETURNDATASIZE PUSH1 0x1F NOT PUSH1 0x1F DUP3 ADD AND DUP3 ADD DUP1 PUSH1 0x40 MSTORE POP DUP2 ADD SWAP1 PUSH2 0x1CA7 SWAP2 SWAP1 PUSH2 0x3C02 JUMP JUMPDEST SWAP1 POP PUSH1 0x40 DUP4 ADD CALLDATALOAD PUSH1 0x60 DUP5 ADD CALLDATALOAD PUSH1 0x80 DUP6 ADD CALLDATALOAD PUSH1 0x0 NOT DUP4 EQ ISZERO PUSH2 0x1D65 JUMPI PUSH1 0x40 MLOAD PUSH4 0x20A8BEE7 PUSH1 0xE2 SHL DUP2 MSTORE PUSH1 0x1 PUSH1 0x1 PUSH1 0xA0 SHL SUB PUSH32 0x0 AND SWAP1 PUSH4 0x82A2FB9C SWAP1 PUSH2 0x1D10 SWAP1 DUP8 SWAP1 DUP13 SWAP1 PUSH1 0x4 ADD PUSH2 0x42A9 JUMP JUMPDEST PUSH1 0x20 PUSH1 0x40 MLOAD DUP1 DUP4 SUB DUP2 PUSH1 0x0 DUP8 DUP1 EXTCODESIZE ISZERO DUP1 ISZERO PUSH2 0x1D2A JUMPI PUSH1 0x0 DUP1 REVERT JUMPDEST POP GAS CALL ISZERO DUP1 ISZERO PUSH2 0x1D3E JUMPI RETURNDATASIZE PUSH1 0x0 DUP1 RETURNDATACOPY RETURNDATASIZE PUSH1 0x0 REVERT JUMPDEST POP POP POP POP PUSH1 0x40 MLOAD RETURNDATASIZE PUSH1 0x1F NOT PUSH1 0x1F DUP3 ADD AND DUP3 ADD DUP1 PUSH1 0x40 MSTORE POP DUP2 ADD SWAP1 PUSH2 0x1D62 SWAP2 SWAP1 PUSH2 0x3C02 JUMP JUMPDEST SWAP3 POP JUMPDEST PUSH1 0x0 NOT DUP3 EQ ISZERO PUSH2 0x1E12 JUMPI PUSH1 0x40 MLOAD PUSH4 0x20A8BEE7 PUSH1 0xE2 SHL DUP2 MSTORE PUSH1 0x1 PUSH1 0x1 PUSH1 0xA0 SHL SUB PUSH32 0x0 AND SWAP1 PUSH4 0x82A2FB9C SWAP1 PUSH2 0x1DBD SWAP1 DUP8 SWAP1 DUP12 SWAP1 PUSH1 0x4 ADD PUSH2 0x42A9 JUMP JUMPDEST PUSH1 0x20 PUSH1 0x40 MLOAD DUP1 DUP4 SUB DUP2 PUSH1 0x0 DUP8 DUP1 EXTCODESIZE ISZERO DUP1 ISZERO PUSH2 0x1DD7 JUMPI PUSH1 0x0 DUP1 REVERT JUMPDEST POP GAS CALL ISZERO DUP1 ISZERO PUSH2 0x1DEB JUMPI RETURNDATASIZE PUSH1 0x0 DUP1 RETURNDATACOPY RETURNDATASIZE PUSH1 0x0 REVERT JUMPDEST POP POP POP POP PUSH1 0x40 MLOAD RETURNDATASIZE PUSH1 0x1F NOT PUSH1 0x1F DUP3 ADD AND DUP3 ADD DUP1 PUSH1 0x40 MSTORE POP DUP2 ADD SWAP1 PUSH2 0x1E0F SWAP2 SWAP1 PUSH2 0x3C02 JUMP JUMPDEST SWAP2 POP JUMPDEST PUSH1 0x0 NOT DUP2 EQ ISZERO PUSH2 0x1EBF JUMPI PUSH1 0x40 MLOAD PUSH4 0x20A8BEE7 PUSH1 0xE2 SHL DUP2 MSTORE PUSH1 0x1 PUSH1 0x1 PUSH1 0xA0 SHL SUB PUSH32 0x0 AND SWAP1 PUSH4 0x82A2FB9C SWAP1 PUSH2 0x1E6A SWAP1 DUP8 SWAP1 DUP10 SWAP1 PUSH1 0x4 ADD PUSH2 0x42A9 JUMP JUMPDEST PUSH1 0x20 PUSH1 0x40 MLOAD DUP1 DUP4 SUB DUP2 PUSH1 0x0 DUP8 DUP1 EXTCODESIZE ISZERO DUP1 ISZERO PUSH2 0x1E84 JUMPI PUSH1 0x0 DUP1 REVERT JUMPDEST POP GAS CALL ISZERO DUP1 ISZERO PUSH2 0x1E98 JUMPI RETURNDATASIZE PUSH1 0x0 DUP1 RETURNDATACOPY RETURNDATASIZE PUSH1 0x0 REVERT JUMPDEST POP POP POP POP PUSH1 0x40 MLOAD RETURNDATASIZE PUSH1 0x1F NOT PUSH1 0x1F DUP3 ADD AND DUP3 ADD DUP1 PUSH1 0x40 MSTORE POP DUP2 ADD SWAP1 PUSH2 0x1EBC SWAP2 SWAP1 PUSH2 0x3C02 JUMP JUMPDEST SWAP1 POP JUMPDEST PUSH1 0x0 PUSH2 0x1F4B DUP8 PUSH1 0x20 ADD CALLDATALOAD DUP8 PUSH1 0x1 PUSH1 0x1 PUSH1 0xA0 SHL SUB AND PUSH4 0x70A08231 ADDRESS PUSH1 0x40 MLOAD DUP3 PUSH4 0xFFFFFFFF AND PUSH1 0xE0 SHL DUP2 MSTORE PUSH1 0x4 ADD PUSH2 0x1EF5 SWAP2 SWAP1 PUSH2 0x3CC9 JUMP JUMPDEST PUSH1 0x20 PUSH1 0x40 MLOAD DUP1 DUP4 SUB DUP2 DUP7 DUP1 EXTCODESIZE ISZERO DUP1 ISZERO PUSH2 0x1F0D JUMPI PUSH1 0x0 DUP1 REVERT JUMPDEST POP GAS STATICCALL ISZERO DUP1 ISZERO PUSH2 0x1F21 JUMPI RETURNDATASIZE PUSH1 0x0 DUP1 RETURNDATACOPY RETURNDATASIZE PUSH1 0x0 REVERT JUMPDEST POP POP POP POP PUSH1 0x40 MLOAD RETURNDATASIZE PUSH1 0x1F NOT PUSH1 0x1F DUP3 ADD AND DUP3 ADD DUP1 PUSH1 0x40 MSTORE POP DUP2 ADD SWAP1 PUSH2 0x1F45 SWAP2 SWAP1 PUSH2 0x3C02 JUMP JUMPDEST SWAP1 PUSH2 0x3141 JUMP JUMPDEST SWAP1 POP PUSH1 0x0 DUP1 DUP3 ISZERO PUSH2 0x2006 JUMPI PUSH1 0x40 MLOAD PUSH4 0x5D5155EF PUSH1 0xE1 SHL DUP2 MSTORE PUSH1 0x1 PUSH1 0x1 PUSH1 0xA0 SHL SUB PUSH32 0x0 AND SWAP1 PUSH4 0xBAA2ABDE SWAP1 PUSH2 0x1FAF SWAP1 DUP15 SWAP1 DUP15 SWAP1 DUP9 SWAP1 PUSH1 0x0 SWAP1 DUP2 SWAP1 ADDRESS SWAP1 TIMESTAMP SWAP1 PUSH1 0x4 ADD PUSH2 0x3CF7 JUMP JUMPDEST PUSH1 0x40 DUP1 MLOAD DUP1 DUP4 SUB DUP2 PUSH1 0x0 DUP8 DUP1 EXTCODESIZE ISZERO DUP1 ISZERO PUSH2 0x1FC8 JUMPI PUSH1 0x0 DUP1 REVERT JUMPDEST POP GAS CALL ISZERO DUP1 ISZERO PUSH2 0x1FDC JUMPI RETURNDATASIZE PUSH1 0x0 DUP1 RETURNDATACOPY RETURNDATASIZE PUSH1 0x0 REVERT JUMPDEST POP POP POP POP PUSH1 0x40 MLOAD RETURNDATASIZE PUSH1 0x1F NOT PUSH1 0x1F DUP3 ADD AND DUP3 ADD DUP1 PUSH1 0x40 MSTORE POP DUP2 ADD SWAP1 PUSH2 0x2000 SWAP2 SWAP1 PUSH2 0x3C1A JUMP JUMPDEST SWAP1 SWAP3 POP SWAP1 POP JUMPDEST PUSH1 0x0 PUSH2 0x2016 DUP8 PUSH1 0xA0 DUP13 ADD CALLDATALOAD PUSH2 0x3169 JUMP JUMPDEST SWAP1 POP PUSH1 0x0 PUSH2 0x2028 DUP8 PUSH1 0xC0 DUP14 ADD CALLDATALOAD PUSH2 0x3169 JUMP JUMPDEST SWAP1 POP DUP2 DUP5 LT DUP1 ISZERO PUSH2 0x2038 JUMPI POP DUP1 DUP4 GT JUMPDEST ISZERO PUSH2 0x2157 JUMPI PUSH1 0x40 DUP1 MLOAD PUSH1 0x2 DUP1 DUP3 MSTORE PUSH1 0x60 DUP1 DUP4 ADD DUP5 MSTORE SWAP3 PUSH1 0x20 DUP4 ADD SWAP1 DUP1 CALLDATASIZE DUP4 CALLDATACOPY ADD SWAP1 POP POP SWAP1 POP DUP13 DUP15 DUP3 PUSH1 0x0 DUP2 MLOAD DUP2 LT PUSH2 0x206C JUMPI INVALID JUMPDEST PUSH1 0x20 MUL PUSH1 0x20 ADD ADD DUP4 PUSH1 0x1 DUP2 MLOAD DUP2 LT PUSH2 0x2080 JUMPI INVALID JUMPDEST PUSH1 0x1 PUSH1 0x1 PUSH1 0xA0 SHL SUB SWAP4 DUP5 AND PUSH1 0x20 SWAP2 DUP3 MUL SWAP3 SWAP1 SWAP3 ADD ADD MSTORE SWAP2 DUP2 AND SWAP1 SWAP2 MSTORE PUSH32 0x0 AND PUSH4 0x8803DBEE PUSH2 0x20CD DUP6 DUP9 PUSH2 0x3141 JUMP JUMPDEST PUSH2 0x20D7 DUP8 DUP7 PUSH2 0x3141 JUMP JUMPDEST DUP5 ADDRESS TIMESTAMP PUSH1 0x40 MLOAD DUP7 PUSH4 0xFFFFFFFF AND PUSH1 0xE0 SHL DUP2 MSTORE PUSH1 0x4 ADD PUSH2 0x20FA SWAP6 SWAP5 SWAP4 SWAP3 SWAP2 SWAP1 PUSH2 0x42C0 JUMP JUMPDEST PUSH1 0x0 PUSH1 0x40 MLOAD DUP1 DUP4 SUB DUP2 PUSH1 0x0 DUP8 DUP1 EXTCODESIZE ISZERO DUP1 ISZERO PUSH2 0x2114 JUMPI PUSH1 0x0 DUP1 REVERT JUMPDEST POP GAS CALL ISZERO DUP1 ISZERO PUSH2 0x2128 JUMPI RETURNDATASIZE PUSH1 0x0 DUP1 RETURNDATACOPY RETURNDATASIZE PUSH1 0x0 REVERT JUMPDEST POP POP POP POP PUSH1 0x40 MLOAD RETURNDATASIZE PUSH1 0x0 DUP3 RETURNDATACOPY PUSH1 0x1F RETURNDATASIZE SWAP1 DUP2 ADD PUSH1 0x1F NOT AND DUP3 ADD PUSH1 0x40 MSTORE PUSH2 0x2150 SWAP2 SWAP1 DUP2 ADD SWAP1 PUSH2 0x3AB9 JUMP JUMPDEST POP POP PUSH2 0x2280 JUMP JUMPDEST DUP2 DUP5 GT DUP1 ISZERO PUSH2 0x2165 JUMPI POP DUP1 DUP4 LT JUMPDEST ISZERO PUSH2 0x2280 JUMPI PUSH1 0x40 DUP1 MLOAD PUSH1 0x2 DUP1 DUP3 MSTORE PUSH1 0x60 DUP1 DUP4 ADD DUP5 MSTORE SWAP3 PUSH1 0x20 DUP4 ADD SWAP1 DUP1 CALLDATASIZE DUP4 CALLDATACOPY ADD SWAP1 POP POP SWAP1 POP DUP14 DUP14 DUP3 PUSH1 0x0 DUP2 MLOAD DUP2 LT PUSH2 0x2199 JUMPI INVALID JUMPDEST PUSH1 0x20 MUL PUSH1 0x20 ADD ADD DUP4 PUSH1 0x1 DUP2 MLOAD DUP2 LT PUSH2 0x21AD JUMPI INVALID JUMPDEST PUSH1 0x1 PUSH1 0x1 PUSH1 0xA0 SHL SUB SWAP4 DUP5 AND PUSH1 0x20 SWAP2 DUP3 MUL SWAP3 SWAP1 SWAP3 ADD ADD MSTORE SWAP2 DUP2 AND SWAP1 SWAP2 MSTORE PUSH32 0x0 AND PUSH4 0x8803DBEE PUSH2 0x21FA DUP5 DUP8 PUSH2 0x3141 JUMP JUMPDEST PUSH2 0x2204 DUP9 DUP8 PUSH2 0x3141 JUMP JUMPDEST DUP5 ADDRESS TIMESTAMP PUSH1 0x40 MLOAD DUP7 PUSH4 0xFFFFFFFF AND PUSH1 0xE0 SHL DUP2 MSTORE PUSH1 0x4 ADD PUSH2 0x2227 SWAP6 SWAP5 SWAP4 SWAP3 SWAP2 SWAP1 PUSH2 0x42C0 JUMP JUMPDEST PUSH1 0x0 PUSH1 0x40 MLOAD DUP1 DUP4 SUB DUP2 PUSH1 0x0 DUP8 DUP1 EXTCODESIZE ISZERO DUP1 ISZERO PUSH2 0x2241 JUMPI PUSH1 0x0 DUP1 REVERT JUMPDEST POP GAS CALL ISZERO DUP1 ISZERO PUSH2 0x2255 JUMPI RETURNDATASIZE PUSH1 0x0 DUP1 RETURNDATACOPY RETURNDATASIZE PUSH1 0x0 REVERT JUMPDEST POP POP POP POP PUSH1 0x40 MLOAD RETURNDATASIZE PUSH1 0x0 DUP3 RETURNDATACOPY PUSH1 0x1F RETURNDATASIZE SWAP1 DUP2 ADD PUSH1 0x1F NOT AND DUP3 ADD PUSH1 0x40 MSTORE PUSH2 0x227D SWAP2 SWAP1 DUP2 ADD SWAP1 PUSH2 0x3AB9 JUMP JUMPDEST POP POP JUMPDEST PUSH2 0x228A DUP14 DUP10 PUSH2 0x318E JUMP JUMPDEST PUSH2 0x2294 DUP13 DUP9 PUSH2 0x318E JUMP JUMPDEST PUSH2 0x229E DUP11 DUP8 PUSH2 0x318E JUMP JUMPDEST PUSH1 0x40 MLOAD PUSH4 0x70A08231 PUSH1 0xE0 SHL DUP2 MSTORE PUSH1 0xA0 DUP13 ADD CALLDATALOAD SWAP1 PUSH1 0x1 PUSH1 0x1 PUSH1 0xA0 SHL SUB DUP16 AND SWAP1 PUSH4 0x70A08231 SWAP1 PUSH2 0x22D0 SWAP1 ADDRESS SWAP1 PUSH1 0x4 ADD PUSH2 0x3CC9 JUMP JUMPDEST PUSH1 0x20 PUSH1 0x40 MLOAD DUP1 DUP4 SUB DUP2 DUP7 DUP1 EXTCODESIZE ISZERO DUP1 ISZERO PUSH2 0x22E8 JUMPI PUSH1 0x0 DUP1 REVERT JUMPDEST POP GAS STATICCALL ISZERO DUP1 ISZERO PUSH2 0x22FC JUMPI RETURNDATASIZE PUSH1 0x0 DUP1 RETURNDATACOPY RETURNDATASIZE PUSH1 0x0 REVERT JUMPDEST POP POP POP POP PUSH1 0x40 MLOAD RETURNDATASIZE PUSH1 0x1F NOT PUSH1 0x1F DUP3 ADD AND DUP3 ADD DUP1 PUSH1 0x40 MSTORE POP DUP2 ADD SWAP1 PUSH2 0x2320 SWAP2 SWAP1 PUSH2 0x3C02 JUMP JUMPDEST LT ISZERO PUSH2 0x232B JUMPI PUSH1 0x0 DUP1 REVERT JUMPDEST PUSH1 0x40 MLOAD PUSH4 0x70A08231 PUSH1 0xE0 SHL DUP2 MSTORE PUSH1 0xC0 DUP13 ADD CALLDATALOAD SWAP1 PUSH1 0x1 PUSH1 0x1 PUSH1 0xA0 SHL SUB DUP15 AND SWAP1 PUSH4 0x70A08231 SWAP1 PUSH2 0x235D SWAP1 ADDRESS SWAP1 PUSH1 0x4 ADD PUSH2 0x3CC9 JUMP JUMPDEST PUSH1 0x20 PUSH1 0x40 MLOAD DUP1 DUP4 SUB DUP2 DUP7 DUP1 EXTCODESIZE ISZERO DUP1 ISZERO PUSH2 0x2375 JUMPI PUSH1 0x0 DUP1 REVERT JUMPDEST POP GAS STATICCALL ISZERO DUP1 ISZERO PUSH2 0x2389 JUMPI RETURNDATASIZE PUSH1 0x0 DUP1 RETURNDATACOPY RETURNDATASIZE PUSH1 0x0 REVERT JUMPDEST POP POP POP POP PUSH1 0x40 MLOAD RETURNDATASIZE PUSH1 0x1F NOT PUSH1 0x1F DUP3 ADD AND DUP3 ADD DUP1 PUSH1 0x40 MSTORE POP DUP2 ADD SWAP1 PUSH2 0x23AD SWAP2 SWAP1 PUSH2 0x3C02 JUMP JUMPDEST LT ISZERO PUSH2 0x23B8 JUMPI PUSH1 0x0 DUP1 REVERT JUMPDEST PUSH1 0x40 MLOAD PUSH4 0x70A08231 PUSH1 0xE0 SHL DUP2 MSTORE PUSH1 0x20 DUP13 ADD CALLDATALOAD SWAP1 PUSH1 0x1 PUSH1 0x1 PUSH1 0xA0 SHL SUB DUP13 AND SWAP1 PUSH4 0x70A08231 SWAP1 PUSH2 0x23EA SWAP1 ADDRESS SWAP1 PUSH1 0x4 ADD PUSH2 0x3CC9 JUMP JUMPDEST PUSH1 0x20 PUSH1 0x40 MLOAD DUP1 DUP4 SUB DUP2 DUP7 DUP1 EXTCODESIZE ISZERO DUP1 ISZERO PUSH2 0x2402 JUMPI PUSH1 0x0 DUP1 REVERT JUMPDEST POP GAS STATICCALL ISZERO DUP1 ISZERO PUSH2 0x2416 JUMPI RETURNDATASIZE PUSH1 0x0 DUP1 RETURNDATACOPY RETURNDATASIZE PUSH1 0x0 REVERT JUMPDEST POP POP POP POP PUSH1 0x40 MLOAD RETURNDATASIZE PUSH1 0x1F NOT PUSH1 0x1F DUP3 ADD AND DUP3 ADD DUP1 PUSH1 0x40 MSTORE POP DUP2 ADD SWAP1 PUSH2 0x243A SWAP2 SWAP1 PUSH2 0x3C02 JUMP JUMPDEST LT ISZERO PUSH2 0x2445 JUMPI PUSH1 0x0 DUP1 REVERT JUMPDEST PUSH2 0x244D PUSH2 0x2DA8 JUMP JUMPDEST PUSH2 0x2456 DUP14 PUSH2 0x24EE JUMP JUMPDEST PUSH2 0x245F DUP13 PUSH2 0x24EE JUMP JUMPDEST PUSH2 0x2468 DUP11 PUSH2 0x24EE JUMP JUMPDEST POP POP POP POP POP POP POP POP POP POP POP POP POP JUMP JUMPDEST PUSH1 0x1 PUSH1 0x1 PUSH1 0xA0 SHL SUB DUP1 DUP4 AND PUSH1 0x0 SWAP1 DUP2 MSTORE PUSH1 0x41 PUSH1 0x20 SWAP1 DUP2 MSTORE PUSH1 0x40 DUP1 DUP4 KECCAK256 SWAP4 DUP6 AND DUP4 MSTORE SWAP3 SWAP1 MSTORE KECCAK256 SLOAD PUSH1 0xFF AND PUSH2 0x1BD8 JUMPI PUSH2 0x24BA PUSH1 0x1 PUSH1 0x1 PUSH1 0xA0 SHL SUB DUP4 AND DUP3 PUSH1 0x0 NOT PUSH2 0x18EE JUMP JUMPDEST PUSH1 0x1 PUSH1 0x1 PUSH1 0xA0 SHL SUB DUP1 DUP4 AND PUSH1 0x0 SWAP1 DUP2 MSTORE PUSH1 0x41 PUSH1 0x20 SWAP1 DUP2 MSTORE PUSH1 0x40 DUP1 DUP4 KECCAK256 SWAP4 DUP6 AND DUP4 MSTORE SWAP3 SWAP1 MSTORE KECCAK256 DUP1 SLOAD PUSH1 0xFF NOT AND PUSH1 0x1 OR SWAP1 SSTORE POP POP JUMP JUMPDEST PUSH1 0x40 MLOAD PUSH4 0x70A08231 PUSH1 0xE0 SHL DUP2 MSTORE PUSH1 0x0 SWAP1 PUSH1 0x1 PUSH1 0x1 PUSH1 0xA0 SHL SUB DUP4 AND SWAP1 PUSH4 0x70A08231 SWAP1 PUSH2 0x251D SWAP1 ADDRESS SWAP1 PUSH1 0x4 ADD PUSH2 0x3CC9 JUMP JUMPDEST PUSH1 0x20 PUSH1 0x40 MLOAD DUP1 DUP4 SUB DUP2 DUP7 DUP1 EXTCODESIZE ISZERO DUP1 ISZERO PUSH2 0x2535 JUMPI PUSH1 0x0 DUP1 REVERT JUMPDEST POP GAS STATICCALL ISZERO DUP1 ISZERO PUSH2 0x2549 JUMPI RETURNDATASIZE PUSH1 0x0 DUP1 RETURNDATACOPY RETURNDATASIZE PUSH1 0x0 REVERT JUMPDEST POP POP POP POP PUSH1 0x40 MLOAD RETURNDATASIZE PUSH1 0x1F NOT PUSH1 0x1F DUP3 ADD AND DUP3 ADD DUP1 PUSH1 0x40 MSTORE POP DUP2 ADD SWAP1 PUSH2 0x256D SWAP2 SWAP1 PUSH2 0x3C02 JUMP JUMPDEST SWAP1 POP DUP1 ISZERO PUSH2 0x1BD8 JUMPI PUSH2 0x1BD8 PUSH32 0x0 PUSH1 0x1 PUSH1 0x1 PUSH1 0xA0 SHL SUB AND PUSH4 0x630DC7CB PUSH1 0x40 MLOAD DUP2 PUSH4 0xFFFFFFFF AND PUSH1 0xE0 SHL DUP2 MSTORE PUSH1 0x4 ADD PUSH1 0x20 PUSH1 0x40 MLOAD DUP1 DUP4 SUB DUP2 DUP7 DUP1 EXTCODESIZE ISZERO DUP1 ISZERO PUSH2 0x25D1 JUMPI PUSH1 0x0 DUP1 REVERT JUMPDEST POP GAS STATICCALL ISZERO DUP1 ISZERO PUSH2 0x25E5 JUMPI RETURNDATASIZE PUSH1 0x0 DUP1 RETURNDATACOPY RETURNDATASIZE PUSH1 0x0 REVERT JUMPDEST POP POP POP POP PUSH1 0x40 MLOAD RETURNDATASIZE PUSH1 0x1F NOT PUSH1 0x1F DUP3 ADD AND DUP3 ADD DUP1 PUSH1 0x40 MSTORE POP DUP2 ADD SWAP1 PUSH2 0x2609 SWAP2 SWAP1 PUSH2 0x374C JUMP JUMPDEST PUSH1 0x1 PUSH1 0x1 PUSH1 0xA0 SHL SUB DUP5 AND SWAP1 DUP4 PUSH2 0x320C JUMP JUMPDEST PUSH1 0x1 PUSH1 0x1 PUSH1 0xA0 SHL SUB DUP2 AND PUSH1 0x0 SWAP1 DUP2 MSTORE PUSH1 0x84 PUSH1 0x20 MSTORE PUSH1 0x40 SWAP1 KECCAK256 SLOAD PUSH1 0xFF AND PUSH2 0x2652 JUMPI PUSH1 0x40 MLOAD PUSH3 0x461BCD PUSH1 0xE5 SHL DUP2 MSTORE PUSH1 0x4 ADD PUSH2 0x186 SWAP1 PUSH2 0x40A8 JUMP JUMPDEST PUSH2 0x265A PUSH2 0x322B JUMP JUMPDEST PUSH2 0x2665 DUP5 DUP4 CALLDATALOAD PUSH2 0x32A2 JUMP JUMPDEST PUSH2 0x2673 DUP4 DUP4 PUSH1 0x20 ADD CALLDATALOAD PUSH2 0x32A2 JUMP JUMPDEST PUSH2 0x2681 DUP2 DUP4 PUSH1 0x40 ADD CALLDATALOAD PUSH2 0x32A2 JUMP JUMPDEST PUSH2 0x268F DUP5 DUP4 PUSH1 0x60 ADD CALLDATALOAD PUSH2 0x32F6 JUMP JUMPDEST PUSH2 0x269D DUP4 DUP4 PUSH1 0x80 ADD CALLDATALOAD PUSH2 0x32F6 JUMP JUMPDEST PUSH2 0x26AB DUP2 DUP4 PUSH1 0xA0 ADD CALLDATALOAD PUSH2 0x32F6 JUMP JUMPDEST PUSH1 0x0 DUP1 PUSH1 0x0 DUP7 PUSH1 0x1 PUSH1 0x1 PUSH1 0xA0 SHL SUB AND PUSH4 0x70A08231 ADDRESS PUSH1 0x40 MLOAD DUP3 PUSH4 0xFFFFFFFF AND PUSH1 0xE0 SHL DUP2 MSTORE PUSH1 0x4 ADD PUSH2 0x26DC SWAP2 SWAP1 PUSH2 0x3CC9 JUMP JUMPDEST PUSH1 0x20 PUSH1 0x40 MLOAD DUP1 DUP4 SUB DUP2 DUP7 DUP1 EXTCODESIZE ISZERO DUP1 ISZERO PUSH2 0x26F4 JUMPI PUSH1 0x0 DUP1 REVERT JUMPDEST POP GAS STATICCALL ISZERO DUP1 ISZERO PUSH2 0x2708 JUMPI RETURNDATASIZE PUSH1 0x0 DUP1 RETURNDATACOPY RETURNDATASIZE PUSH1 0x0 REVERT JUMPDEST POP POP POP POP PUSH1 0x40 MLOAD RETURNDATASIZE PUSH1 0x1F NOT PUSH1 0x1F DUP3 ADD AND DUP3 ADD DUP1 PUSH1 0x40 MSTORE POP DUP2 ADD SWAP1 PUSH2 0x272C SWAP2 SWAP1 PUSH2 0x3C02 JUMP JUMPDEST SWAP1 POP PUSH1 0x0 DUP7 PUSH1 0x1 PUSH1 0x1 PUSH1 0xA0 SHL SUB AND PUSH4 0x70A08231 ADDRESS PUSH1 0x40 MLOAD DUP3 PUSH4 0xFFFFFFFF AND PUSH1 0xE0 SHL DUP2 MSTORE PUSH1 0x4 ADD PUSH2 0x275C SWAP2 SWAP1 PUSH2 0x3CC9 JUMP JUMPDEST PUSH1 0x20 PUSH1 0x40 MLOAD DUP1 DUP4 SUB DUP2 DUP7 DUP1 EXTCODESIZE ISZERO DUP1 ISZERO PUSH2 0x2774 JUMPI PUSH1 0x0 DUP1 REVERT JUMPDEST POP GAS STATICCALL ISZERO DUP1 ISZERO PUSH2 0x2788 JUMPI RETURNDATASIZE PUSH1 0x0 DUP1 RETURNDATACOPY RETURNDATASIZE PUSH1 0x0 REVERT JUMPDEST POP POP POP POP PUSH1 0x40 MLOAD RETURNDATASIZE PUSH1 0x1F NOT PUSH1 0x1F DUP3 ADD AND DUP3 ADD DUP1 PUSH1 0x40 MSTORE POP DUP2 ADD SWAP1 PUSH2 0x27AC SWAP2 SWAP1 PUSH2 0x3C02 JUMP JUMPDEST SWAP1 POP PUSH1 0x0 DUP1 DUP10 PUSH1 0x1 PUSH1 0x1 PUSH1 0xA0 SHL SUB AND DUP8 PUSH1 0x1 PUSH1 0x1 PUSH1 0xA0 SHL SUB AND PUSH4 0xDFE1681 PUSH1 0x40 MLOAD DUP2 PUSH4 0xFFFFFFFF AND PUSH1 0xE0 SHL DUP2 MSTORE PUSH1 0x4 ADD PUSH1 0x20 PUSH1 0x40 MLOAD DUP1 DUP4 SUB DUP2 DUP7 DUP1 EXTCODESIZE ISZERO DUP1 ISZERO PUSH2 0x27F4 JUMPI PUSH1 0x0 DUP1 REVERT JUMPDEST POP GAS STATICCALL ISZERO DUP1 ISZERO PUSH2 0x2808 JUMPI RETURNDATASIZE PUSH1 0x0 DUP1 RETURNDATACOPY RETURNDATASIZE PUSH1 0x0 REVERT JUMPDEST POP POP POP POP PUSH1 0x40 MLOAD RETURNDATASIZE PUSH1 0x1F NOT PUSH1 0x1F DUP3 ADD AND DUP3 ADD DUP1 PUSH1 0x40 MSTORE POP DUP2 ADD SWAP1 PUSH2 0x282C SWAP2 SWAP1 PUSH2 0x374C JUMP JUMPDEST PUSH1 0x1 PUSH1 0x1 PUSH1 0xA0 SHL SUB AND EQ ISZERO PUSH2 0x28C2 JUMPI DUP7 PUSH1 0x1 PUSH1 0x1 PUSH1 0xA0 SHL SUB AND PUSH4 0x902F1AC PUSH1 0x40 MLOAD DUP2 PUSH4 0xFFFFFFFF AND PUSH1 0xE0 SHL DUP2 MSTORE PUSH1 0x4 ADD PUSH1 0x60 PUSH1 0x40 MLOAD DUP1 DUP4 SUB DUP2 DUP7 DUP1 EXTCODESIZE ISZERO DUP1 ISZERO PUSH2 0x2874 JUMPI PUSH1 0x0 DUP1 REVERT JUMPDEST POP GAS STATICCALL ISZERO DUP1 ISZERO PUSH2 0x2888 JUMPI RETURNDATASIZE PUSH1 0x0 DUP1 RETURNDATACOPY RETURNDATASIZE PUSH1 0x0 REVERT JUMPDEST POP POP POP POP PUSH1 0x40 MLOAD RETURNDATASIZE PUSH1 0x1F NOT PUSH1 0x1F DUP3 ADD AND DUP3 ADD DUP1 PUSH1 0x40 MSTORE POP DUP2 ADD SWAP1 PUSH2 0x28AC SWAP2 SWAP1 PUSH2 0x3BAE JUMP JUMPDEST POP PUSH1 0x1 PUSH1 0x1 PUSH1 0x70 SHL SUB SWAP2 DUP3 AND SWAP4 POP AND SWAP1 POP PUSH2 0x2945 JUMP JUMPDEST DUP7 PUSH1 0x1 PUSH1 0x1 PUSH1 0xA0 SHL SUB AND PUSH4 0x902F1AC PUSH1 0x40 MLOAD DUP2 PUSH4 0xFFFFFFFF AND PUSH1 0xE0 SHL DUP2 MSTORE PUSH1 0x4 ADD PUSH1 0x60 PUSH1 0x40 MLOAD DUP1 DUP4 SUB DUP2 DUP7 DUP1 EXTCODESIZE ISZERO DUP1 ISZERO PUSH2 0x28FB JUMPI PUSH1 0x0 DUP1 REVERT JUMPDEST POP GAS STATICCALL ISZERO DUP1 ISZERO PUSH2 0x290F JUMPI RETURNDATASIZE PUSH1 0x0 DUP1 RETURNDATACOPY RETURNDATASIZE PUSH1 0x0 REVERT JUMPDEST POP POP POP POP PUSH1 0x40 MLOAD RETURNDATASIZE PUSH1 0x1F NOT PUSH1 0x1F DUP3 ADD AND DUP3 ADD DUP1 PUSH1 0x40 MSTORE POP DUP2 ADD SWAP1 PUSH2 0x2933 SWAP2 SWAP1 PUSH2 0x3BAE JUMP JUMPDEST POP PUSH1 0x1 PUSH1 0x1 PUSH1 0x70 SHL SUB SWAP1 DUP2 AND SWAP4 POP AND SWAP1 POP JUMPDEST PUSH2 0x2951 DUP5 DUP5 DUP5 DUP5 PUSH2 0x334A JUMP JUMPDEST SWAP1 SWAP7 POP SWAP5 POP POP DUP5 ISZERO SWAP3 POP PUSH2 0x2A76 SWAP2 POP POP JUMPI PUSH1 0x40 DUP1 MLOAD PUSH1 0x2 DUP1 DUP3 MSTORE PUSH1 0x60 DUP1 DUP4 ADD DUP5 MSTORE SWAP3 PUSH1 0x20 DUP4 ADD SWAP1 DUP1 CALLDATASIZE DUP4 CALLDATACOPY ADD SWAP1 POP POP SWAP1 POP DUP2 PUSH2 0x298E JUMPI DUP7 DUP7 PUSH2 0x2991 JUMP JUMPDEST DUP6 DUP8 JUMPDEST DUP3 PUSH1 0x0 DUP2 MLOAD DUP2 LT PUSH2 0x299E JUMPI INVALID JUMPDEST PUSH1 0x20 MUL PUSH1 0x20 ADD ADD DUP4 PUSH1 0x1 DUP2 MLOAD DUP2 LT PUSH2 0x29B2 JUMPI INVALID JUMPDEST PUSH1 0x1 PUSH1 0x1 PUSH1 0xA0 SHL SUB SWAP4 DUP5 AND PUSH1 0x20 SWAP2 DUP3 MUL SWAP3 SWAP1 SWAP3 ADD ADD MSTORE SWAP2 DUP2 AND SWAP1 SWAP2 MSTORE PUSH1 0x40 MLOAD PUSH4 0x38ED1739 PUSH1 0xE0 SHL DUP2 MSTORE PUSH32 0x0 SWAP1 SWAP2 AND SWAP1 PUSH4 0x38ED1739 SWAP1 PUSH2 0x2A1D SWAP1 DUP7 SWAP1 PUSH1 0x0 SWAP1 DUP7 SWAP1 ADDRESS SWAP1 TIMESTAMP SWAP1 PUSH1 0x4 ADD PUSH2 0x42C0 JUMP JUMPDEST PUSH1 0x0 PUSH1 0x40 MLOAD DUP1 DUP4 SUB DUP2 PUSH1 0x0 DUP8 DUP1 EXTCODESIZE ISZERO DUP1 ISZERO PUSH2 0x2A37 JUMPI PUSH1 0x0 DUP1 REVERT JUMPDEST POP GAS CALL ISZERO DUP1 ISZERO PUSH2 0x2A4B JUMPI RETURNDATASIZE PUSH1 0x0 DUP1 RETURNDATACOPY RETURNDATASIZE PUSH1 0x0 REVERT JUMPDEST POP POP POP POP PUSH1 0x40 MLOAD RETURNDATASIZE PUSH1 0x0 DUP3 RETURNDATACOPY PUSH1 0x1F RETURNDATASIZE SWAP1 DUP2 ADD PUSH1 0x1F NOT AND DUP3 ADD PUSH1 0x40 MSTORE PUSH2 0x2A73 SWAP2 SWAP1 DUP2 ADD SWAP1 PUSH2 0x3AB9 JUMP JUMPDEST POP POP JUMPDEST PUSH1 0x40 MLOAD PUSH4 0x70A08231 PUSH1 0xE0 SHL DUP2 MSTORE PUSH1 0x0 SWAP1 PUSH1 0x1 PUSH1 0x1 PUSH1 0xA0 SHL SUB DUP9 AND SWAP1 PUSH4 0x70A08231 SWAP1 PUSH2 0x2AA5 SWAP1 ADDRESS SWAP1 PUSH1 0x4 ADD PUSH2 0x3CC9 JUMP JUMPDEST PUSH1 0x20 PUSH1 0x40 MLOAD DUP1 DUP4 SUB DUP2 DUP7 DUP1 EXTCODESIZE ISZERO DUP1 ISZERO PUSH2 0x2ABD JUMPI PUSH1 0x0 DUP1 REVERT JUMPDEST POP GAS STATICCALL ISZERO DUP1 ISZERO PUSH2 0x2AD1 JUMPI RETURNDATASIZE PUSH1 0x0 DUP1 RETURNDATACOPY RETURNDATASIZE PUSH1 0x0 REVERT JUMPDEST POP POP POP POP PUSH1 0x40 MLOAD RETURNDATASIZE PUSH1 0x1F NOT PUSH1 0x1F DUP3 ADD AND DUP3 ADD DUP1 PUSH1 0x40 MSTORE POP DUP2 ADD SWAP1 PUSH2 0x2AF5 SWAP2 SWAP1 PUSH2 0x3C02 JUMP JUMPDEST SWAP1 POP PUSH1 0x0 DUP7 PUSH1 0x1 PUSH1 0x1 PUSH1 0xA0 SHL SUB AND PUSH4 0x70A08231 ADDRESS PUSH1 0x40 MLOAD DUP3 PUSH4 0xFFFFFFFF AND PUSH1 0xE0 SHL DUP2 MSTORE PUSH1 0x4 ADD PUSH2 0x2B25 SWAP2 SWAP1 PUSH2 0x3CC9 JUMP JUMPDEST PUSH1 0x20 PUSH1 0x40 MLOAD DUP1 DUP4 SUB DUP2 DUP7 DUP1 EXTCODESIZE ISZERO DUP1 ISZERO PUSH2 0x2B3D JUMPI PUSH1 0x0 DUP1 REVERT JUMPDEST POP GAS STATICCALL ISZERO DUP1 ISZERO PUSH2 0x2B51 JUMPI RETURNDATASIZE PUSH1 0x0 DUP1 RETURNDATACOPY RETURNDATASIZE PUSH1 0x0 REVERT JUMPDEST POP POP POP POP PUSH1 0x40 MLOAD RETURNDATASIZE PUSH1 0x1F NOT PUSH1 0x1F DUP3 ADD AND DUP3 ADD DUP1 PUSH1 0x40 MSTORE POP DUP2 ADD SWAP1 PUSH2 0x2B75 SWAP2 SWAP1 PUSH2 0x3C02 JUMP JUMPDEST SWAP1 POP PUSH1 0x0 DUP3 GT DUP1 PUSH2 0x2B86 JUMPI POP PUSH1 0x0 DUP2 GT JUMPDEST ISZERO PUSH2 0xEA9 JUMPI DUP6 PUSH1 0xC0 ADD CALLDATALOAD DUP3 LT ISZERO PUSH2 0x2BAF JUMPI PUSH1 0x40 MLOAD PUSH3 0x461BCD PUSH1 0xE5 SHL DUP2 MSTORE PUSH1 0x4 ADD PUSH2 0x186 SWAP1 PUSH2 0x4157 JUMP JUMPDEST DUP6 PUSH1 0xE0 ADD CALLDATALOAD DUP2 LT ISZERO PUSH2 0x2BD3 JUMPI PUSH1 0x40 MLOAD PUSH3 0x461BCD PUSH1 0xE5 SHL DUP2 MSTORE PUSH1 0x4 ADD PUSH2 0x186 SWAP1 PUSH2 0x3E53 JUMP JUMPDEST PUSH1 0x40 MLOAD PUSH3 0xE8E337 PUSH1 0xE8 SHL DUP2 MSTORE PUSH1 0x1 PUSH1 0x1 PUSH1 0xA0 SHL SUB PUSH32 0x0 AND SWAP1 PUSH4 0xE8E33700 SWAP1 PUSH2 0x2C34 SWAP1 DUP12 SWAP1 DUP12 SWAP1 DUP8 SWAP1 DUP8 SWAP1 PUSH1 0xC0 DUP15 ADD CALLDATALOAD SWAP1 PUSH1 0xE0 DUP16 ADD CALLDATALOAD SWAP1 ADDRESS SWAP1 TIMESTAMP SWAP1 PUSH1 0x4 ADD PUSH2 0x3D37 JUMP JUMPDEST PUSH1 0x60 PUSH1 0x40 MLOAD DUP1 DUP4 SUB DUP2 PUSH1 0x0 DUP8 DUP1 EXTCODESIZE ISZERO DUP1 ISZERO PUSH2 0x2C4E JUMPI PUSH1 0x0 DUP1 REVERT JUMPDEST POP GAS CALL ISZERO DUP1 ISZERO PUSH2 0x2C62 JUMPI RETURNDATASIZE PUSH1 0x0 DUP1 RETURNDATACOPY RETURNDATASIZE PUSH1 0x0 REVERT JUMPDEST POP POP POP POP PUSH1 0x40 MLOAD RETURNDATASIZE PUSH1 0x1F NOT PUSH1 0x1F DUP3 ADD AND DUP3 ADD DUP1 PUSH1 0x40 MSTORE POP DUP2 ADD SWAP1 PUSH2 0x1591 SWAP2 SWAP1 PUSH2 0x3C3D JUMP JUMPDEST DUP1 ISZERO PUSH2 0x1BD8 JUMPI PUSH2 0x2CB6 DUP3 PUSH32 0x0 PUSH2 0x2477 JUMP JUMPDEST PUSH1 0x40 MLOAD PUSH4 0x40C10F19 PUSH1 0xE0 SHL DUP2 MSTORE PUSH1 0x1 PUSH1 0x1 PUSH1 0xA0 SHL SUB PUSH32 0x0 AND SWAP1 PUSH4 0x40C10F19 SWAP1 PUSH2 0x2D04 SWAP1 DUP6 SWAP1 DUP6 SWAP1 PUSH1 0x4 ADD PUSH2 0x3D9B JUMP JUMPDEST PUSH1 0x0 PUSH1 0x40 MLOAD DUP1 DUP4 SUB DUP2 PUSH1 0x0 DUP8 DUP1 EXTCODESIZE ISZERO DUP1 ISZERO PUSH2 0x2D1E JUMPI PUSH1 0x0 DUP1 REVERT JUMPDEST POP GAS CALL ISZERO DUP1 ISZERO PUSH2 0x2D32 JUMPI RETURNDATASIZE PUSH1 0x0 DUP1 RETURNDATACOPY RETURNDATASIZE PUSH1 0x0 REVERT JUMPDEST POP POP PUSH1 0x40 MLOAD PUSH4 0x314568D9 PUSH1 0xE0 SHL DUP2 MSTORE PUSH1 0x1 PUSH1 0x1 PUSH1 0xA0 SHL SUB PUSH32 0x0 DUP2 AND SWAP4 POP PUSH4 0x314568D9 SWAP3 POP PUSH2 0x1BA5 SWAP2 PUSH32 0x0 SWAP2 DUP8 AND SWAP1 DUP7 SWAP1 PUSH1 0x4 ADD PUSH2 0x3DB4 JUMP JUMPDEST PUSH1 0x40 MLOAD PUSH4 0x70A08231 PUSH1 0xE0 SHL DUP2 MSTORE PUSH1 0x0 SWAP1 PUSH1 0x1 PUSH1 0x1 PUSH1 0xA0 SHL SUB PUSH32 0x0 AND SWAP1 PUSH4 0x70A08231 SWAP1 PUSH2 0x2DF7 SWAP1 ADDRESS SWAP1 PUSH1 0x4 ADD PUSH2 0x3CC9 JUMP JUMPDEST PUSH1 0x20 PUSH1 0x40 MLOAD DUP1 DUP4 SUB DUP2 PUSH1 0x0 DUP8 DUP1 EXTCODESIZE ISZERO DUP1 ISZERO PUSH2 0x2E11 JUMPI PUSH1 0x0 DUP1 REVERT JUMPDEST POP GAS CALL ISZERO DUP1 ISZERO PUSH2 0x2E25 JUMPI RETURNDATASIZE PUSH1 0x0 DUP1 RETURNDATACOPY RETURNDATASIZE PUSH1 0x0 REVERT JUMPDEST POP POP POP POP PUSH1 0x40 MLOAD RETURNDATASIZE PUSH1 0x1F NOT PUSH1 0x1F DUP3 ADD AND DUP3 ADD DUP1 PUSH1 0x40 MSTORE POP DUP2 ADD SWAP1 PUSH2 0x2E49 SWAP2 SWAP1 PUSH2 0x3C02 JUMP JUMPDEST SWAP1 POP DUP1 ISZERO PUSH2 0x2FEE JUMPI PUSH1 0x40 MLOAD PUSH4 0x2E1A7D4D PUSH1 0xE0 SHL DUP2 MSTORE PUSH1 0x1 PUSH1 0x1 PUSH1 0xA0 SHL SUB PUSH32 0x0 AND SWAP1 PUSH4 0x2E1A7D4D SWAP1 PUSH2 0x2E9D SWAP1 DUP5 SWAP1 PUSH1 0x4 ADD PUSH2 0x42A0 JUMP JUMPDEST PUSH1 0x0 PUSH1 0x40 MLOAD DUP1 DUP4 SUB DUP2 PUSH1 0x0 DUP8 DUP1 EXTCODESIZE ISZERO DUP1 ISZERO PUSH2 0x2EB7 JUMPI PUSH1 0x0 DUP1 REVERT JUMPDEST POP GAS CALL ISZERO DUP1 ISZERO PUSH2 0x2ECB JUMPI RETURNDATASIZE PUSH1 0x0 DUP1 RETURNDATACOPY RETURNDATASIZE PUSH1 0x0 REVERT JUMPDEST POP POP POP POP PUSH1 0x0 PUSH32 0x0 PUSH1 0x1 PUSH1 0x1 PUSH1 0xA0 SHL SUB AND PUSH4 0x630DC7CB PUSH1 0x40 MLOAD DUP2 PUSH4 0xFFFFFFFF AND PUSH1 0xE0 SHL DUP2 MSTORE PUSH1 0x4 ADD PUSH1 0x20 PUSH1 0x40 MLOAD DUP1 DUP4 SUB DUP2 DUP7 DUP1 EXTCODESIZE ISZERO DUP1 ISZERO PUSH2 0x2F2A JUMPI PUSH1 0x0 DUP1 REVERT JUMPDEST POP GAS STATICCALL ISZERO DUP1 ISZERO PUSH2 0x2F3E JUMPI RETURNDATASIZE PUSH1 0x0 DUP1 RETURNDATACOPY RETURNDATASIZE PUSH1 0x0 REVERT JUMPDEST POP POP POP POP PUSH1 0x40 MLOAD RETURNDATASIZE PUSH1 0x1F NOT PUSH1 0x1F DUP3 ADD AND DUP3 ADD DUP1 PUSH1 0x40 MSTORE POP DUP2 ADD SWAP1 PUSH2 0x2F62 SWAP2 SWAP1 PUSH2 0x374C JUMP JUMPDEST PUSH1 0x40 DUP1 MLOAD PUSH1 0x0 DUP2 MSTORE PUSH1 0x20 DUP2 ADD SWAP2 DUP3 SWAP1 MSTORE PUSH1 0x1 PUSH1 0x1 PUSH1 0xA0 SHL SUB SWAP3 SWAP1 SWAP3 AND SWAP2 DUP5 SWAP2 PUSH2 0x2F8B SWAP2 SWAP1 PUSH2 0x3CAD JUMP JUMPDEST PUSH1 0x0 PUSH1 0x40 MLOAD DUP1 DUP4 SUB DUP2 DUP6 DUP8 GAS CALL SWAP3 POP POP POP RETURNDATASIZE DUP1 PUSH1 0x0 DUP2 EQ PUSH2 0x2FC8 JUMPI PUSH1 0x40 MLOAD SWAP2 POP PUSH1 0x1F NOT PUSH1 0x3F RETURNDATASIZE ADD AND DUP3 ADD PUSH1 0x40 MSTORE RETURNDATASIZE DUP3 MSTORE RETURNDATASIZE PUSH1 0x0 PUSH1 0x20 DUP5 ADD RETURNDATACOPY PUSH2 0x2FCD JUMP JUMPDEST PUSH1 0x60 SWAP2 POP JUMPDEST POP POP SWAP1 POP DUP1 PUSH2 0x1BD8 JUMPI PUSH1 0x40 MLOAD PUSH3 0x461BCD PUSH1 0xE5 SHL DUP2 MSTORE PUSH1 0x4 ADD PUSH2 0x186 SWAP1 PUSH2 0x3E28 JUMP JUMPDEST POP JUMP JUMPDEST PUSH1 0x60 PUSH2 0x3046 DUP3 PUSH1 0x40 MLOAD DUP1 PUSH1 0x40 ADD PUSH1 0x40 MSTORE DUP1 PUSH1 0x20 DUP2 MSTORE PUSH1 0x20 ADD PUSH32 0x5361666545524332303A206C6F772D6C6576656C2063616C6C206661696C6564 DUP2 MSTORE POP DUP6 PUSH1 0x1 PUSH1 0x1 PUSH1 0xA0 SHL SUB AND PUSH2 0x19F3 SWAP1 SWAP3 SWAP2 SWAP1 PUSH4 0xFFFFFFFF AND JUMP JUMPDEST DUP1 MLOAD SWAP1 SWAP2 POP ISZERO PUSH2 0x19E8 JUMPI DUP1 DUP1 PUSH1 0x20 ADD SWAP1 MLOAD DUP2 ADD SWAP1 PUSH2 0x3064 SWAP2 SWAP1 PUSH2 0x3B6A JUMP JUMPDEST PUSH2 0x19E8 JUMPI PUSH1 0x40 MLOAD PUSH3 0x461BCD PUSH1 0xE5 SHL DUP2 MSTORE PUSH1 0x4 ADD PUSH2 0x186 SWAP1 PUSH2 0x4200 JUMP JUMPDEST PUSH1 0x60 DUP3 SELFBALANCE LT ISZERO PUSH2 0x30A2 JUMPI PUSH1 0x40 MLOAD PUSH3 0x461BCD PUSH1 0xE5 SHL DUP2 MSTORE PUSH1 0x4 ADD PUSH2 0x186 SWAP1 PUSH2 0x3F97 JUMP JUMPDEST PUSH2 0x30AB DUP6 PUSH2 0x19ED JUMP JUMPDEST PUSH2 0x30C7 JUMPI PUSH1 0x40 MLOAD PUSH3 0x461BCD PUSH1 0xE5 SHL DUP2 MSTORE PUSH1 0x4 ADD PUSH2 0x186 SWAP1 PUSH2 0x419B JUMP JUMPDEST PUSH1 0x0 PUSH1 0x60 DUP7 PUSH1 0x1 PUSH1 0x1 PUSH1 0xA0 SHL SUB AND DUP6 DUP8 PUSH1 0x40 MLOAD PUSH2 0x30E4 SWAP2 SWAP1 PUSH2 0x3CAD JUMP JUMPDEST PUSH1 0x0 PUSH1 0x40 MLOAD DUP1 DUP4 SUB DUP2 DUP6 DUP8 GAS CALL SWAP3 POP POP POP RETURNDATASIZE DUP1 PUSH1 0x0 DUP2 EQ PUSH2 0x3121 JUMPI PUSH1 0x40 MLOAD SWAP2 POP PUSH1 0x1F NOT PUSH1 0x3F RETURNDATASIZE ADD AND DUP3 ADD PUSH1 0x40 MSTORE RETURNDATASIZE DUP3 MSTORE RETURNDATASIZE PUSH1 0x0 PUSH1 0x20 DUP5 ADD RETURNDATACOPY PUSH2 0x3126 JUMP JUMPDEST PUSH1 0x60 SWAP2 POP JUMPDEST POP SWAP2 POP SWAP2 POP PUSH2 0x3136 DUP3 DUP3 DUP7 PUSH2 0x3399 JUMP JUMPDEST SWAP8 SWAP7 POP POP POP POP POP POP POP JUMP JUMPDEST PUSH1 0x0 DUP3 DUP3 GT ISZERO PUSH2 0x3163 JUMPI PUSH1 0x40 MLOAD PUSH3 0x461BCD PUSH1 0xE5 SHL DUP2 MSTORE PUSH1 0x4 ADD PUSH2 0x186 SWAP1 PUSH2 0x3F60 JUMP JUMPDEST POP SWAP1 SUB SWAP1 JUMP JUMPDEST PUSH1 0x0 DUP3 DUP3 ADD DUP4 DUP2 LT ISZERO PUSH2 0x63E JUMPI PUSH1 0x40 MLOAD PUSH3 0x461BCD PUSH1 0xE5 SHL DUP2 MSTORE PUSH1 0x4 ADD PUSH2 0x186 SWAP1 PUSH2 0x3EF2 JUMP JUMPDEST DUP1 ISZERO PUSH2 0x1BD8 JUMPI PUSH2 0x31BE DUP3 PUSH32 0x0 PUSH2 0x2477 JUMP JUMPDEST PUSH1 0x40 MLOAD PUSH4 0x450CFAF PUSH1 0xE3 SHL DUP2 MSTORE PUSH1 0x1 PUSH1 0x1 PUSH1 0xA0 SHL SUB PUSH32 0x0 AND SWAP1 PUSH4 0x22867D78 SWAP1 PUSH2 0x1BA5 SWAP1 DUP6 SWAP1 DUP6 SWAP1 PUSH1 0x4 ADD PUSH2 0x3D9B JUMP JUMPDEST PUSH2 0x19E8 DUP4 PUSH4 0xA9059CBB PUSH1 0xE0 SHL DUP5 DUP5 PUSH1 0x40 MLOAD PUSH1 0x24 ADD PUSH2 0x19B1 SWAP3 SWAP2 SWAP1 PUSH2 0x3D9B JUMP JUMPDEST CALLVALUE ISZERO PUSH2 0x32A0 JUMPI PUSH32 0x0 PUSH1 0x1 PUSH1 0x1 PUSH1 0xA0 SHL SUB AND PUSH4 0xD0E30DB0 CALLVALUE PUSH1 0x40 MLOAD DUP3 PUSH4 0xFFFFFFFF AND PUSH1 0xE0 SHL DUP2 MSTORE PUSH1 0x4 ADD PUSH1 0x0 PUSH1 0x40 MLOAD DUP1 DUP4 SUB DUP2 DUP6 DUP9 DUP1 EXTCODESIZE ISZERO DUP1 ISZERO PUSH2 0x328C JUMPI PUSH1 0x0 DUP1 REVERT JUMPDEST POP GAS CALL ISZERO DUP1 ISZERO PUSH2 0x180B JUMPI RETURNDATASIZE PUSH1 0x0 DUP1 RETURNDATACOPY RETURNDATASIZE PUSH1 0x0 REVERT JUMPDEST JUMP JUMPDEST DUP1 ISZERO PUSH2 0x1BD8 JUMPI PUSH1 0x40 MLOAD PUSH4 0x246B5DE1 PUSH1 0xE1 SHL DUP2 MSTORE PUSH1 0x1 PUSH1 0x1 PUSH1 0xA0 SHL SUB PUSH32 0x0 AND SWAP1 PUSH4 0x48D6BBC2 SWAP1 PUSH2 0x1BA5 SWAP1 DUP6 SWAP1 DUP6 SWAP1 PUSH1 0x4 ADD PUSH2 0x3D9B JUMP JUMPDEST DUP1 ISZERO PUSH2 0x1BD8 JUMPI PUSH1 0x40 MLOAD PUSH4 0x4B8A3529 PUSH1 0xE0 SHL DUP2 MSTORE PUSH1 0x1 PUSH1 0x1 PUSH1 0xA0 SHL SUB PUSH32 0x0 AND SWAP1 PUSH4 0x4B8A3529 SWAP1 PUSH2 0x1BA5 SWAP1 DUP6 SWAP1 DUP6 SWAP1 PUSH1 0x4 ADD PUSH2 0x3D9B JUMP JUMPDEST PUSH1 0x0 DUP1 PUSH2 0x3357 DUP6 DUP6 PUSH2 0x33D2 JUMP JUMPDEST PUSH2 0x3361 DUP8 DUP6 PUSH2 0x33D2 JUMP JUMPDEST LT PUSH2 0x337D JUMPI PUSH2 0x3372 DUP7 DUP7 DUP7 DUP7 PUSH2 0x340C JUMP JUMPDEST SWAP2 POP PUSH1 0x0 SWAP1 POP PUSH2 0x3390 JUMP JUMPDEST PUSH2 0x3389 DUP6 DUP8 DUP6 DUP8 PUSH2 0x340C JUMP JUMPDEST SWAP2 POP PUSH1 0x1 SWAP1 POP JUMPDEST SWAP5 POP SWAP5 SWAP3 POP POP POP JUMP JUMPDEST PUSH1 0x60 DUP4 ISZERO PUSH2 0x33A8 JUMPI POP DUP2 PUSH2 0x1A05 JUMP JUMPDEST DUP3 MLOAD ISZERO PUSH2 0x33B8 JUMPI DUP3 MLOAD DUP1 DUP5 PUSH1 0x20 ADD REVERT JUMPDEST DUP2 PUSH1 0x40 MLOAD PUSH3 0x461BCD PUSH1 0xE5 SHL DUP2 MSTORE PUSH1 0x4 ADD PUSH2 0x186 SWAP2 SWAP1 PUSH2 0x3DF5 JUMP JUMPDEST PUSH1 0x0 DUP3 PUSH2 0x33E1 JUMPI POP PUSH1 0x0 PUSH2 0x641 JUMP JUMPDEST DUP3 DUP3 MUL DUP3 DUP5 DUP3 DUP2 PUSH2 0x33EE JUMPI INVALID JUMPDEST DIV EQ PUSH2 0x63E JUMPI PUSH1 0x40 MLOAD PUSH3 0x461BCD PUSH1 0xE5 SHL DUP2 MSTORE PUSH1 0x4 ADD PUSH2 0x186 SWAP1 PUSH2 0x4116 JUMP JUMPDEST PUSH1 0x0 PUSH2 0x3418 DUP5 DUP5 PUSH2 0x33D2 JUMP JUMPDEST PUSH2 0x3422 DUP7 DUP5 PUSH2 0x33D2 JUMP JUMPDEST LT ISZERO PUSH2 0x3440 JUMPI PUSH1 0x40 MLOAD PUSH3 0x461BCD PUSH1 0xE5 SHL DUP2 MSTORE PUSH1 0x4 ADD PUSH2 0x186 SWAP1 PUSH2 0x4179 JUMP JUMPDEST PUSH2 0x3E5 PUSH1 0x0 PUSH2 0x3451 PUSH2 0x7CD DUP7 PUSH2 0x33D2 JUMP JUMPDEST SWAP1 POP PUSH1 0x0 PUSH2 0x346C PUSH2 0x3462 DUP9 DUP9 PUSH2 0x33D2 JUMP JUMPDEST PUSH2 0x1F45 DUP11 DUP9 PUSH2 0x33D2 JUMP JUMPDEST SWAP1 POP PUSH1 0x0 PUSH2 0x3499 DUP8 PUSH2 0x3493 PUSH2 0x3481 DUP12 DUP11 PUSH2 0x3169 JUMP JUMPDEST PUSH2 0x348D DUP7 PUSH2 0x3E8 PUSH2 0x33D2 JUMP JUMPDEST SWAP1 PUSH2 0x3506 JUMP JUMPDEST SWAP1 PUSH2 0x33D2 JUMP JUMPDEST SWAP1 POP PUSH1 0x0 PUSH2 0x34AC PUSH1 0x4 PUSH2 0x3493 DUP8 DUP6 PUSH2 0x33D2 JUMP JUMPDEST SWAP1 POP PUSH1 0x0 PUSH2 0x34CC PUSH2 0x34C7 DUP4 PUSH2 0x34C1 DUP9 DUP1 PUSH2 0x33D2 JUMP JUMPDEST SWAP1 PUSH2 0x3169 JUMP JUMPDEST PUSH2 0x3538 JUMP JUMPDEST SWAP1 POP PUSH1 0x0 PUSH2 0x34DA DUP3 DUP8 PUSH2 0x3141 JUMP JUMPDEST SWAP1 POP PUSH1 0x0 PUSH2 0x34E9 DUP9 PUSH1 0x2 PUSH2 0x33D2 JUMP JUMPDEST SWAP1 POP PUSH2 0x34F5 DUP3 DUP3 PUSH2 0x3506 JUMP JUMPDEST SWAP14 SWAP13 POP POP POP POP POP POP POP POP POP POP POP POP POP JUMP JUMPDEST PUSH1 0x0 DUP1 DUP3 GT PUSH2 0x3527 JUMPI PUSH1 0x40 MLOAD PUSH3 0x461BCD PUSH1 0xE5 SHL DUP2 MSTORE PUSH1 0x4 ADD PUSH2 0x186 SWAP1 PUSH2 0x3FDD JUMP JUMPDEST DUP2 DUP4 DUP2 PUSH2 0x3530 JUMPI INVALID JUMPDEST DIV SWAP4 SWAP3 POP POP POP JUMP JUMPDEST PUSH1 0x0 DUP2 PUSH2 0x3547 JUMPI POP PUSH1 0x0 PUSH2 0x432 JUMP JUMPDEST DUP2 PUSH1 0x1 PUSH1 0x1 PUSH1 0x80 SHL DUP3 LT PUSH2 0x3560 JUMPI PUSH1 0x80 SWAP2 SWAP1 SWAP2 SHR SWAP1 PUSH1 0x40 SHL JUMPDEST PUSH9 0x10000000000000000 DUP3 LT PUSH2 0x357B JUMPI PUSH1 0x40 SWAP2 SWAP1 SWAP2 SHR SWAP1 PUSH1 0x20 SHL JUMPDEST PUSH5 0x100000000 DUP3 LT PUSH2 0x3592 JUMPI PUSH1 0x20 SWAP2 SWAP1 SWAP2 SHR SWAP1 PUSH1 0x10 SHL JUMPDEST PUSH3 0x10000 DUP3 LT PUSH2 0x35A7 JUMPI PUSH1 0x10 SWAP2 SWAP1 SWAP2 SHR SWAP1 PUSH1 0x8 SHL JUMPDEST PUSH2 0x100 DUP3 LT PUSH2 0x35BB JUMPI PUSH1 0x8 SWAP2 SWAP1 SWAP2 SHR SWAP1 PUSH1 0x4 SHL JUMPDEST PUSH1 0x10 DUP3 LT PUSH2 0x35CE JUMPI PUSH1 0x4 SWAP2 SWAP1 SWAP2 SHR SWAP1 PUSH1 0x2 SHL JUMPDEST PUSH1 0x8 DUP3 LT PUSH2 0x35DA JUMPI PUSH1 0x1 SHL JUMPDEST PUSH1 0x1 DUP2 DUP6 DUP2 PUSH2 0x35E5 JUMPI INVALID JUMPDEST DIV DUP3 ADD SWAP1 SHR SWAP1 POP PUSH1 0x1 DUP2 DUP6 DUP2 PUSH2 0x35F7 JUMPI INVALID JUMPDEST DIV DUP3 ADD SWAP1 SHR SWAP1 POP PUSH1 0x1 DUP2 DUP6 DUP2 PUSH2 0x3609 JUMPI INVALID JUMPDEST DIV DUP3 ADD SWAP1 SHR SWAP1 POP PUSH1 0x1 DUP2 DUP6 DUP2 PUSH2 0x361B JUMPI INVALID JUMPDEST DIV DUP3 ADD SWAP1 SHR SWAP1 POP PUSH1 0x1 DUP2 DUP6 DUP2 PUSH2 0x362D JUMPI INVALID JUMPDEST DIV DUP3 ADD SWAP1 SHR SWAP1 POP PUSH1 0x1 DUP2 DUP6 DUP2 PUSH2 0x363F JUMPI INVALID JUMPDEST DIV DUP3 ADD SWAP1 SHR SWAP1 POP PUSH1 0x1 DUP2 DUP6 DUP2 PUSH2 0x3651 JUMPI INVALID JUMPDEST DIV DUP3 ADD SWAP1 SHR SWAP1 POP PUSH1 0x0 DUP2 DUP6 DUP2 PUSH2 0x3663 JUMPI INVALID JUMPDEST DIV SWAP1 POP DUP1 DUP3 LT PUSH2 0x3673 JUMPI DUP1 PUSH2 0x3675 JUMP JUMPDEST DUP2 JUMPDEST SWAP6 SWAP5 POP POP POP POP POP JUMP JUMPDEST PUSH1 0x0 DUP1 DUP4 PUSH1 0x1F DUP5 ADD SLT PUSH2 0x368F JUMPI DUP2 DUP3 REVERT JUMPDEST POP DUP2 CALLDATALOAD PUSH8 0xFFFFFFFFFFFFFFFF DUP2 GT ISZERO PUSH2 0x36A6 JUMPI DUP2 DUP3 REVERT JUMPDEST PUSH1 0x20 DUP4 ADD SWAP2 POP DUP4 PUSH1 0x20 DUP1 DUP4 MUL DUP6 ADD ADD GT ISZERO PUSH2 0x36C0 JUMPI PUSH1 0x0 DUP1 REVERT JUMPDEST SWAP3 POP SWAP3 SWAP1 POP JUMP JUMPDEST PUSH1 0x0 DUP1 DUP4 PUSH1 0x1F DUP5 ADD SLT PUSH2 0x36D8 JUMPI DUP2 DUP3 REVERT JUMPDEST POP DUP2 CALLDATALOAD PUSH8 0xFFFFFFFFFFFFFFFF DUP2 GT ISZERO PUSH2 0x36EF JUMPI DUP2 DUP3 REVERT JUMPDEST PUSH1 0x20 DUP4 ADD SWAP2 POP DUP4 PUSH1 0x20 DUP3 DUP6 ADD ADD GT ISZERO PUSH2 0x36C0 JUMPI PUSH1 0x0 DUP1 REVERT JUMPDEST PUSH1 0x0 PUSH2 0x100 DUP3 DUP5 SUB SLT ISZERO PUSH2 0x3719 JUMPI DUP1 DUP2 REVERT JUMPDEST POP SWAP2 SWAP1 POP JUMP JUMPDEST PUSH1 0x0 PUSH1 0xE0 DUP3 DUP5 SUB SLT ISZERO PUSH2 0x3719 JUMPI DUP1 DUP2 REVERT JUMPDEST PUSH1 0x0 PUSH1 0x20 DUP3 DUP5 SUB SLT ISZERO PUSH2 0x3741 JUMPI DUP1 DUP2 REVERT JUMPDEST DUP2 CALLDATALOAD PUSH2 0x63E DUP2 PUSH2 0x437D JUMP JUMPDEST PUSH1 0x0 PUSH1 0x20 DUP3 DUP5 SUB SLT ISZERO PUSH2 0x375D JUMPI DUP1 DUP2 REVERT JUMPDEST DUP2 MLOAD PUSH2 0x63E DUP2 PUSH2 0x437D JUMP JUMPDEST PUSH1 0x0 DUP1 PUSH1 0x40 DUP4 DUP6 SUB SLT ISZERO PUSH2 0x377A JUMPI DUP1 DUP2 REVERT JUMPDEST DUP3 CALLDATALOAD PUSH2 0x3785 DUP2 PUSH2 0x437D JUMP JUMPDEST SWAP2 POP PUSH1 0x20 DUP4 ADD CALLDATALOAD PUSH2 0x3795 DUP2 PUSH2 0x437D JUMP JUMPDEST DUP1 SWAP2 POP POP SWAP3 POP SWAP3 SWAP1 POP JUMP JUMPDEST PUSH1 0x0 DUP1 PUSH1 0x0 DUP1 PUSH1 0x0 DUP1 PUSH1 0x0 DUP1 PUSH1 0xA0 DUP10 DUP12 SUB SLT ISZERO PUSH2 0x37BB JUMPI DUP4 DUP5 REVERT JUMPDEST DUP9 CALLDATALOAD PUSH2 0x37C6 DUP2 PUSH2 0x437D JUMP JUMPDEST SWAP8 POP PUSH1 0x20 DUP10 ADD CALLDATALOAD PUSH2 0x37D6 DUP2 PUSH2 0x437D JUMP JUMPDEST SWAP7 POP PUSH1 0x40 DUP10 ADD CALLDATALOAD PUSH8 0xFFFFFFFFFFFFFFFF DUP1 DUP3 GT ISZERO PUSH2 0x37F2 JUMPI DUP6 DUP7 REVERT JUMPDEST PUSH2 0x37FE DUP13 DUP4 DUP14 ADD PUSH2 0x367E JUMP JUMPDEST SWAP1 SWAP9 POP SWAP7 POP PUSH1 0x60 DUP12 ADD CALLDATALOAD SWAP2 POP DUP1 DUP3 GT ISZERO PUSH2 0x3816 JUMPI DUP6 DUP7 REVERT JUMPDEST PUSH2 0x3822 DUP13 DUP4 DUP14 ADD PUSH2 0x367E JUMP JUMPDEST SWAP1 SWAP7 POP SWAP5 POP PUSH1 0x80 DUP12 ADD CALLDATALOAD SWAP2 POP DUP1 DUP3 GT ISZERO PUSH2 0x383A JUMPI DUP4 DUP5 REVERT JUMPDEST POP PUSH2 0x3847 DUP12 DUP3 DUP13 ADD PUSH2 0x36C7 JUMP JUMPDEST SWAP10 SWAP13 SWAP9 SWAP12 POP SWAP7 SWAP10 POP SWAP5 SWAP8 SWAP4 SWAP7 SWAP3 SWAP6 SWAP5 POP POP POP JUMP JUMPDEST PUSH1 0x0 DUP1 PUSH1 0x0 PUSH2 0x140 DUP5 DUP7 SUB SLT ISZERO PUSH2 0x3870 JUMPI DUP3 DUP4 REVERT JUMPDEST DUP4 CALLDATALOAD PUSH2 0x387B DUP2 PUSH2 0x437D JUMP JUMPDEST SWAP3 POP PUSH1 0x20 DUP5 ADD CALLDATALOAD PUSH2 0x388B DUP2 PUSH2 0x437D JUMP JUMPDEST SWAP2 POP PUSH2 0x389A DUP6 PUSH1 0x40 DUP7 ADD PUSH2 0x3707 JUMP JUMPDEST SWAP1 POP SWAP3 POP SWAP3 POP SWAP3 JUMP JUMPDEST PUSH1 0x0 DUP1 PUSH1 0x0 DUP1 PUSH2 0x160 DUP6 DUP8 SUB SLT ISZERO PUSH2 0x38B9 JUMPI DUP4 DUP5 REVERT JUMPDEST DUP5 CALLDATALOAD PUSH2 0x38C4 DUP2 PUSH2 0x437D JUMP JUMPDEST SWAP4 POP PUSH1 0x20 DUP6 ADD CALLDATALOAD PUSH2 0x38D4 DUP2 PUSH2 0x437D JUMP JUMPDEST SWAP3 POP PUSH2 0x38E3 DUP7 PUSH1 0x40 DUP8 ADD PUSH2 0x3707 JUMP JUMPDEST SWAP2 POP PUSH2 0x140 DUP6 ADD CALLDATALOAD PUSH2 0x38F4 DUP2 PUSH2 0x437D JUMP JUMPDEST SWAP4 SWAP7 SWAP3 SWAP6 POP SWAP1 SWAP4 POP POP JUMP JUMPDEST PUSH1 0x0 DUP1 PUSH1 0x0 PUSH2 0x120 DUP5 DUP7 SUB SLT ISZERO PUSH2 0x3914 JUMPI DUP3 DUP4 REVERT JUMPDEST DUP4 CALLDATALOAD PUSH2 0x391F DUP2 PUSH2 0x437D JUMP JUMPDEST SWAP3 POP PUSH1 0x20 DUP5 ADD CALLDATALOAD PUSH2 0x392F DUP2 PUSH2 0x437D JUMP JUMPDEST SWAP2 POP PUSH2 0x389A DUP6 PUSH1 0x40 DUP7 ADD PUSH2 0x371F JUMP JUMPDEST PUSH1 0x0 DUP1 PUSH1 0x0 DUP1 PUSH2 0x140 DUP6 DUP8 SUB SLT ISZERO PUSH2 0x3954 JUMPI DUP4 DUP5 REVERT JUMPDEST DUP5 CALLDATALOAD PUSH2 0x395F DUP2 PUSH2 0x437D JUMP JUMPDEST SWAP4 POP PUSH1 0x20 DUP6 ADD CALLDATALOAD PUSH2 0x396F DUP2 PUSH2 0x437D JUMP JUMPDEST SWAP3 POP PUSH2 0x397E DUP7 PUSH1 0x40 DUP8 ADD PUSH2 0x371F JUMP JUMPDEST SWAP2 POP PUSH2 0x120 DUP6 ADD CALLDATALOAD PUSH2 0x38F4 DUP2 PUSH2 0x437D JUMP JUMPDEST PUSH1 0x0 DUP1 PUSH1 0x0 DUP1 PUSH1 0x80 DUP6 DUP8 SUB SLT ISZERO PUSH2 0x39A4 JUMPI DUP2 DUP3 REVERT JUMPDEST DUP5 MLOAD PUSH2 0x39AF DUP2 PUSH2 0x437D JUMP JUMPDEST PUSH1 0x20 DUP7 ADD MLOAD SWAP1 SWAP5 POP PUSH2 0x39C0 DUP2 PUSH2 0x437D JUMP JUMPDEST PUSH1 0x40 DUP7 ADD MLOAD PUSH1 0x60 SWAP1 SWAP7 ADD MLOAD SWAP5 SWAP8 SWAP1 SWAP7 POP SWAP3 POP POP POP JUMP JUMPDEST PUSH1 0x0 DUP1 PUSH1 0x0 DUP1 PUSH1 0x0 DUP1 PUSH1 0xA0 DUP8 DUP10 SUB SLT ISZERO PUSH2 0x39EE JUMPI DUP4 DUP5 REVERT JUMPDEST DUP7 CALLDATALOAD PUSH2 0x39F9 DUP2 PUSH2 0x437D JUMP JUMPDEST SWAP6 POP PUSH1 0x20 DUP8 ADD CALLDATALOAD PUSH2 0x3A09 DUP2 PUSH2 0x437D JUMP JUMPDEST SWAP5 POP PUSH1 0x40 DUP8 ADD CALLDATALOAD SWAP4 POP PUSH1 0x60 DUP8 ADD CALLDATALOAD SWAP3 POP PUSH1 0x80 DUP8 ADD CALLDATALOAD PUSH8 0xFFFFFFFFFFFFFFFF DUP2 GT ISZERO PUSH2 0x3A32 JUMPI DUP3 DUP4 REVERT JUMPDEST PUSH2 0x3A3E DUP10 DUP3 DUP11 ADD PUSH2 0x36C7 JUMP JUMPDEST SWAP8 SWAP11 SWAP7 SWAP10 POP SWAP5 SWAP8 POP SWAP3 SWAP6 SWAP4 SWAP5 SWAP3 POP POP POP JUMP JUMPDEST PUSH1 0x0 DUP1 PUSH1 0x0 DUP1 PUSH1 0x40 DUP6 DUP8 SUB SLT ISZERO PUSH2 0x3A65 JUMPI DUP2 DUP3 REVERT JUMPDEST DUP5 CALLDATALOAD PUSH8 0xFFFFFFFFFFFFFFFF DUP1 DUP3 GT ISZERO PUSH2 0x3A7C JUMPI DUP4 DUP5 REVERT JUMPDEST PUSH2 0x3A88 DUP9 DUP4 DUP10 ADD PUSH2 0x367E JUMP JUMPDEST SWAP1 SWAP7 POP SWAP5 POP PUSH1 0x20 DUP8 ADD CALLDATALOAD SWAP2 POP DUP1 DUP3 GT ISZERO PUSH2 0x3AA0 JUMPI DUP4 DUP5 REVERT JUMPDEST POP PUSH2 0x3AAD DUP8 DUP3 DUP9 ADD PUSH2 0x367E JUMP JUMPDEST SWAP6 SWAP9 SWAP5 SWAP8 POP SWAP6 POP POP POP POP JUMP JUMPDEST PUSH1 0x0 PUSH1 0x20 DUP1 DUP4 DUP6 SUB SLT ISZERO PUSH2 0x3ACB JUMPI DUP2 DUP3 REVERT JUMPDEST DUP3 MLOAD PUSH8 0xFFFFFFFFFFFFFFFF DUP2 GT ISZERO PUSH2 0x3AE1 JUMPI DUP3 DUP4 REVERT JUMPDEST DUP4 ADD PUSH1 0x1F DUP2 ADD DUP6 SGT PUSH2 0x3AF1 JUMPI DUP3 DUP4 REVERT JUMPDEST DUP1 MLOAD PUSH2 0x3B04 PUSH2 0x3AFF DUP3 PUSH2 0x4331 JUMP JUMPDEST PUSH2 0x430A JUMP JUMPDEST DUP2 DUP2 MSTORE DUP4 DUP2 ADD SWAP1 DUP4 DUP6 ADD DUP6 DUP5 MUL DUP6 ADD DUP7 ADD DUP10 LT ISZERO PUSH2 0x3B20 JUMPI DUP7 DUP8 REVERT JUMPDEST DUP7 SWAP5 POP JUMPDEST DUP4 DUP6 LT ISZERO PUSH2 0x3B42 JUMPI DUP1 MLOAD DUP4 MSTORE PUSH1 0x1 SWAP5 SWAP1 SWAP5 ADD SWAP4 SWAP2 DUP6 ADD SWAP2 DUP6 ADD PUSH2 0x3B24 JUMP JUMPDEST POP SWAP8 SWAP7 POP POP POP POP POP POP POP JUMP JUMPDEST PUSH1 0x0 PUSH1 0x20 DUP3 DUP5 SUB SLT ISZERO PUSH2 0x3B5F JUMPI DUP1 DUP2 REVERT JUMPDEST DUP2 CALLDATALOAD PUSH2 0x63E DUP2 PUSH2 0x4392 JUMP JUMPDEST PUSH1 0x0 PUSH1 0x20 DUP3 DUP5 SUB SLT ISZERO PUSH2 0x3B7B JUMPI DUP1 DUP2 REVERT JUMPDEST DUP2 MLOAD PUSH2 0x63E DUP2 PUSH2 0x4392 JUMP JUMPDEST PUSH1 0x0 PUSH1 0x20 DUP3 DUP5 SUB SLT ISZERO PUSH2 0x3B97 JUMPI DUP1 DUP2 REVERT JUMPDEST DUP2 CALLDATALOAD PUSH1 0x1 PUSH1 0x1 PUSH1 0xE0 SHL SUB NOT DUP2 AND DUP2 EQ PUSH2 0x63E JUMPI DUP2 DUP3 REVERT JUMPDEST PUSH1 0x0 DUP1 PUSH1 0x0 PUSH1 0x60 DUP5 DUP7 SUB SLT ISZERO PUSH2 0x3BC2 JUMPI DUP1 DUP2 REVERT JUMPDEST DUP4 MLOAD PUSH2 0x3BCD DUP2 PUSH2 0x43A0 JUMP JUMPDEST PUSH1 0x20 DUP6 ADD MLOAD SWAP1 SWAP4 POP PUSH2 0x3BDE DUP2 PUSH2 0x43A0 JUMP JUMPDEST PUSH1 0x40 DUP6 ADD MLOAD SWAP1 SWAP3 POP PUSH4 0xFFFFFFFF DUP2 AND DUP2 EQ PUSH2 0x3BF7 JUMPI DUP2 DUP3 REVERT JUMPDEST DUP1 SWAP2 POP POP SWAP3 POP SWAP3 POP SWAP3 JUMP JUMPDEST PUSH1 0x0 PUSH1 0x20 DUP3 DUP5 SUB SLT ISZERO PUSH2 0x3C13 JUMPI DUP1 DUP2 REVERT JUMPDEST POP MLOAD SWAP2 SWAP1 POP JUMP JUMPDEST PUSH1 0x0 DUP1 PUSH1 0x40 DUP4 DUP6 SUB SLT ISZERO PUSH2 0x3C2C JUMPI DUP2 DUP3 REVERT JUMPDEST POP POP DUP1 MLOAD PUSH1 0x20 SWAP1 SWAP2 ADD MLOAD SWAP1 SWAP3 SWAP1 SWAP2 POP JUMP JUMPDEST PUSH1 0x0 DUP1 PUSH1 0x0 PUSH1 0x60 DUP5 DUP7 SUB SLT ISZERO PUSH2 0x3C51 JUMPI DUP1 DUP2 REVERT JUMPDEST DUP4 MLOAD SWAP3 POP PUSH1 0x20 DUP5 ADD MLOAD SWAP2 POP PUSH1 0x40 DUP5 ADD MLOAD SWAP1 POP SWAP3 POP SWAP3 POP SWAP3 JUMP JUMPDEST PUSH1 0x0 DUP2 MLOAD DUP1 DUP5 MSTORE PUSH1 0x20 DUP1 DUP6 ADD SWAP5 POP DUP1 DUP5 ADD DUP4 JUMPDEST DUP4 DUP2 LT ISZERO PUSH2 0x3CA2 JUMPI DUP2 MLOAD PUSH1 0x1 PUSH1 0x1 PUSH1 0xA0 SHL SUB AND DUP8 MSTORE SWAP6 DUP3 ADD SWAP6 SWAP1 DUP3 ADD SWAP1 PUSH1 0x1 ADD PUSH2 0x3C7D JUMP JUMPDEST POP SWAP5 SWAP6 SWAP5 POP POP POP POP POP JUMP JUMPDEST PUSH1 0x0 DUP3 MLOAD PUSH2 0x3CBF DUP2 DUP5 PUSH1 0x20 DUP8 ADD PUSH2 0x4351 JUMP JUMPDEST SWAP2 SWAP1 SWAP2 ADD SWAP3 SWAP2 POP POP JUMP JUMPDEST PUSH1 0x1 PUSH1 0x1 PUSH1 0xA0 SHL SUB SWAP2 SWAP1 SWAP2 AND DUP2 MSTORE PUSH1 0x20 ADD SWAP1 JUMP JUMPDEST PUSH1 0x1 PUSH1 0x1 PUSH1 0xA0 SHL SUB SWAP3 DUP4 AND DUP2 MSTORE SWAP2 AND PUSH1 0x20 DUP3 ADD MSTORE PUSH1 0x40 ADD SWAP1 JUMP JUMPDEST PUSH1 0x1 PUSH1 0x1 PUSH1 0xA0 SHL SUB SWAP8 DUP9 AND DUP2 MSTORE SWAP6 DUP8 AND PUSH1 0x20 DUP8 ADD MSTORE PUSH1 0x40 DUP7 ADD SWAP5 SWAP1 SWAP5 MSTORE PUSH1 0x60 DUP6 ADD SWAP3 SWAP1 SWAP3 MSTORE PUSH1 0x80 DUP5 ADD MSTORE SWAP1 SWAP3 AND PUSH1 0xA0 DUP3 ADD MSTORE PUSH1 0xC0 DUP2 ADD SWAP2 SWAP1 SWAP2 MSTORE PUSH1 0xE0 ADD SWAP1 JUMP JUMPDEST PUSH1 0x1 PUSH1 0x1 PUSH1 0xA0 SHL SUB SWAP9 DUP10 AND DUP2 MSTORE SWAP7 DUP9 AND PUSH1 0x20 DUP9 ADD MSTORE PUSH1 0x40 DUP8 ADD SWAP6 SWAP1 SWAP6 MSTORE PUSH1 0x60 DUP7 ADD SWAP4 SWAP1 SWAP4 MSTORE PUSH1 0x80 DUP6 ADD SWAP2 SWAP1 SWAP2 MSTORE PUSH1 0xA0 DUP5 ADD MSTORE SWAP1 SWAP3 AND PUSH1 0xC0 DUP3 ADD MSTORE PUSH1 0xE0 DUP2 ADD SWAP2 SWAP1 SWAP2 MSTORE PUSH2 0x100 ADD SWAP1 JUMP JUMPDEST PUSH1 0x1 PUSH1 0x1 PUSH1 0xA0 SHL SUB SWAP3 SWAP1 SWAP3 AND DUP3 MSTORE ISZERO ISZERO PUSH1 0x20 DUP3 ADD MSTORE PUSH1 0x40 ADD SWAP1 JUMP JUMPDEST PUSH1 0x1 PUSH1 0x1 PUSH1 0xA0 SHL SUB SWAP3 SWAP1 SWAP3 AND DUP3 MSTORE PUSH1 0x20 DUP3 ADD MSTORE PUSH1 0x40 ADD SWAP1 JUMP JUMPDEST PUSH1 0x1 PUSH1 0x1 PUSH1 0xA0 SHL SUB SWAP4 SWAP1 SWAP4 AND DUP4 MSTORE PUSH1 0x20 DUP4 ADD SWAP2 SWAP1 SWAP2 MSTORE PUSH1 0x40 DUP3 ADD MSTORE PUSH1 0x60 ADD SWAP1 JUMP JUMPDEST SWAP1 ISZERO ISZERO DUP2 MSTORE PUSH1 0x20 ADD SWAP1 JUMP JUMPDEST PUSH1 0x1 PUSH1 0x1 PUSH1 0xE0 SHL SUB NOT SWAP2 SWAP1 SWAP2 AND DUP2 MSTORE PUSH1 0x20 ADD SWAP1 JUMP JUMPDEST PUSH1 0x0 PUSH1 0x20 DUP3 MSTORE DUP3 MLOAD DUP1 PUSH1 0x20 DUP5 ADD MSTORE PUSH2 0x3E14 DUP2 PUSH1 0x40 DUP6 ADD PUSH1 0x20 DUP8 ADD PUSH2 0x4351 JUMP JUMPDEST PUSH1 0x1F ADD PUSH1 0x1F NOT AND SWAP2 SWAP1 SWAP2 ADD PUSH1 0x40 ADD SWAP3 SWAP2 POP POP JUMP JUMPDEST PUSH1 0x20 DUP1 DUP3 MSTORE PUSH1 0x11 SWAP1 DUP3 ADD MSTORE PUSH17 0x1C99599D5B99081155120819985A5B1959 PUSH1 0x7A SHL PUSH1 0x40 DUP3 ADD MSTORE PUSH1 0x60 ADD SWAP1 JUMP JUMPDEST PUSH1 0x20 DUP1 DUP3 MSTORE PUSH1 0x8 SWAP1 DUP3 ADD MSTORE PUSH8 0x10B0B6BA2126B4B7 PUSH1 0xC1 SHL PUSH1 0x40 DUP3 ADD MSTORE PUSH1 0x60 ADD SWAP1 JUMP JUMPDEST PUSH1 0x20 DUP1 DUP3 MSTORE PUSH1 0x26 SWAP1 DUP3 ADD MSTORE PUSH32 0x636F6C6C61746572616C20746F6B656E202620777374616B696E67206D69736D PUSH1 0x40 DUP3 ADD MSTORE PUSH6 0x185D18DA1959 PUSH1 0xD2 SHL PUSH1 0x60 DUP3 ADD MSTORE PUSH1 0x80 ADD SWAP1 JUMP JUMPDEST PUSH1 0x20 DUP1 DUP3 MSTORE PUSH1 0x18 SWAP1 DUP3 ADD MSTORE PUSH32 0x6E6F74207468652070656E64696E6720676F7665726E6F720000000000000000 PUSH1 0x40 DUP3 ADD MSTORE PUSH1 0x60 ADD SWAP1 JUMP JUMPDEST PUSH1 0x20 DUP1 DUP3 MSTORE PUSH1 0x1B SWAP1 DUP3 ADD MSTORE PUSH32 0x536166654D6174683A206164646974696F6E206F766572666C6F770000000000 PUSH1 0x40 DUP3 ADD MSTORE PUSH1 0x60 ADD SWAP1 JUMP JUMPDEST PUSH1 0x20 DUP1 DUP3 MSTORE PUSH1 0x1B SWAP1 DUP3 ADD MSTORE PUSH32 0x6F7261636C65206E6F7420737570706F7274206C7020746F6B656E0000000000 PUSH1 0x40 DUP3 ADD MSTORE PUSH1 0x60 ADD SWAP1 JUMP JUMPDEST PUSH1 0x20 DUP1 DUP3 MSTORE PUSH1 0x1E SWAP1 DUP3 ADD MSTORE PUSH32 0x536166654D6174683A207375627472616374696F6E206F766572666C6F770000 PUSH1 0x40 DUP3 ADD MSTORE PUSH1 0x60 ADD SWAP1 JUMP JUMPDEST PUSH1 0x20 DUP1 DUP3 MSTORE PUSH1 0x26 SWAP1 DUP3 ADD MSTORE PUSH32 0x416464726573733A20696E73756666696369656E742062616C616E636520666F PUSH1 0x40 DUP3 ADD MSTORE PUSH6 0x1C8818D85B1B PUSH1 0xD2 SHL PUSH1 0x60 DUP3 ADD MSTORE PUSH1 0x80 ADD SWAP1 JUMP JUMPDEST PUSH1 0x20 DUP1 DUP3 MSTORE PUSH1 0x1A SWAP1 DUP3 ADD MSTORE PUSH32 0x536166654D6174683A206469766973696F6E206279207A65726F000000000000 PUSH1 0x40 DUP3 ADD MSTORE PUSH1 0x60 ADD SWAP1 JUMP JUMPDEST PUSH1 0x20 DUP1 DUP3 MSTORE PUSH1 0x10 SWAP1 DUP3 ADD MSTORE PUSH16 0x3737BA103A34329033B7BB32B93737B9 PUSH1 0x81 SHL PUSH1 0x40 DUP3 ADD MSTORE PUSH1 0x60 ADD SWAP1 JUMP JUMPDEST PUSH1 0x20 DUP1 DUP3 MSTORE PUSH1 0x25 SWAP1 DUP3 ADD MSTORE PUSH32 0x6C70546F6B656E732026207374617475736573206C656E677468206D69736D61 PUSH1 0x40 DUP3 ADD MSTORE PUSH5 0x1D18DA1959 PUSH1 0xDA SHL PUSH1 0x60 DUP3 ADD MSTORE PUSH1 0x80 ADD SWAP1 JUMP JUMPDEST PUSH1 0x20 DUP1 DUP3 MSTORE PUSH1 0xB SWAP1 DUP3 ADD MSTORE PUSH11 0x3737903638103A37B5B2B7 PUSH1 0xA9 SHL PUSH1 0x40 DUP3 ADD MSTORE PUSH1 0x60 ADD SWAP1 JUMP JUMPDEST PUSH1 0x20 DUP1 DUP3 MSTORE PUSH1 0x18 SWAP1 DUP3 ADD MSTORE PUSH32 0x6C7020746F6B656E206E6F742077686974656C69737465640000000000000000 PUSH1 0x40 DUP3 ADD MSTORE PUSH1 0x60 ADD SWAP1 JUMP JUMPDEST PUSH1 0x20 DUP1 DUP3 MSTORE PUSH1 0x17 SWAP1 DUP3 ADD MSTORE PUSH32 0x455448206D75737420636F6D652066726F6D2057455448000000000000000000 PUSH1 0x40 DUP3 ADD MSTORE PUSH1 0x60 ADD SWAP1 JUMP JUMPDEST PUSH1 0x20 DUP1 DUP3 MSTORE PUSH1 0x21 SWAP1 DUP3 ADD MSTORE PUSH32 0x536166654D6174683A206D756C7469706C69636174696F6E206F766572666C6F PUSH1 0x40 DUP3 ADD MSTORE PUSH1 0x77 PUSH1 0xF8 SHL PUSH1 0x60 DUP3 ADD MSTORE PUSH1 0x80 ADD SWAP1 JUMP JUMPDEST PUSH1 0x20 DUP1 DUP3 MSTORE PUSH1 0x8 SWAP1 DUP3 ADD MSTORE PUSH8 0x10B0B6BA20A6B4B7 PUSH1 0xC1 SHL PUSH1 0x40 DUP3 ADD MSTORE PUSH1 0x60 ADD SWAP1 JUMP JUMPDEST PUSH1 0x20 DUP1 DUP3 MSTORE PUSH1 0x8 SWAP1 DUP3 ADD MSTORE PUSH8 0x14995D995C9CD959 PUSH1 0xC2 SHL PUSH1 0x40 DUP3 ADD MSTORE PUSH1 0x60 ADD SWAP1 JUMP JUMPDEST PUSH1 0x20 DUP1 DUP3 MSTORE PUSH1 0x1D SWAP1 DUP3 ADD MSTORE PUSH32 0x416464726573733A2063616C6C20746F206E6F6E2D636F6E7472616374000000 PUSH1 0x40 DUP3 ADD MSTORE PUSH1 0x60 ADD SWAP1 JUMP JUMPDEST PUSH1 0x20 DUP1 DUP3 MSTORE PUSH1 0x14 SWAP1 DUP3 ADD MSTORE PUSH20 0x696E636F727265637420756E6465726C79696E67 PUSH1 0x60 SHL PUSH1 0x40 DUP3 ADD MSTORE PUSH1 0x60 ADD SWAP1 JUMP JUMPDEST PUSH1 0x20 DUP1 DUP3 MSTORE PUSH1 0x2A SWAP1 DUP3 ADD MSTORE PUSH32 0x5361666545524332303A204552433230206F7065726174696F6E20646964206E PUSH1 0x40 DUP3 ADD MSTORE PUSH10 0x1BDD081CDD58D8D95959 PUSH1 0xB2 SHL PUSH1 0x60 DUP3 ADD MSTORE PUSH1 0x80 ADD SWAP1 JUMP JUMPDEST PUSH1 0x20 DUP1 DUP3 MSTORE PUSH1 0x36 SWAP1 DUP3 ADD MSTORE PUSH32 0x5361666545524332303A20617070726F76652066726F6D206E6F6E2D7A65726F PUSH1 0x40 DUP3 ADD MSTORE PUSH22 0x20746F206E6F6E2D7A65726F20616C6C6F77616E6365 PUSH1 0x50 SHL PUSH1 0x60 DUP3 ADD MSTORE PUSH1 0x80 ADD SWAP1 JUMP JUMPDEST SWAP1 DUP2 MSTORE PUSH1 0x20 ADD SWAP1 JUMP JUMPDEST SWAP2 DUP3 MSTORE PUSH1 0x1 PUSH1 0x1 PUSH1 0xA0 SHL SUB AND PUSH1 0x20 DUP3 ADD MSTORE PUSH1 0x40 ADD SWAP1 JUMP JUMPDEST PUSH1 0x0 DUP7 DUP3 MSTORE DUP6 PUSH1 0x20 DUP4 ADD MSTORE PUSH1 0xA0 PUSH1 0x40 DUP4 ADD MSTORE PUSH2 0x42DF PUSH1 0xA0 DUP4 ADD DUP7 PUSH2 0x3C6A JUMP JUMPDEST PUSH1 0x1 PUSH1 0x1 PUSH1 0xA0 SHL SUB SWAP5 SWAP1 SWAP5 AND PUSH1 0x60 DUP4 ADD MSTORE POP PUSH1 0x80 ADD MSTORE SWAP4 SWAP3 POP POP POP JUMP JUMPDEST SWAP2 DUP3 MSTORE PUSH1 0x20 DUP3 ADD MSTORE PUSH1 0x40 ADD SWAP1 JUMP JUMPDEST PUSH1 0x40 MLOAD DUP2 DUP2 ADD PUSH8 0xFFFFFFFFFFFFFFFF DUP2 GT DUP3 DUP3 LT OR ISZERO PUSH2 0x4329 JUMPI PUSH1 0x0 DUP1 REVERT JUMPDEST PUSH1 0x40 MSTORE SWAP2 SWAP1 POP JUMP JUMPDEST PUSH1 0x0 PUSH8 0xFFFFFFFFFFFFFFFF DUP3 GT ISZERO PUSH2 0x4347 JUMPI DUP1 DUP2 REVERT JUMPDEST POP PUSH1 0x20 SWAP1 DUP2 MUL ADD SWAP1 JUMP JUMPDEST PUSH1 0x0 JUMPDEST DUP4 DUP2 LT ISZERO PUSH2 0x436C JUMPI DUP2 DUP2 ADD MLOAD DUP4 DUP3 ADD MSTORE PUSH1 0x20 ADD PUSH2 0x4354 JUMP JUMPDEST DUP4 DUP2 GT ISZERO PUSH2 0x471 JUMPI POP POP PUSH1 0x0 SWAP2 ADD MSTORE JUMP JUMPDEST PUSH1 0x1 PUSH1 0x1 PUSH1 0xA0 SHL SUB DUP2 AND DUP2 EQ PUSH2 0x2FEE JUMPI PUSH1 0x0 DUP1 REVERT JUMPDEST DUP1 ISZERO ISZERO DUP2 EQ PUSH2 0x2FEE JUMPI PUSH1 0x0 DUP1 REVERT JUMPDEST PUSH1 0x1 PUSH1 0x1 PUSH1 0x70 SHL SUB DUP2 AND DUP2 EQ PUSH2 0x2FEE JUMPI PUSH1 0x0 DUP1 REVERT INVALID LOG2 PUSH5 0x6970667358 0x22 SLT KECCAK256 PUSH28 0x5183882F35C80F14190030640BBCE71833B9B50FC86AA45B99DD3245 LOG1 0xC RETURNDATASIZE PUSH5 0x736F6C6343 STOP MOD 0xC STOP CALLER ",
  "sha1": "6501387a3ba2a06a1ac98b657c978511ee75e33b",
  "source": "// SPDX-License-Identifier: MIT\n\npragma solidity 0.6.12;\npragma experimental ABIEncoderV2;\n\nimport 'OpenZeppelin/openzeppelin-contracts@3.4.0/contracts/token/ERC20/IERC20.sol';\nimport 'OpenZeppelin/openzeppelin-contracts@3.4.0/contracts/math/SafeMath.sol';\n\nimport './WhitelistSpell.sol';\nimport '../utils/HomoraMath.sol';\nimport '../../interfaces/IUniswapV2Factory.sol';\nimport '../../interfaces/IUniswapV2Router02.sol';\nimport '../../interfaces/IUniswapV2Pair.sol';\nimport '../../interfaces/IWStakingRewards.sol';\n\ncontract UniswapV2SpellV1 is WhitelistSpell {\n  using SafeMath for uint;\n  using HomoraMath for uint;\n\n  IUniswapV2Factory public immutable factory; // Uniswap factory\n  IUniswapV2Router02 public immutable router; // Uniswap router\n\n  mapping(address => mapping(address => address)) public pairs; // Mapping from tokenA to (mapping from tokenB to LP token)\n\n  constructor(\n    IBank _bank,\n    address _werc20,\n    IUniswapV2Router02 _router\n  ) public WhitelistSpell(_bank, _werc20, _router.WETH()) {\n    router = _router;\n    factory = IUniswapV2Factory(_router.factory());\n  }\n\n  /// @dev Return the LP token for the token pairs (can be in any order)\n  /// @param tokenA Token A to get LP token\n  /// @param tokenB Token B to get LP token\n  function getAndApprovePair(address tokenA, address tokenB) public returns (address) {\n    address lp = pairs[tokenA][tokenB];\n    if (lp == address(0)) {\n      lp = factory.getPair(tokenA, tokenB);\n      require(lp != address(0), 'no lp token');\n      ensureApprove(tokenA, address(router));\n      ensureApprove(tokenB, address(router));\n      ensureApprove(lp, address(router));\n      pairs[tokenA][tokenB] = lp;\n      pairs[tokenB][tokenA] = lp;\n    }\n    return lp;\n  }\n\n  /// @dev Compute optimal deposit amount\n  /// @param amtA amount of token A desired to deposit\n  /// @param amtB amount of token B desired to deposit\n  /// @param resA amount of token A in reserve\n  /// @param resB amount of token B in reserve\n  function optimalDeposit(\n    uint amtA,\n    uint amtB,\n    uint resA,\n    uint resB\n  ) internal pure returns (uint swapAmt, bool isReversed) {\n    if (amtA.mul(resB) >= amtB.mul(resA)) {\n      swapAmt = _optimalDepositA(amtA, amtB, resA, resB);\n      isReversed = false;\n    } else {\n      swapAmt = _optimalDepositA(amtB, amtA, resB, resA);\n      isReversed = true;\n    }\n  }\n\n  /// @dev Compute optimal deposit amount helper.\n  /// @param amtA amount of token A desired to deposit\n  /// @param amtB amount of token B desired to deposit\n  /// @param resA amount of token A in reserve\n  /// @param resB amount of token B in reserve\n  /// Formula: https://blog.alphafinance.io/byot/\n  function _optimalDepositA(\n    uint amtA,\n    uint amtB,\n    uint resA,\n    uint resB\n  ) internal pure returns (uint) {\n    require(amtA.mul(resB) >= amtB.mul(resA), 'Reversed');\n    uint a = 997;\n    uint b = uint(1997).mul(resA);\n    uint _c = (amtA.mul(resB)).sub(amtB.mul(resA));\n    uint c = _c.mul(1000).div(amtB.add(resB)).mul(resA);\n    uint d = a.mul(c).mul(4);\n    uint e = HomoraMath.sqrt(b.mul(b).add(d));\n    uint numerator = e.sub(b);\n    uint denominator = a.mul(2);\n    return numerator.div(denominator);\n  }\n\n  struct Amounts {\n    uint amtAUser; // Supplied tokenA amount\n    uint amtBUser; // Supplied tokenB amount\n    uint amtLPUser; // Supplied LP token amount\n    uint amtABorrow; // Borrow tokenA amount\n    uint amtBBorrow; // Borrow tokenB amount\n    uint amtLPBorrow; // Borrow LP token amount\n    uint amtAMin; // Desired tokenA amount (slippage control)\n    uint amtBMin; // Desired tokenB amount (slippage control)\n  }\n\n  /// @dev Add liquidity to Uniswap pool\n  /// @param tokenA Token A for the pair\n  /// @param tokenB Token B for the pair\n  /// @param amt Amounts of tokens to supply, borrow, and get.\n  function addLiquidityInternal(\n    address tokenA,\n    address tokenB,\n    Amounts calldata amt,\n    address lp\n  ) internal {\n    require(whitelistedLpTokens[lp], 'lp token not whitelisted');\n\n    // 1. Get user input amounts\n    doTransmitETH();\n    doTransmit(tokenA, amt.amtAUser);\n    doTransmit(tokenB, amt.amtBUser);\n    doTransmit(lp, amt.amtLPUser);\n\n    // 2. Borrow specified amounts\n    doBorrow(tokenA, amt.amtABorrow);\n    doBorrow(tokenB, amt.amtBBorrow);\n    doBorrow(lp, amt.amtLPBorrow);\n\n    // 3. Calculate optimal swap amount\n    uint swapAmt;\n    bool isReversed;\n    {\n      uint amtA = IERC20(tokenA).balanceOf(address(this));\n      uint amtB = IERC20(tokenB).balanceOf(address(this));\n      uint resA;\n      uint resB;\n      if (IUniswapV2Pair(lp).token0() == tokenA) {\n        (resA, resB, ) = IUniswapV2Pair(lp).getReserves();\n      } else {\n        (resB, resA, ) = IUniswapV2Pair(lp).getReserves();\n      }\n      (swapAmt, isReversed) = optimalDeposit(amtA, amtB, resA, resB);\n    }\n\n    // 4. Swap optimal amount\n    if (swapAmt > 0) {\n      address[] memory path = new address[](2);\n      (path[0], path[1]) = isReversed ? (tokenB, tokenA) : (tokenA, tokenB);\n      router.swapExactTokensForTokens(swapAmt, 0, path, address(this), block.timestamp);\n    }\n\n    // 5. Add liquidity\n    uint balA = IERC20(tokenA).balanceOf(address(this));\n    uint balB = IERC20(tokenB).balanceOf(address(this));\n    if (balA > 0 || balB > 0) {\n      require(balA >= amt.amtAMin, '!amtAMin');\n      require(balB >= amt.amtBMin, '!amtBMin');\n      router.addLiquidity(\n        tokenA,\n        tokenB,\n        balA,\n        balB,\n        amt.amtAMin,\n        amt.amtBMin,\n        address(this),\n        block.timestamp\n      );\n    }\n  }\n\n  /// @dev Add liquidity to Uniswap pool, with no staking rewards (use WERC20 wrapper)\n  /// @param tokenA Token A for the pair\n  /// @param tokenB Token B for the pair\n  /// @param amt Amounts of tokens to supply, borrow, and get.\n  function addLiquidityWERC20(\n    address tokenA,\n    address tokenB,\n    Amounts calldata amt\n  ) external payable {\n    address lp = getAndApprovePair(tokenA, tokenB);\n    // 1-5. add liquidity\n    addLiquidityInternal(tokenA, tokenB, amt, lp);\n\n    // 6. Put collateral\n    doPutCollateral(lp, IERC20(lp).balanceOf(address(this)));\n\n    // 7. Refund leftovers to users\n    doRefundETH();\n    doRefund(tokenA);\n    doRefund(tokenB);\n  }\n\n  /// @dev Add liquidity to Uniswap pool, with staking rewards\n  /// @param tokenA Token A for the pair\n  /// @param tokenB Token B for the pair\n  /// @param amt Amounts of tokens to supply, borrow, and get.\n  /// @param wstaking Wrapped staking rewards address\n  function addLiquidityWStakingRewards(\n    address tokenA,\n    address tokenB,\n    Amounts calldata amt,\n    address wstaking\n  ) external payable {\n    address lp = getAndApprovePair(tokenA, tokenB);\n    address reward = IWStakingRewards(wstaking).reward();\n\n    // 1-5. add liquidity\n    addLiquidityInternal(tokenA, tokenB, amt, lp);\n\n    // 6. Take out collateral\n    (, address collToken, uint collId, uint collSize) = bank.getCurrentPositionInfo();\n    if (collSize > 0) {\n      require(IWStakingRewards(collToken).getUnderlyingToken(collId) == lp, 'incorrect underlying');\n      require(collToken == wstaking, 'collateral token & wstaking mismatched');\n      bank.takeCollateral(wstaking, collId, collSize);\n      IWStakingRewards(wstaking).burn(collId, collSize);\n    }\n\n    // 7. Put collateral\n    ensureApprove(lp, wstaking);\n    uint amount = IERC20(lp).balanceOf(address(this));\n    uint id = IWStakingRewards(wstaking).mint(amount);\n    if (!IWStakingRewards(wstaking).isApprovedForAll(address(this), address(bank))) {\n      IWStakingRewards(wstaking).setApprovalForAll(address(bank), true);\n    }\n    bank.putCollateral(address(wstaking), id, amount);\n\n    // 8. Refund leftovers to users\n    doRefundETH();\n    doRefund(tokenA);\n    doRefund(tokenB);\n\n    // 9. Refund reward\n    doRefund(reward);\n  }\n\n  struct RepayAmounts {\n    uint amtLPTake; // Take out LP token amount (from Homora)\n    uint amtLPWithdraw; // Withdraw LP token amount (back to caller)\n    uint amtARepay; // Repay tokenA amount\n    uint amtBRepay; // Repay tokenB amount\n    uint amtLPRepay; // Repay LP token amount\n    uint amtAMin; // Desired tokenA amount\n    uint amtBMin; // Desired tokenB amount\n  }\n\n  /// @dev Remove liquidity from Uniswap pool\n  /// @param tokenA Token A for the pair\n  /// @param tokenB Token B for the pair\n  /// @param amt Amounts of tokens to take out, withdraw, repay, and get.\n  function removeLiquidityInternal(\n    address tokenA,\n    address tokenB,\n    RepayAmounts calldata amt,\n    address lp\n  ) internal {\n    require(whitelistedLpTokens[lp], 'lp token not whitelisted');\n    uint positionId = bank.POSITION_ID();\n\n    uint amtARepay = amt.amtARepay;\n    uint amtBRepay = amt.amtBRepay;\n    uint amtLPRepay = amt.amtLPRepay;\n\n    // 2. Compute repay amount if MAX_INT is supplied (max debt)\n    if (amtARepay == uint(-1)) {\n      amtARepay = bank.borrowBalanceCurrent(positionId, tokenA);\n    }\n    if (amtBRepay == uint(-1)) {\n      amtBRepay = bank.borrowBalanceCurrent(positionId, tokenB);\n    }\n    if (amtLPRepay == uint(-1)) {\n      amtLPRepay = bank.borrowBalanceCurrent(positionId, lp);\n    }\n\n    // 3. Compute amount to actually remove\n    uint amtLPToRemove = IERC20(lp).balanceOf(address(this)).sub(amt.amtLPWithdraw);\n\n    // 4. Remove liquidity\n    uint amtA;\n    uint amtB;\n    if (amtLPToRemove > 0) {\n      (amtA, amtB) = router.removeLiquidity(\n        tokenA,\n        tokenB,\n        amtLPToRemove,\n        0,\n        0,\n        address(this),\n        block.timestamp\n      );\n    }\n\n    // 5. MinimizeTrading\n    uint amtADesired = amtARepay.add(amt.amtAMin);\n    uint amtBDesired = amtBRepay.add(amt.amtBMin);\n\n    if (amtA < amtADesired && amtB > amtBDesired) {\n      address[] memory path = new address[](2);\n      (path[0], path[1]) = (tokenB, tokenA);\n      router.swapTokensForExactTokens(\n        amtADesired.sub(amtA),\n        amtB.sub(amtBDesired),\n        path,\n        address(this),\n        block.timestamp\n      );\n    } else if (amtA > amtADesired && amtB < amtBDesired) {\n      address[] memory path = new address[](2);\n      (path[0], path[1]) = (tokenA, tokenB);\n      router.swapTokensForExactTokens(\n        amtBDesired.sub(amtB),\n        amtA.sub(amtADesired),\n        path,\n        address(this),\n        block.timestamp\n      );\n    }\n\n    // 6. Repay\n    doRepay(tokenA, amtARepay);\n    doRepay(tokenB, amtBRepay);\n    doRepay(lp, amtLPRepay);\n\n    // 7. Slippage control\n    require(IERC20(tokenA).balanceOf(address(this)) >= amt.amtAMin);\n    require(IERC20(tokenB).balanceOf(address(this)) >= amt.amtBMin);\n    require(IERC20(lp).balanceOf(address(this)) >= amt.amtLPWithdraw);\n\n    // 8. Refund leftover\n    doRefundETH();\n    doRefund(tokenA);\n    doRefund(tokenB);\n    doRefund(lp);\n  }\n\n  /// @dev Remove liquidity from Uniswap pool, with no staking rewards (use WERC20 wrapper)\n  /// @param tokenA Token A for the pair\n  /// @param tokenB Token B for the pair\n  /// @param amt Amounts of tokens to take out, withdraw, repay, and get.\n  function removeLiquidityWERC20(\n    address tokenA,\n    address tokenB,\n    RepayAmounts calldata amt\n  ) external {\n    address lp = getAndApprovePair(tokenA, tokenB);\n\n    // 1. Take out collateral\n    doTakeCollateral(lp, amt.amtLPTake);\n\n    // 2-8. remove liquidity\n    removeLiquidityInternal(tokenA, tokenB, amt, lp);\n  }\n\n  /// @dev Remove liquidity from Uniswap pool, from staking rewards\n  /// @param tokenA Token A for the pair\n  /// @param tokenB Token B for the pair\n  /// @param amt Amounts of tokens to take out, withdraw, repay, and get.\n  function removeLiquidityWStakingRewards(\n    address tokenA,\n    address tokenB,\n    RepayAmounts calldata amt,\n    address wstaking\n  ) external {\n    address lp = getAndApprovePair(tokenA, tokenB);\n    (, address collToken, uint collId, ) = bank.getCurrentPositionInfo();\n    address reward = IWStakingRewards(wstaking).reward();\n\n    // 1. Take out collateral\n    require(IWStakingRewards(collToken).getUnderlyingToken(collId) == lp, 'incorrect underlying');\n    require(collToken == wstaking, 'collateral token & wstaking mismatched');\n    bank.takeCollateral(wstaking, collId, amt.amtLPTake);\n    IWStakingRewards(wstaking).burn(collId, amt.amtLPTake);\n\n    // 2-8. remove liquidity\n    removeLiquidityInternal(tokenA, tokenB, amt, lp);\n\n    // 9. Refund reward\n    doRefund(reward);\n  }\n\n  /// @dev Harvest staking reward tokens to in-exec position's owner\n  /// @param wstaking Wrapped staking rewards address\n  function harvestWStakingRewards(address wstaking) external {\n    address reward = IWStakingRewards(wstaking).reward();\n    (, address collToken, uint collId, ) = bank.getCurrentPositionInfo();\n    address lp = IWStakingRewards(wstaking).getUnderlyingToken(collId);\n    require(whitelistedLpTokens[lp], 'lp token not whitelisted');\n    require(collToken == wstaking, 'collateral token & wstaking mismatched');\n\n    // 1. Take out collateral\n    bank.takeCollateral(wstaking, collId, uint(-1));\n    IWStakingRewards(wstaking).burn(collId, uint(-1));\n\n    // 2. put collateral\n    uint amount = IERC20(lp).balanceOf(address(this));\n    ensureApprove(lp, wstaking);\n    uint id = IWStakingRewards(wstaking).mint(amount);\n    bank.putCollateral(wstaking, id, amount);\n\n    // 3. Refund reward\n    doRefund(reward);\n  }\n}\n",
  "sourcePath": "contracts/spell/UniswapV2SpellV1.sol",
  "type": "contract"
}